{
  "_format": "hh-sol-artifact-1",
  "contractName": "BedroomNft",
  "sourceName": "contracts/BedroomNft.sol",
  "abi": [
    {
      "inputs": [
        {
          "internalType": "uint64",
          "name": "_subscriptionId",
          "type": "uint64"
        },
        {
          "internalType": "address",
          "name": "_vrfCoordinator",
          "type": "address"
        },
        {
          "internalType": "bytes32",
          "name": "_keyHash",
          "type": "bytes32"
        }
      ],
      "stateMutability": "nonpayable",
      "type": "constructor"
    },
    {
      "inputs": [
        {
          "internalType": "address",
          "name": "have",
          "type": "address"
        },
        {
          "internalType": "address",
          "name": "want",
          "type": "address"
        }
      ],
      "name": "OnlyCoordinatorCanFulfill",
      "type": "error"
    },
    {
      "anonymous": false,
      "inputs": [
        {
          "indexed": true,
          "internalType": "address",
          "name": "account",
          "type": "address"
        },
        {
          "indexed": true,
          "internalType": "address",
          "name": "operator",
          "type": "address"
        },
        {
          "indexed": false,
          "internalType": "bool",
          "name": "approved",
          "type": "bool"
        }
      ],
      "name": "ApprovalForAll",
      "type": "event"
    },
    {
      "anonymous": false,
      "inputs": [
        {
          "indexed": false,
          "internalType": "uint256",
          "name": "tokenId",
          "type": "uint256"
        },
        {
          "indexed": false,
          "internalType": "string",
          "name": "tokenURI",
          "type": "string"
        },
        {
          "components": [
            {
              "internalType": "uint256",
              "name": "lightIsolationScore",
              "type": "uint256"
            },
            {
              "internalType": "uint256",
              "name": "bedroomThermalIsolationScore",
              "type": "uint256"
            },
            {
              "internalType": "uint256",
              "name": "soundIsolationScore",
              "type": "uint256"
            },
            {
              "internalType": "uint256",
              "name": "temperatureScore",
              "type": "uint256"
            },
            {
              "internalType": "uint256",
              "name": "humidityScore",
              "type": "uint256"
            },
            {
              "internalType": "uint256",
              "name": "sleepAidMachinesScore",
              "type": "uint256"
            },
            {
              "internalType": "uint256",
              "name": "circadianRhythmRegulation",
              "type": "uint256"
            },
            {
              "internalType": "uint256",
              "name": "sizeScore",
              "type": "uint256"
            },
            {
              "internalType": "uint256",
              "name": "heightScore",
              "type": "uint256"
            },
            {
              "internalType": "uint256",
              "name": "bedBaseScore",
              "type": "uint256"
            },
            {
              "internalType": "uint256",
              "name": "mattressTechnologyScore",
              "type": "uint256"
            },
            {
              "internalType": "uint256",
              "name": "mattressThicknessScore",
              "type": "uint256"
            },
            {
              "internalType": "uint256",
              "name": "mattressDeformationScore",
              "type": "uint256"
            },
            {
              "internalType": "uint256",
              "name": "thermalIsolationScore",
              "type": "uint256"
            },
            {
              "internalType": "uint256",
              "name": "hygrometricRegulationScore",
              "type": "uint256"
            },
            {
              "internalType": "uint256",
              "name": "comforterComfortabilityScore",
              "type": "uint256"
            },
            {
              "internalType": "uint256",
              "name": "pillowComfortabilityScore",
              "type": "uint256"
            }
          ],
          "indexed": false,
          "internalType": "struct BedroomNft.NftSpecifications",
          "name": "specifications",
          "type": "tuple"
        }
      ],
      "name": "BedroomNftMinting",
      "type": "event"
    },
    {
      "anonymous": false,
      "inputs": [
        {
          "indexed": false,
          "internalType": "uint256",
          "name": "tokenId",
          "type": "uint256"
        },
        {
          "indexed": false,
          "internalType": "string",
          "name": "newTokenURI",
          "type": "string"
        },
        {
          "components": [
            {
              "internalType": "uint256",
              "name": "lightIsolationScore",
              "type": "uint256"
            },
            {
              "internalType": "uint256",
              "name": "bedroomThermalIsolationScore",
              "type": "uint256"
            },
            {
              "internalType": "uint256",
              "name": "soundIsolationScore",
              "type": "uint256"
            },
            {
              "internalType": "uint256",
              "name": "temperatureScore",
              "type": "uint256"
            },
            {
              "internalType": "uint256",
              "name": "humidityScore",
              "type": "uint256"
            },
            {
              "internalType": "uint256",
              "name": "sleepAidMachinesScore",
              "type": "uint256"
            },
            {
              "internalType": "uint256",
              "name": "circadianRhythmRegulation",
              "type": "uint256"
            },
            {
              "internalType": "uint256",
              "name": "sizeScore",
              "type": "uint256"
            },
            {
              "internalType": "uint256",
              "name": "heightScore",
              "type": "uint256"
            },
            {
              "internalType": "uint256",
              "name": "bedBaseScore",
              "type": "uint256"
            },
            {
              "internalType": "uint256",
              "name": "mattressTechnologyScore",
              "type": "uint256"
            },
            {
              "internalType": "uint256",
              "name": "mattressThicknessScore",
              "type": "uint256"
            },
            {
              "internalType": "uint256",
              "name": "mattressDeformationScore",
              "type": "uint256"
            },
            {
              "internalType": "uint256",
              "name": "thermalIsolationScore",
              "type": "uint256"
            },
            {
              "internalType": "uint256",
              "name": "hygrometricRegulationScore",
              "type": "uint256"
            },
            {
              "internalType": "uint256",
              "name": "comforterComfortabilityScore",
              "type": "uint256"
            },
            {
              "internalType": "uint256",
              "name": "pillowComfortabilityScore",
              "type": "uint256"
            }
          ],
          "indexed": false,
          "internalType": "struct BedroomNft.NftSpecifications",
          "name": "specifications",
          "type": "tuple"
        }
      ],
      "name": "BedroomNftUpgrading",
      "type": "event"
    },
    {
      "anonymous": false,
      "inputs": [
        {
          "indexed": true,
          "internalType": "address",
          "name": "previousOwner",
          "type": "address"
        },
        {
          "indexed": true,
          "internalType": "address",
          "name": "newOwner",
          "type": "address"
        }
      ],
      "name": "OwnershipTransferred",
      "type": "event"
    },
    {
      "anonymous": false,
      "inputs": [
        {
          "indexed": false,
          "internalType": "uint256[]",
          "name": "randomWords",
          "type": "uint256[]"
        }
      ],
      "name": "ReturnedRandomness",
      "type": "event"
    },
    {
      "anonymous": false,
      "inputs": [
        {
          "indexed": true,
          "internalType": "address",
          "name": "operator",
          "type": "address"
        },
        {
          "indexed": true,
          "internalType": "address",
          "name": "from",
          "type": "address"
        },
        {
          "indexed": true,
          "internalType": "address",
          "name": "to",
          "type": "address"
        },
        {
          "indexed": false,
          "internalType": "uint256[]",
          "name": "ids",
          "type": "uint256[]"
        },
        {
          "indexed": false,
          "internalType": "uint256[]",
          "name": "values",
          "type": "uint256[]"
        }
      ],
      "name": "TransferBatch",
      "type": "event"
    },
    {
      "anonymous": false,
      "inputs": [
        {
          "indexed": true,
          "internalType": "address",
          "name": "operator",
          "type": "address"
        },
        {
          "indexed": true,
          "internalType": "address",
          "name": "from",
          "type": "address"
        },
        {
          "indexed": true,
          "internalType": "address",
          "name": "to",
          "type": "address"
        },
        {
          "indexed": false,
          "internalType": "uint256",
          "name": "id",
          "type": "uint256"
        },
        {
          "indexed": false,
          "internalType": "uint256",
          "name": "value",
          "type": "uint256"
        }
      ],
      "name": "TransferSingle",
      "type": "event"
    },
    {
      "anonymous": false,
      "inputs": [
        {
          "indexed": false,
          "internalType": "string",
          "name": "value",
          "type": "string"
        },
        {
          "indexed": true,
          "internalType": "uint256",
          "name": "id",
          "type": "uint256"
        }
      ],
      "name": "URI",
      "type": "event"
    },
    {
      "inputs": [],
      "name": "COORDINATOR",
      "outputs": [
        {
          "internalType": "contract VRFCoordinatorV2Interface",
          "name": "",
          "type": "address"
        }
      ],
      "stateMutability": "view",
      "type": "function"
    },
    {
      "inputs": [
        {
          "internalType": "address",
          "name": "account",
          "type": "address"
        },
        {
          "internalType": "uint256",
          "name": "id",
          "type": "uint256"
        }
      ],
      "name": "balanceOf",
      "outputs": [
        {
          "internalType": "uint256",
          "name": "",
          "type": "uint256"
        }
      ],
      "stateMutability": "view",
      "type": "function"
    },
    {
      "inputs": [
        {
          "internalType": "address[]",
          "name": "accounts",
          "type": "address[]"
        },
        {
          "internalType": "uint256[]",
          "name": "ids",
          "type": "uint256[]"
        }
      ],
      "name": "balanceOfBatch",
      "outputs": [
        {
          "internalType": "uint256[]",
          "name": "",
          "type": "uint256[]"
        }
      ],
      "stateMutability": "view",
      "type": "function"
    },
    {
      "inputs": [],
      "name": "dexAddress",
      "outputs": [
        {
          "internalType": "address",
          "name": "",
          "type": "address"
        }
      ],
      "stateMutability": "view",
      "type": "function"
    },
    {
      "inputs": [],
      "name": "fileFormat",
      "outputs": [
        {
          "internalType": "string",
          "name": "",
          "type": "string"
        }
      ],
      "stateMutability": "view",
      "type": "function"
    },
    {
      "inputs": [
        {
          "internalType": "uint256",
          "name": "_tokenId",
          "type": "uint256"
        }
      ],
      "name": "getName",
      "outputs": [
        {
          "internalType": "string",
          "name": "",
          "type": "string"
        }
      ],
      "stateMutability": "view",
      "type": "function"
    },
    {
      "inputs": [
        {
          "internalType": "uint256",
          "name": "_tokenId",
          "type": "uint256"
        }
      ],
      "name": "getNftOwnership",
      "outputs": [
        {
          "components": [
            {
              "internalType": "address",
              "name": "owner",
              "type": "address"
            },
            {
              "internalType": "uint256",
              "name": "price",
              "type": "uint256"
            },
            {
              "internalType": "uint256",
              "name": "designId",
              "type": "uint256"
            },
            {
              "internalType": "uint256",
              "name": "level",
              "type": "uint256"
            },
            {
              "internalType": "enum BedroomNft.Category",
              "name": "category",
              "type": "uint8"
            }
          ],
          "internalType": "struct BedroomNft.NftOwnership",
          "name": "",
          "type": "tuple"
        }
      ],
      "stateMutability": "view",
      "type": "function"
    },
    {
      "inputs": [
        {
          "internalType": "uint256",
          "name": "_tokenId",
          "type": "uint256"
        }
      ],
      "name": "getNftSpecifications",
      "outputs": [
        {
          "components": [
            {
              "internalType": "uint256",
              "name": "lightIsolationScore",
              "type": "uint256"
            },
            {
              "internalType": "uint256",
              "name": "bedroomThermalIsolationScore",
              "type": "uint256"
            },
            {
              "internalType": "uint256",
              "name": "soundIsolationScore",
              "type": "uint256"
            },
            {
              "internalType": "uint256",
              "name": "temperatureScore",
              "type": "uint256"
            },
            {
              "internalType": "uint256",
              "name": "humidityScore",
              "type": "uint256"
            },
            {
              "internalType": "uint256",
              "name": "sleepAidMachinesScore",
              "type": "uint256"
            },
            {
              "internalType": "uint256",
              "name": "circadianRhythmRegulation",
              "type": "uint256"
            },
            {
              "internalType": "uint256",
              "name": "sizeScore",
              "type": "uint256"
            },
            {
              "internalType": "uint256",
              "name": "heightScore",
              "type": "uint256"
            },
            {
              "internalType": "uint256",
              "name": "bedBaseScore",
              "type": "uint256"
            },
            {
              "internalType": "uint256",
              "name": "mattressTechnologyScore",
              "type": "uint256"
            },
            {
              "internalType": "uint256",
              "name": "mattressThicknessScore",
              "type": "uint256"
            },
            {
              "internalType": "uint256",
              "name": "mattressDeformationScore",
              "type": "uint256"
            },
            {
              "internalType": "uint256",
              "name": "thermalIsolationScore",
              "type": "uint256"
            },
            {
              "internalType": "uint256",
              "name": "hygrometricRegulationScore",
              "type": "uint256"
            },
            {
              "internalType": "uint256",
              "name": "comforterComfortabilityScore",
              "type": "uint256"
            },
            {
              "internalType": "uint256",
              "name": "pillowComfortabilityScore",
              "type": "uint256"
            }
          ],
          "internalType": "struct BedroomNft.NftSpecifications",
          "name": "",
          "type": "tuple"
        }
      ],
      "stateMutability": "view",
      "type": "function"
    },
    {
      "inputs": [
        {
          "internalType": "address",
          "name": "account",
          "type": "address"
        },
        {
          "internalType": "address",
          "name": "operator",
          "type": "address"
        }
      ],
      "name": "isApprovedForAll",
      "outputs": [
        {
          "internalType": "bool",
          "name": "",
          "type": "bool"
        }
      ],
      "stateMutability": "view",
      "type": "function"
    },
    {
      "inputs": [
        {
          "internalType": "uint256",
          "name": "_designId",
          "type": "uint256"
        },
        {
          "internalType": "uint256",
          "name": "_price",
          "type": "uint256"
        },
        {
          "internalType": "enum BedroomNft.Category",
          "name": "_category",
          "type": "uint8"
        },
        {
          "internalType": "address",
          "name": "_owner",
          "type": "address"
        }
      ],
      "name": "mintingBedroomNft",
      "outputs": [],
      "stateMutability": "nonpayable",
      "type": "function"
    },
    {
      "inputs": [],
      "name": "owner",
      "outputs": [
        {
          "internalType": "address",
          "name": "",
          "type": "address"
        }
      ],
      "stateMutability": "view",
      "type": "function"
    },
    {
      "inputs": [
        {
          "internalType": "uint256",
          "name": "requestId",
          "type": "uint256"
        },
        {
          "internalType": "uint256[]",
          "name": "randomWords",
          "type": "uint256[]"
        }
      ],
      "name": "rawFulfillRandomWords",
      "outputs": [],
      "stateMutability": "nonpayable",
      "type": "function"
    },
    {
      "inputs": [],
      "name": "renounceOwnership",
      "outputs": [],
      "stateMutability": "nonpayable",
      "type": "function"
    },
    {
      "inputs": [
        {
          "internalType": "address",
          "name": "from",
          "type": "address"
        },
        {
          "internalType": "address",
          "name": "to",
          "type": "address"
        },
        {
          "internalType": "uint256[]",
          "name": "ids",
          "type": "uint256[]"
        },
        {
          "internalType": "uint256[]",
          "name": "amounts",
          "type": "uint256[]"
        },
        {
          "internalType": "bytes",
          "name": "data",
          "type": "bytes"
        }
      ],
      "name": "safeBatchTransferFrom",
      "outputs": [],
      "stateMutability": "nonpayable",
      "type": "function"
    },
    {
      "inputs": [
        {
          "internalType": "address",
          "name": "from",
          "type": "address"
        },
        {
          "internalType": "address",
          "name": "to",
          "type": "address"
        },
        {
          "internalType": "uint256",
          "name": "id",
          "type": "uint256"
        },
        {
          "internalType": "uint256",
          "name": "amount",
          "type": "uint256"
        },
        {
          "internalType": "bytes",
          "name": "data",
          "type": "bytes"
        }
      ],
      "name": "safeTransferFrom",
      "outputs": [],
      "stateMutability": "nonpayable",
      "type": "function"
    },
    {
      "inputs": [
        {
          "internalType": "address",
          "name": "operator",
          "type": "address"
        },
        {
          "internalType": "bool",
          "name": "approved",
          "type": "bool"
        }
      ],
      "name": "setApprovalForAll",
      "outputs": [],
      "stateMutability": "nonpayable",
      "type": "function"
    },
    {
      "inputs": [
        {
          "internalType": "string",
          "name": "_baseURI",
          "type": "string"
        }
      ],
      "name": "setBaseURI",
      "outputs": [],
      "stateMutability": "nonpayable",
      "type": "function"
    },
    {
      "inputs": [
        {
          "internalType": "address",
          "name": "_dexAddress",
          "type": "address"
        },
        {
          "internalType": "contract IUpgradeNft",
          "name": "_upgradeNftAddress",
          "type": "address"
        }
      ],
      "name": "setContracts",
      "outputs": [],
      "stateMutability": "nonpayable",
      "type": "function"
    },
    {
      "inputs": [
        {
          "internalType": "string",
          "name": "_format",
          "type": "string"
        }
      ],
      "name": "setFileFormat",
      "outputs": [],
      "stateMutability": "nonpayable",
      "type": "function"
    },
    {
      "inputs": [
        {
          "internalType": "uint256",
          "name": "_tokenId",
          "type": "uint256"
        },
        {
          "internalType": "string",
          "name": "_tokenURI",
          "type": "string"
        }
      ],
      "name": "setTokenURI",
      "outputs": [],
      "stateMutability": "nonpayable",
      "type": "function"
    },
    {
      "inputs": [
        {
          "internalType": "bytes4",
          "name": "interfaceId",
          "type": "bytes4"
        }
      ],
      "name": "supportsInterface",
      "outputs": [
        {
          "internalType": "bool",
          "name": "",
          "type": "bool"
        }
      ],
      "stateMutability": "view",
      "type": "function"
    },
    {
      "inputs": [],
      "name": "tokenId",
      "outputs": [
        {
          "internalType": "uint256",
          "name": "",
          "type": "uint256"
        }
      ],
      "stateMutability": "view",
      "type": "function"
    },
    {
      "inputs": [
        {
          "internalType": "address",
          "name": "newOwner",
          "type": "address"
        }
      ],
      "name": "transferOwnership",
      "outputs": [],
      "stateMutability": "nonpayable",
      "type": "function"
    },
    {
      "inputs": [
        {
          "internalType": "uint32",
          "name": "_callbackGasLimit",
          "type": "uint32"
        },
        {
          "internalType": "uint64",
          "name": "_subscriptionId",
          "type": "uint64"
        },
        {
          "internalType": "bytes32",
          "name": "_keyHash",
          "type": "bytes32"
        },
        {
          "internalType": "uint16",
          "name": "_requestConfirmations",
          "type": "uint16"
        }
      ],
      "name": "updateChainlink",
      "outputs": [],
      "stateMutability": "nonpayable",
      "type": "function"
    },
    {
      "inputs": [
        {
          "internalType": "uint256",
          "name": "_tokenId",
          "type": "uint256"
        },
        {
          "internalType": "uint256",
          "name": "_attributeIndex",
          "type": "uint256"
        },
        {
          "internalType": "uint256",
          "name": "_valueToAdd",
          "type": "uint256"
        },
        {
          "internalType": "uint256",
          "name": "_newDesignId",
          "type": "uint256"
        },
        {
          "internalType": "uint256",
          "name": "_amount",
          "type": "uint256"
        }
      ],
      "name": "upgradeBedroomNft",
      "outputs": [],
      "stateMutability": "nonpayable",
      "type": "function"
    },
    {
      "inputs": [],
      "name": "upgradeNftInstance",
      "outputs": [
        {
          "internalType": "contract IUpgradeNft",
          "name": "",
          "type": "address"
        }
      ],
      "stateMutability": "view",
      "type": "function"
    },
    {
      "inputs": [
        {
          "internalType": "uint256",
          "name": "_tokenId",
          "type": "uint256"
        }
      ],
      "name": "uri",
      "outputs": [
        {
          "internalType": "string",
          "name": "",
          "type": "string"
        }
      ],
      "stateMutability": "view",
      "type": "function"
    }
  ],
  "bytecode": "0x60c060405260405180602001604052806000815250600490805190602001906200002b9291906200029a565b503480156200003957600080fd5b5060405162005f4538038062005f4583398181016040528101906200005f919062000434565b60405180602001604052806000815250828073ffffffffffffffffffffffffffffffffffffffff1660808173ffffffffffffffffffffffffffffffffffffffff168152505050620000b681620001b060201b60201c565b50620000d7620000cb620001cc60201b60201c565b620001d460201b60201c565b8173ffffffffffffffffffffffffffffffffffffffff1660a08173ffffffffffffffffffffffffffffffffffffffff168152505082600860006101000a81548167ffffffffffffffff021916908367ffffffffffffffff160217905550806009819055506207a120600760186101000a81548163ffffffff021916908363ffffffff16021790555060066007601c6101000a81548161ffff021916908361ffff1602179055506011600760146101000a81548163ffffffff021916908363ffffffff1602179055506000600b81905550505050620004f4565b8060029080519060200190620001c89291906200029a565b5050565b600033905090565b6000600360009054906101000a900473ffffffffffffffffffffffffffffffffffffffff16905081600360006101000a81548173ffffffffffffffffffffffffffffffffffffffff021916908373ffffffffffffffffffffffffffffffffffffffff1602179055508173ffffffffffffffffffffffffffffffffffffffff168173ffffffffffffffffffffffffffffffffffffffff167f8be0079c531659141344cd1fd0a4f28419497f9722a3daafe3b4186f6b6457e060405160405180910390a35050565b828054620002a890620004bf565b90600052602060002090601f016020900481019282620002cc576000855562000318565b82601f10620002e757805160ff191683800117855562000318565b8280016001018555821562000318579182015b8281111562000317578251825591602001919060010190620002fa565b5b5090506200032791906200032b565b5090565b5b80821115620003465760008160009055506001016200032c565b5090565b600080fd5b600067ffffffffffffffff82169050919050565b6200036e816200034f565b81146200037a57600080fd5b50565b6000815190506200038e8162000363565b92915050565b600073ffffffffffffffffffffffffffffffffffffffff82169050919050565b6000620003c18262000394565b9050919050565b620003d381620003b4565b8114620003df57600080fd5b50565b600081519050620003f381620003c8565b92915050565b6000819050919050565b6200040e81620003f9565b81146200041a57600080fd5b50565b6000815190506200042e8162000403565b92915050565b60008060006060848603121562000450576200044f6200034a565b5b600062000460868287016200037d565b93505060206200047386828701620003e2565b925050604062000486868287016200041d565b9150509250925092565b7f4e487b7100000000000000000000000000000000000000000000000000000000600052602260045260246000fd5b60006002820490506001821680620004d857607f821691505b602082108103620004ee57620004ed62000490565b5b50919050565b60805160a051615a1d62000528600039600081816109a60152610c8e01526000818161081f01526108730152615a1d6000f3fe608060405234801561001057600080fd5b50600436106101a85760003560e01c80636b8ff574116100f9578063a22cb46511610097578063e985e9c511610071578063e985e9c5146104a3578063f242432a146104d3578063f2fde38b146104ef578063f4e6a71c1461050b576101a8565b8063a22cb4651461044f578063c8492dbc1461046b578063d8952a4914610487576101a8565b806374a90203116100d357806374a90203146103c757806385d90d09146103f75780638da5cb5b146104135780639ef122ae14610431576101a8565b80636b8ff5741461036f578063715018a61461039f578063745fba84146103a9576101a8565b80631fe543e3116101665780633b2bcbf1116101405780633b2bcbf1146102e95780634e1273f41461030757806355f804b3146103375780636994f47514610353576101a8565b80631fe543e3146102935780632eb2c2d6146102af57806330b67cb3146102cb576101a8565b8062fdd58e146101ad57806301ffc9a7146101dd5780630e89341c1461020d578063162094c41461023d57806317d70f7c1461025957806319a59b1a14610277575b600080fd5b6101c760048036038101906101c291906136f7565b61053b565b6040516101d49190613746565b60405180910390f35b6101f760048036038101906101f291906137b9565b610603565b6040516102049190613801565b60405180910390f35b6102276004803603810190610222919061381c565b6106e5565b60405161023491906138e2565b60405180910390f35b61025760048036038101906102529190613a39565b6106f7565b005b610261610781565b60405161026e9190613746565b60405180910390f35b610291600480360381019061028c9190613a95565b610787565b005b6102ad60048036038101906102a89190613ba6565b61081d565b005b6102c960048036038101906102c49190613ca3565b6108dd565b005b6102d361097e565b6040516102e09190613dd1565b60405180910390f35b6102f16109a4565b6040516102fe9190613e0d565b60405180910390f35b610321600480360381019061031c9190613eeb565b6109c8565b60405161032e9190614021565b60405180910390f35b610351600480360381019061034c9190613a95565b610ae1565b005b61036d60048036038101906103689190614068565b610b69565b005b6103896004803603810190610384919061381c565b610eb4565b60405161039691906138e2565b60405180910390f35b6103a7610f05565b005b6103b1610f8d565b6040516103be91906140de565b60405180910390f35b6103e160048036038101906103dc919061381c565b610fb3565b6040516103ee9190614258565b60405180910390f35b610411600480360381019061040c9190614274565b61108b565b005b61041b6112a6565b60405161042891906140de565b60405180910390f35b6104396112d0565b60405161044691906138e2565b60405180910390f35b6104696004803603810190610464919061431b565b61135e565b005b61048560048036038101906104809190614447565b611374565b005b6104a1600480360381019061049c91906144ec565b611464565b005b6104bd60048036038101906104b8919061452c565b611566565b6040516104ca9190613801565b60405180910390f35b6104ed60048036038101906104e8919061456c565b6115fa565b005b61050960048036038101906105049190614603565b61169b565b005b6105256004803603810190610520919061381c565b611792565b604051610532919061471e565b60405180910390f35b60008073ffffffffffffffffffffffffffffffffffffffff168373ffffffffffffffffffffffffffffffffffffffff16036105ab576040517f08c379a00000000000000000000000000000000000000000000000000000000081526004016105a2906147ab565b60405180910390fd5b60008083815260200190815260200160002060008473ffffffffffffffffffffffffffffffffffffffff1673ffffffffffffffffffffffffffffffffffffffff16815260200190815260200160002054905092915050565b60007fd9b67a26000000000000000000000000000000000000000000000000000000007bffffffffffffffffffffffffffffffffffffffffffffffffffffffff1916827bffffffffffffffffffffffffffffffffffffffffffffffffffffffff191614806106ce57507f0e89341c000000000000000000000000000000000000000000000000000000007bffffffffffffffffffffffffffffffffffffffffffffffffffffffff1916827bffffffffffffffffffffffffffffffffffffffffffffffffffffffff1916145b806106de57506106dd8261186e565b5b9050919050565b60606106f0826118d8565b9050919050565b6106ff6119bd565b73ffffffffffffffffffffffffffffffffffffffff1661071d6112a6565b73ffffffffffffffffffffffffffffffffffffffff1614610773576040517f08c379a000000000000000000000000000000000000000000000000000000000815260040161076a90614817565b60405180910390fd5b61077d82826119c5565b5050565b600b5481565b61078f6119bd565b73ffffffffffffffffffffffffffffffffffffffff166107ad6112a6565b73ffffffffffffffffffffffffffffffffffffffff1614610803576040517f08c379a00000000000000000000000000000000000000000000000000000000081526004016107fa90614817565b60405180910390fd5b80600a90805190602001906108199291906134d1565b5050565b7f000000000000000000000000000000000000000000000000000000000000000073ffffffffffffffffffffffffffffffffffffffff163373ffffffffffffffffffffffffffffffffffffffff16146108cf57337f00000000000000000000000000000000000000000000000000000000000000006040517f1cf993f40000000000000000000000000000000000000000000000000000000081526004016108c6929190614837565b60405180910390fd5b6108d98282611a31565b5050565b6108e56119bd565b73ffffffffffffffffffffffffffffffffffffffff168573ffffffffffffffffffffffffffffffffffffffff16148061092b575061092a856109256119bd565b611566565b5b61096a576040517f08c379a0000000000000000000000000000000000000000000000000000000008152600401610961906148d2565b60405180910390fd5b6109778585858585611a89565b5050505050565b600760009054906101000a900473ffffffffffffffffffffffffffffffffffffffff1681565b7f000000000000000000000000000000000000000000000000000000000000000081565b60608151835114610a0e576040517f08c379a0000000000000000000000000000000000000000000000000000000008152600401610a0590614964565b60405180910390fd5b6000835167ffffffffffffffff811115610a2b57610a2a61390e565b5b604051908082528060200260200182016040528015610a595781602001602082028036833780820191505090505b50905060005b8451811015610ad657610aa6858281518110610a7e57610a7d614984565b5b6020026020010151858381518110610a9957610a98614984565b5b602002602001015161053b565b828281518110610ab957610ab8614984565b5b60200260200101818152505080610acf906149e2565b9050610a5f565b508091505092915050565b610ae96119bd565b73ffffffffffffffffffffffffffffffffffffffff16610b076112a6565b73ffffffffffffffffffffffffffffffffffffffff1614610b5d576040517f08c379a0000000000000000000000000000000000000000000000000000000008152600401610b5490614817565b60405180910390fd5b610b6681611daa565b50565b600073ffffffffffffffffffffffffffffffffffffffff16600660009054906101000a900473ffffffffffffffffffffffffffffffffffffffff1673ffffffffffffffffffffffffffffffffffffffff1603610bfa576040517f08c379a0000000000000000000000000000000000000000000000000000000008152600401610bf190614a76565b60405180910390fd5b600660009054906101000a900473ffffffffffffffffffffffffffffffffffffffff1673ffffffffffffffffffffffffffffffffffffffff163373ffffffffffffffffffffffffffffffffffffffff1614610c8a576040517f08c379a0000000000000000000000000000000000000000000000000000000008152600401610c8190614ae2565b60405180910390fd5b60007f000000000000000000000000000000000000000000000000000000000000000073ffffffffffffffffffffffffffffffffffffffff16635d3b1d30600954600860009054906101000a900467ffffffffffffffff166007601c9054906101000a900461ffff16600760189054906101000a900463ffffffff16600760149054906101000a900463ffffffff166040518663ffffffff1660e01b8152600401610d39959493929190614b3e565b6020604051808303816000875af1158015610d58573d6000803e3d6000fd5b505050506040513d601f19601f82011682018060405250810190610d7c9190614ba6565b9050600b54600c6000838152602001908152602001600020819055506040518060a001604052808373ffffffffffffffffffffffffffffffffffffffff16815260200185815260200186815260200160008152602001846002811115610de557610de461463f565b5b815250600e6000600b54815260200190815260200160002060008201518160000160006101000a81548173ffffffffffffffffffffffffffffffffffffffff021916908373ffffffffffffffffffffffffffffffffffffffff16021790555060208201518160010155604082015181600201556060820151816003015560808201518160040160006101000a81548160ff02191690836002811115610e8d57610e8c61463f565b5b0217905550905050600b6000815480929190610ea8906149e2565b91905055505050505050565b6060610ebf82611dc4565b610ede600e600085815260200190815260200160002060030154611dc4565b604051602001610eef929190614ca7565b6040516020818303038152906040529050919050565b610f0d6119bd565b73ffffffffffffffffffffffffffffffffffffffff16610f2b6112a6565b73ffffffffffffffffffffffffffffffffffffffff1614610f81576040517f08c379a0000000000000000000000000000000000000000000000000000000008152600401610f7890614817565b60405180910390fd5b610f8b6000611f24565b565b600660009054906101000a900473ffffffffffffffffffffffffffffffffffffffff1681565b610fbb613557565b600d60008381526020019081526020016000206040518061022001604052908160008201548152602001600182015481526020016002820154815260200160038201548152602001600482015481526020016005820154815260200160068201548152602001600782015481526020016008820154815260200160098201548152602001600a8201548152602001600b8201548152602001600c8201548152602001600d8201548152602001600e8201548152602001600f82015481526020016010820154815250509050919050565b600073ffffffffffffffffffffffffffffffffffffffff16600760009054906101000a900473ffffffffffffffffffffffffffffffffffffffff1673ffffffffffffffffffffffffffffffffffffffff160361111c576040517f08c379a000000000000000000000000000000000000000000000000000000000815260040161111390614d53565b60405180910390fd5b600760009054906101000a900473ffffffffffffffffffffffffffffffffffffffff1673ffffffffffffffffffffffffffffffffffffffff163373ffffffffffffffffffffffffffffffffffffffff16146111ac576040517f08c379a00000000000000000000000000000000000000000000000000000000081526004016111a390614ae2565b60405180910390fd5b6111b7858585611fea565b600e600086815260200190815260200160002060030160008154809291906111de906149e2565b919050555080600e600087815260200190815260200160002060010160008282546112099190614d73565b92505081905550600061121b83611dc4565b600a60405160200161122e929190614ebd565b604051602081830303815290604052905061124986826119c5565b7f2ec36d35d7abde731d786e3a7f946aaf9de9625dc8a7f4115557f0304edd17cb86611274886106e5565b600d60008a815260200190815260200160002060405161129693929190615125565b60405180910390a1505050505050565b6000600360009054906101000a900473ffffffffffffffffffffffffffffffffffffffff16905090565b600a80546112dd90614df8565b80601f016020809104026020016040519081016040528092919081815260200182805461130990614df8565b80156113565780601f1061132b57610100808354040283529160200191611356565b820191906000526020600020905b81548152906001019060200180831161133957829003601f168201915b505050505081565b6113706113696119bd565b8383612484565b5050565b61137c6119bd565b73ffffffffffffffffffffffffffffffffffffffff1661139a6112a6565b73ffffffffffffffffffffffffffffffffffffffff16146113f0576040517f08c379a00000000000000000000000000000000000000000000000000000000081526004016113e790614817565b60405180910390fd5b82600860006101000a81548167ffffffffffffffff021916908367ffffffffffffffff1602179055508160098190555083600760186101000a81548163ffffffff021916908363ffffffff160217905550806007601c6101000a81548161ffff021916908361ffff16021790555050505050565b61146c6119bd565b73ffffffffffffffffffffffffffffffffffffffff1661148a6112a6565b73ffffffffffffffffffffffffffffffffffffffff16146114e0576040517f08c379a00000000000000000000000000000000000000000000000000000000081526004016114d790614817565b60405180910390fd5b81600660006101000a81548173ffffffffffffffffffffffffffffffffffffffff021916908373ffffffffffffffffffffffffffffffffffffffff16021790555080600760006101000a81548173ffffffffffffffffffffffffffffffffffffffff021916908373ffffffffffffffffffffffffffffffffffffffff1602179055505050565b6000600160008473ffffffffffffffffffffffffffffffffffffffff1673ffffffffffffffffffffffffffffffffffffffff16815260200190815260200160002060008373ffffffffffffffffffffffffffffffffffffffff1673ffffffffffffffffffffffffffffffffffffffff16815260200190815260200160002060009054906101000a900460ff16905092915050565b6116026119bd565b73ffffffffffffffffffffffffffffffffffffffff168573ffffffffffffffffffffffffffffffffffffffff1614806116485750611647856116426119bd565b611566565b5b611687576040517f08c379a000000000000000000000000000000000000000000000000000000000815260040161167e906151d6565b60405180910390fd5b61169485858585856125f0565b5050505050565b6116a36119bd565b73ffffffffffffffffffffffffffffffffffffffff166116c16112a6565b73ffffffffffffffffffffffffffffffffffffffff1614611717576040517f08c379a000000000000000000000000000000000000000000000000000000000815260040161170e90614817565b60405180910390fd5b600073ffffffffffffffffffffffffffffffffffffffff168173ffffffffffffffffffffffffffffffffffffffff1603611786576040517f08c379a000000000000000000000000000000000000000000000000000000000815260040161177d90615268565b60405180910390fd5b61178f81611f24565b50565b61179a6135db565b600e60008381526020019081526020016000206040518060a00160405290816000820160009054906101000a900473ffffffffffffffffffffffffffffffffffffffff1673ffffffffffffffffffffffffffffffffffffffff1673ffffffffffffffffffffffffffffffffffffffff1681526020016001820154815260200160028201548152602001600382015481526020016004820160009054906101000a900460ff1660028111156118515761185061463f565b5b60028111156118635761186261463f565b5b815250509050919050565b60007f01ffc9a7000000000000000000000000000000000000000000000000000000007bffffffffffffffffffffffffffffffffffffffffffffffffffffffff1916827bffffffffffffffffffffffffffffffffffffffffffffffffffffffff1916149050919050565b606060006005600084815260200190815260200160002080546118fa90614df8565b80601f016020809104026020016040519081016040528092919081815260200182805461192690614df8565b80156119735780601f1061194857610100808354040283529160200191611973565b820191906000526020600020905b81548152906001019060200180831161195657829003601f168201915b5050505050905060008151116119915761198c8361288b565b6119b5565b6004816040516020016119a5929190615288565b6040516020818303038152906040525b915050919050565b600033905090565b806005600084815260200190815260200160002090805190602001906119ec9291906134d1565b50817f6bb7ff708619ba0610cba295a58592e0451dee2622938c8755667688daf3529b611a18846106e5565b604051611a2591906138e2565b60405180910390a25050565b611a4e600c6000848152602001908152602001600020548261291f565b7fefb16d61046900da527008568620fb9f8420e2f5ed4de3bfbded5035c9362b0e81604051611a7d9190614021565b60405180910390a15050565b8151835114611acd576040517f08c379a0000000000000000000000000000000000000000000000000000000008152600401611ac49061531e565b60405180910390fd5b600073ffffffffffffffffffffffffffffffffffffffff168473ffffffffffffffffffffffffffffffffffffffff1603611b3c576040517f08c379a0000000000000000000000000000000000000000000000000000000008152600401611b33906153b0565b60405180910390fd5b6000611b466119bd565b9050611b56818787878787612a26565b60005b8451811015611d07576000858281518110611b7757611b76614984565b5b602002602001015190506000858381518110611b9657611b95614984565b5b60200260200101519050600080600084815260200190815260200160002060008b73ffffffffffffffffffffffffffffffffffffffff1673ffffffffffffffffffffffffffffffffffffffff16815260200190815260200160002054905081811015611c37576040517f08c379a0000000000000000000000000000000000000000000000000000000008152600401611c2e90615442565b60405180910390fd5b81810360008085815260200190815260200160002060008c73ffffffffffffffffffffffffffffffffffffffff1673ffffffffffffffffffffffffffffffffffffffff168152602001908152602001600020819055508160008085815260200190815260200160002060008b73ffffffffffffffffffffffffffffffffffffffff1673ffffffffffffffffffffffffffffffffffffffff1681526020019081526020016000206000828254611cec9190614d73565b9250508190555050505080611d00906149e2565b9050611b59565b508473ffffffffffffffffffffffffffffffffffffffff168673ffffffffffffffffffffffffffffffffffffffff168273ffffffffffffffffffffffffffffffffffffffff167f4a39dc06d4c0dbc64b70af90fd698a233a518aa5d07e595d983b8c0526c8f7fb8787604051611d7e929190615462565b60405180910390a4611d94818787878787612a2e565b611da2818787878787612a36565b505050505050565b8060049080519060200190611dc09291906134d1565b5050565b606060008203611e0b576040518060400160405280600181526020017f30000000000000000000000000000000000000000000000000000000000000008152509050611f1f565b600082905060005b60008214611e3d578080611e26906149e2565b915050600a82611e3691906154c8565b9150611e13565b60008167ffffffffffffffff811115611e5957611e5861390e565b5b6040519080825280601f01601f191660200182016040528015611e8b5781602001600182028036833780820191505090505b5090505b60008514611f1857600182611ea491906154f9565b9150600a85611eb3919061552d565b6030611ebf9190614d73565b60f81b818381518110611ed557611ed4614984565b5b60200101907effffffffffffffffffffffffffffffffffffffffffffffffffffffffffffff1916908160001a905350600a85611f1191906154c8565b9450611e8f565b8093505050505b919050565b6000600360009054906101000a900473ffffffffffffffffffffffffffffffffffffffff16905081600360006101000a81548173ffffffffffffffffffffffffffffffffffffffff021916908373ffffffffffffffffffffffffffffffffffffffff1602179055508173ffffffffffffffffffffffffffffffffffffffff168173ffffffffffffffffffffffffffffffffffffffff167f8be0079c531659141344cd1fd0a4f28419497f9722a3daafe3b4186f6b6457e060405160405180910390a35050565b6000820361202f5780600d6000858152602001908152602001600020600001546120149190614d73565b600d6000858152602001908152602001600020600001819055505b600182036120745780600d6000858152602001908152602001600020600101546120599190614d73565b600d6000858152602001908152602001600020600101819055505b600282036120b95780600d60008581526020019081526020016000206002015461209e9190614d73565b600d6000858152602001908152602001600020600201819055505b600382036120fe5780600d6000858152602001908152602001600020600301546120e39190614d73565b600d6000858152602001908152602001600020600301819055505b600482036121435780600d6000858152602001908152602001600020600401546121289190614d73565b600d6000858152602001908152602001600020600401819055505b600582036121885780600d60008581526020019081526020016000206005015461216d9190614d73565b600d6000858152602001908152602001600020600501819055505b600682036121cd5780600d6000858152602001908152602001600020600601546121b29190614d73565b600d6000858152602001908152602001600020600601819055505b600782036122125780600d6000858152602001908152602001600020600701546121f79190614d73565b600d6000858152602001908152602001600020600701819055505b600882036122575780600d60008581526020019081526020016000206008015461223c9190614d73565b600d6000858152602001908152602001600020600801819055505b6009820361229c5780600d6000858152602001908152602001600020600901546122819190614d73565b600d6000858152602001908152602001600020600901819055505b600a82036122e15780600d6000858152602001908152602001600020600a01546122c69190614d73565b600d6000858152602001908152602001600020600a01819055505b600b82036123265780600d6000858152602001908152602001600020600b015461230b9190614d73565b600d6000858152602001908152602001600020600b01819055505b600c820361236b5780600d6000858152602001908152602001600020600c01546123509190614d73565b600d6000858152602001908152602001600020600c01819055505b600d82036123b05780600d6000858152602001908152602001600020600d01546123959190614d73565b600d6000858152602001908152602001600020600d01819055505b600e82036123f55780600d6000858152602001908152602001600020600e01546123da9190614d73565b600d6000858152602001908152602001600020600e01819055505b600f820361243a5780600d6000858152602001908152602001600020600f015461241f9190614d73565b600d6000858152602001908152602001600020600f01819055505b6010820361247f5780600d6000858152602001908152602001600020601001546124649190614d73565b600d6000858152602001908152602001600020601001819055505b505050565b8173ffffffffffffffffffffffffffffffffffffffff168373ffffffffffffffffffffffffffffffffffffffff16036124f2576040517f08c379a00000000000000000000000000000000000000000000000000000000081526004016124e9906155d0565b60405180910390fd5b80600160008573ffffffffffffffffffffffffffffffffffffffff1673ffffffffffffffffffffffffffffffffffffffff16815260200190815260200160002060008473ffffffffffffffffffffffffffffffffffffffff1673ffffffffffffffffffffffffffffffffffffffff16815260200190815260200160002060006101000a81548160ff0219169083151502179055508173ffffffffffffffffffffffffffffffffffffffff168373ffffffffffffffffffffffffffffffffffffffff167f17307eab39ab6107e8899845ad3d59bd9653f200f220920489ca2b5937696c31836040516125e39190613801565b60405180910390a3505050565b600073ffffffffffffffffffffffffffffffffffffffff168473ffffffffffffffffffffffffffffffffffffffff160361265f576040517f08c379a0000000000000000000000000000000000000000000000000000000008152600401612656906153b0565b60405180910390fd5b60006126696119bd565b9050600061267685612c0d565b9050600061268385612c0d565b9050612693838989858589612a26565b600080600088815260200190815260200160002060008a73ffffffffffffffffffffffffffffffffffffffff1673ffffffffffffffffffffffffffffffffffffffff1681526020019081526020016000205490508581101561272a576040517f08c379a000000000000000000000000000000000000000000000000000000000815260040161272190615442565b60405180910390fd5b85810360008089815260200190815260200160002060008b73ffffffffffffffffffffffffffffffffffffffff1673ffffffffffffffffffffffffffffffffffffffff168152602001908152602001600020819055508560008089815260200190815260200160002060008a73ffffffffffffffffffffffffffffffffffffffff1673ffffffffffffffffffffffffffffffffffffffff16815260200190815260200160002060008282546127df9190614d73565b925050819055508773ffffffffffffffffffffffffffffffffffffffff168973ffffffffffffffffffffffffffffffffffffffff168573ffffffffffffffffffffffffffffffffffffffff167fc3d58168c5ae7397731d063d5bbf3d657854427343f4c083240f7aacaa2d0f628a8a60405161285c9291906155f0565b60405180910390a4612872848a8a86868a612a2e565b612880848a8a8a8a8a612c87565b505050505050505050565b60606002805461289a90614df8565b80601f01602080910402602001604051908101604052809291908181526020018280546128c690614df8565b80156129135780601f106128e857610100808354040283529160200191612913565b820191906000526020600020905b8154815290600101906020018083116128f657829003601f168201915b50505050509050919050565b6129298183612e5e565b61297d600e6000600b54815260200190815260200160002060000160009054906101000a900473ffffffffffffffffffffffffffffffffffffffff16836001604051806020016040528060008152506132fe565b600061299e600e600085815260200190815260200160002060020154611dc4565b600a6040516020016129b1929190614ebd565b60405160208183030381529060405290506129cc83826119c5565b7f81d0d0c12c6ca6c8fd87061fc7856093622d0ac0e30aea027a73111a5fd047f5836129f7856106e5565b600d6000878152602001908152602001600020604051612a1993929190615125565b60405180910390a1505050565b505050505050565b505050505050565b612a558473ffffffffffffffffffffffffffffffffffffffff166134ae565b15612c05578373ffffffffffffffffffffffffffffffffffffffff1663bc197c8187878686866040518663ffffffff1660e01b8152600401612a9b95949392919061566e565b6020604051808303816000875af1925050508015612ad757506040513d601f19601f82011682018060405250810190612ad491906156eb565b60015b612b7c57612ae3615725565b806308c379a003612b3f5750612af7615747565b80612b025750612b41565b806040517f08c379a0000000000000000000000000000000000000000000000000000000008152600401612b3691906138e2565b60405180910390fd5b505b6040517f08c379a0000000000000000000000000000000000000000000000000000000008152600401612b7390615849565b60405180910390fd5b63bc197c8160e01b7bffffffffffffffffffffffffffffffffffffffffffffffffffffffff1916817bffffffffffffffffffffffffffffffffffffffffffffffffffffffff191614612c03576040517f08c379a0000000000000000000000000000000000000000000000000000000008152600401612bfa906158db565b60405180910390fd5b505b505050505050565b60606000600167ffffffffffffffff811115612c2c57612c2b61390e565b5b604051908082528060200260200182016040528015612c5a5781602001602082028036833780820191505090505b5090508281600081518110612c7257612c71614984565b5b60200260200101818152505080915050919050565b612ca68473ffffffffffffffffffffffffffffffffffffffff166134ae565b15612e56578373ffffffffffffffffffffffffffffffffffffffff1663f23a6e6187878686866040518663ffffffff1660e01b8152600401612cec9594939291906158fb565b6020604051808303816000875af1925050508015612d2857506040513d601f19601f82011682018060405250810190612d2591906156eb565b60015b612dcd57612d34615725565b806308c379a003612d905750612d48615747565b80612d535750612d92565b806040517f08c379a0000000000000000000000000000000000000000000000000000000008152600401612d8791906138e2565b60405180910390fd5b505b6040517f08c379a0000000000000000000000000000000000000000000000000000000008152600401612dc490615849565b60405180910390fd5b63f23a6e6160e01b7bffffffffffffffffffffffffffffffffffffffffffffffffffffffff1916817bffffffffffffffffffffffffffffffffffffffffffffffffffffffff191614612e54576040517f08c379a0000000000000000000000000000000000000000000000000000000008152600401612e4b906158db565b60405180910390fd5b505b505050505050565b6040518061022001604052806001606485600081518110612e8257612e81614984565b5b6020026020010151612e94919061552d565b612e9e9190614d73565b81526020016001606485600181518110612ebb57612eba614984565b5b6020026020010151612ecd919061552d565b612ed79190614d73565b81526020016001606485600281518110612ef457612ef3614984565b5b6020026020010151612f06919061552d565b612f109190614d73565b81526020016001606485600381518110612f2d57612f2c614984565b5b6020026020010151612f3f919061552d565b612f499190614d73565b81526020016001606485600481518110612f6657612f65614984565b5b6020026020010151612f78919061552d565b612f829190614d73565b81526020016001606485600581518110612f9f57612f9e614984565b5b6020026020010151612fb1919061552d565b612fbb9190614d73565b81526020016001606485600681518110612fd857612fd7614984565b5b6020026020010151612fea919061552d565b612ff49190614d73565b8152602001600160648560078151811061301157613010614984565b5b6020026020010151613023919061552d565b61302d9190614d73565b8152602001600160648560088151811061304a57613049614984565b5b602002602001015161305c919061552d565b6130669190614d73565b8152602001600160648560098151811061308357613082614984565b5b6020026020010151613095919061552d565b61309f9190614d73565b81526020016001606485600a815181106130bc576130bb614984565b5b60200260200101516130ce919061552d565b6130d89190614d73565b81526020016001606485600b815181106130f5576130f4614984565b5b6020026020010151613107919061552d565b6131119190614d73565b81526020016001606485600c8151811061312e5761312d614984565b5b6020026020010151613140919061552d565b61314a9190614d73565b81526020016001606485600d8151811061316757613166614984565b5b6020026020010151613179919061552d565b6131839190614d73565b81526020016001606485600e815181106131a05761319f614984565b5b60200260200101516131b2919061552d565b6131bc9190614d73565b81526020016001606485600f815181106131d9576131d8614984565b5b60200260200101516131eb919061552d565b6131f59190614d73565b8152602001600160648560108151811061321257613211614984565b5b6020026020010151613224919061552d565b61322e9190614d73565b815250600d6000838152602001908152602001600020600082015181600001556020820151816001015560408201518160020155606082015181600301556080820151816004015560a0820151816005015560c0820151816006015560e082015181600701556101008201518160080155610120820151816009015561014082015181600a015561016082015181600b015561018082015181600c01556101a082015181600d01556101c082015181600e01556101e082015181600f015561020082015181601001559050505050565b600073ffffffffffffffffffffffffffffffffffffffff168473ffffffffffffffffffffffffffffffffffffffff160361336d576040517f08c379a0000000000000000000000000000000000000000000000000000000008152600401613364906159c7565b60405180910390fd5b60006133776119bd565b9050600061338485612c0d565b9050600061339185612c0d565b90506133a283600089858589612a26565b8460008088815260200190815260200160002060008973ffffffffffffffffffffffffffffffffffffffff1673ffffffffffffffffffffffffffffffffffffffff16815260200190815260200160002060008282546134019190614d73565b925050819055508673ffffffffffffffffffffffffffffffffffffffff16600073ffffffffffffffffffffffffffffffffffffffff168473ffffffffffffffffffffffffffffffffffffffff167fc3d58168c5ae7397731d063d5bbf3d657854427343f4c083240f7aacaa2d0f62898960405161347f9291906155f0565b60405180910390a461349683600089858589612a2e565b6134a583600089898989612c87565b50505050505050565b6000808273ffffffffffffffffffffffffffffffffffffffff163b119050919050565b8280546134dd90614df8565b90600052602060002090601f0160209004810192826134ff5760008555613546565b82601f1061351857805160ff1916838001178555613546565b82800160010185558215613546579182015b8281111561354557825182559160200191906001019061352a565b5b5090506135539190613632565b5090565b60405180610220016040528060008152602001600081526020016000815260200160008152602001600081526020016000815260200160008152602001600081526020016000815260200160008152602001600081526020016000815260200160008152602001600081526020016000815260200160008152602001600081525090565b6040518060a00160405280600073ffffffffffffffffffffffffffffffffffffffff1681526020016000815260200160008152602001600081526020016000600281111561362c5761362b61463f565b5b81525090565b5b8082111561364b576000816000905550600101613633565b5090565b6000604051905090565b600080fd5b600080fd5b600073ffffffffffffffffffffffffffffffffffffffff82169050919050565b600061368e82613663565b9050919050565b61369e81613683565b81146136a957600080fd5b50565b6000813590506136bb81613695565b92915050565b6000819050919050565b6136d4816136c1565b81146136df57600080fd5b50565b6000813590506136f1816136cb565b92915050565b6000806040838503121561370e5761370d613659565b5b600061371c858286016136ac565b925050602061372d858286016136e2565b9150509250929050565b613740816136c1565b82525050565b600060208201905061375b6000830184613737565b92915050565b60007fffffffff0000000000000000000000000000000000000000000000000000000082169050919050565b61379681613761565b81146137a157600080fd5b50565b6000813590506137b38161378d565b92915050565b6000602082840312156137cf576137ce613659565b5b60006137dd848285016137a4565b91505092915050565b60008115159050919050565b6137fb816137e6565b82525050565b600060208201905061381660008301846137f2565b92915050565b60006020828403121561383257613831613659565b5b6000613840848285016136e2565b91505092915050565b600081519050919050565b600082825260208201905092915050565b60005b83811015613883578082015181840152602081019050613868565b83811115613892576000848401525b50505050565b6000601f19601f8301169050919050565b60006138b482613849565b6138be8185613854565b93506138ce818560208601613865565b6138d781613898565b840191505092915050565b600060208201905081810360008301526138fc81846138a9565b905092915050565b600080fd5b600080fd5b7f4e487b7100000000000000000000000000000000000000000000000000000000600052604160045260246000fd5b61394682613898565b810181811067ffffffffffffffff821117156139655761396461390e565b5b80604052505050565b600061397861364f565b9050613984828261393d565b919050565b600067ffffffffffffffff8211156139a4576139a361390e565b5b6139ad82613898565b9050602081019050919050565b82818337600083830152505050565b60006139dc6139d784613989565b61396e565b9050828152602081018484840111156139f8576139f7613909565b5b613a038482856139ba565b509392505050565b600082601f830112613a2057613a1f613904565b5b8135613a308482602086016139c9565b91505092915050565b60008060408385031215613a5057613a4f613659565b5b6000613a5e858286016136e2565b925050602083013567ffffffffffffffff811115613a7f57613a7e61365e565b5b613a8b85828601613a0b565b9150509250929050565b600060208284031215613aab57613aaa613659565b5b600082013567ffffffffffffffff811115613ac957613ac861365e565b5b613ad584828501613a0b565b91505092915050565b600067ffffffffffffffff821115613af957613af861390e565b5b602082029050602081019050919050565b600080fd5b6000613b22613b1d84613ade565b61396e565b90508083825260208201905060208402830185811115613b4557613b44613b0a565b5b835b81811015613b6e5780613b5a88826136e2565b845260208401935050602081019050613b47565b5050509392505050565b600082601f830112613b8d57613b8c613904565b5b8135613b9d848260208601613b0f565b91505092915050565b60008060408385031215613bbd57613bbc613659565b5b6000613bcb858286016136e2565b925050602083013567ffffffffffffffff811115613bec57613beb61365e565b5b613bf885828601613b78565b9150509250929050565b600067ffffffffffffffff821115613c1d57613c1c61390e565b5b613c2682613898565b9050602081019050919050565b6000613c46613c4184613c02565b61396e565b905082815260208101848484011115613c6257613c61613909565b5b613c6d8482856139ba565b509392505050565b600082601f830112613c8a57613c89613904565b5b8135613c9a848260208601613c33565b91505092915050565b600080600080600060a08688031215613cbf57613cbe613659565b5b6000613ccd888289016136ac565b9550506020613cde888289016136ac565b945050604086013567ffffffffffffffff811115613cff57613cfe61365e565b5b613d0b88828901613b78565b935050606086013567ffffffffffffffff811115613d2c57613d2b61365e565b5b613d3888828901613b78565b925050608086013567ffffffffffffffff811115613d5957613d5861365e565b5b613d6588828901613c75565b9150509295509295909350565b6000819050919050565b6000613d97613d92613d8d84613663565b613d72565b613663565b9050919050565b6000613da982613d7c565b9050919050565b6000613dbb82613d9e565b9050919050565b613dcb81613db0565b82525050565b6000602082019050613de66000830184613dc2565b92915050565b6000613df782613d9e565b9050919050565b613e0781613dec565b82525050565b6000602082019050613e226000830184613dfe565b92915050565b600067ffffffffffffffff821115613e4357613e4261390e565b5b602082029050602081019050919050565b6000613e67613e6284613e28565b61396e565b90508083825260208201905060208402830185811115613e8a57613e89613b0a565b5b835b81811015613eb35780613e9f88826136ac565b845260208401935050602081019050613e8c565b5050509392505050565b600082601f830112613ed257613ed1613904565b5b8135613ee2848260208601613e54565b91505092915050565b60008060408385031215613f0257613f01613659565b5b600083013567ffffffffffffffff811115613f2057613f1f61365e565b5b613f2c85828601613ebd565b925050602083013567ffffffffffffffff811115613f4d57613f4c61365e565b5b613f5985828601613b78565b9150509250929050565b600081519050919050565b600082825260208201905092915050565b6000819050602082019050919050565b613f98816136c1565b82525050565b6000613faa8383613f8f565b60208301905092915050565b6000602082019050919050565b6000613fce82613f63565b613fd88185613f6e565b9350613fe383613f7f565b8060005b83811015614014578151613ffb8882613f9e565b975061400683613fb6565b925050600181019050613fe7565b5085935050505092915050565b6000602082019050818103600083015261403b8184613fc3565b905092915050565b6003811061405057600080fd5b50565b60008135905061406281614043565b92915050565b6000806000806080858703121561408257614081613659565b5b6000614090878288016136e2565b94505060206140a1878288016136e2565b93505060406140b287828801614053565b92505060606140c3878288016136ac565b91505092959194509250565b6140d881613683565b82525050565b60006020820190506140f360008301846140cf565b92915050565b610220820160008201516141106000850182613f8f565b5060208201516141236020850182613f8f565b5060408201516141366040850182613f8f565b5060608201516141496060850182613f8f565b50608082015161415c6080850182613f8f565b5060a082015161416f60a0850182613f8f565b5060c082015161418260c0850182613f8f565b5060e082015161419560e0850182613f8f565b506101008201516141aa610100850182613f8f565b506101208201516141bf610120850182613f8f565b506101408201516141d4610140850182613f8f565b506101608201516141e9610160850182613f8f565b506101808201516141fe610180850182613f8f565b506101a08201516142136101a0850182613f8f565b506101c08201516142286101c0850182613f8f565b506101e082015161423d6101e0850182613f8f565b50610200820151614252610200850182613f8f565b50505050565b60006102208201905061426e60008301846140f9565b92915050565b600080600080600060a086880312156142905761428f613659565b5b600061429e888289016136e2565b95505060206142af888289016136e2565b94505060406142c0888289016136e2565b93505060606142d1888289016136e2565b92505060806142e2888289016136e2565b9150509295509295909350565b6142f8816137e6565b811461430357600080fd5b50565b600081359050614315816142ef565b92915050565b6000806040838503121561433257614331613659565b5b6000614340858286016136ac565b925050602061435185828601614306565b9150509250929050565b600063ffffffff82169050919050565b6143748161435b565b811461437f57600080fd5b50565b6000813590506143918161436b565b92915050565b600067ffffffffffffffff82169050919050565b6143b481614397565b81146143bf57600080fd5b50565b6000813590506143d1816143ab565b92915050565b6000819050919050565b6143ea816143d7565b81146143f557600080fd5b50565b600081359050614407816143e1565b92915050565b600061ffff82169050919050565b6144248161440d565b811461442f57600080fd5b50565b6000813590506144418161441b565b92915050565b6000806000806080858703121561446157614460613659565b5b600061446f87828801614382565b9450506020614480878288016143c2565b9350506040614491878288016143f8565b92505060606144a287828801614432565b91505092959194509250565b60006144b982613683565b9050919050565b6144c9816144ae565b81146144d457600080fd5b50565b6000813590506144e6816144c0565b92915050565b6000806040838503121561450357614502613659565b5b6000614511858286016136ac565b9250506020614522858286016144d7565b9150509250929050565b6000806040838503121561454357614542613659565b5b6000614551858286016136ac565b9250506020614562858286016136ac565b9150509250929050565b600080600080600060a0868803121561458857614587613659565b5b6000614596888289016136ac565b95505060206145a7888289016136ac565b94505060406145b8888289016136e2565b93505060606145c9888289016136e2565b925050608086013567ffffffffffffffff8111156145ea576145e961365e565b5b6145f688828901613c75565b9150509295509295909350565b60006020828403121561461957614618613659565b5b6000614627848285016136ac565b91505092915050565b61463981613683565b82525050565b7f4e487b7100000000000000000000000000000000000000000000000000000000600052602160045260246000fd5b6003811061467f5761467e61463f565b5b50565b60008190506146908261466e565b919050565b60006146a082614682565b9050919050565b6146b081614695565b82525050565b60a0820160008201516146cc6000850182614630565b5060208201516146df6020850182613f8f565b5060408201516146f26040850182613f8f565b5060608201516147056060850182613f8f565b50608082015161471860808501826146a7565b50505050565b600060a08201905061473360008301846146b6565b92915050565b7f455243313135353a2062616c616e636520717565727920666f7220746865207a60008201527f65726f2061646472657373000000000000000000000000000000000000000000602082015250565b6000614795602b83613854565b91506147a082614739565b604082019050919050565b600060208201905081810360008301526147c481614788565b9050919050565b7f4f776e61626c653a2063616c6c6572206973206e6f7420746865206f776e6572600082015250565b6000614801602083613854565b915061480c826147cb565b602082019050919050565b60006020820190508181036000830152614830816147f4565b9050919050565b600060408201905061484c60008301856140cf565b61485960208301846140cf565b9392505050565b7f455243313135353a207472616e736665722063616c6c6572206973206e6f742060008201527f6f776e6572206e6f7220617070726f7665640000000000000000000000000000602082015250565b60006148bc603283613854565b91506148c782614860565b604082019050919050565b600060208201905081810360008301526148eb816148af565b9050919050565b7f455243313135353a206163636f756e747320616e6420696473206c656e67746860008201527f206d69736d617463680000000000000000000000000000000000000000000000602082015250565b600061494e602983613854565b9150614959826148f2565b604082019050919050565b6000602082019050818103600083015261497d81614941565b9050919050565b7f4e487b7100000000000000000000000000000000000000000000000000000000600052603260045260246000fd5b7f4e487b7100000000000000000000000000000000000000000000000000000000600052601160045260246000fd5b60006149ed826136c1565b91507fffffffffffffffffffffffffffffffffffffffffffffffffffffffffffffffff8203614a1f57614a1e6149b3565b5b600182019050919050565b7f4465782061646472657373206973206e6f7420636f6e66696775726564000000600082015250565b6000614a60601d83613854565b9150614a6b82614a2a565b602082019050919050565b60006020820190508181036000830152614a8f81614a53565b9050919050565b7f41636365737320666f7262696464656e00000000000000000000000000000000600082015250565b6000614acc601083613854565b9150614ad782614a96565b602082019050919050565b60006020820190508181036000830152614afb81614abf565b9050919050565b614b0b816143d7565b82525050565b614b1a81614397565b82525050565b614b298161440d565b82525050565b614b388161435b565b82525050565b600060a082019050614b536000830188614b02565b614b606020830187614b11565b614b6d6040830186614b20565b614b7a6060830185614b2f565b614b876080830184614b2f565b9695505050505050565b600081519050614ba0816136cb565b92915050565b600060208284031215614bbc57614bbb613659565b5b6000614bca84828501614b91565b91505092915050565b600081905092915050565b7f546f6b656e202300000000000000000000000000000000000000000000000000600082015250565b6000614c14600783614bd3565b9150614c1f82614bde565b600782019050919050565b6000614c3582613849565b614c3f8185614bd3565b9350614c4f818560208601613865565b80840191505092915050565b7f204c6576656c2000000000000000000000000000000000000000000000000000600082015250565b6000614c91600783614bd3565b9150614c9c82614c5b565b600782019050919050565b6000614cb282614c07565b9150614cbe8285614c2a565b9150614cc982614c84565b9150614cd58284614c2a565b91508190509392505050565b7f557067726164654e66742061646472657373206973206e6f7420636f6e66696760008201527f7572656400000000000000000000000000000000000000000000000000000000602082015250565b6000614d3d602483613854565b9150614d4882614ce1565b604082019050919050565b60006020820190508181036000830152614d6c81614d30565b9050919050565b6000614d7e826136c1565b9150614d89836136c1565b9250827fffffffffffffffffffffffffffffffffffffffffffffffffffffffffffffffff03821115614dbe57614dbd6149b3565b5b828201905092915050565b7f4e487b7100000000000000000000000000000000000000000000000000000000600052602260045260246000fd5b60006002820490506001821680614e1057607f821691505b602082108103614e2357614e22614dc9565b5b50919050565b60008190508160005260206000209050919050565b60008154614e4b81614df8565b614e558186614bd3565b94506001821660008114614e705760018114614e8157614eb4565b60ff19831686528186019350614eb4565b614e8a85614e29565b60005b83811015614eac57815481890152600182019150602081019050614e8d565b838801955050505b50505092915050565b6000614ec98285614c2a565b9150614ed58284614e3e565b91508190509392505050565b60008160001c9050919050565b6000819050919050565b6000614f0b614f0683614ee1565b614eee565b9050919050565b61022082016000808301549050614f2881614ef8565b614f356000860182613f8f565b5060018301549050614f4681614ef8565b614f536020860182613f8f565b5060028301549050614f6481614ef8565b614f716040860182613f8f565b5060038301549050614f8281614ef8565b614f8f6060860182613f8f565b5060048301549050614fa081614ef8565b614fad6080860182613f8f565b5060058301549050614fbe81614ef8565b614fcb60a0860182613f8f565b5060068301549050614fdc81614ef8565b614fe960c0860182613f8f565b5060078301549050614ffa81614ef8565b61500760e0860182613f8f565b506008830154905061501881614ef8565b615026610100860182613f8f565b506009830154905061503781614ef8565b615045610120860182613f8f565b50600a830154905061505681614ef8565b615064610140860182613f8f565b50600b830154905061507581614ef8565b615083610160860182613f8f565b50600c830154905061509481614ef8565b6150a2610180860182613f8f565b50600d83015490506150b381614ef8565b6150c16101a0860182613f8f565b50600e83015490506150d281614ef8565b6150e06101c0860182613f8f565b50600f83015490506150f181614ef8565b6150ff6101e0860182613f8f565b506010830154905061511081614ef8565b61511e610200860182613f8f565b5050505050565b60006102608201905061513b6000830186613737565b818103602083015261514d81856138a9565b905061515c6040830184614f12565b949350505050565b7f455243313135353a2063616c6c6572206973206e6f74206f776e6572206e6f7260008201527f20617070726f7665640000000000000000000000000000000000000000000000602082015250565b60006151c0602983613854565b91506151cb82615164565b604082019050919050565b600060208201905081810360008301526151ef816151b3565b9050919050565b7f4f776e61626c653a206e6577206f776e657220697320746865207a65726f206160008201527f6464726573730000000000000000000000000000000000000000000000000000602082015250565b6000615252602683613854565b915061525d826151f6565b604082019050919050565b6000602082019050818103600083015261528181615245565b9050919050565b60006152948285614e3e565b91506152a08284614c2a565b91508190509392505050565b7f455243313135353a2069647320616e6420616d6f756e7473206c656e6774682060008201527f6d69736d61746368000000000000000000000000000000000000000000000000602082015250565b6000615308602883613854565b9150615313826152ac565b604082019050919050565b60006020820190508181036000830152615337816152fb565b9050919050565b7f455243313135353a207472616e7366657220746f20746865207a65726f20616460008201527f6472657373000000000000000000000000000000000000000000000000000000602082015250565b600061539a602583613854565b91506153a58261533e565b604082019050919050565b600060208201905081810360008301526153c98161538d565b9050919050565b7f455243313135353a20696e73756666696369656e742062616c616e636520666f60008201527f72207472616e7366657200000000000000000000000000000000000000000000602082015250565b600061542c602a83613854565b9150615437826153d0565b604082019050919050565b6000602082019050818103600083015261545b8161541f565b9050919050565b6000604082019050818103600083015261547c8185613fc3565b905081810360208301526154908184613fc3565b90509392505050565b7f4e487b7100000000000000000000000000000000000000000000000000000000600052601260045260246000fd5b60006154d3826136c1565b91506154de836136c1565b9250826154ee576154ed615499565b5b828204905092915050565b6000615504826136c1565b915061550f836136c1565b925082821015615522576155216149b3565b5b828203905092915050565b6000615538826136c1565b9150615543836136c1565b92508261555357615552615499565b5b828206905092915050565b7f455243313135353a2073657474696e6720617070726f76616c2073746174757360008201527f20666f722073656c660000000000000000000000000000000000000000000000602082015250565b60006155ba602983613854565b91506155c58261555e565b604082019050919050565b600060208201905081810360008301526155e9816155ad565b9050919050565b60006040820190506156056000830185613737565b6156126020830184613737565b9392505050565b600081519050919050565b600082825260208201905092915050565b600061564082615619565b61564a8185615624565b935061565a818560208601613865565b61566381613898565b840191505092915050565b600060a08201905061568360008301886140cf565b61569060208301876140cf565b81810360408301526156a28186613fc3565b905081810360608301526156b68185613fc3565b905081810360808301526156ca8184615635565b90509695505050505050565b6000815190506156e58161378d565b92915050565b60006020828403121561570157615700613659565b5b600061570f848285016156d6565b91505092915050565b60008160e01c9050919050565b600060033d11156157445760046000803e615741600051615718565b90505b90565b600060443d106157d45761575961364f565b60043d036004823e80513d602482011167ffffffffffffffff821117156157815750506157d4565b808201805167ffffffffffffffff81111561579f57505050506157d4565b80602083010160043d0385018111156157bc5750505050506157d4565b6157cb8260200185018661393d565b82955050505050505b90565b7f455243313135353a207472616e7366657220746f206e6f6e204552433131353560008201527f526563656976657220696d706c656d656e746572000000000000000000000000602082015250565b6000615833603483613854565b915061583e826157d7565b604082019050919050565b6000602082019050818103600083015261586281615826565b9050919050565b7f455243313135353a204552433131353552656365697665722072656a6563746560008201527f6420746f6b656e73000000000000000000000000000000000000000000000000602082015250565b60006158c5602883613854565b91506158d082615869565b604082019050919050565b600060208201905081810360008301526158f4816158b8565b9050919050565b600060a08201905061591060008301886140cf565b61591d60208301876140cf565b61592a6040830186613737565b6159376060830185613737565b81810360808301526159498184615635565b90509695505050505050565b7f455243313135353a206d696e7420746f20746865207a65726f2061646472657360008201527f7300000000000000000000000000000000000000000000000000000000000000602082015250565b60006159b1602183613854565b91506159bc82615955565b604082019050919050565b600060208201905081810360008301526159e0816159a4565b905091905056fea2646970667358221220e69f44a04e0f5b20f0c2e2c88d7f30a9870c76da346a27c749d95d6598934f1a64736f6c634300080d0033",
  "linkReferences": {},
  "deployedLinkReferences": {}
}