{
  "_format": "hh-sol-artifact-1",
  "contractName": "BedroomNft",
  "sourceName": "contracts/BedroomNft.sol",
  "abi": [
    {
      "inputs": [
        {
          "internalType": "uint64",
          "name": "_subscriptionId",
          "type": "uint64"
        },
        {
          "internalType": "address",
          "name": "_vrfCoordinator",
          "type": "address"
        },
        {
          "internalType": "address",
          "name": "_link_token_contract",
          "type": "address"
        },
        {
          "internalType": "bytes32",
          "name": "_keyHash",
          "type": "bytes32"
        }
      ],
      "stateMutability": "nonpayable",
      "type": "constructor"
    },
    {
      "inputs": [
        {
          "internalType": "address",
          "name": "have",
          "type": "address"
        },
        {
          "internalType": "address",
          "name": "want",
          "type": "address"
        }
      ],
      "name": "OnlyCoordinatorCanFulfill",
      "type": "error"
    },
    {
      "anonymous": false,
      "inputs": [
        {
          "indexed": true,
          "internalType": "address",
          "name": "account",
          "type": "address"
        },
        {
          "indexed": true,
          "internalType": "address",
          "name": "operator",
          "type": "address"
        },
        {
          "indexed": false,
          "internalType": "bool",
          "name": "approved",
          "type": "bool"
        }
      ],
      "name": "ApprovalForAll",
      "type": "event"
    },
    {
      "anonymous": false,
      "inputs": [
        {
          "indexed": false,
          "internalType": "uint256",
          "name": "tokenId",
          "type": "uint256"
        },
        {
          "indexed": false,
          "internalType": "string",
          "name": "tokenURI",
          "type": "string"
        },
        {
          "components": [
            {
              "internalType": "uint256",
              "name": "lightIsolationScore",
              "type": "uint256"
            },
            {
              "internalType": "uint256",
              "name": "bedroomThermalIsolationScore",
              "type": "uint256"
            },
            {
              "internalType": "uint256",
              "name": "soundIsolationScore",
              "type": "uint256"
            },
            {
              "internalType": "uint256",
              "name": "temperatureScore",
              "type": "uint256"
            },
            {
              "internalType": "uint256",
              "name": "humidityScore",
              "type": "uint256"
            },
            {
              "internalType": "uint256",
              "name": "sleepAidMachinesScore",
              "type": "uint256"
            },
            {
              "internalType": "uint256",
              "name": "sizeScore",
              "type": "uint256"
            },
            {
              "internalType": "uint256",
              "name": "heightScore",
              "type": "uint256"
            },
            {
              "internalType": "uint256",
              "name": "bedBaseScore",
              "type": "uint256"
            },
            {
              "internalType": "uint256",
              "name": "mattressTechnologyScore",
              "type": "uint256"
            },
            {
              "internalType": "uint256",
              "name": "mattressThicknessScore",
              "type": "uint256"
            },
            {
              "internalType": "uint256",
              "name": "mattressDeformationScore",
              "type": "uint256"
            },
            {
              "internalType": "uint256",
              "name": "thermalIsolationScore",
              "type": "uint256"
            },
            {
              "internalType": "uint256",
              "name": "hygrometricRegulationScore",
              "type": "uint256"
            },
            {
              "internalType": "uint256",
              "name": "comforterComfortabilityScore",
              "type": "uint256"
            },
            {
              "internalType": "uint256",
              "name": "pillowComfortabilityScore",
              "type": "uint256"
            }
          ],
          "indexed": false,
          "internalType": "struct BedroomNft.NftSpecifications",
          "name": "specifications",
          "type": "tuple"
        }
      ],
      "name": "BedroomNftMinting",
      "type": "event"
    },
    {
      "anonymous": false,
      "inputs": [
        {
          "indexed": false,
          "internalType": "uint256",
          "name": "tokenId",
          "type": "uint256"
        },
        {
          "indexed": false,
          "internalType": "string",
          "name": "newTokenURI",
          "type": "string"
        },
        {
          "components": [
            {
              "internalType": "uint256",
              "name": "lightIsolationScore",
              "type": "uint256"
            },
            {
              "internalType": "uint256",
              "name": "bedroomThermalIsolationScore",
              "type": "uint256"
            },
            {
              "internalType": "uint256",
              "name": "soundIsolationScore",
              "type": "uint256"
            },
            {
              "internalType": "uint256",
              "name": "temperatureScore",
              "type": "uint256"
            },
            {
              "internalType": "uint256",
              "name": "humidityScore",
              "type": "uint256"
            },
            {
              "internalType": "uint256",
              "name": "sleepAidMachinesScore",
              "type": "uint256"
            },
            {
              "internalType": "uint256",
              "name": "sizeScore",
              "type": "uint256"
            },
            {
              "internalType": "uint256",
              "name": "heightScore",
              "type": "uint256"
            },
            {
              "internalType": "uint256",
              "name": "bedBaseScore",
              "type": "uint256"
            },
            {
              "internalType": "uint256",
              "name": "mattressTechnologyScore",
              "type": "uint256"
            },
            {
              "internalType": "uint256",
              "name": "mattressThicknessScore",
              "type": "uint256"
            },
            {
              "internalType": "uint256",
              "name": "mattressDeformationScore",
              "type": "uint256"
            },
            {
              "internalType": "uint256",
              "name": "thermalIsolationScore",
              "type": "uint256"
            },
            {
              "internalType": "uint256",
              "name": "hygrometricRegulationScore",
              "type": "uint256"
            },
            {
              "internalType": "uint256",
              "name": "comforterComfortabilityScore",
              "type": "uint256"
            },
            {
              "internalType": "uint256",
              "name": "pillowComfortabilityScore",
              "type": "uint256"
            }
          ],
          "indexed": false,
          "internalType": "struct BedroomNft.NftSpecifications",
          "name": "specifications",
          "type": "tuple"
        }
      ],
      "name": "BedroomNftUpgrading",
      "type": "event"
    },
    {
      "anonymous": false,
      "inputs": [
        {
          "indexed": true,
          "internalType": "address",
          "name": "previousOwner",
          "type": "address"
        },
        {
          "indexed": true,
          "internalType": "address",
          "name": "newOwner",
          "type": "address"
        }
      ],
      "name": "OwnershipTransferred",
      "type": "event"
    },
    {
      "anonymous": false,
      "inputs": [
        {
          "indexed": false,
          "internalType": "uint256[]",
          "name": "randomWords",
          "type": "uint256[]"
        }
      ],
      "name": "ReturnedRandomness",
      "type": "event"
    },
    {
      "anonymous": false,
      "inputs": [
        {
          "indexed": true,
          "internalType": "address",
          "name": "operator",
          "type": "address"
        },
        {
          "indexed": true,
          "internalType": "address",
          "name": "from",
          "type": "address"
        },
        {
          "indexed": true,
          "internalType": "address",
          "name": "to",
          "type": "address"
        },
        {
          "indexed": false,
          "internalType": "uint256[]",
          "name": "ids",
          "type": "uint256[]"
        },
        {
          "indexed": false,
          "internalType": "uint256[]",
          "name": "values",
          "type": "uint256[]"
        }
      ],
      "name": "TransferBatch",
      "type": "event"
    },
    {
      "anonymous": false,
      "inputs": [
        {
          "indexed": true,
          "internalType": "address",
          "name": "operator",
          "type": "address"
        },
        {
          "indexed": true,
          "internalType": "address",
          "name": "from",
          "type": "address"
        },
        {
          "indexed": true,
          "internalType": "address",
          "name": "to",
          "type": "address"
        },
        {
          "indexed": false,
          "internalType": "uint256",
          "name": "id",
          "type": "uint256"
        },
        {
          "indexed": false,
          "internalType": "uint256",
          "name": "value",
          "type": "uint256"
        }
      ],
      "name": "TransferSingle",
      "type": "event"
    },
    {
      "anonymous": false,
      "inputs": [
        {
          "indexed": false,
          "internalType": "string",
          "name": "value",
          "type": "string"
        },
        {
          "indexed": true,
          "internalType": "uint256",
          "name": "id",
          "type": "uint256"
        }
      ],
      "name": "URI",
      "type": "event"
    },
    {
      "inputs": [
        {
          "internalType": "address",
          "name": "account",
          "type": "address"
        },
        {
          "internalType": "uint256",
          "name": "id",
          "type": "uint256"
        }
      ],
      "name": "balanceOf",
      "outputs": [
        {
          "internalType": "uint256",
          "name": "",
          "type": "uint256"
        }
      ],
      "stateMutability": "view",
      "type": "function"
    },
    {
      "inputs": [
        {
          "internalType": "address[]",
          "name": "accounts",
          "type": "address[]"
        },
        {
          "internalType": "uint256[]",
          "name": "ids",
          "type": "uint256[]"
        }
      ],
      "name": "balanceOfBatch",
      "outputs": [
        {
          "internalType": "uint256[]",
          "name": "",
          "type": "uint256[]"
        }
      ],
      "stateMutability": "view",
      "type": "function"
    },
    {
      "inputs": [
        {
          "internalType": "uint256",
          "name": "id",
          "type": "uint256"
        }
      ],
      "name": "exists",
      "outputs": [
        {
          "internalType": "bool",
          "name": "",
          "type": "bool"
        }
      ],
      "stateMutability": "view",
      "type": "function"
    },
    {
      "inputs": [],
      "name": "fileFormat",
      "outputs": [
        {
          "internalType": "string",
          "name": "",
          "type": "string"
        }
      ],
      "stateMutability": "view",
      "type": "function"
    },
    {
      "inputs": [
        {
          "internalType": "uint256",
          "name": "_tokenId",
          "type": "uint256"
        }
      ],
      "name": "getName",
      "outputs": [
        {
          "internalType": "string",
          "name": "",
          "type": "string"
        }
      ],
      "stateMutability": "view",
      "type": "function"
    },
    {
      "inputs": [
        {
          "internalType": "uint256",
          "name": "_tokenId",
          "type": "uint256"
        },
        {
          "internalType": "uint256",
          "name": "_indexAttribute",
          "type": "uint256"
        }
      ],
      "name": "getNftSpecifications",
      "outputs": [
        {
          "internalType": "uint256",
          "name": "",
          "type": "uint256"
        }
      ],
      "stateMutability": "view",
      "type": "function"
    },
    {
      "inputs": [
        {
          "internalType": "address",
          "name": "account",
          "type": "address"
        },
        {
          "internalType": "address",
          "name": "operator",
          "type": "address"
        }
      ],
      "name": "isApprovedForAll",
      "outputs": [
        {
          "internalType": "bool",
          "name": "",
          "type": "bool"
        }
      ],
      "stateMutability": "view",
      "type": "function"
    },
    {
      "inputs": [
        {
          "internalType": "uint256",
          "name": "_designId",
          "type": "uint256"
        },
        {
          "internalType": "uint256",
          "name": "_price",
          "type": "uint256"
        },
        {
          "internalType": "uint256",
          "name": "_categorie",
          "type": "uint256"
        },
        {
          "internalType": "address",
          "name": "_owner",
          "type": "address"
        }
      ],
      "name": "mintingBedroomNft",
      "outputs": [],
      "stateMutability": "nonpayable",
      "type": "function"
    },
    {
      "inputs": [],
      "name": "nftDexAddress",
      "outputs": [
        {
          "internalType": "address",
          "name": "",
          "type": "address"
        }
      ],
      "stateMutability": "view",
      "type": "function"
    },
    {
      "inputs": [],
      "name": "owner",
      "outputs": [
        {
          "internalType": "address",
          "name": "",
          "type": "address"
        }
      ],
      "stateMutability": "view",
      "type": "function"
    },
    {
      "inputs": [
        {
          "internalType": "uint256",
          "name": "requestId",
          "type": "uint256"
        },
        {
          "internalType": "uint256[]",
          "name": "randomWords",
          "type": "uint256[]"
        }
      ],
      "name": "rawFulfillRandomWords",
      "outputs": [],
      "stateMutability": "nonpayable",
      "type": "function"
    },
    {
      "inputs": [],
      "name": "renounceOwnership",
      "outputs": [],
      "stateMutability": "nonpayable",
      "type": "function"
    },
    {
      "inputs": [
        {
          "internalType": "uint256",
          "name": "",
          "type": "uint256"
        }
      ],
      "name": "requestIdToTokenId",
      "outputs": [
        {
          "internalType": "uint256",
          "name": "",
          "type": "uint256"
        }
      ],
      "stateMutability": "view",
      "type": "function"
    },
    {
      "inputs": [
        {
          "internalType": "address",
          "name": "from",
          "type": "address"
        },
        {
          "internalType": "address",
          "name": "to",
          "type": "address"
        },
        {
          "internalType": "uint256[]",
          "name": "ids",
          "type": "uint256[]"
        },
        {
          "internalType": "uint256[]",
          "name": "amounts",
          "type": "uint256[]"
        },
        {
          "internalType": "bytes",
          "name": "data",
          "type": "bytes"
        }
      ],
      "name": "safeBatchTransferFrom",
      "outputs": [],
      "stateMutability": "nonpayable",
      "type": "function"
    },
    {
      "inputs": [
        {
          "internalType": "address",
          "name": "from",
          "type": "address"
        },
        {
          "internalType": "address",
          "name": "to",
          "type": "address"
        },
        {
          "internalType": "uint256",
          "name": "id",
          "type": "uint256"
        },
        {
          "internalType": "uint256",
          "name": "amount",
          "type": "uint256"
        },
        {
          "internalType": "bytes",
          "name": "data",
          "type": "bytes"
        }
      ],
      "name": "safeTransferFrom",
      "outputs": [],
      "stateMutability": "nonpayable",
      "type": "function"
    },
    {
      "inputs": [
        {
          "internalType": "address",
          "name": "operator",
          "type": "address"
        },
        {
          "internalType": "bool",
          "name": "approved",
          "type": "bool"
        }
      ],
      "name": "setApprovalForAll",
      "outputs": [],
      "stateMutability": "nonpayable",
      "type": "function"
    },
    {
      "inputs": [
        {
          "internalType": "string",
          "name": "_baseURI",
          "type": "string"
        }
      ],
      "name": "setBaseURI",
      "outputs": [],
      "stateMutability": "nonpayable",
      "type": "function"
    },
    {
      "inputs": [
        {
          "internalType": "address",
          "name": "_nftDexAddress",
          "type": "address"
        }
      ],
      "name": "setDex",
      "outputs": [],
      "stateMutability": "nonpayable",
      "type": "function"
    },
    {
      "inputs": [
        {
          "internalType": "string",
          "name": "_format",
          "type": "string"
        }
      ],
      "name": "setFileFormat",
      "outputs": [],
      "stateMutability": "nonpayable",
      "type": "function"
    },
    {
      "inputs": [
        {
          "internalType": "uint256",
          "name": "_indexAttribute",
          "type": "uint256"
        },
        {
          "internalType": "uint256",
          "name": "_initialScoreMax",
          "type": "uint256"
        },
        {
          "internalType": "uint256",
          "name": "_upgradeIncreases",
          "type": "uint256"
        },
        {
          "internalType": "uint256",
          "name": "_requiredLevel",
          "type": "uint256"
        },
        {
          "internalType": "uint256",
          "name": "_multiplier",
          "type": "uint256"
        }
      ],
      "name": "setThresholds",
      "outputs": [],
      "stateMutability": "nonpayable",
      "type": "function"
    },
    {
      "inputs": [
        {
          "internalType": "uint256",
          "name": "_tokenId",
          "type": "uint256"
        },
        {
          "internalType": "string",
          "name": "_tokenURI",
          "type": "string"
        }
      ],
      "name": "setTokenURI",
      "outputs": [],
      "stateMutability": "nonpayable",
      "type": "function"
    },
    {
      "inputs": [
        {
          "internalType": "bytes4",
          "name": "interfaceId",
          "type": "bytes4"
        }
      ],
      "name": "supportsInterface",
      "outputs": [
        {
          "internalType": "bool",
          "name": "",
          "type": "bool"
        }
      ],
      "stateMutability": "view",
      "type": "function"
    },
    {
      "inputs": [
        {
          "internalType": "uint256",
          "name": "",
          "type": "uint256"
        }
      ],
      "name": "thresholds",
      "outputs": [
        {
          "internalType": "uint256",
          "name": "initialScoreMax",
          "type": "uint256"
        },
        {
          "internalType": "uint256",
          "name": "upgradeIncreases",
          "type": "uint256"
        },
        {
          "internalType": "uint256",
          "name": "requiredLevel",
          "type": "uint256"
        },
        {
          "internalType": "uint256",
          "name": "multiplier",
          "type": "uint256"
        }
      ],
      "stateMutability": "view",
      "type": "function"
    },
    {
      "inputs": [],
      "name": "tokenId",
      "outputs": [
        {
          "internalType": "uint256",
          "name": "",
          "type": "uint256"
        }
      ],
      "stateMutability": "view",
      "type": "function"
    },
    {
      "inputs": [
        {
          "internalType": "uint256",
          "name": "",
          "type": "uint256"
        }
      ],
      "name": "tokenIdToNftOwnership",
      "outputs": [
        {
          "internalType": "address",
          "name": "owner",
          "type": "address"
        },
        {
          "internalType": "uint256",
          "name": "price",
          "type": "uint256"
        },
        {
          "internalType": "uint256",
          "name": "designId",
          "type": "uint256"
        },
        {
          "internalType": "uint256",
          "name": "level",
          "type": "uint256"
        },
        {
          "internalType": "uint256",
          "name": "categorie",
          "type": "uint256"
        }
      ],
      "stateMutability": "view",
      "type": "function"
    },
    {
      "inputs": [
        {
          "internalType": "uint256",
          "name": "id",
          "type": "uint256"
        }
      ],
      "name": "totalSupply",
      "outputs": [
        {
          "internalType": "uint256",
          "name": "",
          "type": "uint256"
        }
      ],
      "stateMutability": "view",
      "type": "function"
    },
    {
      "inputs": [
        {
          "internalType": "address",
          "name": "newOwner",
          "type": "address"
        }
      ],
      "name": "transferOwnership",
      "outputs": [],
      "stateMutability": "nonpayable",
      "type": "function"
    },
    {
      "inputs": [
        {
          "internalType": "uint16",
          "name": "_requestConfirmations",
          "type": "uint16"
        },
        {
          "internalType": "uint32",
          "name": "_callbackGasLimit",
          "type": "uint32"
        },
        {
          "internalType": "uint64",
          "name": "_subscriptionId",
          "type": "uint64"
        },
        {
          "internalType": "bytes32",
          "name": "_keyHash",
          "type": "bytes32"
        }
      ],
      "name": "updateChainlink",
      "outputs": [],
      "stateMutability": "nonpayable",
      "type": "function"
    },
    {
      "inputs": [
        {
          "internalType": "uint256",
          "name": "_tokenId",
          "type": "uint256"
        },
        {
          "internalType": "uint256",
          "name": "_newDesignId",
          "type": "uint256"
        },
        {
          "internalType": "uint256",
          "name": "_amount",
          "type": "uint256"
        }
      ],
      "name": "upgradeBedroomNft",
      "outputs": [],
      "stateMutability": "nonpayable",
      "type": "function"
    },
    {
      "inputs": [
        {
          "internalType": "uint256",
          "name": "_tokenId",
          "type": "uint256"
        }
      ],
      "name": "uri",
      "outputs": [
        {
          "internalType": "string",
          "name": "",
          "type": "string"
        }
      ],
      "stateMutability": "view",
      "type": "function"
    }
  ],
  "bytecode": "0x61010060405260405180602001604052806000815250600590805190602001906200002c929190620002c3565b503480156200003a57600080fd5b5060405162005ea438038062005ea483398181016040528101906200006091906200045d565b60405180602001604052806000815250838073ffffffffffffffffffffffffffffffffffffffff1660808173ffffffffffffffffffffffffffffffffffffffff168152505050620000b781620001d960201b60201c565b50620000d8620000cc620001f560201b60201c565b620001fd60201b60201c565b8273ffffffffffffffffffffffffffffffffffffffff1660a08173ffffffffffffffffffffffffffffffffffffffff16815250508173ffffffffffffffffffffffffffffffffffffffff1660c08173ffffffffffffffffffffffffffffffffffffffff168152505083600860006101000a81548167ffffffffffffffff021916908367ffffffffffffffff16021790555080600981905550620186a0600760146101000a81548163ffffffff021916908363ffffffff1602179055506003600760186101000a81548161ffff021916908361ffff160217905550600163ffffffff1660e08163ffffffff16815250506000600b819055505050505062000533565b8060029080519060200190620001f1929190620002c3565b5050565b600033905090565b6000600360009054906101000a900473ffffffffffffffffffffffffffffffffffffffff16905081600360006101000a81548173ffffffffffffffffffffffffffffffffffffffff021916908373ffffffffffffffffffffffffffffffffffffffff1602179055508173ffffffffffffffffffffffffffffffffffffffff168173ffffffffffffffffffffffffffffffffffffffff167f8be0079c531659141344cd1fd0a4f28419497f9722a3daafe3b4186f6b6457e060405160405180910390a35050565b828054620002d190620004fe565b90600052602060002090601f016020900481019282620002f5576000855562000341565b82601f106200031057805160ff191683800117855562000341565b8280016001018555821562000341579182015b828111156200034057825182559160200191906001019062000323565b5b50905062000350919062000354565b5090565b5b808211156200036f57600081600090555060010162000355565b5090565b600080fd5b600067ffffffffffffffff82169050919050565b620003978162000378565b8114620003a357600080fd5b50565b600081519050620003b7816200038c565b92915050565b600073ffffffffffffffffffffffffffffffffffffffff82169050919050565b6000620003ea82620003bd565b9050919050565b620003fc81620003dd565b81146200040857600080fd5b50565b6000815190506200041c81620003f1565b92915050565b6000819050919050565b620004378162000422565b81146200044357600080fd5b50565b60008151905062000457816200042c565b92915050565b600080600080608085870312156200047a576200047962000373565b5b60006200048a87828801620003a6565b94505060206200049d878288016200040b565b9350506040620004b0878288016200040b565b9250506060620004c38782880162000446565b91505092959194509250565b7f4e487b7100000000000000000000000000000000000000000000000000000000600052602260045260246000fd5b600060028204905060018216806200051757607f821691505b6020821081036200052d576200052c620004cf565b5b50919050565b60805160a05160c05160e051615933620005716000396000610e790152600050506000610dff015260008181610b7b0152610bcf01526159336000f3fe608060405234801561001057600080fd5b50600436106101d95760003560e01c806355f804b3116101045780639ef122ae116100a2578063bd85b03911610071578063bd85b0391461057b578063e985e9c5146105ab578063f242432a146105db578063f2fde38b146105f7576101d9565b80639ef122ae146104f0578063a22cb4651461050e578063a3f6b4141461052a578063b6c2261114610548576101d9565b80636dbfc112116100de5780636dbfc11214610490578063715018a6146104ac5780638da5cb5b146104b65780639c69d4a9146104d4576101d9565b806355f804b3146104105780635c54ec101461042c5780636b8ff57414610460576101d9565b806319a59b1a1161017c578063447fa8b71161014b578063447fa8b71461037857806347c99d11146103945780634e1273f4146103b05780634f558e79146103e0576101d9565b806319a59b1a146103085780631fe543e3146103245780632eb2c2d614610340578063385c34c61461035c576101d9565b80630750b163116101b85780630750b1631461026e5780630e89341c1461029e578063162094c4146102ce57806317d70f7c146102ea576101d9565b8062fdd58e146101de57806301ffc9a71461020e57806306ef37111461023e575b600080fd5b6101f860048036038101906101f39190613884565b610613565b60405161020591906138d3565b60405180910390f35b61022860048036038101906102239190613946565b6106db565b604051610235919061398e565b60405180910390f35b610258600480360381019061025391906139a9565b6107bd565b60405161026591906138d3565b60405180910390f35b610288600480360381019061028391906139e9565b610a29565b60405161029591906138d3565b60405180910390f35b6102b860048036038101906102b391906139e9565b610a41565b6040516102c59190613aaf565b60405180910390f35b6102e860048036038101906102e39190613c06565b610a53565b005b6102f2610add565b6040516102ff91906138d3565b60405180910390f35b610322600480360381019061031d9190613c62565b610ae3565b005b61033e60048036038101906103399190613d73565b610b79565b005b61035a60048036038101906103559190613e70565b610c39565b005b61037660048036038101906103719190613f3f565b610cda565b005b610392600480360381019061038d9190613fa6565b610ffb565b005b6103ae60048036038101906103a991906140bf565b6110bb565b005b6103ca60048036038101906103c591906141e9565b6111ab565b6040516103d7919061431f565b60405180910390f35b6103fa60048036038101906103f591906139e9565b6112c4565b604051610407919061398e565b60405180910390f35b61042a60048036038101906104259190613c62565b6112d8565b005b610446600480360381019061044191906139e9565b611360565b604051610457959493929190614350565b60405180910390f35b61047a600480360381019061047591906139e9565b6113b6565b6040516104879190613aaf565b60405180910390f35b6104aa60048036038101906104a591906143a3565b611407565b005b6104b46114e9565b005b6104be611571565b6040516104cb919061441e565b60405180910390f35b6104ee60048036038101906104e99190614439565b61159b565b005b6104f86117b2565b6040516105059190613aaf565b60405180910390f35b610528600480360381019061052391906144b8565b611840565b005b610532611856565b60405161053f919061441e565b60405180910390f35b610562600480360381019061055d91906139e9565b61187c565b60405161057294939291906144f8565b60405180910390f35b610595600480360381019061059091906139e9565b6118ac565b6040516105a291906138d3565b60405180910390f35b6105c560048036038101906105c0919061453d565b6118c9565b6040516105d2919061398e565b60405180910390f35b6105f560048036038101906105f0919061457d565b61195d565b005b610611600480360381019061060c9190613fa6565b6119fe565b005b60008073ffffffffffffffffffffffffffffffffffffffff168373ffffffffffffffffffffffffffffffffffffffff1603610683576040517f08c379a000000000000000000000000000000000000000000000000000000000815260040161067a90614686565b60405180910390fd5b60008083815260200190815260200160002060008473ffffffffffffffffffffffffffffffffffffffff1673ffffffffffffffffffffffffffffffffffffffff16815260200190815260200160002054905092915050565b60007fd9b67a26000000000000000000000000000000000000000000000000000000007bffffffffffffffffffffffffffffffffffffffffffffffffffffffff1916827bffffffffffffffffffffffffffffffffffffffffffffffffffffffff191614806107a657507f0e89341c000000000000000000000000000000000000000000000000000000007bffffffffffffffffffffffffffffffffffffffffffffffffffffffff1916827bffffffffffffffffffffffffffffffffffffffffffffffffffffffff1916145b806107b657506107b582611af5565b5b9050919050565b60008082036107e457600e6000848152602001908152602001600020600001549050610a23565b6001820361080a57600e6000848152602001908152602001600020600101549050610a23565b6002820361083057600e6000848152602001908152602001600020600201549050610a23565b6003820361085657600e6000848152602001908152602001600020600301549050610a23565b6004820361087c57600e6000848152602001908152602001600020600401549050610a23565b600582036108a257600e6000848152602001908152602001600020600501549050610a23565b600682036108c857600e6000848152602001908152602001600020600601549050610a23565b600782036108ee57600e6000848152602001908152602001600020600701549050610a23565b6008820361091457600e6000848152602001908152602001600020600801549050610a23565b6009820361093a57600e6000848152602001908152602001600020600901549050610a23565b600a820361096057600e6000848152602001908152602001600020600a01549050610a23565b600b820361098657600e6000848152602001908152602001600020600b01549050610a23565b600c82036109ac57600e6000848152602001908152602001600020600c01549050610a23565b600d82036109d257600e6000848152602001908152602001600020600d01549050610a23565b600e82036109f857600e6000848152602001908152602001600020600e01549050610a23565b600f8203610a1e57600e6000848152602001908152602001600020600f01549050610a23565b600090505b92915050565b600c6020528060005260406000206000915090505481565b6060610a4c82611b5f565b9050919050565b610a5b611c44565b73ffffffffffffffffffffffffffffffffffffffff16610a79611571565b73ffffffffffffffffffffffffffffffffffffffff1614610acf576040517f08c379a0000000000000000000000000000000000000000000000000000000008152600401610ac6906146f2565b60405180910390fd5b610ad98282611c4c565b5050565b600b5481565b610aeb611c44565b73ffffffffffffffffffffffffffffffffffffffff16610b09611571565b73ffffffffffffffffffffffffffffffffffffffff1614610b5f576040517f08c379a0000000000000000000000000000000000000000000000000000000008152600401610b56906146f2565b60405180910390fd5b80600a9080519060200190610b75929190613716565b5050565b7f000000000000000000000000000000000000000000000000000000000000000073ffffffffffffffffffffffffffffffffffffffff163373ffffffffffffffffffffffffffffffffffffffff1614610c2b57337f00000000000000000000000000000000000000000000000000000000000000006040517f1cf993f4000000000000000000000000000000000000000000000000000000008152600401610c22929190614712565b60405180910390fd5b610c358282611cb8565b5050565b610c41611c44565b73ffffffffffffffffffffffffffffffffffffffff168573ffffffffffffffffffffffffffffffffffffffff161480610c875750610c8685610c81611c44565b6118c9565b5b610cc6576040517f08c379a0000000000000000000000000000000000000000000000000000000008152600401610cbd906147ad565b60405180910390fd5b610cd38585858585611d2b565b5050505050565b600073ffffffffffffffffffffffffffffffffffffffff16600760009054906101000a900473ffffffffffffffffffffffffffffffffffffffff1673ffffffffffffffffffffffffffffffffffffffff1603610d6b576040517f08c379a0000000000000000000000000000000000000000000000000000000008152600401610d6290614819565b60405180910390fd5b600760009054906101000a900473ffffffffffffffffffffffffffffffffffffffff1673ffffffffffffffffffffffffffffffffffffffff163373ffffffffffffffffffffffffffffffffffffffff1614610dfb576040517f08c379a0000000000000000000000000000000000000000000000000000000008152600401610df290614885565b60405180910390fd5b60007f000000000000000000000000000000000000000000000000000000000000000073ffffffffffffffffffffffffffffffffffffffff16635d3b1d30600954600860009054906101000a900467ffffffffffffffff16600760189054906101000a900461ffff16600760149054906101000a900463ffffffff167f00000000000000000000000000000000000000000000000000000000000000006040518663ffffffff1660e01b8152600401610eb89594939291906148e1565b6020604051808303816000875af1158015610ed7573d6000803e3d6000fd5b505050506040513d601f19601f82011682018060405250810190610efb9190614949565b9050600b54600c6000838152602001908152602001600020819055506040518060a001604052808373ffffffffffffffffffffffffffffffffffffffff1681526020018581526020018681526020016000815260200184815250600d6000600b54815260200190815260200160002060008201518160000160006101000a81548173ffffffffffffffffffffffffffffffffffffffff021916908373ffffffffffffffffffffffffffffffffffffffff16021790555060208201518160010155604082015181600201556060820151816003015560808201518160040155905050600b6000815480929190610fef906149a5565b91905055505050505050565b611003611c44565b73ffffffffffffffffffffffffffffffffffffffff16611021611571565b73ffffffffffffffffffffffffffffffffffffffff1614611077576040517f08c379a000000000000000000000000000000000000000000000000000000000815260040161106e906146f2565b60405180910390fd5b80600760006101000a81548173ffffffffffffffffffffffffffffffffffffffff021916908373ffffffffffffffffffffffffffffffffffffffff16021790555050565b6110c3611c44565b73ffffffffffffffffffffffffffffffffffffffff166110e1611571565b73ffffffffffffffffffffffffffffffffffffffff1614611137576040517f08c379a000000000000000000000000000000000000000000000000000000000815260040161112e906146f2565b60405180910390fd5b81600860006101000a81548167ffffffffffffffff021916908367ffffffffffffffff1602179055508060098190555082600760146101000a81548163ffffffff021916908363ffffffff16021790555083600760186101000a81548161ffff021916908361ffff16021790555050505050565b606081518351146111f1576040517f08c379a00000000000000000000000000000000000000000000000000000000081526004016111e890614a5f565b60405180910390fd5b6000835167ffffffffffffffff81111561120e5761120d613adb565b5b60405190808252806020026020018201604052801561123c5781602001602082028036833780820191505090505b50905060005b84518110156112b95761128985828151811061126157611260614a7f565b5b602002602001015185838151811061127c5761127b614a7f565b5b6020026020010151610613565b82828151811061129c5761129b614a7f565b5b602002602001018181525050806112b2906149a5565b9050611242565b508091505092915050565b6000806112d0836118ac565b119050919050565b6112e0611c44565b73ffffffffffffffffffffffffffffffffffffffff166112fe611571565b73ffffffffffffffffffffffffffffffffffffffff1614611354576040517f08c379a000000000000000000000000000000000000000000000000000000000815260040161134b906146f2565b60405180910390fd5b61135d8161204c565b50565b600d6020528060005260406000206000915090508060000160009054906101000a900473ffffffffffffffffffffffffffffffffffffffff16908060010154908060020154908060030154908060040154905085565b60606113c182612066565b6113e0600d600085815260200190815260200160002060030154612066565b6040516020016113f1929190614b82565b6040516020818303038152906040529050919050565b61140f611c44565b73ffffffffffffffffffffffffffffffffffffffff1661142d611571565b73ffffffffffffffffffffffffffffffffffffffff1614611483576040517f08c379a000000000000000000000000000000000000000000000000000000000815260040161147a906146f2565b60405180910390fd5b604051806080016040528085815260200184815260200183815260200182815250600f6000878152602001908152602001600020600082015181600001556020820151816001015560408201518160020155606082015181600301559050505050505050565b6114f1611c44565b73ffffffffffffffffffffffffffffffffffffffff1661150f611571565b73ffffffffffffffffffffffffffffffffffffffff1614611565576040517f08c379a000000000000000000000000000000000000000000000000000000000815260040161155c906146f2565b60405180910390fd5b61156f60006121c6565b565b6000600360009054906101000a900473ffffffffffffffffffffffffffffffffffffffff16905090565b600073ffffffffffffffffffffffffffffffffffffffff16600760009054906101000a900473ffffffffffffffffffffffffffffffffffffffff1673ffffffffffffffffffffffffffffffffffffffff160361162c576040517f08c379a000000000000000000000000000000000000000000000000000000000815260040161162390614819565b60405180910390fd5b600760009054906101000a900473ffffffffffffffffffffffffffffffffffffffff1673ffffffffffffffffffffffffffffffffffffffff163373ffffffffffffffffffffffffffffffffffffffff16146116bc576040517f08c379a00000000000000000000000000000000000000000000000000000000081526004016116b390614885565b60405180910390fd5b6116c58361228c565b600d600084815260200190815260200160002060030160008154809291906116ec906149a5565b919050555080600d600085815260200190815260200160002060010160008282546117179190614bbc565b92505081905550600061172983612066565b600a60405160200161173c929190614d06565b60405160208183030381529060405290506117578482611c4c565b7f3e5bfc417f5a7b2e49586458f7dd8f28142059c9e2730b6b43c765d9dac1618f8461178286610a41565b600e60008881526020019081526020016000206040516117a493929190614f4f565b60405180910390a150505050565b600a80546117bf90614c41565b80601f01602080910402602001604051908101604052809291908181526020018280546117eb90614c41565b80156118385780601f1061180d57610100808354040283529160200191611838565b820191906000526020600020905b81548152906001019060200180831161181b57829003601f168201915b505050505081565b61185261184b611c44565b8383612638565b5050565b600760009054906101000a900473ffffffffffffffffffffffffffffffffffffffff1681565b600f6020528060005260406000206000915090508060000154908060010154908060020154908060030154905084565b600060046000838152602001908152602001600020549050919050565b6000600160008473ffffffffffffffffffffffffffffffffffffffff1673ffffffffffffffffffffffffffffffffffffffff16815260200190815260200160002060008373ffffffffffffffffffffffffffffffffffffffff1673ffffffffffffffffffffffffffffffffffffffff16815260200190815260200160002060009054906101000a900460ff16905092915050565b611965611c44565b73ffffffffffffffffffffffffffffffffffffffff168573ffffffffffffffffffffffffffffffffffffffff1614806119ab57506119aa856119a5611c44565b6118c9565b5b6119ea576040517f08c379a00000000000000000000000000000000000000000000000000000000081526004016119e190615000565b60405180910390fd5b6119f785858585856127a4565b5050505050565b611a06611c44565b73ffffffffffffffffffffffffffffffffffffffff16611a24611571565b73ffffffffffffffffffffffffffffffffffffffff1614611a7a576040517f08c379a0000000000000000000000000000000000000000000000000000000008152600401611a71906146f2565b60405180910390fd5b600073ffffffffffffffffffffffffffffffffffffffff168173ffffffffffffffffffffffffffffffffffffffff1603611ae9576040517f08c379a0000000000000000000000000000000000000000000000000000000008152600401611ae090615092565b60405180910390fd5b611af2816121c6565b50565b60007f01ffc9a7000000000000000000000000000000000000000000000000000000007bffffffffffffffffffffffffffffffffffffffffffffffffffffffff1916827bffffffffffffffffffffffffffffffffffffffffffffffffffffffff1916149050919050565b60606000600660008481526020019081526020016000208054611b8190614c41565b80601f0160208091040260200160405190810160405280929190818152602001828054611bad90614c41565b8015611bfa5780601f10611bcf57610100808354040283529160200191611bfa565b820191906000526020600020905b815481529060010190602001808311611bdd57829003601f168201915b505050505090506000815111611c1857611c1383612a3f565b611c3c565b600581604051602001611c2c9291906150b2565b6040516020818303038152906040525b915050919050565b600033905090565b80600660008481526020019081526020016000209080519060200190611c73929190613716565b50817f6bb7ff708619ba0610cba295a58592e0451dee2622938c8755667688daf3529b611c9f84610a41565b604051611cac9190613aaf565b60405180910390a25050565b611cf0600c60008481526020019081526020016000205482600081518110611ce357611ce2614a7f565b5b6020026020010151612ad3565b7fefb16d61046900da527008568620fb9f8420e2f5ed4de3bfbded5035c9362b0e81604051611d1f919061431f565b60405180910390a15050565b8151835114611d6f576040517f08c379a0000000000000000000000000000000000000000000000000000000008152600401611d6690615148565b60405180910390fd5b600073ffffffffffffffffffffffffffffffffffffffff168473ffffffffffffffffffffffffffffffffffffffff1603611dde576040517f08c379a0000000000000000000000000000000000000000000000000000000008152600401611dd5906151da565b60405180910390fd5b6000611de8611c44565b9050611df8818787878787612bda565b60005b8451811015611fa9576000858281518110611e1957611e18614a7f565b5b602002602001015190506000858381518110611e3857611e37614a7f565b5b60200260200101519050600080600084815260200190815260200160002060008b73ffffffffffffffffffffffffffffffffffffffff1673ffffffffffffffffffffffffffffffffffffffff16815260200190815260200160002054905081811015611ed9576040517f08c379a0000000000000000000000000000000000000000000000000000000008152600401611ed09061526c565b60405180910390fd5b81810360008085815260200190815260200160002060008c73ffffffffffffffffffffffffffffffffffffffff1673ffffffffffffffffffffffffffffffffffffffff168152602001908152602001600020819055508160008085815260200190815260200160002060008b73ffffffffffffffffffffffffffffffffffffffff1673ffffffffffffffffffffffffffffffffffffffff1681526020019081526020016000206000828254611f8e9190614bbc565b9250508190555050505080611fa2906149a5565b9050611dfb565b508473ffffffffffffffffffffffffffffffffffffffff168673ffffffffffffffffffffffffffffffffffffffff168273ffffffffffffffffffffffffffffffffffffffff167f4a39dc06d4c0dbc64b70af90fd698a233a518aa5d07e595d983b8c0526c8f7fb878760405161202092919061528c565b60405180910390a4612036818787878787612bf0565b612044818787878787612bf8565b505050505050565b8060059080519060200190612062929190613716565b5050565b6060600082036120ad576040518060400160405280600181526020017f300000000000000000000000000000000000000000000000000000000000000081525090506121c1565b600082905060005b600082146120df5780806120c8906149a5565b915050600a826120d891906152f2565b91506120b5565b60008167ffffffffffffffff8111156120fb576120fa613adb565b5b6040519080825280601f01601f19166020018201604052801561212d5781602001600182028036833780820191505090505b5090505b600085146121ba576001826121469190615323565b9150600a856121559190615357565b60306121619190614bbc565b60f81b81838151811061217757612176614a7f565b5b60200101907effffffffffffffffffffffffffffffffffffffffffffffffffffffffffffff1916908160001a905350600a856121b391906152f2565b9450612131565b8093505050505b919050565b6000600360009054906101000a900473ffffffffffffffffffffffffffffffffffffffff16905081600360006101000a81548173ffffffffffffffffffffffffffffffffffffffff021916908373ffffffffffffffffffffffffffffffffffffffff1602179055508173ffffffffffffffffffffffffffffffffffffffff168173ffffffffffffffffffffffffffffffffffffffff167f8be0079c531659141344cd1fd0a4f28419497f9722a3daafe3b4186f6b6457e060405160405180910390a35050565b61229461379c565b6000600d600084815260200190815260200160002060030154905060005b601081101561238a576000600f60008381526020019081526020016000206040518060800160405290816000820154815260200160018201548152602001600282015481526020016003820154815250509050600061231186846107bd565b905081604001518410612375576064811015612357578160600151826020015161233b9190615388565b816123469190614bbc565b9050606481111561235657606490505b5b8085846010811061236b5761236a614a7f565b5b6020020181815250505b50508080612382906149a5565b9150506122b2565b50604051806102000160405280836000601081106123ab576123aa614a7f565b5b60200201518152602001836001601081106123c9576123c8614a7f565b5b60200201518152602001836002601081106123e7576123e6614a7f565b5b602002015181526020018360036010811061240557612404614a7f565b5b602002015181526020018360046010811061242357612422614a7f565b5b602002015181526020018360056010811061244157612440614a7f565b5b602002015181526020018360066010811061245f5761245e614a7f565b5b602002015181526020018360076010811061247d5761247c614a7f565b5b602002015181526020018360086010811061249b5761249a614a7f565b5b60200201518152602001836009601081106124b9576124b8614a7f565b5b6020020151815260200183600a601081106124d7576124d6614a7f565b5b6020020151815260200183600b601081106124f5576124f4614a7f565b5b6020020151815260200183600c6010811061251357612512614a7f565b5b6020020151815260200183600d6010811061253157612530614a7f565b5b6020020151815260200183600e6010811061254f5761254e614a7f565b5b6020020151815260200183600f6010811061256d5761256c614a7f565b5b6020020151815250600e6000858152602001908152602001600020600082015181600001556020820151816001015560408201518160020155606082015181600301556080820151816004015560a0820151816005015560c0820151816006015560e082015181600701556101008201518160080155610120820151816009015561014082015181600a015561016082015181600b015561018082015181600c01556101a082015181600d01556101c082015181600e01556101e082015181600f0155905050505050565b8173ffffffffffffffffffffffffffffffffffffffff168373ffffffffffffffffffffffffffffffffffffffff16036126a6576040517f08c379a000000000000000000000000000000000000000000000000000000000815260040161269d90615454565b60405180910390fd5b80600160008573ffffffffffffffffffffffffffffffffffffffff1673ffffffffffffffffffffffffffffffffffffffff16815260200190815260200160002060008473ffffffffffffffffffffffffffffffffffffffff1673ffffffffffffffffffffffffffffffffffffffff16815260200190815260200160002060006101000a81548160ff0219169083151502179055508173ffffffffffffffffffffffffffffffffffffffff168373ffffffffffffffffffffffffffffffffffffffff167f17307eab39ab6107e8899845ad3d59bd9653f200f220920489ca2b5937696c3183604051612797919061398e565b60405180910390a3505050565b600073ffffffffffffffffffffffffffffffffffffffff168473ffffffffffffffffffffffffffffffffffffffff1603612813576040517f08c379a000000000000000000000000000000000000000000000000000000000815260040161280a906151da565b60405180910390fd5b600061281d611c44565b9050600061282a85612dcf565b9050600061283785612dcf565b9050612847838989858589612bda565b600080600088815260200190815260200160002060008a73ffffffffffffffffffffffffffffffffffffffff1673ffffffffffffffffffffffffffffffffffffffff168152602001908152602001600020549050858110156128de576040517f08c379a00000000000000000000000000000000000000000000000000000000081526004016128d59061526c565b60405180910390fd5b85810360008089815260200190815260200160002060008b73ffffffffffffffffffffffffffffffffffffffff1673ffffffffffffffffffffffffffffffffffffffff168152602001908152602001600020819055508560008089815260200190815260200160002060008a73ffffffffffffffffffffffffffffffffffffffff1673ffffffffffffffffffffffffffffffffffffffff16815260200190815260200160002060008282546129939190614bbc565b925050819055508773ffffffffffffffffffffffffffffffffffffffff168973ffffffffffffffffffffffffffffffffffffffff168573ffffffffffffffffffffffffffffffffffffffff167fc3d58168c5ae7397731d063d5bbf3d657854427343f4c083240f7aacaa2d0f628a8a604051612a10929190615474565b60405180910390a4612a26848a8a86868a612bf0565b612a34848a8a8a8a8a612e49565b505050505050505050565b606060028054612a4e90614c41565b80601f0160208091040260200160405190810160405280929190818152602001828054612a7a90614c41565b8015612ac75780601f10612a9c57610100808354040283529160200191612ac7565b820191906000526020600020905b815481529060010190602001808311612aaa57829003601f168201915b50505050509050919050565b612add8183613020565b612b31600d6000600b54815260200190815260200160002060000160009054906101000a900473ffffffffffffffffffffffffffffffffffffffff168360016040518060200160405280600081525061336b565b6000612b52600d600085815260200190815260200160002060020154612066565b600a604051602001612b65929190614d06565b6040516020818303038152906040529050612b808382611c4c565b7f30973ac7a86b9e6a56529c8be49d4f0bb56870c67b6a0be29d8519102a2dd3c983612bab85610a41565b600e6000878152602001908152602001600020604051612bcd93929190614f4f565b60405180910390a1505050565b612be886868686868661351b565b505050505050565b505050505050565b612c178473ffffffffffffffffffffffffffffffffffffffff166136eb565b15612dc7578373ffffffffffffffffffffffffffffffffffffffff1663bc197c8187878686866040518663ffffffff1660e01b8152600401612c5d9594939291906154f2565b6020604051808303816000875af1925050508015612c9957506040513d601f19601f82011682018060405250810190612c96919061556f565b60015b612d3e57612ca56155a9565b806308c379a003612d015750612cb96155cb565b80612cc45750612d03565b806040517f08c379a0000000000000000000000000000000000000000000000000000000008152600401612cf89190613aaf565b60405180910390fd5b505b6040517f08c379a0000000000000000000000000000000000000000000000000000000008152600401612d35906156cd565b60405180910390fd5b63bc197c8160e01b7bffffffffffffffffffffffffffffffffffffffffffffffffffffffff1916817bffffffffffffffffffffffffffffffffffffffffffffffffffffffff191614612dc5576040517f08c379a0000000000000000000000000000000000000000000000000000000008152600401612dbc9061575f565b60405180910390fd5b505b505050505050565b60606000600167ffffffffffffffff811115612dee57612ded613adb565b5b604051908082528060200260200182016040528015612e1c5781602001602082028036833780820191505090505b5090508281600081518110612e3457612e33614a7f565b5b60200260200101818152505080915050919050565b612e688473ffffffffffffffffffffffffffffffffffffffff166136eb565b15613018578373ffffffffffffffffffffffffffffffffffffffff1663f23a6e6187878686866040518663ffffffff1660e01b8152600401612eae95949392919061577f565b6020604051808303816000875af1925050508015612eea57506040513d601f19601f82011682018060405250810190612ee7919061556f565b60015b612f8f57612ef66155a9565b806308c379a003612f525750612f0a6155cb565b80612f155750612f54565b806040517f08c379a0000000000000000000000000000000000000000000000000000000008152600401612f499190613aaf565b60405180910390fd5b505b6040517f08c379a0000000000000000000000000000000000000000000000000000000008152600401612f86906156cd565b60405180910390fd5b63f23a6e6160e01b7bffffffffffffffffffffffffffffffffffffffffffffffffffffffff1916817bffffffffffffffffffffffffffffffffffffffffffffffffffffffff191614613016576040517f08c379a000000000000000000000000000000000000000000000000000000000815260040161300d9061575f565b60405180910390fd5b505b505050505050565b604051806102000160405280600f6000808152602001908152602001600020600001548461304e9190615357565b8152602001600f60006001815260200190815260200160002060000154846130769190615357565b8152602001600f600060028152602001908152602001600020600001548461309e9190615357565b8152602001600f60006003815260200190815260200160002060000154846130c69190615357565b8152602001600f60006004815260200190815260200160002060000154846130ee9190615357565b8152602001600f60006005815260200190815260200160002060000154846131169190615357565b8152602001600f600060068152602001908152602001600020600001548461313e9190615357565b8152602001600f60006007815260200190815260200160002060000154846131669190615357565b8152602001600f600060088152602001908152602001600020600001548461318e9190615357565b8152602001600f60006009815260200190815260200160002060000154846131b69190615357565b8152602001600f6000600a815260200190815260200160002060000154846131de9190615357565b8152602001600f6000600b815260200190815260200160002060000154846132069190615357565b8152602001600f6000600c8152602001908152602001600020600001548461322e9190615357565b8152602001600f6000600d815260200190815260200160002060000154846132569190615357565b8152602001600f6000600e8152602001908152602001600020600001548461327e9190615357565b8152602001600f6000600f815260200190815260200160002060000154846132a69190615357565b815250600e6000838152602001908152602001600020600082015181600001556020820151816001015560408201518160020155606082015181600301556080820151816004015560a0820151816005015560c0820151816006015560e082015181600701556101008201518160080155610120820151816009015561014082015181600a015561016082015181600b015561018082015181600c01556101a082015181600d01556101c082015181600e01556101e082015181600f01559050505050565b600073ffffffffffffffffffffffffffffffffffffffff168473ffffffffffffffffffffffffffffffffffffffff16036133da576040517f08c379a00000000000000000000000000000000000000000000000000000000081526004016133d19061584b565b60405180910390fd5b60006133e4611c44565b905060006133f185612dcf565b905060006133fe85612dcf565b905061340f83600089858589612bda565b8460008088815260200190815260200160002060008973ffffffffffffffffffffffffffffffffffffffff1673ffffffffffffffffffffffffffffffffffffffff168152602001908152602001600020600082825461346e9190614bbc565b925050819055508673ffffffffffffffffffffffffffffffffffffffff16600073ffffffffffffffffffffffffffffffffffffffff168473ffffffffffffffffffffffffffffffffffffffff167fc3d58168c5ae7397731d063d5bbf3d657854427343f4c083240f7aacaa2d0f6289896040516134ec929190615474565b60405180910390a461350383600089858589612bf0565b61351283600089898989612e49565b50505050505050565b61352986868686868661370e565b600073ffffffffffffffffffffffffffffffffffffffff168573ffffffffffffffffffffffffffffffffffffffff16036135da5760005b83518110156135d85782818151811061357c5761357b614a7f565b5b60200260200101516004600086848151811061359b5761359a614a7f565b5b6020026020010151815260200190815260200160002060008282546135c09190614bbc565b92505081905550806135d1906149a5565b9050613560565b505b600073ffffffffffffffffffffffffffffffffffffffff168473ffffffffffffffffffffffffffffffffffffffff16036136e35760005b83518110156136e157600084828151811061362f5761362e614a7f565b5b60200260200101519050600084838151811061364e5761364d614a7f565b5b60200260200101519050600060046000848152602001908152602001600020549050818110156136b3576040517f08c379a00000000000000000000000000000000000000000000000000000000081526004016136aa906158dd565b60405180910390fd5b8181036004600085815260200190815260200160002081905550505050806136da906149a5565b9050613611565b505b505050505050565b6000808273ffffffffffffffffffffffffffffffffffffffff163b119050919050565b505050505050565b82805461372290614c41565b90600052602060002090601f016020900481019282613744576000855561378b565b82601f1061375d57805160ff191683800117855561378b565b8280016001018555821561378b579182015b8281111561378a57825182559160200191906001019061376f565b5b50905061379891906137bf565b5090565b604051806102000160405280601090602082028036833780820191505090505090565b5b808211156137d85760008160009055506001016137c0565b5090565b6000604051905090565b600080fd5b600080fd5b600073ffffffffffffffffffffffffffffffffffffffff82169050919050565b600061381b826137f0565b9050919050565b61382b81613810565b811461383657600080fd5b50565b60008135905061384881613822565b92915050565b6000819050919050565b6138618161384e565b811461386c57600080fd5b50565b60008135905061387e81613858565b92915050565b6000806040838503121561389b5761389a6137e6565b5b60006138a985828601613839565b92505060206138ba8582860161386f565b9150509250929050565b6138cd8161384e565b82525050565b60006020820190506138e860008301846138c4565b92915050565b60007fffffffff0000000000000000000000000000000000000000000000000000000082169050919050565b613923816138ee565b811461392e57600080fd5b50565b6000813590506139408161391a565b92915050565b60006020828403121561395c5761395b6137e6565b5b600061396a84828501613931565b91505092915050565b60008115159050919050565b61398881613973565b82525050565b60006020820190506139a3600083018461397f565b92915050565b600080604083850312156139c0576139bf6137e6565b5b60006139ce8582860161386f565b92505060206139df8582860161386f565b9150509250929050565b6000602082840312156139ff576139fe6137e6565b5b6000613a0d8482850161386f565b91505092915050565b600081519050919050565b600082825260208201905092915050565b60005b83811015613a50578082015181840152602081019050613a35565b83811115613a5f576000848401525b50505050565b6000601f19601f8301169050919050565b6000613a8182613a16565b613a8b8185613a21565b9350613a9b818560208601613a32565b613aa481613a65565b840191505092915050565b60006020820190508181036000830152613ac98184613a76565b905092915050565b600080fd5b600080fd5b7f4e487b7100000000000000000000000000000000000000000000000000000000600052604160045260246000fd5b613b1382613a65565b810181811067ffffffffffffffff82111715613b3257613b31613adb565b5b80604052505050565b6000613b456137dc565b9050613b518282613b0a565b919050565b600067ffffffffffffffff821115613b7157613b70613adb565b5b613b7a82613a65565b9050602081019050919050565b82818337600083830152505050565b6000613ba9613ba484613b56565b613b3b565b905082815260208101848484011115613bc557613bc4613ad6565b5b613bd0848285613b87565b509392505050565b600082601f830112613bed57613bec613ad1565b5b8135613bfd848260208601613b96565b91505092915050565b60008060408385031215613c1d57613c1c6137e6565b5b6000613c2b8582860161386f565b925050602083013567ffffffffffffffff811115613c4c57613c4b6137eb565b5b613c5885828601613bd8565b9150509250929050565b600060208284031215613c7857613c776137e6565b5b600082013567ffffffffffffffff811115613c9657613c956137eb565b5b613ca284828501613bd8565b91505092915050565b600067ffffffffffffffff821115613cc657613cc5613adb565b5b602082029050602081019050919050565b600080fd5b6000613cef613cea84613cab565b613b3b565b90508083825260208201905060208402830185811115613d1257613d11613cd7565b5b835b81811015613d3b5780613d27888261386f565b845260208401935050602081019050613d14565b5050509392505050565b600082601f830112613d5a57613d59613ad1565b5b8135613d6a848260208601613cdc565b91505092915050565b60008060408385031215613d8a57613d896137e6565b5b6000613d988582860161386f565b925050602083013567ffffffffffffffff811115613db957613db86137eb565b5b613dc585828601613d45565b9150509250929050565b600067ffffffffffffffff821115613dea57613de9613adb565b5b613df382613a65565b9050602081019050919050565b6000613e13613e0e84613dcf565b613b3b565b905082815260208101848484011115613e2f57613e2e613ad6565b5b613e3a848285613b87565b509392505050565b600082601f830112613e5757613e56613ad1565b5b8135613e67848260208601613e00565b91505092915050565b600080600080600060a08688031215613e8c57613e8b6137e6565b5b6000613e9a88828901613839565b9550506020613eab88828901613839565b945050604086013567ffffffffffffffff811115613ecc57613ecb6137eb565b5b613ed888828901613d45565b935050606086013567ffffffffffffffff811115613ef957613ef86137eb565b5b613f0588828901613d45565b925050608086013567ffffffffffffffff811115613f2657613f256137eb565b5b613f3288828901613e42565b9150509295509295909350565b60008060008060808587031215613f5957613f586137e6565b5b6000613f678782880161386f565b9450506020613f788782880161386f565b9350506040613f898782880161386f565b9250506060613f9a87828801613839565b91505092959194509250565b600060208284031215613fbc57613fbb6137e6565b5b6000613fca84828501613839565b91505092915050565b600061ffff82169050919050565b613fea81613fd3565b8114613ff557600080fd5b50565b60008135905061400781613fe1565b92915050565b600063ffffffff82169050919050565b6140268161400d565b811461403157600080fd5b50565b6000813590506140438161401d565b92915050565b600067ffffffffffffffff82169050919050565b61406681614049565b811461407157600080fd5b50565b6000813590506140838161405d565b92915050565b6000819050919050565b61409c81614089565b81146140a757600080fd5b50565b6000813590506140b981614093565b92915050565b600080600080608085870312156140d9576140d86137e6565b5b60006140e787828801613ff8565b94505060206140f887828801614034565b935050604061410987828801614074565b925050606061411a878288016140aa565b91505092959194509250565b600067ffffffffffffffff82111561414157614140613adb565b5b602082029050602081019050919050565b600061416561416084614126565b613b3b565b9050808382526020820190506020840283018581111561418857614187613cd7565b5b835b818110156141b1578061419d8882613839565b84526020840193505060208101905061418a565b5050509392505050565b600082601f8301126141d0576141cf613ad1565b5b81356141e0848260208601614152565b91505092915050565b60008060408385031215614200576141ff6137e6565b5b600083013567ffffffffffffffff81111561421e5761421d6137eb565b5b61422a858286016141bb565b925050602083013567ffffffffffffffff81111561424b5761424a6137eb565b5b61425785828601613d45565b9150509250929050565b600081519050919050565b600082825260208201905092915050565b6000819050602082019050919050565b6142968161384e565b82525050565b60006142a8838361428d565b60208301905092915050565b6000602082019050919050565b60006142cc82614261565b6142d6818561426c565b93506142e18361427d565b8060005b838110156143125781516142f9888261429c565b9750614304836142b4565b9250506001810190506142e5565b5085935050505092915050565b6000602082019050818103600083015261433981846142c1565b905092915050565b61434a81613810565b82525050565b600060a0820190506143656000830188614341565b61437260208301876138c4565b61437f60408301866138c4565b61438c60608301856138c4565b61439960808301846138c4565b9695505050505050565b600080600080600060a086880312156143bf576143be6137e6565b5b60006143cd8882890161386f565b95505060206143de8882890161386f565b94505060406143ef8882890161386f565b93505060606144008882890161386f565b92505060806144118882890161386f565b9150509295509295909350565b60006020820190506144336000830184614341565b92915050565b600080600060608486031215614452576144516137e6565b5b60006144608682870161386f565b93505060206144718682870161386f565b92505060406144828682870161386f565b9150509250925092565b61449581613973565b81146144a057600080fd5b50565b6000813590506144b28161448c565b92915050565b600080604083850312156144cf576144ce6137e6565b5b60006144dd85828601613839565b92505060206144ee858286016144a3565b9150509250929050565b600060808201905061450d60008301876138c4565b61451a60208301866138c4565b61452760408301856138c4565b61453460608301846138c4565b95945050505050565b60008060408385031215614554576145536137e6565b5b600061456285828601613839565b925050602061457385828601613839565b9150509250929050565b600080600080600060a08688031215614599576145986137e6565b5b60006145a788828901613839565b95505060206145b888828901613839565b94505060406145c98882890161386f565b93505060606145da8882890161386f565b925050608086013567ffffffffffffffff8111156145fb576145fa6137eb565b5b61460788828901613e42565b9150509295509295909350565b7f455243313135353a2062616c616e636520717565727920666f7220746865207a60008201527f65726f2061646472657373000000000000000000000000000000000000000000602082015250565b6000614670602b83613a21565b915061467b82614614565b604082019050919050565b6000602082019050818103600083015261469f81614663565b9050919050565b7f4f776e61626c653a2063616c6c6572206973206e6f7420746865206f776e6572600082015250565b60006146dc602083613a21565b91506146e7826146a6565b602082019050919050565b6000602082019050818103600083015261470b816146cf565b9050919050565b60006040820190506147276000830185614341565b6147346020830184614341565b9392505050565b7f455243313135353a207472616e736665722063616c6c6572206973206e6f742060008201527f6f776e6572206e6f7220617070726f7665640000000000000000000000000000602082015250565b6000614797603283613a21565b91506147a28261473b565b604082019050919050565b600060208201905081810360008301526147c68161478a565b9050919050565b7f4465782061646472657373206973206e6f7420636f6e66696775726564000000600082015250565b6000614803601d83613a21565b915061480e826147cd565b602082019050919050565b60006020820190508181036000830152614832816147f6565b9050919050565b7f41636365737320666f7262696464656e00000000000000000000000000000000600082015250565b600061486f601083613a21565b915061487a82614839565b602082019050919050565b6000602082019050818103600083015261489e81614862565b9050919050565b6148ae81614089565b82525050565b6148bd81614049565b82525050565b6148cc81613fd3565b82525050565b6148db8161400d565b82525050565b600060a0820190506148f660008301886148a5565b61490360208301876148b4565b61491060408301866148c3565b61491d60608301856148d2565b61492a60808301846148d2565b9695505050505050565b60008151905061494381613858565b92915050565b60006020828403121561495f5761495e6137e6565b5b600061496d84828501614934565b91505092915050565b7f4e487b7100000000000000000000000000000000000000000000000000000000600052601160045260246000fd5b60006149b08261384e565b91507fffffffffffffffffffffffffffffffffffffffffffffffffffffffffffffffff82036149e2576149e1614976565b5b600182019050919050565b7f455243313135353a206163636f756e747320616e6420696473206c656e67746860008201527f206d69736d617463680000000000000000000000000000000000000000000000602082015250565b6000614a49602983613a21565b9150614a54826149ed565b604082019050919050565b60006020820190508181036000830152614a7881614a3c565b9050919050565b7f4e487b7100000000000000000000000000000000000000000000000000000000600052603260045260246000fd5b600081905092915050565b7f546f6b656e202300000000000000000000000000000000000000000000000000600082015250565b6000614aef600783614aae565b9150614afa82614ab9565b600782019050919050565b6000614b1082613a16565b614b1a8185614aae565b9350614b2a818560208601613a32565b80840191505092915050565b7f204c6576656c2000000000000000000000000000000000000000000000000000600082015250565b6000614b6c600783614aae565b9150614b7782614b36565b600782019050919050565b6000614b8d82614ae2565b9150614b998285614b05565b9150614ba482614b5f565b9150614bb08284614b05565b91508190509392505050565b6000614bc78261384e565b9150614bd28361384e565b9250827fffffffffffffffffffffffffffffffffffffffffffffffffffffffffffffffff03821115614c0757614c06614976565b5b828201905092915050565b7f4e487b7100000000000000000000000000000000000000000000000000000000600052602260045260246000fd5b60006002820490506001821680614c5957607f821691505b602082108103614c6c57614c6b614c12565b5b50919050565b60008190508160005260206000209050919050565b60008154614c9481614c41565b614c9e8186614aae565b94506001821660008114614cb95760018114614cca57614cfd565b60ff19831686528186019350614cfd565b614cd385614c72565b60005b83811015614cf557815481890152600182019150602081019050614cd6565b838801955050505b50505092915050565b6000614d128285614b05565b9150614d1e8284614c87565b91508190509392505050565b60008160001c9050919050565b6000819050919050565b6000614d54614d4f83614d2a565b614d37565b9050919050565b61020082016000808301549050614d7181614d41565b614d7e600086018261428d565b5060018301549050614d8f81614d41565b614d9c602086018261428d565b5060028301549050614dad81614d41565b614dba604086018261428d565b5060038301549050614dcb81614d41565b614dd8606086018261428d565b5060048301549050614de981614d41565b614df6608086018261428d565b5060058301549050614e0781614d41565b614e1460a086018261428d565b5060068301549050614e2581614d41565b614e3260c086018261428d565b5060078301549050614e4381614d41565b614e5060e086018261428d565b5060088301549050614e6181614d41565b614e6f61010086018261428d565b5060098301549050614e8081614d41565b614e8e61012086018261428d565b50600a8301549050614e9f81614d41565b614ead61014086018261428d565b50600b8301549050614ebe81614d41565b614ecc61016086018261428d565b50600c8301549050614edd81614d41565b614eeb61018086018261428d565b50600d8301549050614efc81614d41565b614f0a6101a086018261428d565b50600e8301549050614f1b81614d41565b614f296101c086018261428d565b50600f8301549050614f3a81614d41565b614f486101e086018261428d565b5050505050565b600061024082019050614f6560008301866138c4565b8181036020830152614f778185613a76565b9050614f866040830184614d5b565b949350505050565b7f455243313135353a2063616c6c6572206973206e6f74206f776e6572206e6f7260008201527f20617070726f7665640000000000000000000000000000000000000000000000602082015250565b6000614fea602983613a21565b9150614ff582614f8e565b604082019050919050565b6000602082019050818103600083015261501981614fdd565b9050919050565b7f4f776e61626c653a206e6577206f776e657220697320746865207a65726f206160008201527f6464726573730000000000000000000000000000000000000000000000000000602082015250565b600061507c602683613a21565b915061508782615020565b604082019050919050565b600060208201905081810360008301526150ab8161506f565b9050919050565b60006150be8285614c87565b91506150ca8284614b05565b91508190509392505050565b7f455243313135353a2069647320616e6420616d6f756e7473206c656e6774682060008201527f6d69736d61746368000000000000000000000000000000000000000000000000602082015250565b6000615132602883613a21565b915061513d826150d6565b604082019050919050565b6000602082019050818103600083015261516181615125565b9050919050565b7f455243313135353a207472616e7366657220746f20746865207a65726f20616460008201527f6472657373000000000000000000000000000000000000000000000000000000602082015250565b60006151c4602583613a21565b91506151cf82615168565b604082019050919050565b600060208201905081810360008301526151f3816151b7565b9050919050565b7f455243313135353a20696e73756666696369656e742062616c616e636520666f60008201527f72207472616e7366657200000000000000000000000000000000000000000000602082015250565b6000615256602a83613a21565b9150615261826151fa565b604082019050919050565b6000602082019050818103600083015261528581615249565b9050919050565b600060408201905081810360008301526152a681856142c1565b905081810360208301526152ba81846142c1565b90509392505050565b7f4e487b7100000000000000000000000000000000000000000000000000000000600052601260045260246000fd5b60006152fd8261384e565b91506153088361384e565b925082615318576153176152c3565b5b828204905092915050565b600061532e8261384e565b91506153398361384e565b92508282101561534c5761534b614976565b5b828203905092915050565b60006153628261384e565b915061536d8361384e565b92508261537d5761537c6152c3565b5b828206905092915050565b60006153938261384e565b915061539e8361384e565b9250817fffffffffffffffffffffffffffffffffffffffffffffffffffffffffffffffff04831182151516156153d7576153d6614976565b5b828202905092915050565b7f455243313135353a2073657474696e6720617070726f76616c2073746174757360008201527f20666f722073656c660000000000000000000000000000000000000000000000602082015250565b600061543e602983613a21565b9150615449826153e2565b604082019050919050565b6000602082019050818103600083015261546d81615431565b9050919050565b600060408201905061548960008301856138c4565b61549660208301846138c4565b9392505050565b600081519050919050565b600082825260208201905092915050565b60006154c48261549d565b6154ce81856154a8565b93506154de818560208601613a32565b6154e781613a65565b840191505092915050565b600060a0820190506155076000830188614341565b6155146020830187614341565b818103604083015261552681866142c1565b9050818103606083015261553a81856142c1565b9050818103608083015261554e81846154b9565b90509695505050505050565b6000815190506155698161391a565b92915050565b600060208284031215615585576155846137e6565b5b60006155938482850161555a565b91505092915050565b60008160e01c9050919050565b600060033d11156155c85760046000803e6155c560005161559c565b90505b90565b600060443d10615658576155dd6137dc565b60043d036004823e80513d602482011167ffffffffffffffff82111715615605575050615658565b808201805167ffffffffffffffff8111156156235750505050615658565b80602083010160043d038501811115615640575050505050615658565b61564f82602001850186613b0a565b82955050505050505b90565b7f455243313135353a207472616e7366657220746f206e6f6e204552433131353560008201527f526563656976657220696d706c656d656e746572000000000000000000000000602082015250565b60006156b7603483613a21565b91506156c28261565b565b604082019050919050565b600060208201905081810360008301526156e6816156aa565b9050919050565b7f455243313135353a204552433131353552656365697665722072656a6563746560008201527f6420746f6b656e73000000000000000000000000000000000000000000000000602082015250565b6000615749602883613a21565b9150615754826156ed565b604082019050919050565b600060208201905081810360008301526157788161573c565b9050919050565b600060a0820190506157946000830188614341565b6157a16020830187614341565b6157ae60408301866138c4565b6157bb60608301856138c4565b81810360808301526157cd81846154b9565b90509695505050505050565b7f455243313135353a206d696e7420746f20746865207a65726f2061646472657360008201527f7300000000000000000000000000000000000000000000000000000000000000602082015250565b6000615835602183613a21565b9150615840826157d9565b604082019050919050565b6000602082019050818103600083015261586481615828565b9050919050565b7f455243313135353a206275726e20616d6f756e74206578636565647320746f7460008201527f616c537570706c79000000000000000000000000000000000000000000000000602082015250565b60006158c7602883613a21565b91506158d28261586b565b604082019050919050565b600060208201905081810360008301526158f6816158ba565b905091905056fea2646970667358221220caf5be6f636ee1591798f54513b94aab7befe7d01cbdb93a6f0a22c449f7911864736f6c634300080d0033",
  "linkReferences": {},
  "deployedLinkReferences": {}
}