{
  "_format": "hh-sol-artifact-1",
  "contractName": "BedroomNFT",
  "sourceName": "contracts/BedroomNFT.sol",
  "abi": [
    {
      "inputs": [
        {
          "internalType": "uint64",
          "name": "_subscriptionId",
          "type": "uint64"
        },
        {
          "internalType": "address",
          "name": "_vrfCoordinator",
          "type": "address"
        },
        {
          "internalType": "address",
          "name": "_link_token_contract",
          "type": "address"
        },
        {
          "internalType": "bytes32",
          "name": "_keyHash",
          "type": "bytes32"
        }
      ],
      "stateMutability": "nonpayable",
      "type": "constructor"
    },
    {
      "inputs": [
        {
          "internalType": "address",
          "name": "have",
          "type": "address"
        },
        {
          "internalType": "address",
          "name": "want",
          "type": "address"
        }
      ],
      "name": "OnlyCoordinatorCanFulfill",
      "type": "error"
    },
    {
      "anonymous": false,
      "inputs": [
        {
          "indexed": true,
          "internalType": "address",
          "name": "account",
          "type": "address"
        },
        {
          "indexed": true,
          "internalType": "address",
          "name": "operator",
          "type": "address"
        },
        {
          "indexed": false,
          "internalType": "bool",
          "name": "approved",
          "type": "bool"
        }
      ],
      "name": "ApprovalForAll",
      "type": "event"
    },
    {
      "anonymous": false,
      "inputs": [
        {
          "indexed": true,
          "internalType": "address",
          "name": "previousOwner",
          "type": "address"
        },
        {
          "indexed": true,
          "internalType": "address",
          "name": "newOwner",
          "type": "address"
        }
      ],
      "name": "OwnershipTransferred",
      "type": "event"
    },
    {
      "anonymous": false,
      "inputs": [
        {
          "indexed": false,
          "internalType": "address",
          "name": "account",
          "type": "address"
        }
      ],
      "name": "Paused",
      "type": "event"
    },
    {
      "anonymous": false,
      "inputs": [
        {
          "indexed": true,
          "internalType": "address",
          "name": "operator",
          "type": "address"
        },
        {
          "indexed": true,
          "internalType": "address",
          "name": "from",
          "type": "address"
        },
        {
          "indexed": true,
          "internalType": "address",
          "name": "to",
          "type": "address"
        },
        {
          "indexed": false,
          "internalType": "uint256[]",
          "name": "ids",
          "type": "uint256[]"
        },
        {
          "indexed": false,
          "internalType": "uint256[]",
          "name": "values",
          "type": "uint256[]"
        }
      ],
      "name": "TransferBatch",
      "type": "event"
    },
    {
      "anonymous": false,
      "inputs": [
        {
          "indexed": true,
          "internalType": "address",
          "name": "operator",
          "type": "address"
        },
        {
          "indexed": true,
          "internalType": "address",
          "name": "from",
          "type": "address"
        },
        {
          "indexed": true,
          "internalType": "address",
          "name": "to",
          "type": "address"
        },
        {
          "indexed": false,
          "internalType": "uint256",
          "name": "id",
          "type": "uint256"
        },
        {
          "indexed": false,
          "internalType": "uint256",
          "name": "value",
          "type": "uint256"
        }
      ],
      "name": "TransferSingle",
      "type": "event"
    },
    {
      "anonymous": false,
      "inputs": [
        {
          "indexed": false,
          "internalType": "string",
          "name": "value",
          "type": "string"
        },
        {
          "indexed": true,
          "internalType": "uint256",
          "name": "id",
          "type": "uint256"
        }
      ],
      "name": "URI",
      "type": "event"
    },
    {
      "anonymous": false,
      "inputs": [
        {
          "indexed": false,
          "internalType": "address",
          "name": "account",
          "type": "address"
        }
      ],
      "name": "Unpaused",
      "type": "event"
    },
    {
      "inputs": [
        {
          "internalType": "address",
          "name": "account",
          "type": "address"
        },
        {
          "internalType": "uint256",
          "name": "id",
          "type": "uint256"
        }
      ],
      "name": "balanceOf",
      "outputs": [
        {
          "internalType": "uint256",
          "name": "",
          "type": "uint256"
        }
      ],
      "stateMutability": "view",
      "type": "function"
    },
    {
      "inputs": [
        {
          "internalType": "address[]",
          "name": "accounts",
          "type": "address[]"
        },
        {
          "internalType": "uint256[]",
          "name": "ids",
          "type": "uint256[]"
        }
      ],
      "name": "balanceOfBatch",
      "outputs": [
        {
          "internalType": "uint256[]",
          "name": "",
          "type": "uint256[]"
        }
      ],
      "stateMutability": "view",
      "type": "function"
    },
    {
      "inputs": [
        {
          "internalType": "uint256",
          "name": "id",
          "type": "uint256"
        }
      ],
      "name": "exists",
      "outputs": [
        {
          "internalType": "bool",
          "name": "",
          "type": "bool"
        }
      ],
      "stateMutability": "view",
      "type": "function"
    },
    {
      "inputs": [
        {
          "internalType": "address",
          "name": "account",
          "type": "address"
        },
        {
          "internalType": "address",
          "name": "operator",
          "type": "address"
        }
      ],
      "name": "isApprovedForAll",
      "outputs": [
        {
          "internalType": "bool",
          "name": "",
          "type": "bool"
        }
      ],
      "stateMutability": "view",
      "type": "function"
    },
    {
      "inputs": [
        {
          "internalType": "address",
          "name": "account",
          "type": "address"
        },
        {
          "internalType": "uint256",
          "name": "id",
          "type": "uint256"
        },
        {
          "internalType": "uint256",
          "name": "amount",
          "type": "uint256"
        },
        {
          "internalType": "bytes",
          "name": "data",
          "type": "bytes"
        }
      ],
      "name": "mint",
      "outputs": [],
      "stateMutability": "nonpayable",
      "type": "function"
    },
    {
      "inputs": [
        {
          "internalType": "address",
          "name": "to",
          "type": "address"
        },
        {
          "internalType": "uint256[]",
          "name": "ids",
          "type": "uint256[]"
        },
        {
          "internalType": "uint256[]",
          "name": "amounts",
          "type": "uint256[]"
        },
        {
          "internalType": "bytes",
          "name": "data",
          "type": "bytes"
        }
      ],
      "name": "mintBatch",
      "outputs": [],
      "stateMutability": "nonpayable",
      "type": "function"
    },
    {
      "inputs": [],
      "name": "newRandomBedroom",
      "outputs": [],
      "stateMutability": "nonpayable",
      "type": "function"
    },
    {
      "inputs": [],
      "name": "owner",
      "outputs": [
        {
          "internalType": "address",
          "name": "",
          "type": "address"
        }
      ],
      "stateMutability": "view",
      "type": "function"
    },
    {
      "inputs": [],
      "name": "pause",
      "outputs": [],
      "stateMutability": "nonpayable",
      "type": "function"
    },
    {
      "inputs": [],
      "name": "paused",
      "outputs": [
        {
          "internalType": "bool",
          "name": "",
          "type": "bool"
        }
      ],
      "stateMutability": "view",
      "type": "function"
    },
    {
      "inputs": [
        {
          "internalType": "uint256",
          "name": "requestId",
          "type": "uint256"
        },
        {
          "internalType": "uint256[]",
          "name": "randomWords",
          "type": "uint256[]"
        }
      ],
      "name": "rawFulfillRandomWords",
      "outputs": [],
      "stateMutability": "nonpayable",
      "type": "function"
    },
    {
      "inputs": [],
      "name": "renounceOwnership",
      "outputs": [],
      "stateMutability": "nonpayable",
      "type": "function"
    },
    {
      "inputs": [
        {
          "internalType": "address",
          "name": "from",
          "type": "address"
        },
        {
          "internalType": "address",
          "name": "to",
          "type": "address"
        },
        {
          "internalType": "uint256[]",
          "name": "ids",
          "type": "uint256[]"
        },
        {
          "internalType": "uint256[]",
          "name": "amounts",
          "type": "uint256[]"
        },
        {
          "internalType": "bytes",
          "name": "data",
          "type": "bytes"
        }
      ],
      "name": "safeBatchTransferFrom",
      "outputs": [],
      "stateMutability": "nonpayable",
      "type": "function"
    },
    {
      "inputs": [
        {
          "internalType": "address",
          "name": "from",
          "type": "address"
        },
        {
          "internalType": "address",
          "name": "to",
          "type": "address"
        },
        {
          "internalType": "uint256",
          "name": "id",
          "type": "uint256"
        },
        {
          "internalType": "uint256",
          "name": "amount",
          "type": "uint256"
        },
        {
          "internalType": "bytes",
          "name": "data",
          "type": "bytes"
        }
      ],
      "name": "safeTransferFrom",
      "outputs": [],
      "stateMutability": "nonpayable",
      "type": "function"
    },
    {
      "inputs": [
        {
          "internalType": "address",
          "name": "operator",
          "type": "address"
        },
        {
          "internalType": "bool",
          "name": "approved",
          "type": "bool"
        }
      ],
      "name": "setApprovalForAll",
      "outputs": [],
      "stateMutability": "nonpayable",
      "type": "function"
    },
    {
      "inputs": [
        {
          "internalType": "string",
          "name": "_baseURI",
          "type": "string"
        }
      ],
      "name": "setBaseURI",
      "outputs": [],
      "stateMutability": "nonpayable",
      "type": "function"
    },
    {
      "inputs": [
        {
          "internalType": "uint256",
          "name": "_tokenId",
          "type": "uint256"
        },
        {
          "internalType": "string",
          "name": "_tokenURI",
          "type": "string"
        }
      ],
      "name": "setTokenURI",
      "outputs": [],
      "stateMutability": "nonpayable",
      "type": "function"
    },
    {
      "inputs": [
        {
          "internalType": "bytes4",
          "name": "interfaceId",
          "type": "bytes4"
        }
      ],
      "name": "supportsInterface",
      "outputs": [
        {
          "internalType": "bool",
          "name": "",
          "type": "bool"
        }
      ],
      "stateMutability": "view",
      "type": "function"
    },
    {
      "inputs": [],
      "name": "tokenId",
      "outputs": [
        {
          "internalType": "uint256",
          "name": "",
          "type": "uint256"
        }
      ],
      "stateMutability": "view",
      "type": "function"
    },
    {
      "inputs": [
        {
          "internalType": "uint256",
          "name": "",
          "type": "uint256"
        }
      ],
      "name": "tokenIdToAddress",
      "outputs": [
        {
          "internalType": "address",
          "name": "",
          "type": "address"
        }
      ],
      "stateMutability": "view",
      "type": "function"
    },
    {
      "inputs": [
        {
          "internalType": "uint256",
          "name": "",
          "type": "uint256"
        }
      ],
      "name": "tokenIdToBed",
      "outputs": [
        {
          "internalType": "uint256",
          "name": "sizeScore",
          "type": "uint256"
        },
        {
          "internalType": "uint256",
          "name": "heightScore",
          "type": "uint256"
        },
        {
          "internalType": "uint256",
          "name": "bedBaseScore",
          "type": "uint256"
        },
        {
          "internalType": "uint256",
          "name": "mattressTechnologyScore",
          "type": "uint256"
        },
        {
          "internalType": "uint256",
          "name": "mattressThicknessScore",
          "type": "uint256"
        },
        {
          "internalType": "uint256",
          "name": "deformationDepthScore",
          "type": "uint256"
        },
        {
          "internalType": "uint256",
          "name": "deformationSpeedScore",
          "type": "uint256"
        },
        {
          "internalType": "uint256",
          "name": "deformationPersistenceScore",
          "type": "uint256"
        },
        {
          "internalType": "uint256",
          "name": "thermalIsolationScore",
          "type": "uint256"
        },
        {
          "internalType": "uint256",
          "name": "hygrometricRegulationScore",
          "type": "uint256"
        },
        {
          "internalType": "uint256",
          "name": "comforterComfortabilityScore",
          "type": "uint256"
        },
        {
          "internalType": "uint256",
          "name": "pillowComfortabilityScore",
          "type": "uint256"
        }
      ],
      "stateMutability": "view",
      "type": "function"
    },
    {
      "inputs": [
        {
          "internalType": "uint256",
          "name": "",
          "type": "uint256"
        }
      ],
      "name": "tokenIdToBedroom",
      "outputs": [
        {
          "internalType": "string",
          "name": "name",
          "type": "string"
        },
        {
          "internalType": "uint256",
          "name": "investmentBalance",
          "type": "uint256"
        },
        {
          "internalType": "uint256",
          "name": "nbUpgrades",
          "type": "uint256"
        },
        {
          "internalType": "uint256",
          "name": "lightIsolationScore",
          "type": "uint256"
        },
        {
          "internalType": "uint256",
          "name": "thermalIsolationScore",
          "type": "uint256"
        },
        {
          "internalType": "uint256",
          "name": "soundIsolationScore",
          "type": "uint256"
        },
        {
          "internalType": "uint256",
          "name": "temperatureScore",
          "type": "uint256"
        },
        {
          "internalType": "uint256",
          "name": "humidityScore",
          "type": "uint256"
        },
        {
          "internalType": "uint256",
          "name": "sleepAidMachinesScore",
          "type": "uint256"
        }
      ],
      "stateMutability": "view",
      "type": "function"
    },
    {
      "inputs": [
        {
          "internalType": "uint256",
          "name": "id",
          "type": "uint256"
        }
      ],
      "name": "totalSupply",
      "outputs": [
        {
          "internalType": "uint256",
          "name": "",
          "type": "uint256"
        }
      ],
      "stateMutability": "view",
      "type": "function"
    },
    {
      "inputs": [
        {
          "internalType": "address",
          "name": "newOwner",
          "type": "address"
        }
      ],
      "name": "transferOwnership",
      "outputs": [],
      "stateMutability": "nonpayable",
      "type": "function"
    },
    {
      "inputs": [],
      "name": "unpause",
      "outputs": [],
      "stateMutability": "nonpayable",
      "type": "function"
    },
    {
      "inputs": [
        {
          "internalType": "uint256",
          "name": "_tokenId",
          "type": "uint256"
        }
      ],
      "name": "uri",
      "outputs": [
        {
          "internalType": "string",
          "name": "",
          "type": "string"
        }
      ],
      "stateMutability": "view",
      "type": "function"
    }
  ],
  "bytecode": "0x61018060405260405180602001604052806000815250600590805190602001906200002c929190620002d1565b503480156200003a57600080fd5b506040516200540f3803806200540f8339818101604052810190620000609190620003c6565b60405180602001604052806000815250838073ffffffffffffffffffffffffffffffffffffffff1660808173ffffffffffffffffffffffffffffffffffffffff1660601b8152505050620000ba81620001e760201b60201c565b50620000db620000cf6200020360201b60201c565b6200020b60201b60201c565b6000600360146101000a81548160ff0219169083151502179055508273ffffffffffffffffffffffffffffffffffffffff1660a08173ffffffffffffffffffffffffffffffffffffffff1660601b815250508173ffffffffffffffffffffffffffffffffffffffff1660c08173ffffffffffffffffffffffffffffffffffffffff1660601b815250508367ffffffffffffffff1660e08167ffffffffffffffff1660c01b81525050806101008181525050620186a063ffffffff166101208163ffffffff1660e01b81525050600361ffff166101408161ffff1660f01b81525050600163ffffffff166101608163ffffffff1660e01b8152505060006007819055505050505062000537565b8060029080519060200190620001ff929190620002d1565b5050565b600033905090565b6000600360009054906101000a900473ffffffffffffffffffffffffffffffffffffffff16905081600360006101000a81548173ffffffffffffffffffffffffffffffffffffffff021916908373ffffffffffffffffffffffffffffffffffffffff1602179055508173ffffffffffffffffffffffffffffffffffffffff168173ffffffffffffffffffffffffffffffffffffffff167f8be0079c531659141344cd1fd0a4f28419497f9722a3daafe3b4186f6b6457e060405160405180910390a35050565b828054620002df9062000484565b90600052602060002090601f0160209004810192826200030357600085556200034f565b82601f106200031e57805160ff19168380011785556200034f565b828001600101855582156200034f579182015b828111156200034e57825182559160200191906001019062000331565b5b5090506200035e919062000362565b5090565b5b808211156200037d57600081600090555060010162000363565b5090565b6000815190506200039281620004e9565b92915050565b600081519050620003a98162000503565b92915050565b600081519050620003c0816200051d565b92915050565b60008060008060808587031215620003dd57600080fd5b6000620003ed87828801620003af565b9450506020620004008782880162000381565b9350506040620004138782880162000381565b9250506060620004268782880162000398565b91505092959194509250565b60006200043f8262000450565b9050919050565b6000819050919050565b600073ffffffffffffffffffffffffffffffffffffffff82169050919050565b600067ffffffffffffffff82169050919050565b600060028204905060018216806200049d57607f821691505b60208210811415620004b457620004b3620004ba565b5b50919050565b7f4e487b7100000000000000000000000000000000000000000000000000000000600052602260045260246000fd5b620004f48162000432565b81146200050057600080fd5b50565b6200050e8162000446565b81146200051a57600080fd5b50565b620005288162000470565b81146200053457600080fd5b50565b60805160601c60a05160601c60c05160601c60e05160c01c610100516101205160e01c6101405160f01c6101605160e01c614e59620005b6600039600061111d015260006110db015260006110fc01526000611099015260006110ba015260005050600061105d01526000818161081301526108670152614e596000f3fe608060405234801561001057600080fd5b506004361061018d5760003560e01c80635c975abb116100de5780638da5cb5b11610097578063c6186ca411610071578063c6186ca414610491578063e985e9c51461049b578063f242432a146104cb578063f2fde38b146104e75761018d565b80638da5cb5b14610427578063a22cb46514610445578063bd85b039146104615761018d565b80635c975abb14610366578063637344d4146103845780636bceb74f146103bf578063715018a6146103f7578063731133e9146104015780638456cb591461041d5761018d565b80631f7fdffa1161014b5780633f4ba83a116101255780633f4ba83a146102e05780634e1273f4146102ea5780634f558e791461031a57806355f804b31461034a5761018d565b80631f7fdffa1461028c5780631fe543e3146102a85780632eb2c2d6146102c45761018d565b8062fdd58e1461019257806301ffc9a7146101c257806308bb76a5146101f25780630e89341c14610222578063162094c41461025257806317d70f7c1461026e575b600080fd5b6101ac60048036038101906101a791906136ba565b610503565b6040516101b99190614296565b60405180910390f35b6101dc60048036038101906101d791906137dd565b6105cc565b6040516101e99190613f72565b60405180910390f35b61020c60048036038101906102079190613870565b6106ae565b6040516102199190613e13565b60405180910390f35b61023c60048036038101906102379190613870565b6106e1565b6040516102499190613fe0565b60405180910390f35b61026c60048036038101906102679190613916565b6106f3565b005b61027661077d565b6040516102839190614296565b60405180910390f35b6102a660048036038101906102a191906135d3565b610783565b005b6102c260048036038101906102bd91906138c2565b610811565b005b6102de60048036038101906102d99190613485565b6108d1565b005b6102e8610972565b005b61030460048036038101906102ff9190613771565b6109f8565b6040516103119190613f19565b60405180910390f35b610334600480360381019061032f9190613870565b610ba9565b6040516103419190613f72565b60405180910390f35b610364600480360381019061035f919061382f565b610bbd565b005b61036e610c45565b60405161037b9190613f72565b60405180910390f35b61039e60048036038101906103999190613870565b610c5c565b6040516103b69c9b9a999897969594939291906142da565b60405180910390f35b6103d960048036038101906103d49190613870565b610cbc565b6040516103ee99989796959493929190614002565b60405180910390f35b6103ff610d92565b005b61041b600480360381019061041691906136f6565b610e1a565b005b610425610ea8565b005b61042f610f2e565b60405161043c9190613e13565b60405180910390f35b61045f600480360381019061045a919061367e565b610f58565b005b61047b60048036038101906104769190613870565b610f6e565b6040516104889190614296565b60405180910390f35b610499610f8b565b005b6104b560048036038101906104b09190613449565b6111b1565b6040516104c29190613f72565b60405180910390f35b6104e560048036038101906104e09190613544565b611245565b005b61050160048036038101906104fc9190613420565b6112e6565b005b60008073ffffffffffffffffffffffffffffffffffffffff168373ffffffffffffffffffffffffffffffffffffffff161415610574576040517f08c379a000000000000000000000000000000000000000000000000000000000815260040161056b906140f6565b60405180910390fd5b60008083815260200190815260200160002060008473ffffffffffffffffffffffffffffffffffffffff1673ffffffffffffffffffffffffffffffffffffffff16815260200190815260200160002054905092915050565b60007fd9b67a26000000000000000000000000000000000000000000000000000000007bffffffffffffffffffffffffffffffffffffffffffffffffffffffff1916827bffffffffffffffffffffffffffffffffffffffffffffffffffffffff1916148061069757507f0e89341c000000000000000000000000000000000000000000000000000000007bffffffffffffffffffffffffffffffffffffffffffffffffffffffff1916827bffffffffffffffffffffffffffffffffffffffffffffffffffffffff1916145b806106a757506106a6826113de565b5b9050919050565b60086020528060005260406000206000915054906101000a900473ffffffffffffffffffffffffffffffffffffffff1681565b60606106ec82611448565b9050919050565b6106fb61152d565b73ffffffffffffffffffffffffffffffffffffffff16610719610f2e565b73ffffffffffffffffffffffffffffffffffffffff161461076f576040517f08c379a0000000000000000000000000000000000000000000000000000000008152600401610766906141d6565b60405180910390fd5b6107798282611535565b5050565b60075481565b61078b61152d565b73ffffffffffffffffffffffffffffffffffffffff166107a9610f2e565b73ffffffffffffffffffffffffffffffffffffffff16146107ff576040517f08c379a00000000000000000000000000000000000000000000000000000000081526004016107f6906141d6565b60405180910390fd5b61080b848484846115a1565b50505050565b7f000000000000000000000000000000000000000000000000000000000000000073ffffffffffffffffffffffffffffffffffffffff163373ffffffffffffffffffffffffffffffffffffffff16146108c357337f00000000000000000000000000000000000000000000000000000000000000006040517f1cf993f40000000000000000000000000000000000000000000000000000000081526004016108ba929190613e2e565b60405180910390fd5b6108cd828261181a565b5050565b6108d961152d565b73ffffffffffffffffffffffffffffffffffffffff168573ffffffffffffffffffffffffffffffffffffffff16148061091f575061091e8561091961152d565b6111b1565b5b61095e576040517f08c379a000000000000000000000000000000000000000000000000000000000815260040161095590614196565b60405180910390fd5b61096b858585858561190b565b5050505050565b61097a61152d565b73ffffffffffffffffffffffffffffffffffffffff16610998610f2e565b73ffffffffffffffffffffffffffffffffffffffff16146109ee576040517f08c379a00000000000000000000000000000000000000000000000000000000081526004016109e5906141d6565b60405180910390fd5b6109f6611c79565b565b60608151835114610a3e576040517f08c379a0000000000000000000000000000000000000000000000000000000008152600401610a3590614236565b60405180910390fd5b6000835167ffffffffffffffff811115610a81577f4e487b7100000000000000000000000000000000000000000000000000000000600052604160045260246000fd5b604051908082528060200260200182016040528015610aaf5781602001602082028036833780820191505090505b50905060005b8451811015610b9e57610b48858281518110610afa577f4e487b7100000000000000000000000000000000000000000000000000000000600052603260045260246000fd5b6020026020010151858381518110610b3b577f4e487b7100000000000000000000000000000000000000000000000000000000600052603260045260246000fd5b6020026020010151610503565b828281518110610b81577f4e487b7100000000000000000000000000000000000000000000000000000000600052603260045260246000fd5b60200260200101818152505080610b9790614714565b9050610ab5565b508091505092915050565b600080610bb583610f6e565b119050919050565b610bc561152d565b73ffffffffffffffffffffffffffffffffffffffff16610be3610f2e565b73ffffffffffffffffffffffffffffffffffffffff1614610c39576040517f08c379a0000000000000000000000000000000000000000000000000000000008152600401610c30906141d6565b60405180910390fd5b610c4281611d1b565b50565b6000600360149054906101000a900460ff16905090565b600a60205280600052604060002060009150905080600001549080600101549080600201549080600301549080600401549080600501549080600601549080600701549080600801549080600901549080600a01549080600b015490508c565b6009602052806000526040600020600091509050806000018054610cdf906146b1565b80601f0160208091040260200160405190810160405280929190818152602001828054610d0b906146b1565b8015610d585780601f10610d2d57610100808354040283529160200191610d58565b820191906000526020600020905b815481529060010190602001808311610d3b57829003601f168201915b5050505050908060010154908060020154908060030154908060040154908060050154908060060154908060070154908060080154905089565b610d9a61152d565b73ffffffffffffffffffffffffffffffffffffffff16610db8610f2e565b73ffffffffffffffffffffffffffffffffffffffff1614610e0e576040517f08c379a0000000000000000000000000000000000000000000000000000000008152600401610e05906141d6565b60405180910390fd5b610e186000611d35565b565b610e2261152d565b73ffffffffffffffffffffffffffffffffffffffff16610e40610f2e565b73ffffffffffffffffffffffffffffffffffffffff1614610e96576040517f08c379a0000000000000000000000000000000000000000000000000000000008152600401610e8d906141d6565b60405180910390fd5b610ea284848484611dfb565b50505050565b610eb061152d565b73ffffffffffffffffffffffffffffffffffffffff16610ece610f2e565b73ffffffffffffffffffffffffffffffffffffffff1614610f24576040517f08c379a0000000000000000000000000000000000000000000000000000000008152600401610f1b906141d6565b60405180910390fd5b610f2c611fac565b565b6000600360009054906101000a900473ffffffffffffffffffffffffffffffffffffffff16905090565b610f6a610f6361152d565b838361204f565b5050565b600060046000838152602001908152602001600020549050919050565b610f9361152d565b73ffffffffffffffffffffffffffffffffffffffff16610fb1610f2e565b73ffffffffffffffffffffffffffffffffffffffff1614611007576040517f08c379a0000000000000000000000000000000000000000000000000000000008152600401610ffe906141d6565b60405180910390fd5b3360086000600754815260200190815260200160002060006101000a81548173ffffffffffffffffffffffffffffffffffffffff021916908373ffffffffffffffffffffffffffffffffffffffff1602179055507f000000000000000000000000000000000000000000000000000000000000000073ffffffffffffffffffffffffffffffffffffffff16635d3b1d307f00000000000000000000000000000000000000000000000000000000000000007f00000000000000000000000000000000000000000000000000000000000000007f00000000000000000000000000000000000000000000000000000000000000007f00000000000000000000000000000000000000000000000000000000000000007f00000000000000000000000000000000000000000000000000000000000000006040518663ffffffff1660e01b815260040161115c959493929190613f8d565b602060405180830381600087803b15801561117657600080fd5b505af115801561118a573d6000803e3d6000fd5b505050506040513d601f19601f820116820180604052508101906111ae9190613899565b50565b6000600160008473ffffffffffffffffffffffffffffffffffffffff1673ffffffffffffffffffffffffffffffffffffffff16815260200190815260200160002060008373ffffffffffffffffffffffffffffffffffffffff1673ffffffffffffffffffffffffffffffffffffffff16815260200190815260200160002060009054906101000a900460ff16905092915050565b61124d61152d565b73ffffffffffffffffffffffffffffffffffffffff168573ffffffffffffffffffffffffffffffffffffffff16148061129357506112928561128d61152d565b6111b1565b5b6112d2576040517f08c379a00000000000000000000000000000000000000000000000000000000081526004016112c990614136565b60405180910390fd5b6112df85858585856121bc565b5050505050565b6112ee61152d565b73ffffffffffffffffffffffffffffffffffffffff1661130c610f2e565b73ffffffffffffffffffffffffffffffffffffffff1614611362576040517f08c379a0000000000000000000000000000000000000000000000000000000008152600401611359906141d6565b60405180910390fd5b600073ffffffffffffffffffffffffffffffffffffffff168173ffffffffffffffffffffffffffffffffffffffff1614156113d2576040517f08c379a00000000000000000000000000000000000000000000000000000000081526004016113c990614116565b60405180910390fd5b6113db81611d35565b50565b60007f01ffc9a7000000000000000000000000000000000000000000000000000000007bffffffffffffffffffffffffffffffffffffffffffffffffffffffff1916827bffffffffffffffffffffffffffffffffffffffffffffffffffffffff1916149050919050565b6060600060066000848152602001908152602001600020805461146a906146b1565b80601f0160208091040260200160405190810160405280929190818152602001828054611496906146b1565b80156114e35780601f106114b8576101008083540402835291602001916114e3565b820191906000526020600020905b8154815290600101906020018083116114c657829003601f168201915b505050505090506000815111611501576114fc83612458565b611525565b600581604051602001611515929190613dcd565b6040516020818303038152906040525b915050919050565b600033905090565b8060066000848152602001908152602001600020908051906020019061155c929190613103565b50817f6bb7ff708619ba0610cba295a58592e0451dee2622938c8755667688daf3529b611588846106e1565b6040516115959190613fe0565b60405180910390a25050565b600073ffffffffffffffffffffffffffffffffffffffff168473ffffffffffffffffffffffffffffffffffffffff161415611611576040517f08c379a000000000000000000000000000000000000000000000000000000000815260040161160890614276565b60405180910390fd5b8151835114611655576040517f08c379a000000000000000000000000000000000000000000000000000000000815260040161164c90614256565b60405180910390fd5b600061165f61152d565b9050611670816000878787876124ec565b60005b8451811015611775578381815181106116b5577f4e487b7100000000000000000000000000000000000000000000000000000000600052603260045260246000fd5b60200260200101516000808784815181106116f9577f4e487b7100000000000000000000000000000000000000000000000000000000600052603260045260246000fd5b6020026020010151815260200190815260200160002060008873ffffffffffffffffffffffffffffffffffffffff1673ffffffffffffffffffffffffffffffffffffffff168152602001908152602001600020600082825461175b9190614504565b92505081905550808061176d90614714565b915050611673565b508473ffffffffffffffffffffffffffffffffffffffff16600073ffffffffffffffffffffffffffffffffffffffff168273ffffffffffffffffffffffffffffffffffffffff167f4a39dc06d4c0dbc64b70af90fd698a233a518aa5d07e595d983b8c0526c8f7fb87876040516117ed929190613f3b565b60405180910390a46118048160008787878761254a565b61181381600087878787612552565b5050505050565b6000600754905061186c8260008151811061185e577f4e487b7100000000000000000000000000000000000000000000000000000000600052603260045260246000fd5b602002602001015182612739565b6118b7826000815181106118a9577f4e487b7100000000000000000000000000000000000000000000000000000000600052603260045260246000fd5b602002602001015182612896565b6119066008600083815260200190815260200160002060009054906101000a900473ffffffffffffffffffffffffffffffffffffffff1682600160405180602001604052806000815250611dfb565b505050565b815183511461194f576040517f08c379a000000000000000000000000000000000000000000000000000000000815260040161194690614256565b60405180910390fd5b600073ffffffffffffffffffffffffffffffffffffffff168473ffffffffffffffffffffffffffffffffffffffff1614156119bf576040517f08c379a00000000000000000000000000000000000000000000000000000000081526004016119b690614176565b60405180910390fd5b60006119c961152d565b90506119d98187878787876124ec565b60005b8451811015611bd6576000858281518110611a20577f4e487b7100000000000000000000000000000000000000000000000000000000600052603260045260246000fd5b602002602001015190506000858381518110611a65577f4e487b7100000000000000000000000000000000000000000000000000000000600052603260045260246000fd5b60200260200101519050600080600084815260200190815260200160002060008b73ffffffffffffffffffffffffffffffffffffffff1673ffffffffffffffffffffffffffffffffffffffff16815260200190815260200160002054905081811015611b06576040517f08c379a0000000000000000000000000000000000000000000000000000000008152600401611afd906141b6565b60405180910390fd5b81810360008085815260200190815260200160002060008c73ffffffffffffffffffffffffffffffffffffffff1673ffffffffffffffffffffffffffffffffffffffff168152602001908152602001600020819055508160008085815260200190815260200160002060008b73ffffffffffffffffffffffffffffffffffffffff1673ffffffffffffffffffffffffffffffffffffffff1681526020019081526020016000206000828254611bbb9190614504565b9250508190555050505080611bcf90614714565b90506119dc565b508473ffffffffffffffffffffffffffffffffffffffff168673ffffffffffffffffffffffffffffffffffffffff168273ffffffffffffffffffffffffffffffffffffffff167f4a39dc06d4c0dbc64b70af90fd698a233a518aa5d07e595d983b8c0526c8f7fb8787604051611c4d929190613f3b565b60405180910390a4611c6381878787878761254a565b611c71818787878787612552565b505050505050565b611c81610c45565b611cc0576040517f08c379a0000000000000000000000000000000000000000000000000000000008152600401611cb7906140d6565b60405180910390fd5b6000600360146101000a81548160ff0219169083151502179055507f5db9ee0a495bf2e6ff9c91a7834c1ba4fdd244a5e8aa4e537bd38aeae4b073aa611d0461152d565b604051611d119190613e13565b60405180910390a1565b8060059080519060200190611d31929190613103565b5050565b6000600360009054906101000a900473ffffffffffffffffffffffffffffffffffffffff16905081600360006101000a81548173ffffffffffffffffffffffffffffffffffffffff021916908373ffffffffffffffffffffffffffffffffffffffff1602179055508173ffffffffffffffffffffffffffffffffffffffff168173ffffffffffffffffffffffffffffffffffffffff167f8be0079c531659141344cd1fd0a4f28419497f9722a3daafe3b4186f6b6457e060405160405180910390a35050565b600073ffffffffffffffffffffffffffffffffffffffff168473ffffffffffffffffffffffffffffffffffffffff161415611e6b576040517f08c379a0000000000000000000000000000000000000000000000000000000008152600401611e6290614276565b60405180910390fd5b6000611e7561152d565b90506000611e8285612a14565b90506000611e8f85612a14565b9050611ea0836000898585896124ec565b8460008088815260200190815260200160002060008973ffffffffffffffffffffffffffffffffffffffff1673ffffffffffffffffffffffffffffffffffffffff1681526020019081526020016000206000828254611eff9190614504565b925050819055508673ffffffffffffffffffffffffffffffffffffffff16600073ffffffffffffffffffffffffffffffffffffffff168473ffffffffffffffffffffffffffffffffffffffff167fc3d58168c5ae7397731d063d5bbf3d657854427343f4c083240f7aacaa2d0f628989604051611f7d9291906142b1565b60405180910390a4611f948360008985858961254a565b611fa383600089898989612ada565b50505050505050565b611fb4610c45565b15611ff4576040517f08c379a0000000000000000000000000000000000000000000000000000000008152600401611feb90614156565b60405180910390fd5b6001600360146101000a81548160ff0219169083151502179055507f62e78cea01bee320cd4e420270b5ea74000d11b0c9f74754ebdbfc544b05a25861203861152d565b6040516120459190613e13565b60405180910390a1565b8173ffffffffffffffffffffffffffffffffffffffff168373ffffffffffffffffffffffffffffffffffffffff1614156120be576040517f08c379a00000000000000000000000000000000000000000000000000000000081526004016120b590614216565b60405180910390fd5b80600160008573ffffffffffffffffffffffffffffffffffffffff1673ffffffffffffffffffffffffffffffffffffffff16815260200190815260200160002060008473ffffffffffffffffffffffffffffffffffffffff1673ffffffffffffffffffffffffffffffffffffffff16815260200190815260200160002060006101000a81548160ff0219169083151502179055508173ffffffffffffffffffffffffffffffffffffffff168373ffffffffffffffffffffffffffffffffffffffff167f17307eab39ab6107e8899845ad3d59bd9653f200f220920489ca2b5937696c31836040516121af9190613f72565b60405180910390a3505050565b600073ffffffffffffffffffffffffffffffffffffffff168473ffffffffffffffffffffffffffffffffffffffff16141561222c576040517f08c379a000000000000000000000000000000000000000000000000000000000815260040161222390614176565b60405180910390fd5b600061223661152d565b9050600061224385612a14565b9050600061225085612a14565b90506122608389898585896124ec565b600080600088815260200190815260200160002060008a73ffffffffffffffffffffffffffffffffffffffff1673ffffffffffffffffffffffffffffffffffffffff168152602001908152602001600020549050858110156122f7576040517f08c379a00000000000000000000000000000000000000000000000000000000081526004016122ee906141b6565b60405180910390fd5b85810360008089815260200190815260200160002060008b73ffffffffffffffffffffffffffffffffffffffff1673ffffffffffffffffffffffffffffffffffffffff168152602001908152602001600020819055508560008089815260200190815260200160002060008a73ffffffffffffffffffffffffffffffffffffffff1673ffffffffffffffffffffffffffffffffffffffff16815260200190815260200160002060008282546123ac9190614504565b925050819055508773ffffffffffffffffffffffffffffffffffffffff168973ffffffffffffffffffffffffffffffffffffffff168573ffffffffffffffffffffffffffffffffffffffff167fc3d58168c5ae7397731d063d5bbf3d657854427343f4c083240f7aacaa2d0f628a8a6040516124299291906142b1565b60405180910390a461243f848a8a86868a61254a565b61244d848a8a8a8a8a612ada565b505050505050505050565b606060028054612467906146b1565b80601f0160208091040260200160405190810160405280929190818152602001828054612493906146b1565b80156124e05780601f106124b5576101008083540402835291602001916124e0565b820191906000526020600020905b8154815290600101906020018083116124c357829003601f168201915b50505050509050919050565b6124f4610c45565b15612534576040517f08c379a000000000000000000000000000000000000000000000000000000000815260040161252b90614156565b60405180910390fd5b612542868686868686612cc1565b505050505050565b505050505050565b6125718473ffffffffffffffffffffffffffffffffffffffff16612f2b565b15612731578373ffffffffffffffffffffffffffffffffffffffff1663bc197c8187878686866040518663ffffffff1660e01b81526004016125b7959493929190613e57565b602060405180830381600087803b1580156125d157600080fd5b505af192505050801561260257506040513d601f19601f820116820180604052508101906125ff9190613806565b60015b6126a85761260e61484a565b806308c379a0141561266b5750612623614d31565b8061262e575061266d565b806040517f08c379a00000000000000000000000000000000000000000000000000000000081526004016126629190613fe0565b60405180910390fd5b505b6040517f08c379a000000000000000000000000000000000000000000000000000000000815260040161269f90614096565b60405180910390fd5b63bc197c8160e01b7bffffffffffffffffffffffffffffffffffffffffffffffffffffffff1916817bffffffffffffffffffffffffffffffffffffffffffffffffffffffff19161461272f576040517f08c379a0000000000000000000000000000000000000000000000000000000008152600401612726906140b6565b60405180910390fd5b505b505050505050565b600061274482612f4e565b6040516020016127549190613df1565b604051602081830303815290604052905060006040518061012001604052808381526020016000815260200160008152602001605086612794919061475d565b8152602001604b866127a6919061475d565b81526020016046866127b8919061475d565b81526020016041866127ca919061475d565b8152602001603c866127dc919061475d565b81526020016032866127ee919061475d565b815250905080600960008581526020019081526020016000206000820151816000019080519060200190612823929190613103565b506020820151816001015560408201518160020155606082015181600301556080820151816004015560a0820151816005015560c0820151816006015560e0820151816007015561010082015181600801559050506007600081548092919061288b90614714565b919050555050505050565b60006040518061018001604052806064856128b1919061475d565b8152602001605f856128c3919061475d565b81526020016050856128d5919061475d565b8152602001604b856128e7919061475d565b81526020016046856128f9919061475d565b815260200160418561290b919061475d565b8152602001603c8561291d919061475d565b815260200160378561292f919061475d565b8152602001603285612941919061475d565b8152602001603485612953919061475d565b8152602001603b85612965919061475d565b8152602001604085612977919061475d565b815250905080600a6000848152602001908152602001600020600082015181600001556020820151816001015560408201518160020155606082015181600301556080820151816004015560a0820151816005015560c0820151816006015560e082015181600701556101008201518160080155610120820151816009015561014082015181600a015561016082015181600b0155905050505050565b60606000600167ffffffffffffffff811115612a59577f4e487b7100000000000000000000000000000000000000000000000000000000600052604160045260246000fd5b604051908082528060200260200182016040528015612a875781602001602082028036833780820191505090505b5090508281600081518110612ac5577f4e487b7100000000000000000000000000000000000000000000000000000000600052603260045260246000fd5b60200260200101818152505080915050919050565b612af98473ffffffffffffffffffffffffffffffffffffffff16612f2b565b15612cb9578373ffffffffffffffffffffffffffffffffffffffff1663f23a6e6187878686866040518663ffffffff1660e01b8152600401612b3f959493929190613ebf565b602060405180830381600087803b158015612b5957600080fd5b505af1925050508015612b8a57506040513d601f19601f82011682018060405250810190612b879190613806565b60015b612c3057612b9661484a565b806308c379a01415612bf35750612bab614d31565b80612bb65750612bf5565b806040517f08c379a0000000000000000000000000000000000000000000000000000000008152600401612bea9190613fe0565b60405180910390fd5b505b6040517f08c379a0000000000000000000000000000000000000000000000000000000008152600401612c2790614096565b60405180910390fd5b63f23a6e6160e01b7bffffffffffffffffffffffffffffffffffffffffffffffffffffffff1916817bffffffffffffffffffffffffffffffffffffffffffffffffffffffff191614612cb7576040517f08c379a0000000000000000000000000000000000000000000000000000000008152600401612cae906140b6565b60405180910390fd5b505b505050505050565b612ccf8686868686866130fb565b600073ffffffffffffffffffffffffffffffffffffffff168573ffffffffffffffffffffffffffffffffffffffff161415612dcd5760005b8351811015612dcb57828181518110612d49577f4e487b7100000000000000000000000000000000000000000000000000000000600052603260045260246000fd5b602002602001015160046000868481518110612d8e577f4e487b7100000000000000000000000000000000000000000000000000000000600052603260045260246000fd5b602002602001015181526020019081526020016000206000828254612db39190614504565b9250508190555080612dc490614714565b9050612d07565b505b600073ffffffffffffffffffffffffffffffffffffffff168473ffffffffffffffffffffffffffffffffffffffff161415612f235760005b8351811015612f21576000848281518110612e49577f4e487b7100000000000000000000000000000000000000000000000000000000600052603260045260246000fd5b602002602001015190506000848381518110612e8e577f4e487b7100000000000000000000000000000000000000000000000000000000600052603260045260246000fd5b6020026020010151905060006004600084815260200190815260200160002054905081811015612ef3576040517f08c379a0000000000000000000000000000000000000000000000000000000008152600401612eea906141f6565b60405180910390fd5b818103600460008581526020019081526020016000208190555050505080612f1a90614714565b9050612e05565b505b505050505050565b6000808273ffffffffffffffffffffffffffffffffffffffff163b119050919050565b60606000821415612f96576040518060400160405280600181526020017f300000000000000000000000000000000000000000000000000000000000000081525090506130f6565b600082905060005b60008214612fc8578080612fb190614714565b915050600a82612fc1919061455a565b9150612f9e565b60008167ffffffffffffffff81111561300a577f4e487b7100000000000000000000000000000000000000000000000000000000600052604160045260246000fd5b6040519080825280601f01601f19166020018201604052801561303c5781602001600182028036833780820191505090505b5090505b600085146130ef57600182613055919061458b565b9150600a85613064919061475d565b60306130709190614504565b60f81b8183815181106130ac577f4e487b7100000000000000000000000000000000000000000000000000000000600052603260045260246000fd5b60200101907effffffffffffffffffffffffffffffffffffffffffffffffffffffffffffff1916908160001a905350600a856130e8919061455a565b9450613040565b8093505050505b919050565b505050505050565b82805461310f906146b1565b90600052602060002090601f0160209004810192826131315760008555613178565b82601f1061314a57805160ff1916838001178555613178565b82800160010185558215613178579182015b8281111561317757825182559160200191906001019061315c565b5b5090506131859190613189565b5090565b5b808211156131a257600081600090555060010161318a565b5090565b60006131b96131b4846143b9565b614394565b905080838252602082019050828560208602820111156131d857600080fd5b60005b8581101561320857816131ee88826132fa565b8452602084019350602083019250506001810190506131db565b5050509392505050565b6000613225613220846143e5565b614394565b9050808382526020820190508285602086028201111561324457600080fd5b60005b85811015613274578161325a88826133f6565b845260208401935060208301925050600181019050613247565b5050509392505050565b600061329161328c84614411565b614394565b9050828152602081018484840111156132a957600080fd5b6132b484828561466f565b509392505050565b60006132cf6132ca84614442565b614394565b9050828152602081018484840111156132e757600080fd5b6132f284828561466f565b509392505050565b60008135905061330981614dc7565b92915050565b600082601f83011261332057600080fd5b81356133308482602086016131a6565b91505092915050565b600082601f83011261334a57600080fd5b813561335a848260208601613212565b91505092915050565b60008135905061337281614dde565b92915050565b60008135905061338781614df5565b92915050565b60008151905061339c81614df5565b92915050565b600082601f8301126133b357600080fd5b81356133c384826020860161327e565b91505092915050565b600082601f8301126133dd57600080fd5b81356133ed8482602086016132bc565b91505092915050565b60008135905061340581614e0c565b92915050565b60008151905061341a81614e0c565b92915050565b60006020828403121561343257600080fd5b6000613440848285016132fa565b91505092915050565b6000806040838503121561345c57600080fd5b600061346a858286016132fa565b925050602061347b858286016132fa565b9150509250929050565b600080600080600060a0868803121561349d57600080fd5b60006134ab888289016132fa565b95505060206134bc888289016132fa565b945050604086013567ffffffffffffffff8111156134d957600080fd5b6134e588828901613339565b935050606086013567ffffffffffffffff81111561350257600080fd5b61350e88828901613339565b925050608086013567ffffffffffffffff81111561352b57600080fd5b613537888289016133a2565b9150509295509295909350565b600080600080600060a0868803121561355c57600080fd5b600061356a888289016132fa565b955050602061357b888289016132fa565b945050604061358c888289016133f6565b935050606061359d888289016133f6565b925050608086013567ffffffffffffffff8111156135ba57600080fd5b6135c6888289016133a2565b9150509295509295909350565b600080600080608085870312156135e957600080fd5b60006135f7878288016132fa565b945050602085013567ffffffffffffffff81111561361457600080fd5b61362087828801613339565b935050604085013567ffffffffffffffff81111561363d57600080fd5b61364987828801613339565b925050606085013567ffffffffffffffff81111561366657600080fd5b613672878288016133a2565b91505092959194509250565b6000806040838503121561369157600080fd5b600061369f858286016132fa565b92505060206136b085828601613363565b9150509250929050565b600080604083850312156136cd57600080fd5b60006136db858286016132fa565b92505060206136ec858286016133f6565b9150509250929050565b6000806000806080858703121561370c57600080fd5b600061371a878288016132fa565b945050602061372b878288016133f6565b935050604061373c878288016133f6565b925050606085013567ffffffffffffffff81111561375957600080fd5b613765878288016133a2565b91505092959194509250565b6000806040838503121561378457600080fd5b600083013567ffffffffffffffff81111561379e57600080fd5b6137aa8582860161330f565b925050602083013567ffffffffffffffff8111156137c757600080fd5b6137d385828601613339565b9150509250929050565b6000602082840312156137ef57600080fd5b60006137fd84828501613378565b91505092915050565b60006020828403121561381857600080fd5b60006138268482850161338d565b91505092915050565b60006020828403121561384157600080fd5b600082013567ffffffffffffffff81111561385b57600080fd5b613867848285016133cc565b91505092915050565b60006020828403121561388257600080fd5b6000613890848285016133f6565b91505092915050565b6000602082840312156138ab57600080fd5b60006138b98482850161340b565b91505092915050565b600080604083850312156138d557600080fd5b60006138e3858286016133f6565b925050602083013567ffffffffffffffff81111561390057600080fd5b61390c85828601613339565b9150509250929050565b6000806040838503121561392957600080fd5b6000613937858286016133f6565b925050602083013567ffffffffffffffff81111561395457600080fd5b613960858286016133cc565b9150509250929050565b60006139768383613d91565b60208301905092915050565b61398b816145bf565b82525050565b600061399c82614498565b6139a681856144c6565b93506139b183614473565b8060005b838110156139e25781516139c9888261396a565b97506139d4836144b9565b9250506001810190506139b5565b5085935050505092915050565b6139f8816145d1565b82525050565b613a07816145dd565b82525050565b6000613a18826144a3565b613a2281856144d7565b9350613a3281856020860161467e565b613a3b8161486c565b840191505092915050565b6000613a51826144ae565b613a5b81856144e8565b9350613a6b81856020860161467e565b613a748161486c565b840191505092915050565b6000613a8a826144ae565b613a9481856144f9565b9350613aa481856020860161467e565b80840191505092915050565b60008154613abd816146b1565b613ac781866144f9565b94506001821660008114613ae25760018114613af357613b26565b60ff19831686528186019350613b26565b613afc85614483565b60005b83811015613b1e57815481890152600182019150602081019050613aff565b838801955050505b50505092915050565b6000613b3c6034836144e8565b9150613b478261488a565b604082019050919050565b6000613b5f6028836144e8565b9150613b6a826148d9565b604082019050919050565b6000613b826014836144e8565b9150613b8d82614928565b602082019050919050565b6000613ba5602b836144e8565b9150613bb082614951565b604082019050919050565b6000613bc86026836144e8565b9150613bd3826149a0565b604082019050919050565b6000613beb6029836144e8565b9150613bf6826149ef565b604082019050919050565b6000613c0e6010836144e8565b9150613c1982614a3e565b602082019050919050565b6000613c316025836144e8565b9150613c3c82614a67565b604082019050919050565b6000613c546032836144e8565b9150613c5f82614ab6565b604082019050919050565b6000613c77602a836144e8565b9150613c8282614b05565b604082019050919050565b6000613c9a6007836144f9565b9150613ca582614b54565b600782019050919050565b6000613cbd6020836144e8565b9150613cc882614b7d565b602082019050919050565b6000613ce06028836144e8565b9150613ceb82614ba6565b604082019050919050565b6000613d036029836144e8565b9150613d0e82614bf5565b604082019050919050565b6000613d266029836144e8565b9150613d3182614c44565b604082019050919050565b6000613d496028836144e8565b9150613d5482614c93565b604082019050919050565b6000613d6c6021836144e8565b9150613d7782614ce2565b604082019050919050565b613d8b81614613565b82525050565b613d9a81614641565b82525050565b613da981614641565b82525050565b613db88161464b565b82525050565b613dc78161465b565b82525050565b6000613dd98285613ab0565b9150613de58284613a7f565b91508190509392505050565b6000613dfc82613c8d565b9150613e088284613a7f565b915081905092915050565b6000602082019050613e286000830184613982565b92915050565b6000604082019050613e436000830185613982565b613e506020830184613982565b9392505050565b600060a082019050613e6c6000830188613982565b613e796020830187613982565b8181036040830152613e8b8186613991565b90508181036060830152613e9f8185613991565b90508181036080830152613eb38184613a0d565b90509695505050505050565b600060a082019050613ed46000830188613982565b613ee16020830187613982565b613eee6040830186613da0565b613efb6060830185613da0565b8181036080830152613f0d8184613a0d565b90509695505050505050565b60006020820190508181036000830152613f338184613991565b905092915050565b60006040820190508181036000830152613f558185613991565b90508181036020830152613f698184613991565b90509392505050565b6000602082019050613f8760008301846139ef565b92915050565b600060a082019050613fa260008301886139fe565b613faf6020830187613dbe565b613fbc6040830186613d82565b613fc96060830185613daf565b613fd66080830184613daf565b9695505050505050565b60006020820190508181036000830152613ffa8184613a46565b905092915050565b600061012082019050818103600083015261401d818c613a46565b905061402c602083018b613da0565b614039604083018a613da0565b6140466060830189613da0565b6140536080830188613da0565b61406060a0830187613da0565b61406d60c0830186613da0565b61407a60e0830185613da0565b614088610100830184613da0565b9a9950505050505050505050565b600060208201905081810360008301526140af81613b2f565b9050919050565b600060208201905081810360008301526140cf81613b52565b9050919050565b600060208201905081810360008301526140ef81613b75565b9050919050565b6000602082019050818103600083015261410f81613b98565b9050919050565b6000602082019050818103600083015261412f81613bbb565b9050919050565b6000602082019050818103600083015261414f81613bde565b9050919050565b6000602082019050818103600083015261416f81613c01565b9050919050565b6000602082019050818103600083015261418f81613c24565b9050919050565b600060208201905081810360008301526141af81613c47565b9050919050565b600060208201905081810360008301526141cf81613c6a565b9050919050565b600060208201905081810360008301526141ef81613cb0565b9050919050565b6000602082019050818103600083015261420f81613cd3565b9050919050565b6000602082019050818103600083015261422f81613cf6565b9050919050565b6000602082019050818103600083015261424f81613d19565b9050919050565b6000602082019050818103600083015261426f81613d3c565b9050919050565b6000602082019050818103600083015261428f81613d5f565b9050919050565b60006020820190506142ab6000830184613da0565b92915050565b60006040820190506142c66000830185613da0565b6142d36020830184613da0565b9392505050565b6000610180820190506142f0600083018f613da0565b6142fd602083018e613da0565b61430a604083018d613da0565b614317606083018c613da0565b614324608083018b613da0565b61433160a083018a613da0565b61433e60c0830189613da0565b61434b60e0830188613da0565b614359610100830187613da0565b614367610120830186613da0565b614375610140830185613da0565b614383610160830184613da0565b9d9c50505050505050505050505050565b600061439e6143af565b90506143aa82826146e3565b919050565b6000604051905090565b600067ffffffffffffffff8211156143d4576143d361481b565b5b602082029050602081019050919050565b600067ffffffffffffffff821115614400576143ff61481b565b5b602082029050602081019050919050565b600067ffffffffffffffff82111561442c5761442b61481b565b5b6144358261486c565b9050602081019050919050565b600067ffffffffffffffff82111561445d5761445c61481b565b5b6144668261486c565b9050602081019050919050565b6000819050602082019050919050565b60008190508160005260206000209050919050565b600081519050919050565b600081519050919050565b600081519050919050565b6000602082019050919050565b600082825260208201905092915050565b600082825260208201905092915050565b600082825260208201905092915050565b600081905092915050565b600061450f82614641565b915061451a83614641565b9250827fffffffffffffffffffffffffffffffffffffffffffffffffffffffffffffffff0382111561454f5761454e61478e565b5b828201905092915050565b600061456582614641565b915061457083614641565b9250826145805761457f6147bd565b5b828204905092915050565b600061459682614641565b91506145a183614641565b9250828210156145b4576145b361478e565b5b828203905092915050565b60006145ca82614621565b9050919050565b60008115159050919050565b6000819050919050565b60007fffffffff0000000000000000000000000000000000000000000000000000000082169050919050565b600061ffff82169050919050565b600073ffffffffffffffffffffffffffffffffffffffff82169050919050565b6000819050919050565b600063ffffffff82169050919050565b600067ffffffffffffffff82169050919050565b82818337600083830152505050565b60005b8381101561469c578082015181840152602081019050614681565b838111156146ab576000848401525b50505050565b600060028204905060018216806146c957607f821691505b602082108114156146dd576146dc6147ec565b5b50919050565b6146ec8261486c565b810181811067ffffffffffffffff8211171561470b5761470a61481b565b5b80604052505050565b600061471f82614641565b91507fffffffffffffffffffffffffffffffffffffffffffffffffffffffffffffffff8214156147525761475161478e565b5b600182019050919050565b600061476882614641565b915061477383614641565b925082614783576147826147bd565b5b828206905092915050565b7f4e487b7100000000000000000000000000000000000000000000000000000000600052601160045260246000fd5b7f4e487b7100000000000000000000000000000000000000000000000000000000600052601260045260246000fd5b7f4e487b7100000000000000000000000000000000000000000000000000000000600052602260045260246000fd5b7f4e487b7100000000000000000000000000000000000000000000000000000000600052604160045260246000fd5b600060033d11156148695760046000803e61486660005161487d565b90505b90565b6000601f19601f8301169050919050565b60008160e01c9050919050565b7f455243313135353a207472616e7366657220746f206e6f6e204552433131353560008201527f526563656976657220696d706c656d656e746572000000000000000000000000602082015250565b7f455243313135353a204552433131353552656365697665722072656a6563746560008201527f6420746f6b656e73000000000000000000000000000000000000000000000000602082015250565b7f5061757361626c653a206e6f7420706175736564000000000000000000000000600082015250565b7f455243313135353a2062616c616e636520717565727920666f7220746865207a60008201527f65726f2061646472657373000000000000000000000000000000000000000000602082015250565b7f4f776e61626c653a206e6577206f776e657220697320746865207a65726f206160008201527f6464726573730000000000000000000000000000000000000000000000000000602082015250565b7f455243313135353a2063616c6c6572206973206e6f74206f776e6572206e6f7260008201527f20617070726f7665640000000000000000000000000000000000000000000000602082015250565b7f5061757361626c653a2070617573656400000000000000000000000000000000600082015250565b7f455243313135353a207472616e7366657220746f20746865207a65726f20616460008201527f6472657373000000000000000000000000000000000000000000000000000000602082015250565b7f455243313135353a207472616e736665722063616c6c6572206973206e6f742060008201527f6f776e6572206e6f7220617070726f7665640000000000000000000000000000602082015250565b7f455243313135353a20696e73756666696369656e742062616c616e636520666f60008201527f72207472616e7366657200000000000000000000000000000000000000000000602082015250565b7f746f6b656e202300000000000000000000000000000000000000000000000000600082015250565b7f4f776e61626c653a2063616c6c6572206973206e6f7420746865206f776e6572600082015250565b7f455243313135353a206275726e20616d6f756e74206578636565647320746f7460008201527f616c537570706c79000000000000000000000000000000000000000000000000602082015250565b7f455243313135353a2073657474696e6720617070726f76616c2073746174757360008201527f20666f722073656c660000000000000000000000000000000000000000000000602082015250565b7f455243313135353a206163636f756e747320616e6420696473206c656e67746860008201527f206d69736d617463680000000000000000000000000000000000000000000000602082015250565b7f455243313135353a2069647320616e6420616d6f756e7473206c656e6774682060008201527f6d69736d61746368000000000000000000000000000000000000000000000000602082015250565b7f455243313135353a206d696e7420746f20746865207a65726f2061646472657360008201527f7300000000000000000000000000000000000000000000000000000000000000602082015250565b600060443d1015614d4157614dc4565b614d496143af565b60043d036004823e80513d602482011167ffffffffffffffff82111715614d71575050614dc4565b808201805167ffffffffffffffff811115614d8f5750505050614dc4565b80602083010160043d038501811115614dac575050505050614dc4565b614dbb826020018501866146e3565b82955050505050505b90565b614dd0816145bf565b8114614ddb57600080fd5b50565b614de7816145d1565b8114614df257600080fd5b50565b614dfe816145e7565b8114614e0957600080fd5b50565b614e1581614641565b8114614e2057600080fd5b5056fea2646970667358221220ddb1dbcbb4447672c07cb2e68f9393dff9e7766ad60fec3e5b94f1e2062aed4a64736f6c63430008040033",
  "linkReferences": {},
  "deployedLinkReferences": {}
}