{
  "_format": "hh-sol-artifact-1",
  "contractName": "BedroomNFT",
  "sourceName": "contracts/BedroomNFT.sol",
  "abi": [
    {
      "inputs": [
        {
          "internalType": "uint64",
          "name": "_subscriptionId",
          "type": "uint64"
        },
        {
          "internalType": "address",
          "name": "_vrfCoordinator",
          "type": "address"
        },
        {
          "internalType": "address",
          "name": "_link_token_contract",
          "type": "address"
        },
        {
          "internalType": "bytes32",
          "name": "_keyHash",
          "type": "bytes32"
        }
      ],
      "stateMutability": "nonpayable",
      "type": "constructor"
    },
    {
      "inputs": [
        {
          "internalType": "address",
          "name": "have",
          "type": "address"
        },
        {
          "internalType": "address",
          "name": "want",
          "type": "address"
        }
      ],
      "name": "OnlyCoordinatorCanFulfill",
      "type": "error"
    },
    {
      "anonymous": false,
      "inputs": [
        {
          "indexed": true,
          "internalType": "address",
          "name": "account",
          "type": "address"
        },
        {
          "indexed": true,
          "internalType": "address",
          "name": "operator",
          "type": "address"
        },
        {
          "indexed": false,
          "internalType": "bool",
          "name": "approved",
          "type": "bool"
        }
      ],
      "name": "ApprovalForAll",
      "type": "event"
    },
    {
      "anonymous": false,
      "inputs": [
        {
          "indexed": false,
          "internalType": "uint256",
          "name": "_tokenID",
          "type": "uint256"
        },
        {
          "indexed": false,
          "internalType": "string",
          "name": "_tokenURI",
          "type": "string"
        },
        {
          "components": [
            {
              "internalType": "string",
              "name": "name",
              "type": "string"
            },
            {
              "internalType": "uint256",
              "name": "nbUpgrades",
              "type": "uint256"
            },
            {
              "internalType": "uint256",
              "name": "lightIsolationScore",
              "type": "uint256"
            },
            {
              "internalType": "uint256",
              "name": "thermalIsolationScore",
              "type": "uint256"
            },
            {
              "internalType": "uint256",
              "name": "soundIsolationScore",
              "type": "uint256"
            },
            {
              "internalType": "uint256",
              "name": "temperatureScore",
              "type": "uint256"
            },
            {
              "internalType": "uint256",
              "name": "humidityScore",
              "type": "uint256"
            },
            {
              "internalType": "uint256",
              "name": "sleepAidMachinesScore",
              "type": "uint256"
            }
          ],
          "indexed": false,
          "internalType": "struct BedroomNFT.Bedroom",
          "name": "_bedroom",
          "type": "tuple"
        },
        {
          "components": [
            {
              "internalType": "uint256",
              "name": "nbUpgrades",
              "type": "uint256"
            },
            {
              "internalType": "uint256",
              "name": "sizeScore",
              "type": "uint256"
            },
            {
              "internalType": "uint256",
              "name": "heightScore",
              "type": "uint256"
            },
            {
              "internalType": "uint256",
              "name": "bedBaseScore",
              "type": "uint256"
            },
            {
              "internalType": "uint256",
              "name": "mattressTechnologyScore",
              "type": "uint256"
            },
            {
              "internalType": "uint256",
              "name": "mattressThicknessScore",
              "type": "uint256"
            },
            {
              "internalType": "uint256",
              "name": "mattressDeformationScore",
              "type": "uint256"
            },
            {
              "internalType": "uint256",
              "name": "thermalIsolationScore",
              "type": "uint256"
            },
            {
              "internalType": "uint256",
              "name": "hygrometricRegulationScore",
              "type": "uint256"
            },
            {
              "internalType": "uint256",
              "name": "comforterComfortabilityScore",
              "type": "uint256"
            },
            {
              "internalType": "uint256",
              "name": "pillowComfortabilityScore",
              "type": "uint256"
            }
          ],
          "indexed": false,
          "internalType": "struct BedroomNFT.Bed",
          "name": "_bed",
          "type": "tuple"
        },
        {
          "indexed": false,
          "internalType": "address",
          "name": "_owner",
          "type": "address"
        }
      ],
      "name": "MintingBedroomNFT",
      "type": "event"
    },
    {
      "anonymous": false,
      "inputs": [
        {
          "indexed": true,
          "internalType": "address",
          "name": "previousOwner",
          "type": "address"
        },
        {
          "indexed": true,
          "internalType": "address",
          "name": "newOwner",
          "type": "address"
        }
      ],
      "name": "OwnershipTransferred",
      "type": "event"
    },
    {
      "anonymous": false,
      "inputs": [
        {
          "indexed": true,
          "internalType": "address",
          "name": "operator",
          "type": "address"
        },
        {
          "indexed": true,
          "internalType": "address",
          "name": "from",
          "type": "address"
        },
        {
          "indexed": true,
          "internalType": "address",
          "name": "to",
          "type": "address"
        },
        {
          "indexed": false,
          "internalType": "uint256[]",
          "name": "ids",
          "type": "uint256[]"
        },
        {
          "indexed": false,
          "internalType": "uint256[]",
          "name": "values",
          "type": "uint256[]"
        }
      ],
      "name": "TransferBatch",
      "type": "event"
    },
    {
      "anonymous": false,
      "inputs": [
        {
          "indexed": true,
          "internalType": "address",
          "name": "operator",
          "type": "address"
        },
        {
          "indexed": true,
          "internalType": "address",
          "name": "from",
          "type": "address"
        },
        {
          "indexed": true,
          "internalType": "address",
          "name": "to",
          "type": "address"
        },
        {
          "indexed": false,
          "internalType": "uint256",
          "name": "id",
          "type": "uint256"
        },
        {
          "indexed": false,
          "internalType": "uint256",
          "name": "value",
          "type": "uint256"
        }
      ],
      "name": "TransferSingle",
      "type": "event"
    },
    {
      "anonymous": false,
      "inputs": [
        {
          "indexed": false,
          "internalType": "string",
          "name": "value",
          "type": "string"
        },
        {
          "indexed": true,
          "internalType": "uint256",
          "name": "id",
          "type": "uint256"
        }
      ],
      "name": "URI",
      "type": "event"
    },
    {
      "anonymous": false,
      "inputs": [
        {
          "indexed": false,
          "internalType": "uint256",
          "name": "_tokenID",
          "type": "uint256"
        },
        {
          "indexed": false,
          "internalType": "string",
          "name": "_newTokenURI",
          "type": "string"
        },
        {
          "components": [
            {
              "internalType": "string",
              "name": "name",
              "type": "string"
            },
            {
              "internalType": "uint256",
              "name": "nbUpgrades",
              "type": "uint256"
            },
            {
              "internalType": "uint256",
              "name": "lightIsolationScore",
              "type": "uint256"
            },
            {
              "internalType": "uint256",
              "name": "thermalIsolationScore",
              "type": "uint256"
            },
            {
              "internalType": "uint256",
              "name": "soundIsolationScore",
              "type": "uint256"
            },
            {
              "internalType": "uint256",
              "name": "temperatureScore",
              "type": "uint256"
            },
            {
              "internalType": "uint256",
              "name": "humidityScore",
              "type": "uint256"
            },
            {
              "internalType": "uint256",
              "name": "sleepAidMachinesScore",
              "type": "uint256"
            }
          ],
          "indexed": false,
          "internalType": "struct BedroomNFT.Bedroom",
          "name": "_newBedroom",
          "type": "tuple"
        },
        {
          "components": [
            {
              "internalType": "uint256",
              "name": "nbUpgrades",
              "type": "uint256"
            },
            {
              "internalType": "uint256",
              "name": "sizeScore",
              "type": "uint256"
            },
            {
              "internalType": "uint256",
              "name": "heightScore",
              "type": "uint256"
            },
            {
              "internalType": "uint256",
              "name": "bedBaseScore",
              "type": "uint256"
            },
            {
              "internalType": "uint256",
              "name": "mattressTechnologyScore",
              "type": "uint256"
            },
            {
              "internalType": "uint256",
              "name": "mattressThicknessScore",
              "type": "uint256"
            },
            {
              "internalType": "uint256",
              "name": "mattressDeformationScore",
              "type": "uint256"
            },
            {
              "internalType": "uint256",
              "name": "thermalIsolationScore",
              "type": "uint256"
            },
            {
              "internalType": "uint256",
              "name": "hygrometricRegulationScore",
              "type": "uint256"
            },
            {
              "internalType": "uint256",
              "name": "comforterComfortabilityScore",
              "type": "uint256"
            },
            {
              "internalType": "uint256",
              "name": "pillowComfortabilityScore",
              "type": "uint256"
            }
          ],
          "indexed": false,
          "internalType": "struct BedroomNFT.Bed",
          "name": "_newBed",
          "type": "tuple"
        },
        {
          "indexed": false,
          "internalType": "address",
          "name": "_owner",
          "type": "address"
        }
      ],
      "name": "UpgradingBedroomNFT",
      "type": "event"
    },
    {
      "inputs": [
        {
          "internalType": "address",
          "name": "account",
          "type": "address"
        },
        {
          "internalType": "uint256",
          "name": "id",
          "type": "uint256"
        }
      ],
      "name": "balanceOf",
      "outputs": [
        {
          "internalType": "uint256",
          "name": "",
          "type": "uint256"
        }
      ],
      "stateMutability": "view",
      "type": "function"
    },
    {
      "inputs": [
        {
          "internalType": "address[]",
          "name": "accounts",
          "type": "address[]"
        },
        {
          "internalType": "uint256[]",
          "name": "ids",
          "type": "uint256[]"
        }
      ],
      "name": "balanceOfBatch",
      "outputs": [
        {
          "internalType": "uint256[]",
          "name": "",
          "type": "uint256[]"
        }
      ],
      "stateMutability": "view",
      "type": "function"
    },
    {
      "inputs": [
        {
          "internalType": "uint256",
          "name": "id",
          "type": "uint256"
        }
      ],
      "name": "exists",
      "outputs": [
        {
          "internalType": "bool",
          "name": "",
          "type": "bool"
        }
      ],
      "stateMutability": "view",
      "type": "function"
    },
    {
      "inputs": [
        {
          "internalType": "address",
          "name": "account",
          "type": "address"
        },
        {
          "internalType": "address",
          "name": "operator",
          "type": "address"
        }
      ],
      "name": "isApprovedForAll",
      "outputs": [
        {
          "internalType": "bool",
          "name": "",
          "type": "bool"
        }
      ],
      "stateMutability": "view",
      "type": "function"
    },
    {
      "inputs": [
        {
          "internalType": "address",
          "name": "account",
          "type": "address"
        },
        {
          "internalType": "uint256",
          "name": "id",
          "type": "uint256"
        },
        {
          "internalType": "uint256",
          "name": "amount",
          "type": "uint256"
        },
        {
          "internalType": "bytes",
          "name": "data",
          "type": "bytes"
        }
      ],
      "name": "mint",
      "outputs": [],
      "stateMutability": "nonpayable",
      "type": "function"
    },
    {
      "inputs": [
        {
          "internalType": "address",
          "name": "to",
          "type": "address"
        },
        {
          "internalType": "uint256[]",
          "name": "ids",
          "type": "uint256[]"
        },
        {
          "internalType": "uint256[]",
          "name": "amounts",
          "type": "uint256[]"
        },
        {
          "internalType": "bytes",
          "name": "data",
          "type": "bytes"
        }
      ],
      "name": "mintBatch",
      "outputs": [],
      "stateMutability": "nonpayable",
      "type": "function"
    },
    {
      "inputs": [
        {
          "internalType": "uint256",
          "name": "_designId",
          "type": "uint256"
        },
        {
          "internalType": "address",
          "name": "_owner",
          "type": "address"
        }
      ],
      "name": "newRandomBedroom",
      "outputs": [],
      "stateMutability": "nonpayable",
      "type": "function"
    },
    {
      "inputs": [],
      "name": "owner",
      "outputs": [
        {
          "internalType": "address",
          "name": "",
          "type": "address"
        }
      ],
      "stateMutability": "view",
      "type": "function"
    },
    {
      "inputs": [
        {
          "internalType": "uint256",
          "name": "requestId",
          "type": "uint256"
        },
        {
          "internalType": "uint256[]",
          "name": "randomWords",
          "type": "uint256[]"
        }
      ],
      "name": "rawFulfillRandomWords",
      "outputs": [],
      "stateMutability": "nonpayable",
      "type": "function"
    },
    {
      "inputs": [],
      "name": "renounceOwnership",
      "outputs": [],
      "stateMutability": "nonpayable",
      "type": "function"
    },
    {
      "inputs": [
        {
          "internalType": "address",
          "name": "from",
          "type": "address"
        },
        {
          "internalType": "address",
          "name": "to",
          "type": "address"
        },
        {
          "internalType": "uint256[]",
          "name": "ids",
          "type": "uint256[]"
        },
        {
          "internalType": "uint256[]",
          "name": "amounts",
          "type": "uint256[]"
        },
        {
          "internalType": "bytes",
          "name": "data",
          "type": "bytes"
        }
      ],
      "name": "safeBatchTransferFrom",
      "outputs": [],
      "stateMutability": "nonpayable",
      "type": "function"
    },
    {
      "inputs": [
        {
          "internalType": "address",
          "name": "from",
          "type": "address"
        },
        {
          "internalType": "address",
          "name": "to",
          "type": "address"
        },
        {
          "internalType": "uint256",
          "name": "id",
          "type": "uint256"
        },
        {
          "internalType": "uint256",
          "name": "amount",
          "type": "uint256"
        },
        {
          "internalType": "bytes",
          "name": "data",
          "type": "bytes"
        }
      ],
      "name": "safeTransferFrom",
      "outputs": [],
      "stateMutability": "nonpayable",
      "type": "function"
    },
    {
      "inputs": [
        {
          "internalType": "address",
          "name": "operator",
          "type": "address"
        },
        {
          "internalType": "bool",
          "name": "approved",
          "type": "bool"
        }
      ],
      "name": "setApprovalForAll",
      "outputs": [],
      "stateMutability": "nonpayable",
      "type": "function"
    },
    {
      "inputs": [
        {
          "internalType": "string",
          "name": "_baseURI",
          "type": "string"
        }
      ],
      "name": "setBaseURI",
      "outputs": [],
      "stateMutability": "nonpayable",
      "type": "function"
    },
    {
      "inputs": [
        {
          "internalType": "uint256",
          "name": "_indexAttribute",
          "type": "uint256"
        },
        {
          "internalType": "uint256",
          "name": "_initialScoreMax",
          "type": "uint256"
        },
        {
          "internalType": "uint256",
          "name": "_upgradeIncreases",
          "type": "uint256"
        }
      ],
      "name": "setThresholds",
      "outputs": [],
      "stateMutability": "nonpayable",
      "type": "function"
    },
    {
      "inputs": [
        {
          "internalType": "uint256",
          "name": "_tokenId",
          "type": "uint256"
        },
        {
          "internalType": "string",
          "name": "_tokenURI",
          "type": "string"
        }
      ],
      "name": "setTokenURI",
      "outputs": [],
      "stateMutability": "nonpayable",
      "type": "function"
    },
    {
      "inputs": [
        {
          "internalType": "bytes4",
          "name": "interfaceId",
          "type": "bytes4"
        }
      ],
      "name": "supportsInterface",
      "outputs": [
        {
          "internalType": "bool",
          "name": "",
          "type": "bool"
        }
      ],
      "stateMutability": "view",
      "type": "function"
    },
    {
      "inputs": [
        {
          "internalType": "uint256",
          "name": "",
          "type": "uint256"
        }
      ],
      "name": "thresholds",
      "outputs": [
        {
          "internalType": "uint256",
          "name": "initialScoreMax",
          "type": "uint256"
        },
        {
          "internalType": "uint256",
          "name": "upgradeIncreases",
          "type": "uint256"
        },
        {
          "internalType": "uint256",
          "name": "levelToUnlock",
          "type": "uint256"
        }
      ],
      "stateMutability": "view",
      "type": "function"
    },
    {
      "inputs": [],
      "name": "tokenId",
      "outputs": [
        {
          "internalType": "uint256",
          "name": "",
          "type": "uint256"
        }
      ],
      "stateMutability": "view",
      "type": "function"
    },
    {
      "inputs": [
        {
          "internalType": "uint256",
          "name": "",
          "type": "uint256"
        }
      ],
      "name": "tokenIdToBed",
      "outputs": [
        {
          "internalType": "uint256",
          "name": "nbUpgrades",
          "type": "uint256"
        },
        {
          "internalType": "uint256",
          "name": "sizeScore",
          "type": "uint256"
        },
        {
          "internalType": "uint256",
          "name": "heightScore",
          "type": "uint256"
        },
        {
          "internalType": "uint256",
          "name": "bedBaseScore",
          "type": "uint256"
        },
        {
          "internalType": "uint256",
          "name": "mattressTechnologyScore",
          "type": "uint256"
        },
        {
          "internalType": "uint256",
          "name": "mattressThicknessScore",
          "type": "uint256"
        },
        {
          "internalType": "uint256",
          "name": "mattressDeformationScore",
          "type": "uint256"
        },
        {
          "internalType": "uint256",
          "name": "thermalIsolationScore",
          "type": "uint256"
        },
        {
          "internalType": "uint256",
          "name": "hygrometricRegulationScore",
          "type": "uint256"
        },
        {
          "internalType": "uint256",
          "name": "comforterComfortabilityScore",
          "type": "uint256"
        },
        {
          "internalType": "uint256",
          "name": "pillowComfortabilityScore",
          "type": "uint256"
        }
      ],
      "stateMutability": "view",
      "type": "function"
    },
    {
      "inputs": [
        {
          "internalType": "uint256",
          "name": "",
          "type": "uint256"
        }
      ],
      "name": "tokenIdToBedroom",
      "outputs": [
        {
          "internalType": "string",
          "name": "name",
          "type": "string"
        },
        {
          "internalType": "uint256",
          "name": "nbUpgrades",
          "type": "uint256"
        },
        {
          "internalType": "uint256",
          "name": "lightIsolationScore",
          "type": "uint256"
        },
        {
          "internalType": "uint256",
          "name": "thermalIsolationScore",
          "type": "uint256"
        },
        {
          "internalType": "uint256",
          "name": "soundIsolationScore",
          "type": "uint256"
        },
        {
          "internalType": "uint256",
          "name": "temperatureScore",
          "type": "uint256"
        },
        {
          "internalType": "uint256",
          "name": "humidityScore",
          "type": "uint256"
        },
        {
          "internalType": "uint256",
          "name": "sleepAidMachinesScore",
          "type": "uint256"
        }
      ],
      "stateMutability": "view",
      "type": "function"
    },
    {
      "inputs": [
        {
          "internalType": "uint256",
          "name": "",
          "type": "uint256"
        }
      ],
      "name": "tokenIdToInfos",
      "outputs": [
        {
          "internalType": "address",
          "name": "owner",
          "type": "address"
        },
        {
          "internalType": "uint256",
          "name": "price",
          "type": "uint256"
        },
        {
          "internalType": "uint256",
          "name": "designId",
          "type": "uint256"
        }
      ],
      "stateMutability": "view",
      "type": "function"
    },
    {
      "inputs": [
        {
          "internalType": "uint256",
          "name": "id",
          "type": "uint256"
        }
      ],
      "name": "totalSupply",
      "outputs": [
        {
          "internalType": "uint256",
          "name": "",
          "type": "uint256"
        }
      ],
      "stateMutability": "view",
      "type": "function"
    },
    {
      "inputs": [
        {
          "internalType": "address",
          "name": "newOwner",
          "type": "address"
        }
      ],
      "name": "transferOwnership",
      "outputs": [],
      "stateMutability": "nonpayable",
      "type": "function"
    },
    {
      "inputs": [
        {
          "internalType": "uint256",
          "name": "_tokenId",
          "type": "uint256"
        }
      ],
      "name": "uri",
      "outputs": [
        {
          "internalType": "string",
          "name": "",
          "type": "string"
        }
      ],
      "stateMutability": "view",
      "type": "function"
    }
  ],
  "bytecode": "0x61018060405260405180602001604052806000815250600590805190602001906200002c929190620002b6565b503480156200003a57600080fd5b50604051620053d7380380620053d78339818101604052810190620000609190620003ab565b60405180602001604052806000815250838073ffffffffffffffffffffffffffffffffffffffff1660808173ffffffffffffffffffffffffffffffffffffffff1660601b8152505050620000ba81620001cc60201b60201c565b50620000db620000cf620001e860201b60201c565b620001f060201b60201c565b8273ffffffffffffffffffffffffffffffffffffffff1660a08173ffffffffffffffffffffffffffffffffffffffff1660601b815250508173ffffffffffffffffffffffffffffffffffffffff1660c08173ffffffffffffffffffffffffffffffffffffffff1660601b815250508367ffffffffffffffff1660e08167ffffffffffffffff1660c01b81525050806101008181525050620186a063ffffffff166101208163ffffffff1660e01b81525050600361ffff166101408161ffff1660f01b81525050600163ffffffff166101608163ffffffff1660e01b815250506000600781905550505050506200051c565b8060029080519060200190620001e4929190620002b6565b5050565b600033905090565b6000600360009054906101000a900473ffffffffffffffffffffffffffffffffffffffff16905081600360006101000a81548173ffffffffffffffffffffffffffffffffffffffff021916908373ffffffffffffffffffffffffffffffffffffffff1602179055508173ffffffffffffffffffffffffffffffffffffffff168173ffffffffffffffffffffffffffffffffffffffff167f8be0079c531659141344cd1fd0a4f28419497f9722a3daafe3b4186f6b6457e060405160405180910390a35050565b828054620002c49062000469565b90600052602060002090601f016020900481019282620002e8576000855562000334565b82601f106200030357805160ff191683800117855562000334565b8280016001018555821562000334579182015b828111156200033357825182559160200191906001019062000316565b5b50905062000343919062000347565b5090565b5b808211156200036257600081600090555060010162000348565b5090565b6000815190506200037781620004ce565b92915050565b6000815190506200038e81620004e8565b92915050565b600081519050620003a58162000502565b92915050565b60008060008060808587031215620003c257600080fd5b6000620003d28782880162000394565b9450506020620003e58782880162000366565b9350506040620003f88782880162000366565b92505060606200040b878288016200037d565b91505092959194509250565b6000620004248262000435565b9050919050565b6000819050919050565b600073ffffffffffffffffffffffffffffffffffffffff82169050919050565b600067ffffffffffffffff82169050919050565b600060028204905060018216806200048257607f821691505b602082108114156200049957620004986200049f565b5b50919050565b7f4e487b7100000000000000000000000000000000000000000000000000000000600052602260045260246000fd5b620004d98162000417565b8114620004e557600080fd5b50565b620004f3816200042b565b8114620004ff57600080fd5b50565b6200050d8162000455565b81146200051957600080fd5b50565b60805160601c60a05160601c60c05160601c60e05160c01c610100516101205160e01c6101405160f01c6101605160e01c614e3c6200059b6000396000611119015260006110d7015260006110f801526000611095015260006110b601526000505060006110590152600081816107f301526108470152614e3c6000f3fe608060405234801561001057600080fd5b50600436106101725760003560e01c8063637344d4116100de578063a22cb46511610097578063dacae6ce11610071578063dacae6ce14610492578063e985e9c5146104ae578063f242432a146104de578063f2fde38b146104fa57610172565b8063a22cb46514610414578063b6c2261114610430578063bd85b0391461046257610172565b8063637344d4146103435780636bceb74f1461037d578063715018a6146103b4578063731133e9146103be5780638b67ce4e146103da5780638da5cb5b146103f657610172565b80631fe543e3116101305780631fe543e31461025d578063270650fa146102795780632eb2c2d6146102ab5780634e1273f4146102c75780634f558e79146102f757806355f804b31461032757610172565b8062fdd58e1461017757806301ffc9a7146101a75780630e89341c146101d7578063162094c41461020757806317d70f7c146102235780631f7fdffa14610241575b600080fd5b610191600480360381019061018c919061369a565b610516565b60405161019e91906142a3565b60405180910390f35b6101c160048036038101906101bc91906137bd565b6105df565b6040516101ce9190613fce565b60405180910390f35b6101f160048036038101906101ec9190613850565b6106c1565b6040516101fe919061403c565b60405180910390f35b610221600480360381019061021c9190613932565b6106d3565b005b61022b61075d565b60405161023891906142a3565b60405180910390f35b61025b600480360381019061025691906135b3565b610763565b005b610277600480360381019061027291906138de565b6107f1565b005b610293600480360381019061028e9190613850565b6108b1565b6040516102a293929190613f3e565b60405180910390f35b6102c560048036038101906102c09190613465565b6108fb565b005b6102e160048036038101906102dc9190613751565b61099c565b6040516102ee9190613f75565b60405180910390f35b610311600480360381019061030c9190613850565b610b4d565b60405161031e9190613fce565b60405180910390f35b610341600480360381019061033c919061380f565b610b61565b005b61035d60048036038101906103589190613850565b610be9565b6040516103749b9a9998979695949392919061431e565b60405180910390f35b61039760048036038101906103929190613850565b610c43565b6040516103ab98979695949392919061405e565b60405180910390f35b6103bc610d13565b005b6103d860048036038101906103d391906136d6565b610d9b565b005b6103f460048036038101906103ef9190613986565b610e29565b005b6103fe610ee0565b60405161040b9190613e38565b60405180910390f35b61042e6004803603810190610429919061365e565b610f0a565b005b61044a60048036038101906104459190613850565b610f20565b604051610459939291906142e7565b60405180910390f35b61047c60048036038101906104779190613850565b610f4a565b60405161048991906142a3565b60405180910390f35b6104ac60048036038101906104a791906138a2565b610f67565b005b6104c860048036038101906104c39190613429565b6111af565b6040516104d59190613fce565b60405180910390f35b6104f860048036038101906104f39190613524565b611243565b005b610514600480360381019061050f9190613400565b6112e4565b005b60008073ffffffffffffffffffffffffffffffffffffffff168373ffffffffffffffffffffffffffffffffffffffff161415610587576040517f08c379a000000000000000000000000000000000000000000000000000000000815260040161057e90614123565b60405180910390fd5b60008083815260200190815260200160002060008473ffffffffffffffffffffffffffffffffffffffff1673ffffffffffffffffffffffffffffffffffffffff16815260200190815260200160002054905092915050565b60007fd9b67a26000000000000000000000000000000000000000000000000000000007bffffffffffffffffffffffffffffffffffffffffffffffffffffffff1916827bffffffffffffffffffffffffffffffffffffffffffffffffffffffff191614806106aa57507f0e89341c000000000000000000000000000000000000000000000000000000007bffffffffffffffffffffffffffffffffffffffffffffffffffffffff1916827bffffffffffffffffffffffffffffffffffffffffffffffffffffffff1916145b806106ba57506106b9826113dc565b5b9050919050565b60606106cc82611446565b9050919050565b6106db61152b565b73ffffffffffffffffffffffffffffffffffffffff166106f9610ee0565b73ffffffffffffffffffffffffffffffffffffffff161461074f576040517f08c379a0000000000000000000000000000000000000000000000000000000008152600401610746906141e3565b60405180910390fd5b6107598282611533565b5050565b60075481565b61076b61152b565b73ffffffffffffffffffffffffffffffffffffffff16610789610ee0565b73ffffffffffffffffffffffffffffffffffffffff16146107df576040517f08c379a00000000000000000000000000000000000000000000000000000000081526004016107d6906141e3565b60405180910390fd5b6107eb8484848461159f565b50505050565b7f000000000000000000000000000000000000000000000000000000000000000073ffffffffffffffffffffffffffffffffffffffff163373ffffffffffffffffffffffffffffffffffffffff16146108a357337f00000000000000000000000000000000000000000000000000000000000000006040517f1cf993f400000000000000000000000000000000000000000000000000000000815260040161089a929190613e53565b60405180910390fd5b6108ad8282611818565b5050565b60086020528060005260406000206000915090508060000160009054906101000a900473ffffffffffffffffffffffffffffffffffffffff16908060010154908060020154905083565b61090361152b565b73ffffffffffffffffffffffffffffffffffffffff168573ffffffffffffffffffffffffffffffffffffffff16148061094957506109488561094361152b565b6111af565b5b610988576040517f08c379a000000000000000000000000000000000000000000000000000000000815260040161097f906141a3565b60405180910390fd5b610995858585858561190c565b5050505050565b606081518351146109e2576040517f08c379a00000000000000000000000000000000000000000000000000000000081526004016109d990614243565b60405180910390fd5b6000835167ffffffffffffffff811115610a25577f4e487b7100000000000000000000000000000000000000000000000000000000600052604160045260246000fd5b604051908082528060200260200182016040528015610a535781602001602082028036833780820191505090505b50905060005b8451811015610b4257610aec858281518110610a9e577f4e487b7100000000000000000000000000000000000000000000000000000000600052603260045260246000fd5b6020026020010151858381518110610adf577f4e487b7100000000000000000000000000000000000000000000000000000000600052603260045260246000fd5b6020026020010151610516565b828281518110610b25577f4e487b7100000000000000000000000000000000000000000000000000000000600052603260045260246000fd5b60200260200101818152505080610b3b90614749565b9050610a59565b508091505092915050565b600080610b5983610f4a565b119050919050565b610b6961152b565b73ffffffffffffffffffffffffffffffffffffffff16610b87610ee0565b73ffffffffffffffffffffffffffffffffffffffff1614610bdd576040517f08c379a0000000000000000000000000000000000000000000000000000000008152600401610bd4906141e3565b60405180910390fd5b610be681611c7a565b50565b600a60205280600052604060002060009150905080600001549080600101549080600201549080600301549080600401549080600501549080600601549080600701549080600801549080600901549080600a015490508b565b6009602052806000526040600020600091509050806000018054610c66906146e6565b80601f0160208091040260200160405190810160405280929190818152602001828054610c92906146e6565b8015610cdf5780601f10610cb457610100808354040283529160200191610cdf565b820191906000526020600020905b815481529060010190602001808311610cc257829003601f168201915b5050505050908060010154908060020154908060030154908060040154908060050154908060060154908060070154905088565b610d1b61152b565b73ffffffffffffffffffffffffffffffffffffffff16610d39610ee0565b73ffffffffffffffffffffffffffffffffffffffff1614610d8f576040517f08c379a0000000000000000000000000000000000000000000000000000000008152600401610d86906141e3565b60405180910390fd5b610d996000611c94565b565b610da361152b565b73ffffffffffffffffffffffffffffffffffffffff16610dc1610ee0565b73ffffffffffffffffffffffffffffffffffffffff1614610e17576040517f08c379a0000000000000000000000000000000000000000000000000000000008152600401610e0e906141e3565b60405180910390fd5b610e2384848484611d5a565b50505050565b610e3161152b565b73ffffffffffffffffffffffffffffffffffffffff16610e4f610ee0565b73ffffffffffffffffffffffffffffffffffffffff1614610ea5576040517f08c379a0000000000000000000000000000000000000000000000000000000008152600401610e9c906141e3565b60405180910390fd5b81600b60008581526020019081526020016000206000018190555080600b600085815260200190815260200160002060010181905550505050565b6000600360009054906101000a900473ffffffffffffffffffffffffffffffffffffffff16905090565b610f1c610f1561152b565b8383611f0b565b5050565b600b6020528060005260406000206000915090508060000154908060010154908060020154905083565b600060046000838152602001908152602001600020549050919050565b610f6f61152b565b73ffffffffffffffffffffffffffffffffffffffff16610f8d610ee0565b73ffffffffffffffffffffffffffffffffffffffff1614610fe3576040517f08c379a0000000000000000000000000000000000000000000000000000000008152600401610fda906141e3565b60405180910390fd5b8060086000600754815260200190815260200160002060000160006101000a81548173ffffffffffffffffffffffffffffffffffffffff021916908373ffffffffffffffffffffffffffffffffffffffff16021790555081600860006007548152602001908152602001600020600201819055507f000000000000000000000000000000000000000000000000000000000000000073ffffffffffffffffffffffffffffffffffffffff16635d3b1d307f00000000000000000000000000000000000000000000000000000000000000007f00000000000000000000000000000000000000000000000000000000000000007f00000000000000000000000000000000000000000000000000000000000000007f00000000000000000000000000000000000000000000000000000000000000007f00000000000000000000000000000000000000000000000000000000000000006040518663ffffffff1660e01b8152600401611158959493929190613fe9565b602060405180830381600087803b15801561117257600080fd5b505af1158015611186573d6000803e3d6000fd5b505050506040513d601f19601f820116820180604052508101906111aa9190613879565b505050565b6000600160008473ffffffffffffffffffffffffffffffffffffffff1673ffffffffffffffffffffffffffffffffffffffff16815260200190815260200160002060008373ffffffffffffffffffffffffffffffffffffffff1673ffffffffffffffffffffffffffffffffffffffff16815260200190815260200160002060009054906101000a900460ff16905092915050565b61124b61152b565b73ffffffffffffffffffffffffffffffffffffffff168573ffffffffffffffffffffffffffffffffffffffff16148061129157506112908561128b61152b565b6111af565b5b6112d0576040517f08c379a00000000000000000000000000000000000000000000000000000000081526004016112c790614163565b60405180910390fd5b6112dd8585858585612078565b5050505050565b6112ec61152b565b73ffffffffffffffffffffffffffffffffffffffff1661130a610ee0565b73ffffffffffffffffffffffffffffffffffffffff1614611360576040517f08c379a0000000000000000000000000000000000000000000000000000000008152600401611357906141e3565b60405180910390fd5b600073ffffffffffffffffffffffffffffffffffffffff168173ffffffffffffffffffffffffffffffffffffffff1614156113d0576040517f08c379a00000000000000000000000000000000000000000000000000000000081526004016113c790614143565b60405180910390fd5b6113d981611c94565b50565b60007f01ffc9a7000000000000000000000000000000000000000000000000000000007bffffffffffffffffffffffffffffffffffffffffffffffffffffffff1916827bffffffffffffffffffffffffffffffffffffffffffffffffffffffff1916149050919050565b60606000600660008481526020019081526020016000208054611468906146e6565b80601f0160208091040260200160405190810160405280929190818152602001828054611494906146e6565b80156114e15780601f106114b6576101008083540402835291602001916114e1565b820191906000526020600020905b8154815290600101906020018083116114c457829003601f168201915b5050505050905060008151116114ff576114fa83612314565b611523565b600581604051602001611513929190613df2565b6040516020818303038152906040525b915050919050565b600033905090565b8060066000848152602001908152602001600020908051906020019061155a9291906130e3565b50817f6bb7ff708619ba0610cba295a58592e0451dee2622938c8755667688daf3529b611586846106c1565b604051611593919061403c565b60405180910390a25050565b600073ffffffffffffffffffffffffffffffffffffffff168473ffffffffffffffffffffffffffffffffffffffff16141561160f576040517f08c379a000000000000000000000000000000000000000000000000000000000815260040161160690614283565b60405180910390fd5b8151835114611653576040517f08c379a000000000000000000000000000000000000000000000000000000000815260040161164a90614263565b60405180910390fd5b600061165d61152b565b905061166e816000878787876123a8565b60005b8451811015611773578381815181106116b3577f4e487b7100000000000000000000000000000000000000000000000000000000600052603260045260246000fd5b60200260200101516000808784815181106116f7577f4e487b7100000000000000000000000000000000000000000000000000000000600052603260045260246000fd5b6020026020010151815260200190815260200160002060008873ffffffffffffffffffffffffffffffffffffffff1673ffffffffffffffffffffffffffffffffffffffff16815260200190815260200160002060008282546117599190614539565b92505081905550808061176b90614749565b915050611671565b508473ffffffffffffffffffffffffffffffffffffffff16600073ffffffffffffffffffffffffffffffffffffffff168273ffffffffffffffffffffffffffffffffffffffff167f4a39dc06d4c0dbc64b70af90fd698a233a518aa5d07e595d983b8c0526c8f7fb87876040516117eb929190613f97565b60405180910390a4611802816000878787876123be565b611811816000878787876123c6565b5050505050565b6000600754905061186a8260008151811061185c577f4e487b7100000000000000000000000000000000000000000000000000000000600052603260045260246000fd5b6020026020010151826125ad565b6118b5826000815181106118a7577f4e487b7100000000000000000000000000000000000000000000000000000000600052603260045260246000fd5b60200260200101518261278e565b6119076008600083815260200190815260200160002060000160009054906101000a900473ffffffffffffffffffffffffffffffffffffffff1682600160405180602001604052806000815250611d5a565b505050565b8151835114611950576040517f08c379a000000000000000000000000000000000000000000000000000000000815260040161194790614263565b60405180910390fd5b600073ffffffffffffffffffffffffffffffffffffffff168473ffffffffffffffffffffffffffffffffffffffff1614156119c0576040517f08c379a00000000000000000000000000000000000000000000000000000000081526004016119b790614183565b60405180910390fd5b60006119ca61152b565b90506119da8187878787876123a8565b60005b8451811015611bd7576000858281518110611a21577f4e487b7100000000000000000000000000000000000000000000000000000000600052603260045260246000fd5b602002602001015190506000858381518110611a66577f4e487b7100000000000000000000000000000000000000000000000000000000600052603260045260246000fd5b60200260200101519050600080600084815260200190815260200160002060008b73ffffffffffffffffffffffffffffffffffffffff1673ffffffffffffffffffffffffffffffffffffffff16815260200190815260200160002054905081811015611b07576040517f08c379a0000000000000000000000000000000000000000000000000000000008152600401611afe906141c3565b60405180910390fd5b81810360008085815260200190815260200160002060008c73ffffffffffffffffffffffffffffffffffffffff1673ffffffffffffffffffffffffffffffffffffffff168152602001908152602001600020819055508160008085815260200190815260200160002060008b73ffffffffffffffffffffffffffffffffffffffff1673ffffffffffffffffffffffffffffffffffffffff1681526020019081526020016000206000828254611bbc9190614539565b9250508190555050505080611bd090614749565b90506119dd565b508473ffffffffffffffffffffffffffffffffffffffff168673ffffffffffffffffffffffffffffffffffffffff168273ffffffffffffffffffffffffffffffffffffffff167f4a39dc06d4c0dbc64b70af90fd698a233a518aa5d07e595d983b8c0526c8f7fb8787604051611c4e929190613f97565b60405180910390a4611c648187878787876123be565b611c728187878787876123c6565b505050505050565b8060059080519060200190611c909291906130e3565b5050565b6000600360009054906101000a900473ffffffffffffffffffffffffffffffffffffffff16905081600360006101000a81548173ffffffffffffffffffffffffffffffffffffffff021916908373ffffffffffffffffffffffffffffffffffffffff1602179055508173ffffffffffffffffffffffffffffffffffffffff168173ffffffffffffffffffffffffffffffffffffffff167f8be0079c531659141344cd1fd0a4f28419497f9722a3daafe3b4186f6b6457e060405160405180910390a35050565b600073ffffffffffffffffffffffffffffffffffffffff168473ffffffffffffffffffffffffffffffffffffffff161415611dca576040517f08c379a0000000000000000000000000000000000000000000000000000000008152600401611dc190614283565b60405180910390fd5b6000611dd461152b565b90506000611de1856129f4565b90506000611dee856129f4565b9050611dff836000898585896123a8565b8460008088815260200190815260200160002060008973ffffffffffffffffffffffffffffffffffffffff1673ffffffffffffffffffffffffffffffffffffffff1681526020019081526020016000206000828254611e5e9190614539565b925050819055508673ffffffffffffffffffffffffffffffffffffffff16600073ffffffffffffffffffffffffffffffffffffffff168473ffffffffffffffffffffffffffffffffffffffff167fc3d58168c5ae7397731d063d5bbf3d657854427343f4c083240f7aacaa2d0f628989604051611edc9291906142be565b60405180910390a4611ef3836000898585896123be565b611f0283600089898989612aba565b50505050505050565b8173ffffffffffffffffffffffffffffffffffffffff168373ffffffffffffffffffffffffffffffffffffffff161415611f7a576040517f08c379a0000000000000000000000000000000000000000000000000000000008152600401611f7190614223565b60405180910390fd5b80600160008573ffffffffffffffffffffffffffffffffffffffff1673ffffffffffffffffffffffffffffffffffffffff16815260200190815260200160002060008473ffffffffffffffffffffffffffffffffffffffff1673ffffffffffffffffffffffffffffffffffffffff16815260200190815260200160002060006101000a81548160ff0219169083151502179055508173ffffffffffffffffffffffffffffffffffffffff168373ffffffffffffffffffffffffffffffffffffffff167f17307eab39ab6107e8899845ad3d59bd9653f200f220920489ca2b5937696c318360405161206b9190613fce565b60405180910390a3505050565b600073ffffffffffffffffffffffffffffffffffffffff168473ffffffffffffffffffffffffffffffffffffffff1614156120e8576040517f08c379a00000000000000000000000000000000000000000000000000000000081526004016120df90614183565b60405180910390fd5b60006120f261152b565b905060006120ff856129f4565b9050600061210c856129f4565b905061211c8389898585896123a8565b600080600088815260200190815260200160002060008a73ffffffffffffffffffffffffffffffffffffffff1673ffffffffffffffffffffffffffffffffffffffff168152602001908152602001600020549050858110156121b3576040517f08c379a00000000000000000000000000000000000000000000000000000000081526004016121aa906141c3565b60405180910390fd5b85810360008089815260200190815260200160002060008b73ffffffffffffffffffffffffffffffffffffffff1673ffffffffffffffffffffffffffffffffffffffff168152602001908152602001600020819055508560008089815260200190815260200160002060008a73ffffffffffffffffffffffffffffffffffffffff1673ffffffffffffffffffffffffffffffffffffffff16815260200190815260200160002060008282546122689190614539565b925050819055508773ffffffffffffffffffffffffffffffffffffffff168973ffffffffffffffffffffffffffffffffffffffff168573ffffffffffffffffffffffffffffffffffffffff167fc3d58168c5ae7397731d063d5bbf3d657854427343f4c083240f7aacaa2d0f628a8a6040516122e59291906142be565b60405180910390a46122fb848a8a86868a6123be565b612309848a8a8a8a8a612aba565b505050505050505050565b606060028054612323906146e6565b80601f016020809104026020016040519081016040528092919081815260200182805461234f906146e6565b801561239c5780601f106123715761010080835404028352916020019161239c565b820191906000526020600020905b81548152906001019060200180831161237f57829003601f168201915b50505050509050919050565b6123b6868686868686612ca1565b505050505050565b505050505050565b6123e58473ffffffffffffffffffffffffffffffffffffffff16612f0b565b156125a5578373ffffffffffffffffffffffffffffffffffffffff1663bc197c8187878686866040518663ffffffff1660e01b815260040161242b959493929190613e7c565b602060405180830381600087803b15801561244557600080fd5b505af192505050801561247657506040513d601f19601f8201168201806040525081019061247391906137e6565b60015b61251c5761248261487f565b806308c379a014156124df5750612497614d14565b806124a257506124e1565b806040517f08c379a00000000000000000000000000000000000000000000000000000000081526004016124d6919061403c565b60405180910390fd5b505b6040517f08c379a0000000000000000000000000000000000000000000000000000000008152600401612513906140e3565b60405180910390fd5b63bc197c8160e01b7bffffffffffffffffffffffffffffffffffffffffffffffffffffffff1916817bffffffffffffffffffffffffffffffffffffffffffffffffffffffff1916146125a3576040517f08c379a000000000000000000000000000000000000000000000000000000000815260040161259a90614103565b60405180910390fd5b505b505050505050565b60006125b882612f2e565b6040516020016125c89190613e16565b6040516020818303038152906040529050806009600084815260200190815260200160002060000190805190602001906126039291906130e3565b50600b600080815260200190815260200160002060000154836126269190614792565b6009600084815260200190815260200160002060020181905550600b60006001815260200190815260200160002060000154836126639190614792565b6009600084815260200190815260200160002060030181905550600b60006002815260200190815260200160002060000154836126a09190614792565b6009600084815260200190815260200160002060040181905550600b60006003815260200190815260200160002060000154836126dd9190614792565b6009600084815260200190815260200160002060050181905550600b600060048152602001908152602001600020600001548361271a9190614792565b6009600084815260200190815260200160002060060181905550600b60006005815260200190815260200160002060000154836127579190614792565b60096000848152602001908152602001600020600701819055506007600081548092919061278490614749565b9190505550505050565b600b60006006815260200190815260200160002060000154826127b19190614792565b600a600083815260200190815260200160002060010181905550600b60006007815260200190815260200160002060000154826127ee9190614792565b600a600083815260200190815260200160002060020181905550600b600060088152602001908152602001600020600001548261282b9190614792565b600a600083815260200190815260200160002060030181905550600b60006009815260200190815260200160002060000154826128689190614792565b600a600083815260200190815260200160002060040181905550600b6000600a815260200190815260200160002060000154826128a59190614792565b600a600083815260200190815260200160002060050181905550600b6000600b815260200190815260200160002060000154826128e29190614792565b600a600083815260200190815260200160002060060181905550600b6000600c8152602001908152602001600020600001548261291f9190614792565b600a600083815260200190815260200160002060070181905550600b6000600d8152602001908152602001600020600001548261295c9190614792565b600a600083815260200190815260200160002060080181905550600b6000600e815260200190815260200160002060000154826129999190614792565b600a600083815260200190815260200160002060090181905550600b6000600f815260200190815260200160002060000154826129d69190614792565b600a6000838152602001908152602001600020600a01819055505050565b60606000600167ffffffffffffffff811115612a39577f4e487b7100000000000000000000000000000000000000000000000000000000600052604160045260246000fd5b604051908082528060200260200182016040528015612a675781602001602082028036833780820191505090505b5090508281600081518110612aa5577f4e487b7100000000000000000000000000000000000000000000000000000000600052603260045260246000fd5b60200260200101818152505080915050919050565b612ad98473ffffffffffffffffffffffffffffffffffffffff16612f0b565b15612c99578373ffffffffffffffffffffffffffffffffffffffff1663f23a6e6187878686866040518663ffffffff1660e01b8152600401612b1f959493929190613ee4565b602060405180830381600087803b158015612b3957600080fd5b505af1925050508015612b6a57506040513d601f19601f82011682018060405250810190612b6791906137e6565b60015b612c1057612b7661487f565b806308c379a01415612bd35750612b8b614d14565b80612b965750612bd5565b806040517f08c379a0000000000000000000000000000000000000000000000000000000008152600401612bca919061403c565b60405180910390fd5b505b6040517f08c379a0000000000000000000000000000000000000000000000000000000008152600401612c07906140e3565b60405180910390fd5b63f23a6e6160e01b7bffffffffffffffffffffffffffffffffffffffffffffffffffffffff1916817bffffffffffffffffffffffffffffffffffffffffffffffffffffffff191614612c97576040517f08c379a0000000000000000000000000000000000000000000000000000000008152600401612c8e90614103565b60405180910390fd5b505b505050505050565b612caf8686868686866130db565b600073ffffffffffffffffffffffffffffffffffffffff168573ffffffffffffffffffffffffffffffffffffffff161415612dad5760005b8351811015612dab57828181518110612d29577f4e487b7100000000000000000000000000000000000000000000000000000000600052603260045260246000fd5b602002602001015160046000868481518110612d6e577f4e487b7100000000000000000000000000000000000000000000000000000000600052603260045260246000fd5b602002602001015181526020019081526020016000206000828254612d939190614539565b9250508190555080612da490614749565b9050612ce7565b505b600073ffffffffffffffffffffffffffffffffffffffff168473ffffffffffffffffffffffffffffffffffffffff161415612f035760005b8351811015612f01576000848281518110612e29577f4e487b7100000000000000000000000000000000000000000000000000000000600052603260045260246000fd5b602002602001015190506000848381518110612e6e577f4e487b7100000000000000000000000000000000000000000000000000000000600052603260045260246000fd5b6020026020010151905060006004600084815260200190815260200160002054905081811015612ed3576040517f08c379a0000000000000000000000000000000000000000000000000000000008152600401612eca90614203565b60405180910390fd5b818103600460008581526020019081526020016000208190555050505080612efa90614749565b9050612de5565b505b505050505050565b6000808273ffffffffffffffffffffffffffffffffffffffff163b119050919050565b60606000821415612f76576040518060400160405280600181526020017f300000000000000000000000000000000000000000000000000000000000000081525090506130d6565b600082905060005b60008214612fa8578080612f9190614749565b915050600a82612fa1919061458f565b9150612f7e565b60008167ffffffffffffffff811115612fea577f4e487b7100000000000000000000000000000000000000000000000000000000600052604160045260246000fd5b6040519080825280601f01601f19166020018201604052801561301c5781602001600182028036833780820191505090505b5090505b600085146130cf5760018261303591906145c0565b9150600a856130449190614792565b60306130509190614539565b60f81b81838151811061308c577f4e487b7100000000000000000000000000000000000000000000000000000000600052603260045260246000fd5b60200101907effffffffffffffffffffffffffffffffffffffffffffffffffffffffffffff1916908160001a905350600a856130c8919061458f565b9450613020565b8093505050505b919050565b505050505050565b8280546130ef906146e6565b90600052602060002090601f0160209004810192826131115760008555613158565b82601f1061312a57805160ff1916838001178555613158565b82800160010185558215613158579182015b8281111561315757825182559160200191906001019061313c565b5b5090506131659190613169565b5090565b5b8082111561318257600081600090555060010161316a565b5090565b6000613199613194846143ee565b6143c9565b905080838252602082019050828560208602820111156131b857600080fd5b60005b858110156131e857816131ce88826132da565b8452602084019350602083019250506001810190506131bb565b5050509392505050565b60006132056132008461441a565b6143c9565b9050808382526020820190508285602086028201111561322457600080fd5b60005b85811015613254578161323a88826133d6565b845260208401935060208301925050600181019050613227565b5050509392505050565b600061327161326c84614446565b6143c9565b90508281526020810184848401111561328957600080fd5b6132948482856146a4565b509392505050565b60006132af6132aa84614477565b6143c9565b9050828152602081018484840111156132c757600080fd5b6132d28482856146a4565b509392505050565b6000813590506132e981614daa565b92915050565b600082601f83011261330057600080fd5b8135613310848260208601613186565b91505092915050565b600082601f83011261332a57600080fd5b813561333a8482602086016131f2565b91505092915050565b60008135905061335281614dc1565b92915050565b60008135905061336781614dd8565b92915050565b60008151905061337c81614dd8565b92915050565b600082601f83011261339357600080fd5b81356133a384826020860161325e565b91505092915050565b600082601f8301126133bd57600080fd5b81356133cd84826020860161329c565b91505092915050565b6000813590506133e581614def565b92915050565b6000815190506133fa81614def565b92915050565b60006020828403121561341257600080fd5b6000613420848285016132da565b91505092915050565b6000806040838503121561343c57600080fd5b600061344a858286016132da565b925050602061345b858286016132da565b9150509250929050565b600080600080600060a0868803121561347d57600080fd5b600061348b888289016132da565b955050602061349c888289016132da565b945050604086013567ffffffffffffffff8111156134b957600080fd5b6134c588828901613319565b935050606086013567ffffffffffffffff8111156134e257600080fd5b6134ee88828901613319565b925050608086013567ffffffffffffffff81111561350b57600080fd5b61351788828901613382565b9150509295509295909350565b600080600080600060a0868803121561353c57600080fd5b600061354a888289016132da565b955050602061355b888289016132da565b945050604061356c888289016133d6565b935050606061357d888289016133d6565b925050608086013567ffffffffffffffff81111561359a57600080fd5b6135a688828901613382565b9150509295509295909350565b600080600080608085870312156135c957600080fd5b60006135d7878288016132da565b945050602085013567ffffffffffffffff8111156135f457600080fd5b61360087828801613319565b935050604085013567ffffffffffffffff81111561361d57600080fd5b61362987828801613319565b925050606085013567ffffffffffffffff81111561364657600080fd5b61365287828801613382565b91505092959194509250565b6000806040838503121561367157600080fd5b600061367f858286016132da565b925050602061369085828601613343565b9150509250929050565b600080604083850312156136ad57600080fd5b60006136bb858286016132da565b92505060206136cc858286016133d6565b9150509250929050565b600080600080608085870312156136ec57600080fd5b60006136fa878288016132da565b945050602061370b878288016133d6565b935050604061371c878288016133d6565b925050606085013567ffffffffffffffff81111561373957600080fd5b61374587828801613382565b91505092959194509250565b6000806040838503121561376457600080fd5b600083013567ffffffffffffffff81111561377e57600080fd5b61378a858286016132ef565b925050602083013567ffffffffffffffff8111156137a757600080fd5b6137b385828601613319565b9150509250929050565b6000602082840312156137cf57600080fd5b60006137dd84828501613358565b91505092915050565b6000602082840312156137f857600080fd5b60006138068482850161336d565b91505092915050565b60006020828403121561382157600080fd5b600082013567ffffffffffffffff81111561383b57600080fd5b613847848285016133ac565b91505092915050565b60006020828403121561386257600080fd5b6000613870848285016133d6565b91505092915050565b60006020828403121561388b57600080fd5b6000613899848285016133eb565b91505092915050565b600080604083850312156138b557600080fd5b60006138c3858286016133d6565b92505060206138d4858286016132da565b9150509250929050565b600080604083850312156138f157600080fd5b60006138ff858286016133d6565b925050602083013567ffffffffffffffff81111561391c57600080fd5b61392885828601613319565b9150509250929050565b6000806040838503121561394557600080fd5b6000613953858286016133d6565b925050602083013567ffffffffffffffff81111561397057600080fd5b61397c858286016133ac565b9150509250929050565b60008060006060848603121561399b57600080fd5b60006139a9868287016133d6565b93505060206139ba868287016133d6565b92505060406139cb868287016133d6565b9150509250925092565b60006139e18383613db6565b60208301905092915050565b6139f6816145f4565b82525050565b6000613a07826144cd565b613a1181856144fb565b9350613a1c836144a8565b8060005b83811015613a4d578151613a3488826139d5565b9750613a3f836144ee565b925050600181019050613a20565b5085935050505092915050565b613a6381614606565b82525050565b613a7281614612565b82525050565b6000613a83826144d8565b613a8d818561450c565b9350613a9d8185602086016146b3565b613aa6816148a1565b840191505092915050565b6000613abc826144e3565b613ac6818561451d565b9350613ad68185602086016146b3565b613adf816148a1565b840191505092915050565b6000613af5826144e3565b613aff818561452e565b9350613b0f8185602086016146b3565b80840191505092915050565b60008154613b28816146e6565b613b32818661452e565b94506001821660008114613b4d5760018114613b5e57613b91565b60ff19831686528186019350613b91565b613b67856144b8565b60005b83811015613b8957815481890152600182019150602081019050613b6a565b838801955050505b50505092915050565b6000613ba760348361451d565b9150613bb2826148bf565b604082019050919050565b6000613bca60288361451d565b9150613bd58261490e565b604082019050919050565b6000613bed602b8361451d565b9150613bf88261495d565b604082019050919050565b6000613c1060268361451d565b9150613c1b826149ac565b604082019050919050565b6000613c3360298361451d565b9150613c3e826149fb565b604082019050919050565b6000613c5660258361451d565b9150613c6182614a4a565b604082019050919050565b6000613c7960328361451d565b9150613c8482614a99565b604082019050919050565b6000613c9c602a8361451d565b9150613ca782614ae8565b604082019050919050565b6000613cbf60078361452e565b9150613cca82614b37565b600782019050919050565b6000613ce260208361451d565b9150613ced82614b60565b602082019050919050565b6000613d0560288361451d565b9150613d1082614b89565b604082019050919050565b6000613d2860298361451d565b9150613d3382614bd8565b604082019050919050565b6000613d4b60298361451d565b9150613d5682614c27565b604082019050919050565b6000613d6e60288361451d565b9150613d7982614c76565b604082019050919050565b6000613d9160218361451d565b9150613d9c82614cc5565b604082019050919050565b613db081614648565b82525050565b613dbf81614676565b82525050565b613dce81614676565b82525050565b613ddd81614680565b82525050565b613dec81614690565b82525050565b6000613dfe8285613b1b565b9150613e0a8284613aea565b91508190509392505050565b6000613e2182613cb2565b9150613e2d8284613aea565b915081905092915050565b6000602082019050613e4d60008301846139ed565b92915050565b6000604082019050613e6860008301856139ed565b613e7560208301846139ed565b9392505050565b600060a082019050613e9160008301886139ed565b613e9e60208301876139ed565b8181036040830152613eb081866139fc565b90508181036060830152613ec481856139fc565b90508181036080830152613ed88184613a78565b90509695505050505050565b600060a082019050613ef960008301886139ed565b613f0660208301876139ed565b613f136040830186613dc5565b613f206060830185613dc5565b8181036080830152613f328184613a78565b90509695505050505050565b6000606082019050613f5360008301866139ed565b613f606020830185613dc5565b613f6d6040830184613dc5565b949350505050565b60006020820190508181036000830152613f8f81846139fc565b905092915050565b60006040820190508181036000830152613fb181856139fc565b90508181036020830152613fc581846139fc565b90509392505050565b6000602082019050613fe36000830184613a5a565b92915050565b600060a082019050613ffe6000830188613a69565b61400b6020830187613de3565b6140186040830186613da7565b6140256060830185613dd4565b6140326080830184613dd4565b9695505050505050565b600060208201905081810360008301526140568184613ab1565b905092915050565b6000610100820190508181036000830152614079818b613ab1565b9050614088602083018a613dc5565b6140956040830189613dc5565b6140a26060830188613dc5565b6140af6080830187613dc5565b6140bc60a0830186613dc5565b6140c960c0830185613dc5565b6140d660e0830184613dc5565b9998505050505050505050565b600060208201905081810360008301526140fc81613b9a565b9050919050565b6000602082019050818103600083015261411c81613bbd565b9050919050565b6000602082019050818103600083015261413c81613be0565b9050919050565b6000602082019050818103600083015261415c81613c03565b9050919050565b6000602082019050818103600083015261417c81613c26565b9050919050565b6000602082019050818103600083015261419c81613c49565b9050919050565b600060208201905081810360008301526141bc81613c6c565b9050919050565b600060208201905081810360008301526141dc81613c8f565b9050919050565b600060208201905081810360008301526141fc81613cd5565b9050919050565b6000602082019050818103600083015261421c81613cf8565b9050919050565b6000602082019050818103600083015261423c81613d1b565b9050919050565b6000602082019050818103600083015261425c81613d3e565b9050919050565b6000602082019050818103600083015261427c81613d61565b9050919050565b6000602082019050818103600083015261429c81613d84565b9050919050565b60006020820190506142b86000830184613dc5565b92915050565b60006040820190506142d36000830185613dc5565b6142e06020830184613dc5565b9392505050565b60006060820190506142fc6000830186613dc5565b6143096020830185613dc5565b6143166040830184613dc5565b949350505050565b600061016082019050614334600083018e613dc5565b614341602083018d613dc5565b61434e604083018c613dc5565b61435b606083018b613dc5565b614368608083018a613dc5565b61437560a0830189613dc5565b61438260c0830188613dc5565b61438f60e0830187613dc5565b61439d610100830186613dc5565b6143ab610120830185613dc5565b6143b9610140830184613dc5565b9c9b505050505050505050505050565b60006143d36143e4565b90506143df8282614718565b919050565b6000604051905090565b600067ffffffffffffffff82111561440957614408614850565b5b602082029050602081019050919050565b600067ffffffffffffffff82111561443557614434614850565b5b602082029050602081019050919050565b600067ffffffffffffffff82111561446157614460614850565b5b61446a826148a1565b9050602081019050919050565b600067ffffffffffffffff82111561449257614491614850565b5b61449b826148a1565b9050602081019050919050565b6000819050602082019050919050565b60008190508160005260206000209050919050565b600081519050919050565b600081519050919050565b600081519050919050565b6000602082019050919050565b600082825260208201905092915050565b600082825260208201905092915050565b600082825260208201905092915050565b600081905092915050565b600061454482614676565b915061454f83614676565b9250827fffffffffffffffffffffffffffffffffffffffffffffffffffffffffffffffff03821115614584576145836147c3565b5b828201905092915050565b600061459a82614676565b91506145a583614676565b9250826145b5576145b46147f2565b5b828204905092915050565b60006145cb82614676565b91506145d683614676565b9250828210156145e9576145e86147c3565b5b828203905092915050565b60006145ff82614656565b9050919050565b60008115159050919050565b6000819050919050565b60007fffffffff0000000000000000000000000000000000000000000000000000000082169050919050565b600061ffff82169050919050565b600073ffffffffffffffffffffffffffffffffffffffff82169050919050565b6000819050919050565b600063ffffffff82169050919050565b600067ffffffffffffffff82169050919050565b82818337600083830152505050565b60005b838110156146d15780820151818401526020810190506146b6565b838111156146e0576000848401525b50505050565b600060028204905060018216806146fe57607f821691505b6020821081141561471257614711614821565b5b50919050565b614721826148a1565b810181811067ffffffffffffffff821117156147405761473f614850565b5b80604052505050565b600061475482614676565b91507fffffffffffffffffffffffffffffffffffffffffffffffffffffffffffffffff821415614787576147866147c3565b5b600182019050919050565b600061479d82614676565b91506147a883614676565b9250826147b8576147b76147f2565b5b828206905092915050565b7f4e487b7100000000000000000000000000000000000000000000000000000000600052601160045260246000fd5b7f4e487b7100000000000000000000000000000000000000000000000000000000600052601260045260246000fd5b7f4e487b7100000000000000000000000000000000000000000000000000000000600052602260045260246000fd5b7f4e487b7100000000000000000000000000000000000000000000000000000000600052604160045260246000fd5b600060033d111561489e5760046000803e61489b6000516148b2565b90505b90565b6000601f19601f8301169050919050565b60008160e01c9050919050565b7f455243313135353a207472616e7366657220746f206e6f6e204552433131353560008201527f526563656976657220696d706c656d656e746572000000000000000000000000602082015250565b7f455243313135353a204552433131353552656365697665722072656a6563746560008201527f6420746f6b656e73000000000000000000000000000000000000000000000000602082015250565b7f455243313135353a2062616c616e636520717565727920666f7220746865207a60008201527f65726f2061646472657373000000000000000000000000000000000000000000602082015250565b7f4f776e61626c653a206e6577206f776e657220697320746865207a65726f206160008201527f6464726573730000000000000000000000000000000000000000000000000000602082015250565b7f455243313135353a2063616c6c6572206973206e6f74206f776e6572206e6f7260008201527f20617070726f7665640000000000000000000000000000000000000000000000602082015250565b7f455243313135353a207472616e7366657220746f20746865207a65726f20616460008201527f6472657373000000000000000000000000000000000000000000000000000000602082015250565b7f455243313135353a207472616e736665722063616c6c6572206973206e6f742060008201527f6f776e6572206e6f7220617070726f7665640000000000000000000000000000602082015250565b7f455243313135353a20696e73756666696369656e742062616c616e636520666f60008201527f72207472616e7366657200000000000000000000000000000000000000000000602082015250565b7f746f6b656e202300000000000000000000000000000000000000000000000000600082015250565b7f4f776e61626c653a2063616c6c6572206973206e6f7420746865206f776e6572600082015250565b7f455243313135353a206275726e20616d6f756e74206578636565647320746f7460008201527f616c537570706c79000000000000000000000000000000000000000000000000602082015250565b7f455243313135353a2073657474696e6720617070726f76616c2073746174757360008201527f20666f722073656c660000000000000000000000000000000000000000000000602082015250565b7f455243313135353a206163636f756e747320616e6420696473206c656e67746860008201527f206d69736d617463680000000000000000000000000000000000000000000000602082015250565b7f455243313135353a2069647320616e6420616d6f756e7473206c656e6774682060008201527f6d69736d61746368000000000000000000000000000000000000000000000000602082015250565b7f455243313135353a206d696e7420746f20746865207a65726f2061646472657360008201527f7300000000000000000000000000000000000000000000000000000000000000602082015250565b600060443d1015614d2457614da7565b614d2c6143e4565b60043d036004823e80513d602482011167ffffffffffffffff82111715614d54575050614da7565b808201805167ffffffffffffffff811115614d725750505050614da7565b80602083010160043d038501811115614d8f575050505050614da7565b614d9e82602001850186614718565b82955050505050505b90565b614db3816145f4565b8114614dbe57600080fd5b50565b614dca81614606565b8114614dd557600080fd5b50565b614de18161461c565b8114614dec57600080fd5b50565b614df881614676565b8114614e0357600080fd5b5056fea264697066735822122035e82c5e27f1ff118fcb030568b6c27e43dce6daf6fe79db5243ce658bcd0abb64736f6c63430008040033",
  "linkReferences": {},
  "deployedLinkReferences": {}
}