{
  "_format": "hh-sol-artifact-1",
  "contractName": "BedroomNft",
  "sourceName": "contracts/BedroomNft.sol",
  "abi": [
    {
      "inputs": [
        {
          "internalType": "address",
          "name": "have",
          "type": "address"
        },
        {
          "internalType": "address",
          "name": "want",
          "type": "address"
        }
      ],
      "name": "OnlyCoordinatorCanFulfill",
      "type": "error"
    },
    {
      "anonymous": false,
      "inputs": [
        {
          "indexed": true,
          "internalType": "address",
          "name": "account",
          "type": "address"
        },
        {
          "indexed": true,
          "internalType": "address",
          "name": "operator",
          "type": "address"
        },
        {
          "indexed": false,
          "internalType": "bool",
          "name": "approved",
          "type": "bool"
        }
      ],
      "name": "ApprovalForAll",
      "type": "event"
    },
    {
      "anonymous": false,
      "inputs": [
        {
          "indexed": false,
          "internalType": "uint256",
          "name": "tokenId",
          "type": "uint256"
        },
        {
          "indexed": false,
          "internalType": "string",
          "name": "tokenURI",
          "type": "string"
        },
        {
          "components": [
            {
              "internalType": "uint256",
              "name": "lightIsolationScore",
              "type": "uint256"
            },
            {
              "internalType": "uint256",
              "name": "bedroomThermalIsolationScore",
              "type": "uint256"
            },
            {
              "internalType": "uint256",
              "name": "soundIsolationScore",
              "type": "uint256"
            },
            {
              "internalType": "uint256",
              "name": "temperatureScore",
              "type": "uint256"
            },
            {
              "internalType": "uint256",
              "name": "humidityScore",
              "type": "uint256"
            },
            {
              "internalType": "uint256",
              "name": "sleepAidMachinesScore",
              "type": "uint256"
            },
            {
              "internalType": "uint256",
              "name": "sizeScore",
              "type": "uint256"
            },
            {
              "internalType": "uint256",
              "name": "heightScore",
              "type": "uint256"
            },
            {
              "internalType": "uint256",
              "name": "bedBaseScore",
              "type": "uint256"
            },
            {
              "internalType": "uint256",
              "name": "mattressTechnologyScore",
              "type": "uint256"
            },
            {
              "internalType": "uint256",
              "name": "mattressThicknessScore",
              "type": "uint256"
            },
            {
              "internalType": "uint256",
              "name": "mattressDeformationScore",
              "type": "uint256"
            },
            {
              "internalType": "uint256",
              "name": "thermalIsolationScore",
              "type": "uint256"
            },
            {
              "internalType": "uint256",
              "name": "hygrometricRegulationScore",
              "type": "uint256"
            },
            {
              "internalType": "uint256",
              "name": "comforterComfortabilityScore",
              "type": "uint256"
            },
            {
              "internalType": "uint256",
              "name": "pillowComfortabilityScore",
              "type": "uint256"
            }
          ],
          "indexed": false,
          "internalType": "struct BedroomNft.NftSpecifications",
          "name": "specifications",
          "type": "tuple"
        }
      ],
      "name": "BedroomNftMinting",
      "type": "event"
    },
    {
      "anonymous": false,
      "inputs": [
        {
          "indexed": false,
          "internalType": "uint256",
          "name": "tokenId",
          "type": "uint256"
        },
        {
          "indexed": false,
          "internalType": "string",
          "name": "newTokenURI",
          "type": "string"
        },
        {
          "components": [
            {
              "internalType": "uint256",
              "name": "lightIsolationScore",
              "type": "uint256"
            },
            {
              "internalType": "uint256",
              "name": "bedroomThermalIsolationScore",
              "type": "uint256"
            },
            {
              "internalType": "uint256",
              "name": "soundIsolationScore",
              "type": "uint256"
            },
            {
              "internalType": "uint256",
              "name": "temperatureScore",
              "type": "uint256"
            },
            {
              "internalType": "uint256",
              "name": "humidityScore",
              "type": "uint256"
            },
            {
              "internalType": "uint256",
              "name": "sleepAidMachinesScore",
              "type": "uint256"
            },
            {
              "internalType": "uint256",
              "name": "sizeScore",
              "type": "uint256"
            },
            {
              "internalType": "uint256",
              "name": "heightScore",
              "type": "uint256"
            },
            {
              "internalType": "uint256",
              "name": "bedBaseScore",
              "type": "uint256"
            },
            {
              "internalType": "uint256",
              "name": "mattressTechnologyScore",
              "type": "uint256"
            },
            {
              "internalType": "uint256",
              "name": "mattressThicknessScore",
              "type": "uint256"
            },
            {
              "internalType": "uint256",
              "name": "mattressDeformationScore",
              "type": "uint256"
            },
            {
              "internalType": "uint256",
              "name": "thermalIsolationScore",
              "type": "uint256"
            },
            {
              "internalType": "uint256",
              "name": "hygrometricRegulationScore",
              "type": "uint256"
            },
            {
              "internalType": "uint256",
              "name": "comforterComfortabilityScore",
              "type": "uint256"
            },
            {
              "internalType": "uint256",
              "name": "pillowComfortabilityScore",
              "type": "uint256"
            }
          ],
          "indexed": false,
          "internalType": "struct BedroomNft.NftSpecifications",
          "name": "specifications",
          "type": "tuple"
        }
      ],
      "name": "BedroomNftUpgrading",
      "type": "event"
    },
    {
      "anonymous": false,
      "inputs": [
        {
          "indexed": false,
          "internalType": "uint8",
          "name": "version",
          "type": "uint8"
        }
      ],
      "name": "Initialized",
      "type": "event"
    },
    {
      "anonymous": false,
      "inputs": [
        {
          "indexed": true,
          "internalType": "address",
          "name": "previousOwner",
          "type": "address"
        },
        {
          "indexed": true,
          "internalType": "address",
          "name": "newOwner",
          "type": "address"
        }
      ],
      "name": "OwnershipTransferred",
      "type": "event"
    },
    {
      "anonymous": false,
      "inputs": [
        {
          "indexed": false,
          "internalType": "uint256[]",
          "name": "randomWords",
          "type": "uint256[]"
        }
      ],
      "name": "ReturnedRandomness",
      "type": "event"
    },
    {
      "anonymous": false,
      "inputs": [
        {
          "indexed": true,
          "internalType": "address",
          "name": "operator",
          "type": "address"
        },
        {
          "indexed": true,
          "internalType": "address",
          "name": "from",
          "type": "address"
        },
        {
          "indexed": true,
          "internalType": "address",
          "name": "to",
          "type": "address"
        },
        {
          "indexed": false,
          "internalType": "uint256[]",
          "name": "ids",
          "type": "uint256[]"
        },
        {
          "indexed": false,
          "internalType": "uint256[]",
          "name": "values",
          "type": "uint256[]"
        }
      ],
      "name": "TransferBatch",
      "type": "event"
    },
    {
      "anonymous": false,
      "inputs": [
        {
          "indexed": true,
          "internalType": "address",
          "name": "operator",
          "type": "address"
        },
        {
          "indexed": true,
          "internalType": "address",
          "name": "from",
          "type": "address"
        },
        {
          "indexed": true,
          "internalType": "address",
          "name": "to",
          "type": "address"
        },
        {
          "indexed": false,
          "internalType": "uint256",
          "name": "id",
          "type": "uint256"
        },
        {
          "indexed": false,
          "internalType": "uint256",
          "name": "value",
          "type": "uint256"
        }
      ],
      "name": "TransferSingle",
      "type": "event"
    },
    {
      "anonymous": false,
      "inputs": [
        {
          "indexed": false,
          "internalType": "string",
          "name": "value",
          "type": "string"
        },
        {
          "indexed": true,
          "internalType": "uint256",
          "name": "id",
          "type": "uint256"
        }
      ],
      "name": "URI",
      "type": "event"
    },
    {
      "inputs": [
        {
          "internalType": "address",
          "name": "account",
          "type": "address"
        },
        {
          "internalType": "uint256",
          "name": "id",
          "type": "uint256"
        }
      ],
      "name": "balanceOf",
      "outputs": [
        {
          "internalType": "uint256",
          "name": "",
          "type": "uint256"
        }
      ],
      "stateMutability": "view",
      "type": "function"
    },
    {
      "inputs": [
        {
          "internalType": "address[]",
          "name": "accounts",
          "type": "address[]"
        },
        {
          "internalType": "uint256[]",
          "name": "ids",
          "type": "uint256[]"
        }
      ],
      "name": "balanceOfBatch",
      "outputs": [
        {
          "internalType": "uint256[]",
          "name": "",
          "type": "uint256[]"
        }
      ],
      "stateMutability": "view",
      "type": "function"
    },
    {
      "inputs": [],
      "name": "fileFormat",
      "outputs": [
        {
          "internalType": "string",
          "name": "",
          "type": "string"
        }
      ],
      "stateMutability": "view",
      "type": "function"
    },
    {
      "inputs": [
        {
          "internalType": "uint256",
          "name": "_tokenId",
          "type": "uint256"
        }
      ],
      "name": "getName",
      "outputs": [
        {
          "internalType": "string",
          "name": "",
          "type": "string"
        }
      ],
      "stateMutability": "view",
      "type": "function"
    },
    {
      "inputs": [
        {
          "internalType": "uint256",
          "name": "_tokenId",
          "type": "uint256"
        },
        {
          "internalType": "uint256",
          "name": "_indexAttribute",
          "type": "uint256"
        }
      ],
      "name": "getNftSpecifications",
      "outputs": [
        {
          "internalType": "uint256",
          "name": "",
          "type": "uint256"
        }
      ],
      "stateMutability": "view",
      "type": "function"
    },
    {
      "inputs": [
        {
          "internalType": "uint64",
          "name": "_subscriptionId",
          "type": "uint64"
        },
        {
          "internalType": "address",
          "name": "_vrfCoordinator",
          "type": "address"
        },
        {
          "internalType": "address",
          "name": "_link_token_contract",
          "type": "address"
        },
        {
          "internalType": "bytes32",
          "name": "_keyHash",
          "type": "bytes32"
        }
      ],
      "name": "initialize",
      "outputs": [],
      "stateMutability": "nonpayable",
      "type": "function"
    },
    {
      "inputs": [
        {
          "internalType": "address",
          "name": "account",
          "type": "address"
        },
        {
          "internalType": "address",
          "name": "operator",
          "type": "address"
        }
      ],
      "name": "isApprovedForAll",
      "outputs": [
        {
          "internalType": "bool",
          "name": "",
          "type": "bool"
        }
      ],
      "stateMutability": "view",
      "type": "function"
    },
    {
      "inputs": [
        {
          "internalType": "uint256",
          "name": "_designId",
          "type": "uint256"
        },
        {
          "internalType": "uint256",
          "name": "_price",
          "type": "uint256"
        },
        {
          "internalType": "enum BedroomNft.Category",
          "name": "_categorie",
          "type": "uint8"
        },
        {
          "internalType": "address",
          "name": "_owner",
          "type": "address"
        }
      ],
      "name": "mintingBedroomNft",
      "outputs": [],
      "stateMutability": "nonpayable",
      "type": "function"
    },
    {
      "inputs": [],
      "name": "owner",
      "outputs": [
        {
          "internalType": "address",
          "name": "",
          "type": "address"
        }
      ],
      "stateMutability": "view",
      "type": "function"
    },
    {
      "inputs": [
        {
          "internalType": "uint256",
          "name": "requestId",
          "type": "uint256"
        },
        {
          "internalType": "uint256[]",
          "name": "randomWords",
          "type": "uint256[]"
        }
      ],
      "name": "rawFulfillRandomWords",
      "outputs": [],
      "stateMutability": "nonpayable",
      "type": "function"
    },
    {
      "inputs": [],
      "name": "renounceOwnership",
      "outputs": [],
      "stateMutability": "nonpayable",
      "type": "function"
    },
    {
      "inputs": [
        {
          "internalType": "uint256",
          "name": "",
          "type": "uint256"
        }
      ],
      "name": "requestIdToTokenId",
      "outputs": [
        {
          "internalType": "uint256",
          "name": "",
          "type": "uint256"
        }
      ],
      "stateMutability": "view",
      "type": "function"
    },
    {
      "inputs": [
        {
          "internalType": "address",
          "name": "from",
          "type": "address"
        },
        {
          "internalType": "address",
          "name": "to",
          "type": "address"
        },
        {
          "internalType": "uint256[]",
          "name": "ids",
          "type": "uint256[]"
        },
        {
          "internalType": "uint256[]",
          "name": "amounts",
          "type": "uint256[]"
        },
        {
          "internalType": "bytes",
          "name": "data",
          "type": "bytes"
        }
      ],
      "name": "safeBatchTransferFrom",
      "outputs": [],
      "stateMutability": "nonpayable",
      "type": "function"
    },
    {
      "inputs": [
        {
          "internalType": "address",
          "name": "from",
          "type": "address"
        },
        {
          "internalType": "address",
          "name": "to",
          "type": "address"
        },
        {
          "internalType": "uint256",
          "name": "id",
          "type": "uint256"
        },
        {
          "internalType": "uint256",
          "name": "amount",
          "type": "uint256"
        },
        {
          "internalType": "bytes",
          "name": "data",
          "type": "bytes"
        }
      ],
      "name": "safeTransferFrom",
      "outputs": [],
      "stateMutability": "nonpayable",
      "type": "function"
    },
    {
      "inputs": [
        {
          "internalType": "address",
          "name": "operator",
          "type": "address"
        },
        {
          "internalType": "bool",
          "name": "approved",
          "type": "bool"
        }
      ],
      "name": "setApprovalForAll",
      "outputs": [],
      "stateMutability": "nonpayable",
      "type": "function"
    },
    {
      "inputs": [
        {
          "internalType": "string",
          "name": "_baseURI",
          "type": "string"
        }
      ],
      "name": "setBaseURI",
      "outputs": [],
      "stateMutability": "nonpayable",
      "type": "function"
    },
    {
      "inputs": [
        {
          "internalType": "string",
          "name": "_format",
          "type": "string"
        }
      ],
      "name": "setFileFormat",
      "outputs": [],
      "stateMutability": "nonpayable",
      "type": "function"
    },
    {
      "inputs": [
        {
          "internalType": "address",
          "name": "_sleepTokenAddress",
          "type": "address"
        }
      ],
      "name": "setSleepToken",
      "outputs": [],
      "stateMutability": "nonpayable",
      "type": "function"
    },
    {
      "inputs": [
        {
          "internalType": "uint256",
          "name": "_indexAttribute",
          "type": "uint256"
        },
        {
          "internalType": "uint256",
          "name": "_upgradeIncreases",
          "type": "uint256"
        },
        {
          "internalType": "uint256",
          "name": "_requiredLevel",
          "type": "uint256"
        },
        {
          "internalType": "uint256",
          "name": "_multiplier",
          "type": "uint256"
        }
      ],
      "name": "setThresholds",
      "outputs": [],
      "stateMutability": "nonpayable",
      "type": "function"
    },
    {
      "inputs": [
        {
          "internalType": "uint256",
          "name": "_tokenId",
          "type": "uint256"
        },
        {
          "internalType": "string",
          "name": "_tokenURI",
          "type": "string"
        }
      ],
      "name": "setTokenURI",
      "outputs": [],
      "stateMutability": "nonpayable",
      "type": "function"
    },
    {
      "inputs": [],
      "name": "sleepTokenAddress",
      "outputs": [
        {
          "internalType": "address",
          "name": "",
          "type": "address"
        }
      ],
      "stateMutability": "view",
      "type": "function"
    },
    {
      "inputs": [
        {
          "internalType": "bytes4",
          "name": "interfaceId",
          "type": "bytes4"
        }
      ],
      "name": "supportsInterface",
      "outputs": [
        {
          "internalType": "bool",
          "name": "",
          "type": "bool"
        }
      ],
      "stateMutability": "view",
      "type": "function"
    },
    {
      "inputs": [
        {
          "internalType": "uint256",
          "name": "",
          "type": "uint256"
        }
      ],
      "name": "thresholds",
      "outputs": [
        {
          "internalType": "uint256",
          "name": "upgradeIncreases",
          "type": "uint256"
        },
        {
          "internalType": "uint256",
          "name": "requiredLevel",
          "type": "uint256"
        },
        {
          "internalType": "uint256",
          "name": "multiplier",
          "type": "uint256"
        }
      ],
      "stateMutability": "view",
      "type": "function"
    },
    {
      "inputs": [],
      "name": "tokenId",
      "outputs": [
        {
          "internalType": "uint256",
          "name": "",
          "type": "uint256"
        }
      ],
      "stateMutability": "view",
      "type": "function"
    },
    {
      "inputs": [
        {
          "internalType": "uint256",
          "name": "",
          "type": "uint256"
        }
      ],
      "name": "tokenIdToNftOwnership",
      "outputs": [
        {
          "internalType": "address",
          "name": "owner",
          "type": "address"
        },
        {
          "internalType": "uint256",
          "name": "price",
          "type": "uint256"
        },
        {
          "internalType": "uint256",
          "name": "designId",
          "type": "uint256"
        },
        {
          "internalType": "uint256",
          "name": "level",
          "type": "uint256"
        },
        {
          "internalType": "enum BedroomNft.Category",
          "name": "categorie",
          "type": "uint8"
        }
      ],
      "stateMutability": "view",
      "type": "function"
    },
    {
      "inputs": [
        {
          "internalType": "address",
          "name": "newOwner",
          "type": "address"
        }
      ],
      "name": "transferOwnership",
      "outputs": [],
      "stateMutability": "nonpayable",
      "type": "function"
    },
    {
      "inputs": [
        {
          "internalType": "uint32",
          "name": "_callbackGasLimit",
          "type": "uint32"
        },
        {
          "internalType": "uint64",
          "name": "_subscriptionId",
          "type": "uint64"
        },
        {
          "internalType": "bytes32",
          "name": "_keyHash",
          "type": "bytes32"
        }
      ],
      "name": "updateChainlink",
      "outputs": [],
      "stateMutability": "nonpayable",
      "type": "function"
    },
    {
      "inputs": [
        {
          "internalType": "uint256",
          "name": "_tokenId",
          "type": "uint256"
        },
        {
          "internalType": "uint256",
          "name": "_newDesignId",
          "type": "uint256"
        },
        {
          "internalType": "uint256",
          "name": "_amount",
          "type": "uint256"
        },
        {
          "internalType": "uint256",
          "name": "_action",
          "type": "uint256"
        }
      ],
      "name": "upgradeBedroomNft",
      "outputs": [],
      "stateMutability": "nonpayable",
      "type": "function"
    },
    {
      "inputs": [
        {
          "internalType": "uint256",
          "name": "_tokenId",
          "type": "uint256"
        }
      ],
      "name": "uri",
      "outputs": [
        {
          "internalType": "string",
          "name": "",
          "type": "string"
        }
      ],
      "stateMutability": "view",
      "type": "function"
    }
  ],
  "bytecode": "0x608060405234801561001057600080fd5b50615e3c80620000216000396000f3fe608060405234801561001057600080fd5b50600436106101ce5760003560e01c80636994f47511610104578063a22cb465116100a2578063eec5bcc311610071578063eec5bcc314610553578063f242432a1461056f578063f2fde38b1461058b578063f66ab749146105a7576101ce565b8063a22cb465146104b9578063b6c22611146104d5578063d35dab6614610507578063e985e9c514610523576101ce565b8063839d22b9116100de578063839d22b91461044557806386b6c900146104615780638da5cb5b1461047d5780639ef122ae1461049b576101ce565b80636994f475146103ef5780636b8ff5741461040b578063715018a61461043b576101ce565b806319a59b1a1161017157806333818ef61161014b57806333818ef6146103515780634e1273f41461036f57806355f804b31461039f5780635c54ec10146103bb576101ce565b806319a59b1a146102fd5780631fe543e3146103195780632eb2c2d614610335576101ce565b80630750b163116101ad5780630750b163146102635780630e89341c14610293578063162094c4146102c357806317d70f7c146102df576101ce565b8062fdd58e146101d357806301ffc9a71461020357806306ef371114610233575b600080fd5b6101ed60048036038101906101e89190613c40565b6105c3565b6040516101fa9190613c8f565b60405180910390f35b61021d60048036038101906102189190613d02565b61068c565b60405161022a9190613d4a565b60405180910390f35b61024d60048036038101906102489190613d65565b61076e565b60405161025a9190613c8f565b60405180910390f35b61027d60048036038101906102789190613da5565b6109ea565b60405161028a9190613c8f565b60405180910390f35b6102ad60048036038101906102a89190613da5565b610a03565b6040516102ba9190613e6b565b60405180910390f35b6102dd60048036038101906102d89190613fc2565b610a15565b005b6102e7610a9f565b6040516102f49190613c8f565b60405180910390f35b6103176004803603810190610312919061401e565b610aa6565b005b610333600480360381019061032e919061412f565b610b3d565b005b61034f600480360381019061034a919061422c565b610c01565b005b610359610ca2565b604051610366919061430a565b60405180910390f35b610389600480360381019061038491906143e8565b610cc9565b604051610396919061451e565b60405180910390f35b6103b960048036038101906103b4919061401e565b610de2565b005b6103d560048036038101906103d09190613da5565b610e6a565b6040516103e69594939291906145b7565b60405180910390f35b6104096004803603810190610404919061462f565b610ece565b005b61042560048036038101906104209190613da5565b611228565b6040516104329190613e6b565b60405180910390f35b61044361127a565b005b61045f600480360381019061045a9190614696565b611302565b005b61047b60048036038101906104769190614773565b6113d4565b005b6104856115b3565b604051610492919061430a565b60405180910390f35b6104a36115dd565b6040516104b09190613e6b565b60405180910390f35b6104d360048036038101906104ce9190614806565b61166c565b005b6104ef60048036038101906104ea9190613da5565b611682565b6040516104fe93929190614846565b60405180910390f35b610521600480360381019061051c919061487d565b6116ad565b005b61053d600480360381019061053891906148aa565b61176e565b60405161054a9190613d4a565b60405180910390f35b61056d60048036038101906105689190614696565b611802565b005b610589600480360381019061058491906148ea565b611a20565b005b6105a560048036038101906105a0919061487d565b611ac1565b005b6105c160048036038101906105bc91906149bd565b611bb8565b005b60008073ffffffffffffffffffffffffffffffffffffffff168373ffffffffffffffffffffffffffffffffffffffff1603610633576040517f08c379a000000000000000000000000000000000000000000000000000000000815260040161062a90614a82565b60405180910390fd5b6097600083815260200190815260200160002060008473ffffffffffffffffffffffffffffffffffffffff1673ffffffffffffffffffffffffffffffffffffffff16815260200190815260200160002054905092915050565b60007fd9b67a26000000000000000000000000000000000000000000000000000000007bffffffffffffffffffffffffffffffffffffffffffffffffffffffff1916827bffffffffffffffffffffffffffffffffffffffffffffffffffffffff1916148061075757507f0e89341c000000000000000000000000000000000000000000000000000000007bffffffffffffffffffffffffffffffffffffffffffffffffffffffff1916827bffffffffffffffffffffffffffffffffffffffffffffffffffffffff1916145b80610767575061076682611c8d565b5b9050919050565b60008082036107965761013660008481526020019081526020016000206000015490506109e4565b600182036107bd5761013660008481526020019081526020016000206001015490506109e4565b600282036107e45761013660008481526020019081526020016000206002015490506109e4565b6003820361080b5761013660008481526020019081526020016000206003015490506109e4565b600482036108325761013660008481526020019081526020016000206004015490506109e4565b600582036108595761013660008481526020019081526020016000206005015490506109e4565b600682036108805761013660008481526020019081526020016000206006015490506109e4565b600782036108a75761013660008481526020019081526020016000206007015490506109e4565b600882036108ce5761013660008481526020019081526020016000206008015490506109e4565b600982036108f55761013660008481526020019081526020016000206009015490506109e4565b600a820361091c576101366000848152602001908152602001600020600a015490506109e4565b600b8203610943576101366000848152602001908152602001600020600b015490506109e4565b600c820361096a576101366000848152602001908152602001600020600c015490506109e4565b600d8203610991576101366000848152602001908152602001600020600d015490506109e4565b600e82036109b8576101366000848152602001908152602001600020600e015490506109e4565b600f82036109df576101366000848152602001908152602001600020600f015490506109e4565b600090505b92915050565b6101346020528060005260406000206000915090505481565b6060610a0e82611cf7565b9050919050565b610a1d611ddc565b73ffffffffffffffffffffffffffffffffffffffff16610a3b6115b3565b73ffffffffffffffffffffffffffffffffffffffff1614610a91576040517f08c379a0000000000000000000000000000000000000000000000000000000008152600401610a8890614aee565b60405180910390fd5b610a9b8282611de4565b5050565b6101335481565b610aae611ddc565b73ffffffffffffffffffffffffffffffffffffffff16610acc6115b3565b73ffffffffffffffffffffffffffffffffffffffff1614610b22576040517f08c379a0000000000000000000000000000000000000000000000000000000008152600401610b1990614aee565b60405180910390fd5b806101329080519060200190610b39929190613ad2565b5050565b603360009054906101000a900473ffffffffffffffffffffffffffffffffffffffff1673ffffffffffffffffffffffffffffffffffffffff163373ffffffffffffffffffffffffffffffffffffffff1614610bf35733603360009054906101000a900473ffffffffffffffffffffffffffffffffffffffff166040517f1cf993f4000000000000000000000000000000000000000000000000000000008152600401610bea929190614b0e565b60405180910390fd5b610bfd8282611e50565b5050565b610c09611ddc565b73ffffffffffffffffffffffffffffffffffffffff168573ffffffffffffffffffffffffffffffffffffffff161480610c4f5750610c4e85610c49611ddc565b61176e565b5b610c8e576040517f08c379a0000000000000000000000000000000000000000000000000000000008152600401610c8590614ba9565b60405180910390fd5b610c9b8585858585611ea9565b5050505050565b61012d60009054906101000a900473ffffffffffffffffffffffffffffffffffffffff1681565b60608151835114610d0f576040517f08c379a0000000000000000000000000000000000000000000000000000000008152600401610d0690614c3b565b60405180910390fd5b6000835167ffffffffffffffff811115610d2c57610d2b613e97565b5b604051908082528060200260200182016040528015610d5a5781602001602082028036833780820191505090505b50905060005b8451811015610dd757610da7858281518110610d7f57610d7e614c5b565b5b6020026020010151858381518110610d9a57610d99614c5b565b5b60200260200101516105c3565b828281518110610dba57610db9614c5b565b5b60200260200101818152505080610dd090614cb9565b9050610d60565b508091505092915050565b610dea611ddc565b73ffffffffffffffffffffffffffffffffffffffff16610e086115b3565b73ffffffffffffffffffffffffffffffffffffffff1614610e5e576040517f08c379a0000000000000000000000000000000000000000000000000000000008152600401610e5590614aee565b60405180910390fd5b610e67816121cd565b50565b6101356020528060005260406000206000915090508060000160009054906101000a900473ffffffffffffffffffffffffffffffffffffffff16908060010154908060020154908060030154908060040160009054906101000a900460ff16905085565b600073ffffffffffffffffffffffffffffffffffffffff1661012d60009054906101000a900473ffffffffffffffffffffffffffffffffffffffff1673ffffffffffffffffffffffffffffffffffffffff1603610f60576040517f08c379a0000000000000000000000000000000000000000000000000000000008152600401610f5790614d4d565b60405180910390fd5b61012d60009054906101000a900473ffffffffffffffffffffffffffffffffffffffff1673ffffffffffffffffffffffffffffffffffffffff163373ffffffffffffffffffffffffffffffffffffffff1614610ff1576040517f08c379a0000000000000000000000000000000000000000000000000000000008152600401610fe890614db9565b60405180910390fd5b600061012e60009054906101000a900473ffffffffffffffffffffffffffffffffffffffff1673ffffffffffffffffffffffffffffffffffffffff16635d3b1d306101315461013060009054906101000a900467ffffffffffffffff1661012f601c9054906101000a900461ffff1661012f60189054906101000a900463ffffffff1661012f60149054906101000a900463ffffffff166040518663ffffffff1660e01b81526004016110a8959493929190614e23565b6020604051808303816000875af11580156110c7573d6000803e3d6000fd5b505050506040513d601f19601f820116820180604052508101906110eb9190614e8b565b9050610133546101346000838152602001908152602001600020819055506040518060a001604052808373ffffffffffffffffffffffffffffffffffffffff1681526020018581526020018681526020016000815260200184600281111561115657611155614540565b5b815250610135600061013354815260200190815260200160002060008201518160000160006101000a81548173ffffffffffffffffffffffffffffffffffffffff021916908373ffffffffffffffffffffffffffffffffffffffff16021790555060208201518160010155604082015181600201556060820151816003015560808201518160040160006101000a81548160ff02191690836002811115611200576111ff614540565b5b0217905550905050610133600081548092919061121c90614cb9565b91905055505050505050565b6060611233826121e7565b6112536101356000858152602001908152602001600020600301546121e7565b604051602001611264929190614f8c565b6040516020818303038152906040529050919050565b611282611ddc565b73ffffffffffffffffffffffffffffffffffffffff166112a06115b3565b73ffffffffffffffffffffffffffffffffffffffff16146112f6576040517f08c379a00000000000000000000000000000000000000000000000000000000081526004016112ed90614aee565b60405180910390fd5b6113006000612347565b565b61130a611ddc565b73ffffffffffffffffffffffffffffffffffffffff166113286115b3565b73ffffffffffffffffffffffffffffffffffffffff161461137e576040517f08c379a000000000000000000000000000000000000000000000000000000000815260040161137590614aee565b60405180910390fd5b604051806060016040528084815260200183815260200182815250610137600086815260200190815260200160002060008201518160000155602082015181600101556040820151816002015590505050505050565b60006113e0600161240d565b90508015611404576001600060016101000a81548160ff0219169083151502179055505b61141c604051806020016040528060008152506124fd565b611424612558565b61142d846125b1565b8361012e60006101000a81548173ffffffffffffffffffffffffffffffffffffffff021916908373ffffffffffffffffffffffffffffffffffffffff1602179055508261012f60006101000a81548173ffffffffffffffffffffffffffffffffffffffff021916908373ffffffffffffffffffffffffffffffffffffffff1602179055508461013060006101000a81548167ffffffffffffffff021916908367ffffffffffffffff160217905550816101318190555062030d4061012f60186101000a81548163ffffffff021916908363ffffffff160217905550600361012f601c6101000a81548161ffff021916908361ffff160217905550601061012f60146101000a81548163ffffffff021916908363ffffffff16021790555060006101338190555080156115ac5760008060016101000a81548160ff0219169083151502179055507f7f26b83ff96e1f2b6a682f133852f6798a09c465da95921460cefb384740249860016040516115a39190615018565b60405180910390a15b5050505050565b600060c960009054906101000a900473ffffffffffffffffffffffffffffffffffffffff16905090565b61013280546115eb90615062565b80601f016020809104026020016040519081016040528092919081815260200182805461161790615062565b80156116645780601f1061163957610100808354040283529160200191611664565b820191906000526020600020905b81548152906001019060200180831161164757829003601f168201915b505050505081565b61167e611677611ddc565b8383612644565b5050565b6101376020528060005260406000206000915090508060000154908060010154908060020154905083565b6116b5611ddc565b73ffffffffffffffffffffffffffffffffffffffff166116d36115b3565b73ffffffffffffffffffffffffffffffffffffffff1614611729576040517f08c379a000000000000000000000000000000000000000000000000000000000815260040161172090614aee565b60405180910390fd5b8061012d60006101000a81548173ffffffffffffffffffffffffffffffffffffffff021916908373ffffffffffffffffffffffffffffffffffffffff16021790555050565b6000609860008473ffffffffffffffffffffffffffffffffffffffff1673ffffffffffffffffffffffffffffffffffffffff16815260200190815260200160002060008373ffffffffffffffffffffffffffffffffffffffff1673ffffffffffffffffffffffffffffffffffffffff16815260200190815260200160002060009054906101000a900460ff16905092915050565b600073ffffffffffffffffffffffffffffffffffffffff1661012d60009054906101000a900473ffffffffffffffffffffffffffffffffffffffff1673ffffffffffffffffffffffffffffffffffffffff1603611894576040517f08c379a000000000000000000000000000000000000000000000000000000000815260040161188b90614d4d565b60405180910390fd5b61012d60009054906101000a900473ffffffffffffffffffffffffffffffffffffffff1673ffffffffffffffffffffffffffffffffffffffff163373ffffffffffffffffffffffffffffffffffffffff1614611925576040517f08c379a000000000000000000000000000000000000000000000000000000000815260040161191c90614db9565b60405180910390fd5b61192e846127b0565b6101356000858152602001908152602001600020600301600081548092919061195690614cb9565b919050555081610135600086815260200190815260200160002060010160008282546119829190615093565b925050819055506000611994846121e7565b6101326040516020016119a892919061517d565b60405160208183030381529060405290506119c38582611de4565b7f3e5bfc417f5a7b2e49586458f7dd8f28142059c9e2730b6b43c765d9dac1618f856119ee87610a03565b6101366000898152602001908152602001600020604051611a11939291906153c6565b60405180910390a15050505050565b611a28611ddc565b73ffffffffffffffffffffffffffffffffffffffff168573ffffffffffffffffffffffffffffffffffffffff161480611a6e5750611a6d85611a68611ddc565b61176e565b5b611aad576040517f08c379a0000000000000000000000000000000000000000000000000000000008152600401611aa490615477565b60405180910390fd5b611aba8585858585612b55565b5050505050565b611ac9611ddc565b73ffffffffffffffffffffffffffffffffffffffff16611ae76115b3565b73ffffffffffffffffffffffffffffffffffffffff1614611b3d576040517f08c379a0000000000000000000000000000000000000000000000000000000008152600401611b3490614aee565b60405180910390fd5b600073ffffffffffffffffffffffffffffffffffffffff168173ffffffffffffffffffffffffffffffffffffffff1603611bac576040517f08c379a0000000000000000000000000000000000000000000000000000000008152600401611ba390615509565b60405180910390fd5b611bb581612347565b50565b611bc0611ddc565b73ffffffffffffffffffffffffffffffffffffffff16611bde6115b3565b73ffffffffffffffffffffffffffffffffffffffff1614611c34576040517f08c379a0000000000000000000000000000000000000000000000000000000008152600401611c2b90614aee565b60405180910390fd5b8161013060006101000a81548167ffffffffffffffff021916908367ffffffffffffffff16021790555080610131819055508261012f60186101000a81548163ffffffff021916908363ffffffff160217905550505050565b60007f01ffc9a7000000000000000000000000000000000000000000000000000000007bffffffffffffffffffffffffffffffffffffffffffffffffffffffff1916827bffffffffffffffffffffffffffffffffffffffffffffffffffffffff1916149050919050565b6060600060fc60008481526020019081526020016000208054611d1990615062565b80601f0160208091040260200160405190810160405280929190818152602001828054611d4590615062565b8015611d925780601f10611d6757610100808354040283529160200191611d92565b820191906000526020600020905b815481529060010190602001808311611d7557829003601f168201915b505050505090506000815111611db057611dab83612df3565b611dd4565b60fb81604051602001611dc4929190615529565b6040516020818303038152906040525b915050919050565b600033905090565b8060fc60008481526020019081526020016000209080519060200190611e0b929190613ad2565b50817f6bb7ff708619ba0610cba295a58592e0451dee2622938c8755667688daf3529b611e3784610a03565b604051611e449190613e6b565b60405180910390a25050565b611e6e61013460008481526020019081526020016000205482612e87565b7fefb16d61046900da527008568620fb9f8420e2f5ed4de3bfbded5035c9362b0e81604051611e9d919061451e565b60405180910390a15050565b8151835114611eed576040517f08c379a0000000000000000000000000000000000000000000000000000000008152600401611ee4906155bf565b60405180910390fd5b600073ffffffffffffffffffffffffffffffffffffffff168473ffffffffffffffffffffffffffffffffffffffff1603611f5c576040517f08c379a0000000000000000000000000000000000000000000000000000000008152600401611f5390615651565b60405180910390fd5b6000611f66611ddc565b9050611f76818787878787612f93565b60005b845181101561212a576000858281518110611f9757611f96614c5b565b5b602002602001015190506000858381518110611fb657611fb5614c5b565b5b6020026020010151905060006097600084815260200190815260200160002060008b73ffffffffffffffffffffffffffffffffffffffff1673ffffffffffffffffffffffffffffffffffffffff16815260200190815260200160002054905081811015612058576040517f08c379a000000000000000000000000000000000000000000000000000000000815260040161204f906156e3565b60405180910390fd5b8181036097600085815260200190815260200160002060008c73ffffffffffffffffffffffffffffffffffffffff1673ffffffffffffffffffffffffffffffffffffffff16815260200190815260200160002081905550816097600085815260200190815260200160002060008b73ffffffffffffffffffffffffffffffffffffffff1673ffffffffffffffffffffffffffffffffffffffff168152602001908152602001600020600082825461210f9190615093565b925050819055505050508061212390614cb9565b9050611f79565b508473ffffffffffffffffffffffffffffffffffffffff168673ffffffffffffffffffffffffffffffffffffffff168273ffffffffffffffffffffffffffffffffffffffff167f4a39dc06d4c0dbc64b70af90fd698a233a518aa5d07e595d983b8c0526c8f7fb87876040516121a1929190615703565b60405180910390a46121b7818787878787612f9b565b6121c5818787878787612fa3565b505050505050565b8060fb90805190602001906121e3929190613ad2565b5050565b60606000820361222e576040518060400160405280600181526020017f30000000000000000000000000000000000000000000000000000000000000008152509050612342565b600082905060005b6000821461226057808061224990614cb9565b915050600a826122599190615769565b9150612236565b60008167ffffffffffffffff81111561227c5761227b613e97565b5b6040519080825280601f01601f1916602001820160405280156122ae5781602001600182028036833780820191505090505b5090505b6000851461233b576001826122c7919061579a565b9150600a856122d691906157ce565b60306122e29190615093565b60f81b8183815181106122f8576122f7614c5b565b5b60200101907effffffffffffffffffffffffffffffffffffffffffffffffffffffffffffff1916908160001a905350600a856123349190615769565b94506122b2565b8093505050505b919050565b600060c960009054906101000a900473ffffffffffffffffffffffffffffffffffffffff1690508160c960006101000a81548173ffffffffffffffffffffffffffffffffffffffff021916908373ffffffffffffffffffffffffffffffffffffffff1602179055508173ffffffffffffffffffffffffffffffffffffffff168173ffffffffffffffffffffffffffffffffffffffff167f8be0079c531659141344cd1fd0a4f28419497f9722a3daafe3b4186f6b6457e060405160405180910390a35050565b60008060019054906101000a900460ff16156124845760018260ff1614801561243c575061243a3061317a565b155b61247b576040517f08c379a000000000000000000000000000000000000000000000000000000000815260040161247290615871565b60405180910390fd5b600090506124f8565b8160ff1660008054906101000a900460ff1660ff16106124d9576040517f08c379a00000000000000000000000000000000000000000000000000000000081526004016124d090615871565b60405180910390fd5b816000806101000a81548160ff021916908360ff160217905550600190505b919050565b600060019054906101000a900460ff1661254c576040517f08c379a000000000000000000000000000000000000000000000000000000000815260040161254390615903565b60405180910390fd5b6125558161319d565b50565b600060019054906101000a900460ff166125a7576040517f08c379a000000000000000000000000000000000000000000000000000000000815260040161259e90615903565b60405180910390fd5b6125af6131f8565b565b600060019054906101000a900460ff16612600576040517f08c379a00000000000000000000000000000000000000000000000000000000081526004016125f790615903565b60405180910390fd5b80603360006101000a81548173ffffffffffffffffffffffffffffffffffffffff021916908373ffffffffffffffffffffffffffffffffffffffff16021790555050565b8173ffffffffffffffffffffffffffffffffffffffff168373ffffffffffffffffffffffffffffffffffffffff16036126b2576040517f08c379a00000000000000000000000000000000000000000000000000000000081526004016126a990615995565b60405180910390fd5b80609860008573ffffffffffffffffffffffffffffffffffffffff1673ffffffffffffffffffffffffffffffffffffffff16815260200190815260200160002060008473ffffffffffffffffffffffffffffffffffffffff1673ffffffffffffffffffffffffffffffffffffffff16815260200190815260200160002060006101000a81548160ff0219169083151502179055508173ffffffffffffffffffffffffffffffffffffffff168373ffffffffffffffffffffffffffffffffffffffff167f17307eab39ab6107e8899845ad3d59bd9653f200f220920489ca2b5937696c31836040516127a39190613d4a565b60405180910390a3505050565b6127b8613b58565b6000610135600084815260200190815260200160002060030154905060005b60108110156128a6576000610137600083815260200190815260200160002060405180606001604052908160008201548152602001600182015481526020016002820154815250509050600061282d868461076e565b905081602001518410612891576064811015612873578160400151826000015161285791906159b5565b816128629190615093565b9050606481111561287257606490505b5b8085846010811061288757612886614c5b565b5b6020020181815250505b5050808061289e90614cb9565b9150506127d7565b50604051806102000160405280836000601081106128c7576128c6614c5b565b5b60200201518152602001836001601081106128e5576128e4614c5b565b5b602002015181526020018360026010811061290357612902614c5b565b5b602002015181526020018360036010811061292157612920614c5b565b5b602002015181526020018360046010811061293f5761293e614c5b565b5b602002015181526020018360056010811061295d5761295c614c5b565b5b602002015181526020018360066010811061297b5761297a614c5b565b5b602002015181526020018360076010811061299957612998614c5b565b5b60200201518152602001836008601081106129b7576129b6614c5b565b5b60200201518152602001836009601081106129d5576129d4614c5b565b5b6020020151815260200183600a601081106129f3576129f2614c5b565b5b6020020151815260200183600b60108110612a1157612a10614c5b565b5b6020020151815260200183600c60108110612a2f57612a2e614c5b565b5b6020020151815260200183600d60108110612a4d57612a4c614c5b565b5b6020020151815260200183600e60108110612a6b57612a6a614c5b565b5b6020020151815260200183600f60108110612a8957612a88614c5b565b5b60200201518152506101366000858152602001908152602001600020600082015181600001556020820151816001015560408201518160020155606082015181600301556080820151816004015560a0820151816005015560c0820151816006015560e082015181600701556101008201518160080155610120820151816009015561014082015181600a015561016082015181600b015561018082015181600c01556101a082015181600d01556101c082015181600e01556101e082015181600f0155905050505050565b600073ffffffffffffffffffffffffffffffffffffffff168473ffffffffffffffffffffffffffffffffffffffff1603612bc4576040517f08c379a0000000000000000000000000000000000000000000000000000000008152600401612bbb90615651565b60405180910390fd5b6000612bce611ddc565b90506000612bdb85613259565b90506000612be885613259565b9050612bf8838989858589612f93565b60006097600088815260200190815260200160002060008a73ffffffffffffffffffffffffffffffffffffffff1673ffffffffffffffffffffffffffffffffffffffff16815260200190815260200160002054905085811015612c90576040517f08c379a0000000000000000000000000000000000000000000000000000000008152600401612c87906156e3565b60405180910390fd5b8581036097600089815260200190815260200160002060008b73ffffffffffffffffffffffffffffffffffffffff1673ffffffffffffffffffffffffffffffffffffffff16815260200190815260200160002081905550856097600089815260200190815260200160002060008a73ffffffffffffffffffffffffffffffffffffffff1673ffffffffffffffffffffffffffffffffffffffff1681526020019081526020016000206000828254612d479190615093565b925050819055508773ffffffffffffffffffffffffffffffffffffffff168973ffffffffffffffffffffffffffffffffffffffff168573ffffffffffffffffffffffffffffffffffffffff167fc3d58168c5ae7397731d063d5bbf3d657854427343f4c083240f7aacaa2d0f628a8a604051612dc4929190615a0f565b60405180910390a4612dda848a8a86868a612f9b565b612de8848a8a8a8a8a6132d3565b505050505050505050565b606060998054612e0290615062565b80601f0160208091040260200160405190810160405280929190818152602001828054612e2e90615062565b8015612e7b5780601f10612e5057610100808354040283529160200191612e7b565b820191906000526020600020905b815481529060010190602001808311612e5e57829003601f168201915b50505050509050919050565b612e9181836134aa565b612ee7610135600061013354815260200190815260200160002060000160009054906101000a900473ffffffffffffffffffffffffffffffffffffffff1683600160405180602001604052806000815250613907565b6000612f096101356000858152602001908152602001600020600201546121e7565b610132604051602001612f1d92919061517d565b6040516020818303038152906040529050612f388382611de4565b7f30973ac7a86b9e6a56529c8be49d4f0bb56870c67b6a0be29d8519102a2dd3c983612f6385610a03565b6101366000878152602001908152602001600020604051612f86939291906153c6565b60405180910390a1505050565b505050505050565b505050505050565b612fc28473ffffffffffffffffffffffffffffffffffffffff1661317a565b15613172578373ffffffffffffffffffffffffffffffffffffffff1663bc197c8187878686866040518663ffffffff1660e01b8152600401613008959493929190615a8d565b6020604051808303816000875af192505050801561304457506040513d601f19601f820116820180604052508101906130419190615b0a565b60015b6130e957613050615b44565b806308c379a0036130ac5750613064615b66565b8061306f57506130ae565b806040517f08c379a00000000000000000000000000000000000000000000000000000000081526004016130a39190613e6b565b60405180910390fd5b505b6040517f08c379a00000000000000000000000000000000000000000000000000000000081526004016130e090615c68565b60405180910390fd5b63bc197c8160e01b7bffffffffffffffffffffffffffffffffffffffffffffffffffffffff1916817bffffffffffffffffffffffffffffffffffffffffffffffffffffffff191614613170576040517f08c379a000000000000000000000000000000000000000000000000000000000815260040161316790615cfa565b60405180910390fd5b505b505050505050565b6000808273ffffffffffffffffffffffffffffffffffffffff163b119050919050565b600060019054906101000a900460ff166131ec576040517f08c379a00000000000000000000000000000000000000000000000000000000081526004016131e390615903565b60405180910390fd5b6131f581613ab8565b50565b600060019054906101000a900460ff16613247576040517f08c379a000000000000000000000000000000000000000000000000000000000815260040161323e90615903565b60405180910390fd5b613257613252611ddc565b612347565b565b60606000600167ffffffffffffffff81111561327857613277613e97565b5b6040519080825280602002602001820160405280156132a65781602001602082028036833780820191505090505b50905082816000815181106132be576132bd614c5b565b5b60200260200101818152505080915050919050565b6132f28473ffffffffffffffffffffffffffffffffffffffff1661317a565b156134a2578373ffffffffffffffffffffffffffffffffffffffff1663f23a6e6187878686866040518663ffffffff1660e01b8152600401613338959493929190615d1a565b6020604051808303816000875af192505050801561337457506040513d601f19601f820116820180604052508101906133719190615b0a565b60015b61341957613380615b44565b806308c379a0036133dc5750613394615b66565b8061339f57506133de565b806040517f08c379a00000000000000000000000000000000000000000000000000000000081526004016133d39190613e6b565b60405180910390fd5b505b6040517f08c379a000000000000000000000000000000000000000000000000000000000815260040161341090615c68565b60405180910390fd5b63f23a6e6160e01b7bffffffffffffffffffffffffffffffffffffffffffffffffffffffff1916817bffffffffffffffffffffffffffffffffffffffffffffffffffffffff1916146134a0576040517f08c379a000000000000000000000000000000000000000000000000000000000815260040161349790615cfa565b60405180910390fd5b505b505050505050565b60405180610200016040528060016064856000815181106134ce576134cd614c5b565b5b60200260200101516134e091906157ce565b6134ea9190615093565b8152602001600160648560018151811061350757613506614c5b565b5b602002602001015161351991906157ce565b6135239190615093565b815260200160016064856002815181106135405761353f614c5b565b5b602002602001015161355291906157ce565b61355c9190615093565b8152602001600160648560038151811061357957613578614c5b565b5b602002602001015161358b91906157ce565b6135959190615093565b815260200160016064856004815181106135b2576135b1614c5b565b5b60200260200101516135c491906157ce565b6135ce9190615093565b815260200160016064856005815181106135eb576135ea614c5b565b5b60200260200101516135fd91906157ce565b6136079190615093565b8152602001600160648560068151811061362457613623614c5b565b5b602002602001015161363691906157ce565b6136409190615093565b8152602001600160648560078151811061365d5761365c614c5b565b5b602002602001015161366f91906157ce565b6136799190615093565b8152602001600160648560088151811061369657613695614c5b565b5b60200260200101516136a891906157ce565b6136b29190615093565b815260200160016064856009815181106136cf576136ce614c5b565b5b60200260200101516136e191906157ce565b6136eb9190615093565b81526020016001606485600a8151811061370857613707614c5b565b5b602002602001015161371a91906157ce565b6137249190615093565b81526020016001606485600b8151811061374157613740614c5b565b5b602002602001015161375391906157ce565b61375d9190615093565b81526020016001606485600c8151811061377a57613779614c5b565b5b602002602001015161378c91906157ce565b6137969190615093565b81526020016001606485600d815181106137b3576137b2614c5b565b5b60200260200101516137c591906157ce565b6137cf9190615093565b81526020016001606485600e815181106137ec576137eb614c5b565b5b60200260200101516137fe91906157ce565b6138089190615093565b81526020016001606485600f8151811061382557613824614c5b565b5b602002602001015161383791906157ce565b6138419190615093565b8152506101366000838152602001908152602001600020600082015181600001556020820151816001015560408201518160020155606082015181600301556080820151816004015560a0820151816005015560c0820151816006015560e082015181600701556101008201518160080155610120820151816009015561014082015181600a015561016082015181600b015561018082015181600c01556101a082015181600d01556101c082015181600e01556101e082015181600f01559050505050565b600073ffffffffffffffffffffffffffffffffffffffff168473ffffffffffffffffffffffffffffffffffffffff1603613976576040517f08c379a000000000000000000000000000000000000000000000000000000000815260040161396d90615de6565b60405180910390fd5b6000613980611ddc565b9050600061398d85613259565b9050600061399a85613259565b90506139ab83600089858589612f93565b846097600088815260200190815260200160002060008973ffffffffffffffffffffffffffffffffffffffff1673ffffffffffffffffffffffffffffffffffffffff1681526020019081526020016000206000828254613a0b9190615093565b925050819055508673ffffffffffffffffffffffffffffffffffffffff16600073ffffffffffffffffffffffffffffffffffffffff168473ffffffffffffffffffffffffffffffffffffffff167fc3d58168c5ae7397731d063d5bbf3d657854427343f4c083240f7aacaa2d0f628989604051613a89929190615a0f565b60405180910390a4613aa083600089858589612f9b565b613aaf836000898989896132d3565b50505050505050565b8060999080519060200190613ace929190613ad2565b5050565b828054613ade90615062565b90600052602060002090601f016020900481019282613b005760008555613b47565b82601f10613b1957805160ff1916838001178555613b47565b82800160010185558215613b47579182015b82811115613b46578251825591602001919060010190613b2b565b5b509050613b549190613b7b565b5090565b604051806102000160405280601090602082028036833780820191505090505090565b5b80821115613b94576000816000905550600101613b7c565b5090565b6000604051905090565b600080fd5b600080fd5b600073ffffffffffffffffffffffffffffffffffffffff82169050919050565b6000613bd782613bac565b9050919050565b613be781613bcc565b8114613bf257600080fd5b50565b600081359050613c0481613bde565b92915050565b6000819050919050565b613c1d81613c0a565b8114613c2857600080fd5b50565b600081359050613c3a81613c14565b92915050565b60008060408385031215613c5757613c56613ba2565b5b6000613c6585828601613bf5565b9250506020613c7685828601613c2b565b9150509250929050565b613c8981613c0a565b82525050565b6000602082019050613ca46000830184613c80565b92915050565b60007fffffffff0000000000000000000000000000000000000000000000000000000082169050919050565b613cdf81613caa565b8114613cea57600080fd5b50565b600081359050613cfc81613cd6565b92915050565b600060208284031215613d1857613d17613ba2565b5b6000613d2684828501613ced565b91505092915050565b60008115159050919050565b613d4481613d2f565b82525050565b6000602082019050613d5f6000830184613d3b565b92915050565b60008060408385031215613d7c57613d7b613ba2565b5b6000613d8a85828601613c2b565b9250506020613d9b85828601613c2b565b9150509250929050565b600060208284031215613dbb57613dba613ba2565b5b6000613dc984828501613c2b565b91505092915050565b600081519050919050565b600082825260208201905092915050565b60005b83811015613e0c578082015181840152602081019050613df1565b83811115613e1b576000848401525b50505050565b6000601f19601f8301169050919050565b6000613e3d82613dd2565b613e478185613ddd565b9350613e57818560208601613dee565b613e6081613e21565b840191505092915050565b60006020820190508181036000830152613e858184613e32565b905092915050565b600080fd5b600080fd5b7f4e487b7100000000000000000000000000000000000000000000000000000000600052604160045260246000fd5b613ecf82613e21565b810181811067ffffffffffffffff82111715613eee57613eed613e97565b5b80604052505050565b6000613f01613b98565b9050613f0d8282613ec6565b919050565b600067ffffffffffffffff821115613f2d57613f2c613e97565b5b613f3682613e21565b9050602081019050919050565b82818337600083830152505050565b6000613f65613f6084613f12565b613ef7565b905082815260208101848484011115613f8157613f80613e92565b5b613f8c848285613f43565b509392505050565b600082601f830112613fa957613fa8613e8d565b5b8135613fb9848260208601613f52565b91505092915050565b60008060408385031215613fd957613fd8613ba2565b5b6000613fe785828601613c2b565b925050602083013567ffffffffffffffff81111561400857614007613ba7565b5b61401485828601613f94565b9150509250929050565b60006020828403121561403457614033613ba2565b5b600082013567ffffffffffffffff81111561405257614051613ba7565b5b61405e84828501613f94565b91505092915050565b600067ffffffffffffffff82111561408257614081613e97565b5b602082029050602081019050919050565b600080fd5b60006140ab6140a684614067565b613ef7565b905080838252602082019050602084028301858111156140ce576140cd614093565b5b835b818110156140f757806140e38882613c2b565b8452602084019350506020810190506140d0565b5050509392505050565b600082601f83011261411657614115613e8d565b5b8135614126848260208601614098565b91505092915050565b6000806040838503121561414657614145613ba2565b5b600061415485828601613c2b565b925050602083013567ffffffffffffffff81111561417557614174613ba7565b5b61418185828601614101565b9150509250929050565b600067ffffffffffffffff8211156141a6576141a5613e97565b5b6141af82613e21565b9050602081019050919050565b60006141cf6141ca8461418b565b613ef7565b9050828152602081018484840111156141eb576141ea613e92565b5b6141f6848285613f43565b509392505050565b600082601f83011261421357614212613e8d565b5b81356142238482602086016141bc565b91505092915050565b600080600080600060a0868803121561424857614247613ba2565b5b600061425688828901613bf5565b955050602061426788828901613bf5565b945050604086013567ffffffffffffffff81111561428857614287613ba7565b5b61429488828901614101565b935050606086013567ffffffffffffffff8111156142b5576142b4613ba7565b5b6142c188828901614101565b925050608086013567ffffffffffffffff8111156142e2576142e1613ba7565b5b6142ee888289016141fe565b9150509295509295909350565b61430481613bcc565b82525050565b600060208201905061431f60008301846142fb565b92915050565b600067ffffffffffffffff8211156143405761433f613e97565b5b602082029050602081019050919050565b600061436461435f84614325565b613ef7565b9050808382526020820190506020840283018581111561438757614386614093565b5b835b818110156143b0578061439c8882613bf5565b845260208401935050602081019050614389565b5050509392505050565b600082601f8301126143cf576143ce613e8d565b5b81356143df848260208601614351565b91505092915050565b600080604083850312156143ff576143fe613ba2565b5b600083013567ffffffffffffffff81111561441d5761441c613ba7565b5b614429858286016143ba565b925050602083013567ffffffffffffffff81111561444a57614449613ba7565b5b61445685828601614101565b9150509250929050565b600081519050919050565b600082825260208201905092915050565b6000819050602082019050919050565b61449581613c0a565b82525050565b60006144a7838361448c565b60208301905092915050565b6000602082019050919050565b60006144cb82614460565b6144d5818561446b565b93506144e08361447c565b8060005b838110156145115781516144f8888261449b565b9750614503836144b3565b9250506001810190506144e4565b5085935050505092915050565b6000602082019050818103600083015261453881846144c0565b905092915050565b7f4e487b7100000000000000000000000000000000000000000000000000000000600052602160045260246000fd5b600381106145805761457f614540565b5b50565b60008190506145918261456f565b919050565b60006145a182614583565b9050919050565b6145b181614596565b82525050565b600060a0820190506145cc60008301886142fb565b6145d96020830187613c80565b6145e66040830186613c80565b6145f36060830185613c80565b61460060808301846145a8565b9695505050505050565b6003811061461757600080fd5b50565b6000813590506146298161460a565b92915050565b6000806000806080858703121561464957614648613ba2565b5b600061465787828801613c2b565b945050602061466887828801613c2b565b93505060406146798782880161461a565b925050606061468a87828801613bf5565b91505092959194509250565b600080600080608085870312156146b0576146af613ba2565b5b60006146be87828801613c2b565b94505060206146cf87828801613c2b565b93505060406146e087828801613c2b565b92505060606146f187828801613c2b565b91505092959194509250565b600067ffffffffffffffff82169050919050565b61471a816146fd565b811461472557600080fd5b50565b60008135905061473781614711565b92915050565b6000819050919050565b6147508161473d565b811461475b57600080fd5b50565b60008135905061476d81614747565b92915050565b6000806000806080858703121561478d5761478c613ba2565b5b600061479b87828801614728565b94505060206147ac87828801613bf5565b93505060406147bd87828801613bf5565b92505060606147ce8782880161475e565b91505092959194509250565b6147e381613d2f565b81146147ee57600080fd5b50565b600081359050614800816147da565b92915050565b6000806040838503121561481d5761481c613ba2565b5b600061482b85828601613bf5565b925050602061483c858286016147f1565b9150509250929050565b600060608201905061485b6000830186613c80565b6148686020830185613c80565b6148756040830184613c80565b949350505050565b60006020828403121561489357614892613ba2565b5b60006148a184828501613bf5565b91505092915050565b600080604083850312156148c1576148c0613ba2565b5b60006148cf85828601613bf5565b92505060206148e085828601613bf5565b9150509250929050565b600080600080600060a0868803121561490657614905613ba2565b5b600061491488828901613bf5565b955050602061492588828901613bf5565b945050604061493688828901613c2b565b935050606061494788828901613c2b565b925050608086013567ffffffffffffffff81111561496857614967613ba7565b5b614974888289016141fe565b9150509295509295909350565b600063ffffffff82169050919050565b61499a81614981565b81146149a557600080fd5b50565b6000813590506149b781614991565b92915050565b6000806000606084860312156149d6576149d5613ba2565b5b60006149e4868287016149a8565b93505060206149f586828701614728565b9250506040614a068682870161475e565b9150509250925092565b7f455243313135353a2062616c616e636520717565727920666f7220746865207a60008201527f65726f2061646472657373000000000000000000000000000000000000000000602082015250565b6000614a6c602b83613ddd565b9150614a7782614a10565b604082019050919050565b60006020820190508181036000830152614a9b81614a5f565b9050919050565b7f4f776e61626c653a2063616c6c6572206973206e6f7420746865206f776e6572600082015250565b6000614ad8602083613ddd565b9150614ae382614aa2565b602082019050919050565b60006020820190508181036000830152614b0781614acb565b9050919050565b6000604082019050614b2360008301856142fb565b614b3060208301846142fb565b9392505050565b7f455243313135353a207472616e736665722063616c6c6572206973206e6f742060008201527f6f776e6572206e6f7220617070726f7665640000000000000000000000000000602082015250565b6000614b93603283613ddd565b9150614b9e82614b37565b604082019050919050565b60006020820190508181036000830152614bc281614b86565b9050919050565b7f455243313135353a206163636f756e747320616e6420696473206c656e67746860008201527f206d69736d617463680000000000000000000000000000000000000000000000602082015250565b6000614c25602983613ddd565b9150614c3082614bc9565b604082019050919050565b60006020820190508181036000830152614c5481614c18565b9050919050565b7f4e487b7100000000000000000000000000000000000000000000000000000000600052603260045260246000fd5b7f4e487b7100000000000000000000000000000000000000000000000000000000600052601160045260246000fd5b6000614cc482613c0a565b91507fffffffffffffffffffffffffffffffffffffffffffffffffffffffffffffffff8203614cf657614cf5614c8a565b5b600182019050919050565b7f4465782061646472657373206973206e6f7420636f6e66696775726564000000600082015250565b6000614d37601d83613ddd565b9150614d4282614d01565b602082019050919050565b60006020820190508181036000830152614d6681614d2a565b9050919050565b7f41636365737320666f7262696464656e00000000000000000000000000000000600082015250565b6000614da3601083613ddd565b9150614dae82614d6d565b602082019050919050565b60006020820190508181036000830152614dd281614d96565b9050919050565b614de28161473d565b82525050565b614df1816146fd565b82525050565b600061ffff82169050919050565b614e0e81614df7565b82525050565b614e1d81614981565b82525050565b600060a082019050614e386000830188614dd9565b614e456020830187614de8565b614e526040830186614e05565b614e5f6060830185614e14565b614e6c6080830184614e14565b9695505050505050565b600081519050614e8581613c14565b92915050565b600060208284031215614ea157614ea0613ba2565b5b6000614eaf84828501614e76565b91505092915050565b600081905092915050565b7f546f6b656e202300000000000000000000000000000000000000000000000000600082015250565b6000614ef9600783614eb8565b9150614f0482614ec3565b600782019050919050565b6000614f1a82613dd2565b614f248185614eb8565b9350614f34818560208601613dee565b80840191505092915050565b7f204c6576656c2000000000000000000000000000000000000000000000000000600082015250565b6000614f76600783614eb8565b9150614f8182614f40565b600782019050919050565b6000614f9782614eec565b9150614fa38285614f0f565b9150614fae82614f69565b9150614fba8284614f0f565b91508190509392505050565b6000819050919050565b600060ff82169050919050565b6000819050919050565b6000615002614ffd614ff884614fc6565b614fdd565b614fd0565b9050919050565b61501281614fe7565b82525050565b600060208201905061502d6000830184615009565b92915050565b7f4e487b7100000000000000000000000000000000000000000000000000000000600052602260045260246000fd5b6000600282049050600182168061507a57607f821691505b60208210810361508d5761508c615033565b5b50919050565b600061509e82613c0a565b91506150a983613c0a565b9250827fffffffffffffffffffffffffffffffffffffffffffffffffffffffffffffffff038211156150de576150dd614c8a565b5b828201905092915050565b60008190508160005260206000209050919050565b6000815461510b81615062565b6151158186614eb8565b94506001821660008114615130576001811461514157615174565b60ff19831686528186019350615174565b61514a856150e9565b60005b8381101561516c5781548189015260018201915060208101905061514d565b838801955050505b50505092915050565b60006151898285614f0f565b915061519582846150fe565b91508190509392505050565b60008160001c9050919050565b6000819050919050565b60006151cb6151c6836151a1565b6151ae565b9050919050565b610200820160008083015490506151e8816151b8565b6151f5600086018261448c565b5060018301549050615206816151b8565b615213602086018261448c565b5060028301549050615224816151b8565b615231604086018261448c565b5060038301549050615242816151b8565b61524f606086018261448c565b5060048301549050615260816151b8565b61526d608086018261448c565b506005830154905061527e816151b8565b61528b60a086018261448c565b506006830154905061529c816151b8565b6152a960c086018261448c565b50600783015490506152ba816151b8565b6152c760e086018261448c565b50600883015490506152d8816151b8565b6152e661010086018261448c565b50600983015490506152f7816151b8565b61530561012086018261448c565b50600a8301549050615316816151b8565b61532461014086018261448c565b50600b8301549050615335816151b8565b61534361016086018261448c565b50600c8301549050615354816151b8565b61536261018086018261448c565b50600d8301549050615373816151b8565b6153816101a086018261448c565b50600e8301549050615392816151b8565b6153a06101c086018261448c565b50600f83015490506153b1816151b8565b6153bf6101e086018261448c565b5050505050565b6000610240820190506153dc6000830186613c80565b81810360208301526153ee8185613e32565b90506153fd60408301846151d2565b949350505050565b7f455243313135353a2063616c6c6572206973206e6f74206f776e6572206e6f7260008201527f20617070726f7665640000000000000000000000000000000000000000000000602082015250565b6000615461602983613ddd565b915061546c82615405565b604082019050919050565b6000602082019050818103600083015261549081615454565b9050919050565b7f4f776e61626c653a206e6577206f776e657220697320746865207a65726f206160008201527f6464726573730000000000000000000000000000000000000000000000000000602082015250565b60006154f3602683613ddd565b91506154fe82615497565b604082019050919050565b60006020820190508181036000830152615522816154e6565b9050919050565b600061553582856150fe565b91506155418284614f0f565b91508190509392505050565b7f455243313135353a2069647320616e6420616d6f756e7473206c656e6774682060008201527f6d69736d61746368000000000000000000000000000000000000000000000000602082015250565b60006155a9602883613ddd565b91506155b48261554d565b604082019050919050565b600060208201905081810360008301526155d88161559c565b9050919050565b7f455243313135353a207472616e7366657220746f20746865207a65726f20616460008201527f6472657373000000000000000000000000000000000000000000000000000000602082015250565b600061563b602583613ddd565b9150615646826155df565b604082019050919050565b6000602082019050818103600083015261566a8161562e565b9050919050565b7f455243313135353a20696e73756666696369656e742062616c616e636520666f60008201527f72207472616e7366657200000000000000000000000000000000000000000000602082015250565b60006156cd602a83613ddd565b91506156d882615671565b604082019050919050565b600060208201905081810360008301526156fc816156c0565b9050919050565b6000604082019050818103600083015261571d81856144c0565b9050818103602083015261573181846144c0565b90509392505050565b7f4e487b7100000000000000000000000000000000000000000000000000000000600052601260045260246000fd5b600061577482613c0a565b915061577f83613c0a565b92508261578f5761578e61573a565b5b828204905092915050565b60006157a582613c0a565b91506157b083613c0a565b9250828210156157c3576157c2614c8a565b5b828203905092915050565b60006157d982613c0a565b91506157e483613c0a565b9250826157f4576157f361573a565b5b828206905092915050565b7f496e697469616c697a61626c653a20636f6e747261637420697320616c72656160008201527f647920696e697469616c697a6564000000000000000000000000000000000000602082015250565b600061585b602e83613ddd565b9150615866826157ff565b604082019050919050565b6000602082019050818103600083015261588a8161584e565b9050919050565b7f496e697469616c697a61626c653a20636f6e7472616374206973206e6f74206960008201527f6e697469616c697a696e67000000000000000000000000000000000000000000602082015250565b60006158ed602b83613ddd565b91506158f882615891565b604082019050919050565b6000602082019050818103600083015261591c816158e0565b9050919050565b7f455243313135353a2073657474696e6720617070726f76616c2073746174757360008201527f20666f722073656c660000000000000000000000000000000000000000000000602082015250565b600061597f602983613ddd565b915061598a82615923565b604082019050919050565b600060208201905081810360008301526159ae81615972565b9050919050565b60006159c082613c0a565b91506159cb83613c0a565b9250817fffffffffffffffffffffffffffffffffffffffffffffffffffffffffffffffff0483118215151615615a0457615a03614c8a565b5b828202905092915050565b6000604082019050615a246000830185613c80565b615a316020830184613c80565b9392505050565b600081519050919050565b600082825260208201905092915050565b6000615a5f82615a38565b615a698185615a43565b9350615a79818560208601613dee565b615a8281613e21565b840191505092915050565b600060a082019050615aa260008301886142fb565b615aaf60208301876142fb565b8181036040830152615ac181866144c0565b90508181036060830152615ad581856144c0565b90508181036080830152615ae98184615a54565b90509695505050505050565b600081519050615b0481613cd6565b92915050565b600060208284031215615b2057615b1f613ba2565b5b6000615b2e84828501615af5565b91505092915050565b60008160e01c9050919050565b600060033d1115615b635760046000803e615b60600051615b37565b90505b90565b600060443d10615bf357615b78613b98565b60043d036004823e80513d602482011167ffffffffffffffff82111715615ba0575050615bf3565b808201805167ffffffffffffffff811115615bbe5750505050615bf3565b80602083010160043d038501811115615bdb575050505050615bf3565b615bea82602001850186613ec6565b82955050505050505b90565b7f455243313135353a207472616e7366657220746f206e6f6e204552433131353560008201527f526563656976657220696d706c656d656e746572000000000000000000000000602082015250565b6000615c52603483613ddd565b9150615c5d82615bf6565b604082019050919050565b60006020820190508181036000830152615c8181615c45565b9050919050565b7f455243313135353a204552433131353552656365697665722072656a6563746560008201527f6420746f6b656e73000000000000000000000000000000000000000000000000602082015250565b6000615ce4602883613ddd565b9150615cef82615c88565b604082019050919050565b60006020820190508181036000830152615d1381615cd7565b9050919050565b600060a082019050615d2f60008301886142fb565b615d3c60208301876142fb565b615d496040830186613c80565b615d566060830185613c80565b8181036080830152615d688184615a54565b90509695505050505050565b7f455243313135353a206d696e7420746f20746865207a65726f2061646472657360008201527f7300000000000000000000000000000000000000000000000000000000000000602082015250565b6000615dd0602183613ddd565b9150615ddb82615d74565b604082019050919050565b60006020820190508181036000830152615dff81615dc3565b905091905056fea26469706673582212205830aa008fd873ff6336060c80c86caaee880d26a86aa148173e8dc4e8c8e12064736f6c634300080d0033",
  "linkReferences": {},
  "deployedLinkReferences": {}
}