{
  "_format": "hh-sol-artifact-1",
  "contractName": "BedroomNFT",
  "sourceName": "contracts/BedroomNFT.sol",
  "abi": [
    {
      "inputs": [
        {
          "internalType": "uint64",
          "name": "_subscriptionId",
          "type": "uint64"
        },
        {
          "internalType": "address",
          "name": "_vrfCoordinator",
          "type": "address"
        },
        {
          "internalType": "address",
          "name": "_link_token_contract",
          "type": "address"
        },
        {
          "internalType": "bytes32",
          "name": "_keyHash",
          "type": "bytes32"
        }
      ],
      "stateMutability": "nonpayable",
      "type": "constructor"
    },
    {
      "inputs": [
        {
          "internalType": "address",
          "name": "have",
          "type": "address"
        },
        {
          "internalType": "address",
          "name": "want",
          "type": "address"
        }
      ],
      "name": "OnlyCoordinatorCanFulfill",
      "type": "error"
    },
    {
      "anonymous": false,
      "inputs": [
        {
          "indexed": true,
          "internalType": "address",
          "name": "account",
          "type": "address"
        },
        {
          "indexed": true,
          "internalType": "address",
          "name": "operator",
          "type": "address"
        },
        {
          "indexed": false,
          "internalType": "bool",
          "name": "approved",
          "type": "bool"
        }
      ],
      "name": "ApprovalForAll",
      "type": "event"
    },
    {
      "anonymous": false,
      "inputs": [
        {
          "indexed": false,
          "internalType": "uint256",
          "name": "tokenId",
          "type": "uint256"
        },
        {
          "indexed": false,
          "internalType": "string",
          "name": "tokenURI",
          "type": "string"
        },
        {
          "components": [
            {
              "internalType": "uint256",
              "name": "lightIsolationScore",
              "type": "uint256"
            },
            {
              "internalType": "uint256",
              "name": "bedroomThermalIsolationScore",
              "type": "uint256"
            },
            {
              "internalType": "uint256",
              "name": "soundIsolationScore",
              "type": "uint256"
            },
            {
              "internalType": "uint256",
              "name": "temperatureScore",
              "type": "uint256"
            },
            {
              "internalType": "uint256",
              "name": "humidityScore",
              "type": "uint256"
            },
            {
              "internalType": "uint256",
              "name": "sleepAidMachinesScore",
              "type": "uint256"
            },
            {
              "internalType": "uint256",
              "name": "sizeScore",
              "type": "uint256"
            },
            {
              "internalType": "uint256",
              "name": "heightScore",
              "type": "uint256"
            },
            {
              "internalType": "uint256",
              "name": "bedBaseScore",
              "type": "uint256"
            },
            {
              "internalType": "uint256",
              "name": "mattressTechnologyScore",
              "type": "uint256"
            },
            {
              "internalType": "uint256",
              "name": "mattressThicknessScore",
              "type": "uint256"
            },
            {
              "internalType": "uint256",
              "name": "mattressDeformationScore",
              "type": "uint256"
            },
            {
              "internalType": "uint256",
              "name": "thermalIsolationScore",
              "type": "uint256"
            },
            {
              "internalType": "uint256",
              "name": "hygrometricRegulationScore",
              "type": "uint256"
            },
            {
              "internalType": "uint256",
              "name": "comforterComfortabilityScore",
              "type": "uint256"
            },
            {
              "internalType": "uint256",
              "name": "pillowComfortabilityScore",
              "type": "uint256"
            },
            {
              "internalType": "uint256",
              "name": "price",
              "type": "uint256"
            },
            {
              "internalType": "uint256",
              "name": "designId",
              "type": "uint256"
            },
            {
              "internalType": "uint256",
              "name": "level",
              "type": "uint256"
            }
          ],
          "indexed": false,
          "internalType": "struct BedroomNFT.NftSpecifications",
          "name": "specifications",
          "type": "tuple"
        }
      ],
      "name": "BedroomNFTMinting",
      "type": "event"
    },
    {
      "anonymous": false,
      "inputs": [
        {
          "indexed": false,
          "internalType": "uint256",
          "name": "tokenId",
          "type": "uint256"
        },
        {
          "indexed": false,
          "internalType": "string",
          "name": "newTokenURI",
          "type": "string"
        },
        {
          "components": [
            {
              "internalType": "uint256",
              "name": "lightIsolationScore",
              "type": "uint256"
            },
            {
              "internalType": "uint256",
              "name": "bedroomThermalIsolationScore",
              "type": "uint256"
            },
            {
              "internalType": "uint256",
              "name": "soundIsolationScore",
              "type": "uint256"
            },
            {
              "internalType": "uint256",
              "name": "temperatureScore",
              "type": "uint256"
            },
            {
              "internalType": "uint256",
              "name": "humidityScore",
              "type": "uint256"
            },
            {
              "internalType": "uint256",
              "name": "sleepAidMachinesScore",
              "type": "uint256"
            },
            {
              "internalType": "uint256",
              "name": "sizeScore",
              "type": "uint256"
            },
            {
              "internalType": "uint256",
              "name": "heightScore",
              "type": "uint256"
            },
            {
              "internalType": "uint256",
              "name": "bedBaseScore",
              "type": "uint256"
            },
            {
              "internalType": "uint256",
              "name": "mattressTechnologyScore",
              "type": "uint256"
            },
            {
              "internalType": "uint256",
              "name": "mattressThicknessScore",
              "type": "uint256"
            },
            {
              "internalType": "uint256",
              "name": "mattressDeformationScore",
              "type": "uint256"
            },
            {
              "internalType": "uint256",
              "name": "thermalIsolationScore",
              "type": "uint256"
            },
            {
              "internalType": "uint256",
              "name": "hygrometricRegulationScore",
              "type": "uint256"
            },
            {
              "internalType": "uint256",
              "name": "comforterComfortabilityScore",
              "type": "uint256"
            },
            {
              "internalType": "uint256",
              "name": "pillowComfortabilityScore",
              "type": "uint256"
            },
            {
              "internalType": "uint256",
              "name": "price",
              "type": "uint256"
            },
            {
              "internalType": "uint256",
              "name": "designId",
              "type": "uint256"
            },
            {
              "internalType": "uint256",
              "name": "level",
              "type": "uint256"
            }
          ],
          "indexed": false,
          "internalType": "struct BedroomNFT.NftSpecifications",
          "name": "specifications",
          "type": "tuple"
        }
      ],
      "name": "BedroomNFTUpgrading",
      "type": "event"
    },
    {
      "anonymous": false,
      "inputs": [
        {
          "indexed": true,
          "internalType": "address",
          "name": "previousOwner",
          "type": "address"
        },
        {
          "indexed": true,
          "internalType": "address",
          "name": "newOwner",
          "type": "address"
        }
      ],
      "name": "OwnershipTransferred",
      "type": "event"
    },
    {
      "anonymous": false,
      "inputs": [
        {
          "indexed": false,
          "internalType": "uint256[]",
          "name": "randomWords",
          "type": "uint256[]"
        }
      ],
      "name": "ReturnedRandomness",
      "type": "event"
    },
    {
      "anonymous": false,
      "inputs": [
        {
          "indexed": true,
          "internalType": "address",
          "name": "operator",
          "type": "address"
        },
        {
          "indexed": true,
          "internalType": "address",
          "name": "from",
          "type": "address"
        },
        {
          "indexed": true,
          "internalType": "address",
          "name": "to",
          "type": "address"
        },
        {
          "indexed": false,
          "internalType": "uint256[]",
          "name": "ids",
          "type": "uint256[]"
        },
        {
          "indexed": false,
          "internalType": "uint256[]",
          "name": "values",
          "type": "uint256[]"
        }
      ],
      "name": "TransferBatch",
      "type": "event"
    },
    {
      "anonymous": false,
      "inputs": [
        {
          "indexed": true,
          "internalType": "address",
          "name": "operator",
          "type": "address"
        },
        {
          "indexed": true,
          "internalType": "address",
          "name": "from",
          "type": "address"
        },
        {
          "indexed": true,
          "internalType": "address",
          "name": "to",
          "type": "address"
        },
        {
          "indexed": false,
          "internalType": "uint256",
          "name": "id",
          "type": "uint256"
        },
        {
          "indexed": false,
          "internalType": "uint256",
          "name": "value",
          "type": "uint256"
        }
      ],
      "name": "TransferSingle",
      "type": "event"
    },
    {
      "anonymous": false,
      "inputs": [
        {
          "indexed": false,
          "internalType": "string",
          "name": "value",
          "type": "string"
        },
        {
          "indexed": true,
          "internalType": "uint256",
          "name": "id",
          "type": "uint256"
        }
      ],
      "name": "URI",
      "type": "event"
    },
    {
      "inputs": [
        {
          "internalType": "address",
          "name": "account",
          "type": "address"
        },
        {
          "internalType": "uint256",
          "name": "id",
          "type": "uint256"
        }
      ],
      "name": "balanceOf",
      "outputs": [
        {
          "internalType": "uint256",
          "name": "",
          "type": "uint256"
        }
      ],
      "stateMutability": "view",
      "type": "function"
    },
    {
      "inputs": [
        {
          "internalType": "address[]",
          "name": "accounts",
          "type": "address[]"
        },
        {
          "internalType": "uint256[]",
          "name": "ids",
          "type": "uint256[]"
        }
      ],
      "name": "balanceOfBatch",
      "outputs": [
        {
          "internalType": "uint256[]",
          "name": "",
          "type": "uint256[]"
        }
      ],
      "stateMutability": "view",
      "type": "function"
    },
    {
      "inputs": [
        {
          "internalType": "uint256",
          "name": "id",
          "type": "uint256"
        }
      ],
      "name": "exists",
      "outputs": [
        {
          "internalType": "bool",
          "name": "",
          "type": "bool"
        }
      ],
      "stateMutability": "view",
      "type": "function"
    },
    {
      "inputs": [],
      "name": "fileFormat",
      "outputs": [
        {
          "internalType": "string",
          "name": "",
          "type": "string"
        }
      ],
      "stateMutability": "view",
      "type": "function"
    },
    {
      "inputs": [
        {
          "internalType": "uint256",
          "name": "_tokenId",
          "type": "uint256"
        }
      ],
      "name": "getName",
      "outputs": [
        {
          "internalType": "string",
          "name": "",
          "type": "string"
        }
      ],
      "stateMutability": "view",
      "type": "function"
    },
    {
      "inputs": [
        {
          "internalType": "uint256",
          "name": "_tokenId",
          "type": "uint256"
        },
        {
          "internalType": "uint256",
          "name": "_indexAttribute",
          "type": "uint256"
        }
      ],
      "name": "getNftSpecifications",
      "outputs": [
        {
          "internalType": "uint256",
          "name": "",
          "type": "uint256"
        }
      ],
      "stateMutability": "view",
      "type": "function"
    },
    {
      "inputs": [
        {
          "internalType": "address",
          "name": "account",
          "type": "address"
        },
        {
          "internalType": "address",
          "name": "operator",
          "type": "address"
        }
      ],
      "name": "isApprovedForAll",
      "outputs": [
        {
          "internalType": "bool",
          "name": "",
          "type": "bool"
        }
      ],
      "stateMutability": "view",
      "type": "function"
    },
    {
      "inputs": [
        {
          "internalType": "uint256",
          "name": "_designId",
          "type": "uint256"
        },
        {
          "internalType": "address",
          "name": "_owner",
          "type": "address"
        }
      ],
      "name": "mintingBedroomNft",
      "outputs": [],
      "stateMutability": "nonpayable",
      "type": "function"
    },
    {
      "inputs": [],
      "name": "owner",
      "outputs": [
        {
          "internalType": "address",
          "name": "",
          "type": "address"
        }
      ],
      "stateMutability": "view",
      "type": "function"
    },
    {
      "inputs": [
        {
          "internalType": "uint256",
          "name": "requestId",
          "type": "uint256"
        },
        {
          "internalType": "uint256[]",
          "name": "randomWords",
          "type": "uint256[]"
        }
      ],
      "name": "rawFulfillRandomWords",
      "outputs": [],
      "stateMutability": "nonpayable",
      "type": "function"
    },
    {
      "inputs": [],
      "name": "renounceOwnership",
      "outputs": [],
      "stateMutability": "nonpayable",
      "type": "function"
    },
    {
      "inputs": [
        {
          "internalType": "uint256",
          "name": "",
          "type": "uint256"
        }
      ],
      "name": "requestIdToTokenId",
      "outputs": [
        {
          "internalType": "uint256",
          "name": "",
          "type": "uint256"
        }
      ],
      "stateMutability": "view",
      "type": "function"
    },
    {
      "inputs": [
        {
          "internalType": "address",
          "name": "from",
          "type": "address"
        },
        {
          "internalType": "address",
          "name": "to",
          "type": "address"
        },
        {
          "internalType": "uint256[]",
          "name": "ids",
          "type": "uint256[]"
        },
        {
          "internalType": "uint256[]",
          "name": "amounts",
          "type": "uint256[]"
        },
        {
          "internalType": "bytes",
          "name": "data",
          "type": "bytes"
        }
      ],
      "name": "safeBatchTransferFrom",
      "outputs": [],
      "stateMutability": "nonpayable",
      "type": "function"
    },
    {
      "inputs": [
        {
          "internalType": "address",
          "name": "from",
          "type": "address"
        },
        {
          "internalType": "address",
          "name": "to",
          "type": "address"
        },
        {
          "internalType": "uint256",
          "name": "id",
          "type": "uint256"
        },
        {
          "internalType": "uint256",
          "name": "amount",
          "type": "uint256"
        },
        {
          "internalType": "bytes",
          "name": "data",
          "type": "bytes"
        }
      ],
      "name": "safeTransferFrom",
      "outputs": [],
      "stateMutability": "nonpayable",
      "type": "function"
    },
    {
      "inputs": [
        {
          "internalType": "address",
          "name": "operator",
          "type": "address"
        },
        {
          "internalType": "bool",
          "name": "approved",
          "type": "bool"
        }
      ],
      "name": "setApprovalForAll",
      "outputs": [],
      "stateMutability": "nonpayable",
      "type": "function"
    },
    {
      "inputs": [
        {
          "internalType": "string",
          "name": "_baseURI",
          "type": "string"
        }
      ],
      "name": "setBaseURI",
      "outputs": [],
      "stateMutability": "nonpayable",
      "type": "function"
    },
    {
      "inputs": [
        {
          "internalType": "string",
          "name": "_format",
          "type": "string"
        }
      ],
      "name": "setFileFormat",
      "outputs": [],
      "stateMutability": "nonpayable",
      "type": "function"
    },
    {
      "inputs": [
        {
          "internalType": "uint256",
          "name": "_indexAttribute",
          "type": "uint256"
        },
        {
          "internalType": "uint256",
          "name": "_initialScoreMax",
          "type": "uint256"
        },
        {
          "internalType": "uint256",
          "name": "_upgradeIncreases",
          "type": "uint256"
        },
        {
          "internalType": "uint256",
          "name": "_requiredLevel",
          "type": "uint256"
        }
      ],
      "name": "setThresholds",
      "outputs": [],
      "stateMutability": "nonpayable",
      "type": "function"
    },
    {
      "inputs": [
        {
          "internalType": "uint256",
          "name": "_tokenId",
          "type": "uint256"
        },
        {
          "internalType": "string",
          "name": "_tokenURI",
          "type": "string"
        }
      ],
      "name": "setTokenURI",
      "outputs": [],
      "stateMutability": "nonpayable",
      "type": "function"
    },
    {
      "inputs": [
        {
          "internalType": "bytes4",
          "name": "interfaceId",
          "type": "bytes4"
        }
      ],
      "name": "supportsInterface",
      "outputs": [
        {
          "internalType": "bool",
          "name": "",
          "type": "bool"
        }
      ],
      "stateMutability": "view",
      "type": "function"
    },
    {
      "inputs": [
        {
          "internalType": "uint256",
          "name": "",
          "type": "uint256"
        }
      ],
      "name": "thresholds",
      "outputs": [
        {
          "internalType": "uint256",
          "name": "initialScoreMax",
          "type": "uint256"
        },
        {
          "internalType": "uint256",
          "name": "upgradeIncreases",
          "type": "uint256"
        },
        {
          "internalType": "uint256",
          "name": "requiredLevel",
          "type": "uint256"
        }
      ],
      "stateMutability": "view",
      "type": "function"
    },
    {
      "inputs": [],
      "name": "tokenId",
      "outputs": [
        {
          "internalType": "uint256",
          "name": "",
          "type": "uint256"
        }
      ],
      "stateMutability": "view",
      "type": "function"
    },
    {
      "inputs": [
        {
          "internalType": "uint256",
          "name": "",
          "type": "uint256"
        }
      ],
      "name": "tokenIdToOwner",
      "outputs": [
        {
          "internalType": "address",
          "name": "",
          "type": "address"
        }
      ],
      "stateMutability": "view",
      "type": "function"
    },
    {
      "inputs": [
        {
          "internalType": "uint256",
          "name": "id",
          "type": "uint256"
        }
      ],
      "name": "totalSupply",
      "outputs": [
        {
          "internalType": "uint256",
          "name": "",
          "type": "uint256"
        }
      ],
      "stateMutability": "view",
      "type": "function"
    },
    {
      "inputs": [
        {
          "internalType": "address",
          "name": "newOwner",
          "type": "address"
        }
      ],
      "name": "transferOwnership",
      "outputs": [],
      "stateMutability": "nonpayable",
      "type": "function"
    },
    {
      "inputs": [
        {
          "internalType": "uint16",
          "name": "_requestConfirmations",
          "type": "uint16"
        },
        {
          "internalType": "uint32",
          "name": "_callbackGasLimit",
          "type": "uint32"
        },
        {
          "internalType": "uint64",
          "name": "_subscriptionId",
          "type": "uint64"
        },
        {
          "internalType": "bytes32",
          "name": "_keyHash",
          "type": "bytes32"
        }
      ],
      "name": "updateChainlink",
      "outputs": [],
      "stateMutability": "nonpayable",
      "type": "function"
    },
    {
      "inputs": [
        {
          "internalType": "uint256",
          "name": "_tokenId",
          "type": "uint256"
        },
        {
          "internalType": "uint256",
          "name": "_newDesignId",
          "type": "uint256"
        }
      ],
      "name": "upgradeBedroomNft",
      "outputs": [],
      "stateMutability": "nonpayable",
      "type": "function"
    },
    {
      "inputs": [
        {
          "internalType": "uint256",
          "name": "_tokenId",
          "type": "uint256"
        }
      ],
      "name": "uri",
      "outputs": [
        {
          "internalType": "string",
          "name": "",
          "type": "string"
        }
      ],
      "stateMutability": "view",
      "type": "function"
    }
  ],
  "bytecode": "0x61010060405260405180602001604052806000815250600590805190602001906200002c929190620002cf565b503480156200003a57600080fd5b50604051620065dd380380620065dd8339818101604052810190620000609190620003c4565b60405180602001604052806000815250838073ffffffffffffffffffffffffffffffffffffffff1660808173ffffffffffffffffffffffffffffffffffffffff1660601b8152505050620000ba81620001e560201b60201c565b50620000db620000cf6200020160201b60201c565b6200020960201b60201c565b8273ffffffffffffffffffffffffffffffffffffffff1660a08173ffffffffffffffffffffffffffffffffffffffff1660601b815250508173ffffffffffffffffffffffffffffffffffffffff1660c08173ffffffffffffffffffffffffffffffffffffffff1660601b8152505083600760066101000a81548167ffffffffffffffff021916908367ffffffffffffffff16021790555080600881905550620186a0600760006101000a81548163ffffffff021916908363ffffffff1602179055506003600760046101000a81548161ffff021916908361ffff160217905550600163ffffffff1660e08163ffffffff1660e01b815250506000600a819055505050505062000535565b8060029080519060200190620001fd929190620002cf565b5050565b600033905090565b6000600360009054906101000a900473ffffffffffffffffffffffffffffffffffffffff16905081600360006101000a81548173ffffffffffffffffffffffffffffffffffffffff021916908373ffffffffffffffffffffffffffffffffffffffff1602179055508173ffffffffffffffffffffffffffffffffffffffff168173ffffffffffffffffffffffffffffffffffffffff167f8be0079c531659141344cd1fd0a4f28419497f9722a3daafe3b4186f6b6457e060405160405180910390a35050565b828054620002dd9062000482565b90600052602060002090601f0160209004810192826200030157600085556200034d565b82601f106200031c57805160ff19168380011785556200034d565b828001600101855582156200034d579182015b828111156200034c5782518255916020019190600101906200032f565b5b5090506200035c919062000360565b5090565b5b808211156200037b57600081600090555060010162000361565b5090565b6000815190506200039081620004e7565b92915050565b600081519050620003a78162000501565b92915050565b600081519050620003be816200051b565b92915050565b60008060008060808587031215620003db57600080fd5b6000620003eb87828801620003ad565b9450506020620003fe878288016200037f565b935050604062000411878288016200037f565b9250506060620004248782880162000396565b91505092959194509250565b60006200043d826200044e565b9050919050565b6000819050919050565b600073ffffffffffffffffffffffffffffffffffffffff82169050919050565b600067ffffffffffffffff82169050919050565b600060028204905060018216806200049b57607f821691505b60208210811415620004b257620004b1620004b8565b5b50919050565b7f4e487b7100000000000000000000000000000000000000000000000000000000600052602260045260246000fd5b620004f28162000430565b8114620004fe57600080fd5b50565b6200050c8162000444565b81146200051857600080fd5b50565b62000526816200046e565b81146200053257600080fd5b50565b60805160601c60a05160601c60c05160601c60e05160e01c61605e6200057f6000396000610b540152600050506000610ada015260008181610de10152610e35015261605e6000f3fe608060405234801561001057600080fd5b50600436106101c35760003560e01c806355f804b3116100f95780639ef122ae11610097578063bd85b03911610071578063bd85b03914610526578063e985e9c514610556578063f242432a14610586578063f2fde38b146105a2576101c3565b80639ef122ae146104ba578063a22cb465146104d8578063b6c22611146104f4576101c3565b8063715018a6116100d3578063715018a61461045a5780637ef7d51614610464578063839d22b9146104805780638da5cb5b1461049c576101c3565b806355f804b3146103de5780636b8ff574146103fa5780636e9e48ef1461042a576101c3565b806317d70f7c116101665780632eb2c2d6116101405780632eb2c2d61461034657806347c99d11146103625780634e1273f41461037e5780634f558e79146103ae576101c3565b806317d70f7c146102f057806319a59b1a1461030e5780631fe543e31461032a576101c3565b806307232a49116101a257806307232a49146102585780630750b163146102745780630e89341c146102a4578063162094c4146102d4576101c3565b8062fdd58e146101c857806301ffc9a7146101f857806306ef371114610228575b600080fd5b6101e260048036038101906101dd9190614646565b6105be565b6040516101ef919061547b565b60405180910390f35b610212600480360381019061020d91906146ee565b610687565b60405161021f919061522b565b60405180910390f35b610242600480360381019061023d919061491a565b610769565b60405161024f919061547b565b60405180910390f35b610272600480360381019061026d9190614836565b610a5a565b005b61028e600480360381019061028991906147e4565b610c8f565b60405161029b919061547b565b60405180910390f35b6102be60048036038101906102b991906147e4565b610ca7565b6040516102cb9190615299565b60405180910390f35b6102ee60048036038101906102e991906148c6565b610cb9565b005b6102f8610d43565b604051610305919061547b565b60405180910390f35b61032860048036038101906103239190614740565b610d49565b005b610344600480360381019061033f9190614872565b610ddf565b005b610360600480360381019061035b91906144bc565b610e9f565b005b61037c60048036038101906103779190614781565b610f40565b005b61039860048036038101906103939190614682565b611030565b6040516103a591906151d2565b60405180910390f35b6103c860048036038101906103c391906147e4565b6111e1565b6040516103d5919061522b565b60405180910390f35b6103f860048036038101906103f39190614740565b6111f5565b005b610414600480360381019061040f91906147e4565b61127d565b6040516104219190615299565b60405180910390f35b610444600480360381019061043f91906147e4565b6112ce565b60405161045191906150cc565b60405180910390f35b610462611301565b005b61047e6004803603810190610479919061491a565b611389565b005b61049a60048036038101906104959190614956565b6114cd565b005b6104a46115a0565b6040516104b191906150cc565b60405180910390f35b6104c26115ca565b6040516104cf9190615299565b60405180910390f35b6104f260048036038101906104ed919061460a565b611658565b005b61050e600480360381019061050991906147e4565b61166e565b60405161051d939291906154fe565b60405180910390f35b610540600480360381019061053b91906147e4565b611698565b60405161054d919061547b565b60405180910390f35b610570600480360381019061056b9190614480565b6116b5565b60405161057d919061522b565b60405180910390f35b6105a0600480360381019061059b919061457b565b611749565b005b6105bc60048036038101906105b79190614457565b6117ea565b005b60008073ffffffffffffffffffffffffffffffffffffffff168373ffffffffffffffffffffffffffffffffffffffff16141561062f576040517f08c379a0000000000000000000000000000000000000000000000000000000008152600401610626906152fb565b60405180910390fd5b60008083815260200190815260200160002060008473ffffffffffffffffffffffffffffffffffffffff1673ffffffffffffffffffffffffffffffffffffffff16815260200190815260200160002054905092915050565b60007fd9b67a26000000000000000000000000000000000000000000000000000000007bffffffffffffffffffffffffffffffffffffffffffffffffffffffff1916827bffffffffffffffffffffffffffffffffffffffffffffffffffffffff1916148061075257507f0e89341c000000000000000000000000000000000000000000000000000000007bffffffffffffffffffffffffffffffffffffffffffffffffffffffff1916827bffffffffffffffffffffffffffffffffffffffffffffffffffffffff1916145b806107625750610761826118e2565b5b9050919050565b60008082141561079157600d6000848152602001908152602001600020600001549050610a54565b60018214156107b857600d6000848152602001908152602001600020600101549050610a54565b60028214156107df57600d6000848152602001908152602001600020600201549050610a54565b600382141561080657600d6000848152602001908152602001600020600301549050610a54565b600482141561082d57600d6000848152602001908152602001600020600401549050610a54565b600582141561085457600d6000848152602001908152602001600020600501549050610a54565b600682141561087b57600d6000848152602001908152602001600020600601549050610a54565b60078214156108a257600d6000848152602001908152602001600020600701549050610a54565b60088214156108c957600d6000848152602001908152602001600020600801549050610a54565b60098214156108f057600d6000848152602001908152602001600020600901549050610a54565b600a82141561091757600d6000848152602001908152602001600020600a01549050610a54565b600b82141561093e57600d6000848152602001908152602001600020600b01549050610a54565b600c82141561096557600d6000848152602001908152602001600020600c01549050610a54565b600d82141561098c57600d6000848152602001908152602001600020600d01549050610a54565b600e8214156109b357600d6000848152602001908152602001600020600e01549050610a54565b600f8214156109da57600d6000848152602001908152602001600020600f01549050610a54565b6010821415610a0157600d6000848152602001908152602001600020601001549050610a54565b6011821415610a2857600d6000848152602001908152602001600020601101549050610a54565b6012821415610a4f57600d6000848152602001908152602001600020601201549050610a54565b600090505b92915050565b610a6261194c565b73ffffffffffffffffffffffffffffffffffffffff16610a806115a0565b73ffffffffffffffffffffffffffffffffffffffff1614610ad6576040517f08c379a0000000000000000000000000000000000000000000000000000000008152600401610acd906153bb565b60405180910390fd5b60007f000000000000000000000000000000000000000000000000000000000000000073ffffffffffffffffffffffffffffffffffffffff16635d3b1d30600854600760069054906101000a900467ffffffffffffffff16600760049054906101000a900461ffff16600760009054906101000a900463ffffffff167f00000000000000000000000000000000000000000000000000000000000000006040518663ffffffff1660e01b8152600401610b93959493929190615246565b602060405180830381600087803b158015610bad57600080fd5b505af1158015610bc1573d6000803e3d6000fd5b505050506040513d601f19601f82011682018060405250810190610be5919061480d565b9050600a54600b60008381526020019081526020016000208190555081600c6000600a54815260200190815260200160002060006101000a81548173ffffffffffffffffffffffffffffffffffffffff021916908373ffffffffffffffffffffffffffffffffffffffff16021790555082600d6000600a54815260200190815260200160002060110181905550600a6000815480929190610c85906158d9565b9190505550505050565b600b6020528060005260406000206000915090505481565b6060610cb282611954565b9050919050565b610cc161194c565b73ffffffffffffffffffffffffffffffffffffffff16610cdf6115a0565b73ffffffffffffffffffffffffffffffffffffffff1614610d35576040517f08c379a0000000000000000000000000000000000000000000000000000000008152600401610d2c906153bb565b60405180910390fd5b610d3f8282611a39565b5050565b600a5481565b610d5161194c565b73ffffffffffffffffffffffffffffffffffffffff16610d6f6115a0565b73ffffffffffffffffffffffffffffffffffffffff1614610dc5576040517f08c379a0000000000000000000000000000000000000000000000000000000008152600401610dbc906153bb565b60405180910390fd5b8060099080519060200190610ddb9291906140e6565b5050565b7f000000000000000000000000000000000000000000000000000000000000000073ffffffffffffffffffffffffffffffffffffffff163373ffffffffffffffffffffffffffffffffffffffff1614610e9157337f00000000000000000000000000000000000000000000000000000000000000006040517f1cf993f4000000000000000000000000000000000000000000000000000000008152600401610e889291906150e7565b60405180910390fd5b610e9b8282611aa5565b5050565b610ea761194c565b73ffffffffffffffffffffffffffffffffffffffff168573ffffffffffffffffffffffffffffffffffffffff161480610eed5750610eec85610ee761194c565b6116b5565b5b610f2c576040517f08c379a0000000000000000000000000000000000000000000000000000000008152600401610f239061537b565b60405180910390fd5b610f398585858585611b3e565b5050505050565b610f4861194c565b73ffffffffffffffffffffffffffffffffffffffff16610f666115a0565b73ffffffffffffffffffffffffffffffffffffffff1614610fbc576040517f08c379a0000000000000000000000000000000000000000000000000000000008152600401610fb3906153bb565b60405180910390fd5b81600760066101000a81548167ffffffffffffffff021916908367ffffffffffffffff1602179055508060088190555082600760006101000a81548163ffffffff021916908363ffffffff16021790555083600760046101000a81548161ffff021916908361ffff16021790555050505050565b60608151835114611076576040517f08c379a000000000000000000000000000000000000000000000000000000000815260040161106d9061541b565b60405180910390fd5b6000835167ffffffffffffffff8111156110b9577f4e487b7100000000000000000000000000000000000000000000000000000000600052604160045260246000fd5b6040519080825280602002602001820160405280156110e75781602001602082028036833780820191505090505b50905060005b84518110156111d657611180858281518110611132577f4e487b7100000000000000000000000000000000000000000000000000000000600052603260045260246000fd5b6020026020010151858381518110611173577f4e487b7100000000000000000000000000000000000000000000000000000000600052603260045260246000fd5b60200260200101516105be565b8282815181106111b9577f4e487b7100000000000000000000000000000000000000000000000000000000600052603260045260246000fd5b602002602001018181525050806111cf906158d9565b90506110ed565b508091505092915050565b6000806111ed83611698565b119050919050565b6111fd61194c565b73ffffffffffffffffffffffffffffffffffffffff1661121b6115a0565b73ffffffffffffffffffffffffffffffffffffffff1614611271576040517f08c379a0000000000000000000000000000000000000000000000000000000008152600401611268906153bb565b60405180910390fd5b61127a81611eac565b50565b606061128882611ec6565b6112a7600d600085815260200190815260200160002060120154611ec6565b6040516020016112b8929190615092565b6040516020818303038152906040529050919050565b600c6020528060005260406000206000915054906101000a900473ffffffffffffffffffffffffffffffffffffffff1681565b61130961194c565b73ffffffffffffffffffffffffffffffffffffffff166113276115a0565b73ffffffffffffffffffffffffffffffffffffffff161461137d576040517f08c379a0000000000000000000000000000000000000000000000000000000008152600401611374906153bb565b60405180910390fd5b6113876000612073565b565b61139161194c565b73ffffffffffffffffffffffffffffffffffffffff166113af6115a0565b73ffffffffffffffffffffffffffffffffffffffff1614611405576040517f08c379a00000000000000000000000000000000000000000000000000000000081526004016113fc906153bb565b60405180910390fd5b61140e82612139565b600d60008381526020019081526020016000206012016000815480929190611435906158d9565b9190505550600061144582611ec6565b600960405160200161145892919061504a565b60405160208183030381529060405290506114738382611a39565b7fd6372899e4c7b0aae0a9b89e1cc4239a0e32605177d5d2c7c5b36b00149487868361149e85610ca7565b600d60008781526020019081526020016000206040516114c093929190615496565b60405180910390a1505050565b6114d561194c565b73ffffffffffffffffffffffffffffffffffffffff166114f36115a0565b73ffffffffffffffffffffffffffffffffffffffff1614611549576040517f08c379a0000000000000000000000000000000000000000000000000000000008152600401611540906153bb565b60405180910390fd5b82600e60008681526020019081526020016000206000018190555081600e60008681526020019081526020016000206001018190555080600e60008681526020019081526020016000206002018190555050505050565b6000600360009054906101000a900473ffffffffffffffffffffffffffffffffffffffff16905090565b600980546115d79061585c565b80601f01602080910402602001604051908101604052809291908181526020018280546116039061585c565b80156116505780601f1061162557610100808354040283529160200191611650565b820191906000526020600020905b81548152906001019060200180831161163357829003601f168201915b505050505081565b61166a61166361194c565b8383612e7a565b5050565b600e6020528060005260406000206000915090508060000154908060010154908060020154905083565b600060046000838152602001908152602001600020549050919050565b6000600160008473ffffffffffffffffffffffffffffffffffffffff1673ffffffffffffffffffffffffffffffffffffffff16815260200190815260200160002060008373ffffffffffffffffffffffffffffffffffffffff1673ffffffffffffffffffffffffffffffffffffffff16815260200190815260200160002060009054906101000a900460ff16905092915050565b61175161194c565b73ffffffffffffffffffffffffffffffffffffffff168573ffffffffffffffffffffffffffffffffffffffff16148061179757506117968561179161194c565b6116b5565b5b6117d6576040517f08c379a00000000000000000000000000000000000000000000000000000000081526004016117cd9061533b565b60405180910390fd5b6117e38585858585612fe7565b5050505050565b6117f261194c565b73ffffffffffffffffffffffffffffffffffffffff166118106115a0565b73ffffffffffffffffffffffffffffffffffffffff1614611866576040517f08c379a000000000000000000000000000000000000000000000000000000000815260040161185d906153bb565b60405180910390fd5b600073ffffffffffffffffffffffffffffffffffffffff168173ffffffffffffffffffffffffffffffffffffffff1614156118d6576040517f08c379a00000000000000000000000000000000000000000000000000000000081526004016118cd9061531b565b60405180910390fd5b6118df81612073565b50565b60007f01ffc9a7000000000000000000000000000000000000000000000000000000007bffffffffffffffffffffffffffffffffffffffffffffffffffffffff1916827bffffffffffffffffffffffffffffffffffffffffffffffffffffffff1916149050919050565b600033905090565b606060006006600084815260200190815260200160002080546119769061585c565b80601f01602080910402602001604051908101604052809291908181526020018280546119a29061585c565b80156119ef5780601f106119c4576101008083540402835291602001916119ef565b820191906000526020600020905b8154815290600101906020018083116119d257829003601f168201915b505050505090506000815111611a0d57611a0883613283565b611a31565b600581604051602001611a2192919061506e565b6040516020818303038152906040525b915050919050565b80600660008481526020019081526020016000209080519060200190611a609291906140e6565b50817f6bb7ff708619ba0610cba295a58592e0451dee2622938c8755667688daf3529b611a8c84610ca7565b604051611a999190615299565b60405180910390a25050565b611b03600b60008481526020019081526020016000205482600081518110611af6577f4e487b7100000000000000000000000000000000000000000000000000000000600052603260045260246000fd5b6020026020010151613317565b7fefb16d61046900da527008568620fb9f8420e2f5ed4de3bfbded5035c9362b0e81604051611b3291906151d2565b60405180910390a15050565b8151835114611b82576040517f08c379a0000000000000000000000000000000000000000000000000000000008152600401611b799061543b565b60405180910390fd5b600073ffffffffffffffffffffffffffffffffffffffff168473ffffffffffffffffffffffffffffffffffffffff161415611bf2576040517f08c379a0000000000000000000000000000000000000000000000000000000008152600401611be99061535b565b60405180910390fd5b6000611bfc61194c565b9050611c0c81878787878761341b565b60005b8451811015611e09576000858281518110611c53577f4e487b7100000000000000000000000000000000000000000000000000000000600052603260045260246000fd5b602002602001015190506000858381518110611c98577f4e487b7100000000000000000000000000000000000000000000000000000000600052603260045260246000fd5b60200260200101519050600080600084815260200190815260200160002060008b73ffffffffffffffffffffffffffffffffffffffff1673ffffffffffffffffffffffffffffffffffffffff16815260200190815260200160002054905081811015611d39576040517f08c379a0000000000000000000000000000000000000000000000000000000008152600401611d309061539b565b60405180910390fd5b81810360008085815260200190815260200160002060008c73ffffffffffffffffffffffffffffffffffffffff1673ffffffffffffffffffffffffffffffffffffffff168152602001908152602001600020819055508160008085815260200190815260200160002060008b73ffffffffffffffffffffffffffffffffffffffff1673ffffffffffffffffffffffffffffffffffffffff1681526020019081526020016000206000828254611dee91906156a5565b9250508190555050505080611e02906158d9565b9050611c0f565b508473ffffffffffffffffffffffffffffffffffffffff168673ffffffffffffffffffffffffffffffffffffffff168273ffffffffffffffffffffffffffffffffffffffff167f4a39dc06d4c0dbc64b70af90fd698a233a518aa5d07e595d983b8c0526c8f7fb8787604051611e809291906151f4565b60405180910390a4611e96818787878787613431565b611ea4818787878787613439565b505050505050565b8060059080519060200190611ec29291906140e6565b5050565b60606000821415611f0e576040518060400160405280600181526020017f3000000000000000000000000000000000000000000000000000000000000000815250905061206e565b600082905060005b60008214611f40578080611f29906158d9565b915050600a82611f3991906156fb565b9150611f16565b60008167ffffffffffffffff811115611f82577f4e487b7100000000000000000000000000000000000000000000000000000000600052604160045260246000fd5b6040519080825280601f01601f191660200182016040528015611fb45781602001600182028036833780820191505090505b5090505b6000851461206757600182611fcd919061572c565b9150600a85611fdc9190615922565b6030611fe891906156a5565b60f81b818381518110612024577f4e487b7100000000000000000000000000000000000000000000000000000000600052603260045260246000fd5b60200101907effffffffffffffffffffffffffffffffffffffffffffffffffffffffffffff1916908160001a905350600a8561206091906156fb565b9450611fb8565b8093505050505b919050565b6000600360009054906101000a900473ffffffffffffffffffffffffffffffffffffffff16905081600360006101000a81548173ffffffffffffffffffffffffffffffffffffffff021916908373ffffffffffffffffffffffffffffffffffffffff1602179055508173ffffffffffffffffffffffffffffffffffffffff168173ffffffffffffffffffffffffffffffffffffffff167f8be0079c531659141344cd1fd0a4f28419497f9722a3daafe3b4186f6b6457e060405160405180910390a35050565b600e600080815260200190815260200160002060020154600d6000838152602001908152602001600020601201541061220b576000600d6000838152602001908152602001600020600001549050606481101561220957600e600080815260200190815260200160002060010154816121b291906156a5565b600d6000848152602001908152602001600020600001819055506064600d6000848152602001908152602001600020600001541115612208576064600d6000848152602001908152602001600020600001819055505b5b505b600e60006001815260200190815260200160002060020154600d600083815260200190815260200160002060120154106122df576000600d600083815260200190815260200160002060010154905060648110156122dd57600e600060018152602001908152602001600020600101548161228691906156a5565b600d6000848152602001908152602001600020600101819055506064600d60008481526020019081526020016000206001015411156122dc576064600d6000848152602001908152602001600020600101819055505b5b505b600e60006002815260200190815260200160002060020154600d600083815260200190815260200160002060120154106123b3576000600d600083815260200190815260200160002060020154905060648110156123b157600e600060028152602001908152602001600020600101548161235a91906156a5565b600d6000848152602001908152602001600020600201819055506064600d60008481526020019081526020016000206002015411156123b0576064600d6000848152602001908152602001600020600201819055505b5b505b600e60006003815260200190815260200160002060020154600d60008381526020019081526020016000206012015410612487576000600d6000838152602001908152602001600020600301549050606481101561248557600e600060038152602001908152602001600020600101548161242e91906156a5565b600d6000848152602001908152602001600020600301819055506064600d6000848152602001908152602001600020600301541115612484576064600d6000848152602001908152602001600020600301819055505b5b505b600e60006004815260200190815260200160002060020154600d6000838152602001908152602001600020601201541061255b576000600d6000838152602001908152602001600020600401549050606481101561255957600e600060048152602001908152602001600020600101548161250291906156a5565b600d6000848152602001908152602001600020600401819055506064600d6000848152602001908152602001600020600401541115612558576064600d6000848152602001908152602001600020600401819055505b5b505b600e60006005815260200190815260200160002060020154600d6000838152602001908152602001600020601201541061262f576000600d6000838152602001908152602001600020600501549050606481101561262d57600e60006005815260200190815260200160002060010154816125d691906156a5565b600d6000848152602001908152602001600020600501819055506064600d600084815260200190815260200160002060050154111561262c576064600d6000848152602001908152602001600020600501819055505b5b505b600e60006006815260200190815260200160002060020154600d60008381526020019081526020016000206012015410612703576000600d6000838152602001908152602001600020600601549050606481101561270157600e60006006815260200190815260200160002060010154816126aa91906156a5565b600d6000848152602001908152602001600020600601819055506064600d6000848152602001908152602001600020600601541115612700576064600d6000848152602001908152602001600020600601819055505b5b505b600e60006007815260200190815260200160002060020154600d600083815260200190815260200160002060120154106127d7576000600d600083815260200190815260200160002060070154905060648110156127d557600e600060078152602001908152602001600020600101548161277e91906156a5565b600d6000848152602001908152602001600020600701819055506064600d60008481526020019081526020016000206007015411156127d4576064600d6000848152602001908152602001600020600701819055505b5b505b600e60006008815260200190815260200160002060020154600d600083815260200190815260200160002060120154106128ab576000600d600083815260200190815260200160002060080154905060648110156128a957600e600060088152602001908152602001600020600101548161285291906156a5565b600d6000848152602001908152602001600020600801819055506064600d60008481526020019081526020016000206008015411156128a8576064600d6000848152602001908152602001600020600801819055505b5b505b600e60006009815260200190815260200160002060020154600d6000838152602001908152602001600020601201541061297f576000600d6000838152602001908152602001600020600901549050606481101561297d57600e600060098152602001908152602001600020600101548161292691906156a5565b600d6000848152602001908152602001600020600901819055506064600d600084815260200190815260200160002060090154111561297c576064600d6000848152602001908152602001600020600901819055505b5b505b600e6000600a815260200190815260200160002060020154600d60008381526020019081526020016000206012015410612a53576000600d6000838152602001908152602001600020600a015490506064811015612a5157600e6000600a815260200190815260200160002060010154816129fa91906156a5565b600d6000848152602001908152602001600020600a01819055506064600d6000848152602001908152602001600020600a01541115612a50576064600d6000848152602001908152602001600020600a01819055505b5b505b600e6000600b815260200190815260200160002060020154600d60008381526020019081526020016000206012015410612b27576000600d6000838152602001908152602001600020600b015490506064811015612b2557600e6000600b81526020019081526020016000206001015481612ace91906156a5565b600d6000848152602001908152602001600020600b01819055506064600d6000848152602001908152602001600020600b01541115612b24576064600d6000848152602001908152602001600020600b01819055505b5b505b600e6000600c815260200190815260200160002060020154600d60008381526020019081526020016000206012015410612bfb576000600d6000838152602001908152602001600020600d015490506064811015612bf957600e6000600d81526020019081526020016000206001015481612ba291906156a5565b600d6000848152602001908152602001600020600d01819055506064600d6000848152602001908152602001600020600d01541115612bf8576064600d6000848152602001908152602001600020600d01819055505b5b505b600e6000600d815260200190815260200160002060020154600d60008381526020019081526020016000206012015410612ccf576000600d6000838152602001908152602001600020600d015490506064811015612ccd57600e6000600d81526020019081526020016000206001015481612c7691906156a5565b600d6000848152602001908152602001600020600d01819055506064600d6000848152602001908152602001600020600d01541115612ccc576064600d6000848152602001908152602001600020600d01819055505b5b505b600e6000600e815260200190815260200160002060020154600d60008381526020019081526020016000206012015410612da3576000600d6000838152602001908152602001600020600e015490506064811015612da157600e6000600e81526020019081526020016000206001015481612d4a91906156a5565b600d6000848152602001908152602001600020600e01819055506064600d6000848152602001908152602001600020600e01541115612da0576064600d6000848152602001908152602001600020600e01819055505b5b505b600e6000600f815260200190815260200160002060020154600d60008381526020019081526020016000206012015410612e77576000600d6000838152602001908152602001600020600f015490506064811015612e7557600e6000600f81526020019081526020016000206001015481612e1e91906156a5565b600d6000848152602001908152602001600020600f01819055506064600d6000848152602001908152602001600020600f01541115612e74576064600d6000848152602001908152602001600020600f01819055505b5b505b50565b8173ffffffffffffffffffffffffffffffffffffffff168373ffffffffffffffffffffffffffffffffffffffff161415612ee9576040517f08c379a0000000000000000000000000000000000000000000000000000000008152600401612ee0906153fb565b60405180910390fd5b80600160008573ffffffffffffffffffffffffffffffffffffffff1673ffffffffffffffffffffffffffffffffffffffff16815260200190815260200160002060008473ffffffffffffffffffffffffffffffffffffffff1673ffffffffffffffffffffffffffffffffffffffff16815260200190815260200160002060006101000a81548160ff0219169083151502179055508173ffffffffffffffffffffffffffffffffffffffff168373ffffffffffffffffffffffffffffffffffffffff167f17307eab39ab6107e8899845ad3d59bd9653f200f220920489ca2b5937696c3183604051612fda919061522b565b60405180910390a3505050565b600073ffffffffffffffffffffffffffffffffffffffff168473ffffffffffffffffffffffffffffffffffffffff161415613057576040517f08c379a000000000000000000000000000000000000000000000000000000000815260040161304e9061535b565b60405180910390fd5b600061306161194c565b9050600061306e85613620565b9050600061307b85613620565b905061308b83898985858961341b565b600080600088815260200190815260200160002060008a73ffffffffffffffffffffffffffffffffffffffff1673ffffffffffffffffffffffffffffffffffffffff16815260200190815260200160002054905085811015613122576040517f08c379a00000000000000000000000000000000000000000000000000000000081526004016131199061539b565b60405180910390fd5b85810360008089815260200190815260200160002060008b73ffffffffffffffffffffffffffffffffffffffff1673ffffffffffffffffffffffffffffffffffffffff168152602001908152602001600020819055508560008089815260200190815260200160002060008a73ffffffffffffffffffffffffffffffffffffffff1673ffffffffffffffffffffffffffffffffffffffff16815260200190815260200160002060008282546131d791906156a5565b925050819055508773ffffffffffffffffffffffffffffffffffffffff168973ffffffffffffffffffffffffffffffffffffffff168573ffffffffffffffffffffffffffffffffffffffff167fc3d58168c5ae7397731d063d5bbf3d657854427343f4c083240f7aacaa2d0f628a8a6040516132549291906154d5565b60405180910390a461326a848a8a86868a613431565b613278848a8a8a8a8a6136e6565b505050505050505050565b6060600280546132929061585c565b80601f01602080910402602001604051908101604052809291908181526020018280546132be9061585c565b801561330b5780601f106132e05761010080835404028352916020019161330b565b820191906000526020600020905b8154815290600101906020018083116132ee57829003601f168201915b50505050509050919050565b61332181836138cd565b613372600c6000600a54815260200190815260200160002060009054906101000a900473ffffffffffffffffffffffffffffffffffffffff1683600160405180602001604052806000815250613ca0565b6000613393600d600085815260200190815260200160002060110154611ec6565b60096040516020016133a692919061504a565b60405160208183030381529060405290506133c18382611a39565b7fb2a1f51d777efb8e87fbaeec7e603c6954a4601286c518c334f426b070523031836133ec85610ca7565b600d600087815260200190815260200160002060405161340e93929190615496565b60405180910390a1505050565b613429868686868686613e51565b505050505050565b505050505050565b6134588473ffffffffffffffffffffffffffffffffffffffff166140bb565b15613618578373ffffffffffffffffffffffffffffffffffffffff1663bc197c8187878686866040518663ffffffff1660e01b815260040161349e959493929190615110565b602060405180830381600087803b1580156134b857600080fd5b505af19250505080156134e957506040513d601f19601f820116820180604052508101906134e69190614717565b60015b61358f576134f5615a0f565b806308c379a01415613552575061350a615eda565b806135155750613554565b806040517f08c379a00000000000000000000000000000000000000000000000000000000081526004016135499190615299565b60405180910390fd5b505b6040517f08c379a0000000000000000000000000000000000000000000000000000000008152600401613586906152bb565b60405180910390fd5b63bc197c8160e01b7bffffffffffffffffffffffffffffffffffffffffffffffffffffffff1916817bffffffffffffffffffffffffffffffffffffffffffffffffffffffff191614613616576040517f08c379a000000000000000000000000000000000000000000000000000000000815260040161360d906152db565b60405180910390fd5b505b505050505050565b60606000600167ffffffffffffffff811115613665577f4e487b7100000000000000000000000000000000000000000000000000000000600052604160045260246000fd5b6040519080825280602002602001820160405280156136935781602001602082028036833780820191505090505b50905082816000815181106136d1577f4e487b7100000000000000000000000000000000000000000000000000000000600052603260045260246000fd5b60200260200101818152505080915050919050565b6137058473ffffffffffffffffffffffffffffffffffffffff166140bb565b156138c5578373ffffffffffffffffffffffffffffffffffffffff1663f23a6e6187878686866040518663ffffffff1660e01b815260040161374b959493929190615178565b602060405180830381600087803b15801561376557600080fd5b505af192505050801561379657506040513d601f19601f820116820180604052508101906137939190614717565b60015b61383c576137a2615a0f565b806308c379a014156137ff57506137b7615eda565b806137c25750613801565b806040517f08c379a00000000000000000000000000000000000000000000000000000000081526004016137f69190615299565b60405180910390fd5b505b6040517f08c379a0000000000000000000000000000000000000000000000000000000008152600401613833906152bb565b60405180910390fd5b63f23a6e6160e01b7bffffffffffffffffffffffffffffffffffffffffffffffffffffffff1916817bffffffffffffffffffffffffffffffffffffffffffffffffffffffff1916146138c3576040517f08c379a00000000000000000000000000000000000000000000000000000000081526004016138ba906152db565b60405180910390fd5b505b505050505050565b600e600080815260200190815260200160002060000154826138ef9190615922565b600d600083815260200190815260200160002060000181905550600e600060018152602001908152602001600020600001548261392c9190615922565b600d600083815260200190815260200160002060010181905550600e60006002815260200190815260200160002060000154826139699190615922565b600d600083815260200190815260200160002060020181905550600e60006003815260200190815260200160002060000154826139a69190615922565b600d600083815260200190815260200160002060030181905550600e60006004815260200190815260200160002060000154826139e39190615922565b600d600083815260200190815260200160002060040181905550600e6000600581526020019081526020016000206000015482613a209190615922565b600d600083815260200190815260200160002060050181905550600e6000600681526020019081526020016000206000015482613a5d9190615922565b600d600083815260200190815260200160002060060181905550600e6000600781526020019081526020016000206000015482613a9a9190615922565b600d600083815260200190815260200160002060070181905550600e6000600881526020019081526020016000206000015482613ad79190615922565b600d600083815260200190815260200160002060080181905550600e6000600981526020019081526020016000206000015482613b149190615922565b600d600083815260200190815260200160002060090181905550600e6000600a81526020019081526020016000206000015482613b519190615922565b600d6000838152602001908152602001600020600a0181905550600e6000600b81526020019081526020016000206000015482613b8e9190615922565b600d6000838152602001908152602001600020600b0181905550600e6000600c81526020019081526020016000206000015482613bcb9190615922565b600d6000838152602001908152602001600020600c0181905550600e6000600d81526020019081526020016000206000015482613c089190615922565b600d6000838152602001908152602001600020600d0181905550600e6000600e81526020019081526020016000206000015482613c459190615922565b600d6000838152602001908152602001600020600e0181905550600e6000600f81526020019081526020016000206000015482613c829190615922565b600d6000838152602001908152602001600020600f01819055505050565b600073ffffffffffffffffffffffffffffffffffffffff168473ffffffffffffffffffffffffffffffffffffffff161415613d10576040517f08c379a0000000000000000000000000000000000000000000000000000000008152600401613d079061545b565b60405180910390fd5b6000613d1a61194c565b90506000613d2785613620565b90506000613d3485613620565b9050613d458360008985858961341b565b8460008088815260200190815260200160002060008973ffffffffffffffffffffffffffffffffffffffff1673ffffffffffffffffffffffffffffffffffffffff1681526020019081526020016000206000828254613da491906156a5565b925050819055508673ffffffffffffffffffffffffffffffffffffffff16600073ffffffffffffffffffffffffffffffffffffffff168473ffffffffffffffffffffffffffffffffffffffff167fc3d58168c5ae7397731d063d5bbf3d657854427343f4c083240f7aacaa2d0f628989604051613e229291906154d5565b60405180910390a4613e3983600089858589613431565b613e48836000898989896136e6565b50505050505050565b613e5f8686868686866140de565b600073ffffffffffffffffffffffffffffffffffffffff168573ffffffffffffffffffffffffffffffffffffffff161415613f5d5760005b8351811015613f5b57828181518110613ed9577f4e487b7100000000000000000000000000000000000000000000000000000000600052603260045260246000fd5b602002602001015160046000868481518110613f1e577f4e487b7100000000000000000000000000000000000000000000000000000000600052603260045260246000fd5b602002602001015181526020019081526020016000206000828254613f4391906156a5565b9250508190555080613f54906158d9565b9050613e97565b505b600073ffffffffffffffffffffffffffffffffffffffff168473ffffffffffffffffffffffffffffffffffffffff1614156140b35760005b83518110156140b1576000848281518110613fd9577f4e487b7100000000000000000000000000000000000000000000000000000000600052603260045260246000fd5b60200260200101519050600084838151811061401e577f4e487b7100000000000000000000000000000000000000000000000000000000600052603260045260246000fd5b6020026020010151905060006004600084815260200190815260200160002054905081811015614083576040517f08c379a000000000000000000000000000000000000000000000000000000000815260040161407a906153db565b60405180910390fd5b8181036004600085815260200190815260200160002081905550505050806140aa906158d9565b9050613f95565b505b505050505050565b6000808273ffffffffffffffffffffffffffffffffffffffff163b119050919050565b505050505050565b8280546140f29061585c565b90600052602060002090601f016020900481019282614114576000855561415b565b82601f1061412d57805160ff191683800117855561415b565b8280016001018555821561415b579182015b8281111561415a57825182559160200191906001019061413f565b5b509050614168919061416c565b5090565b5b8082111561418557600081600090555060010161416d565b5090565b600061419c6141978461555a565b615535565b905080838252602082019050828560208602820111156141bb57600080fd5b60005b858110156141eb57816141d188826142dd565b8452602084019350602083019250506001810190506141be565b5050509392505050565b600061420861420384615586565b615535565b9050808382526020820190508285602086028201111561422757600080fd5b60005b85811015614257578161423d8882614403565b84526020840193506020830192505060018101905061422a565b5050509392505050565b600061427461426f846155b2565b615535565b90508281526020810184848401111561428c57600080fd5b61429784828561581a565b509392505050565b60006142b26142ad846155e3565b615535565b9050828152602081018484840111156142ca57600080fd5b6142d584828561581a565b509392505050565b6000813590506142ec81615f70565b92915050565b600082601f83011261430357600080fd5b8135614313848260208601614189565b91505092915050565b600082601f83011261432d57600080fd5b813561433d8482602086016141f5565b91505092915050565b60008135905061435581615f87565b92915050565b60008135905061436a81615f9e565b92915050565b60008135905061437f81615fb5565b92915050565b60008151905061439481615fb5565b92915050565b600082601f8301126143ab57600080fd5b81356143bb848260208601614261565b91505092915050565b600082601f8301126143d557600080fd5b81356143e584826020860161429f565b91505092915050565b6000813590506143fd81615fcc565b92915050565b60008135905061441281615fe3565b92915050565b60008151905061442781615fe3565b92915050565b60008135905061443c81615ffa565b92915050565b60008135905061445181616011565b92915050565b60006020828403121561446957600080fd5b6000614477848285016142dd565b91505092915050565b6000806040838503121561449357600080fd5b60006144a1858286016142dd565b92505060206144b2858286016142dd565b9150509250929050565b600080600080600060a086880312156144d457600080fd5b60006144e2888289016142dd565b95505060206144f3888289016142dd565b945050604086013567ffffffffffffffff81111561451057600080fd5b61451c8882890161431c565b935050606086013567ffffffffffffffff81111561453957600080fd5b6145458882890161431c565b925050608086013567ffffffffffffffff81111561456257600080fd5b61456e8882890161439a565b9150509295509295909350565b600080600080600060a0868803121561459357600080fd5b60006145a1888289016142dd565b95505060206145b2888289016142dd565b94505060406145c388828901614403565b93505060606145d488828901614403565b925050608086013567ffffffffffffffff8111156145f157600080fd5b6145fd8882890161439a565b9150509295509295909350565b6000806040838503121561461d57600080fd5b600061462b858286016142dd565b925050602061463c85828601614346565b9150509250929050565b6000806040838503121561465957600080fd5b6000614667858286016142dd565b925050602061467885828601614403565b9150509250929050565b6000806040838503121561469557600080fd5b600083013567ffffffffffffffff8111156146af57600080fd5b6146bb858286016142f2565b925050602083013567ffffffffffffffff8111156146d857600080fd5b6146e48582860161431c565b9150509250929050565b60006020828403121561470057600080fd5b600061470e84828501614370565b91505092915050565b60006020828403121561472957600080fd5b600061473784828501614385565b91505092915050565b60006020828403121561475257600080fd5b600082013567ffffffffffffffff81111561476c57600080fd5b614778848285016143c4565b91505092915050565b6000806000806080858703121561479757600080fd5b60006147a5878288016143ee565b94505060206147b68782880161442d565b93505060406147c787828801614442565b92505060606147d88782880161435b565b91505092959194509250565b6000602082840312156147f657600080fd5b600061480484828501614403565b91505092915050565b60006020828403121561481f57600080fd5b600061482d84828501614418565b91505092915050565b6000806040838503121561484957600080fd5b600061485785828601614403565b9250506020614868858286016142dd565b9150509250929050565b6000806040838503121561488557600080fd5b600061489385828601614403565b925050602083013567ffffffffffffffff8111156148b057600080fd5b6148bc8582860161431c565b9150509250929050565b600080604083850312156148d957600080fd5b60006148e785828601614403565b925050602083013567ffffffffffffffff81111561490457600080fd5b614910858286016143c4565b9150509250929050565b6000806040838503121561492d57600080fd5b600061493b85828601614403565b925050602061494c85828601614403565b9150509250929050565b6000806000806080858703121561496c57600080fd5b600061497a87828801614403565b945050602061498b87828801614403565b935050604061499c87828801614403565b92505060606149ad87828801614403565b91505092959194509250565b60006149c5838361500e565b60208301905092915050565b6149da8161576a565b82525050565b60006149eb82615639565b6149f58185615667565b9350614a0083615614565b8060005b83811015614a31578151614a1888826149b9565b9750614a238361565a565b925050600181019050614a04565b5085935050505092915050565b614a478161577c565b82525050565b614a5681615788565b82525050565b6000614a6782615644565b614a718185615678565b9350614a81818560208601615829565b614a8a81615a31565b840191505092915050565b6000614aa08261564f565b614aaa8185615689565b9350614aba818560208601615829565b614ac381615a31565b840191505092915050565b6000614ad98261564f565b614ae3818561569a565b9350614af3818560208601615829565b80840191505092915050565b60008154614b0c8161585c565b614b16818661569a565b94506001821660008114614b315760018114614b4257614b75565b60ff19831686528186019350614b75565b614b4b85615624565b60005b83811015614b6d57815481890152600182019150602081019050614b4e565b838801955050505b50505092915050565b6000614b8b603483615689565b9150614b9682615a5c565b604082019050919050565b6000614bae602883615689565b9150614bb982615aab565b604082019050919050565b6000614bd1602b83615689565b9150614bdc82615afa565b604082019050919050565b6000614bf4602683615689565b9150614bff82615b49565b604082019050919050565b6000614c1760078361569a565b9150614c2282615b98565b600782019050919050565b6000614c3a602983615689565b9150614c4582615bc1565b604082019050919050565b6000614c5d60078361569a565b9150614c6882615c10565b600782019050919050565b6000614c80602583615689565b9150614c8b82615c39565b604082019050919050565b6000614ca3603283615689565b9150614cae82615c88565b604082019050919050565b6000614cc6602a83615689565b9150614cd182615cd7565b604082019050919050565b6000614ce9602083615689565b9150614cf482615d26565b602082019050919050565b6000614d0c602883615689565b9150614d1782615d4f565b604082019050919050565b6000614d2f602983615689565b9150614d3a82615d9e565b604082019050919050565b6000614d52602983615689565b9150614d5d82615ded565b604082019050919050565b6000614d75602883615689565b9150614d8082615e3c565b604082019050919050565b6000614d98602183615689565b9150614da382615e8b565b604082019050919050565b61026082016000808301549050614dc48161588e565b614dd1600086018261500e565b5060018301549050614de28161588e565b614def602086018261500e565b5060028301549050614e008161588e565b614e0d604086018261500e565b5060038301549050614e1e8161588e565b614e2b606086018261500e565b5060048301549050614e3c8161588e565b614e49608086018261500e565b5060058301549050614e5a8161588e565b614e6760a086018261500e565b5060068301549050614e788161588e565b614e8560c086018261500e565b5060078301549050614e968161588e565b614ea360e086018261500e565b5060088301549050614eb48161588e565b614ec261010086018261500e565b5060098301549050614ed38161588e565b614ee161012086018261500e565b50600a8301549050614ef28161588e565b614f0061014086018261500e565b50600b8301549050614f118161588e565b614f1f61016086018261500e565b50600c8301549050614f308161588e565b614f3e61018086018261500e565b50600d8301549050614f4f8161588e565b614f5d6101a086018261500e565b50600e8301549050614f6e8161588e565b614f7c6101c086018261500e565b50600f8301549050614f8d8161588e565b614f9b6101e086018261500e565b5060108301549050614fac8161588e565b614fba61020086018261500e565b5060118301549050614fcb8161588e565b614fd961022086018261500e565b5060128301549050614fea8161588e565b614ff861024086018261500e565b5050505050565b615008816157be565b82525050565b615017816157ec565b82525050565b615026816157ec565b82525050565b615035816157f6565b82525050565b61504481615806565b82525050565b60006150568285614ace565b91506150628284614aff565b91508190509392505050565b600061507a8285614aff565b91506150868284614ace565b91508190509392505050565b600061509d82614c50565b91506150a98285614ace565b91506150b482614c0a565b91506150c08284614ace565b91508190509392505050565b60006020820190506150e160008301846149d1565b92915050565b60006040820190506150fc60008301856149d1565b61510960208301846149d1565b9392505050565b600060a08201905061512560008301886149d1565b61513260208301876149d1565b818103604083015261514481866149e0565b9050818103606083015261515881856149e0565b9050818103608083015261516c8184614a5c565b90509695505050505050565b600060a08201905061518d60008301886149d1565b61519a60208301876149d1565b6151a7604083018661501d565b6151b4606083018561501d565b81810360808301526151c68184614a5c565b90509695505050505050565b600060208201905081810360008301526151ec81846149e0565b905092915050565b6000604082019050818103600083015261520e81856149e0565b9050818103602083015261522281846149e0565b90509392505050565b60006020820190506152406000830184614a3e565b92915050565b600060a08201905061525b6000830188614a4d565b615268602083018761503b565b6152756040830186614fff565b615282606083018561502c565b61528f608083018461502c565b9695505050505050565b600060208201905081810360008301526152b38184614a95565b905092915050565b600060208201905081810360008301526152d481614b7e565b9050919050565b600060208201905081810360008301526152f481614ba1565b9050919050565b6000602082019050818103600083015261531481614bc4565b9050919050565b6000602082019050818103600083015261533481614be7565b9050919050565b6000602082019050818103600083015261535481614c2d565b9050919050565b6000602082019050818103600083015261537481614c73565b9050919050565b6000602082019050818103600083015261539481614c96565b9050919050565b600060208201905081810360008301526153b481614cb9565b9050919050565b600060208201905081810360008301526153d481614cdc565b9050919050565b600060208201905081810360008301526153f481614cff565b9050919050565b6000602082019050818103600083015261541481614d22565b9050919050565b6000602082019050818103600083015261543481614d45565b9050919050565b6000602082019050818103600083015261545481614d68565b9050919050565b6000602082019050818103600083015261547481614d8b565b9050919050565b6000602082019050615490600083018461501d565b92915050565b60006102a0820190506154ac600083018661501d565b81810360208301526154be8185614a95565b90506154cd6040830184614dae565b949350505050565b60006040820190506154ea600083018561501d565b6154f7602083018461501d565b9392505050565b6000606082019050615513600083018661501d565b615520602083018561501d565b61552d604083018461501d565b949350505050565b600061553f615550565b905061554b82826158a8565b919050565b6000604051905090565b600067ffffffffffffffff821115615575576155746159e0565b5b602082029050602081019050919050565b600067ffffffffffffffff8211156155a1576155a06159e0565b5b602082029050602081019050919050565b600067ffffffffffffffff8211156155cd576155cc6159e0565b5b6155d682615a31565b9050602081019050919050565b600067ffffffffffffffff8211156155fe576155fd6159e0565b5b61560782615a31565b9050602081019050919050565b6000819050602082019050919050565b60008190508160005260206000209050919050565b600081519050919050565b600081519050919050565b600081519050919050565b6000602082019050919050565b600082825260208201905092915050565b600082825260208201905092915050565b600082825260208201905092915050565b600081905092915050565b60006156b0826157ec565b91506156bb836157ec565b9250827fffffffffffffffffffffffffffffffffffffffffffffffffffffffffffffffff038211156156f0576156ef615953565b5b828201905092915050565b6000615706826157ec565b9150615711836157ec565b92508261572157615720615982565b5b828204905092915050565b6000615737826157ec565b9150615742836157ec565b92508282101561575557615754615953565b5b828203905092915050565b6000819050919050565b6000615775826157cc565b9050919050565b60008115159050919050565b6000819050919050565b60007fffffffff0000000000000000000000000000000000000000000000000000000082169050919050565b600061ffff82169050919050565b600073ffffffffffffffffffffffffffffffffffffffff82169050919050565b6000819050919050565b600063ffffffff82169050919050565b600067ffffffffffffffff82169050919050565b82818337600083830152505050565b60005b8381101561584757808201518184015260208101905061582c565b83811115615856576000848401525b50505050565b6000600282049050600182168061587457607f821691505b60208210811415615888576158876159b1565b5b50919050565b60006158a161589c83615a42565b615760565b9050919050565b6158b182615a31565b810181811067ffffffffffffffff821117156158d0576158cf6159e0565b5b80604052505050565b60006158e4826157ec565b91507fffffffffffffffffffffffffffffffffffffffffffffffffffffffffffffffff82141561591757615916615953565b5b600182019050919050565b600061592d826157ec565b9150615938836157ec565b92508261594857615947615982565b5b828206905092915050565b7f4e487b7100000000000000000000000000000000000000000000000000000000600052601160045260246000fd5b7f4e487b7100000000000000000000000000000000000000000000000000000000600052601260045260246000fd5b7f4e487b7100000000000000000000000000000000000000000000000000000000600052602260045260246000fd5b7f4e487b7100000000000000000000000000000000000000000000000000000000600052604160045260246000fd5b600060033d1115615a2e5760046000803e615a2b600051615a4f565b90505b90565b6000601f19601f8301169050919050565b60008160001c9050919050565b60008160e01c9050919050565b7f455243313135353a207472616e7366657220746f206e6f6e204552433131353560008201527f526563656976657220696d706c656d656e746572000000000000000000000000602082015250565b7f455243313135353a204552433131353552656365697665722072656a6563746560008201527f6420746f6b656e73000000000000000000000000000000000000000000000000602082015250565b7f455243313135353a2062616c616e636520717565727920666f7220746865207a60008201527f65726f2061646472657373000000000000000000000000000000000000000000602082015250565b7f4f776e61626c653a206e6577206f776e657220697320746865207a65726f206160008201527f6464726573730000000000000000000000000000000000000000000000000000602082015250565b7f204c6576656c2000000000000000000000000000000000000000000000000000600082015250565b7f455243313135353a2063616c6c6572206973206e6f74206f776e6572206e6f7260008201527f20617070726f7665640000000000000000000000000000000000000000000000602082015250565b7f546f6b656e202300000000000000000000000000000000000000000000000000600082015250565b7f455243313135353a207472616e7366657220746f20746865207a65726f20616460008201527f6472657373000000000000000000000000000000000000000000000000000000602082015250565b7f455243313135353a207472616e736665722063616c6c6572206973206e6f742060008201527f6f776e6572206e6f7220617070726f7665640000000000000000000000000000602082015250565b7f455243313135353a20696e73756666696369656e742062616c616e636520666f60008201527f72207472616e7366657200000000000000000000000000000000000000000000602082015250565b7f4f776e61626c653a2063616c6c6572206973206e6f7420746865206f776e6572600082015250565b7f455243313135353a206275726e20616d6f756e74206578636565647320746f7460008201527f616c537570706c79000000000000000000000000000000000000000000000000602082015250565b7f455243313135353a2073657474696e6720617070726f76616c2073746174757360008201527f20666f722073656c660000000000000000000000000000000000000000000000602082015250565b7f455243313135353a206163636f756e747320616e6420696473206c656e67746860008201527f206d69736d617463680000000000000000000000000000000000000000000000602082015250565b7f455243313135353a2069647320616e6420616d6f756e7473206c656e6774682060008201527f6d69736d61746368000000000000000000000000000000000000000000000000602082015250565b7f455243313135353a206d696e7420746f20746865207a65726f2061646472657360008201527f7300000000000000000000000000000000000000000000000000000000000000602082015250565b600060443d1015615eea57615f6d565b615ef2615550565b60043d036004823e80513d602482011167ffffffffffffffff82111715615f1a575050615f6d565b808201805167ffffffffffffffff811115615f385750505050615f6d565b80602083010160043d038501811115615f55575050505050615f6d565b615f64826020018501866158a8565b82955050505050505b90565b615f798161576a565b8114615f8457600080fd5b50565b615f908161577c565b8114615f9b57600080fd5b50565b615fa781615788565b8114615fb257600080fd5b50565b615fbe81615792565b8114615fc957600080fd5b50565b615fd5816157be565b8114615fe057600080fd5b50565b615fec816157ec565b8114615ff757600080fd5b50565b616003816157f6565b811461600e57600080fd5b50565b61601a81615806565b811461602557600080fd5b5056fea26469706673582212203b30a24dea10cc587955317adf9081a266258ce1c63fde8f68ba935446cf157564736f6c63430008040033",
  "linkReferences": {},
  "deployedLinkReferences": {}
}