{
  "_format": "hh-sol-artifact-1",
  "contractName": "BedroomNFT",
  "sourceName": "contracts/BedroomNFT.sol",
  "abi": [
    {
      "inputs": [
        {
          "internalType": "uint64",
          "name": "_subscriptionId",
          "type": "uint64"
        },
        {
          "internalType": "address",
          "name": "_vrfCoordinator",
          "type": "address"
        },
        {
          "internalType": "address",
          "name": "_link_token_contract",
          "type": "address"
        },
        {
          "internalType": "bytes32",
          "name": "_keyHash",
          "type": "bytes32"
        }
      ],
      "stateMutability": "nonpayable",
      "type": "constructor"
    },
    {
      "inputs": [
        {
          "internalType": "address",
          "name": "have",
          "type": "address"
        },
        {
          "internalType": "address",
          "name": "want",
          "type": "address"
        }
      ],
      "name": "OnlyCoordinatorCanFulfill",
      "type": "error"
    },
    {
      "anonymous": false,
      "inputs": [
        {
          "indexed": true,
          "internalType": "address",
          "name": "account",
          "type": "address"
        },
        {
          "indexed": true,
          "internalType": "address",
          "name": "operator",
          "type": "address"
        },
        {
          "indexed": false,
          "internalType": "bool",
          "name": "approved",
          "type": "bool"
        }
      ],
      "name": "ApprovalForAll",
      "type": "event"
    },
    {
      "anonymous": false,
      "inputs": [
        {
          "indexed": false,
          "internalType": "uint256",
          "name": "_tokenID",
          "type": "uint256"
        },
        {
          "indexed": false,
          "internalType": "string",
          "name": "_tokenURI",
          "type": "string"
        },
        {
          "components": [
            {
              "internalType": "string",
              "name": "name",
              "type": "string"
            },
            {
              "internalType": "uint256",
              "name": "nbUpgrades",
              "type": "uint256"
            },
            {
              "internalType": "uint256",
              "name": "lightIsolationScore",
              "type": "uint256"
            },
            {
              "internalType": "uint256",
              "name": "thermalIsolationScore",
              "type": "uint256"
            },
            {
              "internalType": "uint256",
              "name": "soundIsolationScore",
              "type": "uint256"
            },
            {
              "internalType": "uint256",
              "name": "temperatureScore",
              "type": "uint256"
            },
            {
              "internalType": "uint256",
              "name": "humidityScore",
              "type": "uint256"
            },
            {
              "internalType": "uint256",
              "name": "sleepAidMachinesScore",
              "type": "uint256"
            }
          ],
          "indexed": false,
          "internalType": "struct BedroomNFT.Bedroom",
          "name": "_bedroom",
          "type": "tuple"
        },
        {
          "components": [
            {
              "internalType": "uint256",
              "name": "nbUpgrades",
              "type": "uint256"
            },
            {
              "internalType": "uint256",
              "name": "sizeScore",
              "type": "uint256"
            },
            {
              "internalType": "uint256",
              "name": "heightScore",
              "type": "uint256"
            },
            {
              "internalType": "uint256",
              "name": "bedBaseScore",
              "type": "uint256"
            },
            {
              "internalType": "uint256",
              "name": "mattressTechnologyScore",
              "type": "uint256"
            },
            {
              "internalType": "uint256",
              "name": "mattressThicknessScore",
              "type": "uint256"
            },
            {
              "internalType": "uint256",
              "name": "mattressDeformationScore",
              "type": "uint256"
            },
            {
              "internalType": "uint256",
              "name": "thermalIsolationScore",
              "type": "uint256"
            },
            {
              "internalType": "uint256",
              "name": "hygrometricRegulationScore",
              "type": "uint256"
            },
            {
              "internalType": "uint256",
              "name": "comforterComfortabilityScore",
              "type": "uint256"
            },
            {
              "internalType": "uint256",
              "name": "pillowComfortabilityScore",
              "type": "uint256"
            }
          ],
          "indexed": false,
          "internalType": "struct BedroomNFT.Bed",
          "name": "_bed",
          "type": "tuple"
        },
        {
          "indexed": false,
          "internalType": "address",
          "name": "_owner",
          "type": "address"
        }
      ],
      "name": "MintingBedroomNFT",
      "type": "event"
    },
    {
      "anonymous": false,
      "inputs": [
        {
          "indexed": true,
          "internalType": "address",
          "name": "previousOwner",
          "type": "address"
        },
        {
          "indexed": true,
          "internalType": "address",
          "name": "newOwner",
          "type": "address"
        }
      ],
      "name": "OwnershipTransferred",
      "type": "event"
    },
    {
      "anonymous": false,
      "inputs": [
        {
          "indexed": true,
          "internalType": "address",
          "name": "operator",
          "type": "address"
        },
        {
          "indexed": true,
          "internalType": "address",
          "name": "from",
          "type": "address"
        },
        {
          "indexed": true,
          "internalType": "address",
          "name": "to",
          "type": "address"
        },
        {
          "indexed": false,
          "internalType": "uint256[]",
          "name": "ids",
          "type": "uint256[]"
        },
        {
          "indexed": false,
          "internalType": "uint256[]",
          "name": "values",
          "type": "uint256[]"
        }
      ],
      "name": "TransferBatch",
      "type": "event"
    },
    {
      "anonymous": false,
      "inputs": [
        {
          "indexed": true,
          "internalType": "address",
          "name": "operator",
          "type": "address"
        },
        {
          "indexed": true,
          "internalType": "address",
          "name": "from",
          "type": "address"
        },
        {
          "indexed": true,
          "internalType": "address",
          "name": "to",
          "type": "address"
        },
        {
          "indexed": false,
          "internalType": "uint256",
          "name": "id",
          "type": "uint256"
        },
        {
          "indexed": false,
          "internalType": "uint256",
          "name": "value",
          "type": "uint256"
        }
      ],
      "name": "TransferSingle",
      "type": "event"
    },
    {
      "anonymous": false,
      "inputs": [
        {
          "indexed": false,
          "internalType": "string",
          "name": "value",
          "type": "string"
        },
        {
          "indexed": true,
          "internalType": "uint256",
          "name": "id",
          "type": "uint256"
        }
      ],
      "name": "URI",
      "type": "event"
    },
    {
      "anonymous": false,
      "inputs": [
        {
          "indexed": false,
          "internalType": "uint256",
          "name": "_tokenID",
          "type": "uint256"
        },
        {
          "indexed": false,
          "internalType": "string",
          "name": "_newTokenURI",
          "type": "string"
        },
        {
          "components": [
            {
              "internalType": "string",
              "name": "name",
              "type": "string"
            },
            {
              "internalType": "uint256",
              "name": "nbUpgrades",
              "type": "uint256"
            },
            {
              "internalType": "uint256",
              "name": "lightIsolationScore",
              "type": "uint256"
            },
            {
              "internalType": "uint256",
              "name": "thermalIsolationScore",
              "type": "uint256"
            },
            {
              "internalType": "uint256",
              "name": "soundIsolationScore",
              "type": "uint256"
            },
            {
              "internalType": "uint256",
              "name": "temperatureScore",
              "type": "uint256"
            },
            {
              "internalType": "uint256",
              "name": "humidityScore",
              "type": "uint256"
            },
            {
              "internalType": "uint256",
              "name": "sleepAidMachinesScore",
              "type": "uint256"
            }
          ],
          "indexed": false,
          "internalType": "struct BedroomNFT.Bedroom",
          "name": "_newBedroom",
          "type": "tuple"
        },
        {
          "components": [
            {
              "internalType": "uint256",
              "name": "nbUpgrades",
              "type": "uint256"
            },
            {
              "internalType": "uint256",
              "name": "sizeScore",
              "type": "uint256"
            },
            {
              "internalType": "uint256",
              "name": "heightScore",
              "type": "uint256"
            },
            {
              "internalType": "uint256",
              "name": "bedBaseScore",
              "type": "uint256"
            },
            {
              "internalType": "uint256",
              "name": "mattressTechnologyScore",
              "type": "uint256"
            },
            {
              "internalType": "uint256",
              "name": "mattressThicknessScore",
              "type": "uint256"
            },
            {
              "internalType": "uint256",
              "name": "mattressDeformationScore",
              "type": "uint256"
            },
            {
              "internalType": "uint256",
              "name": "thermalIsolationScore",
              "type": "uint256"
            },
            {
              "internalType": "uint256",
              "name": "hygrometricRegulationScore",
              "type": "uint256"
            },
            {
              "internalType": "uint256",
              "name": "comforterComfortabilityScore",
              "type": "uint256"
            },
            {
              "internalType": "uint256",
              "name": "pillowComfortabilityScore",
              "type": "uint256"
            }
          ],
          "indexed": false,
          "internalType": "struct BedroomNFT.Bed",
          "name": "_newBed",
          "type": "tuple"
        },
        {
          "indexed": false,
          "internalType": "address",
          "name": "_owner",
          "type": "address"
        }
      ],
      "name": "UpgradingBedroomNFT",
      "type": "event"
    },
    {
      "inputs": [
        {
          "internalType": "address",
          "name": "account",
          "type": "address"
        },
        {
          "internalType": "uint256",
          "name": "id",
          "type": "uint256"
        }
      ],
      "name": "balanceOf",
      "outputs": [
        {
          "internalType": "uint256",
          "name": "",
          "type": "uint256"
        }
      ],
      "stateMutability": "view",
      "type": "function"
    },
    {
      "inputs": [
        {
          "internalType": "address[]",
          "name": "accounts",
          "type": "address[]"
        },
        {
          "internalType": "uint256[]",
          "name": "ids",
          "type": "uint256[]"
        }
      ],
      "name": "balanceOfBatch",
      "outputs": [
        {
          "internalType": "uint256[]",
          "name": "",
          "type": "uint256[]"
        }
      ],
      "stateMutability": "view",
      "type": "function"
    },
    {
      "inputs": [
        {
          "internalType": "uint256",
          "name": "id",
          "type": "uint256"
        }
      ],
      "name": "exists",
      "outputs": [
        {
          "internalType": "bool",
          "name": "",
          "type": "bool"
        }
      ],
      "stateMutability": "view",
      "type": "function"
    },
    {
      "inputs": [],
      "name": "fileFormat",
      "outputs": [
        {
          "internalType": "string",
          "name": "",
          "type": "string"
        }
      ],
      "stateMutability": "view",
      "type": "function"
    },
    {
      "inputs": [
        {
          "internalType": "address",
          "name": "account",
          "type": "address"
        },
        {
          "internalType": "address",
          "name": "operator",
          "type": "address"
        }
      ],
      "name": "isApprovedForAll",
      "outputs": [
        {
          "internalType": "bool",
          "name": "",
          "type": "bool"
        }
      ],
      "stateMutability": "view",
      "type": "function"
    },
    {
      "inputs": [
        {
          "internalType": "uint256",
          "name": "_designId",
          "type": "uint256"
        },
        {
          "internalType": "address",
          "name": "_owner",
          "type": "address"
        }
      ],
      "name": "mintingBedroomNft",
      "outputs": [],
      "stateMutability": "nonpayable",
      "type": "function"
    },
    {
      "inputs": [],
      "name": "owner",
      "outputs": [
        {
          "internalType": "address",
          "name": "",
          "type": "address"
        }
      ],
      "stateMutability": "view",
      "type": "function"
    },
    {
      "inputs": [
        {
          "internalType": "uint256",
          "name": "requestId",
          "type": "uint256"
        },
        {
          "internalType": "uint256[]",
          "name": "randomWords",
          "type": "uint256[]"
        }
      ],
      "name": "rawFulfillRandomWords",
      "outputs": [],
      "stateMutability": "nonpayable",
      "type": "function"
    },
    {
      "inputs": [],
      "name": "renounceOwnership",
      "outputs": [],
      "stateMutability": "nonpayable",
      "type": "function"
    },
    {
      "inputs": [
        {
          "internalType": "address",
          "name": "from",
          "type": "address"
        },
        {
          "internalType": "address",
          "name": "to",
          "type": "address"
        },
        {
          "internalType": "uint256[]",
          "name": "ids",
          "type": "uint256[]"
        },
        {
          "internalType": "uint256[]",
          "name": "amounts",
          "type": "uint256[]"
        },
        {
          "internalType": "bytes",
          "name": "data",
          "type": "bytes"
        }
      ],
      "name": "safeBatchTransferFrom",
      "outputs": [],
      "stateMutability": "nonpayable",
      "type": "function"
    },
    {
      "inputs": [
        {
          "internalType": "address",
          "name": "from",
          "type": "address"
        },
        {
          "internalType": "address",
          "name": "to",
          "type": "address"
        },
        {
          "internalType": "uint256",
          "name": "id",
          "type": "uint256"
        },
        {
          "internalType": "uint256",
          "name": "amount",
          "type": "uint256"
        },
        {
          "internalType": "bytes",
          "name": "data",
          "type": "bytes"
        }
      ],
      "name": "safeTransferFrom",
      "outputs": [],
      "stateMutability": "nonpayable",
      "type": "function"
    },
    {
      "inputs": [
        {
          "internalType": "address",
          "name": "operator",
          "type": "address"
        },
        {
          "internalType": "bool",
          "name": "approved",
          "type": "bool"
        }
      ],
      "name": "setApprovalForAll",
      "outputs": [],
      "stateMutability": "nonpayable",
      "type": "function"
    },
    {
      "inputs": [
        {
          "internalType": "string",
          "name": "_baseURI",
          "type": "string"
        }
      ],
      "name": "setBaseURI",
      "outputs": [],
      "stateMutability": "nonpayable",
      "type": "function"
    },
    {
      "inputs": [
        {
          "internalType": "string",
          "name": "_format",
          "type": "string"
        }
      ],
      "name": "setFileFormat",
      "outputs": [],
      "stateMutability": "nonpayable",
      "type": "function"
    },
    {
      "inputs": [
        {
          "internalType": "uint256",
          "name": "_indexAttribute",
          "type": "uint256"
        },
        {
          "internalType": "uint256",
          "name": "_initialScoreMax",
          "type": "uint256"
        },
        {
          "internalType": "uint256",
          "name": "_upgradeIncreases",
          "type": "uint256"
        }
      ],
      "name": "setThresholds",
      "outputs": [],
      "stateMutability": "nonpayable",
      "type": "function"
    },
    {
      "inputs": [
        {
          "internalType": "uint256",
          "name": "_tokenId",
          "type": "uint256"
        },
        {
          "internalType": "string",
          "name": "_tokenURI",
          "type": "string"
        }
      ],
      "name": "setTokenURI",
      "outputs": [],
      "stateMutability": "nonpayable",
      "type": "function"
    },
    {
      "inputs": [
        {
          "internalType": "bytes4",
          "name": "interfaceId",
          "type": "bytes4"
        }
      ],
      "name": "supportsInterface",
      "outputs": [
        {
          "internalType": "bool",
          "name": "",
          "type": "bool"
        }
      ],
      "stateMutability": "view",
      "type": "function"
    },
    {
      "inputs": [
        {
          "internalType": "uint256",
          "name": "",
          "type": "uint256"
        }
      ],
      "name": "thresholds",
      "outputs": [
        {
          "internalType": "uint256",
          "name": "initialScoreMax",
          "type": "uint256"
        },
        {
          "internalType": "uint256",
          "name": "upgradeIncreases",
          "type": "uint256"
        },
        {
          "internalType": "uint256",
          "name": "levelToUnlock",
          "type": "uint256"
        }
      ],
      "stateMutability": "view",
      "type": "function"
    },
    {
      "inputs": [],
      "name": "tokenId",
      "outputs": [
        {
          "internalType": "uint256",
          "name": "",
          "type": "uint256"
        }
      ],
      "stateMutability": "view",
      "type": "function"
    },
    {
      "inputs": [
        {
          "internalType": "uint256",
          "name": "",
          "type": "uint256"
        }
      ],
      "name": "tokenIdToBed",
      "outputs": [
        {
          "internalType": "uint256",
          "name": "nbUpgrades",
          "type": "uint256"
        },
        {
          "internalType": "uint256",
          "name": "sizeScore",
          "type": "uint256"
        },
        {
          "internalType": "uint256",
          "name": "heightScore",
          "type": "uint256"
        },
        {
          "internalType": "uint256",
          "name": "bedBaseScore",
          "type": "uint256"
        },
        {
          "internalType": "uint256",
          "name": "mattressTechnologyScore",
          "type": "uint256"
        },
        {
          "internalType": "uint256",
          "name": "mattressThicknessScore",
          "type": "uint256"
        },
        {
          "internalType": "uint256",
          "name": "mattressDeformationScore",
          "type": "uint256"
        },
        {
          "internalType": "uint256",
          "name": "thermalIsolationScore",
          "type": "uint256"
        },
        {
          "internalType": "uint256",
          "name": "hygrometricRegulationScore",
          "type": "uint256"
        },
        {
          "internalType": "uint256",
          "name": "comforterComfortabilityScore",
          "type": "uint256"
        },
        {
          "internalType": "uint256",
          "name": "pillowComfortabilityScore",
          "type": "uint256"
        }
      ],
      "stateMutability": "view",
      "type": "function"
    },
    {
      "inputs": [
        {
          "internalType": "uint256",
          "name": "",
          "type": "uint256"
        }
      ],
      "name": "tokenIdToBedroom",
      "outputs": [
        {
          "internalType": "string",
          "name": "name",
          "type": "string"
        },
        {
          "internalType": "uint256",
          "name": "nbUpgrades",
          "type": "uint256"
        },
        {
          "internalType": "uint256",
          "name": "lightIsolationScore",
          "type": "uint256"
        },
        {
          "internalType": "uint256",
          "name": "thermalIsolationScore",
          "type": "uint256"
        },
        {
          "internalType": "uint256",
          "name": "soundIsolationScore",
          "type": "uint256"
        },
        {
          "internalType": "uint256",
          "name": "temperatureScore",
          "type": "uint256"
        },
        {
          "internalType": "uint256",
          "name": "humidityScore",
          "type": "uint256"
        },
        {
          "internalType": "uint256",
          "name": "sleepAidMachinesScore",
          "type": "uint256"
        }
      ],
      "stateMutability": "view",
      "type": "function"
    },
    {
      "inputs": [
        {
          "internalType": "uint256",
          "name": "",
          "type": "uint256"
        }
      ],
      "name": "tokenIdToInfos",
      "outputs": [
        {
          "internalType": "address",
          "name": "owner",
          "type": "address"
        },
        {
          "internalType": "uint256",
          "name": "price",
          "type": "uint256"
        },
        {
          "internalType": "uint256",
          "name": "designId",
          "type": "uint256"
        }
      ],
      "stateMutability": "view",
      "type": "function"
    },
    {
      "inputs": [
        {
          "internalType": "uint256",
          "name": "id",
          "type": "uint256"
        }
      ],
      "name": "totalSupply",
      "outputs": [
        {
          "internalType": "uint256",
          "name": "",
          "type": "uint256"
        }
      ],
      "stateMutability": "view",
      "type": "function"
    },
    {
      "inputs": [
        {
          "internalType": "address",
          "name": "newOwner",
          "type": "address"
        }
      ],
      "name": "transferOwnership",
      "outputs": [],
      "stateMutability": "nonpayable",
      "type": "function"
    },
    {
      "inputs": [
        {
          "internalType": "uint256",
          "name": "_tokenId",
          "type": "uint256"
        },
        {
          "internalType": "uint256",
          "name": "_newDesignId",
          "type": "uint256"
        },
        {
          "internalType": "bool",
          "name": "_upgradeType",
          "type": "bool"
        }
      ],
      "name": "upgradeBedroomNft",
      "outputs": [],
      "stateMutability": "nonpayable",
      "type": "function"
    },
    {
      "inputs": [
        {
          "internalType": "uint256",
          "name": "_tokenId",
          "type": "uint256"
        }
      ],
      "name": "uri",
      "outputs": [
        {
          "internalType": "string",
          "name": "",
          "type": "string"
        }
      ],
      "stateMutability": "view",
      "type": "function"
    }
  ],
  "bytecode": "0x61018060405260405180602001604052806000815250600590805190602001906200002c929190620002b6565b503480156200003a57600080fd5b50604051620060ab380380620060ab8339818101604052810190620000609190620003ab565b60405180602001604052806000815250838073ffffffffffffffffffffffffffffffffffffffff1660808173ffffffffffffffffffffffffffffffffffffffff1660601b8152505050620000ba81620001cc60201b60201c565b50620000db620000cf620001e860201b60201c565b620001f060201b60201c565b8273ffffffffffffffffffffffffffffffffffffffff1660a08173ffffffffffffffffffffffffffffffffffffffff1660601b815250508173ffffffffffffffffffffffffffffffffffffffff1660c08173ffffffffffffffffffffffffffffffffffffffff1660601b815250508367ffffffffffffffff1660e08167ffffffffffffffff1660c01b81525050806101008181525050620186a063ffffffff166101208163ffffffff1660e01b81525050600361ffff166101408161ffff1660f01b81525050600163ffffffff166101608163ffffffff1660e01b815250506000600881905550505050506200051c565b8060029080519060200190620001e4929190620002b6565b5050565b600033905090565b6000600360009054906101000a900473ffffffffffffffffffffffffffffffffffffffff16905081600360006101000a81548173ffffffffffffffffffffffffffffffffffffffff021916908373ffffffffffffffffffffffffffffffffffffffff1602179055508173ffffffffffffffffffffffffffffffffffffffff168173ffffffffffffffffffffffffffffffffffffffff167f8be0079c531659141344cd1fd0a4f28419497f9722a3daafe3b4186f6b6457e060405160405180910390a35050565b828054620002c49062000469565b90600052602060002090601f016020900481019282620002e8576000855562000334565b82601f106200030357805160ff191683800117855562000334565b8280016001018555821562000334579182015b828111156200033357825182559160200191906001019062000316565b5b50905062000343919062000347565b5090565b5b808211156200036257600081600090555060010162000348565b5090565b6000815190506200037781620004ce565b92915050565b6000815190506200038e81620004e8565b92915050565b600081519050620003a58162000502565b92915050565b60008060008060808587031215620003c257600080fd5b6000620003d28782880162000394565b9450506020620003e58782880162000366565b9350506040620003f88782880162000366565b92505060606200040b878288016200037d565b91505092959194509250565b6000620004248262000435565b9050919050565b6000819050919050565b600073ffffffffffffffffffffffffffffffffffffffff82169050919050565b600067ffffffffffffffff82169050919050565b600060028204905060018216806200048257607f821691505b602082108114156200049957620004986200049f565b5b50919050565b7f4e487b7100000000000000000000000000000000000000000000000000000000600052602260045260246000fd5b620004d98162000417565b8114620004e557600080fd5b50565b620004f3816200042b565b8114620004ff57600080fd5b50565b6200050d8162000455565b81146200051957600080fd5b50565b60805160601c60a05160601c60c05160601c60e05160c01c610100516101205160e01c6101405160f01c6101605160e01c615b106200059b60003960006108ac0152600061086a0152600061088b015260006108280152600061084901526000505060006107ec015260008181610a7c0152610ad00152615b106000f3fe608060405234801561001057600080fd5b506004361061018d5760003560e01c8063637344d4116100de578063a22cb46511610097578063bd85b03911610071578063bd85b039146104b7578063e985e9c5146104e7578063f242432a14610517578063f2fde38b146105335761018d565b8063a22cb4651461044d578063a6a0b2a414610469578063b6c22611146104855761018d565b8063637344d41461037a5780636bceb74f146103b4578063715018a6146103eb5780638b67ce4e146103f55780638da5cb5b146104115780639ef122ae1461042f5761018d565b806319a59b1a1161014b5780632eb2c2d6116101255780632eb2c2d6146102e25780634e1273f4146102fe5780634f558e791461032e57806355f804b31461035e5761018d565b806319a59b1a146102785780631fe543e314610294578063270650fa146102b05761018d565b8062fdd58e1461019257806301ffc9a7146101c257806307232a49146101f25780630e89341c1461020e578063162094c41461023e57806317d70f7c1461025a575b600080fd5b6101ac60048036038101906101a791906142fb565b61054f565b6040516101b99190614f4e565b60405180910390f35b6101dc60048036038101906101d791906143a3565b610618565b6040516101e99190614c79565b60405180910390f35b61020c60048036038101906102079190614488565b6106fa565b005b61022860048036038101906102239190614436565b610942565b6040516102359190614ce7565b60405180910390f35b61025860048036038101906102539190614518565b610954565b005b6102626109de565b60405161026f9190614f4e565b60405180910390f35b610292600480360381019061028d91906143f5565b6109e4565b005b6102ae60048036038101906102a991906144c4565b610a7a565b005b6102ca60048036038101906102c59190614436565b610b3a565b6040516102d993929190614be9565b60405180910390f35b6102fc60048036038101906102f79190614171565b610b84565b005b61031860048036038101906103139190614337565b610c25565b6040516103259190614c20565b60405180910390f35b61034860048036038101906103439190614436565b610dd6565b6040516103559190614c79565b60405180910390f35b610378600480360381019061037391906143f5565b610dea565b005b610394600480360381019061038f9190614436565b610e72565b6040516103ab9b9a99989796959493929190614fc9565b60405180910390f35b6103ce60048036038101906103c99190614436565b610ecc565b6040516103e2989796959493929190614d09565b60405180910390f35b6103f3610f9c565b005b61040f600480360381019061040a91906145bb565b611024565b005b6104196110db565b6040516104269190614ae3565b60405180910390f35b610437611105565b6040516104449190614ce7565b60405180910390f35b610467600480360381019061046291906142bf565b611193565b005b610483600480360381019061047e919061456c565b6111a9565b005b61049f600480360381019061049a9190614436565b611282565b6040516104ae93929190614f92565b60405180910390f35b6104d160048036038101906104cc9190614436565b6112ac565b6040516104de9190614f4e565b60405180910390f35b61050160048036038101906104fc9190614135565b6112c9565b60405161050e9190614c79565b60405180910390f35b610531600480360381019061052c9190614230565b61135d565b005b61054d6004803603810190610548919061410c565b6113fe565b005b60008073ffffffffffffffffffffffffffffffffffffffff168373ffffffffffffffffffffffffffffffffffffffff1614156105c0576040517f08c379a00000000000000000000000000000000000000000000000000000000081526004016105b790614dce565b60405180910390fd5b60008083815260200190815260200160002060008473ffffffffffffffffffffffffffffffffffffffff1673ffffffffffffffffffffffffffffffffffffffff16815260200190815260200160002054905092915050565b60007fd9b67a26000000000000000000000000000000000000000000000000000000007bffffffffffffffffffffffffffffffffffffffffffffffffffffffff1916827bffffffffffffffffffffffffffffffffffffffffffffffffffffffff191614806106e357507f0e89341c000000000000000000000000000000000000000000000000000000007bffffffffffffffffffffffffffffffffffffffffffffffffffffffff1916827bffffffffffffffffffffffffffffffffffffffffffffffffffffffff1916145b806106f357506106f2826114f6565b5b9050919050565b610702611560565b73ffffffffffffffffffffffffffffffffffffffff166107206110db565b73ffffffffffffffffffffffffffffffffffffffff1614610776576040517f08c379a000000000000000000000000000000000000000000000000000000000815260040161076d90614e8e565b60405180910390fd5b8060096000600854815260200190815260200160002060000160006101000a81548173ffffffffffffffffffffffffffffffffffffffff021916908373ffffffffffffffffffffffffffffffffffffffff16021790555081600960006008548152602001908152602001600020600201819055507f000000000000000000000000000000000000000000000000000000000000000073ffffffffffffffffffffffffffffffffffffffff16635d3b1d307f00000000000000000000000000000000000000000000000000000000000000007f00000000000000000000000000000000000000000000000000000000000000007f00000000000000000000000000000000000000000000000000000000000000007f00000000000000000000000000000000000000000000000000000000000000007f00000000000000000000000000000000000000000000000000000000000000006040518663ffffffff1660e01b81526004016108eb959493929190614c94565b602060405180830381600087803b15801561090557600080fd5b505af1158015610919573d6000803e3d6000fd5b505050506040513d601f19601f8201168201806040525081019061093d919061445f565b505050565b606061094d82611568565b9050919050565b61095c611560565b73ffffffffffffffffffffffffffffffffffffffff1661097a6110db565b73ffffffffffffffffffffffffffffffffffffffff16146109d0576040517f08c379a00000000000000000000000000000000000000000000000000000000081526004016109c790614e8e565b60405180910390fd5b6109da828261164d565b5050565b60085481565b6109ec611560565b73ffffffffffffffffffffffffffffffffffffffff16610a0a6110db565b73ffffffffffffffffffffffffffffffffffffffff1614610a60576040517f08c379a0000000000000000000000000000000000000000000000000000000008152600401610a5790614e8e565b60405180910390fd5b8060079080519060200190610a76929190613def565b5050565b7f000000000000000000000000000000000000000000000000000000000000000073ffffffffffffffffffffffffffffffffffffffff163373ffffffffffffffffffffffffffffffffffffffff1614610b2c57337f00000000000000000000000000000000000000000000000000000000000000006040517f1cf993f4000000000000000000000000000000000000000000000000000000008152600401610b23929190614afe565b60405180910390fd5b610b3682826116b9565b5050565b60096020528060005260406000206000915090508060000160009054906101000a900473ffffffffffffffffffffffffffffffffffffffff16908060010154908060020154905083565b610b8c611560565b73ffffffffffffffffffffffffffffffffffffffff168573ffffffffffffffffffffffffffffffffffffffff161480610bd25750610bd185610bcc611560565b6112c9565b5b610c11576040517f08c379a0000000000000000000000000000000000000000000000000000000008152600401610c0890614e4e565b60405180910390fd5b610c1e85858585856117fd565b5050505050565b60608151835114610c6b576040517f08c379a0000000000000000000000000000000000000000000000000000000008152600401610c6290614eee565b60405180910390fd5b6000835167ffffffffffffffff811115610cae577f4e487b7100000000000000000000000000000000000000000000000000000000600052604160045260246000fd5b604051908082528060200260200182016040528015610cdc5781602001602082028036833780820191505090505b50905060005b8451811015610dcb57610d75858281518110610d27577f4e487b7100000000000000000000000000000000000000000000000000000000600052603260045260246000fd5b6020026020010151858381518110610d68577f4e487b7100000000000000000000000000000000000000000000000000000000600052603260045260246000fd5b602002602001015161054f565b828281518110610dae577f4e487b7100000000000000000000000000000000000000000000000000000000600052603260045260246000fd5b60200260200101818152505080610dc4906153f4565b9050610ce2565b508091505092915050565b600080610de2836112ac565b119050919050565b610df2611560565b73ffffffffffffffffffffffffffffffffffffffff16610e106110db565b73ffffffffffffffffffffffffffffffffffffffff1614610e66576040517f08c379a0000000000000000000000000000000000000000000000000000000008152600401610e5d90614e8e565b60405180910390fd5b610e6f81611b6b565b50565b600b60205280600052604060002060009150905080600001549080600101549080600201549080600301549080600401549080600501549080600601549080600701549080600801549080600901549080600a015490508b565b600a602052806000526040600020600091509050806000018054610eef90615391565b80601f0160208091040260200160405190810160405280929190818152602001828054610f1b90615391565b8015610f685780601f10610f3d57610100808354040283529160200191610f68565b820191906000526020600020905b815481529060010190602001808311610f4b57829003601f168201915b5050505050908060010154908060020154908060030154908060040154908060050154908060060154908060070154905088565b610fa4611560565b73ffffffffffffffffffffffffffffffffffffffff16610fc26110db565b73ffffffffffffffffffffffffffffffffffffffff1614611018576040517f08c379a000000000000000000000000000000000000000000000000000000000815260040161100f90614e8e565b60405180910390fd5b6110226000611b85565b565b61102c611560565b73ffffffffffffffffffffffffffffffffffffffff1661104a6110db565b73ffffffffffffffffffffffffffffffffffffffff16146110a0576040517f08c379a000000000000000000000000000000000000000000000000000000000815260040161109790614e8e565b60405180910390fd5b81600c60008581526020019081526020016000206000018190555080600c600085815260200190815260200160002060010181905550505050565b6000600360009054906101000a900473ffffffffffffffffffffffffffffffffffffffff16905090565b6007805461111290615391565b80601f016020809104026020016040519081016040528092919081815260200182805461113e90615391565b801561118b5780601f106111605761010080835404028352916020019161118b565b820191906000526020600020905b81548152906001019060200180831161116e57829003601f168201915b505050505081565b6111a561119e611560565b8383611c4b565b5050565b6111b1611560565b73ffffffffffffffffffffffffffffffffffffffff166111cf6110db565b73ffffffffffffffffffffffffffffffffffffffff1614611225576040517f08c379a000000000000000000000000000000000000000000000000000000000815260040161121c90614e8e565b60405180910390fd5b80156112395761123483611db8565b611243565b6112428361235c565b5b600061124e83612bd3565b6007604051602001611261929190614a4a565b604051602081830303815290604052905061127c848261164d565b50505050565b600c6020528060005260406000206000915090508060000154908060010154908060020154905083565b600060046000838152602001908152602001600020549050919050565b6000600160008473ffffffffffffffffffffffffffffffffffffffff1673ffffffffffffffffffffffffffffffffffffffff16815260200190815260200160002060008373ffffffffffffffffffffffffffffffffffffffff1673ffffffffffffffffffffffffffffffffffffffff16815260200190815260200160002060009054906101000a900460ff16905092915050565b611365611560565b73ffffffffffffffffffffffffffffffffffffffff168573ffffffffffffffffffffffffffffffffffffffff1614806113ab57506113aa856113a5611560565b6112c9565b5b6113ea576040517f08c379a00000000000000000000000000000000000000000000000000000000081526004016113e190614e0e565b60405180910390fd5b6113f78585858585612d80565b5050505050565b611406611560565b73ffffffffffffffffffffffffffffffffffffffff166114246110db565b73ffffffffffffffffffffffffffffffffffffffff161461147a576040517f08c379a000000000000000000000000000000000000000000000000000000000815260040161147190614e8e565b60405180910390fd5b600073ffffffffffffffffffffffffffffffffffffffff168173ffffffffffffffffffffffffffffffffffffffff1614156114ea576040517f08c379a00000000000000000000000000000000000000000000000000000000081526004016114e190614dee565b60405180910390fd5b6114f381611b85565b50565b60007f01ffc9a7000000000000000000000000000000000000000000000000000000007bffffffffffffffffffffffffffffffffffffffffffffffffffffffff1916827bffffffffffffffffffffffffffffffffffffffffffffffffffffffff1916149050919050565b600033905090565b6060600060066000848152602001908152602001600020805461158a90615391565b80601f01602080910402602001604051908101604052809291908181526020018280546115b690615391565b80156116035780601f106115d857610100808354040283529160200191611603565b820191906000526020600020905b8154815290600101906020018083116115e657829003601f168201915b5050505050905060008151116116215761161c8361301c565b611645565b600581604051602001611635929190614a6e565b6040516020818303038152906040525b915050919050565b80600660008481526020019081526020016000209080519060200190611674929190613def565b50817f6bb7ff708619ba0610cba295a58592e0451dee2622938c8755667688daf3529b6116a084610942565b6040516116ad9190614ce7565b60405180910390a25050565b6000600854905061170b826000815181106116fd577f4e487b7100000000000000000000000000000000000000000000000000000000600052603260045260246000fd5b6020026020010151826130b0565b61175682600081518110611748577f4e487b7100000000000000000000000000000000000000000000000000000000600052603260045260246000fd5b602002602001015182613291565b6117a86009600083815260200190815260200160002060000160009054906101000a900473ffffffffffffffffffffffffffffffffffffffff16826001604051806020016040528060008152506134f7565b60006117c96009600084815260200190815260200160002060020154612bd3565b60076040516020016117dc929190614a4a565b60405160208183030381529060405290506117f7828261164d565b50505050565b8151835114611841576040517f08c379a000000000000000000000000000000000000000000000000000000000815260040161183890614f0e565b60405180910390fd5b600073ffffffffffffffffffffffffffffffffffffffff168473ffffffffffffffffffffffffffffffffffffffff1614156118b1576040517f08c379a00000000000000000000000000000000000000000000000000000000081526004016118a890614e2e565b60405180910390fd5b60006118bb611560565b90506118cb8187878787876136a8565b60005b8451811015611ac8576000858281518110611912577f4e487b7100000000000000000000000000000000000000000000000000000000600052603260045260246000fd5b602002602001015190506000858381518110611957577f4e487b7100000000000000000000000000000000000000000000000000000000600052603260045260246000fd5b60200260200101519050600080600084815260200190815260200160002060008b73ffffffffffffffffffffffffffffffffffffffff1673ffffffffffffffffffffffffffffffffffffffff168152602001908152602001600020549050818110156119f8576040517f08c379a00000000000000000000000000000000000000000000000000000000081526004016119ef90614e6e565b60405180910390fd5b81810360008085815260200190815260200160002060008c73ffffffffffffffffffffffffffffffffffffffff1673ffffffffffffffffffffffffffffffffffffffff168152602001908152602001600020819055508160008085815260200190815260200160002060008b73ffffffffffffffffffffffffffffffffffffffff1673ffffffffffffffffffffffffffffffffffffffff1681526020019081526020016000206000828254611aad91906151e4565b9250508190555050505080611ac1906153f4565b90506118ce565b508473ffffffffffffffffffffffffffffffffffffffff168673ffffffffffffffffffffffffffffffffffffffff168273ffffffffffffffffffffffffffffffffffffffff167f4a39dc06d4c0dbc64b70af90fd698a233a518aa5d07e595d983b8c0526c8f7fb8787604051611b3f929190614c42565b60405180910390a4611b558187878787876136be565b611b638187878787876136c6565b505050505050565b8060059080519060200190611b81929190613def565b5050565b6000600360009054906101000a900473ffffffffffffffffffffffffffffffffffffffff16905081600360006101000a81548173ffffffffffffffffffffffffffffffffffffffff021916908373ffffffffffffffffffffffffffffffffffffffff1602179055508173ffffffffffffffffffffffffffffffffffffffff168173ffffffffffffffffffffffffffffffffffffffff167f8be0079c531659141344cd1fd0a4f28419497f9722a3daafe3b4186f6b6457e060405160405180910390a35050565b8173ffffffffffffffffffffffffffffffffffffffff168373ffffffffffffffffffffffffffffffffffffffff161415611cba576040517f08c379a0000000000000000000000000000000000000000000000000000000008152600401611cb190614ece565b60405180910390fd5b80600160008573ffffffffffffffffffffffffffffffffffffffff1673ffffffffffffffffffffffffffffffffffffffff16815260200190815260200160002060008473ffffffffffffffffffffffffffffffffffffffff1673ffffffffffffffffffffffffffffffffffffffff16815260200190815260200160002060006101000a81548160ff0219169083151502179055508173ffffffffffffffffffffffffffffffffffffffff168373ffffffffffffffffffffffffffffffffffffffff167f17307eab39ab6107e8899845ad3d59bd9653f200f220920489ca2b5937696c3183604051611dab9190614c79565b60405180910390a3505050565b600a60008281526020019081526020016000206001016000815480929190611ddf906153f4565b9190505550600a6000828152602001908152602001600020600001611e19600a600084815260200190815260200160002060010154612bd3565b604051602001611e2a929190614a92565b604051602081830303815290604052600a60008381526020019081526020016000206000019080519060200190611e62929190613def565b50600c60006004815260200190815260200160002060020154600a60008381526020019081526020016000206001015410611f37576000600a60008381526020019081526020016000206006015490506064811015611f3557600c6000600481526020019081526020016000206001015481611ede91906151e4565b600a6000848152602001908152602001600020600601819055506064600a6000848152602001908152602001600020600601541115611f34576064600a6000848152602001908152602001600020600601819055505b5b505b600c600080815260200190815260200160002060020154600a60008381526020019081526020016000206001015410612009576000600a6000838152602001908152602001600020600201549050606481101561200757600c60008081526020019081526020016000206001015481611fb091906151e4565b600a6000848152602001908152602001600020600201819055506064600a6000848152602001908152602001600020600201541115612006576064600a6000848152602001908152602001600020600201819055505b5b505b600c60006001815260200190815260200160002060020154600a600083815260200190815260200160002060010154106120dd576000600a600083815260200190815260200160002060030154905060648110156120db57600c600060018152602001908152602001600020600101548161208491906151e4565b600a6000848152602001908152602001600020600301819055506064600a60008481526020019081526020016000206003015411156120da576064600a6000848152602001908152602001600020600301819055505b5b505b600c60006002815260200190815260200160002060020154600a600083815260200190815260200160002060010154106121b1576000600a600083815260200190815260200160002060040154905060648110156121af57600c600060028152602001908152602001600020600101548161215891906151e4565b600a6000848152602001908152602001600020600401819055506064600a60008481526020019081526020016000206004015411156121ae576064600a6000848152602001908152602001600020600401819055505b5b505b600c60006003815260200190815260200160002060020154600a60008381526020019081526020016000206001015410612285576000600a6000838152602001908152602001600020600501549050606481101561228357600c600060038152602001908152602001600020600101548161222c91906151e4565b600a6000848152602001908152602001600020600501819055506064600a6000848152602001908152602001600020600501541115612282576064600a6000848152602001908152602001600020600501819055505b5b505b600c60006005815260200190815260200160002060020154600a60008381526020019081526020016000206001015410612359576000600a6000838152602001908152602001600020600701549050606481101561235757600c600060058152602001908152602001600020600101548161230091906151e4565b600a6000848152602001908152602001600020600701819055506064600a6000848152602001908152602001600020600701541115612356576064600a6000848152602001908152602001600020600701819055505b5b505b50565b600b60008281526020019081526020016000206000016000815480929190612383906153f4565b9190505550600c60006006815260200190815260200160002060020154600b6000838152602001908152602001600020600001541061245c576000600b6000838152602001908152602001600020600101549050606481101561245a57600c600060068152602001908152602001600020600101548161240391906151e4565b600b6000848152602001908152602001600020600101819055506064600b6000848152602001908152602001600020600101541115612459576064600b6000848152602001908152602001600020600101819055505b5b505b600c60006007815260200190815260200160002060020154600b60008381526020019081526020016000206000015410612530576000600b6000838152602001908152602001600020600201549050606481101561252e57600c60006007815260200190815260200160002060010154816124d791906151e4565b600b6000848152602001908152602001600020600201819055506064600b600084815260200190815260200160002060020154111561252d576064600b6000848152602001908152602001600020600201819055505b5b505b600c60006008815260200190815260200160002060020154600b60008381526020019081526020016000206000015410612604576000600b6000838152602001908152602001600020600301549050606481101561260257600c60006008815260200190815260200160002060010154816125ab91906151e4565b600b6000848152602001908152602001600020600301819055506064600b6000848152602001908152602001600020600301541115612601576064600b6000848152602001908152602001600020600301819055505b5b505b600c60006009815260200190815260200160002060020154600b600083815260200190815260200160002060000154106126d8576000600b600083815260200190815260200160002060040154905060648110156126d657600c600060098152602001908152602001600020600101548161267f91906151e4565b600b6000848152602001908152602001600020600401819055506064600b60008481526020019081526020016000206004015411156126d5576064600b6000848152602001908152602001600020600401819055505b5b505b600c6000600a815260200190815260200160002060020154600b600083815260200190815260200160002060000154106127ac576000600b600083815260200190815260200160002060050154905060648110156127aa57600c6000600a8152602001908152602001600020600101548161275391906151e4565b600b6000848152602001908152602001600020600501819055506064600b60008481526020019081526020016000206005015411156127a9576064600b6000848152602001908152602001600020600501819055505b5b505b600c6000600b815260200190815260200160002060020154600b60008381526020019081526020016000206000015410612880576000600b6000838152602001908152602001600020600601549050606481101561287e57600c6000600b8152602001908152602001600020600101548161282791906151e4565b600b6000848152602001908152602001600020600601819055506064600b600084815260200190815260200160002060060154111561287d576064600b6000848152602001908152602001600020600601819055505b5b505b600c6000600c815260200190815260200160002060020154600b60008381526020019081526020016000206000015410612954576000600b6000838152602001908152602001600020600801549050606481101561295257600c6000600d815260200190815260200160002060010154816128fb91906151e4565b600b6000848152602001908152602001600020600801819055506064600b6000848152602001908152602001600020600801541115612951576064600b6000848152602001908152602001600020600801819055505b5b505b600c6000600d815260200190815260200160002060020154600b60008381526020019081526020016000206000015410612a28576000600b60008381526020019081526020016000206008015490506064811015612a2657600c6000600d815260200190815260200160002060010154816129cf91906151e4565b600b6000848152602001908152602001600020600801819055506064600b6000848152602001908152602001600020600801541115612a25576064600b6000848152602001908152602001600020600801819055505b5b505b600c6000600e815260200190815260200160002060020154600b60008381526020019081526020016000206000015410612afc576000600b60008381526020019081526020016000206009015490506064811015612afa57600c6000600e81526020019081526020016000206001015481612aa391906151e4565b600b6000848152602001908152602001600020600901819055506064600b6000848152602001908152602001600020600901541115612af9576064600b6000848152602001908152602001600020600901819055505b5b505b600c6000600f815260200190815260200160002060020154600b60008381526020019081526020016000206000015410612bd0576000600b6000838152602001908152602001600020600a015490506064811015612bce57600c6000600f81526020019081526020016000206001015481612b7791906151e4565b600b6000848152602001908152602001600020600a01819055506064600b6000848152602001908152602001600020600a01541115612bcd576064600b6000848152602001908152602001600020600a01819055505b5b505b50565b60606000821415612c1b576040518060400160405280600181526020017f30000000000000000000000000000000000000000000000000000000000000008152509050612d7b565b600082905060005b60008214612c4d578080612c36906153f4565b915050600a82612c46919061523a565b9150612c23565b60008167ffffffffffffffff811115612c8f577f4e487b7100000000000000000000000000000000000000000000000000000000600052604160045260246000fd5b6040519080825280601f01601f191660200182016040528015612cc15781602001600182028036833780820191505090505b5090505b60008514612d7457600182612cda919061526b565b9150600a85612ce9919061543d565b6030612cf591906151e4565b60f81b818381518110612d31577f4e487b7100000000000000000000000000000000000000000000000000000000600052603260045260246000fd5b60200101907effffffffffffffffffffffffffffffffffffffffffffffffffffffffffffff1916908160001a905350600a85612d6d919061523a565b9450612cc5565b8093505050505b919050565b600073ffffffffffffffffffffffffffffffffffffffff168473ffffffffffffffffffffffffffffffffffffffff161415612df0576040517f08c379a0000000000000000000000000000000000000000000000000000000008152600401612de790614e2e565b60405180910390fd5b6000612dfa611560565b90506000612e07856138ad565b90506000612e14856138ad565b9050612e248389898585896136a8565b600080600088815260200190815260200160002060008a73ffffffffffffffffffffffffffffffffffffffff1673ffffffffffffffffffffffffffffffffffffffff16815260200190815260200160002054905085811015612ebb576040517f08c379a0000000000000000000000000000000000000000000000000000000008152600401612eb290614e6e565b60405180910390fd5b85810360008089815260200190815260200160002060008b73ffffffffffffffffffffffffffffffffffffffff1673ffffffffffffffffffffffffffffffffffffffff168152602001908152602001600020819055508560008089815260200190815260200160002060008a73ffffffffffffffffffffffffffffffffffffffff1673ffffffffffffffffffffffffffffffffffffffff1681526020019081526020016000206000828254612f7091906151e4565b925050819055508773ffffffffffffffffffffffffffffffffffffffff168973ffffffffffffffffffffffffffffffffffffffff168573ffffffffffffffffffffffffffffffffffffffff167fc3d58168c5ae7397731d063d5bbf3d657854427343f4c083240f7aacaa2d0f628a8a604051612fed929190614f69565b60405180910390a4613003848a8a86868a6136be565b613011848a8a8a8a8a613973565b505050505050505050565b60606002805461302b90615391565b80601f016020809104026020016040519081016040528092919081815260200182805461305790615391565b80156130a45780601f10613079576101008083540402835291602001916130a4565b820191906000526020600020905b81548152906001019060200180831161308757829003601f168201915b50505050509050919050565b60006130bb82612bd3565b6040516020016130cb9190614ac1565b604051602081830303815290604052905080600a60008481526020019081526020016000206000019080519060200190613106929190613def565b50600c60008081526020019081526020016000206000015483613129919061543d565b600a600084815260200190815260200160002060020181905550600c6000600181526020019081526020016000206000015483613166919061543d565b600a600084815260200190815260200160002060030181905550600c60006002815260200190815260200160002060000154836131a3919061543d565b600a600084815260200190815260200160002060040181905550600c60006003815260200190815260200160002060000154836131e0919061543d565b600a600084815260200190815260200160002060050181905550600c600060048152602001908152602001600020600001548361321d919061543d565b600a600084815260200190815260200160002060060181905550600c600060058152602001908152602001600020600001548361325a919061543d565b600a60008481526020019081526020016000206007018190555060086000815480929190613287906153f4565b9190505550505050565b600c60006006815260200190815260200160002060000154826132b4919061543d565b600b600083815260200190815260200160002060010181905550600c60006007815260200190815260200160002060000154826132f1919061543d565b600b600083815260200190815260200160002060020181905550600c600060088152602001908152602001600020600001548261332e919061543d565b600b600083815260200190815260200160002060030181905550600c600060098152602001908152602001600020600001548261336b919061543d565b600b600083815260200190815260200160002060040181905550600c6000600a815260200190815260200160002060000154826133a8919061543d565b600b600083815260200190815260200160002060050181905550600c6000600b815260200190815260200160002060000154826133e5919061543d565b600b600083815260200190815260200160002060060181905550600c6000600c81526020019081526020016000206000015482613422919061543d565b600b600083815260200190815260200160002060070181905550600c6000600d8152602001908152602001600020600001548261345f919061543d565b600b600083815260200190815260200160002060080181905550600c6000600e8152602001908152602001600020600001548261349c919061543d565b600b600083815260200190815260200160002060090181905550600c6000600f815260200190815260200160002060000154826134d9919061543d565b600b6000838152602001908152602001600020600a01819055505050565b600073ffffffffffffffffffffffffffffffffffffffff168473ffffffffffffffffffffffffffffffffffffffff161415613567576040517f08c379a000000000000000000000000000000000000000000000000000000000815260040161355e90614f2e565b60405180910390fd5b6000613571611560565b9050600061357e856138ad565b9050600061358b856138ad565b905061359c836000898585896136a8565b8460008088815260200190815260200160002060008973ffffffffffffffffffffffffffffffffffffffff1673ffffffffffffffffffffffffffffffffffffffff16815260200190815260200160002060008282546135fb91906151e4565b925050819055508673ffffffffffffffffffffffffffffffffffffffff16600073ffffffffffffffffffffffffffffffffffffffff168473ffffffffffffffffffffffffffffffffffffffff167fc3d58168c5ae7397731d063d5bbf3d657854427343f4c083240f7aacaa2d0f628989604051613679929190614f69565b60405180910390a4613690836000898585896136be565b61369f83600089898989613973565b50505050505050565b6136b6868686868686613b5a565b505050505050565b505050505050565b6136e58473ffffffffffffffffffffffffffffffffffffffff16613dc4565b156138a5578373ffffffffffffffffffffffffffffffffffffffff1663bc197c8187878686866040518663ffffffff1660e01b815260040161372b959493929190614b27565b602060405180830381600087803b15801561374557600080fd5b505af192505050801561377657506040513d601f19601f8201168201806040525081019061377391906143cc565b60015b61381c5761378261552a565b806308c379a014156137df57506137976159e8565b806137a257506137e1565b806040517f08c379a00000000000000000000000000000000000000000000000000000000081526004016137d69190614ce7565b60405180910390fd5b505b6040517f08c379a000000000000000000000000000000000000000000000000000000000815260040161381390614d8e565b60405180910390fd5b63bc197c8160e01b7bffffffffffffffffffffffffffffffffffffffffffffffffffffffff1916817bffffffffffffffffffffffffffffffffffffffffffffffffffffffff1916146138a3576040517f08c379a000000000000000000000000000000000000000000000000000000000815260040161389a90614dae565b60405180910390fd5b505b505050505050565b60606000600167ffffffffffffffff8111156138f2577f4e487b7100000000000000000000000000000000000000000000000000000000600052604160045260246000fd5b6040519080825280602002602001820160405280156139205781602001602082028036833780820191505090505b509050828160008151811061395e577f4e487b7100000000000000000000000000000000000000000000000000000000600052603260045260246000fd5b60200260200101818152505080915050919050565b6139928473ffffffffffffffffffffffffffffffffffffffff16613dc4565b15613b52578373ffffffffffffffffffffffffffffffffffffffff1663f23a6e6187878686866040518663ffffffff1660e01b81526004016139d8959493929190614b8f565b602060405180830381600087803b1580156139f257600080fd5b505af1925050508015613a2357506040513d601f19601f82011682018060405250810190613a2091906143cc565b60015b613ac957613a2f61552a565b806308c379a01415613a8c5750613a446159e8565b80613a4f5750613a8e565b806040517f08c379a0000000000000000000000000000000000000000000000000000000008152600401613a839190614ce7565b60405180910390fd5b505b6040517f08c379a0000000000000000000000000000000000000000000000000000000008152600401613ac090614d8e565b60405180910390fd5b63f23a6e6160e01b7bffffffffffffffffffffffffffffffffffffffffffffffffffffffff1916817bffffffffffffffffffffffffffffffffffffffffffffffffffffffff191614613b50576040517f08c379a0000000000000000000000000000000000000000000000000000000008152600401613b4790614dae565b60405180910390fd5b505b505050505050565b613b68868686868686613de7565b600073ffffffffffffffffffffffffffffffffffffffff168573ffffffffffffffffffffffffffffffffffffffff161415613c665760005b8351811015613c6457828181518110613be2577f4e487b7100000000000000000000000000000000000000000000000000000000600052603260045260246000fd5b602002602001015160046000868481518110613c27577f4e487b7100000000000000000000000000000000000000000000000000000000600052603260045260246000fd5b602002602001015181526020019081526020016000206000828254613c4c91906151e4565b9250508190555080613c5d906153f4565b9050613ba0565b505b600073ffffffffffffffffffffffffffffffffffffffff168473ffffffffffffffffffffffffffffffffffffffff161415613dbc5760005b8351811015613dba576000848281518110613ce2577f4e487b7100000000000000000000000000000000000000000000000000000000600052603260045260246000fd5b602002602001015190506000848381518110613d27577f4e487b7100000000000000000000000000000000000000000000000000000000600052603260045260246000fd5b6020026020010151905060006004600084815260200190815260200160002054905081811015613d8c576040517f08c379a0000000000000000000000000000000000000000000000000000000008152600401613d8390614eae565b60405180910390fd5b818103600460008581526020019081526020016000208190555050505080613db3906153f4565b9050613c9e565b505b505050505050565b6000808273ffffffffffffffffffffffffffffffffffffffff163b119050919050565b505050505050565b828054613dfb90615391565b90600052602060002090601f016020900481019282613e1d5760008555613e64565b82601f10613e3657805160ff1916838001178555613e64565b82800160010185558215613e64579182015b82811115613e63578251825591602001919060010190613e48565b5b509050613e719190613e75565b5090565b5b80821115613e8e576000816000905550600101613e76565b5090565b6000613ea5613ea084615099565b615074565b90508083825260208201905082856020860282011115613ec457600080fd5b60005b85811015613ef45781613eda8882613fe6565b845260208401935060208301925050600181019050613ec7565b5050509392505050565b6000613f11613f0c846150c5565b615074565b90508083825260208201905082856020860282011115613f3057600080fd5b60005b85811015613f605781613f4688826140e2565b845260208401935060208301925050600181019050613f33565b5050509392505050565b6000613f7d613f78846150f1565b615074565b905082815260208101848484011115613f9557600080fd5b613fa084828561534f565b509392505050565b6000613fbb613fb684615122565b615074565b905082815260208101848484011115613fd357600080fd5b613fde84828561534f565b509392505050565b600081359050613ff581615a7e565b92915050565b600082601f83011261400c57600080fd5b813561401c848260208601613e92565b91505092915050565b600082601f83011261403657600080fd5b8135614046848260208601613efe565b91505092915050565b60008135905061405e81615a95565b92915050565b60008135905061407381615aac565b92915050565b60008151905061408881615aac565b92915050565b600082601f83011261409f57600080fd5b81356140af848260208601613f6a565b91505092915050565b600082601f8301126140c957600080fd5b81356140d9848260208601613fa8565b91505092915050565b6000813590506140f181615ac3565b92915050565b60008151905061410681615ac3565b92915050565b60006020828403121561411e57600080fd5b600061412c84828501613fe6565b91505092915050565b6000806040838503121561414857600080fd5b600061415685828601613fe6565b925050602061416785828601613fe6565b9150509250929050565b600080600080600060a0868803121561418957600080fd5b600061419788828901613fe6565b95505060206141a888828901613fe6565b945050604086013567ffffffffffffffff8111156141c557600080fd5b6141d188828901614025565b935050606086013567ffffffffffffffff8111156141ee57600080fd5b6141fa88828901614025565b925050608086013567ffffffffffffffff81111561421757600080fd5b6142238882890161408e565b9150509295509295909350565b600080600080600060a0868803121561424857600080fd5b600061425688828901613fe6565b955050602061426788828901613fe6565b9450506040614278888289016140e2565b9350506060614289888289016140e2565b925050608086013567ffffffffffffffff8111156142a657600080fd5b6142b28882890161408e565b9150509295509295909350565b600080604083850312156142d257600080fd5b60006142e085828601613fe6565b92505060206142f18582860161404f565b9150509250929050565b6000806040838503121561430e57600080fd5b600061431c85828601613fe6565b925050602061432d858286016140e2565b9150509250929050565b6000806040838503121561434a57600080fd5b600083013567ffffffffffffffff81111561436457600080fd5b61437085828601613ffb565b925050602083013567ffffffffffffffff81111561438d57600080fd5b61439985828601614025565b9150509250929050565b6000602082840312156143b557600080fd5b60006143c384828501614064565b91505092915050565b6000602082840312156143de57600080fd5b60006143ec84828501614079565b91505092915050565b60006020828403121561440757600080fd5b600082013567ffffffffffffffff81111561442157600080fd5b61442d848285016140b8565b91505092915050565b60006020828403121561444857600080fd5b6000614456848285016140e2565b91505092915050565b60006020828403121561447157600080fd5b600061447f848285016140f7565b91505092915050565b6000806040838503121561449b57600080fd5b60006144a9858286016140e2565b92505060206144ba85828601613fe6565b9150509250929050565b600080604083850312156144d757600080fd5b60006144e5858286016140e2565b925050602083013567ffffffffffffffff81111561450257600080fd5b61450e85828601614025565b9150509250929050565b6000806040838503121561452b57600080fd5b6000614539858286016140e2565b925050602083013567ffffffffffffffff81111561455657600080fd5b614562858286016140b8565b9150509250929050565b60008060006060848603121561458157600080fd5b600061458f868287016140e2565b93505060206145a0868287016140e2565b92505060406145b18682870161404f565b9150509250925092565b6000806000606084860312156145d057600080fd5b60006145de868287016140e2565b93505060206145ef868287016140e2565b9250506040614600868287016140e2565b9150509250925092565b60006146168383614a0e565b60208301905092915050565b61462b8161529f565b82525050565b600061463c82615178565b61464681856151a6565b935061465183615153565b8060005b83811015614682578151614669888261460a565b975061467483615199565b925050600181019050614655565b5085935050505092915050565b614698816152b1565b82525050565b6146a7816152bd565b82525050565b60006146b882615183565b6146c281856151b7565b93506146d281856020860161535e565b6146db8161554c565b840191505092915050565b60006146f18261518e565b6146fb81856151c8565b935061470b81856020860161535e565b6147148161554c565b840191505092915050565b600061472a8261518e565b61473481856151d9565b935061474481856020860161535e565b80840191505092915050565b6000815461475d81615391565b61476781866151d9565b945060018216600081146147825760018114614793576147c6565b60ff198316865281860193506147c6565b61479c85615163565b60005b838110156147be5781548189015260018201915060208101905061479f565b838801955050505b50505092915050565b60006147dc6034836151c8565b91506147e78261556a565b604082019050919050565b60006147ff6028836151c8565b915061480a826155b9565b604082019050919050565b6000614822602b836151c8565b915061482d82615608565b604082019050919050565b60006148456026836151c8565b915061485082615657565b604082019050919050565b60006148686029836151c8565b9150614873826156a6565b604082019050919050565b600061488b6025836151c8565b9150614896826156f5565b604082019050919050565b60006148ae6032836151c8565b91506148b982615744565b604082019050919050565b60006148d16009836151d9565b91506148dc82615793565b600982019050919050565b60006148f4602a836151c8565b91506148ff826157bc565b604082019050919050565b60006149176007836151d9565b91506149228261580b565b600782019050919050565b600061493a6020836151c8565b915061494582615834565b602082019050919050565b600061495d6028836151c8565b91506149688261585d565b604082019050919050565b60006149806029836151c8565b915061498b826158ac565b604082019050919050565b60006149a36029836151c8565b91506149ae826158fb565b604082019050919050565b60006149c66028836151c8565b91506149d18261594a565b604082019050919050565b60006149e96021836151c8565b91506149f482615999565b604082019050919050565b614a08816152f3565b82525050565b614a1781615321565b82525050565b614a2681615321565b82525050565b614a358161532b565b82525050565b614a448161533b565b82525050565b6000614a56828561471f565b9150614a628284614750565b91508190509392505050565b6000614a7a8285614750565b9150614a86828461471f565b91508190509392505050565b6000614a9e8285614750565b9150614aa9826148c4565b9150614ab5828461471f565b91508190509392505050565b6000614acc8261490a565b9150614ad8828461471f565b915081905092915050565b6000602082019050614af86000830184614622565b92915050565b6000604082019050614b136000830185614622565b614b206020830184614622565b9392505050565b600060a082019050614b3c6000830188614622565b614b496020830187614622565b8181036040830152614b5b8186614631565b90508181036060830152614b6f8185614631565b90508181036080830152614b8381846146ad565b90509695505050505050565b600060a082019050614ba46000830188614622565b614bb16020830187614622565b614bbe6040830186614a1d565b614bcb6060830185614a1d565b8181036080830152614bdd81846146ad565b90509695505050505050565b6000606082019050614bfe6000830186614622565b614c0b6020830185614a1d565b614c186040830184614a1d565b949350505050565b60006020820190508181036000830152614c3a8184614631565b905092915050565b60006040820190508181036000830152614c5c8185614631565b90508181036020830152614c708184614631565b90509392505050565b6000602082019050614c8e600083018461468f565b92915050565b600060a082019050614ca9600083018861469e565b614cb66020830187614a3b565b614cc360408301866149ff565b614cd06060830185614a2c565b614cdd6080830184614a2c565b9695505050505050565b60006020820190508181036000830152614d0181846146e6565b905092915050565b6000610100820190508181036000830152614d24818b6146e6565b9050614d33602083018a614a1d565b614d406040830189614a1d565b614d4d6060830188614a1d565b614d5a6080830187614a1d565b614d6760a0830186614a1d565b614d7460c0830185614a1d565b614d8160e0830184614a1d565b9998505050505050505050565b60006020820190508181036000830152614da7816147cf565b9050919050565b60006020820190508181036000830152614dc7816147f2565b9050919050565b60006020820190508181036000830152614de781614815565b9050919050565b60006020820190508181036000830152614e0781614838565b9050919050565b60006020820190508181036000830152614e278161485b565b9050919050565b60006020820190508181036000830152614e478161487e565b9050919050565b60006020820190508181036000830152614e67816148a1565b9050919050565b60006020820190508181036000830152614e87816148e7565b9050919050565b60006020820190508181036000830152614ea78161492d565b9050919050565b60006020820190508181036000830152614ec781614950565b9050919050565b60006020820190508181036000830152614ee781614973565b9050919050565b60006020820190508181036000830152614f0781614996565b9050919050565b60006020820190508181036000830152614f27816149b9565b9050919050565b60006020820190508181036000830152614f47816149dc565b9050919050565b6000602082019050614f636000830184614a1d565b92915050565b6000604082019050614f7e6000830185614a1d565b614f8b6020830184614a1d565b9392505050565b6000606082019050614fa76000830186614a1d565b614fb46020830185614a1d565b614fc16040830184614a1d565b949350505050565b600061016082019050614fdf600083018e614a1d565b614fec602083018d614a1d565b614ff9604083018c614a1d565b615006606083018b614a1d565b615013608083018a614a1d565b61502060a0830189614a1d565b61502d60c0830188614a1d565b61503a60e0830187614a1d565b615048610100830186614a1d565b615056610120830185614a1d565b615064610140830184614a1d565b9c9b505050505050505050505050565b600061507e61508f565b905061508a82826153c3565b919050565b6000604051905090565b600067ffffffffffffffff8211156150b4576150b36154fb565b5b602082029050602081019050919050565b600067ffffffffffffffff8211156150e0576150df6154fb565b5b602082029050602081019050919050565b600067ffffffffffffffff82111561510c5761510b6154fb565b5b6151158261554c565b9050602081019050919050565b600067ffffffffffffffff82111561513d5761513c6154fb565b5b6151468261554c565b9050602081019050919050565b6000819050602082019050919050565b60008190508160005260206000209050919050565b600081519050919050565b600081519050919050565b600081519050919050565b6000602082019050919050565b600082825260208201905092915050565b600082825260208201905092915050565b600082825260208201905092915050565b600081905092915050565b60006151ef82615321565b91506151fa83615321565b9250827fffffffffffffffffffffffffffffffffffffffffffffffffffffffffffffffff0382111561522f5761522e61546e565b5b828201905092915050565b600061524582615321565b915061525083615321565b9250826152605761525f61549d565b5b828204905092915050565b600061527682615321565b915061528183615321565b9250828210156152945761529361546e565b5b828203905092915050565b60006152aa82615301565b9050919050565b60008115159050919050565b6000819050919050565b60007fffffffff0000000000000000000000000000000000000000000000000000000082169050919050565b600061ffff82169050919050565b600073ffffffffffffffffffffffffffffffffffffffff82169050919050565b6000819050919050565b600063ffffffff82169050919050565b600067ffffffffffffffff82169050919050565b82818337600083830152505050565b60005b8381101561537c578082015181840152602081019050615361565b8381111561538b576000848401525b50505050565b600060028204905060018216806153a957607f821691505b602082108114156153bd576153bc6154cc565b5b50919050565b6153cc8261554c565b810181811067ffffffffffffffff821117156153eb576153ea6154fb565b5b80604052505050565b60006153ff82615321565b91507fffffffffffffffffffffffffffffffffffffffffffffffffffffffffffffffff8214156154325761543161546e565b5b600182019050919050565b600061544882615321565b915061545383615321565b9250826154635761546261549d565b5b828206905092915050565b7f4e487b7100000000000000000000000000000000000000000000000000000000600052601160045260246000fd5b7f4e487b7100000000000000000000000000000000000000000000000000000000600052601260045260246000fd5b7f4e487b7100000000000000000000000000000000000000000000000000000000600052602260045260246000fd5b7f4e487b7100000000000000000000000000000000000000000000000000000000600052604160045260246000fd5b600060033d11156155495760046000803e61554660005161555d565b90505b90565b6000601f19601f8301169050919050565b60008160e01c9050919050565b7f455243313135353a207472616e7366657220746f206e6f6e204552433131353560008201527f526563656976657220696d706c656d656e746572000000000000000000000000602082015250565b7f455243313135353a204552433131353552656365697665722072656a6563746560008201527f6420746f6b656e73000000000000000000000000000000000000000000000000602082015250565b7f455243313135353a2062616c616e636520717565727920666f7220746865207a60008201527f65726f2061646472657373000000000000000000000000000000000000000000602082015250565b7f4f776e61626c653a206e6577206f776e657220697320746865207a65726f206160008201527f6464726573730000000000000000000000000000000000000000000000000000602082015250565b7f455243313135353a2063616c6c6572206973206e6f74206f776e6572206e6f7260008201527f20617070726f7665640000000000000000000000000000000000000000000000602082015250565b7f455243313135353a207472616e7366657220746f20746865207a65726f20616460008201527f6472657373000000000000000000000000000000000000000000000000000000602082015250565b7f455243313135353a207472616e736665722063616c6c6572206973206e6f742060008201527f6f776e6572206e6f7220617070726f7665640000000000000000000000000000602082015250565b7f2055706772616465200000000000000000000000000000000000000000000000600082015250565b7f455243313135353a20696e73756666696369656e742062616c616e636520666f60008201527f72207472616e7366657200000000000000000000000000000000000000000000602082015250565b7f746f6b656e202300000000000000000000000000000000000000000000000000600082015250565b7f4f776e61626c653a2063616c6c6572206973206e6f7420746865206f776e6572600082015250565b7f455243313135353a206275726e20616d6f756e74206578636565647320746f7460008201527f616c537570706c79000000000000000000000000000000000000000000000000602082015250565b7f455243313135353a2073657474696e6720617070726f76616c2073746174757360008201527f20666f722073656c660000000000000000000000000000000000000000000000602082015250565b7f455243313135353a206163636f756e747320616e6420696473206c656e67746860008201527f206d69736d617463680000000000000000000000000000000000000000000000602082015250565b7f455243313135353a2069647320616e6420616d6f756e7473206c656e6774682060008201527f6d69736d61746368000000000000000000000000000000000000000000000000602082015250565b7f455243313135353a206d696e7420746f20746865207a65726f2061646472657360008201527f7300000000000000000000000000000000000000000000000000000000000000602082015250565b600060443d10156159f857615a7b565b615a0061508f565b60043d036004823e80513d602482011167ffffffffffffffff82111715615a28575050615a7b565b808201805167ffffffffffffffff811115615a465750505050615a7b565b80602083010160043d038501811115615a63575050505050615a7b565b615a72826020018501866153c3565b82955050505050505b90565b615a878161529f565b8114615a9257600080fd5b50565b615a9e816152b1565b8114615aa957600080fd5b50565b615ab5816152c7565b8114615ac057600080fd5b50565b615acc81615321565b8114615ad757600080fd5b5056fea26469706673582212207fb16a30b5eab251a444a7709b90b63901a6a44e1ca17cc5240c85088f26592364736f6c63430008040033",
  "linkReferences": {},
  "deployedLinkReferences": {}
}