{
  "_format": "hh-sol-artifact-1",
  "contractName": "BedroomNFT",
  "sourceName": "contracts/BedroomNFT.sol",
  "abi": [
    {
      "inputs": [
        {
          "internalType": "uint64",
          "name": "_subscriptionId",
          "type": "uint64"
        },
        {
          "internalType": "address",
          "name": "_vrfCoordinator",
          "type": "address"
        },
        {
          "internalType": "address",
          "name": "_link_token_contract",
          "type": "address"
        },
        {
          "internalType": "bytes32",
          "name": "_keyHash",
          "type": "bytes32"
        },
        {
          "internalType": "uint32",
          "name": "_callbackGasLimit",
          "type": "uint32"
        },
        {
          "internalType": "uint16",
          "name": "_requestConfirmation",
          "type": "uint16"
        },
        {
          "internalType": "uint32",
          "name": "_numWord",
          "type": "uint32"
        }
      ],
      "stateMutability": "nonpayable",
      "type": "constructor"
    },
    {
      "inputs": [
        {
          "internalType": "address",
          "name": "have",
          "type": "address"
        },
        {
          "internalType": "address",
          "name": "want",
          "type": "address"
        }
      ],
      "name": "OnlyCoordinatorCanFulfill",
      "type": "error"
    },
    {
      "anonymous": false,
      "inputs": [
        {
          "indexed": true,
          "internalType": "address",
          "name": "account",
          "type": "address"
        },
        {
          "indexed": true,
          "internalType": "address",
          "name": "operator",
          "type": "address"
        },
        {
          "indexed": false,
          "internalType": "bool",
          "name": "approved",
          "type": "bool"
        }
      ],
      "name": "ApprovalForAll",
      "type": "event"
    },
    {
      "anonymous": false,
      "inputs": [
        {
          "indexed": true,
          "internalType": "address",
          "name": "previousOwner",
          "type": "address"
        },
        {
          "indexed": true,
          "internalType": "address",
          "name": "newOwner",
          "type": "address"
        }
      ],
      "name": "OwnershipTransferred",
      "type": "event"
    },
    {
      "anonymous": false,
      "inputs": [
        {
          "indexed": false,
          "internalType": "address",
          "name": "account",
          "type": "address"
        }
      ],
      "name": "Paused",
      "type": "event"
    },
    {
      "anonymous": false,
      "inputs": [
        {
          "indexed": true,
          "internalType": "address",
          "name": "operator",
          "type": "address"
        },
        {
          "indexed": true,
          "internalType": "address",
          "name": "from",
          "type": "address"
        },
        {
          "indexed": true,
          "internalType": "address",
          "name": "to",
          "type": "address"
        },
        {
          "indexed": false,
          "internalType": "uint256[]",
          "name": "ids",
          "type": "uint256[]"
        },
        {
          "indexed": false,
          "internalType": "uint256[]",
          "name": "values",
          "type": "uint256[]"
        }
      ],
      "name": "TransferBatch",
      "type": "event"
    },
    {
      "anonymous": false,
      "inputs": [
        {
          "indexed": true,
          "internalType": "address",
          "name": "operator",
          "type": "address"
        },
        {
          "indexed": true,
          "internalType": "address",
          "name": "from",
          "type": "address"
        },
        {
          "indexed": true,
          "internalType": "address",
          "name": "to",
          "type": "address"
        },
        {
          "indexed": false,
          "internalType": "uint256",
          "name": "id",
          "type": "uint256"
        },
        {
          "indexed": false,
          "internalType": "uint256",
          "name": "value",
          "type": "uint256"
        }
      ],
      "name": "TransferSingle",
      "type": "event"
    },
    {
      "anonymous": false,
      "inputs": [
        {
          "indexed": false,
          "internalType": "string",
          "name": "value",
          "type": "string"
        },
        {
          "indexed": true,
          "internalType": "uint256",
          "name": "id",
          "type": "uint256"
        }
      ],
      "name": "URI",
      "type": "event"
    },
    {
      "anonymous": false,
      "inputs": [
        {
          "indexed": false,
          "internalType": "address",
          "name": "account",
          "type": "address"
        }
      ],
      "name": "Unpaused",
      "type": "event"
    },
    {
      "inputs": [
        {
          "internalType": "address",
          "name": "account",
          "type": "address"
        },
        {
          "internalType": "uint256",
          "name": "id",
          "type": "uint256"
        }
      ],
      "name": "balanceOf",
      "outputs": [
        {
          "internalType": "uint256",
          "name": "",
          "type": "uint256"
        }
      ],
      "stateMutability": "view",
      "type": "function"
    },
    {
      "inputs": [
        {
          "internalType": "address[]",
          "name": "accounts",
          "type": "address[]"
        },
        {
          "internalType": "uint256[]",
          "name": "ids",
          "type": "uint256[]"
        }
      ],
      "name": "balanceOfBatch",
      "outputs": [
        {
          "internalType": "uint256[]",
          "name": "",
          "type": "uint256[]"
        }
      ],
      "stateMutability": "view",
      "type": "function"
    },
    {
      "inputs": [
        {
          "internalType": "uint256",
          "name": "",
          "type": "uint256"
        }
      ],
      "name": "bedrooms",
      "outputs": [
        {
          "internalType": "string",
          "name": "name",
          "type": "string"
        },
        {
          "internalType": "uint256",
          "name": "investmentBalance",
          "type": "uint256"
        },
        {
          "internalType": "uint256",
          "name": "nbUpgrades",
          "type": "uint256"
        },
        {
          "internalType": "uint256",
          "name": "lightIsolationScore",
          "type": "uint256"
        },
        {
          "internalType": "uint256",
          "name": "thermalIsolationScore",
          "type": "uint256"
        },
        {
          "internalType": "uint256",
          "name": "soundIsolationScore",
          "type": "uint256"
        },
        {
          "internalType": "uint256",
          "name": "temperatureScore",
          "type": "uint256"
        },
        {
          "internalType": "uint256",
          "name": "humidityScore",
          "type": "uint256"
        },
        {
          "internalType": "uint256",
          "name": "sleepAidMachinesScore",
          "type": "uint256"
        }
      ],
      "stateMutability": "view",
      "type": "function"
    },
    {
      "inputs": [
        {
          "internalType": "uint256",
          "name": "id",
          "type": "uint256"
        }
      ],
      "name": "exists",
      "outputs": [
        {
          "internalType": "bool",
          "name": "",
          "type": "bool"
        }
      ],
      "stateMutability": "view",
      "type": "function"
    },
    {
      "inputs": [
        {
          "internalType": "address",
          "name": "account",
          "type": "address"
        },
        {
          "internalType": "address",
          "name": "operator",
          "type": "address"
        }
      ],
      "name": "isApprovedForAll",
      "outputs": [
        {
          "internalType": "bool",
          "name": "",
          "type": "bool"
        }
      ],
      "stateMutability": "view",
      "type": "function"
    },
    {
      "inputs": [
        {
          "internalType": "address",
          "name": "account",
          "type": "address"
        },
        {
          "internalType": "uint256",
          "name": "id",
          "type": "uint256"
        },
        {
          "internalType": "uint256",
          "name": "amount",
          "type": "uint256"
        },
        {
          "internalType": "bytes",
          "name": "data",
          "type": "bytes"
        }
      ],
      "name": "mint",
      "outputs": [],
      "stateMutability": "nonpayable",
      "type": "function"
    },
    {
      "inputs": [
        {
          "internalType": "address",
          "name": "to",
          "type": "address"
        },
        {
          "internalType": "uint256[]",
          "name": "ids",
          "type": "uint256[]"
        },
        {
          "internalType": "uint256[]",
          "name": "amounts",
          "type": "uint256[]"
        },
        {
          "internalType": "bytes",
          "name": "data",
          "type": "bytes"
        }
      ],
      "name": "mintBatch",
      "outputs": [],
      "stateMutability": "nonpayable",
      "type": "function"
    },
    {
      "inputs": [
        {
          "internalType": "string",
          "name": "_name",
          "type": "string"
        }
      ],
      "name": "newRandomBedroom",
      "outputs": [],
      "stateMutability": "nonpayable",
      "type": "function"
    },
    {
      "inputs": [],
      "name": "owner",
      "outputs": [
        {
          "internalType": "address",
          "name": "",
          "type": "address"
        }
      ],
      "stateMutability": "view",
      "type": "function"
    },
    {
      "inputs": [],
      "name": "pause",
      "outputs": [],
      "stateMutability": "nonpayable",
      "type": "function"
    },
    {
      "inputs": [],
      "name": "paused",
      "outputs": [
        {
          "internalType": "bool",
          "name": "",
          "type": "bool"
        }
      ],
      "stateMutability": "view",
      "type": "function"
    },
    {
      "inputs": [],
      "name": "randomResult",
      "outputs": [
        {
          "internalType": "uint256",
          "name": "",
          "type": "uint256"
        }
      ],
      "stateMutability": "view",
      "type": "function"
    },
    {
      "inputs": [
        {
          "internalType": "uint256",
          "name": "requestId",
          "type": "uint256"
        },
        {
          "internalType": "uint256[]",
          "name": "randomWords",
          "type": "uint256[]"
        }
      ],
      "name": "rawFulfillRandomWords",
      "outputs": [],
      "stateMutability": "nonpayable",
      "type": "function"
    },
    {
      "inputs": [],
      "name": "renounceOwnership",
      "outputs": [],
      "stateMutability": "nonpayable",
      "type": "function"
    },
    {
      "inputs": [
        {
          "internalType": "address",
          "name": "from",
          "type": "address"
        },
        {
          "internalType": "address",
          "name": "to",
          "type": "address"
        },
        {
          "internalType": "uint256[]",
          "name": "ids",
          "type": "uint256[]"
        },
        {
          "internalType": "uint256[]",
          "name": "amounts",
          "type": "uint256[]"
        },
        {
          "internalType": "bytes",
          "name": "data",
          "type": "bytes"
        }
      ],
      "name": "safeBatchTransferFrom",
      "outputs": [],
      "stateMutability": "nonpayable",
      "type": "function"
    },
    {
      "inputs": [
        {
          "internalType": "address",
          "name": "from",
          "type": "address"
        },
        {
          "internalType": "address",
          "name": "to",
          "type": "address"
        },
        {
          "internalType": "uint256",
          "name": "id",
          "type": "uint256"
        },
        {
          "internalType": "uint256",
          "name": "amount",
          "type": "uint256"
        },
        {
          "internalType": "bytes",
          "name": "data",
          "type": "bytes"
        }
      ],
      "name": "safeTransferFrom",
      "outputs": [],
      "stateMutability": "nonpayable",
      "type": "function"
    },
    {
      "inputs": [
        {
          "internalType": "address",
          "name": "operator",
          "type": "address"
        },
        {
          "internalType": "bool",
          "name": "approved",
          "type": "bool"
        }
      ],
      "name": "setApprovalForAll",
      "outputs": [],
      "stateMutability": "nonpayable",
      "type": "function"
    },
    {
      "inputs": [
        {
          "internalType": "string",
          "name": "newuri",
          "type": "string"
        }
      ],
      "name": "setURI",
      "outputs": [],
      "stateMutability": "nonpayable",
      "type": "function"
    },
    {
      "inputs": [
        {
          "internalType": "bytes4",
          "name": "interfaceId",
          "type": "bytes4"
        }
      ],
      "name": "supportsInterface",
      "outputs": [
        {
          "internalType": "bool",
          "name": "",
          "type": "bool"
        }
      ],
      "stateMutability": "view",
      "type": "function"
    },
    {
      "inputs": [
        {
          "internalType": "uint256",
          "name": "",
          "type": "uint256"
        }
      ],
      "name": "tokenIdToAddress",
      "outputs": [
        {
          "internalType": "address",
          "name": "",
          "type": "address"
        }
      ],
      "stateMutability": "view",
      "type": "function"
    },
    {
      "inputs": [
        {
          "internalType": "uint256",
          "name": "",
          "type": "uint256"
        }
      ],
      "name": "tokenIdToBed",
      "outputs": [
        {
          "internalType": "uint256",
          "name": "sizeScore",
          "type": "uint256"
        },
        {
          "internalType": "uint256",
          "name": "heightScore",
          "type": "uint256"
        },
        {
          "internalType": "uint256",
          "name": "bedBaseScore",
          "type": "uint256"
        },
        {
          "internalType": "uint256",
          "name": "mattressTechnologyScore",
          "type": "uint256"
        },
        {
          "internalType": "uint256",
          "name": "mattressThicknessScore",
          "type": "uint256"
        },
        {
          "internalType": "uint256",
          "name": "deformationDepthScore",
          "type": "uint256"
        },
        {
          "internalType": "uint256",
          "name": "deformationSpeedScore",
          "type": "uint256"
        },
        {
          "internalType": "uint256",
          "name": "deformationPersistenceScore",
          "type": "uint256"
        },
        {
          "internalType": "uint256",
          "name": "thermalIsolationScore",
          "type": "uint256"
        },
        {
          "internalType": "uint256",
          "name": "hygrometricRegulationScore",
          "type": "uint256"
        },
        {
          "internalType": "uint256",
          "name": "comforterComfortabilityScore",
          "type": "uint256"
        },
        {
          "internalType": "uint256",
          "name": "pillowComfortabilityScore",
          "type": "uint256"
        }
      ],
      "stateMutability": "view",
      "type": "function"
    },
    {
      "inputs": [
        {
          "internalType": "uint256",
          "name": "",
          "type": "uint256"
        }
      ],
      "name": "tokenIdToBedroomName",
      "outputs": [
        {
          "internalType": "string",
          "name": "",
          "type": "string"
        }
      ],
      "stateMutability": "view",
      "type": "function"
    },
    {
      "inputs": [
        {
          "internalType": "uint256",
          "name": "id",
          "type": "uint256"
        }
      ],
      "name": "totalSupply",
      "outputs": [
        {
          "internalType": "uint256",
          "name": "",
          "type": "uint256"
        }
      ],
      "stateMutability": "view",
      "type": "function"
    },
    {
      "inputs": [
        {
          "internalType": "address",
          "name": "newOwner",
          "type": "address"
        }
      ],
      "name": "transferOwnership",
      "outputs": [],
      "stateMutability": "nonpayable",
      "type": "function"
    },
    {
      "inputs": [],
      "name": "unpause",
      "outputs": [],
      "stateMutability": "nonpayable",
      "type": "function"
    },
    {
      "inputs": [
        {
          "internalType": "uint256",
          "name": "",
          "type": "uint256"
        }
      ],
      "name": "uri",
      "outputs": [
        {
          "internalType": "string",
          "name": "",
          "type": "string"
        }
      ],
      "stateMutability": "view",
      "type": "function"
    }
  ],
  "bytecode": "0x6101806040523480156200001257600080fd5b506040516200511d3803806200511d8339818101604052810190620000389190620003c2565b60405180602001604052806000815250868073ffffffffffffffffffffffffffffffffffffffff1660808173ffffffffffffffffffffffffffffffffffffffff1660601b81525050506200009281620001b560201b60201c565b50620000b3620000a7620001d160201b60201c565b620001d960201b60201c565b6000600360146101000a81548160ff0219169083151502179055508573ffffffffffffffffffffffffffffffffffffffff1660a08173ffffffffffffffffffffffffffffffffffffffff1660601b815250508473ffffffffffffffffffffffffffffffffffffffff1660c08173ffffffffffffffffffffffffffffffffffffffff1660601b815250508667ffffffffffffffff1660e08167ffffffffffffffff1660c01b815250508361010081815250508263ffffffff166101208163ffffffff1660e01b815250508161ffff166101408161ffff1660f01b815250508063ffffffff166101608163ffffffff1660e01b8152505050505050505050620005c6565b8060029080519060200190620001cd9291906200029f565b5050565b600033905090565b6000600360009054906101000a900473ffffffffffffffffffffffffffffffffffffffff16905081600360006101000a81548173ffffffffffffffffffffffffffffffffffffffff021916908373ffffffffffffffffffffffffffffffffffffffff1602179055508173ffffffffffffffffffffffffffffffffffffffff168173ffffffffffffffffffffffffffffffffffffffff167f8be0079c531659141344cd1fd0a4f28419497f9722a3daafe3b4186f6b6457e060405160405180910390a35050565b828054620002ad90620004df565b90600052602060002090601f016020900481019282620002d157600085556200031d565b82601f10620002ec57805160ff19168380011785556200031d565b828001600101855582156200031d579182015b828111156200031c578251825591602001919060010190620002ff565b5b5090506200032c919062000330565b5090565b5b808211156200034b57600081600090555060010162000331565b5090565b600081519050620003608162000544565b92915050565b60008151905062000377816200055e565b92915050565b6000815190506200038e8162000578565b92915050565b600081519050620003a58162000592565b92915050565b600081519050620003bc81620005ac565b92915050565b600080600080600080600060e0888a031215620003de57600080fd5b6000620003ee8a828b01620003ab565b9750506020620004018a828b016200034f565b9650506040620004148a828b016200034f565b9550506060620004278a828b0162000366565b94505060806200043a8a828b0162000394565b93505060a06200044d8a828b016200037d565b92505060c0620004608a828b0162000394565b91505092959891949750929550565b60006200047c826200049b565b9050919050565b6000819050919050565b600061ffff82169050919050565b600073ffffffffffffffffffffffffffffffffffffffff82169050919050565b600063ffffffff82169050919050565b600067ffffffffffffffff82169050919050565b60006002820490506001821680620004f857607f821691505b602082108114156200050f576200050e62000515565b5b50919050565b7f4e487b7100000000000000000000000000000000000000000000000000000000600052602260045260246000fd5b6200054f816200046f565b81146200055b57600080fd5b50565b620005698162000483565b81146200057557600080fd5b50565b62000583816200048d565b81146200058f57600080fd5b50565b6200059d81620004bb565b8114620005a957600080fd5b50565b620005b781620004cb565b8114620005c357600080fd5b50565b60805160601c60a05160601c60c05160601c60e05160c01c610100516101205160e01c6101405160f01c6101605160e01c614ad8620006456000396000610ab701526000610a7501526000610a9601526000610a3301526000610a5401526000505060006109f70152600081816108b301526109070152614ad86000f3fe608060405234801561001057600080fd5b506004361061018d5760003560e01c80634f558e79116100de5780638da5cb5b11610097578063e985e9c511610071578063e985e9c514610491578063f242432a146104c1578063f2fde38b146104dd578063fd1f2885146104f95761018d565b80638da5cb5b14610427578063a22cb46514610445578063bd85b039146104615761018d565b80634f558e791461036e5780635c975abb1461039e578063637344d4146103bc578063715018a6146103f7578063731133e9146104015780638456cb591461041d5761018d565b80631fe543e31161014b5780633f4ba83a116101255780633f4ba83a146102de57806342619f66146102e857806343a4d4ca146103065780634e1273f41461033e5761018d565b80631fe543e31461028a57806325d3337a146102a65780632eb2c2d6146102c25761018d565b8062fdd58e1461019257806301ffc9a7146101c257806302fe5305146101f257806308bb76a51461020e5780630e89341c1461023e5780631f7fdffa1461026e575b600080fd5b6101ac60048036038101906101a79190613523565b610529565b6040516101b99190613f92565b60405180910390f35b6101dc60048036038101906101d79190613646565b6105f2565b6040516101e99190613c6e565b60405180910390f35b61020c60048036038101906102079190613698565b6106d4565b005b610228600480360381019061022391906136d9565b61075c565b6040516102359190613b0f565b60405180910390f35b610258600480360381019061025391906136d9565b61078f565b6040516102659190613cdc565b60405180910390f35b6102886004803603810190610283919061343c565b610823565b005b6102a4600480360381019061029f919061372b565b6108b1565b005b6102c060048036038101906102bb9190613698565b610971565b005b6102dc60048036038101906102d791906132ee565b610b4d565b005b6102e6610bee565b005b6102f0610c74565b6040516102fd9190613f92565b60405180910390f35b610320600480360381019061031b91906136d9565b610c7a565b60405161033599989796959493929190613cfe565b60405180910390f35b610358600480360381019061035391906135da565b610d60565b6040516103659190613c15565b60405180910390f35b610388600480360381019061038391906136d9565b610f11565b6040516103959190613c6e565b60405180910390f35b6103a6610f25565b6040516103b39190613c6e565b60405180910390f35b6103d660048036038101906103d191906136d9565b610f3c565b6040516103ee9c9b9a99989796959493929190613fd6565b60405180910390f35b6103ff610f9c565b005b61041b6004803603810190610416919061355f565b611024565b005b6104256110b2565b005b61042f611138565b60405161043c9190613b0f565b60405180910390f35b61045f600480360381019061045a91906134e7565b611162565b005b61047b600480360381019061047691906136d9565b611178565b6040516104889190613f92565b60405180910390f35b6104ab60048036038101906104a691906132b2565b611195565b6040516104b89190613c6e565b60405180910390f35b6104db60048036038101906104d691906133ad565b611229565b005b6104f760048036038101906104f29190613289565b6112ca565b005b610513600480360381019061050e91906136d9565b6113c2565b6040516105209190613cdc565b60405180910390f35b60008073ffffffffffffffffffffffffffffffffffffffff168373ffffffffffffffffffffffffffffffffffffffff16141561059a576040517f08c379a000000000000000000000000000000000000000000000000000000000815260040161059190613df2565b60405180910390fd5b60008083815260200190815260200160002060008473ffffffffffffffffffffffffffffffffffffffff1673ffffffffffffffffffffffffffffffffffffffff16815260200190815260200160002054905092915050565b60007fd9b67a26000000000000000000000000000000000000000000000000000000007bffffffffffffffffffffffffffffffffffffffffffffffffffffffff1916827bffffffffffffffffffffffffffffffffffffffffffffffffffffffff191614806106bd57507f0e89341c000000000000000000000000000000000000000000000000000000007bffffffffffffffffffffffffffffffffffffffffffffffffffffffff1916827bffffffffffffffffffffffffffffffffffffffffffffffffffffffff1916145b806106cd57506106cc82611462565b5b9050919050565b6106dc6114cc565b73ffffffffffffffffffffffffffffffffffffffff166106fa611138565b73ffffffffffffffffffffffffffffffffffffffff1614610750576040517f08c379a000000000000000000000000000000000000000000000000000000000815260040161074790613ed2565b60405180910390fd5b610759816114d4565b50565b60086020528060005260406000206000915054906101000a900473ffffffffffffffffffffffffffffffffffffffff1681565b60606002805461079e90614359565b80601f01602080910402602001604051908101604052809291908181526020018280546107ca90614359565b80156108175780601f106107ec57610100808354040283529160200191610817565b820191906000526020600020905b8154815290600101906020018083116107fa57829003601f168201915b50505050509050919050565b61082b6114cc565b73ffffffffffffffffffffffffffffffffffffffff16610849611138565b73ffffffffffffffffffffffffffffffffffffffff161461089f576040517f08c379a000000000000000000000000000000000000000000000000000000000815260040161089690613ed2565b60405180910390fd5b6108ab848484846114ee565b50505050565b7f000000000000000000000000000000000000000000000000000000000000000073ffffffffffffffffffffffffffffffffffffffff163373ffffffffffffffffffffffffffffffffffffffff161461096357337f00000000000000000000000000000000000000000000000000000000000000006040517f1cf993f400000000000000000000000000000000000000000000000000000000815260040161095a929190613b2a565b60405180910390fd5b61096d8282611767565b5050565b60006006805490509050816007600083815260200190815260200160002090805190602001906109a2929190612f6c565b50336008600083815260200190815260200160002060006101000a81548173ffffffffffffffffffffffffffffffffffffffff021916908373ffffffffffffffffffffffffffffffffffffffff1602179055507f000000000000000000000000000000000000000000000000000000000000000073ffffffffffffffffffffffffffffffffffffffff16635d3b1d307f00000000000000000000000000000000000000000000000000000000000000007f00000000000000000000000000000000000000000000000000000000000000007f00000000000000000000000000000000000000000000000000000000000000007f00000000000000000000000000000000000000000000000000000000000000007f00000000000000000000000000000000000000000000000000000000000000006040518663ffffffff1660e01b8152600401610af6959493929190613c89565b602060405180830381600087803b158015610b1057600080fd5b505af1158015610b24573d6000803e3d6000fd5b505050506040513d601f19601f82011682018060405250810190610b489190613702565b505050565b610b556114cc565b73ffffffffffffffffffffffffffffffffffffffff168573ffffffffffffffffffffffffffffffffffffffff161480610b9b5750610b9a85610b956114cc565b611195565b5b610bda576040517f08c379a0000000000000000000000000000000000000000000000000000000008152600401610bd190613e92565b60405180910390fd5b610be7858585858561185b565b5050505050565b610bf66114cc565b73ffffffffffffffffffffffffffffffffffffffff16610c14611138565b73ffffffffffffffffffffffffffffffffffffffff1614610c6a576040517f08c379a0000000000000000000000000000000000000000000000000000000008152600401610c6190613ed2565b60405180910390fd5b610c72611bc9565b565b60055481565b60068181548110610c8a57600080fd5b9060005260206000209060090201600091509050806000018054610cad90614359565b80601f0160208091040260200160405190810160405280929190818152602001828054610cd990614359565b8015610d265780601f10610cfb57610100808354040283529160200191610d26565b820191906000526020600020905b815481529060010190602001808311610d0957829003601f168201915b5050505050908060010154908060020154908060030154908060040154908060050154908060060154908060070154908060080154905089565b60608151835114610da6576040517f08c379a0000000000000000000000000000000000000000000000000000000008152600401610d9d90613f32565b60405180910390fd5b6000835167ffffffffffffffff811115610de9577f4e487b7100000000000000000000000000000000000000000000000000000000600052604160045260246000fd5b604051908082528060200260200182016040528015610e175781602001602082028036833780820191505090505b50905060005b8451811015610f0657610eb0858281518110610e62577f4e487b7100000000000000000000000000000000000000000000000000000000600052603260045260246000fd5b6020026020010151858381518110610ea3577f4e487b7100000000000000000000000000000000000000000000000000000000600052603260045260246000fd5b6020026020010151610529565b828281518110610ee9577f4e487b7100000000000000000000000000000000000000000000000000000000600052603260045260246000fd5b60200260200101818152505080610eff906143bc565b9050610e1d565b508091505092915050565b600080610f1d83611178565b119050919050565b6000600360149054906101000a900460ff16905090565b600960205280600052604060002060009150905080600001549080600101549080600201549080600301549080600401549080600501549080600601549080600701549080600801549080600901549080600a01549080600b015490508c565b610fa46114cc565b73ffffffffffffffffffffffffffffffffffffffff16610fc2611138565b73ffffffffffffffffffffffffffffffffffffffff1614611018576040517f08c379a000000000000000000000000000000000000000000000000000000000815260040161100f90613ed2565b60405180910390fd5b6110226000611c6b565b565b61102c6114cc565b73ffffffffffffffffffffffffffffffffffffffff1661104a611138565b73ffffffffffffffffffffffffffffffffffffffff16146110a0576040517f08c379a000000000000000000000000000000000000000000000000000000000815260040161109790613ed2565b60405180910390fd5b6110ac84848484611d31565b50505050565b6110ba6114cc565b73ffffffffffffffffffffffffffffffffffffffff166110d8611138565b73ffffffffffffffffffffffffffffffffffffffff161461112e576040517f08c379a000000000000000000000000000000000000000000000000000000000815260040161112590613ed2565b60405180910390fd5b611136611ee2565b565b6000600360009054906101000a900473ffffffffffffffffffffffffffffffffffffffff16905090565b61117461116d6114cc565b8383611f85565b5050565b600060046000838152602001908152602001600020549050919050565b6000600160008473ffffffffffffffffffffffffffffffffffffffff1673ffffffffffffffffffffffffffffffffffffffff16815260200190815260200160002060008373ffffffffffffffffffffffffffffffffffffffff1673ffffffffffffffffffffffffffffffffffffffff16815260200190815260200160002060009054906101000a900460ff16905092915050565b6112316114cc565b73ffffffffffffffffffffffffffffffffffffffff168573ffffffffffffffffffffffffffffffffffffffff1614806112775750611276856112716114cc565b611195565b5b6112b6576040517f08c379a00000000000000000000000000000000000000000000000000000000081526004016112ad90613e32565b60405180910390fd5b6112c385858585856120f2565b5050505050565b6112d26114cc565b73ffffffffffffffffffffffffffffffffffffffff166112f0611138565b73ffffffffffffffffffffffffffffffffffffffff1614611346576040517f08c379a000000000000000000000000000000000000000000000000000000000815260040161133d90613ed2565b60405180910390fd5b600073ffffffffffffffffffffffffffffffffffffffff168173ffffffffffffffffffffffffffffffffffffffff1614156113b6576040517f08c379a00000000000000000000000000000000000000000000000000000000081526004016113ad90613e12565b60405180910390fd5b6113bf81611c6b565b50565b600760205280600052604060002060009150905080546113e190614359565b80601f016020809104026020016040519081016040528092919081815260200182805461140d90614359565b801561145a5780601f1061142f5761010080835404028352916020019161145a565b820191906000526020600020905b81548152906001019060200180831161143d57829003601f168201915b505050505081565b60007f01ffc9a7000000000000000000000000000000000000000000000000000000007bffffffffffffffffffffffffffffffffffffffffffffffffffffffff1916827bffffffffffffffffffffffffffffffffffffffffffffffffffffffff1916149050919050565b600033905090565b80600290805190602001906114ea929190612f6c565b5050565b600073ffffffffffffffffffffffffffffffffffffffff168473ffffffffffffffffffffffffffffffffffffffff16141561155e576040517f08c379a000000000000000000000000000000000000000000000000000000000815260040161155590613f72565b60405180910390fd5b81518351146115a2576040517f08c379a000000000000000000000000000000000000000000000000000000000815260040161159990613f52565b60405180910390fd5b60006115ac6114cc565b90506115bd8160008787878761238e565b60005b84518110156116c257838181518110611602577f4e487b7100000000000000000000000000000000000000000000000000000000600052603260045260246000fd5b6020026020010151600080878481518110611646577f4e487b7100000000000000000000000000000000000000000000000000000000600052603260045260246000fd5b6020026020010151815260200190815260200160002060008873ffffffffffffffffffffffffffffffffffffffff1673ffffffffffffffffffffffffffffffffffffffff16815260200190815260200160002060008282546116a891906141e0565b9250508190555080806116ba906143bc565b9150506115c0565b508473ffffffffffffffffffffffffffffffffffffffff16600073ffffffffffffffffffffffffffffffffffffffff168273ffffffffffffffffffffffffffffffffffffffff167f4a39dc06d4c0dbc64b70af90fd698a233a518aa5d07e595d983b8c0526c8f7fb878760405161173a929190613c37565b60405180910390a4611751816000878787876123ec565b611760816000878787876123f4565b5050505050565b600060068054905090506117bc826000815181106117ae577f4e487b7100000000000000000000000000000000000000000000000000000000600052603260045260246000fd5b6020026020010151826125db565b611807826000815181106117f9577f4e487b7100000000000000000000000000000000000000000000000000000000600052603260045260246000fd5b6020026020010151826127ff565b6118566008600083815260200190815260200160002060009054906101000a900473ffffffffffffffffffffffffffffffffffffffff1682600160405180602001604052806000815250611d31565b505050565b815183511461189f576040517f08c379a000000000000000000000000000000000000000000000000000000000815260040161189690613f52565b60405180910390fd5b600073ffffffffffffffffffffffffffffffffffffffff168473ffffffffffffffffffffffffffffffffffffffff16141561190f576040517f08c379a000000000000000000000000000000000000000000000000000000000815260040161190690613e72565b60405180910390fd5b60006119196114cc565b905061192981878787878761238e565b60005b8451811015611b26576000858281518110611970577f4e487b7100000000000000000000000000000000000000000000000000000000600052603260045260246000fd5b6020026020010151905060008583815181106119b5577f4e487b7100000000000000000000000000000000000000000000000000000000600052603260045260246000fd5b60200260200101519050600080600084815260200190815260200160002060008b73ffffffffffffffffffffffffffffffffffffffff1673ffffffffffffffffffffffffffffffffffffffff16815260200190815260200160002054905081811015611a56576040517f08c379a0000000000000000000000000000000000000000000000000000000008152600401611a4d90613eb2565b60405180910390fd5b81810360008085815260200190815260200160002060008c73ffffffffffffffffffffffffffffffffffffffff1673ffffffffffffffffffffffffffffffffffffffff168152602001908152602001600020819055508160008085815260200190815260200160002060008b73ffffffffffffffffffffffffffffffffffffffff1673ffffffffffffffffffffffffffffffffffffffff1681526020019081526020016000206000828254611b0b91906141e0565b9250508190555050505080611b1f906143bc565b905061192c565b508473ffffffffffffffffffffffffffffffffffffffff168673ffffffffffffffffffffffffffffffffffffffff168273ffffffffffffffffffffffffffffffffffffffff167f4a39dc06d4c0dbc64b70af90fd698a233a518aa5d07e595d983b8c0526c8f7fb8787604051611b9d929190613c37565b60405180910390a4611bb38187878787876123ec565b611bc18187878787876123f4565b505050505050565b611bd1610f25565b611c10576040517f08c379a0000000000000000000000000000000000000000000000000000000008152600401611c0790613dd2565b60405180910390fd5b6000600360146101000a81548160ff0219169083151502179055507f5db9ee0a495bf2e6ff9c91a7834c1ba4fdd244a5e8aa4e537bd38aeae4b073aa611c546114cc565b604051611c619190613b0f565b60405180910390a1565b6000600360009054906101000a900473ffffffffffffffffffffffffffffffffffffffff16905081600360006101000a81548173ffffffffffffffffffffffffffffffffffffffff021916908373ffffffffffffffffffffffffffffffffffffffff1602179055508173ffffffffffffffffffffffffffffffffffffffff168173ffffffffffffffffffffffffffffffffffffffff167f8be0079c531659141344cd1fd0a4f28419497f9722a3daafe3b4186f6b6457e060405160405180910390a35050565b600073ffffffffffffffffffffffffffffffffffffffff168473ffffffffffffffffffffffffffffffffffffffff161415611da1576040517f08c379a0000000000000000000000000000000000000000000000000000000008152600401611d9890613f72565b60405180910390fd5b6000611dab6114cc565b90506000611db885612a2a565b90506000611dc585612a2a565b9050611dd68360008985858961238e565b8460008088815260200190815260200160002060008973ffffffffffffffffffffffffffffffffffffffff1673ffffffffffffffffffffffffffffffffffffffff1681526020019081526020016000206000828254611e3591906141e0565b925050819055508673ffffffffffffffffffffffffffffffffffffffff16600073ffffffffffffffffffffffffffffffffffffffff168473ffffffffffffffffffffffffffffffffffffffff167fc3d58168c5ae7397731d063d5bbf3d657854427343f4c083240f7aacaa2d0f628989604051611eb3929190613fad565b60405180910390a4611eca836000898585896123ec565b611ed983600089898989612af0565b50505050505050565b611eea610f25565b15611f2a576040517f08c379a0000000000000000000000000000000000000000000000000000000008152600401611f2190613e52565b60405180910390fd5b6001600360146101000a81548160ff0219169083151502179055507f62e78cea01bee320cd4e420270b5ea74000d11b0c9f74754ebdbfc544b05a258611f6e6114cc565b604051611f7b9190613b0f565b60405180910390a1565b8173ffffffffffffffffffffffffffffffffffffffff168373ffffffffffffffffffffffffffffffffffffffff161415611ff4576040517f08c379a0000000000000000000000000000000000000000000000000000000008152600401611feb90613f12565b60405180910390fd5b80600160008573ffffffffffffffffffffffffffffffffffffffff1673ffffffffffffffffffffffffffffffffffffffff16815260200190815260200160002060008473ffffffffffffffffffffffffffffffffffffffff1673ffffffffffffffffffffffffffffffffffffffff16815260200190815260200160002060006101000a81548160ff0219169083151502179055508173ffffffffffffffffffffffffffffffffffffffff168373ffffffffffffffffffffffffffffffffffffffff167f17307eab39ab6107e8899845ad3d59bd9653f200f220920489ca2b5937696c31836040516120e59190613c6e565b60405180910390a3505050565b600073ffffffffffffffffffffffffffffffffffffffff168473ffffffffffffffffffffffffffffffffffffffff161415612162576040517f08c379a000000000000000000000000000000000000000000000000000000000815260040161215990613e72565b60405180910390fd5b600061216c6114cc565b9050600061217985612a2a565b9050600061218685612a2a565b905061219683898985858961238e565b600080600088815260200190815260200160002060008a73ffffffffffffffffffffffffffffffffffffffff1673ffffffffffffffffffffffffffffffffffffffff1681526020019081526020016000205490508581101561222d576040517f08c379a000000000000000000000000000000000000000000000000000000000815260040161222490613eb2565b60405180910390fd5b85810360008089815260200190815260200160002060008b73ffffffffffffffffffffffffffffffffffffffff1673ffffffffffffffffffffffffffffffffffffffff168152602001908152602001600020819055508560008089815260200190815260200160002060008a73ffffffffffffffffffffffffffffffffffffffff1673ffffffffffffffffffffffffffffffffffffffff16815260200190815260200160002060008282546122e291906141e0565b925050819055508773ffffffffffffffffffffffffffffffffffffffff168973ffffffffffffffffffffffffffffffffffffffff168573ffffffffffffffffffffffffffffffffffffffff167fc3d58168c5ae7397731d063d5bbf3d657854427343f4c083240f7aacaa2d0f628a8a60405161235f929190613fad565b60405180910390a4612375848a8a86868a6123ec565b612383848a8a8a8a8a612af0565b505050505050505050565b612396610f25565b156123d6576040517f08c379a00000000000000000000000000000000000000000000000000000000081526004016123cd90613e52565b60405180910390fd5b6123e4868686868686612cd7565b505050505050565b505050505050565b6124138473ffffffffffffffffffffffffffffffffffffffff16612f41565b156125d3578373ffffffffffffffffffffffffffffffffffffffff1663bc197c8187878686866040518663ffffffff1660e01b8152600401612459959493929190613b53565b602060405180830381600087803b15801561247357600080fd5b505af19250505080156124a457506040513d601f19601f820116820180604052508101906124a1919061366f565b60015b61254a576124b06144f2565b806308c379a0141561250d57506124c56149b0565b806124d0575061250f565b806040517f08c379a00000000000000000000000000000000000000000000000000000000081526004016125049190613cdc565b60405180910390fd5b505b6040517f08c379a000000000000000000000000000000000000000000000000000000000815260040161254190613d92565b60405180910390fd5b63bc197c8160e01b7bffffffffffffffffffffffffffffffffffffffffffffffffffffffff1916817bffffffffffffffffffffffffffffffffffffffffffffffffffffffff1916146125d1576040517f08c379a00000000000000000000000000000000000000000000000000000000081526004016125c890613db2565b60405180910390fd5b505b505050505050565b600060405180610120016040528060076000858152602001908152602001600020805461260790614359565b80601f016020809104026020016040519081016040528092919081815260200182805461263390614359565b80156126805780601f1061265557610100808354040283529160200191612680565b820191906000526020600020905b81548152906001019060200180831161266357829003601f168201915b5050505050815260200160008152602001600081526020016103e862011170866126aa9190614405565b6126b49190614236565b81526020016103e862011170866126cb9190614405565b6126d59190614236565b81526020016103e862011170866126ec9190614405565b6126f69190614236565b81526020016103e8620111708661270d9190614405565b6127179190614236565b81526020016103e8620111708661272e9190614405565b6127389190614236565b81526020016103e8620111708661274f9190614405565b6127599190614236565b8152509050600681908060018154018082558091505060019003906000526020600020906009020160009091909190915060008201518160000190805190602001906127a6929190612f6c565b506020820151816001015560408201518160020155606082015181600301556080820151816004015560a0820151816005015560c0820151816006015560e0820151816007015561010082015181600801555050505050565b60006040518061018001604052806103e8620111708661281f9190614405565b6128299190614236565b81526020016103e862011170866128409190614405565b61284a9190614236565b81526020016103e862011170866128619190614405565b61286b9190614236565b81526020016103e862011170866128829190614405565b61288c9190614236565b81526020016103e862011170866128a39190614405565b6128ad9190614236565b81526020016103e861ea60866128c39190614405565b6128cd9190614236565b81526020016103e861ea60866128e39190614405565b6128ed9190614236565b81526020016103e861ea60866129039190614405565b61290d9190614236565b81526020016103e861ea60866129239190614405565b61292d9190614236565b81526020016103e861ea60866129439190614405565b61294d9190614236565b81526020016103e861ea60866129639190614405565b61296d9190614236565b81526020016103e861ea60866129839190614405565b61298d9190614236565b81525090508060096000848152602001908152602001600020600082015181600001556020820151816001015560408201518160020155606082015181600301556080820151816004015560a0820151816005015560c0820151816006015560e082015181600701556101008201518160080155610120820151816009015561014082015181600a015561016082015181600b0155905050505050565b60606000600167ffffffffffffffff811115612a6f577f4e487b7100000000000000000000000000000000000000000000000000000000600052604160045260246000fd5b604051908082528060200260200182016040528015612a9d5781602001602082028036833780820191505090505b5090508281600081518110612adb577f4e487b7100000000000000000000000000000000000000000000000000000000600052603260045260246000fd5b60200260200101818152505080915050919050565b612b0f8473ffffffffffffffffffffffffffffffffffffffff16612f41565b15612ccf578373ffffffffffffffffffffffffffffffffffffffff1663f23a6e6187878686866040518663ffffffff1660e01b8152600401612b55959493929190613bbb565b602060405180830381600087803b158015612b6f57600080fd5b505af1925050508015612ba057506040513d601f19601f82011682018060405250810190612b9d919061366f565b60015b612c4657612bac6144f2565b806308c379a01415612c095750612bc16149b0565b80612bcc5750612c0b565b806040517f08c379a0000000000000000000000000000000000000000000000000000000008152600401612c009190613cdc565b60405180910390fd5b505b6040517f08c379a0000000000000000000000000000000000000000000000000000000008152600401612c3d90613d92565b60405180910390fd5b63f23a6e6160e01b7bffffffffffffffffffffffffffffffffffffffffffffffffffffffff1916817bffffffffffffffffffffffffffffffffffffffffffffffffffffffff191614612ccd576040517f08c379a0000000000000000000000000000000000000000000000000000000008152600401612cc490613db2565b60405180910390fd5b505b505050505050565b612ce5868686868686612f64565b600073ffffffffffffffffffffffffffffffffffffffff168573ffffffffffffffffffffffffffffffffffffffff161415612de35760005b8351811015612de157828181518110612d5f577f4e487b7100000000000000000000000000000000000000000000000000000000600052603260045260246000fd5b602002602001015160046000868481518110612da4577f4e487b7100000000000000000000000000000000000000000000000000000000600052603260045260246000fd5b602002602001015181526020019081526020016000206000828254612dc991906141e0565b9250508190555080612dda906143bc565b9050612d1d565b505b600073ffffffffffffffffffffffffffffffffffffffff168473ffffffffffffffffffffffffffffffffffffffff161415612f395760005b8351811015612f37576000848281518110612e5f577f4e487b7100000000000000000000000000000000000000000000000000000000600052603260045260246000fd5b602002602001015190506000848381518110612ea4577f4e487b7100000000000000000000000000000000000000000000000000000000600052603260045260246000fd5b6020026020010151905060006004600084815260200190815260200160002054905081811015612f09576040517f08c379a0000000000000000000000000000000000000000000000000000000008152600401612f0090613ef2565b60405180910390fd5b818103600460008581526020019081526020016000208190555050505080612f30906143bc565b9050612e1b565b505b505050505050565b6000808273ffffffffffffffffffffffffffffffffffffffff163b119050919050565b505050505050565b828054612f7890614359565b90600052602060002090601f016020900481019282612f9a5760008555612fe1565b82601f10612fb357805160ff1916838001178555612fe1565b82800160010185558215612fe1579182015b82811115612fe0578251825591602001919060010190612fc5565b5b509050612fee9190612ff2565b5090565b5b8082111561300b576000816000905550600101612ff3565b5090565b600061302261301d846140b5565b614090565b9050808382526020820190508285602086028201111561304157600080fd5b60005b8581101561307157816130578882613163565b845260208401935060208301925050600181019050613044565b5050509392505050565b600061308e613089846140e1565b614090565b905080838252602082019050828560208602820111156130ad57600080fd5b60005b858110156130dd57816130c3888261325f565b8452602084019350602083019250506001810190506130b0565b5050509392505050565b60006130fa6130f58461410d565b614090565b90508281526020810184848401111561311257600080fd5b61311d848285614317565b509392505050565b60006131386131338461413e565b614090565b90508281526020810184848401111561315057600080fd5b61315b848285614317565b509392505050565b60008135905061317281614a46565b92915050565b600082601f83011261318957600080fd5b813561319984826020860161300f565b91505092915050565b600082601f8301126131b357600080fd5b81356131c384826020860161307b565b91505092915050565b6000813590506131db81614a5d565b92915050565b6000813590506131f081614a74565b92915050565b60008151905061320581614a74565b92915050565b600082601f83011261321c57600080fd5b813561322c8482602086016130e7565b91505092915050565b600082601f83011261324657600080fd5b8135613256848260208601613125565b91505092915050565b60008135905061326e81614a8b565b92915050565b60008151905061328381614a8b565b92915050565b60006020828403121561329b57600080fd5b60006132a984828501613163565b91505092915050565b600080604083850312156132c557600080fd5b60006132d385828601613163565b92505060206132e485828601613163565b9150509250929050565b600080600080600060a0868803121561330657600080fd5b600061331488828901613163565b955050602061332588828901613163565b945050604086013567ffffffffffffffff81111561334257600080fd5b61334e888289016131a2565b935050606086013567ffffffffffffffff81111561336b57600080fd5b613377888289016131a2565b925050608086013567ffffffffffffffff81111561339457600080fd5b6133a08882890161320b565b9150509295509295909350565b600080600080600060a086880312156133c557600080fd5b60006133d388828901613163565b95505060206133e488828901613163565b94505060406133f58882890161325f565b93505060606134068882890161325f565b925050608086013567ffffffffffffffff81111561342357600080fd5b61342f8882890161320b565b9150509295509295909350565b6000806000806080858703121561345257600080fd5b600061346087828801613163565b945050602085013567ffffffffffffffff81111561347d57600080fd5b613489878288016131a2565b935050604085013567ffffffffffffffff8111156134a657600080fd5b6134b2878288016131a2565b925050606085013567ffffffffffffffff8111156134cf57600080fd5b6134db8782880161320b565b91505092959194509250565b600080604083850312156134fa57600080fd5b600061350885828601613163565b9250506020613519858286016131cc565b9150509250929050565b6000806040838503121561353657600080fd5b600061354485828601613163565b92505060206135558582860161325f565b9150509250929050565b6000806000806080858703121561357557600080fd5b600061358387828801613163565b94505060206135948782880161325f565b93505060406135a58782880161325f565b925050606085013567ffffffffffffffff8111156135c257600080fd5b6135ce8782880161320b565b91505092959194509250565b600080604083850312156135ed57600080fd5b600083013567ffffffffffffffff81111561360757600080fd5b61361385828601613178565b925050602083013567ffffffffffffffff81111561363057600080fd5b61363c858286016131a2565b9150509250929050565b60006020828403121561365857600080fd5b6000613666848285016131e1565b91505092915050565b60006020828403121561368157600080fd5b600061368f848285016131f6565b91505092915050565b6000602082840312156136aa57600080fd5b600082013567ffffffffffffffff8111156136c457600080fd5b6136d084828501613235565b91505092915050565b6000602082840312156136eb57600080fd5b60006136f98482850161325f565b91505092915050565b60006020828403121561371457600080fd5b600061372284828501613274565b91505092915050565b6000806040838503121561373e57600080fd5b600061374c8582860161325f565b925050602083013567ffffffffffffffff81111561376957600080fd5b613775858286016131a2565b9150509250929050565b600061378b8383613ad3565b60208301905092915050565b6137a081614267565b82525050565b60006137b18261417f565b6137bb81856141ad565b93506137c68361416f565b8060005b838110156137f75781516137de888261377f565b97506137e9836141a0565b9250506001810190506137ca565b5085935050505092915050565b61380d81614279565b82525050565b61381c81614285565b82525050565b600061382d8261418a565b61383781856141be565b9350613847818560208601614326565b61385081614514565b840191505092915050565b600061386682614195565b61387081856141cf565b9350613880818560208601614326565b61388981614514565b840191505092915050565b60006138a16034836141cf565b91506138ac82614532565b604082019050919050565b60006138c46028836141cf565b91506138cf82614581565b604082019050919050565b60006138e76014836141cf565b91506138f2826145d0565b602082019050919050565b600061390a602b836141cf565b9150613915826145f9565b604082019050919050565b600061392d6026836141cf565b915061393882614648565b604082019050919050565b60006139506029836141cf565b915061395b82614697565b604082019050919050565b60006139736010836141cf565b915061397e826146e6565b602082019050919050565b60006139966025836141cf565b91506139a18261470f565b604082019050919050565b60006139b96032836141cf565b91506139c48261475e565b604082019050919050565b60006139dc602a836141cf565b91506139e7826147ad565b604082019050919050565b60006139ff6020836141cf565b9150613a0a826147fc565b602082019050919050565b6000613a226028836141cf565b9150613a2d82614825565b604082019050919050565b6000613a456029836141cf565b9150613a5082614874565b604082019050919050565b6000613a686029836141cf565b9150613a73826148c3565b604082019050919050565b6000613a8b6028836141cf565b9150613a9682614912565b604082019050919050565b6000613aae6021836141cf565b9150613ab982614961565b604082019050919050565b613acd816142bb565b82525050565b613adc816142e9565b82525050565b613aeb816142e9565b82525050565b613afa816142f3565b82525050565b613b0981614303565b82525050565b6000602082019050613b246000830184613797565b92915050565b6000604082019050613b3f6000830185613797565b613b4c6020830184613797565b9392505050565b600060a082019050613b686000830188613797565b613b756020830187613797565b8181036040830152613b8781866137a6565b90508181036060830152613b9b81856137a6565b90508181036080830152613baf8184613822565b90509695505050505050565b600060a082019050613bd06000830188613797565b613bdd6020830187613797565b613bea6040830186613ae2565b613bf76060830185613ae2565b8181036080830152613c098184613822565b90509695505050505050565b60006020820190508181036000830152613c2f81846137a6565b905092915050565b60006040820190508181036000830152613c5181856137a6565b90508181036020830152613c6581846137a6565b90509392505050565b6000602082019050613c836000830184613804565b92915050565b600060a082019050613c9e6000830188613813565b613cab6020830187613b00565b613cb86040830186613ac4565b613cc56060830185613af1565b613cd26080830184613af1565b9695505050505050565b60006020820190508181036000830152613cf6818461385b565b905092915050565b6000610120820190508181036000830152613d19818c61385b565b9050613d28602083018b613ae2565b613d35604083018a613ae2565b613d426060830189613ae2565b613d4f6080830188613ae2565b613d5c60a0830187613ae2565b613d6960c0830186613ae2565b613d7660e0830185613ae2565b613d84610100830184613ae2565b9a9950505050505050505050565b60006020820190508181036000830152613dab81613894565b9050919050565b60006020820190508181036000830152613dcb816138b7565b9050919050565b60006020820190508181036000830152613deb816138da565b9050919050565b60006020820190508181036000830152613e0b816138fd565b9050919050565b60006020820190508181036000830152613e2b81613920565b9050919050565b60006020820190508181036000830152613e4b81613943565b9050919050565b60006020820190508181036000830152613e6b81613966565b9050919050565b60006020820190508181036000830152613e8b81613989565b9050919050565b60006020820190508181036000830152613eab816139ac565b9050919050565b60006020820190508181036000830152613ecb816139cf565b9050919050565b60006020820190508181036000830152613eeb816139f2565b9050919050565b60006020820190508181036000830152613f0b81613a15565b9050919050565b60006020820190508181036000830152613f2b81613a38565b9050919050565b60006020820190508181036000830152613f4b81613a5b565b9050919050565b60006020820190508181036000830152613f6b81613a7e565b9050919050565b60006020820190508181036000830152613f8b81613aa1565b9050919050565b6000602082019050613fa76000830184613ae2565b92915050565b6000604082019050613fc26000830185613ae2565b613fcf6020830184613ae2565b9392505050565b600061018082019050613fec600083018f613ae2565b613ff9602083018e613ae2565b614006604083018d613ae2565b614013606083018c613ae2565b614020608083018b613ae2565b61402d60a083018a613ae2565b61403a60c0830189613ae2565b61404760e0830188613ae2565b614055610100830187613ae2565b614063610120830186613ae2565b614071610140830185613ae2565b61407f610160830184613ae2565b9d9c50505050505050505050505050565b600061409a6140ab565b90506140a6828261438b565b919050565b6000604051905090565b600067ffffffffffffffff8211156140d0576140cf6144c3565b5b602082029050602081019050919050565b600067ffffffffffffffff8211156140fc576140fb6144c3565b5b602082029050602081019050919050565b600067ffffffffffffffff821115614128576141276144c3565b5b61413182614514565b9050602081019050919050565b600067ffffffffffffffff821115614159576141586144c3565b5b61416282614514565b9050602081019050919050565b6000819050602082019050919050565b600081519050919050565b600081519050919050565b600081519050919050565b6000602082019050919050565b600082825260208201905092915050565b600082825260208201905092915050565b600082825260208201905092915050565b60006141eb826142e9565b91506141f6836142e9565b9250827fffffffffffffffffffffffffffffffffffffffffffffffffffffffffffffffff0382111561422b5761422a614436565b5b828201905092915050565b6000614241826142e9565b915061424c836142e9565b92508261425c5761425b614465565b5b828204905092915050565b6000614272826142c9565b9050919050565b60008115159050919050565b6000819050919050565b60007fffffffff0000000000000000000000000000000000000000000000000000000082169050919050565b600061ffff82169050919050565b600073ffffffffffffffffffffffffffffffffffffffff82169050919050565b6000819050919050565b600063ffffffff82169050919050565b600067ffffffffffffffff82169050919050565b82818337600083830152505050565b60005b83811015614344578082015181840152602081019050614329565b83811115614353576000848401525b50505050565b6000600282049050600182168061437157607f821691505b6020821081141561438557614384614494565b5b50919050565b61439482614514565b810181811067ffffffffffffffff821117156143b3576143b26144c3565b5b80604052505050565b60006143c7826142e9565b91507fffffffffffffffffffffffffffffffffffffffffffffffffffffffffffffffff8214156143fa576143f9614436565b5b600182019050919050565b6000614410826142e9565b915061441b836142e9565b92508261442b5761442a614465565b5b828206905092915050565b7f4e487b7100000000000000000000000000000000000000000000000000000000600052601160045260246000fd5b7f4e487b7100000000000000000000000000000000000000000000000000000000600052601260045260246000fd5b7f4e487b7100000000000000000000000000000000000000000000000000000000600052602260045260246000fd5b7f4e487b7100000000000000000000000000000000000000000000000000000000600052604160045260246000fd5b600060033d11156145115760046000803e61450e600051614525565b90505b90565b6000601f19601f8301169050919050565b60008160e01c9050919050565b7f455243313135353a207472616e7366657220746f206e6f6e204552433131353560008201527f526563656976657220696d706c656d656e746572000000000000000000000000602082015250565b7f455243313135353a204552433131353552656365697665722072656a6563746560008201527f6420746f6b656e73000000000000000000000000000000000000000000000000602082015250565b7f5061757361626c653a206e6f7420706175736564000000000000000000000000600082015250565b7f455243313135353a2062616c616e636520717565727920666f7220746865207a60008201527f65726f2061646472657373000000000000000000000000000000000000000000602082015250565b7f4f776e61626c653a206e6577206f776e657220697320746865207a65726f206160008201527f6464726573730000000000000000000000000000000000000000000000000000602082015250565b7f455243313135353a2063616c6c6572206973206e6f74206f776e6572206e6f7260008201527f20617070726f7665640000000000000000000000000000000000000000000000602082015250565b7f5061757361626c653a2070617573656400000000000000000000000000000000600082015250565b7f455243313135353a207472616e7366657220746f20746865207a65726f20616460008201527f6472657373000000000000000000000000000000000000000000000000000000602082015250565b7f455243313135353a207472616e736665722063616c6c6572206973206e6f742060008201527f6f776e6572206e6f7220617070726f7665640000000000000000000000000000602082015250565b7f455243313135353a20696e73756666696369656e742062616c616e636520666f60008201527f72207472616e7366657200000000000000000000000000000000000000000000602082015250565b7f4f776e61626c653a2063616c6c6572206973206e6f7420746865206f776e6572600082015250565b7f455243313135353a206275726e20616d6f756e74206578636565647320746f7460008201527f616c537570706c79000000000000000000000000000000000000000000000000602082015250565b7f455243313135353a2073657474696e6720617070726f76616c2073746174757360008201527f20666f722073656c660000000000000000000000000000000000000000000000602082015250565b7f455243313135353a206163636f756e747320616e6420696473206c656e67746860008201527f206d69736d617463680000000000000000000000000000000000000000000000602082015250565b7f455243313135353a2069647320616e6420616d6f756e7473206c656e6774682060008201527f6d69736d61746368000000000000000000000000000000000000000000000000602082015250565b7f455243313135353a206d696e7420746f20746865207a65726f2061646472657360008201527f7300000000000000000000000000000000000000000000000000000000000000602082015250565b600060443d10156149c057614a43565b6149c86140ab565b60043d036004823e80513d602482011167ffffffffffffffff821117156149f0575050614a43565b808201805167ffffffffffffffff811115614a0e5750505050614a43565b80602083010160043d038501811115614a2b575050505050614a43565b614a3a8260200185018661438b565b82955050505050505b90565b614a4f81614267565b8114614a5a57600080fd5b50565b614a6681614279565b8114614a7157600080fd5b50565b614a7d8161428f565b8114614a8857600080fd5b50565b614a94816142e9565b8114614a9f57600080fd5b5056fea2646970667358221220e6e2e41eff21b118fd135545edfc0c4bf292d19cab193d58886e3f65e620352664736f6c63430008040033",
  "linkReferences": {},
  "deployedLinkReferences": {}
}