{
  "_format": "hh-sol-artifact-1",
  "contractName": "Dex",
  "sourceName": "contracts/Dex.sol",
  "abi": [
    {
      "anonymous": false,
      "inputs": [
        {
          "indexed": true,
          "internalType": "address",
          "name": "owner",
          "type": "address"
        },
        {
          "indexed": false,
          "internalType": "enum IBedroomNft.Category",
          "name": "category",
          "type": "uint8"
        },
        {
          "indexed": false,
          "internalType": "uint256",
          "name": "designId",
          "type": "uint256"
        }
      ],
      "name": "BuyNft",
      "type": "event"
    },
    {
      "anonymous": false,
      "inputs": [
        {
          "indexed": false,
          "internalType": "uint8",
          "name": "version",
          "type": "uint8"
        }
      ],
      "name": "Initialized",
      "type": "event"
    },
    {
      "anonymous": false,
      "inputs": [
        {
          "indexed": true,
          "internalType": "address",
          "name": "previousOwner",
          "type": "address"
        },
        {
          "indexed": true,
          "internalType": "address",
          "name": "newOwner",
          "type": "address"
        }
      ],
      "name": "OwnershipTransferred",
      "type": "event"
    },
    {
      "anonymous": false,
      "inputs": [
        {
          "indexed": true,
          "internalType": "address",
          "name": "sender",
          "type": "address"
        },
        {
          "indexed": false,
          "internalType": "uint256",
          "name": "price",
          "type": "uint256"
        }
      ],
      "name": "ReceivedMoney",
      "type": "event"
    },
    {
      "anonymous": false,
      "inputs": [
        {
          "indexed": true,
          "internalType": "address",
          "name": "owner",
          "type": "address"
        },
        {
          "indexed": false,
          "internalType": "enum IBedroomNft.Category",
          "name": "category",
          "type": "uint8"
        },
        {
          "indexed": false,
          "internalType": "uint256",
          "name": "tokenId",
          "type": "uint256"
        },
        {
          "indexed": false,
          "internalType": "uint256",
          "name": "newDesignId",
          "type": "uint256"
        },
        {
          "indexed": false,
          "internalType": "uint256",
          "name": "upgradeDesignId",
          "type": "uint256"
        },
        {
          "indexed": false,
          "internalType": "uint256",
          "name": "upgradeIndex",
          "type": "uint256"
        },
        {
          "indexed": false,
          "internalType": "uint256",
          "name": "price",
          "type": "uint256"
        }
      ],
      "name": "UpgradeNft",
      "type": "event"
    },
    {
      "anonymous": false,
      "inputs": [
        {
          "indexed": true,
          "internalType": "address",
          "name": "receiver",
          "type": "address"
        },
        {
          "indexed": false,
          "internalType": "uint256",
          "name": "price",
          "type": "uint256"
        }
      ],
      "name": "WithdrawMoney",
      "type": "event"
    },
    {
      "inputs": [],
      "name": "bedroomNftInstance",
      "outputs": [
        {
          "internalType": "contract IBedroomNft",
          "name": "",
          "type": "address"
        }
      ],
      "stateMutability": "view",
      "type": "function"
    },
    {
      "inputs": [
        {
          "internalType": "enum IBedroomNft.Category",
          "name": "_category",
          "type": "uint8"
        },
        {
          "internalType": "uint256",
          "name": "_designId",
          "type": "uint256"
        }
      ],
      "name": "buyNft",
      "outputs": [],
      "stateMutability": "payable",
      "type": "function"
    },
    {
      "inputs": [],
      "name": "getBalance",
      "outputs": [
        {
          "internalType": "uint256",
          "name": "",
          "type": "uint256"
        }
      ],
      "stateMutability": "view",
      "type": "function"
    },
    {
      "inputs": [
        {
          "internalType": "address",
          "name": "_teamWallet",
          "type": "address"
        },
        {
          "internalType": "contract ISleepToken",
          "name": "_sleepToken",
          "type": "address"
        },
        {
          "internalType": "contract IBedroomNft",
          "name": "_bedroomNft",
          "type": "address"
        },
        {
          "internalType": "contract IUpgradeNft",
          "name": "_upgradeNft",
          "type": "address"
        }
      ],
      "name": "initialize",
      "outputs": [],
      "stateMutability": "nonpayable",
      "type": "function"
    },
    {
      "inputs": [],
      "name": "owner",
      "outputs": [
        {
          "internalType": "address",
          "name": "",
          "type": "address"
        }
      ],
      "stateMutability": "view",
      "type": "function"
    },
    {
      "inputs": [
        {
          "internalType": "enum IBedroomNft.Category",
          "name": "",
          "type": "uint8"
        }
      ],
      "name": "prices",
      "outputs": [
        {
          "internalType": "uint256",
          "name": "purchaseCost",
          "type": "uint256"
        }
      ],
      "stateMutability": "view",
      "type": "function"
    },
    {
      "inputs": [],
      "name": "renounceOwnership",
      "outputs": [],
      "stateMutability": "nonpayable",
      "type": "function"
    },
    {
      "inputs": [
        {
          "internalType": "enum IBedroomNft.Category",
          "name": "_category",
          "type": "uint8"
        },
        {
          "internalType": "uint256",
          "name": "_price",
          "type": "uint256"
        }
      ],
      "name": "setBuyingPrices",
      "outputs": [],
      "stateMutability": "nonpayable",
      "type": "function"
    },
    {
      "inputs": [
        {
          "internalType": "contract ISleepToken",
          "name": "_sleepToken",
          "type": "address"
        },
        {
          "internalType": "contract IBedroomNft",
          "name": "_bedroomNft",
          "type": "address"
        },
        {
          "internalType": "contract IUpgradeNft",
          "name": "_upgradeNft",
          "type": "address"
        }
      ],
      "name": "setContracts",
      "outputs": [],
      "stateMutability": "nonpayable",
      "type": "function"
    },
    {
      "inputs": [
        {
          "internalType": "address",
          "name": "_newAddress",
          "type": "address"
        }
      ],
      "name": "setTeamWallet",
      "outputs": [],
      "stateMutability": "nonpayable",
      "type": "function"
    },
    {
      "inputs": [
        {
          "internalType": "enum IBedroomNft.Category",
          "name": "_category",
          "type": "uint8"
        },
        {
          "internalType": "uint256",
          "name": "_upgradeIndex",
          "type": "uint256"
        },
        {
          "internalType": "uint256",
          "name": "_indexAttribute",
          "type": "uint256"
        },
        {
          "internalType": "uint256",
          "name": "_valueToAddMax",
          "type": "uint256"
        },
        {
          "internalType": "uint256",
          "name": "_price",
          "type": "uint256"
        }
      ],
      "name": "setUpgradePrices",
      "outputs": [],
      "stateMutability": "nonpayable",
      "type": "function"
    },
    {
      "inputs": [],
      "name": "sleepTokenInstance",
      "outputs": [
        {
          "internalType": "contract ISleepToken",
          "name": "",
          "type": "address"
        }
      ],
      "stateMutability": "view",
      "type": "function"
    },
    {
      "inputs": [],
      "name": "teamWallet",
      "outputs": [
        {
          "internalType": "address",
          "name": "",
          "type": "address"
        }
      ],
      "stateMutability": "view",
      "type": "function"
    },
    {
      "inputs": [
        {
          "internalType": "address",
          "name": "newOwner",
          "type": "address"
        }
      ],
      "name": "transferOwnership",
      "outputs": [],
      "stateMutability": "nonpayable",
      "type": "function"
    },
    {
      "inputs": [
        {
          "internalType": "uint256",
          "name": "_tokenId",
          "type": "uint256"
        },
        {
          "internalType": "uint256",
          "name": "_newDesignId",
          "type": "uint256"
        },
        {
          "internalType": "uint256",
          "name": "_upgradeDesignId",
          "type": "uint256"
        },
        {
          "internalType": "uint256",
          "name": "_upgradeIndex",
          "type": "uint256"
        },
        {
          "internalType": "uint256",
          "name": "_price",
          "type": "uint256"
        }
      ],
      "name": "upgradeNft",
      "outputs": [],
      "stateMutability": "nonpayable",
      "type": "function"
    },
    {
      "inputs": [],
      "name": "upgradeNftInstance",
      "outputs": [
        {
          "internalType": "contract IUpgradeNft",
          "name": "",
          "type": "address"
        }
      ],
      "stateMutability": "view",
      "type": "function"
    },
    {
      "inputs": [],
      "name": "withdrawMoney",
      "outputs": [],
      "stateMutability": "nonpayable",
      "type": "function"
    }
  ],
  "bytecode": "0x608060405234801561001057600080fd5b50612872806100206000396000f3fe6080604052600436106100fe5760003560e01c80638a3177a311610095578063d37e5c6c11610064578063d37e5c6c146102dc578063db6f3d6e14610305578063e4ff09df14610330578063f2fde38b14610359578063f8c8765e14610382576100fe565b80638a3177a3146102345780638da5cb5b14610271578063ac4460021461029c578063b3066d49146102b3576100fe565b80634a9c2276116100d15780634a9c2276146101ab57806359927044146101d65780636b3a7b0014610201578063715018a61461021d576100fe565b80630bf98f091461010357806312065fe01461012c5780631525ff7d1461015757806330b67cb314610180575b600080fd5b34801561010f57600080fd5b5061012a60048036038101906101259190611a25565b6103ab565b005b34801561013857600080fd5b5061014161046a565b60405161014e9190611a74565b60405180910390f35b34801561016357600080fd5b5061017e60048036038101906101799190611aed565b6104ee565b005b34801561018c57600080fd5b506101956105ae565b6040516101a29190611b79565b60405180910390f35b3480156101b757600080fd5b506101c06105d4565b6040516101cd9190611bb5565b60405180910390f35b3480156101e257600080fd5b506101eb6105fa565b6040516101f89190611bdf565b60405180910390f35b61021b60048036038101906102169190611a25565b610620565b005b34801561022957600080fd5b506102326107e4565b005b34801561024057600080fd5b5061025b60048036038101906102569190611bfa565b61086c565b6040516102689190611a74565b60405180910390f35b34801561027d57600080fd5b5061028661088a565b6040516102939190611bdf565b60405180910390f35b3480156102a857600080fd5b506102b16108b4565b005b3480156102bf57600080fd5b506102da60048036038101906102d59190611ce1565b610a11565b005b3480156102e857600080fd5b5061030360048036038101906102fe9190611d34565b610b55565b005b34801561031157600080fd5b5061031a6111e1565b6040516103279190611dd0565b60405180910390f35b34801561033c57600080fd5b5061035760048036038101906103529190611deb565b611207565b005b34801561036557600080fd5b50610380600480360381019061037b9190611aed565b611311565b005b34801561038e57600080fd5b506103a960048036038101906103a49190611e66565b611408565b005b6103b3611720565b73ffffffffffffffffffffffffffffffffffffffff166103d161088a565b73ffffffffffffffffffffffffffffffffffffffff1614610427576040517f08c379a000000000000000000000000000000000000000000000000000000000815260040161041e90611f2a565b60405180910390fd5b806069600084600281111561043f5761043e611f4a565b5b600281111561045157610450611f4a565b5b8152602001908152602001600020600001819055505050565b6000610474611720565b73ffffffffffffffffffffffffffffffffffffffff1661049261088a565b73ffffffffffffffffffffffffffffffffffffffff16146104e8576040517f08c379a00000000000000000000000000000000000000000000000000000000081526004016104df90611f2a565b60405180910390fd5b47905090565b6104f6611720565b73ffffffffffffffffffffffffffffffffffffffff1661051461088a565b73ffffffffffffffffffffffffffffffffffffffff161461056a576040517f08c379a000000000000000000000000000000000000000000000000000000000815260040161056190611f2a565b60405180910390fd5b80606560006101000a81548173ffffffffffffffffffffffffffffffffffffffff021916908373ffffffffffffffffffffffffffffffffffffffff16021790555050565b606860009054906101000a900473ffffffffffffffffffffffffffffffffffffffff1681565b606660009054906101000a900473ffffffffffffffffffffffffffffffffffffffff1681565b606560009054906101000a900473ffffffffffffffffffffffffffffffffffffffff1681565b670de0b6b3a7640000606960008460028111156106405761063f611f4a565b5b600281111561065257610651611f4a565b5b81526020019081526020016000206000015461066e9190611fa8565b34146106af576040517f08c379a00000000000000000000000000000000000000000000000000000000081526004016106a69061204e565b60405180910390fd5b606760009054906101000a900473ffffffffffffffffffffffffffffffffffffffff1673ffffffffffffffffffffffffffffffffffffffff16636994f475823485336040518563ffffffff1660e01b815260040161071094939291906120b6565b600060405180830381600087803b15801561072a57600080fd5b505af115801561073e573d6000803e3d6000fd5b505050503373ffffffffffffffffffffffffffffffffffffffff167f1eecca468696826e4a3e1cede53d8f7201e081e5c5ea6413268f845f866d606d838360405161078a9291906120fb565b60405180910390a23373ffffffffffffffffffffffffffffffffffffffff167fe3abd548243c02b6b6adfaa9f4d721e545bef8c1e915fd1158695d8c128be0f5346040516107d89190611a74565b60405180910390a25050565b6107ec611720565b73ffffffffffffffffffffffffffffffffffffffff1661080a61088a565b73ffffffffffffffffffffffffffffffffffffffff1614610860576040517f08c379a000000000000000000000000000000000000000000000000000000000815260040161085790611f2a565b60405180910390fd5b61086a6000611728565b565b60696020528060005260406000206000915090508060000154905081565b6000603360009054906101000a900473ffffffffffffffffffffffffffffffffffffffff16905090565b6108bc611720565b73ffffffffffffffffffffffffffffffffffffffff166108da61088a565b73ffffffffffffffffffffffffffffffffffffffff1614610930576040517f08c379a000000000000000000000000000000000000000000000000000000000815260040161092790611f2a565b60405180910390fd5b6000606560009054906101000a900473ffffffffffffffffffffffffffffffffffffffff1690508073ffffffffffffffffffffffffffffffffffffffff166108fc479081150290604051600060405180830381858888f1935050505015801561099d573d6000803e3d6000fd5b50606560009054906101000a900473ffffffffffffffffffffffffffffffffffffffff1673ffffffffffffffffffffffffffffffffffffffff167f9fe2db218b58c00ab3556f2be44b2769b37978368c63313d82d78306568e477647604051610a069190611a74565b60405180910390a250565b610a19611720565b73ffffffffffffffffffffffffffffffffffffffff16610a3761088a565b73ffffffffffffffffffffffffffffffffffffffff1614610a8d576040517f08c379a0000000000000000000000000000000000000000000000000000000008152600401610a8490611f2a565b60405180910390fd5b82606660006101000a81548173ffffffffffffffffffffffffffffffffffffffff021916908373ffffffffffffffffffffffffffffffffffffffff16021790555081606760006101000a81548173ffffffffffffffffffffffffffffffffffffffff021916908373ffffffffffffffffffffffffffffffffffffffff16021790555080606860006101000a81548173ffffffffffffffffffffffffffffffffffffffff021916908373ffffffffffffffffffffffffffffffffffffffff160217905550505050565b6000606760009054906101000a900473ffffffffffffffffffffffffffffffffffffffff1673ffffffffffffffffffffffffffffffffffffffff1663f4e6a71c876040518263ffffffff1660e01b8152600401610bb29190611a74565b60a060405180830381865afa158015610bcf573d6000803e3d6000fd5b505050506040513d601f19601f82011682018060405250810190610bf39190612280565b9050600081608001519050600060696000836002811115610c1757610c16611f4a565b5b6002811115610c2957610c28611f4a565b5b81526020019081526020016000206001016000868152602001908152602001600020600201549050600060696000846002811115610c6a57610c69611f4a565b5b6002811115610c7c57610c7b611f4a565b5b81526020019081526020016000206001016000878152602001908152602001600020600101549050600060696000856002811115610cbd57610cbc611f4a565b5b6002811115610ccf57610cce611f4a565b5b81526020019081526020016000206001016000888152602001908152602001600020600001549050846000015173ffffffffffffffffffffffffffffffffffffffff163373ffffffffffffffffffffffffffffffffffffffff1614610d69576040517f08c379a0000000000000000000000000000000000000000000000000000000008152600401610d60906122f9565b60405180910390fd5b828614610dab576040517f08c379a0000000000000000000000000000000000000000000000000000000008152600401610da29061204e565b60405180910390fd5b6000606660009054906101000a900473ffffffffffffffffffffffffffffffffffffffff1673ffffffffffffffffffffffffffffffffffffffff166370a08231336040518263ffffffff1660e01b8152600401610e089190611bdf565b602060405180830381865afa158015610e25573d6000803e3d6000fd5b505050506040513d601f19601f82011682018060405250810190610e499190612319565b905086811015610e8e576040517f08c379a0000000000000000000000000000000000000000000000000000000008152600401610e8590612392565b60405180910390fd5b86606660009054906101000a900473ffffffffffffffffffffffffffffffffffffffff1673ffffffffffffffffffffffffffffffffffffffff1663dd62ed3e33306040518363ffffffff1660e01b8152600401610eec9291906123b2565b602060405180830381865afa158015610f09573d6000803e3d6000fd5b505050506040513d601f19601f82011682018060405250810190610f2d9190612319565b1015610f6e576040517f08c379a0000000000000000000000000000000000000000000000000000000008152600401610f6590612427565b60405180910390fd5b606660009054906101000a900473ffffffffffffffffffffffffffffffffffffffff1673ffffffffffffffffffffffffffffffffffffffff166379cc679033896040518363ffffffff1660e01b8152600401610fcb929190612447565b600060405180830381600087803b158015610fe557600080fd5b505af1158015610ff9573d6000803e3d6000fd5b505050508087606660009054906101000a900473ffffffffffffffffffffffffffffffffffffffff1673ffffffffffffffffffffffffffffffffffffffff166370a08231336040518263ffffffff1660e01b815260040161105a9190611bdf565b602060405180830381865afa158015611077573d6000803e3d6000fd5b505050506040513d601f19601f8201168201806040525081019061109b9190612319565b6110a59190612470565b146110e5576040517f08c379a00000000000000000000000000000000000000000000000000000000081526004016110dc90612512565b60405180910390fd5b606860009054906101000a900473ffffffffffffffffffffffffffffffffffffffff1673ffffffffffffffffffffffffffffffffffffffff1663c13d4dbb8b8b8a8688336040518763ffffffff1660e01b815260040161114a96959493929190612532565b600060405180830381600087803b15801561116457600080fd5b505af1158015611178573d6000803e3d6000fd5b505050503373ffffffffffffffffffffffffffffffffffffffff167f5319ec737e1e9ba6d507c8afa0327e8725eb73bef297d253bec5eaccd5dbbefd868d8d8d8d8d6040516111cc96959493929190612593565b60405180910390a25050505050505050505050565b606760009054906101000a900473ffffffffffffffffffffffffffffffffffffffff1681565b61120f611720565b73ffffffffffffffffffffffffffffffffffffffff1661122d61088a565b73ffffffffffffffffffffffffffffffffffffffff1614611283576040517f08c379a000000000000000000000000000000000000000000000000000000000815260040161127a90611f2a565b60405180910390fd5b604051806060016040528084815260200183815260200182815250606960008760028111156112b5576112b4611f4a565b5b60028111156112c7576112c6611f4a565b5b815260200190815260200160002060010160008681526020019081526020016000206000820151816000015560208201518160010155604082015181600201559050505050505050565b611319611720565b73ffffffffffffffffffffffffffffffffffffffff1661133761088a565b73ffffffffffffffffffffffffffffffffffffffff161461138d576040517f08c379a000000000000000000000000000000000000000000000000000000000815260040161138490611f2a565b60405180910390fd5b600073ffffffffffffffffffffffffffffffffffffffff168173ffffffffffffffffffffffffffffffffffffffff16036113fc576040517f08c379a00000000000000000000000000000000000000000000000000000000081526004016113f390612666565b60405180910390fd5b61140581611728565b50565b600061141460016117ee565b90508015611438576001600060016101000a81548160ff0219169083151502179055505b6114406118de565b84606560006101000a81548173ffffffffffffffffffffffffffffffffffffffff021916908373ffffffffffffffffffffffffffffffffffffffff16021790555083606660006101000a81548173ffffffffffffffffffffffffffffffffffffffff021916908373ffffffffffffffffffffffffffffffffffffffff16021790555082606760006101000a81548173ffffffffffffffffffffffffffffffffffffffff021916908373ffffffffffffffffffffffffffffffffffffffff16021790555081606860006101000a81548173ffffffffffffffffffffffffffffffffffffffff021916908373ffffffffffffffffffffffffffffffffffffffff160217905550600073ffffffffffffffffffffffffffffffffffffffff16606560009054906101000a900473ffffffffffffffffffffffffffffffffffffffff1673ffffffffffffffffffffffffffffffffffffffff16036115a3576115a2612686565b5b600073ffffffffffffffffffffffffffffffffffffffff16606760009054906101000a900473ffffffffffffffffffffffffffffffffffffffff1673ffffffffffffffffffffffffffffffffffffffff160361160257611601612686565b5b600073ffffffffffffffffffffffffffffffffffffffff16606860009054906101000a900473ffffffffffffffffffffffffffffffffffffffff1673ffffffffffffffffffffffffffffffffffffffff160361166157611660612686565b5b600073ffffffffffffffffffffffffffffffffffffffff16606660009054906101000a900473ffffffffffffffffffffffffffffffffffffffff1673ffffffffffffffffffffffffffffffffffffffff16036116c0576116bf612686565b5b80156117195760008060016101000a81548160ff0219169083151502179055507f7f26b83ff96e1f2b6a682f133852f6798a09c465da95921460cefb3847402498600160405161171091906126fd565b60405180910390a15b5050505050565b600033905090565b6000603360009054906101000a900473ffffffffffffffffffffffffffffffffffffffff16905081603360006101000a81548173ffffffffffffffffffffffffffffffffffffffff021916908373ffffffffffffffffffffffffffffffffffffffff1602179055508173ffffffffffffffffffffffffffffffffffffffff168173ffffffffffffffffffffffffffffffffffffffff167f8be0079c531659141344cd1fd0a4f28419497f9722a3daafe3b4186f6b6457e060405160405180910390a35050565b60008060019054906101000a900460ff16156118655760018260ff1614801561181d575061181b30611937565b155b61185c576040517f08c379a00000000000000000000000000000000000000000000000000000000081526004016118539061278a565b60405180910390fd5b600090506118d9565b8160ff1660008054906101000a900460ff1660ff16106118ba576040517f08c379a00000000000000000000000000000000000000000000000000000000081526004016118b19061278a565b60405180910390fd5b816000806101000a81548160ff021916908360ff160217905550600190505b919050565b600060019054906101000a900460ff1661192d576040517f08c379a00000000000000000000000000000000000000000000000000000000081526004016119249061281c565b60405180910390fd5b61193561195a565b565b6000808273ffffffffffffffffffffffffffffffffffffffff163b119050919050565b600060019054906101000a900460ff166119a9576040517f08c379a00000000000000000000000000000000000000000000000000000000081526004016119a09061281c565b60405180910390fd5b6119b96119b4611720565b611728565b565b6000604051905090565b600080fd5b600381106119d757600080fd5b50565b6000813590506119e9816119ca565b92915050565b6000819050919050565b611a02816119ef565b8114611a0d57600080fd5b50565b600081359050611a1f816119f9565b92915050565b60008060408385031215611a3c57611a3b6119c5565b5b6000611a4a858286016119da565b9250506020611a5b85828601611a10565b9150509250929050565b611a6e816119ef565b82525050565b6000602082019050611a896000830184611a65565b92915050565b600073ffffffffffffffffffffffffffffffffffffffff82169050919050565b6000611aba82611a8f565b9050919050565b611aca81611aaf565b8114611ad557600080fd5b50565b600081359050611ae781611ac1565b92915050565b600060208284031215611b0357611b026119c5565b5b6000611b1184828501611ad8565b91505092915050565b6000819050919050565b6000611b3f611b3a611b3584611a8f565b611b1a565b611a8f565b9050919050565b6000611b5182611b24565b9050919050565b6000611b6382611b46565b9050919050565b611b7381611b58565b82525050565b6000602082019050611b8e6000830184611b6a565b92915050565b6000611b9f82611b46565b9050919050565b611baf81611b94565b82525050565b6000602082019050611bca6000830184611ba6565b92915050565b611bd981611aaf565b82525050565b6000602082019050611bf46000830184611bd0565b92915050565b600060208284031215611c1057611c0f6119c5565b5b6000611c1e848285016119da565b91505092915050565b6000611c3282611aaf565b9050919050565b611c4281611c27565b8114611c4d57600080fd5b50565b600081359050611c5f81611c39565b92915050565b6000611c7082611aaf565b9050919050565b611c8081611c65565b8114611c8b57600080fd5b50565b600081359050611c9d81611c77565b92915050565b6000611cae82611aaf565b9050919050565b611cbe81611ca3565b8114611cc957600080fd5b50565b600081359050611cdb81611cb5565b92915050565b600080600060608486031215611cfa57611cf96119c5565b5b6000611d0886828701611c50565b9350506020611d1986828701611c8e565b9250506040611d2a86828701611ccc565b9150509250925092565b600080600080600060a08688031215611d5057611d4f6119c5565b5b6000611d5e88828901611a10565b9550506020611d6f88828901611a10565b9450506040611d8088828901611a10565b9350506060611d9188828901611a10565b9250506080611da288828901611a10565b9150509295509295909350565b6000611dba82611b46565b9050919050565b611dca81611daf565b82525050565b6000602082019050611de56000830184611dc1565b92915050565b600080600080600060a08688031215611e0757611e066119c5565b5b6000611e15888289016119da565b9550506020611e2688828901611a10565b9450506040611e3788828901611a10565b9350506060611e4888828901611a10565b9250506080611e5988828901611a10565b9150509295509295909350565b60008060008060808587031215611e8057611e7f6119c5565b5b6000611e8e87828801611ad8565b9450506020611e9f87828801611c50565b9350506040611eb087828801611c8e565b9250506060611ec187828801611ccc565b91505092959194509250565b600082825260208201905092915050565b7f4f776e61626c653a2063616c6c6572206973206e6f7420746865206f776e6572600082015250565b6000611f14602083611ecd565b9150611f1f82611ede565b602082019050919050565b60006020820190508181036000830152611f4381611f07565b9050919050565b7f4e487b7100000000000000000000000000000000000000000000000000000000600052602160045260246000fd5b7f4e487b7100000000000000000000000000000000000000000000000000000000600052601160045260246000fd5b6000611fb3826119ef565b9150611fbe836119ef565b9250817fffffffffffffffffffffffffffffffffffffffffffffffffffffffffffffffff0483118215151615611ff757611ff6611f79565b5b828202905092915050565b7f57726f6e67207478000000000000000000000000000000000000000000000000600082015250565b6000612038600883611ecd565b915061204382612002565b602082019050919050565b600060208201905081810360008301526120678161202b565b9050919050565b6003811061207f5761207e611f4a565b5b50565b60008190506120908261206e565b919050565b60006120a082612082565b9050919050565b6120b081612095565b82525050565b60006080820190506120cb6000830187611a65565b6120d86020830186611a65565b6120e560408301856120a7565b6120f26060830184611bd0565b95945050505050565b600060408201905061211060008301856120a7565b61211d6020830184611a65565b9392505050565b600080fd5b6000601f19601f8301169050919050565b7f4e487b7100000000000000000000000000000000000000000000000000000000600052604160045260246000fd5b61217282612129565b810181811067ffffffffffffffff821117156121915761219061213a565b5b80604052505050565b60006121a46119bb565b90506121b08282612169565b919050565b6000815190506121c481611ac1565b92915050565b6000815190506121d9816119f9565b92915050565b6000815190506121ee816119ca565b92915050565b600060a0828403121561220a57612209612124565b5b61221460a061219a565b90506000612224848285016121b5565b6000830152506020612238848285016121ca565b602083015250604061224c848285016121ca565b6040830152506060612260848285016121ca565b6060830152506080612274848285016121df565b60808301525092915050565b600060a08284031215612296576122956119c5565b5b60006122a4848285016121f4565b91505092915050565b7f57726f6e672073656e6465720000000000000000000000000000000000000000600082015250565b60006122e3600c83611ecd565b91506122ee826122ad565b602082019050919050565b60006020820190508181036000830152612312816122d6565b9050919050565b60006020828403121561232f5761232e6119c5565b5b600061233d848285016121ca565b91505092915050565b7f4e6f7420656e6f7567682066756e647300000000000000000000000000000000600082015250565b600061237c601083611ecd565b915061238782612346565b602082019050919050565b600060208201905081810360008301526123ab8161236f565b9050919050565b60006040820190506123c76000830185611bd0565b6123d46020830184611bd0565b9392505050565b7f436865636b20616c6c6f77616e63650000000000000000000000000000000000600082015250565b6000612411600f83611ecd565b915061241c826123db565b602082019050919050565b6000602082019050818103600083015261244081612404565b9050919050565b600060408201905061245c6000830185611bd0565b6124696020830184611a65565b9392505050565b600061247b826119ef565b9150612486836119ef565b9250827fffffffffffffffffffffffffffffffffffffffffffffffffffffffffffffffff038211156124bb576124ba611f79565b5b828201905092915050565b7f416e206572726f72206f63637572726564000000000000000000000000000000600082015250565b60006124fc601183611ecd565b9150612507826124c6565b602082019050919050565b6000602082019050818103600083015261252b816124ef565b9050919050565b600060c0820190506125476000830189611a65565b6125546020830188611a65565b6125616040830187611a65565b61256e6060830186611a65565b61257b6080830185611a65565b61258860a0830184611bd0565b979650505050505050565b600060c0820190506125a860008301896120a7565b6125b56020830188611a65565b6125c26040830187611a65565b6125cf6060830186611a65565b6125dc6080830185611a65565b6125e960a0830184611a65565b979650505050505050565b7f4f776e61626c653a206e6577206f776e657220697320746865207a65726f206160008201527f6464726573730000000000000000000000000000000000000000000000000000602082015250565b6000612650602683611ecd565b915061265b826125f4565b604082019050919050565b6000602082019050818103600083015261267f81612643565b9050919050565b7f4e487b7100000000000000000000000000000000000000000000000000000000600052600160045260246000fd5b6000819050919050565b600060ff82169050919050565b60006126e76126e26126dd846126b5565b611b1a565b6126bf565b9050919050565b6126f7816126cc565b82525050565b600060208201905061271260008301846126ee565b92915050565b7f496e697469616c697a61626c653a20636f6e747261637420697320616c72656160008201527f647920696e697469616c697a6564000000000000000000000000000000000000602082015250565b6000612774602e83611ecd565b915061277f82612718565b604082019050919050565b600060208201905081810360008301526127a381612767565b9050919050565b7f496e697469616c697a61626c653a20636f6e7472616374206973206e6f74206960008201527f6e697469616c697a696e67000000000000000000000000000000000000000000602082015250565b6000612806602b83611ecd565b9150612811826127aa565b604082019050919050565b60006020820190508181036000830152612835816127f9565b905091905056fea2646970667358221220db6b54e8e4cb3bd43863351627a7b8615f803afb0abb8513e5198b2c3eb40fa964736f6c634300080d0033",
  "linkReferences": {},
  "deployedLinkReferences": {}
}