{"address":"0xb150a58d376DeF437AB8b19ab351db7BA2C1eDEe","bytecode":"0x608060405234801561001057600080fd5b50615ed080620000216000396000f3fe608060405234801561001057600080fd5b506004361061014c5760003560e01c80636994f475116100c3578063a22cb4651161007c578063a22cb46514610395578063c8492dbc146103b1578063e985e9c5146103cd578063f242432a146103fd578063f2fde38b14610419578063f4e6a71c146104355761014c565b80636994f475146102e95780636b8ff57414610305578063715018a61461033557806385d90d091461033f57806386b6c9001461035b5780638da5cb5b146103775761014c565b8063162094c411610115578063162094c41461022d57806319a59b1a146102495780631fe543e3146102655780632eb2c2d6146102815780634e1273f41461029d57806355f804b3146102cd5761014c565b8062fdd58e1461015157806301ffc9a71461018157806302f19ecb146101b157806306ef3711146101cd5780630e89341c146101fd575b600080fd5b61016b60048036038101906101669190613ba3565b610465565b6040516101789190613bf2565b60405180910390f35b61019b60048036038101906101969190613c65565b61052e565b6040516101a89190613cad565b60405180910390f35b6101cb60048036038101906101c69190613d06565b610610565b005b6101e760048036038101906101e29190613d46565b610714565b6040516101f49190613bf2565b60405180910390f35b61021760048036038101906102129190613d86565b6109b7565b6040516102249190613e4c565b60405180910390f35b61024760048036038101906102429190613fa3565b6109c9565b005b610263600480360381019061025e9190613fff565b610a53565b005b61027f600480360381019061027a9190614110565b610aea565b005b61029b6004803603810190610296919061420d565b610bae565b005b6102b760048036038101906102b2919061439f565b610c4f565b6040516102c491906144d5565b60405180910390f35b6102e760048036038101906102e29190613fff565b610d68565b005b61030360048036038101906102fe919061451c565b610df0565b005b61031f600480360381019061031a9190613d86565b61114a565b60405161032c9190613e4c565b60405180910390f35b61033d61119c565b005b61035960048036038101906103549190614583565b611224565b005b61037560048036038101906103709190614674565b611445565b005b61037f611624565b60405161038c91906146ea565b60405180910390f35b6103af60048036038101906103aa9190614731565b61164e565b005b6103cb60048036038101906103c691906147e7565b611664565b005b6103e760048036038101906103e2919061484e565b611758565b6040516103f49190613cad565b60405180910390f35b6104176004803603810190610412919061488e565b6117ec565b005b610433600480360381019061042e9190614925565b61188d565b005b61044f600480360381019061044a9190613d86565b611984565b60405161045c9190614a40565b60405180910390f35b60008073ffffffffffffffffffffffffffffffffffffffff168373ffffffffffffffffffffffffffffffffffffffff16036104d5576040517f08c379a00000000000000000000000000000000000000000000000000000000081526004016104cc90614acd565b60405180910390fd5b6097600083815260200190815260200160002060008473ffffffffffffffffffffffffffffffffffffffff1673ffffffffffffffffffffffffffffffffffffffff16815260200190815260200160002054905092915050565b60007fd9b67a26000000000000000000000000000000000000000000000000000000007bffffffffffffffffffffffffffffffffffffffffffffffffffffffff1916827bffffffffffffffffffffffffffffffffffffffffffffffffffffffff191614806105f957507f0e89341c000000000000000000000000000000000000000000000000000000007bffffffffffffffffffffffffffffffffffffffffffffffffffffffff1916827bffffffffffffffffffffffffffffffffffffffffffffffffffffffff1916145b80610609575061060882611a61565b5b9050919050565b610618611acb565b73ffffffffffffffffffffffffffffffffffffffff16610636611624565b73ffffffffffffffffffffffffffffffffffffffff161461068c576040517f08c379a000000000000000000000000000000000000000000000000000000000815260040161068390614b39565b60405180910390fd5b8161012d60006101000a81548173ffffffffffffffffffffffffffffffffffffffff021916908373ffffffffffffffffffffffffffffffffffffffff1602179055508061012e60006101000a81548173ffffffffffffffffffffffffffffffffffffffff021916908373ffffffffffffffffffffffffffffffffffffffff1602179055505050565b600080820361073c5761013660008481526020019081526020016000206000015490506109b1565b600182036107635761013660008481526020019081526020016000206001015490506109b1565b6002820361078a5761013660008481526020019081526020016000206002015490506109b1565b600382036107b15761013660008481526020019081526020016000206003015490506109b1565b600482036107d85761013660008481526020019081526020016000206004015490506109b1565b600582036107ff5761013660008481526020019081526020016000206005015490506109b1565b600682036108265761013660008481526020019081526020016000206006015490506109b1565b6007820361084d5761013660008481526020019081526020016000206007015490506109b1565b600882036108745761013660008481526020019081526020016000206008015490506109b1565b6009820361089b5761013660008481526020019081526020016000206009015490506109b1565b600a82036108c2576101366000848152602001908152602001600020600a015490506109b1565b600b82036108e9576101366000848152602001908152602001600020600b015490506109b1565b600c8203610910576101366000848152602001908152602001600020600c015490506109b1565b600d8203610937576101366000848152602001908152602001600020600d015490506109b1565b600e820361095e576101366000848152602001908152602001600020600e015490506109b1565b600f8203610985576101366000848152602001908152602001600020600f015490506109b1565b601082036109ac5761013660008481526020019081526020016000206010015490506109b1565b600090505b92915050565b60606109c282611ad3565b9050919050565b6109d1611acb565b73ffffffffffffffffffffffffffffffffffffffff166109ef611624565b73ffffffffffffffffffffffffffffffffffffffff1614610a45576040517f08c379a0000000000000000000000000000000000000000000000000000000008152600401610a3c90614b39565b60405180910390fd5b610a4f8282611bb8565b5050565b610a5b611acb565b73ffffffffffffffffffffffffffffffffffffffff16610a79611624565b73ffffffffffffffffffffffffffffffffffffffff1614610acf576040517f08c379a0000000000000000000000000000000000000000000000000000000008152600401610ac690614b39565b60405180910390fd5b806101339080519060200190610ae6929190613a01565b5050565b603360009054906101000a900473ffffffffffffffffffffffffffffffffffffffff1673ffffffffffffffffffffffffffffffffffffffff163373ffffffffffffffffffffffffffffffffffffffff1614610ba05733603360009054906101000a900473ffffffffffffffffffffffffffffffffffffffff166040517f1cf993f4000000000000000000000000000000000000000000000000000000008152600401610b97929190614b59565b60405180910390fd5b610baa8282611c24565b5050565b610bb6611acb565b73ffffffffffffffffffffffffffffffffffffffff168573ffffffffffffffffffffffffffffffffffffffff161480610bfc5750610bfb85610bf6611acb565b611758565b5b610c3b576040517f08c379a0000000000000000000000000000000000000000000000000000000008152600401610c3290614bf4565b60405180910390fd5b610c488585858585611c7d565b5050505050565b60608151835114610c95576040517f08c379a0000000000000000000000000000000000000000000000000000000008152600401610c8c90614c86565b60405180910390fd5b6000835167ffffffffffffffff811115610cb257610cb1613e78565b5b604051908082528060200260200182016040528015610ce05781602001602082028036833780820191505090505b50905060005b8451811015610d5d57610d2d858281518110610d0557610d04614ca6565b5b6020026020010151858381518110610d2057610d1f614ca6565b5b6020026020010151610465565b828281518110610d4057610d3f614ca6565b5b60200260200101818152505080610d5690614d04565b9050610ce6565b508091505092915050565b610d70611acb565b73ffffffffffffffffffffffffffffffffffffffff16610d8e611624565b73ffffffffffffffffffffffffffffffffffffffff1614610de4576040517f08c379a0000000000000000000000000000000000000000000000000000000008152600401610ddb90614b39565b60405180910390fd5b610ded81611fa1565b50565b600073ffffffffffffffffffffffffffffffffffffffff1661012d60009054906101000a900473ffffffffffffffffffffffffffffffffffffffff1673ffffffffffffffffffffffffffffffffffffffff1603610e82576040517f08c379a0000000000000000000000000000000000000000000000000000000008152600401610e7990614d98565b60405180910390fd5b61012d60009054906101000a900473ffffffffffffffffffffffffffffffffffffffff1673ffffffffffffffffffffffffffffffffffffffff163373ffffffffffffffffffffffffffffffffffffffff1614610f13576040517f08c379a0000000000000000000000000000000000000000000000000000000008152600401610f0a90614e04565b60405180910390fd5b600061012f60009054906101000a900473ffffffffffffffffffffffffffffffffffffffff1673ffffffffffffffffffffffffffffffffffffffff16635d3b1d306101325461013160009054906101000a900467ffffffffffffffff16610130601c9054906101000a900461ffff1661013060189054906101000a900463ffffffff1661013060149054906101000a900463ffffffff166040518663ffffffff1660e01b8152600401610fca959493929190614e60565b6020604051808303816000875af1158015610fe9573d6000803e3d6000fd5b505050506040513d601f19601f8201168201806040525081019061100d9190614ec8565b9050610134546101356000838152602001908152602001600020819055506040518060a001604052808373ffffffffffffffffffffffffffffffffffffffff1681526020018581526020018681526020016000815260200184600281111561107857611077614961565b5b815250610137600061013454815260200190815260200160002060008201518160000160006101000a81548173ffffffffffffffffffffffffffffffffffffffff021916908373ffffffffffffffffffffffffffffffffffffffff16021790555060208201518160010155604082015181600201556060820151816003015560808201518160040160006101000a81548160ff0219169083600281111561112257611121614961565b5b0217905550905050610134600081548092919061113e90614d04565b91905055505050505050565b606061115582611fbb565b611175610137600085815260200190815260200160002060030154611fbb565b604051602001611186929190614fc9565b6040516020818303038152906040529050919050565b6111a4611acb565b73ffffffffffffffffffffffffffffffffffffffff166111c2611624565b73ffffffffffffffffffffffffffffffffffffffff1614611218576040517f08c379a000000000000000000000000000000000000000000000000000000000815260040161120f90614b39565b60405180910390fd5b611222600061211b565b565b600073ffffffffffffffffffffffffffffffffffffffff1661012e60009054906101000a900473ffffffffffffffffffffffffffffffffffffffff1673ffffffffffffffffffffffffffffffffffffffff16036112b6576040517f08c379a00000000000000000000000000000000000000000000000000000000081526004016112ad90615075565b60405180910390fd5b61012e60009054906101000a900473ffffffffffffffffffffffffffffffffffffffff1673ffffffffffffffffffffffffffffffffffffffff163373ffffffffffffffffffffffffffffffffffffffff1614611347576040517f08c379a000000000000000000000000000000000000000000000000000000000815260040161133e90614e04565b60405180910390fd5b6113528585856121e1565b6101376000868152602001908152602001600020600301600081548092919061137a90614d04565b919050555080610137600087815260200190815260200160002060010160008282546113a69190615095565b9250508190555060006113b883611fbb565b6101336040516020016113cc9291906151df565b60405160208183030381529060405290506113e78682611bb8565b7f2ec36d35d7abde731d786e3a7f946aaf9de9625dc8a7f4115557f0304edd17cb86611412886109b7565b61013660008a815260200190815260200160002060405161143593929190615447565b60405180910390a1505050505050565b6000611451600161269d565b90508015611475576001600060016101000a81548160ff0219169083151502179055505b61148d6040518060200160405280600081525061278d565b6114956127e8565b61149e84612841565b8361012f60006101000a81548173ffffffffffffffffffffffffffffffffffffffff021916908373ffffffffffffffffffffffffffffffffffffffff1602179055508261013060006101000a81548173ffffffffffffffffffffffffffffffffffffffff021916908373ffffffffffffffffffffffffffffffffffffffff1602179055508461013160006101000a81548167ffffffffffffffff021916908367ffffffffffffffff16021790555081610132819055506206ddd061013060186101000a81548163ffffffff021916908363ffffffff1602179055506006610130601c6101000a81548161ffff021916908361ffff160217905550601161013060146101000a81548163ffffffff021916908363ffffffff160217905550600061013481905550801561161d5760008060016101000a81548160ff0219169083151502179055507f7f26b83ff96e1f2b6a682f133852f6798a09c465da95921460cefb3847402498600160405161161491906154d8565b60405180910390a15b5050505050565b600060c960009054906101000a900473ffffffffffffffffffffffffffffffffffffffff16905090565b611660611659611acb565b83836128d4565b5050565b61166c611acb565b73ffffffffffffffffffffffffffffffffffffffff1661168a611624565b73ffffffffffffffffffffffffffffffffffffffff16146116e0576040517f08c379a00000000000000000000000000000000000000000000000000000000081526004016116d790614b39565b60405180910390fd5b8261013160006101000a81548167ffffffffffffffff021916908367ffffffffffffffff16021790555081610132819055508361013060186101000a81548163ffffffff021916908363ffffffff16021790555080610130601c6101000a81548161ffff021916908361ffff16021790555050505050565b6000609860008473ffffffffffffffffffffffffffffffffffffffff1673ffffffffffffffffffffffffffffffffffffffff16815260200190815260200160002060008373ffffffffffffffffffffffffffffffffffffffff1673ffffffffffffffffffffffffffffffffffffffff16815260200190815260200160002060009054906101000a900460ff16905092915050565b6117f4611acb565b73ffffffffffffffffffffffffffffffffffffffff168573ffffffffffffffffffffffffffffffffffffffff16148061183a575061183985611834611acb565b611758565b5b611879576040517f08c379a000000000000000000000000000000000000000000000000000000000815260040161187090615565565b60405180910390fd5b6118868585858585612a40565b5050505050565b611895611acb565b73ffffffffffffffffffffffffffffffffffffffff166118b3611624565b73ffffffffffffffffffffffffffffffffffffffff1614611909576040517f08c379a000000000000000000000000000000000000000000000000000000000815260040161190090614b39565b60405180910390fd5b600073ffffffffffffffffffffffffffffffffffffffff168173ffffffffffffffffffffffffffffffffffffffff1603611978576040517f08c379a000000000000000000000000000000000000000000000000000000000815260040161196f906155f7565b60405180910390fd5b6119818161211b565b50565b61198c613a87565b61013760008381526020019081526020016000206040518060a00160405290816000820160009054906101000a900473ffffffffffffffffffffffffffffffffffffffff1673ffffffffffffffffffffffffffffffffffffffff1673ffffffffffffffffffffffffffffffffffffffff1681526020016001820154815260200160028201548152602001600382015481526020016004820160009054906101000a900460ff166002811115611a4457611a43614961565b5b6002811115611a5657611a55614961565b5b815250509050919050565b60007f01ffc9a7000000000000000000000000000000000000000000000000000000007bffffffffffffffffffffffffffffffffffffffffffffffffffffffff1916827bffffffffffffffffffffffffffffffffffffffffffffffffffffffff1916149050919050565b600033905090565b6060600060fc60008481526020019081526020016000208054611af59061511a565b80601f0160208091040260200160405190810160405280929190818152602001828054611b219061511a565b8015611b6e5780601f10611b4357610100808354040283529160200191611b6e565b820191906000526020600020905b815481529060010190602001808311611b5157829003601f168201915b505050505090506000815111611b8c57611b8783612cde565b611bb0565b60fb81604051602001611ba0929190615617565b6040516020818303038152906040525b915050919050565b8060fc60008481526020019081526020016000209080519060200190611bdf929190613a01565b50817f6bb7ff708619ba0610cba295a58592e0451dee2622938c8755667688daf3529b611c0b846109b7565b604051611c189190613e4c565b60405180910390a25050565b611c4261013560008481526020019081526020016000205482612d72565b7fefb16d61046900da527008568620fb9f8420e2f5ed4de3bfbded5035c9362b0e81604051611c7191906144d5565b60405180910390a15050565b8151835114611cc1576040517f08c379a0000000000000000000000000000000000000000000000000000000008152600401611cb8906156ad565b60405180910390fd5b600073ffffffffffffffffffffffffffffffffffffffff168473ffffffffffffffffffffffffffffffffffffffff1603611d30576040517f08c379a0000000000000000000000000000000000000000000000000000000008152600401611d279061573f565b60405180910390fd5b6000611d3a611acb565b9050611d4a818787878787612e7e565b60005b8451811015611efe576000858281518110611d6b57611d6a614ca6565b5b602002602001015190506000858381518110611d8a57611d89614ca6565b5b6020026020010151905060006097600084815260200190815260200160002060008b73ffffffffffffffffffffffffffffffffffffffff1673ffffffffffffffffffffffffffffffffffffffff16815260200190815260200160002054905081811015611e2c576040517f08c379a0000000000000000000000000000000000000000000000000000000008152600401611e23906157d1565b60405180910390fd5b8181036097600085815260200190815260200160002060008c73ffffffffffffffffffffffffffffffffffffffff1673ffffffffffffffffffffffffffffffffffffffff16815260200190815260200160002081905550816097600085815260200190815260200160002060008b73ffffffffffffffffffffffffffffffffffffffff1673ffffffffffffffffffffffffffffffffffffffff1681526020019081526020016000206000828254611ee39190615095565b9250508190555050505080611ef790614d04565b9050611d4d565b508473ffffffffffffffffffffffffffffffffffffffff168673ffffffffffffffffffffffffffffffffffffffff168273ffffffffffffffffffffffffffffffffffffffff167f4a39dc06d4c0dbc64b70af90fd698a233a518aa5d07e595d983b8c0526c8f7fb8787604051611f759291906157f1565b60405180910390a4611f8b818787878787612e86565b611f99818787878787612e8e565b505050505050565b8060fb9080519060200190611fb7929190613a01565b5050565b606060008203612002576040518060400160405280600181526020017f30000000000000000000000000000000000000000000000000000000000000008152509050612116565b600082905060005b6000821461203457808061201d90614d04565b915050600a8261202d9190615857565b915061200a565b60008167ffffffffffffffff8111156120505761204f613e78565b5b6040519080825280601f01601f1916602001820160405280156120825781602001600182028036833780820191505090505b5090505b6000851461210f5760018261209b9190615888565b9150600a856120aa91906158bc565b60306120b69190615095565b60f81b8183815181106120cc576120cb614ca6565b5b60200101907effffffffffffffffffffffffffffffffffffffffffffffffffffffffffffff1916908160001a905350600a856121089190615857565b9450612086565b8093505050505b919050565b600060c960009054906101000a900473ffffffffffffffffffffffffffffffffffffffff1690508160c960006101000a81548173ffffffffffffffffffffffffffffffffffffffff021916908373ffffffffffffffffffffffffffffffffffffffff1602179055508173ffffffffffffffffffffffffffffffffffffffff168173ffffffffffffffffffffffffffffffffffffffff167f8be0079c531659141344cd1fd0a4f28419497f9722a3daafe3b4186f6b6457e060405160405180910390a35050565b60008203612228578061013660008581526020019081526020016000206000015461220c9190615095565b6101366000858152602001908152602001600020600001819055505b6001820361226f57806101366000858152602001908152602001600020600101546122539190615095565b6101366000858152602001908152602001600020600101819055505b600282036122b6578061013660008581526020019081526020016000206002015461229a9190615095565b6101366000858152602001908152602001600020600201819055505b600382036122fd57806101366000858152602001908152602001600020600301546122e19190615095565b6101366000858152602001908152602001600020600301819055505b6004820361234457806101366000858152602001908152602001600020600401546123289190615095565b6101366000858152602001908152602001600020600401819055505b6005820361238b578061013660008581526020019081526020016000206005015461236f9190615095565b6101366000858152602001908152602001600020600501819055505b600682036123d257806101366000858152602001908152602001600020600601546123b69190615095565b6101366000858152602001908152602001600020600601819055505b6007820361241957806101366000858152602001908152602001600020600701546123fd9190615095565b6101366000858152602001908152602001600020600701819055505b6008820361246057806101366000858152602001908152602001600020600801546124449190615095565b6101366000858152602001908152602001600020600801819055505b600982036124a7578061013660008581526020019081526020016000206009015461248b9190615095565b6101366000858152602001908152602001600020600901819055505b600a82036124ee57806101366000858152602001908152602001600020600a01546124d29190615095565b6101366000858152602001908152602001600020600a01819055505b600b820361253557806101366000858152602001908152602001600020600b01546125199190615095565b6101366000858152602001908152602001600020600b01819055505b600c820361257c57806101366000858152602001908152602001600020600c01546125609190615095565b6101366000858152602001908152602001600020600c01819055505b600d82036125c357806101366000858152602001908152602001600020600d01546125a79190615095565b6101366000858152602001908152602001600020600d01819055505b600e820361260a57806101366000858152602001908152602001600020600e01546125ee9190615095565b6101366000858152602001908152602001600020600e01819055505b600f820361265157806101366000858152602001908152602001600020600f01546126359190615095565b6101366000858152602001908152602001600020600f01819055505b60108203612698578061013660008581526020019081526020016000206010015461267c9190615095565b6101366000858152602001908152602001600020601001819055505b505050565b60008060019054906101000a900460ff16156127145760018260ff161480156126cc57506126ca30613065565b155b61270b576040517f08c379a00000000000000000000000000000000000000000000000000000000081526004016127029061595f565b60405180910390fd5b60009050612788565b8160ff1660008054906101000a900460ff1660ff1610612769576040517f08c379a00000000000000000000000000000000000000000000000000000000081526004016127609061595f565b60405180910390fd5b816000806101000a81548160ff021916908360ff160217905550600190505b919050565b600060019054906101000a900460ff166127dc576040517f08c379a00000000000000000000000000000000000000000000000000000000081526004016127d3906159f1565b60405180910390fd5b6127e581613088565b50565b600060019054906101000a900460ff16612837576040517f08c379a000000000000000000000000000000000000000000000000000000000815260040161282e906159f1565b60405180910390fd5b61283f6130e3565b565b600060019054906101000a900460ff16612890576040517f08c379a0000000000000000000000000000000000000000000000000000000008152600401612887906159f1565b60405180910390fd5b80603360006101000a81548173ffffffffffffffffffffffffffffffffffffffff021916908373ffffffffffffffffffffffffffffffffffffffff16021790555050565b8173ffffffffffffffffffffffffffffffffffffffff168373ffffffffffffffffffffffffffffffffffffffff1603612942576040517f08c379a000000000000000000000000000000000000000000000000000000000815260040161293990615a83565b60405180910390fd5b80609860008573ffffffffffffffffffffffffffffffffffffffff1673ffffffffffffffffffffffffffffffffffffffff16815260200190815260200160002060008473ffffffffffffffffffffffffffffffffffffffff1673ffffffffffffffffffffffffffffffffffffffff16815260200190815260200160002060006101000a81548160ff0219169083151502179055508173ffffffffffffffffffffffffffffffffffffffff168373ffffffffffffffffffffffffffffffffffffffff167f17307eab39ab6107e8899845ad3d59bd9653f200f220920489ca2b5937696c3183604051612a339190613cad565b60405180910390a3505050565b600073ffffffffffffffffffffffffffffffffffffffff168473ffffffffffffffffffffffffffffffffffffffff1603612aaf576040517f08c379a0000000000000000000000000000000000000000000000000000000008152600401612aa69061573f565b60405180910390fd5b6000612ab9611acb565b90506000612ac685613144565b90506000612ad385613144565b9050612ae3838989858589612e7e565b60006097600088815260200190815260200160002060008a73ffffffffffffffffffffffffffffffffffffffff1673ffffffffffffffffffffffffffffffffffffffff16815260200190815260200160002054905085811015612b7b576040517f08c379a0000000000000000000000000000000000000000000000000000000008152600401612b72906157d1565b60405180910390fd5b8581036097600089815260200190815260200160002060008b73ffffffffffffffffffffffffffffffffffffffff1673ffffffffffffffffffffffffffffffffffffffff16815260200190815260200160002081905550856097600089815260200190815260200160002060008a73ffffffffffffffffffffffffffffffffffffffff1673ffffffffffffffffffffffffffffffffffffffff1681526020019081526020016000206000828254612c329190615095565b925050819055508773ffffffffffffffffffffffffffffffffffffffff168973ffffffffffffffffffffffffffffffffffffffff168573ffffffffffffffffffffffffffffffffffffffff167fc3d58168c5ae7397731d063d5bbf3d657854427343f4c083240f7aacaa2d0f628a8a604051612caf929190615aa3565b60405180910390a4612cc5848a8a86868a612e86565b612cd3848a8a8a8a8a6131be565b505050505050505050565b606060998054612ced9061511a565b80601f0160208091040260200160405190810160405280929190818152602001828054612d199061511a565b8015612d665780601f10612d3b57610100808354040283529160200191612d66565b820191906000526020600020905b815481529060010190602001808311612d4957829003601f168201915b50505050509050919050565b612d7c8183613395565b612dd2610137600061013454815260200190815260200160002060000160009054906101000a900473ffffffffffffffffffffffffffffffffffffffff1683600160405180602001604052806000815250613836565b6000612df4610137600085815260200190815260200160002060020154611fbb565b610133604051602001612e089291906151df565b6040516020818303038152906040529050612e238382611bb8565b7f81d0d0c12c6ca6c8fd87061fc7856093622d0ac0e30aea027a73111a5fd047f583612e4e856109b7565b6101366000878152602001908152602001600020604051612e7193929190615447565b60405180910390a1505050565b505050505050565b505050505050565b612ead8473ffffffffffffffffffffffffffffffffffffffff16613065565b1561305d578373ffffffffffffffffffffffffffffffffffffffff1663bc197c8187878686866040518663ffffffff1660e01b8152600401612ef3959493929190615b21565b6020604051808303816000875af1925050508015612f2f57506040513d601f19601f82011682018060405250810190612f2c9190615b9e565b60015b612fd457612f3b615bd8565b806308c379a003612f975750612f4f615bfa565b80612f5a5750612f99565b806040517f08c379a0000000000000000000000000000000000000000000000000000000008152600401612f8e9190613e4c565b60405180910390fd5b505b6040517f08c379a0000000000000000000000000000000000000000000000000000000008152600401612fcb90615cfc565b60405180910390fd5b63bc197c8160e01b7bffffffffffffffffffffffffffffffffffffffffffffffffffffffff1916817bffffffffffffffffffffffffffffffffffffffffffffffffffffffff19161461305b576040517f08c379a000000000000000000000000000000000000000000000000000000000815260040161305290615d8e565b60405180910390fd5b505b505050505050565b6000808273ffffffffffffffffffffffffffffffffffffffff163b119050919050565b600060019054906101000a900460ff166130d7576040517f08c379a00000000000000000000000000000000000000000000000000000000081526004016130ce906159f1565b60405180910390fd5b6130e0816139e7565b50565b600060019054906101000a900460ff16613132576040517f08c379a0000000000000000000000000000000000000000000000000000000008152600401613129906159f1565b60405180910390fd5b61314261313d611acb565b61211b565b565b60606000600167ffffffffffffffff81111561316357613162613e78565b5b6040519080825280602002602001820160405280156131915781602001602082028036833780820191505090505b50905082816000815181106131a9576131a8614ca6565b5b60200260200101818152505080915050919050565b6131dd8473ffffffffffffffffffffffffffffffffffffffff16613065565b1561338d578373ffffffffffffffffffffffffffffffffffffffff1663f23a6e6187878686866040518663ffffffff1660e01b8152600401613223959493929190615dae565b6020604051808303816000875af192505050801561325f57506040513d601f19601f8201168201806040525081019061325c9190615b9e565b60015b6133045761326b615bd8565b806308c379a0036132c7575061327f615bfa565b8061328a57506132c9565b806040517f08c379a00000000000000000000000000000000000000000000000000000000081526004016132be9190613e4c565b60405180910390fd5b505b6040517f08c379a00000000000000000000000000000000000000000000000000000000081526004016132fb90615cfc565b60405180910390fd5b63f23a6e6160e01b7bffffffffffffffffffffffffffffffffffffffffffffffffffffffff1916817bffffffffffffffffffffffffffffffffffffffffffffffffffffffff19161461338b576040517f08c379a000000000000000000000000000000000000000000000000000000000815260040161338290615d8e565b60405180910390fd5b505b505050505050565b60405180610220016040528060016064856000815181106133b9576133b8614ca6565b5b60200260200101516133cb91906158bc565b6133d59190615095565b815260200160016064856001815181106133f2576133f1614ca6565b5b602002602001015161340491906158bc565b61340e9190615095565b8152602001600160648560028151811061342b5761342a614ca6565b5b602002602001015161343d91906158bc565b6134479190615095565b8152602001600160648560038151811061346457613463614ca6565b5b602002602001015161347691906158bc565b6134809190615095565b8152602001600160648560048151811061349d5761349c614ca6565b5b60200260200101516134af91906158bc565b6134b99190615095565b815260200160016064856005815181106134d6576134d5614ca6565b5b60200260200101516134e891906158bc565b6134f29190615095565b8152602001600160648560068151811061350f5761350e614ca6565b5b602002602001015161352191906158bc565b61352b9190615095565b8152602001600160648560078151811061354857613547614ca6565b5b602002602001015161355a91906158bc565b6135649190615095565b8152602001600160648560088151811061358157613580614ca6565b5b602002602001015161359391906158bc565b61359d9190615095565b815260200160016064856009815181106135ba576135b9614ca6565b5b60200260200101516135cc91906158bc565b6135d69190615095565b81526020016001606485600a815181106135f3576135f2614ca6565b5b602002602001015161360591906158bc565b61360f9190615095565b81526020016001606485600b8151811061362c5761362b614ca6565b5b602002602001015161363e91906158bc565b6136489190615095565b81526020016001606485600c8151811061366557613664614ca6565b5b602002602001015161367791906158bc565b6136819190615095565b81526020016001606485600d8151811061369e5761369d614ca6565b5b60200260200101516136b091906158bc565b6136ba9190615095565b81526020016001606485600e815181106136d7576136d6614ca6565b5b60200260200101516136e991906158bc565b6136f39190615095565b81526020016001606485600f815181106137105761370f614ca6565b5b602002602001015161372291906158bc565b61372c9190615095565b8152602001600160648560108151811061374957613748614ca6565b5b602002602001015161375b91906158bc565b6137659190615095565b8152506101366000838152602001908152602001600020600082015181600001556020820151816001015560408201518160020155606082015181600301556080820151816004015560a0820151816005015560c0820151816006015560e082015181600701556101008201518160080155610120820151816009015561014082015181600a015561016082015181600b015561018082015181600c01556101a082015181600d01556101c082015181600e01556101e082015181600f015561020082015181601001559050505050565b600073ffffffffffffffffffffffffffffffffffffffff168473ffffffffffffffffffffffffffffffffffffffff16036138a5576040517f08c379a000000000000000000000000000000000000000000000000000000000815260040161389c90615e7a565b60405180910390fd5b60006138af611acb565b905060006138bc85613144565b905060006138c985613144565b90506138da83600089858589612e7e565b846097600088815260200190815260200160002060008973ffffffffffffffffffffffffffffffffffffffff1673ffffffffffffffffffffffffffffffffffffffff168152602001908152602001600020600082825461393a9190615095565b925050819055508673ffffffffffffffffffffffffffffffffffffffff16600073ffffffffffffffffffffffffffffffffffffffff168473ffffffffffffffffffffffffffffffffffffffff167fc3d58168c5ae7397731d063d5bbf3d657854427343f4c083240f7aacaa2d0f6289896040516139b8929190615aa3565b60405180910390a46139cf83600089858589612e86565b6139de836000898989896131be565b50505050505050565b80609990805190602001906139fd929190613a01565b5050565b828054613a0d9061511a565b90600052602060002090601f016020900481019282613a2f5760008555613a76565b82601f10613a4857805160ff1916838001178555613a76565b82800160010185558215613a76579182015b82811115613a75578251825591602001919060010190613a5a565b5b509050613a839190613ade565b5090565b6040518060a00160405280600073ffffffffffffffffffffffffffffffffffffffff16815260200160008152602001600081526020016000815260200160006002811115613ad857613ad7614961565b5b81525090565b5b80821115613af7576000816000905550600101613adf565b5090565b6000604051905090565b600080fd5b600080fd5b600073ffffffffffffffffffffffffffffffffffffffff82169050919050565b6000613b3a82613b0f565b9050919050565b613b4a81613b2f565b8114613b5557600080fd5b50565b600081359050613b6781613b41565b92915050565b6000819050919050565b613b8081613b6d565b8114613b8b57600080fd5b50565b600081359050613b9d81613b77565b92915050565b60008060408385031215613bba57613bb9613b05565b5b6000613bc885828601613b58565b9250506020613bd985828601613b8e565b9150509250929050565b613bec81613b6d565b82525050565b6000602082019050613c076000830184613be3565b92915050565b60007fffffffff0000000000000000000000000000000000000000000000000000000082169050919050565b613c4281613c0d565b8114613c4d57600080fd5b50565b600081359050613c5f81613c39565b92915050565b600060208284031215613c7b57613c7a613b05565b5b6000613c8984828501613c50565b91505092915050565b60008115159050919050565b613ca781613c92565b82525050565b6000602082019050613cc26000830184613c9e565b92915050565b6000613cd382613b2f565b9050919050565b613ce381613cc8565b8114613cee57600080fd5b50565b600081359050613d0081613cda565b92915050565b60008060408385031215613d1d57613d1c613b05565b5b6000613d2b85828601613b58565b9250506020613d3c85828601613cf1565b9150509250929050565b60008060408385031215613d5d57613d5c613b05565b5b6000613d6b85828601613b8e565b9250506020613d7c85828601613b8e565b9150509250929050565b600060208284031215613d9c57613d9b613b05565b5b6000613daa84828501613b8e565b91505092915050565b600081519050919050565b600082825260208201905092915050565b60005b83811015613ded578082015181840152602081019050613dd2565b83811115613dfc576000848401525b50505050565b6000601f19601f8301169050919050565b6000613e1e82613db3565b613e288185613dbe565b9350613e38818560208601613dcf565b613e4181613e02565b840191505092915050565b60006020820190508181036000830152613e668184613e13565b905092915050565b600080fd5b600080fd5b7f4e487b7100000000000000000000000000000000000000000000000000000000600052604160045260246000fd5b613eb082613e02565b810181811067ffffffffffffffff82111715613ecf57613ece613e78565b5b80604052505050565b6000613ee2613afb565b9050613eee8282613ea7565b919050565b600067ffffffffffffffff821115613f0e57613f0d613e78565b5b613f1782613e02565b9050602081019050919050565b82818337600083830152505050565b6000613f46613f4184613ef3565b613ed8565b905082815260208101848484011115613f6257613f61613e73565b5b613f6d848285613f24565b509392505050565b600082601f830112613f8a57613f89613e6e565b5b8135613f9a848260208601613f33565b91505092915050565b60008060408385031215613fba57613fb9613b05565b5b6000613fc885828601613b8e565b925050602083013567ffffffffffffffff811115613fe957613fe8613b0a565b5b613ff585828601613f75565b9150509250929050565b60006020828403121561401557614014613b05565b5b600082013567ffffffffffffffff81111561403357614032613b0a565b5b61403f84828501613f75565b91505092915050565b600067ffffffffffffffff82111561406357614062613e78565b5b602082029050602081019050919050565b600080fd5b600061408c61408784614048565b613ed8565b905080838252602082019050602084028301858111156140af576140ae614074565b5b835b818110156140d857806140c48882613b8e565b8452602084019350506020810190506140b1565b5050509392505050565b600082601f8301126140f7576140f6613e6e565b5b8135614107848260208601614079565b91505092915050565b6000806040838503121561412757614126613b05565b5b600061413585828601613b8e565b925050602083013567ffffffffffffffff81111561415657614155613b0a565b5b614162858286016140e2565b9150509250929050565b600067ffffffffffffffff82111561418757614186613e78565b5b61419082613e02565b9050602081019050919050565b60006141b06141ab8461416c565b613ed8565b9050828152602081018484840111156141cc576141cb613e73565b5b6141d7848285613f24565b509392505050565b600082601f8301126141f4576141f3613e6e565b5b813561420484826020860161419d565b91505092915050565b600080600080600060a0868803121561422957614228613b05565b5b600061423788828901613b58565b955050602061424888828901613b58565b945050604086013567ffffffffffffffff81111561426957614268613b0a565b5b614275888289016140e2565b935050606086013567ffffffffffffffff81111561429657614295613b0a565b5b6142a2888289016140e2565b925050608086013567ffffffffffffffff8111156142c3576142c2613b0a565b5b6142cf888289016141df565b9150509295509295909350565b600067ffffffffffffffff8211156142f7576142f6613e78565b5b602082029050602081019050919050565b600061431b614316846142dc565b613ed8565b9050808382526020820190506020840283018581111561433e5761433d614074565b5b835b8181101561436757806143538882613b58565b845260208401935050602081019050614340565b5050509392505050565b600082601f83011261438657614385613e6e565b5b8135614396848260208601614308565b91505092915050565b600080604083850312156143b6576143b5613b05565b5b600083013567ffffffffffffffff8111156143d4576143d3613b0a565b5b6143e085828601614371565b925050602083013567ffffffffffffffff81111561440157614400613b0a565b5b61440d858286016140e2565b9150509250929050565b600081519050919050565b600082825260208201905092915050565b6000819050602082019050919050565b61444c81613b6d565b82525050565b600061445e8383614443565b60208301905092915050565b6000602082019050919050565b600061448282614417565b61448c8185614422565b935061449783614433565b8060005b838110156144c85781516144af8882614452565b97506144ba8361446a565b92505060018101905061449b565b5085935050505092915050565b600060208201905081810360008301526144ef8184614477565b905092915050565b6003811061450457600080fd5b50565b600081359050614516816144f7565b92915050565b6000806000806080858703121561453657614535613b05565b5b600061454487828801613b8e565b945050602061455587828801613b8e565b935050604061456687828801614507565b925050606061457787828801613b58565b91505092959194509250565b600080600080600060a0868803121561459f5761459e613b05565b5b60006145ad88828901613b8e565b95505060206145be88828901613b8e565b94505060406145cf88828901613b8e565b93505060606145e088828901613b8e565b92505060806145f188828901613b8e565b9150509295509295909350565b600067ffffffffffffffff82169050919050565b61461b816145fe565b811461462657600080fd5b50565b60008135905061463881614612565b92915050565b6000819050919050565b6146518161463e565b811461465c57600080fd5b50565b60008135905061466e81614648565b92915050565b6000806000806080858703121561468e5761468d613b05565b5b600061469c87828801614629565b94505060206146ad87828801613b58565b93505060406146be87828801613b58565b92505060606146cf8782880161465f565b91505092959194509250565b6146e481613b2f565b82525050565b60006020820190506146ff60008301846146db565b92915050565b61470e81613c92565b811461471957600080fd5b50565b60008135905061472b81614705565b92915050565b6000806040838503121561474857614747613b05565b5b600061475685828601613b58565b92505060206147678582860161471c565b9150509250929050565b600063ffffffff82169050919050565b61478a81614771565b811461479557600080fd5b50565b6000813590506147a781614781565b92915050565b600061ffff82169050919050565b6147c4816147ad565b81146147cf57600080fd5b50565b6000813590506147e1816147bb565b92915050565b6000806000806080858703121561480157614800613b05565b5b600061480f87828801614798565b945050602061482087828801614629565b93505060406148318782880161465f565b9250506060614842878288016147d2565b91505092959194509250565b6000806040838503121561486557614864613b05565b5b600061487385828601613b58565b925050602061488485828601613b58565b9150509250929050565b600080600080600060a086880312156148aa576148a9613b05565b5b60006148b888828901613b58565b95505060206148c988828901613b58565b94505060406148da88828901613b8e565b93505060606148eb88828901613b8e565b925050608086013567ffffffffffffffff81111561490c5761490b613b0a565b5b614918888289016141df565b9150509295509295909350565b60006020828403121561493b5761493a613b05565b5b600061494984828501613b58565b91505092915050565b61495b81613b2f565b82525050565b7f4e487b7100000000000000000000000000000000000000000000000000000000600052602160045260246000fd5b600381106149a1576149a0614961565b5b50565b60008190506149b282614990565b919050565b60006149c2826149a4565b9050919050565b6149d2816149b7565b82525050565b60a0820160008201516149ee6000850182614952565b506020820151614a016020850182614443565b506040820151614a146040850182614443565b506060820151614a276060850182614443565b506080820151614a3a60808501826149c9565b50505050565b600060a082019050614a5560008301846149d8565b92915050565b7f455243313135353a2062616c616e636520717565727920666f7220746865207a60008201527f65726f2061646472657373000000000000000000000000000000000000000000602082015250565b6000614ab7602b83613dbe565b9150614ac282614a5b565b604082019050919050565b60006020820190508181036000830152614ae681614aaa565b9050919050565b7f4f776e61626c653a2063616c6c6572206973206e6f7420746865206f776e6572600082015250565b6000614b23602083613dbe565b9150614b2e82614aed565b602082019050919050565b60006020820190508181036000830152614b5281614b16565b9050919050565b6000604082019050614b6e60008301856146db565b614b7b60208301846146db565b9392505050565b7f455243313135353a207472616e736665722063616c6c6572206973206e6f742060008201527f6f776e6572206e6f7220617070726f7665640000000000000000000000000000602082015250565b6000614bde603283613dbe565b9150614be982614b82565b604082019050919050565b60006020820190508181036000830152614c0d81614bd1565b9050919050565b7f455243313135353a206163636f756e747320616e6420696473206c656e67746860008201527f206d69736d617463680000000000000000000000000000000000000000000000602082015250565b6000614c70602983613dbe565b9150614c7b82614c14565b604082019050919050565b60006020820190508181036000830152614c9f81614c63565b9050919050565b7f4e487b7100000000000000000000000000000000000000000000000000000000600052603260045260246000fd5b7f4e487b7100000000000000000000000000000000000000000000000000000000600052601160045260246000fd5b6000614d0f82613b6d565b91507fffffffffffffffffffffffffffffffffffffffffffffffffffffffffffffffff8203614d4157614d40614cd5565b5b600182019050919050565b7f4465782061646472657373206973206e6f7420636f6e66696775726564000000600082015250565b6000614d82601d83613dbe565b9150614d8d82614d4c565b602082019050919050565b60006020820190508181036000830152614db181614d75565b9050919050565b7f41636365737320666f7262696464656e00000000000000000000000000000000600082015250565b6000614dee601083613dbe565b9150614df982614db8565b602082019050919050565b60006020820190508181036000830152614e1d81614de1565b9050919050565b614e2d8161463e565b82525050565b614e3c816145fe565b82525050565b614e4b816147ad565b82525050565b614e5a81614771565b82525050565b600060a082019050614e756000830188614e24565b614e826020830187614e33565b614e8f6040830186614e42565b614e9c6060830185614e51565b614ea96080830184614e51565b9695505050505050565b600081519050614ec281613b77565b92915050565b600060208284031215614ede57614edd613b05565b5b6000614eec84828501614eb3565b91505092915050565b600081905092915050565b7f546f6b656e202300000000000000000000000000000000000000000000000000600082015250565b6000614f36600783614ef5565b9150614f4182614f00565b600782019050919050565b6000614f5782613db3565b614f618185614ef5565b9350614f71818560208601613dcf565b80840191505092915050565b7f204c6576656c2000000000000000000000000000000000000000000000000000600082015250565b6000614fb3600783614ef5565b9150614fbe82614f7d565b600782019050919050565b6000614fd482614f29565b9150614fe08285614f4c565b9150614feb82614fa6565b9150614ff78284614f4c565b91508190509392505050565b7f557067726164654e66742061646472657373206973206e6f7420636f6e66696760008201527f7572656400000000000000000000000000000000000000000000000000000000602082015250565b600061505f602483613dbe565b915061506a82615003565b604082019050919050565b6000602082019050818103600083015261508e81615052565b9050919050565b60006150a082613b6d565b91506150ab83613b6d565b9250827fffffffffffffffffffffffffffffffffffffffffffffffffffffffffffffffff038211156150e0576150df614cd5565b5b828201905092915050565b7f4e487b7100000000000000000000000000000000000000000000000000000000600052602260045260246000fd5b6000600282049050600182168061513257607f821691505b602082108103615145576151446150eb565b5b50919050565b60008190508160005260206000209050919050565b6000815461516d8161511a565b6151778186614ef5565b9450600182166000811461519257600181146151a3576151d6565b60ff198316865281860193506151d6565b6151ac8561514b565b60005b838110156151ce578154818901526001820191506020810190506151af565b838801955050505b50505092915050565b60006151eb8285614f4c565b91506151f78284615160565b91508190509392505050565b60008160001c9050919050565b6000819050919050565b600061522d61522883615203565b615210565b9050919050565b6102208201600080830154905061524a8161521a565b6152576000860182614443565b50600183015490506152688161521a565b6152756020860182614443565b50600283015490506152868161521a565b6152936040860182614443565b50600383015490506152a48161521a565b6152b16060860182614443565b50600483015490506152c28161521a565b6152cf6080860182614443565b50600583015490506152e08161521a565b6152ed60a0860182614443565b50600683015490506152fe8161521a565b61530b60c0860182614443565b506007830154905061531c8161521a565b61532960e0860182614443565b506008830154905061533a8161521a565b615348610100860182614443565b50600983015490506153598161521a565b615367610120860182614443565b50600a83015490506153788161521a565b615386610140860182614443565b50600b83015490506153978161521a565b6153a5610160860182614443565b50600c83015490506153b68161521a565b6153c4610180860182614443565b50600d83015490506153d58161521a565b6153e36101a0860182614443565b50600e83015490506153f48161521a565b6154026101c0860182614443565b50600f83015490506154138161521a565b6154216101e0860182614443565b50601083015490506154328161521a565b615440610200860182614443565b5050505050565b60006102608201905061545d6000830186613be3565b818103602083015261546f8185613e13565b905061547e6040830184615234565b949350505050565b6000819050919050565b600060ff82169050919050565b6000819050919050565b60006154c26154bd6154b884615486565b61549d565b615490565b9050919050565b6154d2816154a7565b82525050565b60006020820190506154ed60008301846154c9565b92915050565b7f455243313135353a2063616c6c6572206973206e6f74206f776e6572206e6f7260008201527f20617070726f7665640000000000000000000000000000000000000000000000602082015250565b600061554f602983613dbe565b915061555a826154f3565b604082019050919050565b6000602082019050818103600083015261557e81615542565b9050919050565b7f4f776e61626c653a206e6577206f776e657220697320746865207a65726f206160008201527f6464726573730000000000000000000000000000000000000000000000000000602082015250565b60006155e1602683613dbe565b91506155ec82615585565b604082019050919050565b60006020820190508181036000830152615610816155d4565b9050919050565b60006156238285615160565b915061562f8284614f4c565b91508190509392505050565b7f455243313135353a2069647320616e6420616d6f756e7473206c656e6774682060008201527f6d69736d61746368000000000000000000000000000000000000000000000000602082015250565b6000615697602883613dbe565b91506156a28261563b565b604082019050919050565b600060208201905081810360008301526156c68161568a565b9050919050565b7f455243313135353a207472616e7366657220746f20746865207a65726f20616460008201527f6472657373000000000000000000000000000000000000000000000000000000602082015250565b6000615729602583613dbe565b9150615734826156cd565b604082019050919050565b600060208201905081810360008301526157588161571c565b9050919050565b7f455243313135353a20696e73756666696369656e742062616c616e636520666f60008201527f72207472616e7366657200000000000000000000000000000000000000000000602082015250565b60006157bb602a83613dbe565b91506157c68261575f565b604082019050919050565b600060208201905081810360008301526157ea816157ae565b9050919050565b6000604082019050818103600083015261580b8185614477565b9050818103602083015261581f8184614477565b90509392505050565b7f4e487b7100000000000000000000000000000000000000000000000000000000600052601260045260246000fd5b600061586282613b6d565b915061586d83613b6d565b92508261587d5761587c615828565b5b828204905092915050565b600061589382613b6d565b915061589e83613b6d565b9250828210156158b1576158b0614cd5565b5b828203905092915050565b60006158c782613b6d565b91506158d283613b6d565b9250826158e2576158e1615828565b5b828206905092915050565b7f496e697469616c697a61626c653a20636f6e747261637420697320616c72656160008201527f647920696e697469616c697a6564000000000000000000000000000000000000602082015250565b6000615949602e83613dbe565b9150615954826158ed565b604082019050919050565b600060208201905081810360008301526159788161593c565b9050919050565b7f496e697469616c697a61626c653a20636f6e7472616374206973206e6f74206960008201527f6e697469616c697a696e67000000000000000000000000000000000000000000602082015250565b60006159db602b83613dbe565b91506159e68261597f565b604082019050919050565b60006020820190508181036000830152615a0a816159ce565b9050919050565b7f455243313135353a2073657474696e6720617070726f76616c2073746174757360008201527f20666f722073656c660000000000000000000000000000000000000000000000602082015250565b6000615a6d602983613dbe565b9150615a7882615a11565b604082019050919050565b60006020820190508181036000830152615a9c81615a60565b9050919050565b6000604082019050615ab86000830185613be3565b615ac56020830184613be3565b9392505050565b600081519050919050565b600082825260208201905092915050565b6000615af382615acc565b615afd8185615ad7565b9350615b0d818560208601613dcf565b615b1681613e02565b840191505092915050565b600060a082019050615b3660008301886146db565b615b4360208301876146db565b8181036040830152615b558186614477565b90508181036060830152615b698185614477565b90508181036080830152615b7d8184615ae8565b90509695505050505050565b600081519050615b9881613c39565b92915050565b600060208284031215615bb457615bb3613b05565b5b6000615bc284828501615b89565b91505092915050565b60008160e01c9050919050565b600060033d1115615bf75760046000803e615bf4600051615bcb565b90505b90565b600060443d10615c8757615c0c613afb565b60043d036004823e80513d602482011167ffffffffffffffff82111715615c34575050615c87565b808201805167ffffffffffffffff811115615c525750505050615c87565b80602083010160043d038501811115615c6f575050505050615c87565b615c7e82602001850186613ea7565b82955050505050505b90565b7f455243313135353a207472616e7366657220746f206e6f6e204552433131353560008201527f526563656976657220696d706c656d656e746572000000000000000000000000602082015250565b6000615ce6603483613dbe565b9150615cf182615c8a565b604082019050919050565b60006020820190508181036000830152615d1581615cd9565b9050919050565b7f455243313135353a204552433131353552656365697665722072656a6563746560008201527f6420746f6b656e73000000000000000000000000000000000000000000000000602082015250565b6000615d78602883613dbe565b9150615d8382615d1c565b604082019050919050565b60006020820190508181036000830152615da781615d6b565b9050919050565b600060a082019050615dc360008301886146db565b615dd060208301876146db565b615ddd6040830186613be3565b615dea6060830185613be3565b8181036080830152615dfc8184615ae8565b90509695505050505050565b7f455243313135353a206d696e7420746f20746865207a65726f2061646472657360008201527f7300000000000000000000000000000000000000000000000000000000000000602082015250565b6000615e64602183613dbe565b9150615e6f82615e08565b604082019050919050565b60006020820190508181036000830152615e9381615e57565b905091905056fea2646970667358221220f51ae4a32fb9c7d59347b48cb0be6830f706517b0bb3a851c08c4abca743bfae64736f6c634300080d0033","abi":[{"inputs":[{"internalType":"address","name":"have","type":"address"},{"internalType":"address","name":"want","type":"address"}],"name":"OnlyCoordinatorCanFulfill","type":"error"},{"anonymous":false,"inputs":[{"indexed":true,"internalType":"address","name":"account","type":"address"},{"indexed":true,"internalType":"address","name":"operator","type":"address"},{"indexed":false,"internalType":"bool","name":"approved","type":"bool"}],"name":"ApprovalForAll","type":"event"},{"anonymous":false,"inputs":[{"indexed":false,"internalType":"uint256","name":"tokenId","type":"uint256"},{"indexed":false,"internalType":"string","name":"tokenURI","type":"string"},{"components":[{"internalType":"uint256","name":"lightIsolationScore","type":"uint256"},{"internalType":"uint256","name":"bedroomThermalIsolationScore","type":"uint256"},{"internalType":"uint256","name":"soundIsolationScore","type":"uint256"},{"internalType":"uint256","name":"temperatureScore","type":"uint256"},{"internalType":"uint256","name":"humidityScore","type":"uint256"},{"internalType":"uint256","name":"sleepAidMachinesScore","type":"uint256"},{"internalType":"uint256","name":"circadianRhythmRegulation","type":"uint256"},{"internalType":"uint256","name":"sizeScore","type":"uint256"},{"internalType":"uint256","name":"heightScore","type":"uint256"},{"internalType":"uint256","name":"bedBaseScore","type":"uint256"},{"internalType":"uint256","name":"mattressTechnologyScore","type":"uint256"},{"internalType":"uint256","name":"mattressThicknessScore","type":"uint256"},{"internalType":"uint256","name":"mattressDeformationScore","type":"uint256"},{"internalType":"uint256","name":"thermalIsolationScore","type":"uint256"},{"internalType":"uint256","name":"hygrometricRegulationScore","type":"uint256"},{"internalType":"uint256","name":"comforterComfortabilityScore","type":"uint256"},{"internalType":"uint256","name":"pillowComfortabilityScore","type":"uint256"}],"indexed":false,"internalType":"struct BedroomNft.NftSpecifications","name":"specifications","type":"tuple"}],"name":"BedroomNftMinting","type":"event"},{"anonymous":false,"inputs":[{"indexed":false,"internalType":"uint256","name":"tokenId","type":"uint256"},{"indexed":false,"internalType":"string","name":"newTokenURI","type":"string"},{"components":[{"internalType":"uint256","name":"lightIsolationScore","type":"uint256"},{"internalType":"uint256","name":"bedroomThermalIsolationScore","type":"uint256"},{"internalType":"uint256","name":"soundIsolationScore","type":"uint256"},{"internalType":"uint256","name":"temperatureScore","type":"uint256"},{"internalType":"uint256","name":"humidityScore","type":"uint256"},{"internalType":"uint256","name":"sleepAidMachinesScore","type":"uint256"},{"internalType":"uint256","name":"circadianRhythmRegulation","type":"uint256"},{"internalType":"uint256","name":"sizeScore","type":"uint256"},{"internalType":"uint256","name":"heightScore","type":"uint256"},{"internalType":"uint256","name":"bedBaseScore","type":"uint256"},{"internalType":"uint256","name":"mattressTechnologyScore","type":"uint256"},{"internalType":"uint256","name":"mattressThicknessScore","type":"uint256"},{"internalType":"uint256","name":"mattressDeformationScore","type":"uint256"},{"internalType":"uint256","name":"thermalIsolationScore","type":"uint256"},{"internalType":"uint256","name":"hygrometricRegulationScore","type":"uint256"},{"internalType":"uint256","name":"comforterComfortabilityScore","type":"uint256"},{"internalType":"uint256","name":"pillowComfortabilityScore","type":"uint256"}],"indexed":false,"internalType":"struct BedroomNft.NftSpecifications","name":"specifications","type":"tuple"}],"name":"BedroomNftUpgrading","type":"event"},{"anonymous":false,"inputs":[{"indexed":false,"internalType":"uint8","name":"version","type":"uint8"}],"name":"Initialized","type":"event"},{"anonymous":false,"inputs":[{"indexed":true,"internalType":"address","name":"previousOwner","type":"address"},{"indexed":true,"internalType":"address","name":"newOwner","type":"address"}],"name":"OwnershipTransferred","type":"event"},{"anonymous":false,"inputs":[{"indexed":false,"internalType":"uint256[]","name":"randomWords","type":"uint256[]"}],"name":"ReturnedRandomness","type":"event"},{"anonymous":false,"inputs":[{"indexed":true,"internalType":"address","name":"operator","type":"address"},{"indexed":true,"internalType":"address","name":"from","type":"address"},{"indexed":true,"internalType":"address","name":"to","type":"address"},{"indexed":false,"internalType":"uint256[]","name":"ids","type":"uint256[]"},{"indexed":false,"internalType":"uint256[]","name":"values","type":"uint256[]"}],"name":"TransferBatch","type":"event"},{"anonymous":false,"inputs":[{"indexed":true,"internalType":"address","name":"operator","type":"address"},{"indexed":true,"internalType":"address","name":"from","type":"address"},{"indexed":true,"internalType":"address","name":"to","type":"address"},{"indexed":false,"internalType":"uint256","name":"id","type":"uint256"},{"indexed":false,"internalType":"uint256","name":"value","type":"uint256"}],"name":"TransferSingle","type":"event"},{"anonymous":false,"inputs":[{"indexed":false,"internalType":"string","name":"value","type":"string"},{"indexed":true,"internalType":"uint256","name":"id","type":"uint256"}],"name":"URI","type":"event"},{"inputs":[{"internalType":"address","name":"account","type":"address"},{"internalType":"uint256","name":"id","type":"uint256"}],"name":"balanceOf","outputs":[{"internalType":"uint256","name":"","type":"uint256"}],"stateMutability":"view","type":"function"},{"inputs":[{"internalType":"address[]","name":"accounts","type":"address[]"},{"internalType":"uint256[]","name":"ids","type":"uint256[]"}],"name":"balanceOfBatch","outputs":[{"internalType":"uint256[]","name":"","type":"uint256[]"}],"stateMutability":"view","type":"function"},{"inputs":[{"internalType":"uint256","name":"_tokenId","type":"uint256"}],"name":"getName","outputs":[{"internalType":"string","name":"","type":"string"}],"stateMutability":"view","type":"function"},{"inputs":[{"internalType":"uint256","name":"_tokenId","type":"uint256"}],"name":"getNftOwnership","outputs":[{"components":[{"internalType":"address","name":"owner","type":"address"},{"internalType":"uint256","name":"price","type":"uint256"},{"internalType":"uint256","name":"designId","type":"uint256"},{"internalType":"uint256","name":"level","type":"uint256"},{"internalType":"enum BedroomNft.Category","name":"category","type":"uint8"}],"internalType":"struct BedroomNft.NftOwnership","name":"","type":"tuple"}],"stateMutability":"view","type":"function"},{"inputs":[{"internalType":"uint256","name":"_tokenId","type":"uint256"},{"internalType":"uint256","name":"_indexAttribute","type":"uint256"}],"name":"getNftSpecifications","outputs":[{"internalType":"uint256","name":"","type":"uint256"}],"stateMutability":"view","type":"function"},{"inputs":[{"internalType":"address","name":"_dexAddress","type":"address"},{"internalType":"contract IUpgradeNft","name":"_upgradeNftAddress","type":"address"}],"name":"initContracts","outputs":[],"stateMutability":"nonpayable","type":"function"},{"inputs":[{"internalType":"uint64","name":"_subscriptionId","type":"uint64"},{"internalType":"address","name":"_vrfCoordinator","type":"address"},{"internalType":"address","name":"_link_token_contract","type":"address"},{"internalType":"bytes32","name":"_keyHash","type":"bytes32"}],"name":"initialize","outputs":[],"stateMutability":"nonpayable","type":"function"},{"inputs":[{"internalType":"address","name":"account","type":"address"},{"internalType":"address","name":"operator","type":"address"}],"name":"isApprovedForAll","outputs":[{"internalType":"bool","name":"","type":"bool"}],"stateMutability":"view","type":"function"},{"inputs":[{"internalType":"uint256","name":"_designId","type":"uint256"},{"internalType":"uint256","name":"_price","type":"uint256"},{"internalType":"enum BedroomNft.Category","name":"_category","type":"uint8"},{"internalType":"address","name":"_owner","type":"address"}],"name":"mintingBedroomNft","outputs":[],"stateMutability":"nonpayable","type":"function"},{"inputs":[],"name":"owner","outputs":[{"internalType":"address","name":"","type":"address"}],"stateMutability":"view","type":"function"},{"inputs":[{"internalType":"uint256","name":"requestId","type":"uint256"},{"internalType":"uint256[]","name":"randomWords","type":"uint256[]"}],"name":"rawFulfillRandomWords","outputs":[],"stateMutability":"nonpayable","type":"function"},{"inputs":[],"name":"renounceOwnership","outputs":[],"stateMutability":"nonpayable","type":"function"},{"inputs":[{"internalType":"address","name":"from","type":"address"},{"internalType":"address","name":"to","type":"address"},{"internalType":"uint256[]","name":"ids","type":"uint256[]"},{"internalType":"uint256[]","name":"amounts","type":"uint256[]"},{"internalType":"bytes","name":"data","type":"bytes"}],"name":"safeBatchTransferFrom","outputs":[],"stateMutability":"nonpayable","type":"function"},{"inputs":[{"internalType":"address","name":"from","type":"address"},{"internalType":"address","name":"to","type":"address"},{"internalType":"uint256","name":"id","type":"uint256"},{"internalType":"uint256","name":"amount","type":"uint256"},{"internalType":"bytes","name":"data","type":"bytes"}],"name":"safeTransferFrom","outputs":[],"stateMutability":"nonpayable","type":"function"},{"inputs":[{"internalType":"address","name":"operator","type":"address"},{"internalType":"bool","name":"approved","type":"bool"}],"name":"setApprovalForAll","outputs":[],"stateMutability":"nonpayable","type":"function"},{"inputs":[{"internalType":"string","name":"_baseURI","type":"string"}],"name":"setBaseURI","outputs":[],"stateMutability":"nonpayable","type":"function"},{"inputs":[{"internalType":"string","name":"_format","type":"string"}],"name":"setFileFormat","outputs":[],"stateMutability":"nonpayable","type":"function"},{"inputs":[{"internalType":"uint256","name":"_tokenId","type":"uint256"},{"internalType":"string","name":"_tokenURI","type":"string"}],"name":"setTokenURI","outputs":[],"stateMutability":"nonpayable","type":"function"},{"inputs":[{"internalType":"bytes4","name":"interfaceId","type":"bytes4"}],"name":"supportsInterface","outputs":[{"internalType":"bool","name":"","type":"bool"}],"stateMutability":"view","type":"function"},{"inputs":[{"internalType":"address","name":"newOwner","type":"address"}],"name":"transferOwnership","outputs":[],"stateMutability":"nonpayable","type":"function"},{"inputs":[{"internalType":"uint32","name":"_callbackGasLimit","type":"uint32"},{"internalType":"uint64","name":"_subscriptionId","type":"uint64"},{"internalType":"bytes32","name":"_keyHash","type":"bytes32"},{"internalType":"uint16","name":"_requestConfirmations","type":"uint16"}],"name":"updateChainlink","outputs":[],"stateMutability":"nonpayable","type":"function"},{"inputs":[{"internalType":"uint256","name":"_tokenId","type":"uint256"},{"internalType":"uint256","name":"_attributeIndex","type":"uint256"},{"internalType":"uint256","name":"_valueToAdd","type":"uint256"},{"internalType":"uint256","name":"_newDesignId","type":"uint256"},{"internalType":"uint256","name":"_amount","type":"uint256"}],"name":"upgradeBedroomNft","outputs":[],"stateMutability":"nonpayable","type":"function"},{"inputs":[{"internalType":"uint256","name":"_tokenId","type":"uint256"}],"name":"uri","outputs":[{"internalType":"string","name":"","type":"string"}],"stateMutability":"view","type":"function"}]}