{"address":"0xa87637C7E74B6f74be80EA0507C7AfDb204F950A","bytecode":"0x608060405234801561001057600080fd5b50612938806100206000396000f3fe608060405234801561001057600080fd5b506004361061009e5760003560e01c80638da5cb5b116100665780638da5cb5b146101335780638fb0b8ea14610151578063c0c53b8b1461016d578063de4b9e9314610189578063f2fde38b146101a55761009e565b806306799089146100a35780632b4116f7146100d3578063537975dc146100f1578063715018a61461010d578063865f19c614610117575b600080fd5b6100bd60048036038101906100b89190611b0d565b6101c1565b6040516100ca9190611b69565b60405180910390f35b6100db6101f0565b6040516100e89190611c03565b60405180910390f35b61010b60048036038101906101069190611c6e565b610216565b005b6101156102d6565b005b610131600480360381019061012c9190611cc7565b61035e565b005b61013b610459565b6040516101489190611d29565b60405180910390f35b61016b60048036038101906101669190611d70565b610483565b005b61018760048036038101906101829190611e7d565b61086c565b005b6101a3600480360381019061019e9190611ed0565b6110e0565b005b6101bf60048036038101906101ba9190611ed0565b61123e565b005b606b6020528160005260406000206020528060005260406000206000915091509054906101000a9004600b0b81565b606560009054906101000a900473ffffffffffffffffffffffffffffffffffffffff1681565b61021e611335565b73ffffffffffffffffffffffffffffffffffffffff1661023c610459565b73ffffffffffffffffffffffffffffffffffffffff1614610292576040517f08c379a000000000000000000000000000000000000000000000000000000000815260040161028990611f5a565b60405180910390fd5b80606560006101000a81548173ffffffffffffffffffffffffffffffffffffffff021916908373ffffffffffffffffffffffffffffffffffffffff16021790555050565b6102de611335565b73ffffffffffffffffffffffffffffffffffffffff166102fc610459565b73ffffffffffffffffffffffffffffffffffffffff1614610352576040517f08c379a000000000000000000000000000000000000000000000000000000000815260040161034990611f5a565b60405180910390fd5b61035c600061133d565b565b610366611335565b73ffffffffffffffffffffffffffffffffffffffff16610384610459565b73ffffffffffffffffffffffffffffffffffffffff16146103da576040517f08c379a00000000000000000000000000000000000000000000000000000000081526004016103d190611f5a565b60405180910390fd5b80606b60008560028111156103f2576103f1611f7a565b5b600281111561040457610403611f7a565b5b8152602001908152602001600020600084815260200190815260200160002060006101000a8154816bffffffffffffffffffffffff0219169083600b0b6bffffffffffffffffffffffff160217905550505050565b6000603360009054906101000a900473ffffffffffffffffffffffffffffffffffffffff16905090565b61048b611335565b73ffffffffffffffffffffffffffffffffffffffff166104a9610459565b73ffffffffffffffffffffffffffffffffffffffff16146104ff576040517f08c379a00000000000000000000000000000000000000000000000000000000081526004016104f690611f5a565b60405180910390fd5b3073ffffffffffffffffffffffffffffffffffffffff168373ffffffffffffffffffffffffffffffffffffffff160361056d576040517f08c379a00000000000000000000000000000000000000000000000000000000081526004016105649061201b565b60405180910390fd5b6000606a60009054906101000a900473ffffffffffffffffffffffffffffffffffffffff1673ffffffffffffffffffffffffffffffffffffffff1663f4e6a71c846040518263ffffffff1660e01b81526004016105ca919061204a565b60a060405180830381865afa1580156105e7573d6000803e3d6000fd5b505050506040513d601f19601f8201168201806040525081019061060b91906121c1565b90508373ffffffffffffffffffffffffffffffffffffffff16816000015173ffffffffffffffffffffffffffffffffffffffff161461067f576040517f08c379a00000000000000000000000000000000000000000000000000000000081526004016106769061223a565b60405180910390fd5b6000606b60008360800151600281111561069c5761069b611f7a565b5b60028111156106ae576106ad611f7a565b5b8152602001908152602001600020600084815260200190815260200160002060009054906101000a9004600b0b90506000606760009054906101000a900473ffffffffffffffffffffffffffffffffffffffff1673ffffffffffffffffffffffffffffffffffffffff1663e6a1e888606560009054906101000a900473ffffffffffffffffffffffffffffffffffffffff1630896040518463ffffffff1660e01b81526004016107609392919061225a565b608060405180830381865afa15801561077d573d6000803e3d6000fd5b505050506040513d601f19601f820116820180604052508101906107a191906122a6565b5050915050600081600b0b036107f0576107eb86606560009054906101000a900473ffffffffffffffffffffffffffffffffffffffff16846068611403909392919063ffffffff16565b61082b565b61082a86606560009054906101000a900473ffffffffffffffffffffffffffffffffffffffff1684606861159d909392919063ffffffff16565b5b7fbbeb29aba136d78f971730c1e825b9b411053b263bfa53697d4bee73903b05a7868360405161085c92919061230d565b60405180910390a1505050505050565b60006108786001611737565b9050801561089c576001600060016101000a81548160ff0219169083151502179055505b6108a4611827565b83606660006101000a81548173ffffffffffffffffffffffffffffffffffffffff021916908373ffffffffffffffffffffffffffffffffffffffff16021790555082606760006101000a81548173ffffffffffffffffffffffffffffffffffffffff021916908373ffffffffffffffffffffffffffffffffffffffff16021790555081606a60006101000a81548173ffffffffffffffffffffffffffffffffffffffff021916908373ffffffffffffffffffffffffffffffffffffffff160217905550600073ffffffffffffffffffffffffffffffffffffffff16606660009054906101000a900473ffffffffffffffffffffffffffffffffffffffff1673ffffffffffffffffffffffffffffffffffffffff16036109c6576109c5612336565b5b600073ffffffffffffffffffffffffffffffffffffffff16606760009054906101000a900473ffffffffffffffffffffffffffffffffffffffff1673ffffffffffffffffffffffffffffffffffffffff1603610a2557610a24612336565b5b600073ffffffffffffffffffffffffffffffffffffffff16606a60009054906101000a900473ffffffffffffffffffffffffffffffffffffffff1673ffffffffffffffffffffffffffffffffffffffff1603610a8457610a83612336565b5b60405180604001604052808573ffffffffffffffffffffffffffffffffffffffff1681526020018573ffffffffffffffffffffffffffffffffffffffff1663b6d200de7fa9214cc96615e0085d3bb077758db69497dc2dce3b2b1e97bc93c3d18d83efd36040518263ffffffff1660e01b8152600401610b04919061237e565b602060405180830381865afa158015610b21573d6000803e3d6000fd5b505050506040513d601f19601f82011682018060405250810190610b4591906123d7565b73ffffffffffffffffffffffffffffffffffffffff16815250606860008201518160000160006101000a81548173ffffffffffffffffffffffffffffffffffffffff021916908373ffffffffffffffffffffffffffffffffffffffff16021790555060208201518160010160006101000a81548173ffffffffffffffffffffffffffffffffffffffff021916908373ffffffffffffffffffffffffffffffffffffffff1602179055509050506597951b766aaa606b6000806002811115610c0f57610c0e611f7a565b5b6002811115610c2157610c20611f7a565b5b8152602001908152602001600020600080815260200190815260200160002060006101000a8154816bffffffffffffffffffffffff0219169083600b0b6bffffffffffffffffffffffff16021790555066012f2a36ecd555606b6000806002811115610c9057610c8f611f7a565b5b6002811115610ca257610ca1611f7a565b5b815260200190815260200160002060006001815260200190815260200160002060006101000a8154816bffffffffffffffffffffffff0219169083600b0b6bffffffffffffffffffffffff1602179055506601c6bf52633fff606b6000806002811115610d1257610d11611f7a565b5b6002811115610d2457610d23611f7a565b5b815260200190815260200160002060006002815260200190815260200160002060006101000a8154816bffffffffffffffffffffffff0219169083600b0b6bffffffffffffffffffffffff16021790555065e35fa9319fff606b600060016002811115610d9457610d93611f7a565b5b6002811115610da657610da5611f7a565b5b8152602001908152602001600020600080815260200190815260200160002060006101000a8154816bffffffffffffffffffffffff0219169083600b0b6bffffffffffffffffffffffff1602179055506601c6bf52633fff606b600060016002811115610e1657610e15611f7a565b5b6002811115610e2857610e27611f7a565b5b815260200190815260200160002060006001815260200190815260200160002060006101000a8154816bffffffffffffffffffffffff0219169083600b0b6bffffffffffffffffffffffff1602179055506602aa1efb94dffe606b600060016002811115610e9957610e98611f7a565b5b6002811115610eab57610eaa611f7a565b5b815260200190815260200160002060006002815260200190815260200160002060006101000a8154816bffffffffffffffffffffffff0219169083600b0b6bffffffffffffffffffffffff16021790555066012f2a36ecd554606b6000600280811115610f1b57610f1a611f7a565b5b6002811115610f2d57610f2c611f7a565b5b8152602001908152602001600020600080815260200190815260200160002060006101000a8154816bffffffffffffffffffffffff0219169083600b0b6bffffffffffffffffffffffff16021790555066025e546dd9aaaa606b6000600280811115610f9c57610f9b611f7a565b5b6002811115610fae57610fad611f7a565b5b815260200190815260200160002060006001815260200190815260200160002060006101000a8154816bffffffffffffffffffffffff0219169083600b0b6bffffffffffffffffffffffff16021790555066038d7ea4c67ffe606b600060028081111561101e5761101d611f7a565b5b60028111156110305761102f611f7a565b5b815260200190815260200160002060006002815260200190815260200160002060006101000a8154816bffffffffffffffffffffffff0219169083600b0b6bffffffffffffffffffffffff16021790555080156110da5760008060016101000a81548160ff0219169083151502179055507f7f26b83ff96e1f2b6a682f133852f6798a09c465da95921460cefb384740249860016040516110d1919061244c565b60405180910390a15b50505050565b6110e8611335565b73ffffffffffffffffffffffffffffffffffffffff16611106610459565b73ffffffffffffffffffffffffffffffffffffffff161461115c576040517f08c379a000000000000000000000000000000000000000000000000000000000815260040161115390611f5a565b60405180910390fd5b3073ffffffffffffffffffffffffffffffffffffffff168173ffffffffffffffffffffffffffffffffffffffff16036111ca576040517f08c379a00000000000000000000000000000000000000000000000000000000081526004016111c19061201b565b60405180910390fd5b6112043082606560009054906101000a900473ffffffffffffffffffffffffffffffffffffffff166068611880909392919063ffffffff16565b7fcc362a45d32c94d02a329570bd5935709d77f6dc79ac6afa5107b513642461c2816040516112339190611d29565b60405180910390a150565b611246611335565b73ffffffffffffffffffffffffffffffffffffffff16611264610459565b73ffffffffffffffffffffffffffffffffffffffff16146112ba576040517f08c379a00000000000000000000000000000000000000000000000000000000081526004016112b190611f5a565b60405180910390fd5b600073ffffffffffffffffffffffffffffffffffffffff168173ffffffffffffffffffffffffffffffffffffffff1603611329576040517f08c379a0000000000000000000000000000000000000000000000000000000008152600401611320906124d9565b60405180910390fd5b6113328161133d565b50565b600033905090565b6000603360009054906101000a900473ffffffffffffffffffffffffffffffffffffffff16905081603360006101000a81548173ffffffffffffffffffffffffffffffffffffffff021916908373ffffffffffffffffffffffffffffffffffffffff1602179055508173ffffffffffffffffffffffffffffffffffffffff168173ffffffffffffffffffffffffffffffffffffffff167f8be0079c531659141344cd1fd0a4f28419497f9722a3daafe3b4186f6b6457e060405160405180910390a35050565b8360000160009054906101000a900473ffffffffffffffffffffffffffffffffffffffff1673ffffffffffffffffffffffffffffffffffffffff166339255d5b8560010160009054906101000a900473ffffffffffffffffffffffffffffffffffffffff166362fc305e60e01b858786600067ffffffffffffffff81111561148e5761148d61207b565b5b6040519080825280601f01601f1916602001820160405280156114c05781602001600182028036833780820191505090505b506040516024016114d494939291906125a2565b604051602081830303815290604052907bffffffffffffffffffffffffffffffffffffffffffffffffffffffff19166020820180517bffffffffffffffffffffffffffffffffffffffffffffffffffffffff83818316178352505050506040518363ffffffff1660e01b815260040161154e92919061265b565b6000604051808303816000875af115801561156d573d6000803e3d6000fd5b505050506040513d6000823e3d601f19601f820116820180604052508101906115969190612749565b5050505050565b8360000160009054906101000a900473ffffffffffffffffffffffffffffffffffffffff1673ffffffffffffffffffffffffffffffffffffffff166339255d5b8560010160009054906101000a900473ffffffffffffffffffffffffffffffffffffffff166350209a6260e01b858786600067ffffffffffffffff8111156116285761162761207b565b5b6040519080825280601f01601f19166020018201604052801561165a5781602001600182028036833780820191505090505b5060405160240161166e94939291906125a2565b604051602081830303815290604052907bffffffffffffffffffffffffffffffffffffffffffffffffffffffff19166020820180517bffffffffffffffffffffffffffffffffffffffffffffffffffffffff83818316178352505050506040518363ffffffff1660e01b81526004016116e892919061265b565b6000604051808303816000875af1158015611707573d6000803e3d6000fd5b505050506040513d6000823e3d601f19601f820116820180604052508101906117309190612749565b5050505050565b60008060019054906101000a900460ff16156117ae5760018260ff16148015611766575061176430611a1a565b155b6117a5576040517f08c379a000000000000000000000000000000000000000000000000000000000815260040161179c90612804565b60405180910390fd5b60009050611822565b8160ff1660008054906101000a900460ff1660ff1610611803576040517f08c379a00000000000000000000000000000000000000000000000000000000081526004016117fa90612804565b60405180910390fd5b816000806101000a81548160ff021916908360ff160217905550600190505b919050565b600060019054906101000a900460ff16611876576040517f08c379a000000000000000000000000000000000000000000000000000000000815260040161186d90612896565b60405180910390fd5b61187e611a3d565b565b8360000160009054906101000a900473ffffffffffffffffffffffffffffffffffffffff1673ffffffffffffffffffffffffffffffffffffffff166339255d5b8560010160009054906101000a900473ffffffffffffffffffffffffffffffffffffffff1663b4b333c660e01b848787600067ffffffffffffffff81111561190b5761190a61207b565b5b6040519080825280601f01601f19166020018201604052801561193d5781602001600182028036833780820191505090505b5060405160240161195194939291906128b6565b604051602081830303815290604052907bffffffffffffffffffffffffffffffffffffffffffffffffffffffff19166020820180517bffffffffffffffffffffffffffffffffffffffffffffffffffffffff83818316178352505050506040518363ffffffff1660e01b81526004016119cb92919061265b565b6000604051808303816000875af11580156119ea573d6000803e3d6000fd5b505050506040513d6000823e3d601f19601f82011682018060405250810190611a139190612749565b5050505050565b6000808273ffffffffffffffffffffffffffffffffffffffff163b119050919050565b600060019054906101000a900460ff16611a8c576040517f08c379a0000000000000000000000000000000000000000000000000000000008152600401611a8390612896565b60405180910390fd5b611a9c611a97611335565b61133d565b565b6000604051905090565b600080fd5b600080fd5b60038110611abf57600080fd5b50565b600081359050611ad181611ab2565b92915050565b6000819050919050565b611aea81611ad7565b8114611af557600080fd5b50565b600081359050611b0781611ae1565b92915050565b60008060408385031215611b2457611b23611aa8565b5b6000611b3285828601611ac2565b9250506020611b4385828601611af8565b9150509250929050565b600081600b0b9050919050565b611b6381611b4d565b82525050565b6000602082019050611b7e6000830184611b5a565b92915050565b600073ffffffffffffffffffffffffffffffffffffffff82169050919050565b6000819050919050565b6000611bc9611bc4611bbf84611b84565b611ba4565b611b84565b9050919050565b6000611bdb82611bae565b9050919050565b6000611bed82611bd0565b9050919050565b611bfd81611be2565b82525050565b6000602082019050611c186000830184611bf4565b92915050565b6000611c2982611b84565b9050919050565b6000611c3b82611c1e565b9050919050565b611c4b81611c30565b8114611c5657600080fd5b50565b600081359050611c6881611c42565b92915050565b600060208284031215611c8457611c83611aa8565b5b6000611c9284828501611c59565b91505092915050565b611ca481611b4d565b8114611caf57600080fd5b50565b600081359050611cc181611c9b565b92915050565b600080600060608486031215611ce057611cdf611aa8565b5b6000611cee86828701611ac2565b9350506020611cff86828701611af8565b9250506040611d1086828701611cb2565b9150509250925092565b611d2381611c1e565b82525050565b6000602082019050611d3e6000830184611d1a565b92915050565b611d4d81611c1e565b8114611d5857600080fd5b50565b600081359050611d6a81611d44565b92915050565b600080600060608486031215611d8957611d88611aa8565b5b6000611d9786828701611d5b565b9350506020611da886828701611af8565b9250506040611db986828701611af8565b9150509250925092565b6000611dce82611c1e565b9050919050565b611dde81611dc3565b8114611de957600080fd5b50565b600081359050611dfb81611dd5565b92915050565b6000611e0c82611c1e565b9050919050565b611e1c81611e01565b8114611e2757600080fd5b50565b600081359050611e3981611e13565b92915050565b6000611e4a82611c1e565b9050919050565b611e5a81611e3f565b8114611e6557600080fd5b50565b600081359050611e7781611e51565b92915050565b600080600060608486031215611e9657611e95611aa8565b5b6000611ea486828701611dec565b9350506020611eb586828701611e2a565b9250506040611ec686828701611e68565b9150509250925092565b600060208284031215611ee657611ee5611aa8565b5b6000611ef484828501611d5b565b91505092915050565b600082825260208201905092915050565b7f4f776e61626c653a2063616c6c6572206973206e6f7420746865206f776e6572600082015250565b6000611f44602083611efd565b9150611f4f82611f0e565b602082019050919050565b60006020820190508181036000830152611f7381611f37565b9050919050565b7f4e487b7100000000000000000000000000000000000000000000000000000000600052602160045260246000fd5b7f5265636569766572206d75737420626520646966666572656e74207468616e2060008201527f73656e6465720000000000000000000000000000000000000000000000000000602082015250565b6000612005602683611efd565b915061201082611fa9565b604082019050919050565b6000602082019050818103600083015261203481611ff8565b9050919050565b61204481611ad7565b82525050565b600060208201905061205f600083018461203b565b92915050565b600080fd5b6000601f19601f8301169050919050565b7f4e487b7100000000000000000000000000000000000000000000000000000000600052604160045260246000fd5b6120b38261206a565b810181811067ffffffffffffffff821117156120d2576120d161207b565b5b80604052505050565b60006120e5611a9e565b90506120f182826120aa565b919050565b60008151905061210581611d44565b92915050565b60008151905061211a81611ae1565b92915050565b60008151905061212f81611ab2565b92915050565b600060a0828403121561214b5761214a612065565b5b61215560a06120db565b90506000612165848285016120f6565b60008301525060206121798482850161210b565b602083015250604061218d8482850161210b565b60408301525060606121a18482850161210b565b60608301525060806121b584828501612120565b60808301525092915050565b600060a082840312156121d7576121d6611aa8565b5b60006121e584828501612135565b91505092915050565b7f57726f6e67207265636569766572000000000000000000000000000000000000600082015250565b6000612224600e83611efd565b915061222f826121ee565b602082019050919050565b6000602082019050818103600083015261225381612217565b9050919050565b600060608201905061226f6000830186611bf4565b61227c6020830185611d1a565b6122896040830184611d1a565b949350505050565b6000815190506122a081611c9b565b92915050565b600080600080608085870312156122c0576122bf611aa8565b5b60006122ce8782880161210b565b94505060206122df87828801612291565b93505060406122f08782880161210b565b92505060606123018782880161210b565b91505092959194509250565b60006040820190506123226000830185611d1a565b61232f6020830184611b5a565b9392505050565b7f4e487b7100000000000000000000000000000000000000000000000000000000600052600160045260246000fd5b6000819050919050565b61237881612365565b82525050565b6000602082019050612393600083018461236f565b92915050565b60006123a482611c1e565b9050919050565b6123b481612399565b81146123bf57600080fd5b50565b6000815190506123d1816123ab565b92915050565b6000602082840312156123ed576123ec611aa8565b5b60006123fb848285016123c2565b91505092915050565b6000819050919050565b600060ff82169050919050565b600061243661243161242c84612404565b611ba4565b61240e565b9050919050565b6124468161241b565b82525050565b6000602082019050612461600083018461243d565b92915050565b7f4f776e61626c653a206e6577206f776e657220697320746865207a65726f206160008201527f6464726573730000000000000000000000000000000000000000000000000000602082015250565b60006124c3602683611efd565b91506124ce82612467565b604082019050919050565b600060208201905081810360008301526124f2816124b6565b9050919050565b600061250482611bd0565b9050919050565b612514816124f9565b82525050565b600081519050919050565b600082825260208201905092915050565b60005b83811015612554578082015181840152602081019050612539565b83811115612563576000848401525b50505050565b60006125748261251a565b61257e8185612525565b935061258e818560208601612536565b6125978161206a565b840191505092915050565b60006080820190506125b7600083018761250b565b6125c46020830186611d1a565b6125d16040830185611b5a565b81810360608301526125e38184612569565b905095945050505050565b60006125f982611bd0565b9050919050565b612609816125ee565b82525050565b7f3078000000000000000000000000000000000000000000000000000000000000600082015250565b6000612645600283612525565b91506126508261260f565b602082019050919050565b60006060820190506126706000830185612600565b81810360208301526126828184612569565b9050818103604083015261269581612638565b90509392505050565b600080fd5b600080fd5b600067ffffffffffffffff8211156126c3576126c261207b565b5b6126cc8261206a565b9050602081019050919050565b60006126ec6126e7846126a8565b6120db565b905082815260208101848484011115612708576127076126a3565b5b612713848285612536565b509392505050565b600082601f8301126127305761272f61269e565b5b81516127408482602086016126d9565b91505092915050565b60006020828403121561275f5761275e611aa8565b5b600082015167ffffffffffffffff81111561277d5761277c611aad565b5b6127898482850161271b565b91505092915050565b7f496e697469616c697a61626c653a20636f6e747261637420697320616c72656160008201527f647920696e697469616c697a6564000000000000000000000000000000000000602082015250565b60006127ee602e83611efd565b91506127f982612792565b604082019050919050565b6000602082019050818103600083015261281d816127e1565b9050919050565b7f496e697469616c697a61626c653a20636f6e7472616374206973206e6f74206960008201527f6e697469616c697a696e67000000000000000000000000000000000000000000602082015250565b6000612880602b83611efd565b915061288b82612824565b604082019050919050565b600060208201905081810360008301526128af81612873565b9050919050565b60006080820190506128cb600083018761250b565b6128d86020830186611d1a565b6128e56040830185611d1a565b81810360608301526128f78184612569565b90509594505050505056fea26469706673582212205b8739e5ec23364340025885d11e3e46542951f7508b48c8de1cb8ab6e85cb4264736f6c634300080d0033","abi":[{"anonymous":false,"inputs":[{"indexed":false,"internalType":"address","name":"receiver","type":"address"}],"name":"CloseStream","type":"event"},{"anonymous":false,"inputs":[{"indexed":false,"internalType":"uint8","name":"version","type":"uint8"}],"name":"Initialized","type":"event"},{"anonymous":false,"inputs":[{"indexed":false,"internalType":"address","name":"receiver","type":"address"},{"indexed":false,"internalType":"int96","name":"flowRate","type":"int96"}],"name":"OpenUpdateStream","type":"event"},{"anonymous":false,"inputs":[{"indexed":true,"internalType":"address","name":"previousOwner","type":"address"},{"indexed":true,"internalType":"address","name":"newOwner","type":"address"}],"name":"OwnershipTransferred","type":"event"},{"inputs":[{"internalType":"address","name":"_receiver","type":"address"}],"name":"closeStream","outputs":[],"stateMutability":"nonpayable","type":"function"},{"inputs":[{"internalType":"address","name":"_receiver","type":"address"},{"internalType":"uint256","name":"_tokenId","type":"uint256"},{"internalType":"uint256","name":"_rewardIndex","type":"uint256"}],"name":"createUpdateStream","outputs":[],"stateMutability":"nonpayable","type":"function"},{"inputs":[{"internalType":"contract ISuperfluid","name":"_host","type":"address"},{"internalType":"contract IConstantFlowAgreementV1","name":"_cfa","type":"address"},{"internalType":"contract IBedroomNft","name":"_bedroomNft","type":"address"}],"name":"initialize","outputs":[],"stateMutability":"nonpayable","type":"function"},{"inputs":[],"name":"owner","outputs":[{"internalType":"address","name":"","type":"address"}],"stateMutability":"view","type":"function"},{"inputs":[],"name":"renounceOwnership","outputs":[],"stateMutability":"nonpayable","type":"function"},{"inputs":[{"internalType":"enum IBedroomNft.Category","name":"","type":"uint8"},{"internalType":"uint256","name":"","type":"uint256"}],"name":"rewardsByCategory","outputs":[{"internalType":"int96","name":"","type":"int96"}],"stateMutability":"view","type":"function"},{"inputs":[{"internalType":"enum IBedroomNft.Category","name":"_category","type":"uint8"},{"internalType":"uint256","name":"_indexReward","type":"uint256"},{"internalType":"int96","name":"_flowRate","type":"int96"}],"name":"setRewards","outputs":[],"stateMutability":"nonpayable","type":"function"},{"inputs":[{"internalType":"contract ISuperToken","name":"_superToken","type":"address"}],"name":"setSuperToken","outputs":[],"stateMutability":"nonpayable","type":"function"},{"inputs":[],"name":"superToken","outputs":[{"internalType":"contract ISuperToken","name":"","type":"address"}],"stateMutability":"view","type":"function"},{"inputs":[{"internalType":"address","name":"newOwner","type":"address"}],"name":"transferOwnership","outputs":[],"stateMutability":"nonpayable","type":"function"}]}