{"address":"0x45D484c35f13e6FFe370a881728508bf48da77CB","bytecode":"0x608060405234801561001057600080fd5b506150b9806100206000396000f3fe608060405234801561001057600080fd5b506004361061018d5760003560e01c8063715018a6116100de578063c45ed55111610097578063e985e9c511610071578063e985e9c514610484578063f242432a146104b4578063f2fde38b146104d0578063f66ab749146104ec5761018d565b8063c45ed55114610414578063d4b2f1e814610430578063db6f3d6e146104665761018d565b8063715018a614610378578063745fba84146103825780638da5cb5b146103a05780639ef122ae146103be578063a22cb465146103dc578063c13d4dbb146103f85761018d565b806319a59b1a1161014b578063447fa8b711610125578063447fa8b7146102e05780634e1273f4146102fc57806355f804b31461032c5780636b8ff574146103485761018d565b806319a59b1a1461028c5780631fe543e3146102a85780632eb2c2d6146102c45761018d565b8062fdd58e1461019257806301ffc9a7146101c25780630750b163146101f25780630e89341c14610222578063162094c41461025257806317d70f7c1461026e575b600080fd5b6101ac60048036038101906101a79190612fda565b610508565b6040516101b99190613029565b60405180910390f35b6101dc60048036038101906101d7919061309c565b6105d1565b6040516101e991906130e4565b60405180910390f35b61020c600480360381019061020791906130ff565b6106b3565b6040516102199190613029565b60405180910390f35b61023c600480360381019061023791906130ff565b6106cc565b60405161024991906131c5565b60405180910390f35b61026c6004803603810190610267919061331c565b6106de565b005b610276610768565b6040516102839190613029565b60405180910390f35b6102a660048036038101906102a19190613378565b61076f565b005b6102c260048036038101906102bd9190613489565b610806565b005b6102de60048036038101906102d99190613586565b6108ca565b005b6102fa60048036038101906102f59190613655565b61096b565b005b61031660048036038101906103119190613745565b610a2c565b604051610323919061387b565b60405180910390f35b61034660048036038101906103419190613378565b610b45565b005b610362600480360381019061035d91906130ff565b610bcd565b60405161036f91906131c5565b60405180910390f35b610380610bfe565b005b61038a610c86565b60405161039791906138ac565b60405180910390f35b6103a8610cad565b6040516103b591906138ac565b60405180910390f35b6103c6610cd7565b6040516103d391906131c5565b60405180910390f35b6103f660048036038101906103f191906138f3565b610d66565b005b610412600480360381019061040d9190613933565b610d7c565b005b61042e60048036038101906104299190613a74565b6110c0565b005b61044a600480360381019061044591906130ff565b6112e2565b60405161045d9796959493929190613aef565b60405180910390f35b61046e611345565b60405161047b9190613bbd565b60405180910390f35b61049e60048036038101906104999190613bd8565b61136c565b6040516104ab91906130e4565b60405180910390f35b6104ce60048036038101906104c99190613c18565b611400565b005b6104ea60048036038101906104e59190613655565b6114a1565b005b61050660048036038101906105019190613ceb565b611598565b005b60008073ffffffffffffffffffffffffffffffffffffffff168373ffffffffffffffffffffffffffffffffffffffff1603610578576040517f08c379a000000000000000000000000000000000000000000000000000000000815260040161056f90613db0565b60405180910390fd5b6097600083815260200190815260200160002060008473ffffffffffffffffffffffffffffffffffffffff1673ffffffffffffffffffffffffffffffffffffffff16815260200190815260200160002054905092915050565b60007fd9b67a26000000000000000000000000000000000000000000000000000000007bffffffffffffffffffffffffffffffffffffffffffffffffffffffff1916827bffffffffffffffffffffffffffffffffffffffffffffffffffffffff1916148061069c57507f0e89341c000000000000000000000000000000000000000000000000000000007bffffffffffffffffffffffffffffffffffffffffffffffffffffffff1916827bffffffffffffffffffffffffffffffffffffffffffffffffffffffff1916145b806106ac57506106ab8261166d565b5b9050919050565b6101356020528060005260406000206000915090505481565b60606106d7826116d7565b9050919050565b6106e66117bc565b73ffffffffffffffffffffffffffffffffffffffff16610704610cad565b73ffffffffffffffffffffffffffffffffffffffff161461075a576040517f08c379a000000000000000000000000000000000000000000000000000000000815260040161075190613e1c565b60405180910390fd5b61076482826117c4565b5050565b6101345481565b6107776117bc565b73ffffffffffffffffffffffffffffffffffffffff16610795610cad565b73ffffffffffffffffffffffffffffffffffffffff16146107eb576040517f08c379a00000000000000000000000000000000000000000000000000000000081526004016107e290613e1c565b60405180910390fd5b806101339080519060200190610802929190612e8f565b5050565b603360009054906101000a900473ffffffffffffffffffffffffffffffffffffffff1673ffffffffffffffffffffffffffffffffffffffff163373ffffffffffffffffffffffffffffffffffffffff16146108bc5733603360009054906101000a900473ffffffffffffffffffffffffffffffffffffffff166040517f1cf993f40000000000000000000000000000000000000000000000000000000081526004016108b3929190613e3c565b60405180910390fd5b6108c68282611830565b5050565b6108d26117bc565b73ffffffffffffffffffffffffffffffffffffffff168573ffffffffffffffffffffffffffffffffffffffff1614806109185750610917856109126117bc565b61136c565b5b610957576040517f08c379a000000000000000000000000000000000000000000000000000000000815260040161094e90613ed7565b60405180910390fd5b6109648585858585611889565b5050505050565b6109736117bc565b73ffffffffffffffffffffffffffffffffffffffff16610991610cad565b73ffffffffffffffffffffffffffffffffffffffff16146109e7576040517f08c379a00000000000000000000000000000000000000000000000000000000081526004016109de90613e1c565b60405180910390fd5b8061012d60006101000a81548173ffffffffffffffffffffffffffffffffffffffff021916908373ffffffffffffffffffffffffffffffffffffffff16021790555050565b60608151835114610a72576040517f08c379a0000000000000000000000000000000000000000000000000000000008152600401610a6990613f69565b60405180910390fd5b6000835167ffffffffffffffff811115610a8f57610a8e6131f1565b5b604051908082528060200260200182016040528015610abd5781602001602082028036833780820191505090505b50905060005b8451811015610b3a57610b0a858281518110610ae257610ae1613f89565b5b6020026020010151858381518110610afd57610afc613f89565b5b6020026020010151610508565b828281518110610b1d57610b1c613f89565b5b60200260200101818152505080610b3390613fe7565b9050610ac3565b508091505092915050565b610b4d6117bc565b73ffffffffffffffffffffffffffffffffffffffff16610b6b610cad565b73ffffffffffffffffffffffffffffffffffffffff1614610bc1576040517f08c379a0000000000000000000000000000000000000000000000000000000008152600401610bb890613e1c565b60405180910390fd5b610bca81611bad565b50565b6060610bd882611bc7565b604051602001610be891906140b7565b6040516020818303038152906040529050919050565b610c066117bc565b73ffffffffffffffffffffffffffffffffffffffff16610c24610cad565b73ffffffffffffffffffffffffffffffffffffffff1614610c7a576040517f08c379a0000000000000000000000000000000000000000000000000000000008152600401610c7190613e1c565b60405180910390fd5b610c846000611d27565b565b61012d60009054906101000a900473ffffffffffffffffffffffffffffffffffffffff1681565b600060c960009054906101000a900473ffffffffffffffffffffffffffffffffffffffff16905090565b6101338054610ce590614108565b80601f0160208091040260200160405190810160405280929190818152602001828054610d1190614108565b8015610d5e5780601f10610d3357610100808354040283529160200191610d5e565b820191906000526020600020905b815481529060010190602001808311610d4157829003601f168201915b505050505081565b610d78610d716117bc565b8383611ded565b5050565b600073ffffffffffffffffffffffffffffffffffffffff1661012d60009054906101000a900473ffffffffffffffffffffffffffffffffffffffff1673ffffffffffffffffffffffffffffffffffffffff1603610e0e576040517f08c379a0000000000000000000000000000000000000000000000000000000008152600401610e0590614185565b60405180910390fd5b61012d60009054906101000a900473ffffffffffffffffffffffffffffffffffffffff1673ffffffffffffffffffffffffffffffffffffffff163373ffffffffffffffffffffffffffffffffffffffff1614610e9f576040517f08c379a0000000000000000000000000000000000000000000000000000000008152600401610e96906141f1565b60405180910390fd5b600061012f60009054906101000a900473ffffffffffffffffffffffffffffffffffffffff1673ffffffffffffffffffffffffffffffffffffffff16635d3b1d306101325461013160009054906101000a900467ffffffffffffffff16610130601c9054906101000a900461ffff1661013060189054906101000a900463ffffffff1661013060149054906101000a900463ffffffff166040518663ffffffff1660e01b8152600401610f5695949392919061425b565b6020604051808303816000875af1158015610f75573d6000803e3d6000fd5b505050506040513d601f19601f82011682018060405250810190610f9991906142c3565b9050610134546101356000838152602001908152602001600020819055506040518060e00160405280858152602001600081526020018481526020018373ffffffffffffffffffffffffffffffffffffffff16815260200186815260200188815260200187815250610136600061013454815260200190815260200160002060008201518160000155602082015181600101556040820151816002015560608201518160030160006101000a81548173ffffffffffffffffffffffffffffffffffffffff021916908373ffffffffffffffffffffffffffffffffffffffff1602179055506080820151816004015560a0820151816005015560c0820151816006015590505061013460008154809291906110b290613fe7565b919050555050505050505050565b60006110cc6001611f59565b905080156110f0576001600060016101000a81548160ff0219169083151502179055505b61110860405180602001604052806000815250612049565b6111106120a4565b611119856120fd565b8461012f60006101000a81548173ffffffffffffffffffffffffffffffffffffffff021916908373ffffffffffffffffffffffffffffffffffffffff1602179055508361013060006101000a81548173ffffffffffffffffffffffffffffffffffffffff021916908373ffffffffffffffffffffffffffffffffffffffff1602179055508561013160006101000a81548167ffffffffffffffff021916908367ffffffffffffffff160217905550826101328190555062030d4061013060186101000a81548163ffffffff021916908363ffffffff1602179055506003610130601c6101000a81548161ffff021916908361ffff160217905550600161013060146101000a81548163ffffffff021916908363ffffffff1602179055506000610134819055508161012e60006101000a81548173ffffffffffffffffffffffffffffffffffffffff021916908373ffffffffffffffffffffffffffffffffffffffff16021790555080156112da5760008060016101000a81548160ff0219169083151502179055507f7f26b83ff96e1f2b6a682f133852f6798a09c465da95921460cefb384740249860016040516112d19190614338565b60405180910390a15b505050505050565b6101366020528060005260406000206000915090508060000154908060010154908060020154908060030160009054906101000a900473ffffffffffffffffffffffffffffffffffffffff16908060040154908060050154908060060154905087565b61012e60009054906101000a900473ffffffffffffffffffffffffffffffffffffffff1681565b6000609860008473ffffffffffffffffffffffffffffffffffffffff1673ffffffffffffffffffffffffffffffffffffffff16815260200190815260200160002060008373ffffffffffffffffffffffffffffffffffffffff1673ffffffffffffffffffffffffffffffffffffffff16815260200190815260200160002060009054906101000a900460ff16905092915050565b6114086117bc565b73ffffffffffffffffffffffffffffffffffffffff168573ffffffffffffffffffffffffffffffffffffffff16148061144e575061144d856114486117bc565b61136c565b5b61148d576040517f08c379a0000000000000000000000000000000000000000000000000000000008152600401611484906143c5565b60405180910390fd5b61149a8585858585612190565b5050505050565b6114a96117bc565b73ffffffffffffffffffffffffffffffffffffffff166114c7610cad565b73ffffffffffffffffffffffffffffffffffffffff161461151d576040517f08c379a000000000000000000000000000000000000000000000000000000000815260040161151490613e1c565b60405180910390fd5b600073ffffffffffffffffffffffffffffffffffffffff168173ffffffffffffffffffffffffffffffffffffffff160361158c576040517f08c379a000000000000000000000000000000000000000000000000000000000815260040161158390614457565b60405180910390fd5b61159581611d27565b50565b6115a06117bc565b73ffffffffffffffffffffffffffffffffffffffff166115be610cad565b73ffffffffffffffffffffffffffffffffffffffff1614611614576040517f08c379a000000000000000000000000000000000000000000000000000000000815260040161160b90613e1c565b60405180910390fd5b8161013160006101000a81548167ffffffffffffffff021916908367ffffffffffffffff16021790555080610132819055508261013060186101000a81548163ffffffff021916908363ffffffff160217905550505050565b60007f01ffc9a7000000000000000000000000000000000000000000000000000000007bffffffffffffffffffffffffffffffffffffffffffffffffffffffff1916827bffffffffffffffffffffffffffffffffffffffffffffffffffffffff1916149050919050565b6060600060fc600084815260200190815260200160002080546116f990614108565b80601f016020809104026020016040519081016040528092919081815260200182805461172590614108565b80156117725780601f1061174757610100808354040283529160200191611772565b820191906000526020600020905b81548152906001019060200180831161175557829003601f168201915b5050505050905060008151116117905761178b8361242e565b6117b4565b60fb816040516020016117a492919061450b565b6040516020818303038152906040525b915050919050565b600033905090565b8060fc600084815260200190815260200160002090805190602001906117eb929190612e8f565b50817f6bb7ff708619ba0610cba295a58592e0451dee2622938c8755667688daf3529b611817846106cc565b60405161182491906131c5565b60405180910390a25050565b61184e610135600084815260200190815260200160002054826124c2565b7fefb16d61046900da527008568620fb9f8420e2f5ed4de3bfbded5035c9362b0e8160405161187d919061387b565b60405180910390a15050565b81518351146118cd576040517f08c379a00000000000000000000000000000000000000000000000000000000081526004016118c4906145a1565b60405180910390fd5b600073ffffffffffffffffffffffffffffffffffffffff168473ffffffffffffffffffffffffffffffffffffffff160361193c576040517f08c379a000000000000000000000000000000000000000000000000000000000815260040161193390614633565b60405180910390fd5b60006119466117bc565b90506119568187878787876127ad565b60005b8451811015611b0a57600085828151811061197757611976613f89565b5b60200260200101519050600085838151811061199657611995613f89565b5b6020026020010151905060006097600084815260200190815260200160002060008b73ffffffffffffffffffffffffffffffffffffffff1673ffffffffffffffffffffffffffffffffffffffff16815260200190815260200160002054905081811015611a38576040517f08c379a0000000000000000000000000000000000000000000000000000000008152600401611a2f906146c5565b60405180910390fd5b8181036097600085815260200190815260200160002060008c73ffffffffffffffffffffffffffffffffffffffff1673ffffffffffffffffffffffffffffffffffffffff16815260200190815260200160002081905550816097600085815260200190815260200160002060008b73ffffffffffffffffffffffffffffffffffffffff1673ffffffffffffffffffffffffffffffffffffffff1681526020019081526020016000206000828254611aef91906146e5565b9250508190555050505080611b0390613fe7565b9050611959565b508473ffffffffffffffffffffffffffffffffffffffff168673ffffffffffffffffffffffffffffffffffffffff168273ffffffffffffffffffffffffffffffffffffffff167f4a39dc06d4c0dbc64b70af90fd698a233a518aa5d07e595d983b8c0526c8f7fb8787604051611b8192919061473b565b60405180910390a4611b978187878787876127b5565b611ba58187878787876127bd565b505050505050565b8060fb9080519060200190611bc3929190612e8f565b5050565b606060008203611c0e576040518060400160405280600181526020017f30000000000000000000000000000000000000000000000000000000000000008152509050611d22565b600082905060005b60008214611c40578080611c2990613fe7565b915050600a82611c3991906147a1565b9150611c16565b60008167ffffffffffffffff811115611c5c57611c5b6131f1565b5b6040519080825280601f01601f191660200182016040528015611c8e5781602001600182028036833780820191505090505b5090505b60008514611d1b57600182611ca791906147d2565b9150600a85611cb69190614806565b6030611cc291906146e5565b60f81b818381518110611cd857611cd7613f89565b5b60200101907effffffffffffffffffffffffffffffffffffffffffffffffffffffffffffff1916908160001a905350600a85611d1491906147a1565b9450611c92565b8093505050505b919050565b600060c960009054906101000a900473ffffffffffffffffffffffffffffffffffffffff1690508160c960006101000a81548173ffffffffffffffffffffffffffffffffffffffff021916908373ffffffffffffffffffffffffffffffffffffffff1602179055508173ffffffffffffffffffffffffffffffffffffffff168173ffffffffffffffffffffffffffffffffffffffff167f8be0079c531659141344cd1fd0a4f28419497f9722a3daafe3b4186f6b6457e060405160405180910390a35050565b8173ffffffffffffffffffffffffffffffffffffffff168373ffffffffffffffffffffffffffffffffffffffff1603611e5b576040517f08c379a0000000000000000000000000000000000000000000000000000000008152600401611e52906148a9565b60405180910390fd5b80609860008573ffffffffffffffffffffffffffffffffffffffff1673ffffffffffffffffffffffffffffffffffffffff16815260200190815260200160002060008473ffffffffffffffffffffffffffffffffffffffff1673ffffffffffffffffffffffffffffffffffffffff16815260200190815260200160002060006101000a81548160ff0219169083151502179055508173ffffffffffffffffffffffffffffffffffffffff168373ffffffffffffffffffffffffffffffffffffffff167f17307eab39ab6107e8899845ad3d59bd9653f200f220920489ca2b5937696c3183604051611f4c91906130e4565b60405180910390a3505050565b60008060019054906101000a900460ff1615611fd05760018260ff16148015611f885750611f8630612994565b155b611fc7576040517f08c379a0000000000000000000000000000000000000000000000000000000008152600401611fbe9061493b565b60405180910390fd5b60009050612044565b8160ff1660008054906101000a900460ff1660ff1610612025576040517f08c379a000000000000000000000000000000000000000000000000000000000815260040161201c9061493b565b60405180910390fd5b816000806101000a81548160ff021916908360ff160217905550600190505b919050565b600060019054906101000a900460ff16612098576040517f08c379a000000000000000000000000000000000000000000000000000000000815260040161208f906149cd565b60405180910390fd5b6120a1816129b7565b50565b600060019054906101000a900460ff166120f3576040517f08c379a00000000000000000000000000000000000000000000000000000000081526004016120ea906149cd565b60405180910390fd5b6120fb612a12565b565b600060019054906101000a900460ff1661214c576040517f08c379a0000000000000000000000000000000000000000000000000000000008152600401612143906149cd565b60405180910390fd5b80603360006101000a81548173ffffffffffffffffffffffffffffffffffffffff021916908373ffffffffffffffffffffffffffffffffffffffff16021790555050565b600073ffffffffffffffffffffffffffffffffffffffff168473ffffffffffffffffffffffffffffffffffffffff16036121ff576040517f08c379a00000000000000000000000000000000000000000000000000000000081526004016121f690614633565b60405180910390fd5b60006122096117bc565b9050600061221685612a73565b9050600061222385612a73565b90506122338389898585896127ad565b60006097600088815260200190815260200160002060008a73ffffffffffffffffffffffffffffffffffffffff1673ffffffffffffffffffffffffffffffffffffffff168152602001908152602001600020549050858110156122cb576040517f08c379a00000000000000000000000000000000000000000000000000000000081526004016122c2906146c5565b60405180910390fd5b8581036097600089815260200190815260200160002060008b73ffffffffffffffffffffffffffffffffffffffff1673ffffffffffffffffffffffffffffffffffffffff16815260200190815260200160002081905550856097600089815260200190815260200160002060008a73ffffffffffffffffffffffffffffffffffffffff1673ffffffffffffffffffffffffffffffffffffffff168152602001908152602001600020600082825461238291906146e5565b925050819055508773ffffffffffffffffffffffffffffffffffffffff168973ffffffffffffffffffffffffffffffffffffffff168573ffffffffffffffffffffffffffffffffffffffff167fc3d58168c5ae7397731d063d5bbf3d657854427343f4c083240f7aacaa2d0f628a8a6040516123ff9291906149ed565b60405180910390a4612415848a8a86868a6127b5565b612423848a8a8a8a8a612aed565b505050505050505050565b60606099805461243d90614108565b80601f016020809104026020016040519081016040528092919081815260200182805461246990614108565b80156124b65780601f1061248b576101008083540402835291602001916124b6565b820191906000526020600020905b81548152906001019060200180831161249957829003601f168201915b50505050509050919050565b6001610136600084815260200190815260200160002060020154826000815181106124f0576124ef613f89565b5b60200260200101516125029190614806565b61250c91906146e5565b61013660008481526020019081526020016000206001018190555061257d610136600061013454815260200190815260200160002060030160009054906101000a900473ffffffffffffffffffffffffffffffffffffffff1683600160405180602001604052806000815250612cc4565b600061259f610136600085815260200190815260200160002060060154611bc7565b6101336040516020016125b3929190614a16565b60405160208183030381529060405290506125ce83826117c4565b600073ffffffffffffffffffffffffffffffffffffffff1661012e60009054906101000a900473ffffffffffffffffffffffffffffffffffffffff1673ffffffffffffffffffffffffffffffffffffffff1603612660576040517f08c379a000000000000000000000000000000000000000000000000000000000815260040161265790614aac565b60405180910390fd5b61012e60009054906101000a900473ffffffffffffffffffffffffffffffffffffffff1673ffffffffffffffffffffffffffffffffffffffff166385d90d098461013660008781526020019081526020016000206000015461013660008881526020019081526020016000206001015461013660008981526020019081526020016000206005015461013660008a8152602001908152602001600020600401546040518663ffffffff1660e01b8152600401612720959493929190614acc565b600060405180830381600087803b15801561273a57600080fd5b505af115801561274e573d6000803e3d6000fd5b505050507f1a6e4d7b6732216ab103cbf6cfed44bf6a931e207352a342cff58335c57f15298361277d856106cc565b61013660008781526020019081526020016000206040516127a093929190614c76565b60405180910390a1505050565b505050505050565b505050505050565b6127dc8473ffffffffffffffffffffffffffffffffffffffff16612994565b1561298c578373ffffffffffffffffffffffffffffffffffffffff1663bc197c8187878686866040518663ffffffff1660e01b8152600401612822959493929190614d0a565b6020604051808303816000875af192505050801561285e57506040513d601f19601f8201168201806040525081019061285b9190614d87565b60015b6129035761286a614dc1565b806308c379a0036128c6575061287e614de3565b8061288957506128c8565b806040517f08c379a00000000000000000000000000000000000000000000000000000000081526004016128bd91906131c5565b60405180910390fd5b505b6040517f08c379a00000000000000000000000000000000000000000000000000000000081526004016128fa90614ee5565b60405180910390fd5b63bc197c8160e01b7bffffffffffffffffffffffffffffffffffffffffffffffffffffffff1916817bffffffffffffffffffffffffffffffffffffffffffffffffffffffff19161461298a576040517f08c379a000000000000000000000000000000000000000000000000000000000815260040161298190614f77565b60405180910390fd5b505b505050505050565b6000808273ffffffffffffffffffffffffffffffffffffffff163b119050919050565b600060019054906101000a900460ff16612a06576040517f08c379a00000000000000000000000000000000000000000000000000000000081526004016129fd906149cd565b60405180910390fd5b612a0f81612e75565b50565b600060019054906101000a900460ff16612a61576040517f08c379a0000000000000000000000000000000000000000000000000000000008152600401612a58906149cd565b60405180910390fd5b612a71612a6c6117bc565b611d27565b565b60606000600167ffffffffffffffff811115612a9257612a916131f1565b5b604051908082528060200260200182016040528015612ac05781602001602082028036833780820191505090505b5090508281600081518110612ad857612ad7613f89565b5b60200260200101818152505080915050919050565b612b0c8473ffffffffffffffffffffffffffffffffffffffff16612994565b15612cbc578373ffffffffffffffffffffffffffffffffffffffff1663f23a6e6187878686866040518663ffffffff1660e01b8152600401612b52959493929190614f97565b6020604051808303816000875af1925050508015612b8e57506040513d601f19601f82011682018060405250810190612b8b9190614d87565b60015b612c3357612b9a614dc1565b806308c379a003612bf65750612bae614de3565b80612bb95750612bf8565b806040517f08c379a0000000000000000000000000000000000000000000000000000000008152600401612bed91906131c5565b60405180910390fd5b505b6040517f08c379a0000000000000000000000000000000000000000000000000000000008152600401612c2a90614ee5565b60405180910390fd5b63f23a6e6160e01b7bffffffffffffffffffffffffffffffffffffffffffffffffffffffff1916817bffffffffffffffffffffffffffffffffffffffffffffffffffffffff191614612cba576040517f08c379a0000000000000000000000000000000000000000000000000000000008152600401612cb190614f77565b60405180910390fd5b505b505050505050565b600073ffffffffffffffffffffffffffffffffffffffff168473ffffffffffffffffffffffffffffffffffffffff1603612d33576040517f08c379a0000000000000000000000000000000000000000000000000000000008152600401612d2a90615063565b60405180910390fd5b6000612d3d6117bc565b90506000612d4a85612a73565b90506000612d5785612a73565b9050612d68836000898585896127ad565b846097600088815260200190815260200160002060008973ffffffffffffffffffffffffffffffffffffffff1673ffffffffffffffffffffffffffffffffffffffff1681526020019081526020016000206000828254612dc891906146e5565b925050819055508673ffffffffffffffffffffffffffffffffffffffff16600073ffffffffffffffffffffffffffffffffffffffff168473ffffffffffffffffffffffffffffffffffffffff167fc3d58168c5ae7397731d063d5bbf3d657854427343f4c083240f7aacaa2d0f628989604051612e469291906149ed565b60405180910390a4612e5d836000898585896127b5565b612e6c83600089898989612aed565b50505050505050565b8060999080519060200190612e8b929190612e8f565b5050565b828054612e9b90614108565b90600052602060002090601f016020900481019282612ebd5760008555612f04565b82601f10612ed657805160ff1916838001178555612f04565b82800160010185558215612f04579182015b82811115612f03578251825591602001919060010190612ee8565b5b509050612f119190612f15565b5090565b5b80821115612f2e576000816000905550600101612f16565b5090565b6000604051905090565b600080fd5b600080fd5b600073ffffffffffffffffffffffffffffffffffffffff82169050919050565b6000612f7182612f46565b9050919050565b612f8181612f66565b8114612f8c57600080fd5b50565b600081359050612f9e81612f78565b92915050565b6000819050919050565b612fb781612fa4565b8114612fc257600080fd5b50565b600081359050612fd481612fae565b92915050565b60008060408385031215612ff157612ff0612f3c565b5b6000612fff85828601612f8f565b925050602061301085828601612fc5565b9150509250929050565b61302381612fa4565b82525050565b600060208201905061303e600083018461301a565b92915050565b60007fffffffff0000000000000000000000000000000000000000000000000000000082169050919050565b61307981613044565b811461308457600080fd5b50565b60008135905061309681613070565b92915050565b6000602082840312156130b2576130b1612f3c565b5b60006130c084828501613087565b91505092915050565b60008115159050919050565b6130de816130c9565b82525050565b60006020820190506130f960008301846130d5565b92915050565b60006020828403121561311557613114612f3c565b5b600061312384828501612fc5565b91505092915050565b600081519050919050565b600082825260208201905092915050565b60005b8381101561316657808201518184015260208101905061314b565b83811115613175576000848401525b50505050565b6000601f19601f8301169050919050565b60006131978261312c565b6131a18185613137565b93506131b1818560208601613148565b6131ba8161317b565b840191505092915050565b600060208201905081810360008301526131df818461318c565b905092915050565b600080fd5b600080fd5b7f4e487b7100000000000000000000000000000000000000000000000000000000600052604160045260246000fd5b6132298261317b565b810181811067ffffffffffffffff82111715613248576132476131f1565b5b80604052505050565b600061325b612f32565b90506132678282613220565b919050565b600067ffffffffffffffff821115613287576132866131f1565b5b6132908261317b565b9050602081019050919050565b82818337600083830152505050565b60006132bf6132ba8461326c565b613251565b9050828152602081018484840111156132db576132da6131ec565b5b6132e684828561329d565b509392505050565b600082601f830112613303576133026131e7565b5b81356133138482602086016132ac565b91505092915050565b6000806040838503121561333357613332612f3c565b5b600061334185828601612fc5565b925050602083013567ffffffffffffffff81111561336257613361612f41565b5b61336e858286016132ee565b9150509250929050565b60006020828403121561338e5761338d612f3c565b5b600082013567ffffffffffffffff8111156133ac576133ab612f41565b5b6133b8848285016132ee565b91505092915050565b600067ffffffffffffffff8211156133dc576133db6131f1565b5b602082029050602081019050919050565b600080fd5b6000613405613400846133c1565b613251565b90508083825260208201905060208402830185811115613428576134276133ed565b5b835b81811015613451578061343d8882612fc5565b84526020840193505060208101905061342a565b5050509392505050565b600082601f8301126134705761346f6131e7565b5b81356134808482602086016133f2565b91505092915050565b600080604083850312156134a05761349f612f3c565b5b60006134ae85828601612fc5565b925050602083013567ffffffffffffffff8111156134cf576134ce612f41565b5b6134db8582860161345b565b9150509250929050565b600067ffffffffffffffff821115613500576134ff6131f1565b5b6135098261317b565b9050602081019050919050565b6000613529613524846134e5565b613251565b905082815260208101848484011115613545576135446131ec565b5b61355084828561329d565b509392505050565b600082601f83011261356d5761356c6131e7565b5b813561357d848260208601613516565b91505092915050565b600080600080600060a086880312156135a2576135a1612f3c565b5b60006135b088828901612f8f565b95505060206135c188828901612f8f565b945050604086013567ffffffffffffffff8111156135e2576135e1612f41565b5b6135ee8882890161345b565b935050606086013567ffffffffffffffff81111561360f5761360e612f41565b5b61361b8882890161345b565b925050608086013567ffffffffffffffff81111561363c5761363b612f41565b5b61364888828901613558565b9150509295509295909350565b60006020828403121561366b5761366a612f3c565b5b600061367984828501612f8f565b91505092915050565b600067ffffffffffffffff82111561369d5761369c6131f1565b5b602082029050602081019050919050565b60006136c16136bc84613682565b613251565b905080838252602082019050602084028301858111156136e4576136e36133ed565b5b835b8181101561370d57806136f98882612f8f565b8452602084019350506020810190506136e6565b5050509392505050565b600082601f83011261372c5761372b6131e7565b5b813561373c8482602086016136ae565b91505092915050565b6000806040838503121561375c5761375b612f3c565b5b600083013567ffffffffffffffff81111561377a57613779612f41565b5b61378685828601613717565b925050602083013567ffffffffffffffff8111156137a7576137a6612f41565b5b6137b38582860161345b565b9150509250929050565b600081519050919050565b600082825260208201905092915050565b6000819050602082019050919050565b6137f281612fa4565b82525050565b600061380483836137e9565b60208301905092915050565b6000602082019050919050565b6000613828826137bd565b61383281856137c8565b935061383d836137d9565b8060005b8381101561386e57815161385588826137f8565b975061386083613810565b925050600181019050613841565b5085935050505092915050565b60006020820190508181036000830152613895818461381d565b905092915050565b6138a681612f66565b82525050565b60006020820190506138c1600083018461389d565b92915050565b6138d0816130c9565b81146138db57600080fd5b50565b6000813590506138ed816138c7565b92915050565b6000806040838503121561390a57613909612f3c565b5b600061391885828601612f8f565b9250506020613929858286016138de565b9150509250929050565b60008060008060008060c087890312156139505761394f612f3c565b5b600061395e89828a01612fc5565b965050602061396f89828a01612fc5565b955050604061398089828a01612fc5565b945050606061399189828a01612fc5565b93505060806139a289828a01612fc5565b92505060a06139b389828a01612f8f565b9150509295509295509295565b600067ffffffffffffffff82169050919050565b6139dd816139c0565b81146139e857600080fd5b50565b6000813590506139fa816139d4565b92915050565b6000819050919050565b613a1381613a00565b8114613a1e57600080fd5b50565b600081359050613a3081613a0a565b92915050565b6000613a4182612f66565b9050919050565b613a5181613a36565b8114613a5c57600080fd5b50565b600081359050613a6e81613a48565b92915050565b600080600080600060a08688031215613a9057613a8f612f3c565b5b6000613a9e888289016139eb565b9550506020613aaf88828901612f8f565b9450506040613ac088828901612f8f565b9350506060613ad188828901613a21565b9250506080613ae288828901613a5f565b9150509295509295909350565b600060e082019050613b04600083018a61301a565b613b11602083018961301a565b613b1e604083018861301a565b613b2b606083018761389d565b613b38608083018661301a565b613b4560a083018561301a565b613b5260c083018461301a565b98975050505050505050565b6000819050919050565b6000613b83613b7e613b7984612f46565b613b5e565b612f46565b9050919050565b6000613b9582613b68565b9050919050565b6000613ba782613b8a565b9050919050565b613bb781613b9c565b82525050565b6000602082019050613bd26000830184613bae565b92915050565b60008060408385031215613bef57613bee612f3c565b5b6000613bfd85828601612f8f565b9250506020613c0e85828601612f8f565b9150509250929050565b600080600080600060a08688031215613c3457613c33612f3c565b5b6000613c4288828901612f8f565b9550506020613c5388828901612f8f565b9450506040613c6488828901612fc5565b9350506060613c7588828901612fc5565b925050608086013567ffffffffffffffff811115613c9657613c95612f41565b5b613ca288828901613558565b9150509295509295909350565b600063ffffffff82169050919050565b613cc881613caf565b8114613cd357600080fd5b50565b600081359050613ce581613cbf565b92915050565b600080600060608486031215613d0457613d03612f3c565b5b6000613d1286828701613cd6565b9350506020613d23868287016139eb565b9250506040613d3486828701613a21565b9150509250925092565b7f455243313135353a2062616c616e636520717565727920666f7220746865207a60008201527f65726f2061646472657373000000000000000000000000000000000000000000602082015250565b6000613d9a602b83613137565b9150613da582613d3e565b604082019050919050565b60006020820190508181036000830152613dc981613d8d565b9050919050565b7f4f776e61626c653a2063616c6c6572206973206e6f7420746865206f776e6572600082015250565b6000613e06602083613137565b9150613e1182613dd0565b602082019050919050565b60006020820190508181036000830152613e3581613df9565b9050919050565b6000604082019050613e51600083018561389d565b613e5e602083018461389d565b9392505050565b7f455243313135353a207472616e736665722063616c6c6572206973206e6f742060008201527f6f776e6572206e6f7220617070726f7665640000000000000000000000000000602082015250565b6000613ec1603283613137565b9150613ecc82613e65565b604082019050919050565b60006020820190508181036000830152613ef081613eb4565b9050919050565b7f455243313135353a206163636f756e747320616e6420696473206c656e67746860008201527f206d69736d617463680000000000000000000000000000000000000000000000602082015250565b6000613f53602983613137565b9150613f5e82613ef7565b604082019050919050565b60006020820190508181036000830152613f8281613f46565b9050919050565b7f4e487b7100000000000000000000000000000000000000000000000000000000600052603260045260246000fd5b7f4e487b7100000000000000000000000000000000000000000000000000000000600052601160045260246000fd5b6000613ff282612fa4565b91507fffffffffffffffffffffffffffffffffffffffffffffffffffffffffffffffff820361402457614023613fb8565b5b600182019050919050565b600081905092915050565b7f546f6b656e202300000000000000000000000000000000000000000000000000600082015250565b600061407060078361402f565b915061407b8261403a565b600782019050919050565b60006140918261312c565b61409b818561402f565b93506140ab818560208601613148565b80840191505092915050565b60006140c282614063565b91506140ce8284614086565b915081905092915050565b7f4e487b7100000000000000000000000000000000000000000000000000000000600052602260045260246000fd5b6000600282049050600182168061412057607f821691505b602082108103614133576141326140d9565b5b50919050565b7f6465782061646472657373206973206e6f7420636f6e66696775726564000000600082015250565b600061416f601d83613137565b915061417a82614139565b602082019050919050565b6000602082019050818103600083015261419e81614162565b9050919050565b7f41636365737320666f7262696464656e00000000000000000000000000000000600082015250565b60006141db601083613137565b91506141e6826141a5565b602082019050919050565b6000602082019050818103600083015261420a816141ce565b9050919050565b61421a81613a00565b82525050565b614229816139c0565b82525050565b600061ffff82169050919050565b6142468161422f565b82525050565b61425581613caf565b82525050565b600060a0820190506142706000830188614211565b61427d6020830187614220565b61428a604083018661423d565b614297606083018561424c565b6142a4608083018461424c565b9695505050505050565b6000815190506142bd81612fae565b92915050565b6000602082840312156142d9576142d8612f3c565b5b60006142e7848285016142ae565b91505092915050565b6000819050919050565b600060ff82169050919050565b600061432261431d614318846142f0565b613b5e565b6142fa565b9050919050565b61433281614307565b82525050565b600060208201905061434d6000830184614329565b92915050565b7f455243313135353a2063616c6c6572206973206e6f74206f776e6572206e6f7260008201527f20617070726f7665640000000000000000000000000000000000000000000000602082015250565b60006143af602983613137565b91506143ba82614353565b604082019050919050565b600060208201905081810360008301526143de816143a2565b9050919050565b7f4f776e61626c653a206e6577206f776e657220697320746865207a65726f206160008201527f6464726573730000000000000000000000000000000000000000000000000000602082015250565b6000614441602683613137565b915061444c826143e5565b604082019050919050565b6000602082019050818103600083015261447081614434565b9050919050565b60008190508160005260206000209050919050565b6000815461449981614108565b6144a3818661402f565b945060018216600081146144be57600181146144cf57614502565b60ff19831686528186019350614502565b6144d885614477565b60005b838110156144fa578154818901526001820191506020810190506144db565b838801955050505b50505092915050565b6000614517828561448c565b91506145238284614086565b91508190509392505050565b7f455243313135353a2069647320616e6420616d6f756e7473206c656e6774682060008201527f6d69736d61746368000000000000000000000000000000000000000000000000602082015250565b600061458b602883613137565b91506145968261452f565b604082019050919050565b600060208201905081810360008301526145ba8161457e565b9050919050565b7f455243313135353a207472616e7366657220746f20746865207a65726f20616460008201527f6472657373000000000000000000000000000000000000000000000000000000602082015250565b600061461d602583613137565b9150614628826145c1565b604082019050919050565b6000602082019050818103600083015261464c81614610565b9050919050565b7f455243313135353a20696e73756666696369656e742062616c616e636520666f60008201527f72207472616e7366657200000000000000000000000000000000000000000000602082015250565b60006146af602a83613137565b91506146ba82614653565b604082019050919050565b600060208201905081810360008301526146de816146a2565b9050919050565b60006146f082612fa4565b91506146fb83612fa4565b9250827fffffffffffffffffffffffffffffffffffffffffffffffffffffffffffffffff038211156147305761472f613fb8565b5b828201905092915050565b60006040820190508181036000830152614755818561381d565b90508181036020830152614769818461381d565b90509392505050565b7f4e487b7100000000000000000000000000000000000000000000000000000000600052601260045260246000fd5b60006147ac82612fa4565b91506147b783612fa4565b9250826147c7576147c6614772565b5b828204905092915050565b60006147dd82612fa4565b91506147e883612fa4565b9250828210156147fb576147fa613fb8565b5b828203905092915050565b600061481182612fa4565b915061481c83612fa4565b92508261482c5761482b614772565b5b828206905092915050565b7f455243313135353a2073657474696e6720617070726f76616c2073746174757360008201527f20666f722073656c660000000000000000000000000000000000000000000000602082015250565b6000614893602983613137565b915061489e82614837565b604082019050919050565b600060208201905081810360008301526148c281614886565b9050919050565b7f496e697469616c697a61626c653a20636f6e747261637420697320616c72656160008201527f647920696e697469616c697a6564000000000000000000000000000000000000602082015250565b6000614925602e83613137565b9150614930826148c9565b604082019050919050565b6000602082019050818103600083015261495481614918565b9050919050565b7f496e697469616c697a61626c653a20636f6e7472616374206973206e6f74206960008201527f6e697469616c697a696e67000000000000000000000000000000000000000000602082015250565b60006149b7602b83613137565b91506149c28261495b565b604082019050919050565b600060208201905081810360008301526149e6816149aa565b9050919050565b6000604082019050614a02600083018561301a565b614a0f602083018461301a565b9392505050565b6000614a228285614086565b9150614a2e828461448c565b91508190509392505050565b7f426564726f6f6d4e6674496e7374616e6365206e6f7420696e697469616c697a60008201527f6564000000000000000000000000000000000000000000000000000000000000602082015250565b6000614a96602283613137565b9150614aa182614a3a565b604082019050919050565b60006020820190508181036000830152614ac581614a89565b9050919050565b600060a082019050614ae1600083018861301a565b614aee602083018761301a565b614afb604083018661301a565b614b08606083018561301a565b614b15608083018461301a565b9695505050505050565b60008160001c9050919050565b6000819050919050565b6000614b49614b4483614b1f565b614b2c565b9050919050565b600073ffffffffffffffffffffffffffffffffffffffff82169050919050565b6000614b83614b7e83614b1f565b614b50565b9050919050565b614b9381612f66565b82525050565b60e082016000808301549050614bae81614b36565b614bbb60008601826137e9565b5060018301549050614bcc81614b36565b614bd960208601826137e9565b5060028301549050614bea81614b36565b614bf760408601826137e9565b5060038301549050614c0881614b70565b614c156060860182614b8a565b5060048301549050614c2681614b36565b614c3360808601826137e9565b5060058301549050614c4481614b36565b614c5160a08601826137e9565b5060068301549050614c6281614b36565b614c6f60c08601826137e9565b5050505050565b600061012082019050614c8c600083018661301a565b8181036020830152614c9e818561318c565b9050614cad6040830184614b99565b949350505050565b600081519050919050565b600082825260208201905092915050565b6000614cdc82614cb5565b614ce68185614cc0565b9350614cf6818560208601613148565b614cff8161317b565b840191505092915050565b600060a082019050614d1f600083018861389d565b614d2c602083018761389d565b8181036040830152614d3e818661381d565b90508181036060830152614d52818561381d565b90508181036080830152614d668184614cd1565b90509695505050505050565b600081519050614d8181613070565b92915050565b600060208284031215614d9d57614d9c612f3c565b5b6000614dab84828501614d72565b91505092915050565b60008160e01c9050919050565b600060033d1115614de05760046000803e614ddd600051614db4565b90505b90565b600060443d10614e7057614df5612f32565b60043d036004823e80513d602482011167ffffffffffffffff82111715614e1d575050614e70565b808201805167ffffffffffffffff811115614e3b5750505050614e70565b80602083010160043d038501811115614e58575050505050614e70565b614e6782602001850186613220565b82955050505050505b90565b7f455243313135353a207472616e7366657220746f206e6f6e204552433131353560008201527f526563656976657220696d706c656d656e746572000000000000000000000000602082015250565b6000614ecf603483613137565b9150614eda82614e73565b604082019050919050565b60006020820190508181036000830152614efe81614ec2565b9050919050565b7f455243313135353a204552433131353552656365697665722072656a6563746560008201527f6420746f6b656e73000000000000000000000000000000000000000000000000602082015250565b6000614f61602883613137565b9150614f6c82614f05565b604082019050919050565b60006020820190508181036000830152614f9081614f54565b9050919050565b600060a082019050614fac600083018861389d565b614fb9602083018761389d565b614fc6604083018661301a565b614fd3606083018561301a565b8181036080830152614fe58184614cd1565b90509695505050505050565b7f455243313135353a206d696e7420746f20746865207a65726f2061646472657360008201527f7300000000000000000000000000000000000000000000000000000000000000602082015250565b600061504d602183613137565b915061505882614ff1565b604082019050919050565b6000602082019050818103600083015261507c81615040565b905091905056fea2646970667358221220b997db2a03e22e33b0550c3ce828bcf669d0c3dd90ac28236c2aed284385cfeb64736f6c634300080d0033","abi":[{"inputs":[{"internalType":"address","name":"have","type":"address"},{"internalType":"address","name":"want","type":"address"}],"name":"OnlyCoordinatorCanFulfill","type":"error"},{"anonymous":false,"inputs":[{"indexed":true,"internalType":"address","name":"account","type":"address"},{"indexed":true,"internalType":"address","name":"operator","type":"address"},{"indexed":false,"internalType":"bool","name":"approved","type":"bool"}],"name":"ApprovalForAll","type":"event"},{"anonymous":false,"inputs":[{"indexed":false,"internalType":"uint8","name":"version","type":"uint8"}],"name":"Initialized","type":"event"},{"anonymous":false,"inputs":[{"indexed":true,"internalType":"address","name":"previousOwner","type":"address"},{"indexed":true,"internalType":"address","name":"newOwner","type":"address"}],"name":"OwnershipTransferred","type":"event"},{"anonymous":false,"inputs":[{"indexed":false,"internalType":"uint256[]","name":"randomWords","type":"uint256[]"}],"name":"ReturnedRandomness","type":"event"},{"anonymous":false,"inputs":[{"indexed":true,"internalType":"address","name":"operator","type":"address"},{"indexed":true,"internalType":"address","name":"from","type":"address"},{"indexed":true,"internalType":"address","name":"to","type":"address"},{"indexed":false,"internalType":"uint256[]","name":"ids","type":"uint256[]"},{"indexed":false,"internalType":"uint256[]","name":"values","type":"uint256[]"}],"name":"TransferBatch","type":"event"},{"anonymous":false,"inputs":[{"indexed":true,"internalType":"address","name":"operator","type":"address"},{"indexed":true,"internalType":"address","name":"from","type":"address"},{"indexed":true,"internalType":"address","name":"to","type":"address"},{"indexed":false,"internalType":"uint256","name":"id","type":"uint256"},{"indexed":false,"internalType":"uint256","name":"value","type":"uint256"}],"name":"TransferSingle","type":"event"},{"anonymous":false,"inputs":[{"indexed":false,"internalType":"string","name":"value","type":"string"},{"indexed":true,"internalType":"uint256","name":"id","type":"uint256"}],"name":"URI","type":"event"},{"anonymous":false,"inputs":[{"indexed":false,"internalType":"uint256","name":"tokenId","type":"uint256"},{"indexed":false,"internalType":"string","name":"tokenURI","type":"string"},{"components":[{"internalType":"uint256","name":"attributeIndex","type":"uint256"},{"internalType":"uint256","name":"valueToAdd","type":"uint256"},{"internalType":"uint256","name":"valueToAddMax","type":"uint256"},{"internalType":"address","name":"owner","type":"address"},{"internalType":"uint256","name":"price","type":"uint256"},{"internalType":"uint256","name":"newDesignId","type":"uint256"},{"internalType":"uint256","name":"upgradeDesignId","type":"uint256"}],"indexed":false,"internalType":"struct UpgradeNft.UpgradeSpecifications","name":"specifications","type":"tuple"}],"name":"UpgradeNftMinting","type":"event"},{"inputs":[{"internalType":"address","name":"account","type":"address"},{"internalType":"uint256","name":"id","type":"uint256"}],"name":"balanceOf","outputs":[{"internalType":"uint256","name":"","type":"uint256"}],"stateMutability":"view","type":"function"},{"inputs":[{"internalType":"address[]","name":"accounts","type":"address[]"},{"internalType":"uint256[]","name":"ids","type":"uint256[]"}],"name":"balanceOfBatch","outputs":[{"internalType":"uint256[]","name":"","type":"uint256[]"}],"stateMutability":"view","type":"function"},{"inputs":[],"name":"bedroomNftInstance","outputs":[{"internalType":"contract IBedroomNft","name":"","type":"address"}],"stateMutability":"view","type":"function"},{"inputs":[],"name":"dexAddress","outputs":[{"internalType":"address","name":"","type":"address"}],"stateMutability":"view","type":"function"},{"inputs":[],"name":"fileFormat","outputs":[{"internalType":"string","name":"","type":"string"}],"stateMutability":"view","type":"function"},{"inputs":[{"internalType":"uint256","name":"_tokenId","type":"uint256"}],"name":"getName","outputs":[{"internalType":"string","name":"","type":"string"}],"stateMutability":"pure","type":"function"},{"inputs":[{"internalType":"uint64","name":"_subscriptionId","type":"uint64"},{"internalType":"address","name":"_vrfCoordinator","type":"address"},{"internalType":"address","name":"_link_token_contract","type":"address"},{"internalType":"bytes32","name":"_keyHash","type":"bytes32"},{"internalType":"contract IBedroomNft","name":"_bedroomNftAddress","type":"address"}],"name":"initialize","outputs":[],"stateMutability":"nonpayable","type":"function"},{"inputs":[{"internalType":"address","name":"account","type":"address"},{"internalType":"address","name":"operator","type":"address"}],"name":"isApprovedForAll","outputs":[{"internalType":"bool","name":"","type":"bool"}],"stateMutability":"view","type":"function"},{"inputs":[{"internalType":"uint256","name":"_newDesignId","type":"uint256"},{"internalType":"uint256","name":"_upgradeDesignId","type":"uint256"},{"internalType":"uint256","name":"_price","type":"uint256"},{"internalType":"uint256","name":"_indexAttribute","type":"uint256"},{"internalType":"uint256","name":"_valueToAddMax","type":"uint256"},{"internalType":"address","name":"_owner","type":"address"}],"name":"mintingUpgradeNft","outputs":[],"stateMutability":"nonpayable","type":"function"},{"inputs":[],"name":"owner","outputs":[{"internalType":"address","name":"","type":"address"}],"stateMutability":"view","type":"function"},{"inputs":[{"internalType":"uint256","name":"requestId","type":"uint256"},{"internalType":"uint256[]","name":"randomWords","type":"uint256[]"}],"name":"rawFulfillRandomWords","outputs":[],"stateMutability":"nonpayable","type":"function"},{"inputs":[],"name":"renounceOwnership","outputs":[],"stateMutability":"nonpayable","type":"function"},{"inputs":[{"internalType":"uint256","name":"","type":"uint256"}],"name":"requestIdToTokenId","outputs":[{"internalType":"uint256","name":"","type":"uint256"}],"stateMutability":"view","type":"function"},{"inputs":[{"internalType":"address","name":"from","type":"address"},{"internalType":"address","name":"to","type":"address"},{"internalType":"uint256[]","name":"ids","type":"uint256[]"},{"internalType":"uint256[]","name":"amounts","type":"uint256[]"},{"internalType":"bytes","name":"data","type":"bytes"}],"name":"safeBatchTransferFrom","outputs":[],"stateMutability":"nonpayable","type":"function"},{"inputs":[{"internalType":"address","name":"from","type":"address"},{"internalType":"address","name":"to","type":"address"},{"internalType":"uint256","name":"id","type":"uint256"},{"internalType":"uint256","name":"amount","type":"uint256"},{"internalType":"bytes","name":"data","type":"bytes"}],"name":"safeTransferFrom","outputs":[],"stateMutability":"nonpayable","type":"function"},{"inputs":[{"internalType":"address","name":"operator","type":"address"},{"internalType":"bool","name":"approved","type":"bool"}],"name":"setApprovalForAll","outputs":[],"stateMutability":"nonpayable","type":"function"},{"inputs":[{"internalType":"string","name":"_baseURI","type":"string"}],"name":"setBaseURI","outputs":[],"stateMutability":"nonpayable","type":"function"},{"inputs":[{"internalType":"address","name":"_dexAddress","type":"address"}],"name":"setDex","outputs":[],"stateMutability":"nonpayable","type":"function"},{"inputs":[{"internalType":"string","name":"_format","type":"string"}],"name":"setFileFormat","outputs":[],"stateMutability":"nonpayable","type":"function"},{"inputs":[{"internalType":"uint256","name":"_tokenId","type":"uint256"},{"internalType":"string","name":"_tokenURI","type":"string"}],"name":"setTokenURI","outputs":[],"stateMutability":"nonpayable","type":"function"},{"inputs":[{"internalType":"bytes4","name":"interfaceId","type":"bytes4"}],"name":"supportsInterface","outputs":[{"internalType":"bool","name":"","type":"bool"}],"stateMutability":"view","type":"function"},{"inputs":[],"name":"tokenId","outputs":[{"internalType":"uint256","name":"","type":"uint256"}],"stateMutability":"view","type":"function"},{"inputs":[{"internalType":"uint256","name":"","type":"uint256"}],"name":"tokenIdToUpgradeSpecifications","outputs":[{"internalType":"uint256","name":"attributeIndex","type":"uint256"},{"internalType":"uint256","name":"valueToAdd","type":"uint256"},{"internalType":"uint256","name":"valueToAddMax","type":"uint256"},{"internalType":"address","name":"owner","type":"address"},{"internalType":"uint256","name":"price","type":"uint256"},{"internalType":"uint256","name":"newDesignId","type":"uint256"},{"internalType":"uint256","name":"upgradeDesignId","type":"uint256"}],"stateMutability":"view","type":"function"},{"inputs":[{"internalType":"address","name":"newOwner","type":"address"}],"name":"transferOwnership","outputs":[],"stateMutability":"nonpayable","type":"function"},{"inputs":[{"internalType":"uint32","name":"_callbackGasLimit","type":"uint32"},{"internalType":"uint64","name":"_subscriptionId","type":"uint64"},{"internalType":"bytes32","name":"_keyHash","type":"bytes32"}],"name":"updateChainlink","outputs":[],"stateMutability":"nonpayable","type":"function"},{"inputs":[{"internalType":"uint256","name":"_tokenId","type":"uint256"}],"name":"uri","outputs":[{"internalType":"string","name":"","type":"string"}],"stateMutability":"view","type":"function"}]}