{
  "_format": "hh-sol-artifact-1",
  "contractName": "SleepToken",
  "sourceName": "contracts/SleepToken.sol",
  "abi": [
    {
      "anonymous": false,
      "inputs": [
        {
          "indexed": true,
          "internalType": "address",
          "name": "owner",
          "type": "address"
        },
        {
          "indexed": true,
          "internalType": "address",
          "name": "spender",
          "type": "address"
        },
        {
          "indexed": false,
          "internalType": "uint256",
          "name": "value",
          "type": "uint256"
        }
      ],
      "name": "Approval",
      "type": "event"
    },
    {
      "anonymous": false,
      "inputs": [
        {
          "indexed": false,
          "internalType": "uint8",
          "name": "version",
          "type": "uint8"
        }
      ],
      "name": "Initialized",
      "type": "event"
    },
    {
      "anonymous": false,
      "inputs": [
        {
          "indexed": true,
          "internalType": "address",
          "name": "previousOwner",
          "type": "address"
        },
        {
          "indexed": true,
          "internalType": "address",
          "name": "newOwner",
          "type": "address"
        }
      ],
      "name": "OwnershipTransferred",
      "type": "event"
    },
    {
      "anonymous": false,
      "inputs": [
        {
          "indexed": false,
          "internalType": "address",
          "name": "account",
          "type": "address"
        }
      ],
      "name": "Paused",
      "type": "event"
    },
    {
      "anonymous": false,
      "inputs": [
        {
          "indexed": true,
          "internalType": "address",
          "name": "from",
          "type": "address"
        },
        {
          "indexed": true,
          "internalType": "address",
          "name": "to",
          "type": "address"
        },
        {
          "indexed": false,
          "internalType": "uint256",
          "name": "value",
          "type": "uint256"
        }
      ],
      "name": "Transfer",
      "type": "event"
    },
    {
      "anonymous": false,
      "inputs": [
        {
          "indexed": false,
          "internalType": "address",
          "name": "account",
          "type": "address"
        }
      ],
      "name": "Unpaused",
      "type": "event"
    },
    {
      "inputs": [
        {
          "internalType": "address",
          "name": "owner",
          "type": "address"
        },
        {
          "internalType": "address",
          "name": "spender",
          "type": "address"
        }
      ],
      "name": "allowance",
      "outputs": [
        {
          "internalType": "uint256",
          "name": "",
          "type": "uint256"
        }
      ],
      "stateMutability": "view",
      "type": "function"
    },
    {
      "inputs": [
        {
          "internalType": "address",
          "name": "spender",
          "type": "address"
        },
        {
          "internalType": "uint256",
          "name": "amount",
          "type": "uint256"
        }
      ],
      "name": "approve",
      "outputs": [
        {
          "internalType": "bool",
          "name": "",
          "type": "bool"
        }
      ],
      "stateMutability": "nonpayable",
      "type": "function"
    },
    {
      "inputs": [
        {
          "internalType": "address",
          "name": "account",
          "type": "address"
        }
      ],
      "name": "balanceOf",
      "outputs": [
        {
          "internalType": "uint256",
          "name": "",
          "type": "uint256"
        }
      ],
      "stateMutability": "view",
      "type": "function"
    },
    {
      "inputs": [
        {
          "internalType": "uint256",
          "name": "_amount",
          "type": "uint256"
        }
      ],
      "name": "burn",
      "outputs": [],
      "stateMutability": "nonpayable",
      "type": "function"
    },
    {
      "inputs": [
        {
          "internalType": "address",
          "name": "account",
          "type": "address"
        },
        {
          "internalType": "uint256",
          "name": "amount",
          "type": "uint256"
        }
      ],
      "name": "burnFrom",
      "outputs": [],
      "stateMutability": "nonpayable",
      "type": "function"
    },
    {
      "inputs": [],
      "name": "decimals",
      "outputs": [
        {
          "internalType": "uint8",
          "name": "",
          "type": "uint8"
        }
      ],
      "stateMutability": "view",
      "type": "function"
    },
    {
      "inputs": [
        {
          "internalType": "address",
          "name": "spender",
          "type": "address"
        },
        {
          "internalType": "uint256",
          "name": "subtractedValue",
          "type": "uint256"
        }
      ],
      "name": "decreaseAllowance",
      "outputs": [
        {
          "internalType": "bool",
          "name": "",
          "type": "bool"
        }
      ],
      "stateMutability": "nonpayable",
      "type": "function"
    },
    {
      "inputs": [
        {
          "internalType": "address",
          "name": "spender",
          "type": "address"
        },
        {
          "internalType": "uint256",
          "name": "addedValue",
          "type": "uint256"
        }
      ],
      "name": "increaseAllowance",
      "outputs": [
        {
          "internalType": "bool",
          "name": "",
          "type": "bool"
        }
      ],
      "stateMutability": "nonpayable",
      "type": "function"
    },
    {
      "inputs": [
        {
          "internalType": "uint256",
          "name": "_totalSupply",
          "type": "uint256"
        }
      ],
      "name": "initialize",
      "outputs": [],
      "stateMutability": "nonpayable",
      "type": "function"
    },
    {
      "inputs": [
        {
          "internalType": "address",
          "name": "_owner",
          "type": "address"
        },
        {
          "internalType": "uint256",
          "name": "_amount",
          "type": "uint256"
        }
      ],
      "name": "investNft",
      "outputs": [],
      "stateMutability": "nonpayable",
      "type": "function"
    },
    {
      "inputs": [
        {
          "internalType": "uint256",
          "name": "_amount",
          "type": "uint256"
        }
      ],
      "name": "mint",
      "outputs": [],
      "stateMutability": "nonpayable",
      "type": "function"
    },
    {
      "inputs": [],
      "name": "name",
      "outputs": [
        {
          "internalType": "string",
          "name": "",
          "type": "string"
        }
      ],
      "stateMutability": "view",
      "type": "function"
    },
    {
      "inputs": [],
      "name": "nftDexAddress",
      "outputs": [
        {
          "internalType": "address",
          "name": "",
          "type": "address"
        }
      ],
      "stateMutability": "view",
      "type": "function"
    },
    {
      "inputs": [],
      "name": "owner",
      "outputs": [
        {
          "internalType": "address",
          "name": "",
          "type": "address"
        }
      ],
      "stateMutability": "view",
      "type": "function"
    },
    {
      "inputs": [],
      "name": "pause",
      "outputs": [],
      "stateMutability": "nonpayable",
      "type": "function"
    },
    {
      "inputs": [],
      "name": "paused",
      "outputs": [
        {
          "internalType": "bool",
          "name": "",
          "type": "bool"
        }
      ],
      "stateMutability": "view",
      "type": "function"
    },
    {
      "inputs": [],
      "name": "renounceOwnership",
      "outputs": [],
      "stateMutability": "nonpayable",
      "type": "function"
    },
    {
      "inputs": [
        {
          "internalType": "address",
          "name": "_nftDexAddress",
          "type": "address"
        }
      ],
      "name": "setDex",
      "outputs": [],
      "stateMutability": "nonpayable",
      "type": "function"
    },
    {
      "inputs": [],
      "name": "symbol",
      "outputs": [
        {
          "internalType": "string",
          "name": "",
          "type": "string"
        }
      ],
      "stateMutability": "view",
      "type": "function"
    },
    {
      "inputs": [],
      "name": "totalSupply",
      "outputs": [
        {
          "internalType": "uint256",
          "name": "",
          "type": "uint256"
        }
      ],
      "stateMutability": "view",
      "type": "function"
    },
    {
      "inputs": [
        {
          "internalType": "address",
          "name": "to",
          "type": "address"
        },
        {
          "internalType": "uint256",
          "name": "amount",
          "type": "uint256"
        }
      ],
      "name": "transfer",
      "outputs": [
        {
          "internalType": "bool",
          "name": "",
          "type": "bool"
        }
      ],
      "stateMutability": "nonpayable",
      "type": "function"
    },
    {
      "inputs": [
        {
          "internalType": "address",
          "name": "from",
          "type": "address"
        },
        {
          "internalType": "address",
          "name": "to",
          "type": "address"
        },
        {
          "internalType": "uint256",
          "name": "amount",
          "type": "uint256"
        }
      ],
      "name": "transferFrom",
      "outputs": [
        {
          "internalType": "bool",
          "name": "",
          "type": "bool"
        }
      ],
      "stateMutability": "nonpayable",
      "type": "function"
    },
    {
      "inputs": [
        {
          "internalType": "address",
          "name": "newOwner",
          "type": "address"
        }
      ],
      "name": "transferOwnership",
      "outputs": [],
      "stateMutability": "nonpayable",
      "type": "function"
    },
    {
      "inputs": [],
      "name": "unpause",
      "outputs": [],
      "stateMutability": "nonpayable",
      "type": "function"
    }
  ],
  "bytecode": "0x608060405234801561001057600080fd5b50612f37806100206000396000f3fe608060405234801561001057600080fd5b50600436106101585760003560e01c8063715018a6116100c3578063a3f6b4141161007c578063a3f6b4141461037b578063a457c2d714610399578063a9059cbb146103c9578063dd62ed3e146103f9578063f2fde38b14610429578063fe4b84df1461044557610158565b8063715018a6146102f357806379cc6790146102fd5780638456cb59146103195780638da5cb5b1461032357806395d89b4114610341578063a0712d681461035f57610158565b8063395093511161011557806339509351146102335780633f4ba83a1461026357806342966c681461026d578063447fa8b7146102895780635c975abb146102a557806370a08231146102c357610158565b806306fdde031461015d578063095ea7b31461017b57806318160ddd146101ab5780631dd4fd2d146101c957806323b872dd146101e5578063313ce56714610215575b600080fd5b610165610461565b6040516101729190611ef5565b60405180910390f35b61019560048036038101906101909190611fb0565b6104f3565b6040516101a2919061200b565b60405180910390f35b6101b3610516565b6040516101c09190612035565b60405180910390f35b6101e360048036038101906101de9190611fb0565b610520565b005b6101ff60048036038101906101fa9190612050565b6106e4565b60405161020c919061200b565b60405180910390f35b61021d610713565b60405161022a91906120bf565b60405180910390f35b61024d60048036038101906102489190611fb0565b61071c565b60405161025a919061200b565b60405180910390f35b61026b610753565b005b610287600480360381019061028291906120da565b6107d9565b005b6102a3600480360381019061029e9190612107565b610862565b005b6102ad610922565b6040516102ba919061200b565b60405180910390f35b6102dd60048036038101906102d89190612107565b610939565b6040516102ea9190612035565b60405180910390f35b6102fb610982565b005b61031760048036038101906103129190611fb0565b610a0a565b005b610321610a2a565b005b61032b610ab0565b6040516103389190612143565b60405180910390f35b610349610ada565b6040516103569190611ef5565b60405180910390f35b610379600480360381019061037491906120da565b610b6c565b005b610383610bf5565b6040516103909190612143565b60405180910390f35b6103b360048036038101906103ae9190611fb0565b610c1b565b6040516103c0919061200b565b60405180910390f35b6103e360048036038101906103de9190611fb0565b610c92565b6040516103f0919061200b565b60405180910390f35b610413600480360381019061040e919061215e565b610cb5565b6040516104209190612035565b60405180910390f35b610443600480360381019061043e9190612107565b610d3c565b005b61045f600480360381019061045a91906120da565b610e33565b005b606060368054610470906121cd565b80601f016020809104026020016040519081016040528092919081815260200182805461049c906121cd565b80156104e95780601f106104be576101008083540402835291602001916104e9565b820191906000526020600020905b8154815290600101906020018083116104cc57829003601f168201915b5050505050905090565b6000806104fe610f74565b905061050b818585610f7c565b600191505092915050565b6000603554905090565b600073ffffffffffffffffffffffffffffffffffffffff1660fb60009054906101000a900473ffffffffffffffffffffffffffffffffffffffff1673ffffffffffffffffffffffffffffffffffffffff16036105b1576040517f08c379a00000000000000000000000000000000000000000000000000000000081526004016105a89061224a565b60405180910390fd5b60fb60009054906101000a900473ffffffffffffffffffffffffffffffffffffffff1673ffffffffffffffffffffffffffffffffffffffff163373ffffffffffffffffffffffffffffffffffffffff1614610641576040517f08c379a0000000000000000000000000000000000000000000000000000000008152600401610638906122b6565b60405180910390fd5b60008111610684576040517f08c379a000000000000000000000000000000000000000000000000000000000815260040161067b90612322565b60405180910390fd5b60006106908333610cb5565b9050818110156106d5576040517f08c379a00000000000000000000000000000000000000000000000000000000081526004016106cc9061238e565b60405180910390fd5b6106df8383611145565b505050565b6000806106ef610f74565b90506106fc85828561131d565b6107078585856113a9565b60019150509392505050565b60006012905090565b600080610727610f74565b90506107488185856107398589610cb5565b61074391906123dd565b610f7c565b600191505092915050565b61075b610f74565b73ffffffffffffffffffffffffffffffffffffffff16610779610ab0565b73ffffffffffffffffffffffffffffffffffffffff16146107cf576040517f08c379a00000000000000000000000000000000000000000000000000000000081526004016107c69061247f565b60405180910390fd5b6107d761162b565b565b6107e1610f74565b73ffffffffffffffffffffffffffffffffffffffff166107ff610ab0565b73ffffffffffffffffffffffffffffffffffffffff1614610855576040517f08c379a000000000000000000000000000000000000000000000000000000000815260040161084c9061247f565b60405180910390fd5b61085f3082611145565b50565b61086a610f74565b73ffffffffffffffffffffffffffffffffffffffff16610888610ab0565b73ffffffffffffffffffffffffffffffffffffffff16146108de576040517f08c379a00000000000000000000000000000000000000000000000000000000081526004016108d59061247f565b60405180910390fd5b8060fb60006101000a81548173ffffffffffffffffffffffffffffffffffffffff021916908373ffffffffffffffffffffffffffffffffffffffff16021790555050565b6000609760009054906101000a900460ff16905090565b6000603360008373ffffffffffffffffffffffffffffffffffffffff1673ffffffffffffffffffffffffffffffffffffffff168152602001908152602001600020549050919050565b61098a610f74565b73ffffffffffffffffffffffffffffffffffffffff166109a8610ab0565b73ffffffffffffffffffffffffffffffffffffffff16146109fe576040517f08c379a00000000000000000000000000000000000000000000000000000000081526004016109f59061247f565b60405180910390fd5b610a0860006116cd565b565b610a1c82610a16610f74565b8361131d565b610a268282611145565b5050565b610a32610f74565b73ffffffffffffffffffffffffffffffffffffffff16610a50610ab0565b73ffffffffffffffffffffffffffffffffffffffff1614610aa6576040517f08c379a0000000000000000000000000000000000000000000000000000000008152600401610a9d9061247f565b60405180910390fd5b610aae611793565b565b600060c960009054906101000a900473ffffffffffffffffffffffffffffffffffffffff16905090565b606060378054610ae9906121cd565b80601f0160208091040260200160405190810160405280929190818152602001828054610b15906121cd565b8015610b625780601f10610b3757610100808354040283529160200191610b62565b820191906000526020600020905b815481529060010190602001808311610b4557829003601f168201915b5050505050905090565b610b74610f74565b73ffffffffffffffffffffffffffffffffffffffff16610b92610ab0565b73ffffffffffffffffffffffffffffffffffffffff1614610be8576040517f08c379a0000000000000000000000000000000000000000000000000000000008152600401610bdf9061247f565b60405180910390fd5b610bf23082611836565b50565b60fb60009054906101000a900473ffffffffffffffffffffffffffffffffffffffff1681565b600080610c26610f74565b90506000610c348286610cb5565b905083811015610c79576040517f08c379a0000000000000000000000000000000000000000000000000000000008152600401610c7090612511565b60405180910390fd5b610c868286868403610f7c565b60019250505092915050565b600080610c9d610f74565b9050610caa8185856113a9565b600191505092915050565b6000603460008473ffffffffffffffffffffffffffffffffffffffff1673ffffffffffffffffffffffffffffffffffffffff16815260200190815260200160002060008373ffffffffffffffffffffffffffffffffffffffff1673ffffffffffffffffffffffffffffffffffffffff16815260200190815260200160002054905092915050565b610d44610f74565b73ffffffffffffffffffffffffffffffffffffffff16610d62610ab0565b73ffffffffffffffffffffffffffffffffffffffff1614610db8576040517f08c379a0000000000000000000000000000000000000000000000000000000008152600401610daf9061247f565b60405180910390fd5b600073ffffffffffffffffffffffffffffffffffffffff168173ffffffffffffffffffffffffffffffffffffffff1603610e27576040517f08c379a0000000000000000000000000000000000000000000000000000000008152600401610e1e906125a3565b60405180910390fd5b610e30816116cd565b50565b6000610e3f6001611996565b90508015610e63576001600060016101000a81548160ff0219169083151502179055505b610ed76040518060400160405280600a81526020017f536c656570546f6b656e000000000000000000000000000000000000000000008152506040518060400160405280600381526020017f534c500000000000000000000000000000000000000000000000000000000000815250611a86565b610edf611ae3565b610ee7611b34565b610eef611b8d565b610f1730610efb610713565b600a610f0791906126f6565b84610f129190612741565b611836565b8015610f705760008060016101000a81548160ff0219169083151502179055507f7f26b83ff96e1f2b6a682f133852f6798a09c465da95921460cefb38474024986001604051610f6791906127e0565b60405180910390a15b5050565b600033905090565b600073ffffffffffffffffffffffffffffffffffffffff168373ffffffffffffffffffffffffffffffffffffffff1603610feb576040517f08c379a0000000000000000000000000000000000000000000000000000000008152600401610fe29061286d565b60405180910390fd5b600073ffffffffffffffffffffffffffffffffffffffff168273ffffffffffffffffffffffffffffffffffffffff160361105a576040517f08c379a0000000000000000000000000000000000000000000000000000000008152600401611051906128ff565b60405180910390fd5b80603460008573ffffffffffffffffffffffffffffffffffffffff1673ffffffffffffffffffffffffffffffffffffffff16815260200190815260200160002060008473ffffffffffffffffffffffffffffffffffffffff1673ffffffffffffffffffffffffffffffffffffffff168152602001908152602001600020819055508173ffffffffffffffffffffffffffffffffffffffff168373ffffffffffffffffffffffffffffffffffffffff167f8c5be1e5ebec7d5bd14f71427d1e84f3dd0314c0f7b2291e5b200ac8c7c3b925836040516111389190612035565b60405180910390a3505050565b600073ffffffffffffffffffffffffffffffffffffffff168273ffffffffffffffffffffffffffffffffffffffff16036111b4576040517f08c379a00000000000000000000000000000000000000000000000000000000081526004016111ab90612991565b60405180910390fd5b6111c082600083611be6565b6000603360008473ffffffffffffffffffffffffffffffffffffffff1673ffffffffffffffffffffffffffffffffffffffff16815260200190815260200160002054905081811015611247576040517f08c379a000000000000000000000000000000000000000000000000000000000815260040161123e90612a23565b60405180910390fd5b818103603360008573ffffffffffffffffffffffffffffffffffffffff1673ffffffffffffffffffffffffffffffffffffffff16815260200190815260200160002081905550816035600082825461129f9190612a43565b92505081905550600073ffffffffffffffffffffffffffffffffffffffff168373ffffffffffffffffffffffffffffffffffffffff167fddf252ad1be2c89b69c2b068fc378daa952ba7f163c4a11628f55a4df523b3ef846040516113049190612035565b60405180910390a361131883600084611c3e565b505050565b60006113298484610cb5565b90507fffffffffffffffffffffffffffffffffffffffffffffffffffffffffffffffff81146113a35781811015611395576040517f08c379a000000000000000000000000000000000000000000000000000000000815260040161138c90612ac3565b60405180910390fd5b6113a28484848403610f7c565b5b50505050565b600073ffffffffffffffffffffffffffffffffffffffff168373ffffffffffffffffffffffffffffffffffffffff1603611418576040517f08c379a000000000000000000000000000000000000000000000000000000000815260040161140f90612b55565b60405180910390fd5b600073ffffffffffffffffffffffffffffffffffffffff168273ffffffffffffffffffffffffffffffffffffffff1603611487576040517f08c379a000000000000000000000000000000000000000000000000000000000815260040161147e90612be7565b60405180910390fd5b611492838383611be6565b6000603360008573ffffffffffffffffffffffffffffffffffffffff1673ffffffffffffffffffffffffffffffffffffffff16815260200190815260200160002054905081811015611519576040517f08c379a000000000000000000000000000000000000000000000000000000000815260040161151090612c79565b60405180910390fd5b818103603360008673ffffffffffffffffffffffffffffffffffffffff1673ffffffffffffffffffffffffffffffffffffffff1681526020019081526020016000208190555081603360008573ffffffffffffffffffffffffffffffffffffffff1673ffffffffffffffffffffffffffffffffffffffff16815260200190815260200160002060008282546115ae91906123dd565b925050819055508273ffffffffffffffffffffffffffffffffffffffff168473ffffffffffffffffffffffffffffffffffffffff167fddf252ad1be2c89b69c2b068fc378daa952ba7f163c4a11628f55a4df523b3ef846040516116129190612035565b60405180910390a3611625848484611c3e565b50505050565b611633610922565b611672576040517f08c379a000000000000000000000000000000000000000000000000000000000815260040161166990612ce5565b60405180910390fd5b6000609760006101000a81548160ff0219169083151502179055507f5db9ee0a495bf2e6ff9c91a7834c1ba4fdd244a5e8aa4e537bd38aeae4b073aa6116b6610f74565b6040516116c39190612143565b60405180910390a1565b600060c960009054906101000a900473ffffffffffffffffffffffffffffffffffffffff1690508160c960006101000a81548173ffffffffffffffffffffffffffffffffffffffff021916908373ffffffffffffffffffffffffffffffffffffffff1602179055508173ffffffffffffffffffffffffffffffffffffffff168173ffffffffffffffffffffffffffffffffffffffff167f8be0079c531659141344cd1fd0a4f28419497f9722a3daafe3b4186f6b6457e060405160405180910390a35050565b61179b610922565b156117db576040517f08c379a00000000000000000000000000000000000000000000000000000000081526004016117d290612d51565b60405180910390fd5b6001609760006101000a81548160ff0219169083151502179055507f62e78cea01bee320cd4e420270b5ea74000d11b0c9f74754ebdbfc544b05a25861181f610f74565b60405161182c9190612143565b60405180910390a1565b600073ffffffffffffffffffffffffffffffffffffffff168273ffffffffffffffffffffffffffffffffffffffff16036118a5576040517f08c379a000000000000000000000000000000000000000000000000000000000815260040161189c90612dbd565b60405180910390fd5b6118b160008383611be6565b80603560008282546118c391906123dd565b9250508190555080603360008473ffffffffffffffffffffffffffffffffffffffff1673ffffffffffffffffffffffffffffffffffffffff168152602001908152602001600020600082825461191991906123dd565b925050819055508173ffffffffffffffffffffffffffffffffffffffff16600073ffffffffffffffffffffffffffffffffffffffff167fddf252ad1be2c89b69c2b068fc378daa952ba7f163c4a11628f55a4df523b3ef8360405161197e9190612035565b60405180910390a361199260008383611c3e565b5050565b60008060019054906101000a900460ff1615611a0d5760018260ff161480156119c557506119c330611c43565b155b611a04576040517f08c379a00000000000000000000000000000000000000000000000000000000081526004016119fb90612e4f565b60405180910390fd5b60009050611a81565b8160ff1660008054906101000a900460ff1660ff1610611a62576040517f08c379a0000000000000000000000000000000000000000000000000000000008152600401611a5990612e4f565b60405180910390fd5b816000806101000a81548160ff021916908360ff160217905550600190505b919050565b600060019054906101000a900460ff16611ad5576040517f08c379a0000000000000000000000000000000000000000000000000000000008152600401611acc90612ee1565b60405180910390fd5b611adf8282611c66565b5050565b600060019054906101000a900460ff16611b32576040517f08c379a0000000000000000000000000000000000000000000000000000000008152600401611b2990612ee1565b60405180910390fd5b565b600060019054906101000a900460ff16611b83576040517f08c379a0000000000000000000000000000000000000000000000000000000008152600401611b7a90612ee1565b60405180910390fd5b611b8b611ce7565b565b600060019054906101000a900460ff16611bdc576040517f08c379a0000000000000000000000000000000000000000000000000000000008152600401611bd390612ee1565b60405180910390fd5b611be4611d53565b565b611bee610922565b15611c2e576040517f08c379a0000000000000000000000000000000000000000000000000000000008152600401611c2590612d51565b60405180910390fd5b611c39838383611db4565b505050565b505050565b6000808273ffffffffffffffffffffffffffffffffffffffff163b119050919050565b600060019054906101000a900460ff16611cb5576040517f08c379a0000000000000000000000000000000000000000000000000000000008152600401611cac90612ee1565b60405180910390fd5b8160369080519060200190611ccb929190611db9565b508060379080519060200190611ce2929190611db9565b505050565b600060019054906101000a900460ff16611d36576040517f08c379a0000000000000000000000000000000000000000000000000000000008152600401611d2d90612ee1565b60405180910390fd5b6000609760006101000a81548160ff021916908315150217905550565b600060019054906101000a900460ff16611da2576040517f08c379a0000000000000000000000000000000000000000000000000000000008152600401611d9990612ee1565b60405180910390fd5b611db2611dad610f74565b6116cd565b565b505050565b828054611dc5906121cd565b90600052602060002090601f016020900481019282611de75760008555611e2e565b82601f10611e0057805160ff1916838001178555611e2e565b82800160010185558215611e2e579182015b82811115611e2d578251825591602001919060010190611e12565b5b509050611e3b9190611e3f565b5090565b5b80821115611e58576000816000905550600101611e40565b5090565b600081519050919050565b600082825260208201905092915050565b60005b83811015611e96578082015181840152602081019050611e7b565b83811115611ea5576000848401525b50505050565b6000601f19601f8301169050919050565b6000611ec782611e5c565b611ed18185611e67565b9350611ee1818560208601611e78565b611eea81611eab565b840191505092915050565b60006020820190508181036000830152611f0f8184611ebc565b905092915050565b600080fd5b600073ffffffffffffffffffffffffffffffffffffffff82169050919050565b6000611f4782611f1c565b9050919050565b611f5781611f3c565b8114611f6257600080fd5b50565b600081359050611f7481611f4e565b92915050565b6000819050919050565b611f8d81611f7a565b8114611f9857600080fd5b50565b600081359050611faa81611f84565b92915050565b60008060408385031215611fc757611fc6611f17565b5b6000611fd585828601611f65565b9250506020611fe685828601611f9b565b9150509250929050565b60008115159050919050565b61200581611ff0565b82525050565b60006020820190506120206000830184611ffc565b92915050565b61202f81611f7a565b82525050565b600060208201905061204a6000830184612026565b92915050565b60008060006060848603121561206957612068611f17565b5b600061207786828701611f65565b935050602061208886828701611f65565b925050604061209986828701611f9b565b9150509250925092565b600060ff82169050919050565b6120b9816120a3565b82525050565b60006020820190506120d460008301846120b0565b92915050565b6000602082840312156120f0576120ef611f17565b5b60006120fe84828501611f9b565b91505092915050565b60006020828403121561211d5761211c611f17565b5b600061212b84828501611f65565b91505092915050565b61213d81611f3c565b82525050565b60006020820190506121586000830184612134565b92915050565b6000806040838503121561217557612174611f17565b5b600061218385828601611f65565b925050602061219485828601611f65565b9150509250929050565b7f4e487b7100000000000000000000000000000000000000000000000000000000600052602260045260246000fd5b600060028204905060018216806121e557607f821691505b6020821081036121f8576121f761219e565b5b50919050565b7f4465782061646472657373206973206e6f7420636f6e66696775726564000000600082015250565b6000612234601d83611e67565b915061223f826121fe565b602082019050919050565b6000602082019050818103600083015261226381612227565b9050919050565b7f41636365737320666f7262696464656e00000000000000000000000000000000600082015250565b60006122a0601083611e67565b91506122ab8261226a565b602082019050919050565b600060208201905081810360008301526122cf81612293565b9050919050565b7f496e636f727265637420616d6f756e7400000000000000000000000000000000600082015250565b600061230c601083611e67565b9150612317826122d6565b602082019050919050565b6000602082019050818103600083015261233b816122ff565b9050919050565b7f436865636b2074686520746f6b656e20616c6c6f77616e636500000000000000600082015250565b6000612378601983611e67565b915061238382612342565b602082019050919050565b600060208201905081810360008301526123a78161236b565b9050919050565b7f4e487b7100000000000000000000000000000000000000000000000000000000600052601160045260246000fd5b60006123e882611f7a565b91506123f383611f7a565b9250827fffffffffffffffffffffffffffffffffffffffffffffffffffffffffffffffff03821115612428576124276123ae565b5b828201905092915050565b7f4f776e61626c653a2063616c6c6572206973206e6f7420746865206f776e6572600082015250565b6000612469602083611e67565b915061247482612433565b602082019050919050565b600060208201905081810360008301526124988161245c565b9050919050565b7f45524332303a2064656372656173656420616c6c6f77616e63652062656c6f7760008201527f207a65726f000000000000000000000000000000000000000000000000000000602082015250565b60006124fb602583611e67565b91506125068261249f565b604082019050919050565b6000602082019050818103600083015261252a816124ee565b9050919050565b7f4f776e61626c653a206e6577206f776e657220697320746865207a65726f206160008201527f6464726573730000000000000000000000000000000000000000000000000000602082015250565b600061258d602683611e67565b915061259882612531565b604082019050919050565b600060208201905081810360008301526125bc81612580565b9050919050565b60008160011c9050919050565b6000808291508390505b600185111561261a578086048111156125f6576125f56123ae565b5b60018516156126055780820291505b8081029050612613856125c3565b94506125da565b94509492505050565b60008261263357600190506126ef565b8161264157600090506126ef565b8160018114612657576002811461266157612690565b60019150506126ef565b60ff841115612673576126726123ae565b5b8360020a91508482111561268a576126896123ae565b5b506126ef565b5060208310610133831016604e8410600b84101617156126c55782820a9050838111156126c0576126bf6123ae565b5b6126ef565b6126d284848460016125d0565b925090508184048111156126e9576126e86123ae565b5b81810290505b9392505050565b600061270182611f7a565b915061270c836120a3565b92506127397fffffffffffffffffffffffffffffffffffffffffffffffffffffffffffffffff8484612623565b905092915050565b600061274c82611f7a565b915061275783611f7a565b9250817fffffffffffffffffffffffffffffffffffffffffffffffffffffffffffffffff04831182151516156127905761278f6123ae565b5b828202905092915050565b6000819050919050565b6000819050919050565b60006127ca6127c56127c08461279b565b6127a5565b6120a3565b9050919050565b6127da816127af565b82525050565b60006020820190506127f560008301846127d1565b92915050565b7f45524332303a20617070726f76652066726f6d20746865207a65726f2061646460008201527f7265737300000000000000000000000000000000000000000000000000000000602082015250565b6000612857602483611e67565b9150612862826127fb565b604082019050919050565b600060208201905081810360008301526128868161284a565b9050919050565b7f45524332303a20617070726f766520746f20746865207a65726f20616464726560008201527f7373000000000000000000000000000000000000000000000000000000000000602082015250565b60006128e9602283611e67565b91506128f48261288d565b604082019050919050565b60006020820190508181036000830152612918816128dc565b9050919050565b7f45524332303a206275726e2066726f6d20746865207a65726f2061646472657360008201527f7300000000000000000000000000000000000000000000000000000000000000602082015250565b600061297b602183611e67565b91506129868261291f565b604082019050919050565b600060208201905081810360008301526129aa8161296e565b9050919050565b7f45524332303a206275726e20616d6f756e7420657863656564732062616c616e60008201527f6365000000000000000000000000000000000000000000000000000000000000602082015250565b6000612a0d602283611e67565b9150612a18826129b1565b604082019050919050565b60006020820190508181036000830152612a3c81612a00565b9050919050565b6000612a4e82611f7a565b9150612a5983611f7a565b925082821015612a6c57612a6b6123ae565b5b828203905092915050565b7f45524332303a20696e73756666696369656e7420616c6c6f77616e6365000000600082015250565b6000612aad601d83611e67565b9150612ab882612a77565b602082019050919050565b60006020820190508181036000830152612adc81612aa0565b9050919050565b7f45524332303a207472616e736665722066726f6d20746865207a65726f20616460008201527f6472657373000000000000000000000000000000000000000000000000000000602082015250565b6000612b3f602583611e67565b9150612b4a82612ae3565b604082019050919050565b60006020820190508181036000830152612b6e81612b32565b9050919050565b7f45524332303a207472616e7366657220746f20746865207a65726f206164647260008201527f6573730000000000000000000000000000000000000000000000000000000000602082015250565b6000612bd1602383611e67565b9150612bdc82612b75565b604082019050919050565b60006020820190508181036000830152612c0081612bc4565b9050919050565b7f45524332303a207472616e7366657220616d6f756e742065786365656473206260008201527f616c616e63650000000000000000000000000000000000000000000000000000602082015250565b6000612c63602683611e67565b9150612c6e82612c07565b604082019050919050565b60006020820190508181036000830152612c9281612c56565b9050919050565b7f5061757361626c653a206e6f7420706175736564000000000000000000000000600082015250565b6000612ccf601483611e67565b9150612cda82612c99565b602082019050919050565b60006020820190508181036000830152612cfe81612cc2565b9050919050565b7f5061757361626c653a2070617573656400000000000000000000000000000000600082015250565b6000612d3b601083611e67565b9150612d4682612d05565b602082019050919050565b60006020820190508181036000830152612d6a81612d2e565b9050919050565b7f45524332303a206d696e7420746f20746865207a65726f206164647265737300600082015250565b6000612da7601f83611e67565b9150612db282612d71565b602082019050919050565b60006020820190508181036000830152612dd681612d9a565b9050919050565b7f496e697469616c697a61626c653a20636f6e747261637420697320616c72656160008201527f647920696e697469616c697a6564000000000000000000000000000000000000602082015250565b6000612e39602e83611e67565b9150612e4482612ddd565b604082019050919050565b60006020820190508181036000830152612e6881612e2c565b9050919050565b7f496e697469616c697a61626c653a20636f6e7472616374206973206e6f74206960008201527f6e697469616c697a696e67000000000000000000000000000000000000000000602082015250565b6000612ecb602b83611e67565b9150612ed682612e6f565b604082019050919050565b60006020820190508181036000830152612efa81612ebe565b905091905056fea26469706673582212203d493ec149df4af17b007e5bb6da19c5a57b5f5cb17bd2de75aec4de4cd1330364736f6c634300080d0033",
  "linkReferences": {},
  "deployedLinkReferences": {}
}