{
  "_format": "hh-sol-artifact-1",
  "contractName": "SleepToken",
  "sourceName": "contracts/SleepToken.sol",
  "abi": [
    {
      "anonymous": false,
      "inputs": [
        {
          "indexed": true,
          "internalType": "address",
          "name": "owner",
          "type": "address"
        },
        {
          "indexed": true,
          "internalType": "address",
          "name": "spender",
          "type": "address"
        },
        {
          "indexed": false,
          "internalType": "uint256",
          "name": "value",
          "type": "uint256"
        }
      ],
      "name": "Approval",
      "type": "event"
    },
    {
      "anonymous": false,
      "inputs": [
        {
          "indexed": false,
          "internalType": "uint8",
          "name": "version",
          "type": "uint8"
        }
      ],
      "name": "Initialized",
      "type": "event"
    },
    {
      "anonymous": false,
      "inputs": [
        {
          "indexed": true,
          "internalType": "address",
          "name": "previousOwner",
          "type": "address"
        },
        {
          "indexed": true,
          "internalType": "address",
          "name": "newOwner",
          "type": "address"
        }
      ],
      "name": "OwnershipTransferred",
      "type": "event"
    },
    {
      "anonymous": false,
      "inputs": [
        {
          "indexed": false,
          "internalType": "address",
          "name": "account",
          "type": "address"
        }
      ],
      "name": "Paused",
      "type": "event"
    },
    {
      "anonymous": false,
      "inputs": [
        {
          "indexed": true,
          "internalType": "address",
          "name": "from",
          "type": "address"
        },
        {
          "indexed": true,
          "internalType": "address",
          "name": "to",
          "type": "address"
        },
        {
          "indexed": false,
          "internalType": "uint256",
          "name": "value",
          "type": "uint256"
        }
      ],
      "name": "Transfer",
      "type": "event"
    },
    {
      "anonymous": false,
      "inputs": [
        {
          "indexed": false,
          "internalType": "address",
          "name": "account",
          "type": "address"
        }
      ],
      "name": "Unpaused",
      "type": "event"
    },
    {
      "inputs": [
        {
          "internalType": "address",
          "name": "owner",
          "type": "address"
        },
        {
          "internalType": "address",
          "name": "spender",
          "type": "address"
        }
      ],
      "name": "allowance",
      "outputs": [
        {
          "internalType": "uint256",
          "name": "",
          "type": "uint256"
        }
      ],
      "stateMutability": "view",
      "type": "function"
    },
    {
      "inputs": [
        {
          "internalType": "address",
          "name": "spender",
          "type": "address"
        },
        {
          "internalType": "uint256",
          "name": "amount",
          "type": "uint256"
        }
      ],
      "name": "approve",
      "outputs": [
        {
          "internalType": "bool",
          "name": "",
          "type": "bool"
        }
      ],
      "stateMutability": "nonpayable",
      "type": "function"
    },
    {
      "inputs": [
        {
          "internalType": "address",
          "name": "account",
          "type": "address"
        }
      ],
      "name": "balanceOf",
      "outputs": [
        {
          "internalType": "uint256",
          "name": "",
          "type": "uint256"
        }
      ],
      "stateMutability": "view",
      "type": "function"
    },
    {
      "inputs": [
        {
          "internalType": "uint256",
          "name": "amount",
          "type": "uint256"
        }
      ],
      "name": "burn",
      "outputs": [],
      "stateMutability": "nonpayable",
      "type": "function"
    },
    {
      "inputs": [
        {
          "internalType": "address",
          "name": "account",
          "type": "address"
        },
        {
          "internalType": "uint256",
          "name": "amount",
          "type": "uint256"
        }
      ],
      "name": "burnFrom",
      "outputs": [],
      "stateMutability": "nonpayable",
      "type": "function"
    },
    {
      "inputs": [
        {
          "internalType": "uint256",
          "name": "_amount",
          "type": "uint256"
        }
      ],
      "name": "burnTokens",
      "outputs": [],
      "stateMutability": "nonpayable",
      "type": "function"
    },
    {
      "inputs": [],
      "name": "decimals",
      "outputs": [
        {
          "internalType": "uint8",
          "name": "",
          "type": "uint8"
        }
      ],
      "stateMutability": "view",
      "type": "function"
    },
    {
      "inputs": [
        {
          "internalType": "address",
          "name": "spender",
          "type": "address"
        },
        {
          "internalType": "uint256",
          "name": "subtractedValue",
          "type": "uint256"
        }
      ],
      "name": "decreaseAllowance",
      "outputs": [
        {
          "internalType": "bool",
          "name": "",
          "type": "bool"
        }
      ],
      "stateMutability": "nonpayable",
      "type": "function"
    },
    {
      "inputs": [
        {
          "internalType": "address",
          "name": "spender",
          "type": "address"
        },
        {
          "internalType": "uint256",
          "name": "addedValue",
          "type": "uint256"
        }
      ],
      "name": "increaseAllowance",
      "outputs": [
        {
          "internalType": "bool",
          "name": "",
          "type": "bool"
        }
      ],
      "stateMutability": "nonpayable",
      "type": "function"
    },
    {
      "inputs": [
        {
          "internalType": "uint256",
          "name": "_totalSupply",
          "type": "uint256"
        }
      ],
      "name": "initialize",
      "outputs": [],
      "stateMutability": "nonpayable",
      "type": "function"
    },
    {
      "inputs": [
        {
          "internalType": "uint256",
          "name": "_amount",
          "type": "uint256"
        }
      ],
      "name": "mintTokens",
      "outputs": [],
      "stateMutability": "nonpayable",
      "type": "function"
    },
    {
      "inputs": [],
      "name": "name",
      "outputs": [
        {
          "internalType": "string",
          "name": "",
          "type": "string"
        }
      ],
      "stateMutability": "view",
      "type": "function"
    },
    {
      "inputs": [],
      "name": "owner",
      "outputs": [
        {
          "internalType": "address",
          "name": "",
          "type": "address"
        }
      ],
      "stateMutability": "view",
      "type": "function"
    },
    {
      "inputs": [],
      "name": "pause",
      "outputs": [],
      "stateMutability": "nonpayable",
      "type": "function"
    },
    {
      "inputs": [],
      "name": "paused",
      "outputs": [
        {
          "internalType": "bool",
          "name": "",
          "type": "bool"
        }
      ],
      "stateMutability": "view",
      "type": "function"
    },
    {
      "inputs": [],
      "name": "renounceOwnership",
      "outputs": [],
      "stateMutability": "nonpayable",
      "type": "function"
    },
    {
      "inputs": [],
      "name": "symbol",
      "outputs": [
        {
          "internalType": "string",
          "name": "",
          "type": "string"
        }
      ],
      "stateMutability": "view",
      "type": "function"
    },
    {
      "inputs": [],
      "name": "totalSupply",
      "outputs": [
        {
          "internalType": "uint256",
          "name": "",
          "type": "uint256"
        }
      ],
      "stateMutability": "view",
      "type": "function"
    },
    {
      "inputs": [
        {
          "internalType": "address",
          "name": "to",
          "type": "address"
        },
        {
          "internalType": "uint256",
          "name": "amount",
          "type": "uint256"
        }
      ],
      "name": "transfer",
      "outputs": [
        {
          "internalType": "bool",
          "name": "",
          "type": "bool"
        }
      ],
      "stateMutability": "nonpayable",
      "type": "function"
    },
    {
      "inputs": [
        {
          "internalType": "address",
          "name": "from",
          "type": "address"
        },
        {
          "internalType": "address",
          "name": "to",
          "type": "address"
        },
        {
          "internalType": "uint256",
          "name": "amount",
          "type": "uint256"
        }
      ],
      "name": "transferFrom",
      "outputs": [
        {
          "internalType": "bool",
          "name": "",
          "type": "bool"
        }
      ],
      "stateMutability": "nonpayable",
      "type": "function"
    },
    {
      "inputs": [
        {
          "internalType": "address",
          "name": "newOwner",
          "type": "address"
        }
      ],
      "name": "transferOwnership",
      "outputs": [],
      "stateMutability": "nonpayable",
      "type": "function"
    },
    {
      "inputs": [],
      "name": "unpause",
      "outputs": [],
      "stateMutability": "nonpayable",
      "type": "function"
    }
  ],
  "bytecode": "0x608060405234801561001057600080fd5b50612aa1806100206000396000f3fe608060405234801561001057600080fd5b50600436106101425760003560e01c8063715018a6116100b857806397304ced1161007c57806397304ced1461032d578063a457c2d714610349578063a9059cbb14610379578063dd62ed3e146103a9578063f2fde38b146103d9578063fe4b84df146103f557610142565b8063715018a6146102c157806379cc6790146102cb5780638456cb59146102e75780638da5cb5b146102f157806395d89b411461030f57610142565b8063395093511161010a57806339509351146102015780633f4ba83a1461023157806342966c681461023b5780635c975abb146102575780636d1b229d1461027557806370a082311461029157610142565b806306fdde0314610147578063095ea7b31461016557806318160ddd1461019557806323b872dd146101b3578063313ce567146101e3575b600080fd5b61014f610411565b60405161015c9190611c0f565b60405180910390f35b61017f600480360381019061017a9190611cca565b6104a3565b60405161018c9190611d25565b60405180910390f35b61019d6104c6565b6040516101aa9190611d4f565b60405180910390f35b6101cd60048036038101906101c89190611d6a565b6104d0565b6040516101da9190611d25565b60405180910390f35b6101eb6104ff565b6040516101f89190611dd9565b60405180910390f35b61021b60048036038101906102169190611cca565b610508565b6040516102289190611d25565b60405180910390f35b61023961053f565b005b61025560048036038101906102509190611df4565b6105c5565b005b61025f6105d9565b60405161026c9190611d25565b60405180910390f35b61028f600480360381019061028a9190611df4565b6105f0565b005b6102ab60048036038101906102a69190611e21565b610679565b6040516102b89190611d4f565b60405180910390f35b6102c96106c2565b005b6102e560048036038101906102e09190611cca565b61074a565b005b6102ef61076a565b005b6102f96107f0565b6040516103069190611e5d565b60405180910390f35b61031761081a565b6040516103249190611c0f565b60405180910390f35b61034760048036038101906103429190611df4565b6108ac565b005b610363600480360381019061035e9190611cca565b610935565b6040516103709190611d25565b60405180910390f35b610393600480360381019061038e9190611cca565b6109ac565b6040516103a09190611d25565b60405180910390f35b6103c360048036038101906103be9190611e78565b6109cf565b6040516103d09190611d4f565b60405180910390f35b6103f360048036038101906103ee9190611e21565b610a56565b005b61040f600480360381019061040a9190611df4565b610b4d565b005b60606036805461042090611ee7565b80601f016020809104026020016040519081016040528092919081815260200182805461044c90611ee7565b80156104995780601f1061046e57610100808354040283529160200191610499565b820191906000526020600020905b81548152906001019060200180831161047c57829003601f168201915b5050505050905090565b6000806104ae610c8e565b90506104bb818585610c96565b600191505092915050565b6000603554905090565b6000806104db610c8e565b90506104e8858285610e5f565b6104f3858585610eeb565b60019150509392505050565b60006012905090565b600080610513610c8e565b905061053481858561052585896109cf565b61052f9190611f47565b610c96565b600191505092915050565b610547610c8e565b73ffffffffffffffffffffffffffffffffffffffff166105656107f0565b73ffffffffffffffffffffffffffffffffffffffff16146105bb576040517f08c379a00000000000000000000000000000000000000000000000000000000081526004016105b290611fe9565b60405180910390fd5b6105c361116d565b565b6105d66105d0610c8e565b8261120f565b50565b6000609760009054906101000a900460ff16905090565b6105f8610c8e565b73ffffffffffffffffffffffffffffffffffffffff166106166107f0565b73ffffffffffffffffffffffffffffffffffffffff161461066c576040517f08c379a000000000000000000000000000000000000000000000000000000000815260040161066390611fe9565b60405180910390fd5b610676308261120f565b50565b6000603360008373ffffffffffffffffffffffffffffffffffffffff1673ffffffffffffffffffffffffffffffffffffffff168152602001908152602001600020549050919050565b6106ca610c8e565b73ffffffffffffffffffffffffffffffffffffffff166106e86107f0565b73ffffffffffffffffffffffffffffffffffffffff161461073e576040517f08c379a000000000000000000000000000000000000000000000000000000000815260040161073590611fe9565b60405180910390fd5b61074860006113e7565b565b61075c82610756610c8e565b83610e5f565b610766828261120f565b5050565b610772610c8e565b73ffffffffffffffffffffffffffffffffffffffff166107906107f0565b73ffffffffffffffffffffffffffffffffffffffff16146107e6576040517f08c379a00000000000000000000000000000000000000000000000000000000081526004016107dd90611fe9565b60405180910390fd5b6107ee6114ad565b565b600060c960009054906101000a900473ffffffffffffffffffffffffffffffffffffffff16905090565b60606037805461082990611ee7565b80601f016020809104026020016040519081016040528092919081815260200182805461085590611ee7565b80156108a25780601f10610877576101008083540402835291602001916108a2565b820191906000526020600020905b81548152906001019060200180831161088557829003601f168201915b5050505050905090565b6108b4610c8e565b73ffffffffffffffffffffffffffffffffffffffff166108d26107f0565b73ffffffffffffffffffffffffffffffffffffffff1614610928576040517f08c379a000000000000000000000000000000000000000000000000000000000815260040161091f90611fe9565b60405180910390fd5b6109323082611550565b50565b600080610940610c8e565b9050600061094e82866109cf565b905083811015610993576040517f08c379a000000000000000000000000000000000000000000000000000000000815260040161098a9061207b565b60405180910390fd5b6109a08286868403610c96565b60019250505092915050565b6000806109b7610c8e565b90506109c4818585610eeb565b600191505092915050565b6000603460008473ffffffffffffffffffffffffffffffffffffffff1673ffffffffffffffffffffffffffffffffffffffff16815260200190815260200160002060008373ffffffffffffffffffffffffffffffffffffffff1673ffffffffffffffffffffffffffffffffffffffff16815260200190815260200160002054905092915050565b610a5e610c8e565b73ffffffffffffffffffffffffffffffffffffffff16610a7c6107f0565b73ffffffffffffffffffffffffffffffffffffffff1614610ad2576040517f08c379a0000000000000000000000000000000000000000000000000000000008152600401610ac990611fe9565b60405180910390fd5b600073ffffffffffffffffffffffffffffffffffffffff168173ffffffffffffffffffffffffffffffffffffffff1603610b41576040517f08c379a0000000000000000000000000000000000000000000000000000000008152600401610b389061210d565b60405180910390fd5b610b4a816113e7565b50565b6000610b5960016116b0565b90508015610b7d576001600060016101000a81548160ff0219169083151502179055505b610bf16040518060400160405280600b81526020017f536c65657020546f6b656e0000000000000000000000000000000000000000008152506040518060400160405280600681526020017f24534c45455000000000000000000000000000000000000000000000000000008152506117a0565b610bf96117fd565b610c0161184e565b610c096118a7565b610c3130610c156104ff565b600a610c219190612260565b84610c2c91906122ab565b611550565b8015610c8a5760008060016101000a81548160ff0219169083151502179055507f7f26b83ff96e1f2b6a682f133852f6798a09c465da95921460cefb38474024986001604051610c81919061234a565b60405180910390a15b5050565b600033905090565b600073ffffffffffffffffffffffffffffffffffffffff168373ffffffffffffffffffffffffffffffffffffffff1603610d05576040517f08c379a0000000000000000000000000000000000000000000000000000000008152600401610cfc906123d7565b60405180910390fd5b600073ffffffffffffffffffffffffffffffffffffffff168273ffffffffffffffffffffffffffffffffffffffff1603610d74576040517f08c379a0000000000000000000000000000000000000000000000000000000008152600401610d6b90612469565b60405180910390fd5b80603460008573ffffffffffffffffffffffffffffffffffffffff1673ffffffffffffffffffffffffffffffffffffffff16815260200190815260200160002060008473ffffffffffffffffffffffffffffffffffffffff1673ffffffffffffffffffffffffffffffffffffffff168152602001908152602001600020819055508173ffffffffffffffffffffffffffffffffffffffff168373ffffffffffffffffffffffffffffffffffffffff167f8c5be1e5ebec7d5bd14f71427d1e84f3dd0314c0f7b2291e5b200ac8c7c3b92583604051610e529190611d4f565b60405180910390a3505050565b6000610e6b84846109cf565b90507fffffffffffffffffffffffffffffffffffffffffffffffffffffffffffffffff8114610ee55781811015610ed7576040517f08c379a0000000000000000000000000000000000000000000000000000000008152600401610ece906124d5565b60405180910390fd5b610ee48484848403610c96565b5b50505050565b600073ffffffffffffffffffffffffffffffffffffffff168373ffffffffffffffffffffffffffffffffffffffff1603610f5a576040517f08c379a0000000000000000000000000000000000000000000000000000000008152600401610f5190612567565b60405180910390fd5b600073ffffffffffffffffffffffffffffffffffffffff168273ffffffffffffffffffffffffffffffffffffffff1603610fc9576040517f08c379a0000000000000000000000000000000000000000000000000000000008152600401610fc0906125f9565b60405180910390fd5b610fd4838383611900565b6000603360008573ffffffffffffffffffffffffffffffffffffffff1673ffffffffffffffffffffffffffffffffffffffff1681526020019081526020016000205490508181101561105b576040517f08c379a00000000000000000000000000000000000000000000000000000000081526004016110529061268b565b60405180910390fd5b818103603360008673ffffffffffffffffffffffffffffffffffffffff1673ffffffffffffffffffffffffffffffffffffffff1681526020019081526020016000208190555081603360008573ffffffffffffffffffffffffffffffffffffffff1673ffffffffffffffffffffffffffffffffffffffff16815260200190815260200160002060008282546110f09190611f47565b925050819055508273ffffffffffffffffffffffffffffffffffffffff168473ffffffffffffffffffffffffffffffffffffffff167fddf252ad1be2c89b69c2b068fc378daa952ba7f163c4a11628f55a4df523b3ef846040516111549190611d4f565b60405180910390a3611167848484611958565b50505050565b6111756105d9565b6111b4576040517f08c379a00000000000000000000000000000000000000000000000000000000081526004016111ab906126f7565b60405180910390fd5b6000609760006101000a81548160ff0219169083151502179055507f5db9ee0a495bf2e6ff9c91a7834c1ba4fdd244a5e8aa4e537bd38aeae4b073aa6111f8610c8e565b6040516112059190611e5d565b60405180910390a1565b600073ffffffffffffffffffffffffffffffffffffffff168273ffffffffffffffffffffffffffffffffffffffff160361127e576040517f08c379a000000000000000000000000000000000000000000000000000000000815260040161127590612789565b60405180910390fd5b61128a82600083611900565b6000603360008473ffffffffffffffffffffffffffffffffffffffff1673ffffffffffffffffffffffffffffffffffffffff16815260200190815260200160002054905081811015611311576040517f08c379a00000000000000000000000000000000000000000000000000000000081526004016113089061281b565b60405180910390fd5b818103603360008573ffffffffffffffffffffffffffffffffffffffff1673ffffffffffffffffffffffffffffffffffffffff168152602001908152602001600020819055508160356000828254611369919061283b565b92505081905550600073ffffffffffffffffffffffffffffffffffffffff168373ffffffffffffffffffffffffffffffffffffffff167fddf252ad1be2c89b69c2b068fc378daa952ba7f163c4a11628f55a4df523b3ef846040516113ce9190611d4f565b60405180910390a36113e283600084611958565b505050565b600060c960009054906101000a900473ffffffffffffffffffffffffffffffffffffffff1690508160c960006101000a81548173ffffffffffffffffffffffffffffffffffffffff021916908373ffffffffffffffffffffffffffffffffffffffff1602179055508173ffffffffffffffffffffffffffffffffffffffff168173ffffffffffffffffffffffffffffffffffffffff167f8be0079c531659141344cd1fd0a4f28419497f9722a3daafe3b4186f6b6457e060405160405180910390a35050565b6114b56105d9565b156114f5576040517f08c379a00000000000000000000000000000000000000000000000000000000081526004016114ec906128bb565b60405180910390fd5b6001609760006101000a81548160ff0219169083151502179055507f62e78cea01bee320cd4e420270b5ea74000d11b0c9f74754ebdbfc544b05a258611539610c8e565b6040516115469190611e5d565b60405180910390a1565b600073ffffffffffffffffffffffffffffffffffffffff168273ffffffffffffffffffffffffffffffffffffffff16036115bf576040517f08c379a00000000000000000000000000000000000000000000000000000000081526004016115b690612927565b60405180910390fd5b6115cb60008383611900565b80603560008282546115dd9190611f47565b9250508190555080603360008473ffffffffffffffffffffffffffffffffffffffff1673ffffffffffffffffffffffffffffffffffffffff16815260200190815260200160002060008282546116339190611f47565b925050819055508173ffffffffffffffffffffffffffffffffffffffff16600073ffffffffffffffffffffffffffffffffffffffff167fddf252ad1be2c89b69c2b068fc378daa952ba7f163c4a11628f55a4df523b3ef836040516116989190611d4f565b60405180910390a36116ac60008383611958565b5050565b60008060019054906101000a900460ff16156117275760018260ff161480156116df57506116dd3061195d565b155b61171e576040517f08c379a0000000000000000000000000000000000000000000000000000000008152600401611715906129b9565b60405180910390fd5b6000905061179b565b8160ff1660008054906101000a900460ff1660ff161061177c576040517f08c379a0000000000000000000000000000000000000000000000000000000008152600401611773906129b9565b60405180910390fd5b816000806101000a81548160ff021916908360ff160217905550600190505b919050565b600060019054906101000a900460ff166117ef576040517f08c379a00000000000000000000000000000000000000000000000000000000081526004016117e690612a4b565b60405180910390fd5b6117f98282611980565b5050565b600060019054906101000a900460ff1661184c576040517f08c379a000000000000000000000000000000000000000000000000000000000815260040161184390612a4b565b60405180910390fd5b565b600060019054906101000a900460ff1661189d576040517f08c379a000000000000000000000000000000000000000000000000000000000815260040161189490612a4b565b60405180910390fd5b6118a5611a01565b565b600060019054906101000a900460ff166118f6576040517f08c379a00000000000000000000000000000000000000000000000000000000081526004016118ed90612a4b565b60405180910390fd5b6118fe611a6d565b565b6119086105d9565b15611948576040517f08c379a000000000000000000000000000000000000000000000000000000000815260040161193f906128bb565b60405180910390fd5b611953838383611ace565b505050565b505050565b6000808273ffffffffffffffffffffffffffffffffffffffff163b119050919050565b600060019054906101000a900460ff166119cf576040517f08c379a00000000000000000000000000000000000000000000000000000000081526004016119c690612a4b565b60405180910390fd5b81603690805190602001906119e5929190611ad3565b5080603790805190602001906119fc929190611ad3565b505050565b600060019054906101000a900460ff16611a50576040517f08c379a0000000000000000000000000000000000000000000000000000000008152600401611a4790612a4b565b60405180910390fd5b6000609760006101000a81548160ff021916908315150217905550565b600060019054906101000a900460ff16611abc576040517f08c379a0000000000000000000000000000000000000000000000000000000008152600401611ab390612a4b565b60405180910390fd5b611acc611ac7610c8e565b6113e7565b565b505050565b828054611adf90611ee7565b90600052602060002090601f016020900481019282611b015760008555611b48565b82601f10611b1a57805160ff1916838001178555611b48565b82800160010185558215611b48579182015b82811115611b47578251825591602001919060010190611b2c565b5b509050611b559190611b59565b5090565b5b80821115611b72576000816000905550600101611b5a565b5090565b600081519050919050565b600082825260208201905092915050565b60005b83811015611bb0578082015181840152602081019050611b95565b83811115611bbf576000848401525b50505050565b6000601f19601f8301169050919050565b6000611be182611b76565b611beb8185611b81565b9350611bfb818560208601611b92565b611c0481611bc5565b840191505092915050565b60006020820190508181036000830152611c298184611bd6565b905092915050565b600080fd5b600073ffffffffffffffffffffffffffffffffffffffff82169050919050565b6000611c6182611c36565b9050919050565b611c7181611c56565b8114611c7c57600080fd5b50565b600081359050611c8e81611c68565b92915050565b6000819050919050565b611ca781611c94565b8114611cb257600080fd5b50565b600081359050611cc481611c9e565b92915050565b60008060408385031215611ce157611ce0611c31565b5b6000611cef85828601611c7f565b9250506020611d0085828601611cb5565b9150509250929050565b60008115159050919050565b611d1f81611d0a565b82525050565b6000602082019050611d3a6000830184611d16565b92915050565b611d4981611c94565b82525050565b6000602082019050611d646000830184611d40565b92915050565b600080600060608486031215611d8357611d82611c31565b5b6000611d9186828701611c7f565b9350506020611da286828701611c7f565b9250506040611db386828701611cb5565b9150509250925092565b600060ff82169050919050565b611dd381611dbd565b82525050565b6000602082019050611dee6000830184611dca565b92915050565b600060208284031215611e0a57611e09611c31565b5b6000611e1884828501611cb5565b91505092915050565b600060208284031215611e3757611e36611c31565b5b6000611e4584828501611c7f565b91505092915050565b611e5781611c56565b82525050565b6000602082019050611e726000830184611e4e565b92915050565b60008060408385031215611e8f57611e8e611c31565b5b6000611e9d85828601611c7f565b9250506020611eae85828601611c7f565b9150509250929050565b7f4e487b7100000000000000000000000000000000000000000000000000000000600052602260045260246000fd5b60006002820490506001821680611eff57607f821691505b602082108103611f1257611f11611eb8565b5b50919050565b7f4e487b7100000000000000000000000000000000000000000000000000000000600052601160045260246000fd5b6000611f5282611c94565b9150611f5d83611c94565b9250827fffffffffffffffffffffffffffffffffffffffffffffffffffffffffffffffff03821115611f9257611f91611f18565b5b828201905092915050565b7f4f776e61626c653a2063616c6c6572206973206e6f7420746865206f776e6572600082015250565b6000611fd3602083611b81565b9150611fde82611f9d565b602082019050919050565b6000602082019050818103600083015261200281611fc6565b9050919050565b7f45524332303a2064656372656173656420616c6c6f77616e63652062656c6f7760008201527f207a65726f000000000000000000000000000000000000000000000000000000602082015250565b6000612065602583611b81565b915061207082612009565b604082019050919050565b6000602082019050818103600083015261209481612058565b9050919050565b7f4f776e61626c653a206e6577206f776e657220697320746865207a65726f206160008201527f6464726573730000000000000000000000000000000000000000000000000000602082015250565b60006120f7602683611b81565b91506121028261209b565b604082019050919050565b60006020820190508181036000830152612126816120ea565b9050919050565b60008160011c9050919050565b6000808291508390505b6001851115612184578086048111156121605761215f611f18565b5b600185161561216f5780820291505b808102905061217d8561212d565b9450612144565b94509492505050565b60008261219d5760019050612259565b816121ab5760009050612259565b81600181146121c157600281146121cb576121fa565b6001915050612259565b60ff8411156121dd576121dc611f18565b5b8360020a9150848211156121f4576121f3611f18565b5b50612259565b5060208310610133831016604e8410600b841016171561222f5782820a90508381111561222a57612229611f18565b5b612259565b61223c848484600161213a565b9250905081840481111561225357612252611f18565b5b81810290505b9392505050565b600061226b82611c94565b915061227683611dbd565b92506122a37fffffffffffffffffffffffffffffffffffffffffffffffffffffffffffffffff848461218d565b905092915050565b60006122b682611c94565b91506122c183611c94565b9250817fffffffffffffffffffffffffffffffffffffffffffffffffffffffffffffffff04831182151516156122fa576122f9611f18565b5b828202905092915050565b6000819050919050565b6000819050919050565b600061233461232f61232a84612305565b61230f565b611dbd565b9050919050565b61234481612319565b82525050565b600060208201905061235f600083018461233b565b92915050565b7f45524332303a20617070726f76652066726f6d20746865207a65726f2061646460008201527f7265737300000000000000000000000000000000000000000000000000000000602082015250565b60006123c1602483611b81565b91506123cc82612365565b604082019050919050565b600060208201905081810360008301526123f0816123b4565b9050919050565b7f45524332303a20617070726f766520746f20746865207a65726f20616464726560008201527f7373000000000000000000000000000000000000000000000000000000000000602082015250565b6000612453602283611b81565b915061245e826123f7565b604082019050919050565b6000602082019050818103600083015261248281612446565b9050919050565b7f45524332303a20696e73756666696369656e7420616c6c6f77616e6365000000600082015250565b60006124bf601d83611b81565b91506124ca82612489565b602082019050919050565b600060208201905081810360008301526124ee816124b2565b9050919050565b7f45524332303a207472616e736665722066726f6d20746865207a65726f20616460008201527f6472657373000000000000000000000000000000000000000000000000000000602082015250565b6000612551602583611b81565b915061255c826124f5565b604082019050919050565b6000602082019050818103600083015261258081612544565b9050919050565b7f45524332303a207472616e7366657220746f20746865207a65726f206164647260008201527f6573730000000000000000000000000000000000000000000000000000000000602082015250565b60006125e3602383611b81565b91506125ee82612587565b604082019050919050565b60006020820190508181036000830152612612816125d6565b9050919050565b7f45524332303a207472616e7366657220616d6f756e742065786365656473206260008201527f616c616e63650000000000000000000000000000000000000000000000000000602082015250565b6000612675602683611b81565b915061268082612619565b604082019050919050565b600060208201905081810360008301526126a481612668565b9050919050565b7f5061757361626c653a206e6f7420706175736564000000000000000000000000600082015250565b60006126e1601483611b81565b91506126ec826126ab565b602082019050919050565b60006020820190508181036000830152612710816126d4565b9050919050565b7f45524332303a206275726e2066726f6d20746865207a65726f2061646472657360008201527f7300000000000000000000000000000000000000000000000000000000000000602082015250565b6000612773602183611b81565b915061277e82612717565b604082019050919050565b600060208201905081810360008301526127a281612766565b9050919050565b7f45524332303a206275726e20616d6f756e7420657863656564732062616c616e60008201527f6365000000000000000000000000000000000000000000000000000000000000602082015250565b6000612805602283611b81565b9150612810826127a9565b604082019050919050565b60006020820190508181036000830152612834816127f8565b9050919050565b600061284682611c94565b915061285183611c94565b92508282101561286457612863611f18565b5b828203905092915050565b7f5061757361626c653a2070617573656400000000000000000000000000000000600082015250565b60006128a5601083611b81565b91506128b08261286f565b602082019050919050565b600060208201905081810360008301526128d481612898565b9050919050565b7f45524332303a206d696e7420746f20746865207a65726f206164647265737300600082015250565b6000612911601f83611b81565b915061291c826128db565b602082019050919050565b6000602082019050818103600083015261294081612904565b9050919050565b7f496e697469616c697a61626c653a20636f6e747261637420697320616c72656160008201527f647920696e697469616c697a6564000000000000000000000000000000000000602082015250565b60006129a3602e83611b81565b91506129ae82612947565b604082019050919050565b600060208201905081810360008301526129d281612996565b9050919050565b7f496e697469616c697a61626c653a20636f6e7472616374206973206e6f74206960008201527f6e697469616c697a696e67000000000000000000000000000000000000000000602082015250565b6000612a35602b83611b81565b9150612a40826129d9565b604082019050919050565b60006020820190508181036000830152612a6481612a28565b905091905056fea26469706673582212201f86bea12c38abb7552f642ef240cb9cfbec82a7cc0723acb11a1d451778789364736f6c634300080d0033",
  "linkReferences": {},
  "deployedLinkReferences": {}
}