{
  "_format": "hh-sol-artifact-1",
  "contractName": "SleepToken",
  "sourceName": "contracts/SleepToken.sol",
  "abi": [
    {
      "anonymous": false,
      "inputs": [
        {
          "indexed": true,
          "internalType": "address",
          "name": "owner",
          "type": "address"
        },
        {
          "indexed": true,
          "internalType": "address",
          "name": "spender",
          "type": "address"
        },
        {
          "indexed": false,
          "internalType": "uint256",
          "name": "value",
          "type": "uint256"
        }
      ],
      "name": "Approval",
      "type": "event"
    },
    {
      "anonymous": false,
      "inputs": [
        {
          "indexed": false,
          "internalType": "uint8",
          "name": "version",
          "type": "uint8"
        }
      ],
      "name": "Initialized",
      "type": "event"
    },
    {
      "anonymous": false,
      "inputs": [
        {
          "indexed": true,
          "internalType": "address",
          "name": "previousOwner",
          "type": "address"
        },
        {
          "indexed": true,
          "internalType": "address",
          "name": "newOwner",
          "type": "address"
        }
      ],
      "name": "OwnershipTransferred",
      "type": "event"
    },
    {
      "anonymous": false,
      "inputs": [
        {
          "indexed": false,
          "internalType": "address",
          "name": "account",
          "type": "address"
        }
      ],
      "name": "Paused",
      "type": "event"
    },
    {
      "anonymous": false,
      "inputs": [
        {
          "indexed": true,
          "internalType": "address",
          "name": "from",
          "type": "address"
        },
        {
          "indexed": true,
          "internalType": "address",
          "name": "to",
          "type": "address"
        },
        {
          "indexed": false,
          "internalType": "uint256",
          "name": "value",
          "type": "uint256"
        }
      ],
      "name": "Transfer",
      "type": "event"
    },
    {
      "anonymous": false,
      "inputs": [
        {
          "indexed": false,
          "internalType": "address",
          "name": "account",
          "type": "address"
        }
      ],
      "name": "Unpaused",
      "type": "event"
    },
    {
      "inputs": [
        {
          "internalType": "int24",
          "name": "_tickLower",
          "type": "int24"
        },
        {
          "internalType": "int24",
          "name": "_tickUpper",
          "type": "int24"
        },
        {
          "internalType": "uint128",
          "name": "_amount",
          "type": "uint128"
        }
      ],
      "name": "addLiquidity",
      "outputs": [],
      "stateMutability": "nonpayable",
      "type": "function"
    },
    {
      "inputs": [
        {
          "internalType": "address",
          "name": "owner",
          "type": "address"
        },
        {
          "internalType": "address",
          "name": "spender",
          "type": "address"
        }
      ],
      "name": "allowance",
      "outputs": [
        {
          "internalType": "uint256",
          "name": "",
          "type": "uint256"
        }
      ],
      "stateMutability": "view",
      "type": "function"
    },
    {
      "inputs": [
        {
          "internalType": "address",
          "name": "spender",
          "type": "address"
        },
        {
          "internalType": "uint256",
          "name": "amount",
          "type": "uint256"
        }
      ],
      "name": "approve",
      "outputs": [
        {
          "internalType": "bool",
          "name": "",
          "type": "bool"
        }
      ],
      "stateMutability": "nonpayable",
      "type": "function"
    },
    {
      "inputs": [
        {
          "internalType": "address",
          "name": "account",
          "type": "address"
        }
      ],
      "name": "balanceOf",
      "outputs": [
        {
          "internalType": "uint256",
          "name": "",
          "type": "uint256"
        }
      ],
      "stateMutability": "view",
      "type": "function"
    },
    {
      "inputs": [
        {
          "internalType": "uint256",
          "name": "amount",
          "type": "uint256"
        }
      ],
      "name": "burn",
      "outputs": [],
      "stateMutability": "nonpayable",
      "type": "function"
    },
    {
      "inputs": [
        {
          "internalType": "address",
          "name": "account",
          "type": "address"
        },
        {
          "internalType": "uint256",
          "name": "amount",
          "type": "uint256"
        }
      ],
      "name": "burnFrom",
      "outputs": [],
      "stateMutability": "nonpayable",
      "type": "function"
    },
    {
      "inputs": [
        {
          "internalType": "int24",
          "name": "_tickLower",
          "type": "int24"
        },
        {
          "internalType": "int24",
          "name": "_tickUpper",
          "type": "int24"
        },
        {
          "internalType": "uint128",
          "name": "_amount",
          "type": "uint128"
        }
      ],
      "name": "burnLiquidity",
      "outputs": [],
      "stateMutability": "nonpayable",
      "type": "function"
    },
    {
      "inputs": [
        {
          "internalType": "uint256",
          "name": "_amount",
          "type": "uint256"
        }
      ],
      "name": "burnTokens",
      "outputs": [],
      "stateMutability": "nonpayable",
      "type": "function"
    },
    {
      "inputs": [
        {
          "internalType": "int24",
          "name": "_tickLower",
          "type": "int24"
        },
        {
          "internalType": "int24",
          "name": "_tickUpper",
          "type": "int24"
        }
      ],
      "name": "collectFee",
      "outputs": [],
      "stateMutability": "nonpayable",
      "type": "function"
    },
    {
      "inputs": [
        {
          "internalType": "address",
          "name": "_tokenB",
          "type": "address"
        },
        {
          "internalType": "uint24",
          "name": "_fee",
          "type": "uint24"
        },
        {
          "internalType": "uint160",
          "name": "_sqrtPriceX96",
          "type": "uint160"
        }
      ],
      "name": "createNewPool",
      "outputs": [],
      "stateMutability": "nonpayable",
      "type": "function"
    },
    {
      "inputs": [],
      "name": "decimals",
      "outputs": [
        {
          "internalType": "uint8",
          "name": "",
          "type": "uint8"
        }
      ],
      "stateMutability": "view",
      "type": "function"
    },
    {
      "inputs": [
        {
          "internalType": "address",
          "name": "spender",
          "type": "address"
        },
        {
          "internalType": "uint256",
          "name": "subtractedValue",
          "type": "uint256"
        }
      ],
      "name": "decreaseAllowance",
      "outputs": [
        {
          "internalType": "bool",
          "name": "",
          "type": "bool"
        }
      ],
      "stateMutability": "nonpayable",
      "type": "function"
    },
    {
      "inputs": [],
      "name": "factory",
      "outputs": [
        {
          "internalType": "contract IUniswapV3Factory",
          "name": "",
          "type": "address"
        }
      ],
      "stateMutability": "view",
      "type": "function"
    },
    {
      "inputs": [
        {
          "internalType": "address",
          "name": "spender",
          "type": "address"
        },
        {
          "internalType": "uint256",
          "name": "addedValue",
          "type": "uint256"
        }
      ],
      "name": "increaseAllowance",
      "outputs": [
        {
          "internalType": "bool",
          "name": "",
          "type": "bool"
        }
      ],
      "stateMutability": "nonpayable",
      "type": "function"
    },
    {
      "inputs": [
        {
          "internalType": "uint256",
          "name": "_totalSupply",
          "type": "uint256"
        },
        {
          "internalType": "address",
          "name": "_rewardContract",
          "type": "address"
        },
        {
          "internalType": "address",
          "name": "_teamWallet",
          "type": "address"
        }
      ],
      "name": "initialize",
      "outputs": [],
      "stateMutability": "nonpayable",
      "type": "function"
    },
    {
      "inputs": [
        {
          "internalType": "uint256",
          "name": "_amount",
          "type": "uint256"
        }
      ],
      "name": "mintTokens",
      "outputs": [],
      "stateMutability": "nonpayable",
      "type": "function"
    },
    {
      "inputs": [],
      "name": "name",
      "outputs": [
        {
          "internalType": "string",
          "name": "",
          "type": "string"
        }
      ],
      "stateMutability": "view",
      "type": "function"
    },
    {
      "inputs": [],
      "name": "owner",
      "outputs": [
        {
          "internalType": "address",
          "name": "",
          "type": "address"
        }
      ],
      "stateMutability": "view",
      "type": "function"
    },
    {
      "inputs": [],
      "name": "pause",
      "outputs": [],
      "stateMutability": "nonpayable",
      "type": "function"
    },
    {
      "inputs": [],
      "name": "paused",
      "outputs": [
        {
          "internalType": "bool",
          "name": "",
          "type": "bool"
        }
      ],
      "stateMutability": "view",
      "type": "function"
    },
    {
      "inputs": [],
      "name": "pool",
      "outputs": [
        {
          "internalType": "contract IUniswapV3Pool",
          "name": "",
          "type": "address"
        }
      ],
      "stateMutability": "view",
      "type": "function"
    },
    {
      "inputs": [],
      "name": "renounceOwnership",
      "outputs": [],
      "stateMutability": "nonpayable",
      "type": "function"
    },
    {
      "inputs": [],
      "name": "rewardContract",
      "outputs": [
        {
          "internalType": "address",
          "name": "",
          "type": "address"
        }
      ],
      "stateMutability": "view",
      "type": "function"
    },
    {
      "inputs": [
        {
          "internalType": "contract IUniswapV3Pool",
          "name": "_newAddress",
          "type": "address"
        }
      ],
      "name": "setPool",
      "outputs": [],
      "stateMutability": "nonpayable",
      "type": "function"
    },
    {
      "inputs": [
        {
          "internalType": "address",
          "name": "_rewardContract",
          "type": "address"
        }
      ],
      "name": "setRewardContract",
      "outputs": [],
      "stateMutability": "nonpayable",
      "type": "function"
    },
    {
      "inputs": [
        {
          "internalType": "uint256",
          "name": "_amount",
          "type": "uint256"
        }
      ],
      "name": "supplyRewardContract",
      "outputs": [],
      "stateMutability": "nonpayable",
      "type": "function"
    },
    {
      "inputs": [],
      "name": "symbol",
      "outputs": [
        {
          "internalType": "string",
          "name": "",
          "type": "string"
        }
      ],
      "stateMutability": "view",
      "type": "function"
    },
    {
      "inputs": [],
      "name": "teamWallet",
      "outputs": [
        {
          "internalType": "address",
          "name": "",
          "type": "address"
        }
      ],
      "stateMutability": "view",
      "type": "function"
    },
    {
      "inputs": [],
      "name": "totalSupply",
      "outputs": [
        {
          "internalType": "uint256",
          "name": "",
          "type": "uint256"
        }
      ],
      "stateMutability": "view",
      "type": "function"
    },
    {
      "inputs": [
        {
          "internalType": "address",
          "name": "to",
          "type": "address"
        },
        {
          "internalType": "uint256",
          "name": "amount",
          "type": "uint256"
        }
      ],
      "name": "transfer",
      "outputs": [
        {
          "internalType": "bool",
          "name": "",
          "type": "bool"
        }
      ],
      "stateMutability": "nonpayable",
      "type": "function"
    },
    {
      "inputs": [
        {
          "internalType": "address",
          "name": "from",
          "type": "address"
        },
        {
          "internalType": "address",
          "name": "to",
          "type": "address"
        },
        {
          "internalType": "uint256",
          "name": "amount",
          "type": "uint256"
        }
      ],
      "name": "transferFrom",
      "outputs": [
        {
          "internalType": "bool",
          "name": "",
          "type": "bool"
        }
      ],
      "stateMutability": "nonpayable",
      "type": "function"
    },
    {
      "inputs": [
        {
          "internalType": "address",
          "name": "newOwner",
          "type": "address"
        }
      ],
      "name": "transferOwnership",
      "outputs": [],
      "stateMutability": "nonpayable",
      "type": "function"
    },
    {
      "inputs": [],
      "name": "unpause",
      "outputs": [],
      "stateMutability": "nonpayable",
      "type": "function"
    }
  ],
  "bytecode": "0x608060405234801561001057600080fd5b50613b97806100206000396000f3fe608060405234801561001057600080fd5b50600436106101fb5760003560e01c80636ea69d621161011a57806397304ced116100ad578063b4988fd01161007c578063b4988fd014610564578063c45a015514610580578063d0cbd24b1461059e578063dd62ed3e146105ba578063f2fde38b146105ea576101fb565b806397304ced146104cc578063a457c2d7146104e8578063a6e8052a14610518578063a9059cbb14610534576101fb565b80638456cb59116100e95780638456cb591461046a57806389697969146104745780638da5cb5b1461049057806395d89b41146104ae576101fb565b80636ea69d62146103f657806370a0823114610414578063715018a61461044457806379cc67901461044e576101fb565b80633f4ba83a11610192578063599270441161016157806359927044146103825780635c975abb146103a05780636c72e647146103be5780636d1b229d146103da576101fb565b80633f4ba83a1461032457806342966c681461032e5780634437152a1461034a57806351508f0a14610366576101fb565b806318160ddd116101ce57806318160ddd1461028857806323b872dd146102a6578063313ce567146102d657806339509351146102f4576101fb565b806306fdde0314610200578063095ea7b31461021e57806316f0115b1461024e57806317588a6a1461026c575b600080fd5b610208610606565b604051610215919061273a565b60405180910390f35b610238600480360381019061023391906127f5565b610698565b6040516102459190612850565b60405180910390f35b6102566106bb565b60405161026391906128ca565b60405180910390f35b61028660048036038101906102819190612966565b6106e1565b005b610290610805565b60405161029d91906129c8565b60405180910390f35b6102c060048036038101906102bb91906129e3565b61080f565b6040516102cd9190612850565b60405180910390f35b6102de61083e565b6040516102eb9190612a52565b60405180910390f35b61030e600480360381019061030991906127f5565b610847565b60405161031b9190612850565b60405180910390f35b61032c61087e565b005b61034860048036038101906103439190612a6d565b610904565b005b610364600480360381019061035f9190612ad8565b610918565b005b610380600480360381019061037b9190612b05565b6109d8565b005b61038a610a98565b6040516103979190612b41565b60405180910390f35b6103a8610abe565b6040516103b59190612850565b60405180910390f35b6103d860048036038101906103d39190612a6d565b610ad5565b005b6103f460048036038101906103ef9190612a6d565b610b81565b005b6103fe610c0a565b60405161040b9190612b41565b60405180910390f35b61042e60048036038101906104299190612b05565b610c30565b60405161043b91906129c8565b60405180910390f35b61044c610c79565b005b610468600480360381019061046391906127f5565b610d01565b005b610472610d21565b005b61048e60048036038101906104899190612966565b610da7565b005b610498610ecd565b6040516104a59190612b41565b60405180910390f35b6104b6610ef7565b6040516104c3919061273a565b60405180910390f35b6104e660048036038101906104e19190612a6d565b610f89565b005b61050260048036038101906104fd91906127f5565b611012565b60405161050f9190612850565b60405180910390f35b610532600480360381019061052d9190612b5c565b611089565b005b61054e600480360381019061054991906127f5565b6111e2565b60405161055b9190612850565b60405180910390f35b61057e60048036038101906105799190612b9c565b611205565b005b61058861141f565b6040516105959190612c10565b60405180910390f35b6105b860048036038101906105b39190612c92565b611445565b005b6105d460048036038101906105cf9190612ce5565b61163b565b6040516105e191906129c8565b60405180910390f35b61060460048036038101906105ff9190612b05565b6116c2565b005b60606036805461061590612d54565b80601f016020809104026020016040519081016040528092919081815260200182805461064190612d54565b801561068e5780601f106106635761010080835404028352916020019161068e565b820191906000526020600020905b81548152906001019060200180831161067157829003601f168201915b5050505050905090565b6000806106a36117b9565b90506106b08185856117c1565b600191505092915050565b60fd60009054906101000a900473ffffffffffffffffffffffffffffffffffffffff1681565b6106e96117b9565b73ffffffffffffffffffffffffffffffffffffffff16610707610ecd565b73ffffffffffffffffffffffffffffffffffffffff161461075d576040517f08c379a000000000000000000000000000000000000000000000000000000000815260040161075490612dd1565b60405180910390fd5b60fd60009054906101000a900473ffffffffffffffffffffffffffffffffffffffff1673ffffffffffffffffffffffffffffffffffffffff1663a34123a78484846040518463ffffffff1660e01b81526004016107bc93929190612e0f565b60408051808303816000875af11580156107da573d6000803e3d6000fd5b505050506040513d601f19601f820116820180604052508101906107fe9190612e5b565b5050505050565b6000603554905090565b60008061081a6117b9565b905061082785828561198a565b610832858585611a16565b60019150509392505050565b60006012905090565b6000806108526117b9565b9050610873818585610864858961163b565b61086e9190612eca565b6117c1565b600191505092915050565b6108866117b9565b73ffffffffffffffffffffffffffffffffffffffff166108a4610ecd565b73ffffffffffffffffffffffffffffffffffffffff16146108fa576040517f08c379a00000000000000000000000000000000000000000000000000000000081526004016108f190612dd1565b60405180910390fd5b610902611c98565b565b61091561090f6117b9565b82611d3a565b50565b6109206117b9565b73ffffffffffffffffffffffffffffffffffffffff1661093e610ecd565b73ffffffffffffffffffffffffffffffffffffffff1614610994576040517f08c379a000000000000000000000000000000000000000000000000000000000815260040161098b90612dd1565b60405180910390fd5b8060fd60006101000a81548173ffffffffffffffffffffffffffffffffffffffff021916908373ffffffffffffffffffffffffffffffffffffffff16021790555050565b6109e06117b9565b73ffffffffffffffffffffffffffffffffffffffff166109fe610ecd565b73ffffffffffffffffffffffffffffffffffffffff1614610a54576040517f08c379a0000000000000000000000000000000000000000000000000000000008152600401610a4b90612dd1565b60405180910390fd5b8060fb60006101000a81548173ffffffffffffffffffffffffffffffffffffffff021916908373ffffffffffffffffffffffffffffffffffffffff16021790555050565b60fc60009054906101000a900473ffffffffffffffffffffffffffffffffffffffff1681565b6000609760009054906101000a900460ff16905090565b610add6117b9565b73ffffffffffffffffffffffffffffffffffffffff16610afb610ecd565b73ffffffffffffffffffffffffffffffffffffffff1614610b51576040517f08c379a0000000000000000000000000000000000000000000000000000000008152600401610b4890612dd1565b60405180910390fd5b610b7e3060fb60009054906101000a900473ffffffffffffffffffffffffffffffffffffffff1683611a16565b50565b610b896117b9565b73ffffffffffffffffffffffffffffffffffffffff16610ba7610ecd565b73ffffffffffffffffffffffffffffffffffffffff1614610bfd576040517f08c379a0000000000000000000000000000000000000000000000000000000008152600401610bf490612dd1565b60405180910390fd5b610c073082611d3a565b50565b60fb60009054906101000a900473ffffffffffffffffffffffffffffffffffffffff1681565b6000603360008373ffffffffffffffffffffffffffffffffffffffff1673ffffffffffffffffffffffffffffffffffffffff168152602001908152602001600020549050919050565b610c816117b9565b73ffffffffffffffffffffffffffffffffffffffff16610c9f610ecd565b73ffffffffffffffffffffffffffffffffffffffff1614610cf5576040517f08c379a0000000000000000000000000000000000000000000000000000000008152600401610cec90612dd1565b60405180910390fd5b610cff6000611f12565b565b610d1382610d0d6117b9565b8361198a565b610d1d8282611d3a565b5050565b610d296117b9565b73ffffffffffffffffffffffffffffffffffffffff16610d47610ecd565b73ffffffffffffffffffffffffffffffffffffffff1614610d9d576040517f08c379a0000000000000000000000000000000000000000000000000000000008152600401610d9490612dd1565b60405180910390fd5b610da5611fd8565b565b610daf6117b9565b73ffffffffffffffffffffffffffffffffffffffff16610dcd610ecd565b73ffffffffffffffffffffffffffffffffffffffff1614610e23576040517f08c379a0000000000000000000000000000000000000000000000000000000008152600401610e1a90612dd1565b60405180910390fd5b60fd60009054906101000a900473ffffffffffffffffffffffffffffffffffffffff1673ffffffffffffffffffffffffffffffffffffffff16633c8a7d8d308585856040518563ffffffff1660e01b8152600401610e849493929190612f57565b60408051808303816000875af1158015610ea2573d6000803e3d6000fd5b505050506040513d601f19601f82011682018060405250810190610ec69190612e5b565b5050505050565b600060c960009054906101000a900473ffffffffffffffffffffffffffffffffffffffff16905090565b606060378054610f0690612d54565b80601f0160208091040260200160405190810160405280929190818152602001828054610f3290612d54565b8015610f7f5780601f10610f5457610100808354040283529160200191610f7f565b820191906000526020600020905b815481529060010190602001808311610f6257829003601f168201915b5050505050905090565b610f916117b9565b73ffffffffffffffffffffffffffffffffffffffff16610faf610ecd565b73ffffffffffffffffffffffffffffffffffffffff1614611005576040517f08c379a0000000000000000000000000000000000000000000000000000000008152600401610ffc90612dd1565b60405180910390fd5b61100f308261207b565b50565b60008061101d6117b9565b9050600061102b828661163b565b905083811015611070576040517f08c379a000000000000000000000000000000000000000000000000000000000815260040161106790613021565b60405180910390fd5b61107d82868684036117c1565b60019250505092915050565b6110916117b9565b73ffffffffffffffffffffffffffffffffffffffff166110af610ecd565b73ffffffffffffffffffffffffffffffffffffffff1614611105576040517f08c379a00000000000000000000000000000000000000000000000000000000081526004016110fc90612dd1565b60405180910390fd5b60fd60009054906101000a900473ffffffffffffffffffffffffffffffffffffffff1673ffffffffffffffffffffffffffffffffffffffff16634f1eb3d860fc60009054906101000a900473ffffffffffffffffffffffffffffffffffffffff1684846fffffffffffffffffffffffffffffffff806040518663ffffffff1660e01b815260040161119a959493929190613041565b60408051808303816000875af11580156111b8573d6000803e3d6000fd5b505050506040513d601f19601f820116820180604052508101906111dc91906130a9565b50505050565b6000806111ed6117b9565b90506111fa818585611a16565b600191505092915050565b600061121160016121db565b90508015611235576001600060016101000a81548160ff0219169083151502179055505b6112a96040518060400160405280600b81526020017f536c65657020546f6b656e0000000000000000000000000000000000000000008152506040518060400160405280600681526020017f24534c45455000000000000000000000000000000000000000000000000000008152506122cb565b6112b1612328565b6112b9612379565b6112c16123d2565b8260fb60006101000a81548173ffffffffffffffffffffffffffffffffffffffff021916908373ffffffffffffffffffffffffffffffffffffffff160217905550731f98431c8ad98523631ae4a59f267346ea31f98460fe60006101000a81548173ffffffffffffffffffffffffffffffffffffffff021916908373ffffffffffffffffffffffffffffffffffffffff1602179055508160fc60006101000a81548173ffffffffffffffffffffffffffffffffffffffff021916908373ffffffffffffffffffffffffffffffffffffffff1602179055506113c0336113a461083e565b600a6113b0919061321c565b866113bb9190613267565b61207b565b80156114195760008060016101000a81548160ff0219169083151502179055507f7f26b83ff96e1f2b6a682f133852f6798a09c465da95921460cefb3847402498600160405161141091906132fc565b60405180910390a15b50505050565b60fe60009054906101000a900473ffffffffffffffffffffffffffffffffffffffff1681565b61144d6117b9565b73ffffffffffffffffffffffffffffffffffffffff1661146b610ecd565b73ffffffffffffffffffffffffffffffffffffffff16146114c1576040517f08c379a00000000000000000000000000000000000000000000000000000000081526004016114b890612dd1565b60405180910390fd5b600060fe60009054906101000a900473ffffffffffffffffffffffffffffffffffffffff1673ffffffffffffffffffffffffffffffffffffffff1663a16712953086866040518463ffffffff1660e01b815260040161152293929190613326565b6020604051808303816000875af1158015611541573d6000803e3d6000fd5b505050506040513d601f19601f820116820180604052508101906115659190613372565b90508060fd60006101000a81548173ffffffffffffffffffffffffffffffffffffffff021916908373ffffffffffffffffffffffffffffffffffffffff16021790555060fd60009054906101000a900473ffffffffffffffffffffffffffffffffffffffff1673ffffffffffffffffffffffffffffffffffffffff1663f637731d836040518263ffffffff1660e01b815260040161160391906133ae565b600060405180830381600087803b15801561161d57600080fd5b505af1158015611631573d6000803e3d6000fd5b5050505050505050565b6000603460008473ffffffffffffffffffffffffffffffffffffffff1673ffffffffffffffffffffffffffffffffffffffff16815260200190815260200160002060008373ffffffffffffffffffffffffffffffffffffffff1673ffffffffffffffffffffffffffffffffffffffff16815260200190815260200160002054905092915050565b6116ca6117b9565b73ffffffffffffffffffffffffffffffffffffffff166116e8610ecd565b73ffffffffffffffffffffffffffffffffffffffff161461173e576040517f08c379a000000000000000000000000000000000000000000000000000000000815260040161173590612dd1565b60405180910390fd5b600073ffffffffffffffffffffffffffffffffffffffff168173ffffffffffffffffffffffffffffffffffffffff16036117ad576040517f08c379a00000000000000000000000000000000000000000000000000000000081526004016117a49061343b565b60405180910390fd5b6117b681611f12565b50565b600033905090565b600073ffffffffffffffffffffffffffffffffffffffff168373ffffffffffffffffffffffffffffffffffffffff1603611830576040517f08c379a0000000000000000000000000000000000000000000000000000000008152600401611827906134cd565b60405180910390fd5b600073ffffffffffffffffffffffffffffffffffffffff168273ffffffffffffffffffffffffffffffffffffffff160361189f576040517f08c379a00000000000000000000000000000000000000000000000000000000081526004016118969061355f565b60405180910390fd5b80603460008573ffffffffffffffffffffffffffffffffffffffff1673ffffffffffffffffffffffffffffffffffffffff16815260200190815260200160002060008473ffffffffffffffffffffffffffffffffffffffff1673ffffffffffffffffffffffffffffffffffffffff168152602001908152602001600020819055508173ffffffffffffffffffffffffffffffffffffffff168373ffffffffffffffffffffffffffffffffffffffff167f8c5be1e5ebec7d5bd14f71427d1e84f3dd0314c0f7b2291e5b200ac8c7c3b9258360405161197d91906129c8565b60405180910390a3505050565b6000611996848461163b565b90507fffffffffffffffffffffffffffffffffffffffffffffffffffffffffffffffff8114611a105781811015611a02576040517f08c379a00000000000000000000000000000000000000000000000000000000081526004016119f9906135cb565b60405180910390fd5b611a0f84848484036117c1565b5b50505050565b600073ffffffffffffffffffffffffffffffffffffffff168373ffffffffffffffffffffffffffffffffffffffff1603611a85576040517f08c379a0000000000000000000000000000000000000000000000000000000008152600401611a7c9061365d565b60405180910390fd5b600073ffffffffffffffffffffffffffffffffffffffff168273ffffffffffffffffffffffffffffffffffffffff1603611af4576040517f08c379a0000000000000000000000000000000000000000000000000000000008152600401611aeb906136ef565b60405180910390fd5b611aff83838361242b565b6000603360008573ffffffffffffffffffffffffffffffffffffffff1673ffffffffffffffffffffffffffffffffffffffff16815260200190815260200160002054905081811015611b86576040517f08c379a0000000000000000000000000000000000000000000000000000000008152600401611b7d90613781565b60405180910390fd5b818103603360008673ffffffffffffffffffffffffffffffffffffffff1673ffffffffffffffffffffffffffffffffffffffff1681526020019081526020016000208190555081603360008573ffffffffffffffffffffffffffffffffffffffff1673ffffffffffffffffffffffffffffffffffffffff1681526020019081526020016000206000828254611c1b9190612eca565b925050819055508273ffffffffffffffffffffffffffffffffffffffff168473ffffffffffffffffffffffffffffffffffffffff167fddf252ad1be2c89b69c2b068fc378daa952ba7f163c4a11628f55a4df523b3ef84604051611c7f91906129c8565b60405180910390a3611c92848484612483565b50505050565b611ca0610abe565b611cdf576040517f08c379a0000000000000000000000000000000000000000000000000000000008152600401611cd6906137ed565b60405180910390fd5b6000609760006101000a81548160ff0219169083151502179055507f5db9ee0a495bf2e6ff9c91a7834c1ba4fdd244a5e8aa4e537bd38aeae4b073aa611d236117b9565b604051611d309190612b41565b60405180910390a1565b600073ffffffffffffffffffffffffffffffffffffffff168273ffffffffffffffffffffffffffffffffffffffff1603611da9576040517f08c379a0000000000000000000000000000000000000000000000000000000008152600401611da09061387f565b60405180910390fd5b611db58260008361242b565b6000603360008473ffffffffffffffffffffffffffffffffffffffff1673ffffffffffffffffffffffffffffffffffffffff16815260200190815260200160002054905081811015611e3c576040517f08c379a0000000000000000000000000000000000000000000000000000000008152600401611e3390613911565b60405180910390fd5b818103603360008573ffffffffffffffffffffffffffffffffffffffff1673ffffffffffffffffffffffffffffffffffffffff168152602001908152602001600020819055508160356000828254611e949190613931565b92505081905550600073ffffffffffffffffffffffffffffffffffffffff168373ffffffffffffffffffffffffffffffffffffffff167fddf252ad1be2c89b69c2b068fc378daa952ba7f163c4a11628f55a4df523b3ef84604051611ef991906129c8565b60405180910390a3611f0d83600084612483565b505050565b600060c960009054906101000a900473ffffffffffffffffffffffffffffffffffffffff1690508160c960006101000a81548173ffffffffffffffffffffffffffffffffffffffff021916908373ffffffffffffffffffffffffffffffffffffffff1602179055508173ffffffffffffffffffffffffffffffffffffffff168173ffffffffffffffffffffffffffffffffffffffff167f8be0079c531659141344cd1fd0a4f28419497f9722a3daafe3b4186f6b6457e060405160405180910390a35050565b611fe0610abe565b15612020576040517f08c379a0000000000000000000000000000000000000000000000000000000008152600401612017906139b1565b60405180910390fd5b6001609760006101000a81548160ff0219169083151502179055507f62e78cea01bee320cd4e420270b5ea74000d11b0c9f74754ebdbfc544b05a2586120646117b9565b6040516120719190612b41565b60405180910390a1565b600073ffffffffffffffffffffffffffffffffffffffff168273ffffffffffffffffffffffffffffffffffffffff16036120ea576040517f08c379a00000000000000000000000000000000000000000000000000000000081526004016120e190613a1d565b60405180910390fd5b6120f66000838361242b565b80603560008282546121089190612eca565b9250508190555080603360008473ffffffffffffffffffffffffffffffffffffffff1673ffffffffffffffffffffffffffffffffffffffff168152602001908152602001600020600082825461215e9190612eca565b925050819055508173ffffffffffffffffffffffffffffffffffffffff16600073ffffffffffffffffffffffffffffffffffffffff167fddf252ad1be2c89b69c2b068fc378daa952ba7f163c4a11628f55a4df523b3ef836040516121c391906129c8565b60405180910390a36121d760008383612483565b5050565b60008060019054906101000a900460ff16156122525760018260ff1614801561220a575061220830612488565b155b612249576040517f08c379a000000000000000000000000000000000000000000000000000000000815260040161224090613aaf565b60405180910390fd5b600090506122c6565b8160ff1660008054906101000a900460ff1660ff16106122a7576040517f08c379a000000000000000000000000000000000000000000000000000000000815260040161229e90613aaf565b60405180910390fd5b816000806101000a81548160ff021916908360ff160217905550600190505b919050565b600060019054906101000a900460ff1661231a576040517f08c379a000000000000000000000000000000000000000000000000000000000815260040161231190613b41565b60405180910390fd5b61232482826124ab565b5050565b600060019054906101000a900460ff16612377576040517f08c379a000000000000000000000000000000000000000000000000000000000815260040161236e90613b41565b60405180910390fd5b565b600060019054906101000a900460ff166123c8576040517f08c379a00000000000000000000000000000000000000000000000000000000081526004016123bf90613b41565b60405180910390fd5b6123d061252c565b565b600060019054906101000a900460ff16612421576040517f08c379a000000000000000000000000000000000000000000000000000000000815260040161241890613b41565b60405180910390fd5b612429612598565b565b612433610abe565b15612473576040517f08c379a000000000000000000000000000000000000000000000000000000000815260040161246a906139b1565b60405180910390fd5b61247e8383836125f9565b505050565b505050565b6000808273ffffffffffffffffffffffffffffffffffffffff163b119050919050565b600060019054906101000a900460ff166124fa576040517f08c379a00000000000000000000000000000000000000000000000000000000081526004016124f190613b41565b60405180910390fd5b81603690805190602001906125109291906125fe565b5080603790805190602001906125279291906125fe565b505050565b600060019054906101000a900460ff1661257b576040517f08c379a000000000000000000000000000000000000000000000000000000000815260040161257290613b41565b60405180910390fd5b6000609760006101000a81548160ff021916908315150217905550565b600060019054906101000a900460ff166125e7576040517f08c379a00000000000000000000000000000000000000000000000000000000081526004016125de90613b41565b60405180910390fd5b6125f76125f26117b9565b611f12565b565b505050565b82805461260a90612d54565b90600052602060002090601f01602090048101928261262c5760008555612673565b82601f1061264557805160ff1916838001178555612673565b82800160010185558215612673579182015b82811115612672578251825591602001919060010190612657565b5b5090506126809190612684565b5090565b5b8082111561269d576000816000905550600101612685565b5090565b600081519050919050565b600082825260208201905092915050565b60005b838110156126db5780820151818401526020810190506126c0565b838111156126ea576000848401525b50505050565b6000601f19601f8301169050919050565b600061270c826126a1565b61271681856126ac565b93506127268185602086016126bd565b61272f816126f0565b840191505092915050565b600060208201905081810360008301526127548184612701565b905092915050565b600080fd5b600073ffffffffffffffffffffffffffffffffffffffff82169050919050565b600061278c82612761565b9050919050565b61279c81612781565b81146127a757600080fd5b50565b6000813590506127b981612793565b92915050565b6000819050919050565b6127d2816127bf565b81146127dd57600080fd5b50565b6000813590506127ef816127c9565b92915050565b6000806040838503121561280c5761280b61275c565b5b600061281a858286016127aa565b925050602061282b858286016127e0565b9150509250929050565b60008115159050919050565b61284a81612835565b82525050565b60006020820190506128656000830184612841565b92915050565b6000819050919050565b600061289061288b61288684612761565b61286b565b612761565b9050919050565b60006128a282612875565b9050919050565b60006128b482612897565b9050919050565b6128c4816128a9565b82525050565b60006020820190506128df60008301846128bb565b92915050565b60008160020b9050919050565b6128fb816128e5565b811461290657600080fd5b50565b600081359050612918816128f2565b92915050565b60006fffffffffffffffffffffffffffffffff82169050919050565b6129438161291e565b811461294e57600080fd5b50565b6000813590506129608161293a565b92915050565b60008060006060848603121561297f5761297e61275c565b5b600061298d86828701612909565b935050602061299e86828701612909565b92505060406129af86828701612951565b9150509250925092565b6129c2816127bf565b82525050565b60006020820190506129dd60008301846129b9565b92915050565b6000806000606084860312156129fc576129fb61275c565b5b6000612a0a868287016127aa565b9350506020612a1b868287016127aa565b9250506040612a2c868287016127e0565b9150509250925092565b600060ff82169050919050565b612a4c81612a36565b82525050565b6000602082019050612a676000830184612a43565b92915050565b600060208284031215612a8357612a8261275c565b5b6000612a91848285016127e0565b91505092915050565b6000612aa582612781565b9050919050565b612ab581612a9a565b8114612ac057600080fd5b50565b600081359050612ad281612aac565b92915050565b600060208284031215612aee57612aed61275c565b5b6000612afc84828501612ac3565b91505092915050565b600060208284031215612b1b57612b1a61275c565b5b6000612b29848285016127aa565b91505092915050565b612b3b81612781565b82525050565b6000602082019050612b566000830184612b32565b92915050565b60008060408385031215612b7357612b7261275c565b5b6000612b8185828601612909565b9250506020612b9285828601612909565b9150509250929050565b600080600060608486031215612bb557612bb461275c565b5b6000612bc3868287016127e0565b9350506020612bd4868287016127aa565b9250506040612be5868287016127aa565b9150509250925092565b6000612bfa82612897565b9050919050565b612c0a81612bef565b82525050565b6000602082019050612c256000830184612c01565b92915050565b600062ffffff82169050919050565b612c4381612c2b565b8114612c4e57600080fd5b50565b600081359050612c6081612c3a565b92915050565b612c6f81612761565b8114612c7a57600080fd5b50565b600081359050612c8c81612c66565b92915050565b600080600060608486031215612cab57612caa61275c565b5b6000612cb9868287016127aa565b9350506020612cca86828701612c51565b9250506040612cdb86828701612c7d565b9150509250925092565b60008060408385031215612cfc57612cfb61275c565b5b6000612d0a858286016127aa565b9250506020612d1b858286016127aa565b9150509250929050565b7f4e487b7100000000000000000000000000000000000000000000000000000000600052602260045260246000fd5b60006002820490506001821680612d6c57607f821691505b602082108103612d7f57612d7e612d25565b5b50919050565b7f4f776e61626c653a2063616c6c6572206973206e6f7420746865206f776e6572600082015250565b6000612dbb6020836126ac565b9150612dc682612d85565b602082019050919050565b60006020820190508181036000830152612dea81612dae565b9050919050565b612dfa816128e5565b82525050565b612e098161291e565b82525050565b6000606082019050612e246000830186612df1565b612e316020830185612df1565b612e3e6040830184612e00565b949350505050565b600081519050612e55816127c9565b92915050565b60008060408385031215612e7257612e7161275c565b5b6000612e8085828601612e46565b9250506020612e9185828601612e46565b9150509250929050565b7f4e487b7100000000000000000000000000000000000000000000000000000000600052601160045260246000fd5b6000612ed5826127bf565b9150612ee0836127bf565b9250827fffffffffffffffffffffffffffffffffffffffffffffffffffffffffffffffff03821115612f1557612f14612e9b565b5b828201905092915050565b600082825260208201905092915050565b50565b6000612f41600083612f20565b9150612f4c82612f31565b600082019050919050565b600060a082019050612f6c6000830187612b32565b612f796020830186612df1565b612f866040830185612df1565b612f936060830184612e00565b8181036080830152612fa481612f34565b905095945050505050565b7f45524332303a2064656372656173656420616c6c6f77616e63652062656c6f7760008201527f207a65726f000000000000000000000000000000000000000000000000000000602082015250565b600061300b6025836126ac565b915061301682612faf565b604082019050919050565b6000602082019050818103600083015261303a81612ffe565b9050919050565b600060a0820190506130566000830188612b32565b6130636020830187612df1565b6130706040830186612df1565b61307d6060830185612e00565b61308a6080830184612e00565b9695505050505050565b6000815190506130a38161293a565b92915050565b600080604083850312156130c0576130bf61275c565b5b60006130ce85828601613094565b92505060206130df85828601613094565b9150509250929050565b60008160011c9050919050565b6000808291508390505b60018511156131405780860481111561311c5761311b612e9b565b5b600185161561312b5780820291505b8081029050613139856130e9565b9450613100565b94509492505050565b6000826131595760019050613215565b816131675760009050613215565b816001811461317d5760028114613187576131b6565b6001915050613215565b60ff84111561319957613198612e9b565b5b8360020a9150848211156131b0576131af612e9b565b5b50613215565b5060208310610133831016604e8410600b84101617156131eb5782820a9050838111156131e6576131e5612e9b565b5b613215565b6131f884848460016130f6565b9250905081840481111561320f5761320e612e9b565b5b81810290505b9392505050565b6000613227826127bf565b915061323283612a36565b925061325f7fffffffffffffffffffffffffffffffffffffffffffffffffffffffffffffffff8484613149565b905092915050565b6000613272826127bf565b915061327d836127bf565b9250817fffffffffffffffffffffffffffffffffffffffffffffffffffffffffffffffff04831182151516156132b6576132b5612e9b565b5b828202905092915050565b6000819050919050565b60006132e66132e16132dc846132c1565b61286b565b612a36565b9050919050565b6132f6816132cb565b82525050565b600060208201905061331160008301846132ed565b92915050565b61332081612c2b565b82525050565b600060608201905061333b6000830186612b32565b6133486020830185612b32565b6133556040830184613317565b949350505050565b60008151905061336c81612793565b92915050565b6000602082840312156133885761338761275c565b5b60006133968482850161335d565b91505092915050565b6133a881612761565b82525050565b60006020820190506133c3600083018461339f565b92915050565b7f4f776e61626c653a206e6577206f776e657220697320746865207a65726f206160008201527f6464726573730000000000000000000000000000000000000000000000000000602082015250565b60006134256026836126ac565b9150613430826133c9565b604082019050919050565b6000602082019050818103600083015261345481613418565b9050919050565b7f45524332303a20617070726f76652066726f6d20746865207a65726f2061646460008201527f7265737300000000000000000000000000000000000000000000000000000000602082015250565b60006134b76024836126ac565b91506134c28261345b565b604082019050919050565b600060208201905081810360008301526134e6816134aa565b9050919050565b7f45524332303a20617070726f766520746f20746865207a65726f20616464726560008201527f7373000000000000000000000000000000000000000000000000000000000000602082015250565b60006135496022836126ac565b9150613554826134ed565b604082019050919050565b600060208201905081810360008301526135788161353c565b9050919050565b7f45524332303a20696e73756666696369656e7420616c6c6f77616e6365000000600082015250565b60006135b5601d836126ac565b91506135c08261357f565b602082019050919050565b600060208201905081810360008301526135e4816135a8565b9050919050565b7f45524332303a207472616e736665722066726f6d20746865207a65726f20616460008201527f6472657373000000000000000000000000000000000000000000000000000000602082015250565b60006136476025836126ac565b9150613652826135eb565b604082019050919050565b600060208201905081810360008301526136768161363a565b9050919050565b7f45524332303a207472616e7366657220746f20746865207a65726f206164647260008201527f6573730000000000000000000000000000000000000000000000000000000000602082015250565b60006136d96023836126ac565b91506136e48261367d565b604082019050919050565b60006020820190508181036000830152613708816136cc565b9050919050565b7f45524332303a207472616e7366657220616d6f756e742065786365656473206260008201527f616c616e63650000000000000000000000000000000000000000000000000000602082015250565b600061376b6026836126ac565b91506137768261370f565b604082019050919050565b6000602082019050818103600083015261379a8161375e565b9050919050565b7f5061757361626c653a206e6f7420706175736564000000000000000000000000600082015250565b60006137d76014836126ac565b91506137e2826137a1565b602082019050919050565b60006020820190508181036000830152613806816137ca565b9050919050565b7f45524332303a206275726e2066726f6d20746865207a65726f2061646472657360008201527f7300000000000000000000000000000000000000000000000000000000000000602082015250565b60006138696021836126ac565b91506138748261380d565b604082019050919050565b600060208201905081810360008301526138988161385c565b9050919050565b7f45524332303a206275726e20616d6f756e7420657863656564732062616c616e60008201527f6365000000000000000000000000000000000000000000000000000000000000602082015250565b60006138fb6022836126ac565b91506139068261389f565b604082019050919050565b6000602082019050818103600083015261392a816138ee565b9050919050565b600061393c826127bf565b9150613947836127bf565b92508282101561395a57613959612e9b565b5b828203905092915050565b7f5061757361626c653a2070617573656400000000000000000000000000000000600082015250565b600061399b6010836126ac565b91506139a682613965565b602082019050919050565b600060208201905081810360008301526139ca8161398e565b9050919050565b7f45524332303a206d696e7420746f20746865207a65726f206164647265737300600082015250565b6000613a07601f836126ac565b9150613a12826139d1565b602082019050919050565b60006020820190508181036000830152613a36816139fa565b9050919050565b7f496e697469616c697a61626c653a20636f6e747261637420697320616c72656160008201527f647920696e697469616c697a6564000000000000000000000000000000000000602082015250565b6000613a99602e836126ac565b9150613aa482613a3d565b604082019050919050565b60006020820190508181036000830152613ac881613a8c565b9050919050565b7f496e697469616c697a61626c653a20636f6e7472616374206973206e6f74206960008201527f6e697469616c697a696e67000000000000000000000000000000000000000000602082015250565b6000613b2b602b836126ac565b9150613b3682613acf565b604082019050919050565b60006020820190508181036000830152613b5a81613b1e565b905091905056fea26469706673582212208cc52470cc30baee7f97c5a226a436489b5bfe47f70cd0cc4da66d8616be3f0e64736f6c634300080d0033",
  "linkReferences": {},
  "deployedLinkReferences": {}
}