{
  "_format": "hh-sol-artifact-1",
  "contractName": "reward",
  "sourceName": "contracts/Reward.sol",
  "abi": [
    {
      "anonymous": false,
      "inputs": [
        {
          "indexed": false,
          "internalType": "uint8",
          "name": "version",
          "type": "uint8"
        }
      ],
      "name": "Initialized",
      "type": "event"
    },
    {
      "anonymous": false,
      "inputs": [
        {
          "indexed": true,
          "internalType": "address",
          "name": "previousOwner",
          "type": "address"
        },
        {
          "indexed": true,
          "internalType": "address",
          "name": "newOwner",
          "type": "address"
        }
      ],
      "name": "OwnershipTransferred",
      "type": "event"
    },
    {
      "inputs": [],
      "name": "cfaV1",
      "outputs": [
        {
          "internalType": "contract ISuperfluid",
          "name": "host",
          "type": "address"
        },
        {
          "internalType": "contract IConstantFlowAgreementV1",
          "name": "cfa",
          "type": "address"
        }
      ],
      "stateMutability": "view",
      "type": "function"
    },
    {
      "inputs": [
        {
          "internalType": "contract ISuperToken",
          "name": "_superToken",
          "type": "address"
        },
        {
          "internalType": "contract ISuperfluid",
          "name": "_host",
          "type": "address"
        },
        {
          "internalType": "contract IConstantFlowAgreementV1",
          "name": "_cfa",
          "type": "address"
        }
      ],
      "name": "initialize",
      "outputs": [],
      "stateMutability": "nonpayable",
      "type": "function"
    },
    {
      "inputs": [],
      "name": "owner",
      "outputs": [
        {
          "internalType": "address",
          "name": "",
          "type": "address"
        }
      ],
      "stateMutability": "view",
      "type": "function"
    },
    {
      "inputs": [],
      "name": "renounceOwnership",
      "outputs": [],
      "stateMutability": "nonpayable",
      "type": "function"
    },
    {
      "inputs": [],
      "name": "superToken",
      "outputs": [
        {
          "internalType": "contract ISuperToken",
          "name": "",
          "type": "address"
        }
      ],
      "stateMutability": "view",
      "type": "function"
    },
    {
      "inputs": [
        {
          "internalType": "address",
          "name": "newOwner",
          "type": "address"
        }
      ],
      "name": "transferOwnership",
      "outputs": [],
      "stateMutability": "nonpayable",
      "type": "function"
    }
  ],
  "bytecode": "0x608060405234801561001057600080fd5b50610e96806100206000396000f3fe608060405234801561001057600080fd5b50600436106100625760003560e01c80632b4116f714610067578063715018a6146100855780638da5cb5b1461008f578063c0c53b8b146100ad578063d3112b2e146100c9578063f2fde38b146100e8575b600080fd5b61006f610104565b60405161007c9190610961565b60405180910390f35b61008d61012a565b005b6100976101b2565b6040516100a4919061099d565b60405180910390f35b6100c760048036038101906100c29190610a77565b6101dc565b005b6100d16105b8565b6040516100df929190610b0c565b60405180910390f35b61010260048036038101906100fd9190610b61565b61060a565b005b606560009054906101000a900473ffffffffffffffffffffffffffffffffffffffff1681565b610132610701565b73ffffffffffffffffffffffffffffffffffffffff166101506101b2565b73ffffffffffffffffffffffffffffffffffffffff16146101a6576040517f08c379a000000000000000000000000000000000000000000000000000000000815260040161019d90610beb565b60405180910390fd5b6101b06000610709565b565b6000603360009054906101000a900473ffffffffffffffffffffffffffffffffffffffff16905090565b60006101e860016107cf565b9050801561020c576001600060016101000a81548160ff0219169083151502179055505b83606560006101000a81548173ffffffffffffffffffffffffffffffffffffffff021916908373ffffffffffffffffffffffffffffffffffffffff16021790555082606660006101000a81548173ffffffffffffffffffffffffffffffffffffffff021916908373ffffffffffffffffffffffffffffffffffffffff16021790555081606760006101000a81548173ffffffffffffffffffffffffffffffffffffffff021916908373ffffffffffffffffffffffffffffffffffffffff160217905550600073ffffffffffffffffffffffffffffffffffffffff16606560009054906101000a900473ffffffffffffffffffffffffffffffffffffffff1673ffffffffffffffffffffffffffffffffffffffff160361032e5761032d610c0b565b5b600073ffffffffffffffffffffffffffffffffffffffff16606660009054906101000a900473ffffffffffffffffffffffffffffffffffffffff1673ffffffffffffffffffffffffffffffffffffffff160361038d5761038c610c0b565b5b600073ffffffffffffffffffffffffffffffffffffffff16606760009054906101000a900473ffffffffffffffffffffffffffffffffffffffff1673ffffffffffffffffffffffffffffffffffffffff16036103ec576103eb610c0b565b5b60405180604001604052808473ffffffffffffffffffffffffffffffffffffffff1681526020018473ffffffffffffffffffffffffffffffffffffffff1663b6d200de7fa9214cc96615e0085d3bb077758db69497dc2dce3b2b1e97bc93c3d18d83efd36040518263ffffffff1660e01b815260040161046c9190610c53565b602060405180830381865afa158015610489573d6000803e3d6000fd5b505050506040513d601f19601f820116820180604052508101906104ad9190610cac565b73ffffffffffffffffffffffffffffffffffffffff16815250606860008201518160000160006101000a81548173ffffffffffffffffffffffffffffffffffffffff021916908373ffffffffffffffffffffffffffffffffffffffff16021790555060208201518160010160006101000a81548173ffffffffffffffffffffffffffffffffffffffff021916908373ffffffffffffffffffffffffffffffffffffffff16021790555090505080156105b25760008060016101000a81548160ff0219169083151502179055507f7f26b83ff96e1f2b6a682f133852f6798a09c465da95921460cefb384740249860016040516105a99190610d21565b60405180910390a15b50505050565b60688060000160009054906101000a900473ffffffffffffffffffffffffffffffffffffffff16908060010160009054906101000a900473ffffffffffffffffffffffffffffffffffffffff16905082565b610612610701565b73ffffffffffffffffffffffffffffffffffffffff166106306101b2565b73ffffffffffffffffffffffffffffffffffffffff1614610686576040517f08c379a000000000000000000000000000000000000000000000000000000000815260040161067d90610beb565b60405180910390fd5b600073ffffffffffffffffffffffffffffffffffffffff168173ffffffffffffffffffffffffffffffffffffffff16036106f5576040517f08c379a00000000000000000000000000000000000000000000000000000000081526004016106ec90610dae565b60405180910390fd5b6106fe81610709565b50565b600033905090565b6000603360009054906101000a900473ffffffffffffffffffffffffffffffffffffffff16905081603360006101000a81548173ffffffffffffffffffffffffffffffffffffffff021916908373ffffffffffffffffffffffffffffffffffffffff1602179055508173ffffffffffffffffffffffffffffffffffffffff168173ffffffffffffffffffffffffffffffffffffffff167f8be0079c531659141344cd1fd0a4f28419497f9722a3daafe3b4186f6b6457e060405160405180910390a35050565b60008060019054906101000a900460ff16156108465760018260ff161480156107fe57506107fc306108bf565b155b61083d576040517f08c379a000000000000000000000000000000000000000000000000000000000815260040161083490610e40565b60405180910390fd5b600090506108ba565b8160ff1660008054906101000a900460ff1660ff161061089b576040517f08c379a000000000000000000000000000000000000000000000000000000000815260040161089290610e40565b60405180910390fd5b816000806101000a81548160ff021916908360ff160217905550600190505b919050565b6000808273ffffffffffffffffffffffffffffffffffffffff163b119050919050565b600073ffffffffffffffffffffffffffffffffffffffff82169050919050565b6000819050919050565b600061092761092261091d846108e2565b610902565b6108e2565b9050919050565b60006109398261090c565b9050919050565b600061094b8261092e565b9050919050565b61095b81610940565b82525050565b60006020820190506109766000830184610952565b92915050565b6000610987826108e2565b9050919050565b6109978161097c565b82525050565b60006020820190506109b2600083018461098e565b92915050565b600080fd5b60006109c88261097c565b9050919050565b6109d8816109bd565b81146109e357600080fd5b50565b6000813590506109f5816109cf565b92915050565b6000610a068261097c565b9050919050565b610a16816109fb565b8114610a2157600080fd5b50565b600081359050610a3381610a0d565b92915050565b6000610a448261097c565b9050919050565b610a5481610a39565b8114610a5f57600080fd5b50565b600081359050610a7181610a4b565b92915050565b600080600060608486031215610a9057610a8f6109b8565b5b6000610a9e868287016109e6565b9350506020610aaf86828701610a24565b9250506040610ac086828701610a62565b9150509250925092565b6000610ad58261092e565b9050919050565b610ae581610aca565b82525050565b6000610af68261092e565b9050919050565b610b0681610aeb565b82525050565b6000604082019050610b216000830185610adc565b610b2e6020830184610afd565b9392505050565b610b3e8161097c565b8114610b4957600080fd5b50565b600081359050610b5b81610b35565b92915050565b600060208284031215610b7757610b766109b8565b5b6000610b8584828501610b4c565b91505092915050565b600082825260208201905092915050565b7f4f776e61626c653a2063616c6c6572206973206e6f7420746865206f776e6572600082015250565b6000610bd5602083610b8e565b9150610be082610b9f565b602082019050919050565b60006020820190508181036000830152610c0481610bc8565b9050919050565b7f4e487b7100000000000000000000000000000000000000000000000000000000600052600160045260246000fd5b6000819050919050565b610c4d81610c3a565b82525050565b6000602082019050610c686000830184610c44565b92915050565b6000610c798261097c565b9050919050565b610c8981610c6e565b8114610c9457600080fd5b50565b600081519050610ca681610c80565b92915050565b600060208284031215610cc257610cc16109b8565b5b6000610cd084828501610c97565b91505092915050565b6000819050919050565b600060ff82169050919050565b6000610d0b610d06610d0184610cd9565b610902565b610ce3565b9050919050565b610d1b81610cf0565b82525050565b6000602082019050610d366000830184610d12565b92915050565b7f4f776e61626c653a206e6577206f776e657220697320746865207a65726f206160008201527f6464726573730000000000000000000000000000000000000000000000000000602082015250565b6000610d98602683610b8e565b9150610da382610d3c565b604082019050919050565b60006020820190508181036000830152610dc781610d8b565b9050919050565b7f496e697469616c697a61626c653a20636f6e747261637420697320616c72656160008201527f647920696e697469616c697a6564000000000000000000000000000000000000602082015250565b6000610e2a602e83610b8e565b9150610e3582610dce565b604082019050919050565b60006020820190508181036000830152610e5981610e1d565b905091905056fea2646970667358221220d7a87f034a22ad3d73acca3d0f6d6de6948c640718fbbecdcaa92ef70cf337c064736f6c634300080d0033",
  "linkReferences": {},
  "deployedLinkReferences": {}
}