{
  "_format": "hh-sol-artifact-1",
  "contractName": "reward",
  "sourceName": "contracts/Reward.sol",
  "abi": [
    {
      "anonymous": false,
      "inputs": [
        {
          "indexed": false,
          "internalType": "uint8",
          "name": "version",
          "type": "uint8"
        }
      ],
      "name": "Initialized",
      "type": "event"
    },
    {
      "anonymous": false,
      "inputs": [
        {
          "indexed": true,
          "internalType": "address",
          "name": "previousOwner",
          "type": "address"
        },
        {
          "indexed": true,
          "internalType": "address",
          "name": "newOwner",
          "type": "address"
        }
      ],
      "name": "OwnershipTransferred",
      "type": "event"
    },
    {
      "inputs": [],
      "name": "cfaV1",
      "outputs": [
        {
          "internalType": "contract ISuperfluid",
          "name": "host",
          "type": "address"
        },
        {
          "internalType": "contract IConstantFlowAgreementV1",
          "name": "cfa",
          "type": "address"
        }
      ],
      "stateMutability": "view",
      "type": "function"
    },
    {
      "inputs": [],
      "name": "idFlowRates",
      "outputs": [
        {
          "internalType": "uint256",
          "name": "",
          "type": "uint256"
        }
      ],
      "stateMutability": "view",
      "type": "function"
    },
    {
      "inputs": [
        {
          "internalType": "uint256",
          "name": "",
          "type": "uint256"
        }
      ],
      "name": "idToflowRates",
      "outputs": [
        {
          "internalType": "int96",
          "name": "",
          "type": "int96"
        }
      ],
      "stateMutability": "view",
      "type": "function"
    },
    {
      "inputs": [
        {
          "internalType": "contract ISuperToken",
          "name": "_superToken",
          "type": "address"
        },
        {
          "internalType": "contract ISuperfluid",
          "name": "_host",
          "type": "address"
        },
        {
          "internalType": "contract IConstantFlowAgreementV1",
          "name": "_cfa",
          "type": "address"
        }
      ],
      "name": "initialize",
      "outputs": [],
      "stateMutability": "nonpayable",
      "type": "function"
    },
    {
      "inputs": [],
      "name": "owner",
      "outputs": [
        {
          "internalType": "address",
          "name": "",
          "type": "address"
        }
      ],
      "stateMutability": "view",
      "type": "function"
    },
    {
      "inputs": [],
      "name": "renounceOwnership",
      "outputs": [],
      "stateMutability": "nonpayable",
      "type": "function"
    },
    {
      "inputs": [],
      "name": "superToken",
      "outputs": [
        {
          "internalType": "contract ISuperToken",
          "name": "",
          "type": "address"
        }
      ],
      "stateMutability": "view",
      "type": "function"
    },
    {
      "inputs": [
        {
          "internalType": "address",
          "name": "newOwner",
          "type": "address"
        }
      ],
      "name": "transferOwnership",
      "outputs": [],
      "stateMutability": "nonpayable",
      "type": "function"
    }
  ],
  "bytecode": "0x608060405234801561001057600080fd5b50610ff4806100206000396000f3fe608060405234801561001057600080fd5b50600436106100885760003560e01c80638da5cb5b1161005b5780638da5cb5b14610103578063c0c53b8b14610121578063d3112b2e1461013d578063f2fde38b1461015c57610088565b80632b4116f71461008d5780632f6446a3146100ab57806345999ad3146100db578063715018a6146100f9575b600080fd5b610095610178565b6040516100a291906109fb565b60405180910390f35b6100c560048036038101906100c09190610a51565b61019e565b6040516100d29190610a9a565b60405180910390f35b6100e36101be565b6040516100f09190610ac4565b60405180910390f35b6101016101c4565b005b61010b61024c565b6040516101189190610b00565b60405180910390f35b61013b60048036038101906101369190610bd5565b610276565b005b610145610652565b604051610153929190610c6a565b60405180910390f35b61017660048036038101906101719190610cbf565b6106a4565b005b606560009054906101000a900473ffffffffffffffffffffffffffffffffffffffff1681565b606a6020528060005260406000206000915054906101000a9004600b0b81565b606b5481565b6101cc61079b565b73ffffffffffffffffffffffffffffffffffffffff166101ea61024c565b73ffffffffffffffffffffffffffffffffffffffff1614610240576040517f08c379a000000000000000000000000000000000000000000000000000000000815260040161023790610d49565b60405180910390fd5b61024a60006107a3565b565b6000603360009054906101000a900473ffffffffffffffffffffffffffffffffffffffff16905090565b60006102826001610869565b905080156102a6576001600060016101000a81548160ff0219169083151502179055505b83606560006101000a81548173ffffffffffffffffffffffffffffffffffffffff021916908373ffffffffffffffffffffffffffffffffffffffff16021790555082606660006101000a81548173ffffffffffffffffffffffffffffffffffffffff021916908373ffffffffffffffffffffffffffffffffffffffff16021790555081606760006101000a81548173ffffffffffffffffffffffffffffffffffffffff021916908373ffffffffffffffffffffffffffffffffffffffff160217905550600073ffffffffffffffffffffffffffffffffffffffff16606560009054906101000a900473ffffffffffffffffffffffffffffffffffffffff1673ffffffffffffffffffffffffffffffffffffffff16036103c8576103c7610d69565b5b600073ffffffffffffffffffffffffffffffffffffffff16606660009054906101000a900473ffffffffffffffffffffffffffffffffffffffff1673ffffffffffffffffffffffffffffffffffffffff160361042757610426610d69565b5b600073ffffffffffffffffffffffffffffffffffffffff16606760009054906101000a900473ffffffffffffffffffffffffffffffffffffffff1673ffffffffffffffffffffffffffffffffffffffff160361048657610485610d69565b5b60405180604001604052808473ffffffffffffffffffffffffffffffffffffffff1681526020018473ffffffffffffffffffffffffffffffffffffffff1663b6d200de7fa9214cc96615e0085d3bb077758db69497dc2dce3b2b1e97bc93c3d18d83efd36040518263ffffffff1660e01b81526004016105069190610db1565b602060405180830381865afa158015610523573d6000803e3d6000fd5b505050506040513d601f19601f820116820180604052508101906105479190610e0a565b73ffffffffffffffffffffffffffffffffffffffff16815250606860008201518160000160006101000a81548173ffffffffffffffffffffffffffffffffffffffff021916908373ffffffffffffffffffffffffffffffffffffffff16021790555060208201518160010160006101000a81548173ffffffffffffffffffffffffffffffffffffffff021916908373ffffffffffffffffffffffffffffffffffffffff160217905550905050801561064c5760008060016101000a81548160ff0219169083151502179055507f7f26b83ff96e1f2b6a682f133852f6798a09c465da95921460cefb384740249860016040516106439190610e7f565b60405180910390a15b50505050565b60688060000160009054906101000a900473ffffffffffffffffffffffffffffffffffffffff16908060010160009054906101000a900473ffffffffffffffffffffffffffffffffffffffff16905082565b6106ac61079b565b73ffffffffffffffffffffffffffffffffffffffff166106ca61024c565b73ffffffffffffffffffffffffffffffffffffffff1614610720576040517f08c379a000000000000000000000000000000000000000000000000000000000815260040161071790610d49565b60405180910390fd5b600073ffffffffffffffffffffffffffffffffffffffff168173ffffffffffffffffffffffffffffffffffffffff160361078f576040517f08c379a000000000000000000000000000000000000000000000000000000000815260040161078690610f0c565b60405180910390fd5b610798816107a3565b50565b600033905090565b6000603360009054906101000a900473ffffffffffffffffffffffffffffffffffffffff16905081603360006101000a81548173ffffffffffffffffffffffffffffffffffffffff021916908373ffffffffffffffffffffffffffffffffffffffff1602179055508173ffffffffffffffffffffffffffffffffffffffff168173ffffffffffffffffffffffffffffffffffffffff167f8be0079c531659141344cd1fd0a4f28419497f9722a3daafe3b4186f6b6457e060405160405180910390a35050565b60008060019054906101000a900460ff16156108e05760018260ff16148015610898575061089630610959565b155b6108d7576040517f08c379a00000000000000000000000000000000000000000000000000000000081526004016108ce90610f9e565b60405180910390fd5b60009050610954565b8160ff1660008054906101000a900460ff1660ff1610610935576040517f08c379a000000000000000000000000000000000000000000000000000000000815260040161092c90610f9e565b60405180910390fd5b816000806101000a81548160ff021916908360ff160217905550600190505b919050565b6000808273ffffffffffffffffffffffffffffffffffffffff163b119050919050565b600073ffffffffffffffffffffffffffffffffffffffff82169050919050565b6000819050919050565b60006109c16109bc6109b78461097c565b61099c565b61097c565b9050919050565b60006109d3826109a6565b9050919050565b60006109e5826109c8565b9050919050565b6109f5816109da565b82525050565b6000602082019050610a1060008301846109ec565b92915050565b600080fd5b6000819050919050565b610a2e81610a1b565b8114610a3957600080fd5b50565b600081359050610a4b81610a25565b92915050565b600060208284031215610a6757610a66610a16565b5b6000610a7584828501610a3c565b91505092915050565b600081600b0b9050919050565b610a9481610a7e565b82525050565b6000602082019050610aaf6000830184610a8b565b92915050565b610abe81610a1b565b82525050565b6000602082019050610ad96000830184610ab5565b92915050565b6000610aea8261097c565b9050919050565b610afa81610adf565b82525050565b6000602082019050610b156000830184610af1565b92915050565b6000610b2682610adf565b9050919050565b610b3681610b1b565b8114610b4157600080fd5b50565b600081359050610b5381610b2d565b92915050565b6000610b6482610adf565b9050919050565b610b7481610b59565b8114610b7f57600080fd5b50565b600081359050610b9181610b6b565b92915050565b6000610ba282610adf565b9050919050565b610bb281610b97565b8114610bbd57600080fd5b50565b600081359050610bcf81610ba9565b92915050565b600080600060608486031215610bee57610bed610a16565b5b6000610bfc86828701610b44565b9350506020610c0d86828701610b82565b9250506040610c1e86828701610bc0565b9150509250925092565b6000610c33826109c8565b9050919050565b610c4381610c28565b82525050565b6000610c54826109c8565b9050919050565b610c6481610c49565b82525050565b6000604082019050610c7f6000830185610c3a565b610c8c6020830184610c5b565b9392505050565b610c9c81610adf565b8114610ca757600080fd5b50565b600081359050610cb981610c93565b92915050565b600060208284031215610cd557610cd4610a16565b5b6000610ce384828501610caa565b91505092915050565b600082825260208201905092915050565b7f4f776e61626c653a2063616c6c6572206973206e6f7420746865206f776e6572600082015250565b6000610d33602083610cec565b9150610d3e82610cfd565b602082019050919050565b60006020820190508181036000830152610d6281610d26565b9050919050565b7f4e487b7100000000000000000000000000000000000000000000000000000000600052600160045260246000fd5b6000819050919050565b610dab81610d98565b82525050565b6000602082019050610dc66000830184610da2565b92915050565b6000610dd782610adf565b9050919050565b610de781610dcc565b8114610df257600080fd5b50565b600081519050610e0481610dde565b92915050565b600060208284031215610e2057610e1f610a16565b5b6000610e2e84828501610df5565b91505092915050565b6000819050919050565b600060ff82169050919050565b6000610e69610e64610e5f84610e37565b61099c565b610e41565b9050919050565b610e7981610e4e565b82525050565b6000602082019050610e946000830184610e70565b92915050565b7f4f776e61626c653a206e6577206f776e657220697320746865207a65726f206160008201527f6464726573730000000000000000000000000000000000000000000000000000602082015250565b6000610ef6602683610cec565b9150610f0182610e9a565b604082019050919050565b60006020820190508181036000830152610f2581610ee9565b9050919050565b7f496e697469616c697a61626c653a20636f6e747261637420697320616c72656160008201527f647920696e697469616c697a6564000000000000000000000000000000000000602082015250565b6000610f88602e83610cec565b9150610f9382610f2c565b604082019050919050565b60006020820190508181036000830152610fb781610f7b565b905091905056fea264697066735822122020fc681515249e91261d249ddcef0c654ad3b562d5c479e07d5751c1f3de458d64736f6c634300080d0033",
  "linkReferences": {},
  "deployedLinkReferences": {}
}