{
  "_format": "hh-sol-artifact-1",
  "contractName": "Dex",
  "sourceName": "contracts/Dex.sol",
  "abi": [
    {
      "anonymous": false,
      "inputs": [
        {
          "indexed": true,
          "internalType": "address",
          "name": "owner",
          "type": "address"
        },
        {
          "indexed": false,
          "internalType": "enum Category",
          "name": "categorie",
          "type": "uint8"
        },
        {
          "indexed": false,
          "internalType": "uint256",
          "name": "designId",
          "type": "uint256"
        }
      ],
      "name": "BuyNft",
      "type": "event"
    },
    {
      "anonymous": false,
      "inputs": [
        {
          "indexed": false,
          "internalType": "uint8",
          "name": "version",
          "type": "uint8"
        }
      ],
      "name": "Initialized",
      "type": "event"
    },
    {
      "anonymous": false,
      "inputs": [
        {
          "indexed": true,
          "internalType": "address",
          "name": "previousOwner",
          "type": "address"
        },
        {
          "indexed": true,
          "internalType": "address",
          "name": "newOwner",
          "type": "address"
        }
      ],
      "name": "OwnershipTransferred",
      "type": "event"
    },
    {
      "anonymous": false,
      "inputs": [
        {
          "indexed": true,
          "internalType": "address",
          "name": "sender",
          "type": "address"
        },
        {
          "indexed": false,
          "internalType": "uint256",
          "name": "amount",
          "type": "uint256"
        }
      ],
      "name": "ReceivedMoney",
      "type": "event"
    },
    {
      "anonymous": false,
      "inputs": [
        {
          "indexed": true,
          "internalType": "address",
          "name": "owner",
          "type": "address"
        },
        {
          "indexed": false,
          "internalType": "enum Category",
          "name": "categorie",
          "type": "uint8"
        },
        {
          "indexed": false,
          "internalType": "uint256",
          "name": "tokenId",
          "type": "uint256"
        },
        {
          "indexed": false,
          "internalType": "uint256",
          "name": "newDesignId",
          "type": "uint256"
        },
        {
          "indexed": false,
          "internalType": "uint256",
          "name": "amount",
          "type": "uint256"
        },
        {
          "indexed": false,
          "internalType": "uint256",
          "name": "upgradeIndex",
          "type": "uint256"
        }
      ],
      "name": "UpgradeNft",
      "type": "event"
    },
    {
      "anonymous": false,
      "inputs": [
        {
          "indexed": true,
          "internalType": "address",
          "name": "receiver",
          "type": "address"
        },
        {
          "indexed": false,
          "internalType": "uint256",
          "name": "amount",
          "type": "uint256"
        }
      ],
      "name": "WithdrawMoney",
      "type": "event"
    },
    {
      "inputs": [],
      "name": "bedroomNft",
      "outputs": [
        {
          "internalType": "contract BedroomNftInterface",
          "name": "",
          "type": "address"
        }
      ],
      "stateMutability": "view",
      "type": "function"
    },
    {
      "inputs": [
        {
          "internalType": "enum Category",
          "name": "_categorie",
          "type": "uint8"
        },
        {
          "internalType": "uint256",
          "name": "_designId",
          "type": "uint256"
        }
      ],
      "name": "buyNft",
      "outputs": [],
      "stateMutability": "payable",
      "type": "function"
    },
    {
      "inputs": [],
      "name": "getBalance",
      "outputs": [
        {
          "internalType": "uint256",
          "name": "",
          "type": "uint256"
        }
      ],
      "stateMutability": "view",
      "type": "function"
    },
    {
      "inputs": [],
      "name": "owner",
      "outputs": [
        {
          "internalType": "address",
          "name": "",
          "type": "address"
        }
      ],
      "stateMutability": "view",
      "type": "function"
    },
    {
      "inputs": [
        {
          "internalType": "enum Category",
          "name": "",
          "type": "uint8"
        }
      ],
      "name": "prices",
      "outputs": [
        {
          "internalType": "uint256",
          "name": "purchaseCost",
          "type": "uint256"
        }
      ],
      "stateMutability": "view",
      "type": "function"
    },
    {
      "inputs": [],
      "name": "renounceOwnership",
      "outputs": [],
      "stateMutability": "nonpayable",
      "type": "function"
    },
    {
      "inputs": [
        {
          "internalType": "enum Category",
          "name": "_categorie",
          "type": "uint8"
        },
        {
          "internalType": "uint256",
          "name": "_amount",
          "type": "uint256"
        }
      ],
      "name": "setBuyingPrices",
      "outputs": [],
      "stateMutability": "nonpayable",
      "type": "function"
    },
    {
      "inputs": [
        {
          "internalType": "address",
          "name": "_newAddress",
          "type": "address"
        }
      ],
      "name": "setTeamWallet",
      "outputs": [],
      "stateMutability": "nonpayable",
      "type": "function"
    },
    {
      "inputs": [
        {
          "internalType": "enum Category",
          "name": "_categorie",
          "type": "uint8"
        },
        {
          "internalType": "uint256",
          "name": "_upgradeIndex",
          "type": "uint256"
        },
        {
          "internalType": "uint256",
          "name": "_amount",
          "type": "uint256"
        }
      ],
      "name": "setUpPrices",
      "outputs": [],
      "stateMutability": "nonpayable",
      "type": "function"
    },
    {
      "inputs": [],
      "name": "sleepToken",
      "outputs": [
        {
          "internalType": "contract SleepTokenInterface",
          "name": "",
          "type": "address"
        }
      ],
      "stateMutability": "view",
      "type": "function"
    },
    {
      "inputs": [
        {
          "internalType": "address",
          "name": "newOwner",
          "type": "address"
        }
      ],
      "name": "transferOwnership",
      "outputs": [],
      "stateMutability": "nonpayable",
      "type": "function"
    },
    {
      "inputs": [
        {
          "internalType": "enum Category",
          "name": "_categorie",
          "type": "uint8"
        },
        {
          "internalType": "uint256",
          "name": "_tokenId",
          "type": "uint256"
        },
        {
          "internalType": "uint256",
          "name": "_newDesignId",
          "type": "uint256"
        },
        {
          "internalType": "uint256",
          "name": "_amount",
          "type": "uint256"
        },
        {
          "internalType": "uint256",
          "name": "_upgradeIndex",
          "type": "uint256"
        }
      ],
      "name": "upgradeNft",
      "outputs": [],
      "stateMutability": "nonpayable",
      "type": "function"
    },
    {
      "stateMutability": "payable",
      "type": "receive"
    }
  ],
  "bytecode": "0x608060405234801561001057600080fd5b5061198c806100206000396000f3fe6080604052600436106100ab5760003560e01c806375d4b9751161006457806375d4b975146101e05780638a3177a3146102095780638da5cb5b1461024657806392c39a4814610271578063dccf643c1461029c578063f2fde38b146102c557610100565b806307ed5003146101055780630bf98f091461013057806312065fe0146101595780631525ff7d146101845780636b3a7b00146101ad578063715018a6146101c957610100565b36610100573373ffffffffffffffffffffffffffffffffffffffff167fe3abd548243c02b6b6adfaa9f4d721e545bef8c1e915fd1158695d8c128be0f5346040516100f6919061103b565b60405180910390a2005b600080fd5b34801561011157600080fd5b5061011a6102ee565b60405161012791906110d5565b60405180910390f35b34801561013c57600080fd5b5061015760048036038101906101529190611146565b610314565b005b34801561016557600080fd5b5061016e6103d3565b60405161017b919061103b565b60405180910390f35b34801561019057600080fd5b506101ab60048036038101906101a691906111c4565b610457565b005b6101c760048036038101906101c29190611146565b610517565b005b3480156101d557600080fd5b506101de6106bc565b005b3480156101ec57600080fd5b50610207600480360381019061020291906111f1565b610744565b005b34801561021557600080fd5b50610230600480360381019061022b9190611244565b610815565b60405161023d919061103b565b60405180910390f35b34801561025257600080fd5b5061025b610833565b6040516102689190611280565b60405180910390f35b34801561027d57600080fd5b5061028661085d565b60405161029391906112bc565b60405180910390f35b3480156102a857600080fd5b506102c360048036038101906102be91906112d7565b610883565b005b3480156102d157600080fd5b506102ec60048036038101906102e791906111c4565b610e5d565b005b606660009054906101000a900473ffffffffffffffffffffffffffffffffffffffff1681565b61031c610f54565b73ffffffffffffffffffffffffffffffffffffffff1661033a610833565b73ffffffffffffffffffffffffffffffffffffffff1614610390576040517f08c379a0000000000000000000000000000000000000000000000000000000008152600401610387906113af565b60405180910390fd5b80606860008460028111156103a8576103a76113cf565b5b60028111156103ba576103b96113cf565b5b8152602001908152602001600020600001819055505050565b60006103dd610f54565b73ffffffffffffffffffffffffffffffffffffffff166103fb610833565b73ffffffffffffffffffffffffffffffffffffffff1614610451576040517f08c379a0000000000000000000000000000000000000000000000000000000008152600401610448906113af565b60405180910390fd5b47905090565b61045f610f54565b73ffffffffffffffffffffffffffffffffffffffff1661047d610833565b73ffffffffffffffffffffffffffffffffffffffff16146104d3576040517f08c379a00000000000000000000000000000000000000000000000000000000081526004016104ca906113af565b60405180910390fd5b80606560006101000a81548173ffffffffffffffffffffffffffffffffffffffff021916908373ffffffffffffffffffffffffffffffffffffffff16021790555050565b6068600083600281111561052e5761052d6113cf565b5b60028111156105405761053f6113cf565b5b815260200190815260200160002060000154341015610594576040517f08c379a000000000000000000000000000000000000000000000000000000000815260040161058b9061144a565b60405180910390fd5b600073ffffffffffffffffffffffffffffffffffffffff16606760009054906101000a900473ffffffffffffffffffffffffffffffffffffffff1673ffffffffffffffffffffffffffffffffffffffff1603610625576040517f08c379a000000000000000000000000000000000000000000000000000000000815260040161061c906114b6565b60405180910390fd5b606760009054906101000a900473ffffffffffffffffffffffffffffffffffffffff1673ffffffffffffffffffffffffffffffffffffffff16636994f475823485336040518563ffffffff1660e01b8152600401610686949392919061151e565b600060405180830381600087803b1580156106a057600080fd5b505af11580156106b4573d6000803e3d6000fd5b505050505050565b6106c4610f54565b73ffffffffffffffffffffffffffffffffffffffff166106e2610833565b73ffffffffffffffffffffffffffffffffffffffff1614610738576040517f08c379a000000000000000000000000000000000000000000000000000000000815260040161072f906113af565b60405180910390fd5b6107426000610f5c565b565b61074c610f54565b73ffffffffffffffffffffffffffffffffffffffff1661076a610833565b73ffffffffffffffffffffffffffffffffffffffff16146107c0576040517f08c379a00000000000000000000000000000000000000000000000000000000081526004016107b7906113af565b60405180910390fd5b80606860008560028111156107d8576107d76113cf565b5b60028111156107ea576107e96113cf565b5b8152602001908152602001600020600101600084815260200190815260200160002081905550505050565b60686020528060005260406000206000915090508060000154905081565b6000603360009054906101000a900473ffffffffffffffffffffffffffffffffffffffff16905090565b606760009054906101000a900473ffffffffffffffffffffffffffffffffffffffff1681565b6068600086600281111561089a576108996113cf565b5b60028111156108ac576108ab6113cf565b5b81526020019081526020016000206001016000828152602001908152602001600020548214610910576040517f08c379a0000000000000000000000000000000000000000000000000000000008152600401610907906115af565b60405180910390fd5b600073ffffffffffffffffffffffffffffffffffffffff16606760009054906101000a900473ffffffffffffffffffffffffffffffffffffffff1673ffffffffffffffffffffffffffffffffffffffff16036109a1576040517f08c379a0000000000000000000000000000000000000000000000000000000008152600401610998906114b6565b60405180910390fd5b600073ffffffffffffffffffffffffffffffffffffffff16606660009054906101000a900473ffffffffffffffffffffffffffffffffffffffff1673ffffffffffffffffffffffffffffffffffffffff1603610a32576040517f08c379a0000000000000000000000000000000000000000000000000000000008152600401610a29906114b6565b60405180910390fd5b6000606660009054906101000a900473ffffffffffffffffffffffffffffffffffffffff1673ffffffffffffffffffffffffffffffffffffffff166370a08231336040518263ffffffff1660e01b8152600401610a8f9190611280565b602060405180830381865afa158015610aac573d6000803e3d6000fd5b505050506040513d601f19601f82011682018060405250810190610ad091906115e4565b905082811015610b15576040517f08c379a0000000000000000000000000000000000000000000000000000000008152600401610b0c9061165d565b60405180910390fd5b82606660009054906101000a900473ffffffffffffffffffffffffffffffffffffffff1673ffffffffffffffffffffffffffffffffffffffff1663dd62ed3e33306040518363ffffffff1660e01b8152600401610b7392919061167d565b602060405180830381865afa158015610b90573d6000803e3d6000fd5b505050506040513d601f19601f82011682018060405250810190610bb491906115e4565b1015610bf5576040517f08c379a0000000000000000000000000000000000000000000000000000000008152600401610bec906116f2565b60405180910390fd5b606660009054906101000a900473ffffffffffffffffffffffffffffffffffffffff1673ffffffffffffffffffffffffffffffffffffffff166379cc679033856040518363ffffffff1660e01b8152600401610c52929190611712565b600060405180830381600087803b158015610c6c57600080fd5b505af1158015610c80573d6000803e3d6000fd5b505050508083606660009054906101000a900473ffffffffffffffffffffffffffffffffffffffff1673ffffffffffffffffffffffffffffffffffffffff166370a08231336040518263ffffffff1660e01b8152600401610ce19190611280565b602060405180830381865afa158015610cfe573d6000803e3d6000fd5b505050506040513d601f19601f82011682018060405250810190610d2291906115e4565b610d2c919061176a565b14610d6c576040517f08c379a0000000000000000000000000000000000000000000000000000000008152600401610d639061180c565b60405180910390fd5b606760009054906101000a900473ffffffffffffffffffffffffffffffffffffffff1673ffffffffffffffffffffffffffffffffffffffff1663eec5bcc3868686866040518563ffffffff1660e01b8152600401610dcd949392919061182c565b600060405180830381600087803b158015610de757600080fd5b505af1158015610dfb573d6000803e3d6000fd5b505050503373ffffffffffffffffffffffffffffffffffffffff167f049f5cb39d091767faf0b141c007876562394d558ae7918f99608b2a6b3878488787878787604051610e4d959493929190611871565b60405180910390a2505050505050565b610e65610f54565b73ffffffffffffffffffffffffffffffffffffffff16610e83610833565b73ffffffffffffffffffffffffffffffffffffffff1614610ed9576040517f08c379a0000000000000000000000000000000000000000000000000000000008152600401610ed0906113af565b60405180910390fd5b600073ffffffffffffffffffffffffffffffffffffffff168173ffffffffffffffffffffffffffffffffffffffff1603610f48576040517f08c379a0000000000000000000000000000000000000000000000000000000008152600401610f3f90611936565b60405180910390fd5b610f5181610f5c565b50565b600033905090565b6000603360009054906101000a900473ffffffffffffffffffffffffffffffffffffffff16905081603360006101000a81548173ffffffffffffffffffffffffffffffffffffffff021916908373ffffffffffffffffffffffffffffffffffffffff1602179055508173ffffffffffffffffffffffffffffffffffffffff168173ffffffffffffffffffffffffffffffffffffffff167f8be0079c531659141344cd1fd0a4f28419497f9722a3daafe3b4186f6b6457e060405160405180910390a35050565b6000819050919050565b61103581611022565b82525050565b6000602082019050611050600083018461102c565b92915050565b600073ffffffffffffffffffffffffffffffffffffffff82169050919050565b6000819050919050565b600061109b61109661109184611056565b611076565b611056565b9050919050565b60006110ad82611080565b9050919050565b60006110bf826110a2565b9050919050565b6110cf816110b4565b82525050565b60006020820190506110ea60008301846110c6565b92915050565b600080fd5b6003811061110257600080fd5b50565b600081359050611114816110f5565b92915050565b61112381611022565b811461112e57600080fd5b50565b6000813590506111408161111a565b92915050565b6000806040838503121561115d5761115c6110f0565b5b600061116b85828601611105565b925050602061117c85828601611131565b9150509250929050565b600061119182611056565b9050919050565b6111a181611186565b81146111ac57600080fd5b50565b6000813590506111be81611198565b92915050565b6000602082840312156111da576111d96110f0565b5b60006111e8848285016111af565b91505092915050565b60008060006060848603121561120a576112096110f0565b5b600061121886828701611105565b935050602061122986828701611131565b925050604061123a86828701611131565b9150509250925092565b60006020828403121561125a576112596110f0565b5b600061126884828501611105565b91505092915050565b61127a81611186565b82525050565b60006020820190506112956000830184611271565b92915050565b60006112a6826110a2565b9050919050565b6112b68161129b565b82525050565b60006020820190506112d160008301846112ad565b92915050565b600080600080600060a086880312156112f3576112f26110f0565b5b600061130188828901611105565b955050602061131288828901611131565b945050604061132388828901611131565b935050606061133488828901611131565b925050608061134588828901611131565b9150509295509295909350565b600082825260208201905092915050565b7f4f776e61626c653a2063616c6c6572206973206e6f7420746865206f776e6572600082015250565b6000611399602083611352565b91506113a482611363565b602082019050919050565b600060208201905081810360008301526113c88161138c565b9050919050565b7f4e487b7100000000000000000000000000000000000000000000000000000000600052602160045260246000fd5b7f4e6f7420656e6f756768206d6f6e6579207761732073656e7400000000000000600082015250565b6000611434601983611352565b915061143f826113fe565b602082019050919050565b6000602082019050818103600083015261146381611427565b9050919050565b7f41646472657373206e6f7420636f6e6669677572656400000000000000000000600082015250565b60006114a0601683611352565b91506114ab8261146a565b602082019050919050565b600060208201905081810360008301526114cf81611493565b9050919050565b600381106114e7576114e66113cf565b5b50565b60008190506114f8826114d6565b919050565b6000611508826114ea565b9050919050565b611518816114fd565b82525050565b6000608082019050611533600083018761102c565b611540602083018661102c565b61154d604083018561150f565b61155a6060830184611271565b95945050505050565b7f57726f6e67207478000000000000000000000000000000000000000000000000600082015250565b6000611599600883611352565b91506115a482611563565b602082019050919050565b600060208201905081810360008301526115c88161158c565b9050919050565b6000815190506115de8161111a565b92915050565b6000602082840312156115fa576115f96110f0565b5b6000611608848285016115cf565b91505092915050565b7f4e6f7420656e6f7567682066756e647300000000000000000000000000000000600082015250565b6000611647601083611352565b915061165282611611565b602082019050919050565b600060208201905081810360008301526116768161163a565b9050919050565b60006040820190506116926000830185611271565b61169f6020830184611271565b9392505050565b7f436865636b20616c6c6f77616e63650000000000000000000000000000000000600082015250565b60006116dc600f83611352565b91506116e7826116a6565b602082019050919050565b6000602082019050818103600083015261170b816116cf565b9050919050565b60006040820190506117276000830185611271565b611734602083018461102c565b9392505050565b7f4e487b7100000000000000000000000000000000000000000000000000000000600052601160045260246000fd5b600061177582611022565b915061178083611022565b9250827fffffffffffffffffffffffffffffffffffffffffffffffffffffffffffffffff038211156117b5576117b461173b565b5b828201905092915050565b7f416e206572726f72206f63637572726564000000000000000000000000000000600082015250565b60006117f6601183611352565b9150611801826117c0565b602082019050919050565b60006020820190508181036000830152611825816117e9565b9050919050565b6000608082019050611841600083018761102c565b61184e602083018661102c565b61185b604083018561102c565b611868606083018461102c565b95945050505050565b600060a082019050611886600083018861150f565b611893602083018761102c565b6118a0604083018661102c565b6118ad606083018561102c565b6118ba608083018461102c565b9695505050505050565b7f4f776e61626c653a206e6577206f776e657220697320746865207a65726f206160008201527f6464726573730000000000000000000000000000000000000000000000000000602082015250565b6000611920602683611352565b915061192b826118c4565b604082019050919050565b6000602082019050818103600083015261194f81611913565b905091905056fea26469706673582212207f92194e2530a97e691ae5c3b5bdec3ba639eb5a904af20bf091c68afa2af17e64736f6c634300080d0033",
  "linkReferences": {},
  "deployedLinkReferences": {}
}