{
  "_format": "hh-sol-artifact-1",
  "contractName": "UpgradeNft",
  "sourceName": "contracts/UpgradeNft.sol",
  "abi": [
    {
      "inputs": [
        {
          "internalType": "uint64",
          "name": "_subscriptionId",
          "type": "uint64"
        },
        {
          "internalType": "address",
          "name": "_vrfCoordinator",
          "type": "address"
        },
        {
          "internalType": "bytes32",
          "name": "_keyHash",
          "type": "bytes32"
        }
      ],
      "stateMutability": "nonpayable",
      "type": "constructor"
    },
    {
      "inputs": [
        {
          "internalType": "address",
          "name": "have",
          "type": "address"
        },
        {
          "internalType": "address",
          "name": "want",
          "type": "address"
        }
      ],
      "name": "OnlyCoordinatorCanFulfill",
      "type": "error"
    },
    {
      "anonymous": false,
      "inputs": [
        {
          "indexed": true,
          "internalType": "address",
          "name": "account",
          "type": "address"
        },
        {
          "indexed": true,
          "internalType": "address",
          "name": "operator",
          "type": "address"
        },
        {
          "indexed": false,
          "internalType": "bool",
          "name": "approved",
          "type": "bool"
        }
      ],
      "name": "ApprovalForAll",
      "type": "event"
    },
    {
      "anonymous": false,
      "inputs": [
        {
          "indexed": true,
          "internalType": "address",
          "name": "previousOwner",
          "type": "address"
        },
        {
          "indexed": true,
          "internalType": "address",
          "name": "newOwner",
          "type": "address"
        }
      ],
      "name": "OwnershipTransferred",
      "type": "event"
    },
    {
      "anonymous": false,
      "inputs": [
        {
          "indexed": false,
          "internalType": "uint256[]",
          "name": "randomWords",
          "type": "uint256[]"
        }
      ],
      "name": "ReturnedRandomness",
      "type": "event"
    },
    {
      "anonymous": false,
      "inputs": [
        {
          "indexed": true,
          "internalType": "address",
          "name": "operator",
          "type": "address"
        },
        {
          "indexed": true,
          "internalType": "address",
          "name": "from",
          "type": "address"
        },
        {
          "indexed": true,
          "internalType": "address",
          "name": "to",
          "type": "address"
        },
        {
          "indexed": false,
          "internalType": "uint256[]",
          "name": "ids",
          "type": "uint256[]"
        },
        {
          "indexed": false,
          "internalType": "uint256[]",
          "name": "values",
          "type": "uint256[]"
        }
      ],
      "name": "TransferBatch",
      "type": "event"
    },
    {
      "anonymous": false,
      "inputs": [
        {
          "indexed": true,
          "internalType": "address",
          "name": "operator",
          "type": "address"
        },
        {
          "indexed": true,
          "internalType": "address",
          "name": "from",
          "type": "address"
        },
        {
          "indexed": true,
          "internalType": "address",
          "name": "to",
          "type": "address"
        },
        {
          "indexed": false,
          "internalType": "uint256",
          "name": "id",
          "type": "uint256"
        },
        {
          "indexed": false,
          "internalType": "uint256",
          "name": "value",
          "type": "uint256"
        }
      ],
      "name": "TransferSingle",
      "type": "event"
    },
    {
      "anonymous": false,
      "inputs": [
        {
          "indexed": false,
          "internalType": "string",
          "name": "value",
          "type": "string"
        },
        {
          "indexed": true,
          "internalType": "uint256",
          "name": "id",
          "type": "uint256"
        }
      ],
      "name": "URI",
      "type": "event"
    },
    {
      "anonymous": false,
      "inputs": [
        {
          "indexed": false,
          "internalType": "uint256",
          "name": "tokenId",
          "type": "uint256"
        },
        {
          "indexed": false,
          "internalType": "string",
          "name": "tokenURI",
          "type": "string"
        },
        {
          "components": [
            {
              "internalType": "uint256",
              "name": "attributeIndex",
              "type": "uint256"
            },
            {
              "internalType": "uint256",
              "name": "valueToAdd",
              "type": "uint256"
            },
            {
              "internalType": "uint256",
              "name": "valueToAddMax",
              "type": "uint256"
            },
            {
              "internalType": "address",
              "name": "owner",
              "type": "address"
            },
            {
              "internalType": "uint256",
              "name": "price",
              "type": "uint256"
            },
            {
              "internalType": "uint256",
              "name": "newDesignId",
              "type": "uint256"
            },
            {
              "internalType": "uint256",
              "name": "upgradeDesignId",
              "type": "uint256"
            }
          ],
          "indexed": false,
          "internalType": "struct UpgradeNft.UpgradeSpecifications",
          "name": "specifications",
          "type": "tuple"
        }
      ],
      "name": "UpgradeNftMinting",
      "type": "event"
    },
    {
      "inputs": [],
      "name": "COORDINATOR",
      "outputs": [
        {
          "internalType": "contract VRFCoordinatorV2Interface",
          "name": "",
          "type": "address"
        }
      ],
      "stateMutability": "view",
      "type": "function"
    },
    {
      "inputs": [
        {
          "internalType": "address",
          "name": "account",
          "type": "address"
        },
        {
          "internalType": "uint256",
          "name": "id",
          "type": "uint256"
        }
      ],
      "name": "balanceOf",
      "outputs": [
        {
          "internalType": "uint256",
          "name": "",
          "type": "uint256"
        }
      ],
      "stateMutability": "view",
      "type": "function"
    },
    {
      "inputs": [
        {
          "internalType": "address[]",
          "name": "accounts",
          "type": "address[]"
        },
        {
          "internalType": "uint256[]",
          "name": "ids",
          "type": "uint256[]"
        }
      ],
      "name": "balanceOfBatch",
      "outputs": [
        {
          "internalType": "uint256[]",
          "name": "",
          "type": "uint256[]"
        }
      ],
      "stateMutability": "view",
      "type": "function"
    },
    {
      "inputs": [],
      "name": "bedroomNftInstance",
      "outputs": [
        {
          "internalType": "contract IBedroomNft",
          "name": "",
          "type": "address"
        }
      ],
      "stateMutability": "view",
      "type": "function"
    },
    {
      "inputs": [],
      "name": "dexAddress",
      "outputs": [
        {
          "internalType": "address",
          "name": "",
          "type": "address"
        }
      ],
      "stateMutability": "view",
      "type": "function"
    },
    {
      "inputs": [],
      "name": "fileFormat",
      "outputs": [
        {
          "internalType": "string",
          "name": "",
          "type": "string"
        }
      ],
      "stateMutability": "view",
      "type": "function"
    },
    {
      "inputs": [
        {
          "internalType": "uint256",
          "name": "_tokenId",
          "type": "uint256"
        }
      ],
      "name": "getName",
      "outputs": [
        {
          "internalType": "string",
          "name": "",
          "type": "string"
        }
      ],
      "stateMutability": "pure",
      "type": "function"
    },
    {
      "inputs": [
        {
          "internalType": "uint256",
          "name": "_tokenId",
          "type": "uint256"
        }
      ],
      "name": "getUpgradeNftSpecifications",
      "outputs": [
        {
          "components": [
            {
              "internalType": "uint256",
              "name": "attributeIndex",
              "type": "uint256"
            },
            {
              "internalType": "uint256",
              "name": "valueToAdd",
              "type": "uint256"
            },
            {
              "internalType": "uint256",
              "name": "valueToAddMax",
              "type": "uint256"
            },
            {
              "internalType": "address",
              "name": "owner",
              "type": "address"
            },
            {
              "internalType": "uint256",
              "name": "price",
              "type": "uint256"
            },
            {
              "internalType": "uint256",
              "name": "newDesignId",
              "type": "uint256"
            },
            {
              "internalType": "uint256",
              "name": "upgradeDesignId",
              "type": "uint256"
            }
          ],
          "internalType": "struct UpgradeNft.UpgradeSpecifications",
          "name": "",
          "type": "tuple"
        }
      ],
      "stateMutability": "view",
      "type": "function"
    },
    {
      "inputs": [
        {
          "internalType": "address",
          "name": "account",
          "type": "address"
        },
        {
          "internalType": "address",
          "name": "operator",
          "type": "address"
        }
      ],
      "name": "isApprovedForAll",
      "outputs": [
        {
          "internalType": "bool",
          "name": "",
          "type": "bool"
        }
      ],
      "stateMutability": "view",
      "type": "function"
    },
    {
      "inputs": [
        {
          "internalType": "uint256",
          "name": "_newDesignId",
          "type": "uint256"
        },
        {
          "internalType": "uint256",
          "name": "_upgradeDesignId",
          "type": "uint256"
        },
        {
          "internalType": "uint256",
          "name": "_price",
          "type": "uint256"
        },
        {
          "internalType": "uint256",
          "name": "_indexAttribute",
          "type": "uint256"
        },
        {
          "internalType": "uint256",
          "name": "_valueToAddMax",
          "type": "uint256"
        },
        {
          "internalType": "address",
          "name": "_owner",
          "type": "address"
        }
      ],
      "name": "mintingUpgradeNft",
      "outputs": [],
      "stateMutability": "nonpayable",
      "type": "function"
    },
    {
      "inputs": [],
      "name": "owner",
      "outputs": [
        {
          "internalType": "address",
          "name": "",
          "type": "address"
        }
      ],
      "stateMutability": "view",
      "type": "function"
    },
    {
      "inputs": [
        {
          "internalType": "uint256",
          "name": "requestId",
          "type": "uint256"
        },
        {
          "internalType": "uint256[]",
          "name": "randomWords",
          "type": "uint256[]"
        }
      ],
      "name": "rawFulfillRandomWords",
      "outputs": [],
      "stateMutability": "nonpayable",
      "type": "function"
    },
    {
      "inputs": [],
      "name": "renounceOwnership",
      "outputs": [],
      "stateMutability": "nonpayable",
      "type": "function"
    },
    {
      "inputs": [
        {
          "internalType": "address",
          "name": "from",
          "type": "address"
        },
        {
          "internalType": "address",
          "name": "to",
          "type": "address"
        },
        {
          "internalType": "uint256[]",
          "name": "ids",
          "type": "uint256[]"
        },
        {
          "internalType": "uint256[]",
          "name": "amounts",
          "type": "uint256[]"
        },
        {
          "internalType": "bytes",
          "name": "data",
          "type": "bytes"
        }
      ],
      "name": "safeBatchTransferFrom",
      "outputs": [],
      "stateMutability": "nonpayable",
      "type": "function"
    },
    {
      "inputs": [
        {
          "internalType": "address",
          "name": "from",
          "type": "address"
        },
        {
          "internalType": "address",
          "name": "to",
          "type": "address"
        },
        {
          "internalType": "uint256",
          "name": "id",
          "type": "uint256"
        },
        {
          "internalType": "uint256",
          "name": "amount",
          "type": "uint256"
        },
        {
          "internalType": "bytes",
          "name": "data",
          "type": "bytes"
        }
      ],
      "name": "safeTransferFrom",
      "outputs": [],
      "stateMutability": "nonpayable",
      "type": "function"
    },
    {
      "inputs": [
        {
          "internalType": "address",
          "name": "operator",
          "type": "address"
        },
        {
          "internalType": "bool",
          "name": "approved",
          "type": "bool"
        }
      ],
      "name": "setApprovalForAll",
      "outputs": [],
      "stateMutability": "nonpayable",
      "type": "function"
    },
    {
      "inputs": [
        {
          "internalType": "string",
          "name": "_baseURI",
          "type": "string"
        }
      ],
      "name": "setBaseURI",
      "outputs": [],
      "stateMutability": "nonpayable",
      "type": "function"
    },
    {
      "inputs": [
        {
          "internalType": "address",
          "name": "_dexAddress",
          "type": "address"
        },
        {
          "internalType": "contract IBedroomNft",
          "name": "_bedroomNft",
          "type": "address"
        }
      ],
      "name": "setContracts",
      "outputs": [],
      "stateMutability": "nonpayable",
      "type": "function"
    },
    {
      "inputs": [
        {
          "internalType": "string",
          "name": "_format",
          "type": "string"
        }
      ],
      "name": "setFileFormat",
      "outputs": [],
      "stateMutability": "nonpayable",
      "type": "function"
    },
    {
      "inputs": [
        {
          "internalType": "uint256",
          "name": "_tokenId",
          "type": "uint256"
        },
        {
          "internalType": "string",
          "name": "_tokenURI",
          "type": "string"
        }
      ],
      "name": "setTokenURI",
      "outputs": [],
      "stateMutability": "nonpayable",
      "type": "function"
    },
    {
      "inputs": [
        {
          "internalType": "bytes4",
          "name": "interfaceId",
          "type": "bytes4"
        }
      ],
      "name": "supportsInterface",
      "outputs": [
        {
          "internalType": "bool",
          "name": "",
          "type": "bool"
        }
      ],
      "stateMutability": "view",
      "type": "function"
    },
    {
      "inputs": [],
      "name": "tokenId",
      "outputs": [
        {
          "internalType": "uint256",
          "name": "",
          "type": "uint256"
        }
      ],
      "stateMutability": "view",
      "type": "function"
    },
    {
      "inputs": [
        {
          "internalType": "address",
          "name": "newOwner",
          "type": "address"
        }
      ],
      "name": "transferOwnership",
      "outputs": [],
      "stateMutability": "nonpayable",
      "type": "function"
    },
    {
      "inputs": [
        {
          "internalType": "uint32",
          "name": "_callbackGasLimit",
          "type": "uint32"
        },
        {
          "internalType": "uint64",
          "name": "_subscriptionId",
          "type": "uint64"
        },
        {
          "internalType": "bytes32",
          "name": "_keyHash",
          "type": "bytes32"
        },
        {
          "internalType": "uint16",
          "name": "_requestConfirmations",
          "type": "uint16"
        }
      ],
      "name": "updateChainlink",
      "outputs": [],
      "stateMutability": "nonpayable",
      "type": "function"
    },
    {
      "inputs": [
        {
          "internalType": "uint256",
          "name": "_tokenId",
          "type": "uint256"
        }
      ],
      "name": "uri",
      "outputs": [
        {
          "internalType": "string",
          "name": "",
          "type": "string"
        }
      ],
      "stateMutability": "view",
      "type": "function"
    }
  ],
  "bytecode": "0x60c060405260405180602001604052806000815250600490805190602001906200002b92919062000299565b503480156200003957600080fd5b506040516200503e3803806200503e83398181016040528101906200005f919062000433565b60405180602001604052806000815250828073ffffffffffffffffffffffffffffffffffffffff1660808173ffffffffffffffffffffffffffffffffffffffff168152505050620000b681620001af60201b60201c565b50620000d7620000cb620001cb60201b60201c565b620001d360201b60201c565b8173ffffffffffffffffffffffffffffffffffffffff1660a08173ffffffffffffffffffffffffffffffffffffffff168152505082600860006101000a81548167ffffffffffffffff021916908367ffffffffffffffff1602179055508060098190555061c350600760186101000a81548163ffffffff021916908363ffffffff16021790555060036007601c6101000a81548161ffff021916908361ffff1602179055506001600760146101000a81548163ffffffff021916908363ffffffff1602179055506000600b81905550505050620004f3565b8060029080519060200190620001c792919062000299565b5050565b600033905090565b6000600360009054906101000a900473ffffffffffffffffffffffffffffffffffffffff16905081600360006101000a81548173ffffffffffffffffffffffffffffffffffffffff021916908373ffffffffffffffffffffffffffffffffffffffff1602179055508173ffffffffffffffffffffffffffffffffffffffff168173ffffffffffffffffffffffffffffffffffffffff167f8be0079c531659141344cd1fd0a4f28419497f9722a3daafe3b4186f6b6457e060405160405180910390a35050565b828054620002a790620004be565b90600052602060002090601f016020900481019282620002cb576000855562000317565b82601f10620002e657805160ff191683800117855562000317565b8280016001018555821562000317579182015b8281111562000316578251825591602001919060010190620002f9565b5b5090506200032691906200032a565b5090565b5b80821115620003455760008160009055506001016200032b565b5090565b600080fd5b600067ffffffffffffffff82169050919050565b6200036d816200034e565b81146200037957600080fd5b50565b6000815190506200038d8162000362565b92915050565b600073ffffffffffffffffffffffffffffffffffffffff82169050919050565b6000620003c08262000393565b9050919050565b620003d281620003b3565b8114620003de57600080fd5b50565b600081519050620003f281620003c7565b92915050565b6000819050919050565b6200040d81620003f8565b81146200041957600080fd5b50565b6000815190506200042d8162000402565b92915050565b6000806000606084860312156200044f576200044e62000349565b5b60006200045f868287016200037c565b93505060206200047286828701620003e1565b925050604062000485868287016200041c565b9150509250925092565b7f4e487b7100000000000000000000000000000000000000000000000000000000600052602260045260246000fd5b60006002820490506001821680620004d757607f821691505b602082108103620004ed57620004ec6200048f565b5b50919050565b60805160a051614b1762000527600039600081816108fe0152610d9301526000818161079d01526107f10152614b176000f3fe608060405234801561001057600080fd5b50600436106101725760003560e01c8063715018a6116100de578063c8492dbc11610097578063e985e9c511610071578063e985e9c514610421578063f242432a14610451578063f2fde38b1461046d578063f40d928e1461048957610172565b8063c8492dbc146103cb578063d8952a49146103e7578063db6f3d6e1461040357610172565b8063715018a61461032f578063745fba84146103395780638da5cb5b146103575780639ef122ae14610375578063a22cb46514610393578063c13d4dbb146103af57610172565b80631fe543e3116101305780631fe543e31461025d5780632eb2c2d6146102795780633b2bcbf1146102955780634e1273f4146102b357806355f804b3146102e35780636b8ff574146102ff57610172565b8062fdd58e1461017757806301ffc9a7146101a75780630e89341c146101d7578063162094c41461020757806317d70f7c1461022357806319a59b1a14610241575b600080fd5b610191600480360381019061018c9190612b44565b6104b9565b60405161019e9190612b93565b60405180910390f35b6101c160048036038101906101bc9190612c06565b610581565b6040516101ce9190612c4e565b60405180910390f35b6101f160048036038101906101ec9190612c69565b610663565b6040516101fe9190612d2f565b60405180910390f35b610221600480360381019061021c9190612e86565b610675565b005b61022b6106ff565b6040516102389190612b93565b60405180910390f35b61025b60048036038101906102569190612ee2565b610705565b005b61027760048036038101906102729190612ff3565b61079b565b005b610293600480360381019061028e91906130f0565b61085b565b005b61029d6108fc565b6040516102aa919061321e565b60405180910390f35b6102cd60048036038101906102c891906132fc565b610920565b6040516102da9190613432565b60405180910390f35b6102fd60048036038101906102f89190612ee2565b610a39565b005b61031960048036038101906103149190612c69565b610ac1565b6040516103269190612d2f565b60405180910390f35b610337610af2565b005b610341610b7a565b60405161034e9190613463565b60405180910390f35b61035f610ba0565b60405161036c9190613463565b60405180910390f35b61037d610bca565b60405161038a9190612d2f565b60405180910390f35b6103ad60048036038101906103a891906134aa565b610c58565b005b6103c960048036038101906103c491906134ea565b610c6e565b005b6103e560048036038101906103e09190613663565b610fa3565b005b61040160048036038101906103fc9190613708565b611093565b005b61040b611195565b6040516104189190613769565b60405180910390f35b61043b60048036038101906104369190613784565b6111bb565b6040516104489190612c4e565b60405180910390f35b61046b600480360381019061046691906137c4565b61124f565b005b6104876004803603810190610482919061385b565b6112f0565b005b6104a3600480360381019061049e9190612c69565b6113e7565b6040516104b09190613925565b60405180910390f35b60008073ffffffffffffffffffffffffffffffffffffffff168373ffffffffffffffffffffffffffffffffffffffff1603610529576040517f08c379a0000000000000000000000000000000000000000000000000000000008152600401610520906139b2565b60405180910390fd5b60008083815260200190815260200160002060008473ffffffffffffffffffffffffffffffffffffffff1673ffffffffffffffffffffffffffffffffffffffff16815260200190815260200160002054905092915050565b60007fd9b67a26000000000000000000000000000000000000000000000000000000007bffffffffffffffffffffffffffffffffffffffffffffffffffffffff1916827bffffffffffffffffffffffffffffffffffffffffffffffffffffffff1916148061064c57507f0e89341c000000000000000000000000000000000000000000000000000000007bffffffffffffffffffffffffffffffffffffffffffffffffffffffff1916827bffffffffffffffffffffffffffffffffffffffffffffffffffffffff1916145b8061065c575061065b826114a6565b5b9050919050565b606061066e82611510565b9050919050565b61067d6115f5565b73ffffffffffffffffffffffffffffffffffffffff1661069b610ba0565b73ffffffffffffffffffffffffffffffffffffffff16146106f1576040517f08c379a00000000000000000000000000000000000000000000000000000000081526004016106e890613a1e565b60405180910390fd5b6106fb82826115fd565b5050565b600b5481565b61070d6115f5565b73ffffffffffffffffffffffffffffffffffffffff1661072b610ba0565b73ffffffffffffffffffffffffffffffffffffffff1614610781576040517f08c379a000000000000000000000000000000000000000000000000000000000815260040161077890613a1e565b60405180910390fd5b80600a90805190602001906107979291906129a6565b5050565b7f000000000000000000000000000000000000000000000000000000000000000073ffffffffffffffffffffffffffffffffffffffff163373ffffffffffffffffffffffffffffffffffffffff161461084d57337f00000000000000000000000000000000000000000000000000000000000000006040517f1cf993f4000000000000000000000000000000000000000000000000000000008152600401610844929190613a3e565b60405180910390fd5b6108578282611669565b5050565b6108636115f5565b73ffffffffffffffffffffffffffffffffffffffff168573ffffffffffffffffffffffffffffffffffffffff1614806108a957506108a8856108a36115f5565b6111bb565b5b6108e8576040517f08c379a00000000000000000000000000000000000000000000000000000000081526004016108df90613ad9565b60405180910390fd5b6108f585858585856116c1565b5050505050565b7f000000000000000000000000000000000000000000000000000000000000000081565b60608151835114610966576040517f08c379a000000000000000000000000000000000000000000000000000000000815260040161095d90613b6b565b60405180910390fd5b6000835167ffffffffffffffff81111561098357610982612d5b565b5b6040519080825280602002602001820160405280156109b15781602001602082028036833780820191505090505b50905060005b8451811015610a2e576109fe8582815181106109d6576109d5613b8b565b5b60200260200101518583815181106109f1576109f0613b8b565b5b60200260200101516104b9565b828281518110610a1157610a10613b8b565b5b60200260200101818152505080610a2790613be9565b90506109b7565b508091505092915050565b610a416115f5565b73ffffffffffffffffffffffffffffffffffffffff16610a5f610ba0565b73ffffffffffffffffffffffffffffffffffffffff1614610ab5576040517f08c379a0000000000000000000000000000000000000000000000000000000008152600401610aac90613a1e565b60405180910390fd5b610abe816119e2565b50565b6060610acc826119fc565b604051602001610adc9190613cb9565b6040516020818303038152906040529050919050565b610afa6115f5565b73ffffffffffffffffffffffffffffffffffffffff16610b18610ba0565b73ffffffffffffffffffffffffffffffffffffffff1614610b6e576040517f08c379a0000000000000000000000000000000000000000000000000000000008152600401610b6590613a1e565b60405180910390fd5b610b786000611b5c565b565b600660009054906101000a900473ffffffffffffffffffffffffffffffffffffffff1681565b6000600360009054906101000a900473ffffffffffffffffffffffffffffffffffffffff16905090565b600a8054610bd790613d0a565b80601f0160208091040260200160405190810160405280929190818152602001828054610c0390613d0a565b8015610c505780601f10610c2557610100808354040283529160200191610c50565b820191906000526020600020905b815481529060010190602001808311610c3357829003601f168201915b505050505081565b610c6a610c636115f5565b8383611c22565b5050565b600073ffffffffffffffffffffffffffffffffffffffff16600660009054906101000a900473ffffffffffffffffffffffffffffffffffffffff1673ffffffffffffffffffffffffffffffffffffffff1603610cff576040517f08c379a0000000000000000000000000000000000000000000000000000000008152600401610cf690613d87565b60405180910390fd5b600660009054906101000a900473ffffffffffffffffffffffffffffffffffffffff1673ffffffffffffffffffffffffffffffffffffffff163373ffffffffffffffffffffffffffffffffffffffff1614610d8f576040517f08c379a0000000000000000000000000000000000000000000000000000000008152600401610d8690613df3565b60405180910390fd5b60007f000000000000000000000000000000000000000000000000000000000000000073ffffffffffffffffffffffffffffffffffffffff16635d3b1d30600954600860009054906101000a900467ffffffffffffffff166007601c9054906101000a900461ffff16600760189054906101000a900463ffffffff16600760149054906101000a900463ffffffff166040518663ffffffff1660e01b8152600401610e3e959493929190613e4f565b6020604051808303816000875af1158015610e5d573d6000803e3d6000fd5b505050506040513d601f19601f82011682018060405250810190610e819190613eb7565b9050600b54600c6000838152602001908152602001600020819055506040518060e00160405280858152602001600081526020018481526020018373ffffffffffffffffffffffffffffffffffffffff16815260200186815260200188815260200187815250600d6000600b54815260200190815260200160002060008201518160000155602082015181600101556040820151816002015560608201518160030160006101000a81548173ffffffffffffffffffffffffffffffffffffffff021916908373ffffffffffffffffffffffffffffffffffffffff1602179055506080820151816004015560a0820151816005015560c08201518160060155905050600b6000815480929190610f9590613be9565b919050555050505050505050565b610fab6115f5565b73ffffffffffffffffffffffffffffffffffffffff16610fc9610ba0565b73ffffffffffffffffffffffffffffffffffffffff161461101f576040517f08c379a000000000000000000000000000000000000000000000000000000000815260040161101690613a1e565b60405180910390fd5b82600860006101000a81548167ffffffffffffffff021916908367ffffffffffffffff1602179055508160098190555083600760186101000a81548163ffffffff021916908363ffffffff160217905550806007601c6101000a81548161ffff021916908361ffff16021790555050505050565b61109b6115f5565b73ffffffffffffffffffffffffffffffffffffffff166110b9610ba0565b73ffffffffffffffffffffffffffffffffffffffff161461110f576040517f08c379a000000000000000000000000000000000000000000000000000000000815260040161110690613a1e565b60405180910390fd5b81600660006101000a81548173ffffffffffffffffffffffffffffffffffffffff021916908373ffffffffffffffffffffffffffffffffffffffff16021790555080600760006101000a81548173ffffffffffffffffffffffffffffffffffffffff021916908373ffffffffffffffffffffffffffffffffffffffff1602179055505050565b600760009054906101000a900473ffffffffffffffffffffffffffffffffffffffff1681565b6000600160008473ffffffffffffffffffffffffffffffffffffffff1673ffffffffffffffffffffffffffffffffffffffff16815260200190815260200160002060008373ffffffffffffffffffffffffffffffffffffffff1673ffffffffffffffffffffffffffffffffffffffff16815260200190815260200160002060009054906101000a900460ff16905092915050565b6112576115f5565b73ffffffffffffffffffffffffffffffffffffffff168573ffffffffffffffffffffffffffffffffffffffff16148061129d575061129c856112976115f5565b6111bb565b5b6112dc576040517f08c379a00000000000000000000000000000000000000000000000000000000081526004016112d390613f56565b60405180910390fd5b6112e98585858585611d8e565b5050505050565b6112f86115f5565b73ffffffffffffffffffffffffffffffffffffffff16611316610ba0565b73ffffffffffffffffffffffffffffffffffffffff161461136c576040517f08c379a000000000000000000000000000000000000000000000000000000000815260040161136390613a1e565b60405180910390fd5b600073ffffffffffffffffffffffffffffffffffffffff168173ffffffffffffffffffffffffffffffffffffffff16036113db576040517f08c379a00000000000000000000000000000000000000000000000000000000081526004016113d290613fe8565b60405180910390fd5b6113e481611b5c565b50565b6113ef612a2c565b600d60008381526020019081526020016000206040518060e00160405290816000820154815260200160018201548152602001600282015481526020016003820160009054906101000a900473ffffffffffffffffffffffffffffffffffffffff1673ffffffffffffffffffffffffffffffffffffffff1673ffffffffffffffffffffffffffffffffffffffff16815260200160048201548152602001600582015481526020016006820154815250509050919050565b60007f01ffc9a7000000000000000000000000000000000000000000000000000000007bffffffffffffffffffffffffffffffffffffffffffffffffffffffff1916827bffffffffffffffffffffffffffffffffffffffffffffffffffffffff1916149050919050565b6060600060056000848152602001908152602001600020805461153290613d0a565b80601f016020809104026020016040519081016040528092919081815260200182805461155e90613d0a565b80156115ab5780601f10611580576101008083540402835291602001916115ab565b820191906000526020600020905b81548152906001019060200180831161158e57829003601f168201915b5050505050905060008151116115c9576115c483612029565b6115ed565b6004816040516020016115dd92919061409c565b6040516020818303038152906040525b915050919050565b600033905090565b806005600084815260200190815260200160002090805190602001906116249291906129a6565b50817f6bb7ff708619ba0610cba295a58592e0451dee2622938c8755667688daf3529b61165084610663565b60405161165d9190612d2f565b60405180910390a25050565b611686600c600084815260200190815260200160002054826120bd565b7fefb16d61046900da527008568620fb9f8420e2f5ed4de3bfbded5035c9362b0e816040516116b59190613432565b60405180910390a15050565b8151835114611705576040517f08c379a00000000000000000000000000000000000000000000000000000000081526004016116fc90614132565b60405180910390fd5b600073ffffffffffffffffffffffffffffffffffffffff168473ffffffffffffffffffffffffffffffffffffffff1603611774576040517f08c379a000000000000000000000000000000000000000000000000000000000815260040161176b906141c4565b60405180910390fd5b600061177e6115f5565b905061178e81878787878761239b565b60005b845181101561193f5760008582815181106117af576117ae613b8b565b5b6020026020010151905060008583815181106117ce576117cd613b8b565b5b60200260200101519050600080600084815260200190815260200160002060008b73ffffffffffffffffffffffffffffffffffffffff1673ffffffffffffffffffffffffffffffffffffffff1681526020019081526020016000205490508181101561186f576040517f08c379a000000000000000000000000000000000000000000000000000000000815260040161186690614256565b60405180910390fd5b81810360008085815260200190815260200160002060008c73ffffffffffffffffffffffffffffffffffffffff1673ffffffffffffffffffffffffffffffffffffffff168152602001908152602001600020819055508160008085815260200190815260200160002060008b73ffffffffffffffffffffffffffffffffffffffff1673ffffffffffffffffffffffffffffffffffffffff16815260200190815260200160002060008282546119249190614276565b925050819055505050508061193890613be9565b9050611791565b508473ffffffffffffffffffffffffffffffffffffffff168673ffffffffffffffffffffffffffffffffffffffff168273ffffffffffffffffffffffffffffffffffffffff167f4a39dc06d4c0dbc64b70af90fd698a233a518aa5d07e595d983b8c0526c8f7fb87876040516119b69291906142cc565b60405180910390a46119cc8187878787876123a3565b6119da8187878787876123ab565b505050505050565b80600490805190602001906119f89291906129a6565b5050565b606060008203611a43576040518060400160405280600181526020017f30000000000000000000000000000000000000000000000000000000000000008152509050611b57565b600082905060005b60008214611a75578080611a5e90613be9565b915050600a82611a6e9190614332565b9150611a4b565b60008167ffffffffffffffff811115611a9157611a90612d5b565b5b6040519080825280601f01601f191660200182016040528015611ac35781602001600182028036833780820191505090505b5090505b60008514611b5057600182611adc9190614363565b9150600a85611aeb9190614397565b6030611af79190614276565b60f81b818381518110611b0d57611b0c613b8b565b5b60200101907effffffffffffffffffffffffffffffffffffffffffffffffffffffffffffff1916908160001a905350600a85611b499190614332565b9450611ac7565b8093505050505b919050565b6000600360009054906101000a900473ffffffffffffffffffffffffffffffffffffffff16905081600360006101000a81548173ffffffffffffffffffffffffffffffffffffffff021916908373ffffffffffffffffffffffffffffffffffffffff1602179055508173ffffffffffffffffffffffffffffffffffffffff168173ffffffffffffffffffffffffffffffffffffffff167f8be0079c531659141344cd1fd0a4f28419497f9722a3daafe3b4186f6b6457e060405160405180910390a35050565b8173ffffffffffffffffffffffffffffffffffffffff168373ffffffffffffffffffffffffffffffffffffffff1603611c90576040517f08c379a0000000000000000000000000000000000000000000000000000000008152600401611c879061443a565b60405180910390fd5b80600160008573ffffffffffffffffffffffffffffffffffffffff1673ffffffffffffffffffffffffffffffffffffffff16815260200190815260200160002060008473ffffffffffffffffffffffffffffffffffffffff1673ffffffffffffffffffffffffffffffffffffffff16815260200190815260200160002060006101000a81548160ff0219169083151502179055508173ffffffffffffffffffffffffffffffffffffffff168373ffffffffffffffffffffffffffffffffffffffff167f17307eab39ab6107e8899845ad3d59bd9653f200f220920489ca2b5937696c3183604051611d819190612c4e565b60405180910390a3505050565b600073ffffffffffffffffffffffffffffffffffffffff168473ffffffffffffffffffffffffffffffffffffffff1603611dfd576040517f08c379a0000000000000000000000000000000000000000000000000000000008152600401611df4906141c4565b60405180910390fd5b6000611e076115f5565b90506000611e1485612582565b90506000611e2185612582565b9050611e3183898985858961239b565b600080600088815260200190815260200160002060008a73ffffffffffffffffffffffffffffffffffffffff1673ffffffffffffffffffffffffffffffffffffffff16815260200190815260200160002054905085811015611ec8576040517f08c379a0000000000000000000000000000000000000000000000000000000008152600401611ebf90614256565b60405180910390fd5b85810360008089815260200190815260200160002060008b73ffffffffffffffffffffffffffffffffffffffff1673ffffffffffffffffffffffffffffffffffffffff168152602001908152602001600020819055508560008089815260200190815260200160002060008a73ffffffffffffffffffffffffffffffffffffffff1673ffffffffffffffffffffffffffffffffffffffff1681526020019081526020016000206000828254611f7d9190614276565b925050819055508773ffffffffffffffffffffffffffffffffffffffff168973ffffffffffffffffffffffffffffffffffffffff168573ffffffffffffffffffffffffffffffffffffffff167fc3d58168c5ae7397731d063d5bbf3d657854427343f4c083240f7aacaa2d0f628a8a604051611ffa92919061445a565b60405180910390a4612010848a8a86868a6123a3565b61201e848a8a8a8a8a6125fc565b505050505050505050565b60606002805461203890613d0a565b80601f016020809104026020016040519081016040528092919081815260200182805461206490613d0a565b80156120b15780601f10612086576101008083540402835291602001916120b1565b820191906000526020600020905b81548152906001019060200180831161209457829003601f168201915b50505050509050919050565b6001600d600084815260200190815260200160002060020154826000815181106120ea576120e9613b8b565b5b60200260200101516120fc9190614397565b6121069190614276565b600d600084815260200190815260200160002060010181905550612174600d6000600b54815260200190815260200160002060030160009054906101000a900473ffffffffffffffffffffffffffffffffffffffff16836001604051806020016040528060008152506127d3565b6000612195600d6000858152602001908152602001600020600601546119fc565b600a6040516020016121a8929190614483565b60405160208183030381529060405290506121c383826115fd565b600073ffffffffffffffffffffffffffffffffffffffff16600760009054906101000a900473ffffffffffffffffffffffffffffffffffffffff1673ffffffffffffffffffffffffffffffffffffffff1603612254576040517f08c379a000000000000000000000000000000000000000000000000000000000815260040161224b90614519565b60405180910390fd5b600760009054906101000a900473ffffffffffffffffffffffffffffffffffffffff1673ffffffffffffffffffffffffffffffffffffffff166385d90d0984600d600087815260200190815260200160002060000154600d600088815260200190815260200160002060010154600d600089815260200190815260200160002060050154600d60008a8152602001908152602001600020600401546040518663ffffffff1660e01b815260040161230f959493929190614539565b600060405180830381600087803b15801561232957600080fd5b505af115801561233d573d6000803e3d6000fd5b505050507f1a6e4d7b6732216ab103cbf6cfed44bf6a931e207352a342cff58335c57f15298361236c85610663565b600d600087815260200190815260200160002060405161238e939291906146d4565b60405180910390a1505050565b505050505050565b505050505050565b6123ca8473ffffffffffffffffffffffffffffffffffffffff16612983565b1561257a578373ffffffffffffffffffffffffffffffffffffffff1663bc197c8187878686866040518663ffffffff1660e01b8152600401612410959493929190614768565b6020604051808303816000875af192505050801561244c57506040513d601f19601f8201168201806040525081019061244991906147e5565b60015b6124f15761245861481f565b806308c379a0036124b4575061246c614841565b8061247757506124b6565b806040517f08c379a00000000000000000000000000000000000000000000000000000000081526004016124ab9190612d2f565b60405180910390fd5b505b6040517f08c379a00000000000000000000000000000000000000000000000000000000081526004016124e890614943565b60405180910390fd5b63bc197c8160e01b7bffffffffffffffffffffffffffffffffffffffffffffffffffffffff1916817bffffffffffffffffffffffffffffffffffffffffffffffffffffffff191614612578576040517f08c379a000000000000000000000000000000000000000000000000000000000815260040161256f906149d5565b60405180910390fd5b505b505050505050565b60606000600167ffffffffffffffff8111156125a1576125a0612d5b565b5b6040519080825280602002602001820160405280156125cf5781602001602082028036833780820191505090505b50905082816000815181106125e7576125e6613b8b565b5b60200260200101818152505080915050919050565b61261b8473ffffffffffffffffffffffffffffffffffffffff16612983565b156127cb578373ffffffffffffffffffffffffffffffffffffffff1663f23a6e6187878686866040518663ffffffff1660e01b81526004016126619594939291906149f5565b6020604051808303816000875af192505050801561269d57506040513d601f19601f8201168201806040525081019061269a91906147e5565b60015b612742576126a961481f565b806308c379a00361270557506126bd614841565b806126c85750612707565b806040517f08c379a00000000000000000000000000000000000000000000000000000000081526004016126fc9190612d2f565b60405180910390fd5b505b6040517f08c379a000000000000000000000000000000000000000000000000000000000815260040161273990614943565b60405180910390fd5b63f23a6e6160e01b7bffffffffffffffffffffffffffffffffffffffffffffffffffffffff1916817bffffffffffffffffffffffffffffffffffffffffffffffffffffffff1916146127c9576040517f08c379a00000000000000000000000000000000000000000000000000000000081526004016127c0906149d5565b60405180910390fd5b505b505050505050565b600073ffffffffffffffffffffffffffffffffffffffff168473ffffffffffffffffffffffffffffffffffffffff1603612842576040517f08c379a000000000000000000000000000000000000000000000000000000000815260040161283990614ac1565b60405180910390fd5b600061284c6115f5565b9050600061285985612582565b9050600061286685612582565b90506128778360008985858961239b565b8460008088815260200190815260200160002060008973ffffffffffffffffffffffffffffffffffffffff1673ffffffffffffffffffffffffffffffffffffffff16815260200190815260200160002060008282546128d69190614276565b925050819055508673ffffffffffffffffffffffffffffffffffffffff16600073ffffffffffffffffffffffffffffffffffffffff168473ffffffffffffffffffffffffffffffffffffffff167fc3d58168c5ae7397731d063d5bbf3d657854427343f4c083240f7aacaa2d0f62898960405161295492919061445a565b60405180910390a461296b836000898585896123a3565b61297a836000898989896125fc565b50505050505050565b6000808273ffffffffffffffffffffffffffffffffffffffff163b119050919050565b8280546129b290613d0a565b90600052602060002090601f0160209004810192826129d45760008555612a1b565b82601f106129ed57805160ff1916838001178555612a1b565b82800160010185558215612a1b579182015b82811115612a1a5782518255916020019190600101906129ff565b5b509050612a289190612a7f565b5090565b6040518060e00160405280600081526020016000815260200160008152602001600073ffffffffffffffffffffffffffffffffffffffff1681526020016000815260200160008152602001600081525090565b5b80821115612a98576000816000905550600101612a80565b5090565b6000604051905090565b600080fd5b600080fd5b600073ffffffffffffffffffffffffffffffffffffffff82169050919050565b6000612adb82612ab0565b9050919050565b612aeb81612ad0565b8114612af657600080fd5b50565b600081359050612b0881612ae2565b92915050565b6000819050919050565b612b2181612b0e565b8114612b2c57600080fd5b50565b600081359050612b3e81612b18565b92915050565b60008060408385031215612b5b57612b5a612aa6565b5b6000612b6985828601612af9565b9250506020612b7a85828601612b2f565b9150509250929050565b612b8d81612b0e565b82525050565b6000602082019050612ba86000830184612b84565b92915050565b60007fffffffff0000000000000000000000000000000000000000000000000000000082169050919050565b612be381612bae565b8114612bee57600080fd5b50565b600081359050612c0081612bda565b92915050565b600060208284031215612c1c57612c1b612aa6565b5b6000612c2a84828501612bf1565b91505092915050565b60008115159050919050565b612c4881612c33565b82525050565b6000602082019050612c636000830184612c3f565b92915050565b600060208284031215612c7f57612c7e612aa6565b5b6000612c8d84828501612b2f565b91505092915050565b600081519050919050565b600082825260208201905092915050565b60005b83811015612cd0578082015181840152602081019050612cb5565b83811115612cdf576000848401525b50505050565b6000601f19601f8301169050919050565b6000612d0182612c96565b612d0b8185612ca1565b9350612d1b818560208601612cb2565b612d2481612ce5565b840191505092915050565b60006020820190508181036000830152612d498184612cf6565b905092915050565b600080fd5b600080fd5b7f4e487b7100000000000000000000000000000000000000000000000000000000600052604160045260246000fd5b612d9382612ce5565b810181811067ffffffffffffffff82111715612db257612db1612d5b565b5b80604052505050565b6000612dc5612a9c565b9050612dd18282612d8a565b919050565b600067ffffffffffffffff821115612df157612df0612d5b565b5b612dfa82612ce5565b9050602081019050919050565b82818337600083830152505050565b6000612e29612e2484612dd6565b612dbb565b905082815260208101848484011115612e4557612e44612d56565b5b612e50848285612e07565b509392505050565b600082601f830112612e6d57612e6c612d51565b5b8135612e7d848260208601612e16565b91505092915050565b60008060408385031215612e9d57612e9c612aa6565b5b6000612eab85828601612b2f565b925050602083013567ffffffffffffffff811115612ecc57612ecb612aab565b5b612ed885828601612e58565b9150509250929050565b600060208284031215612ef857612ef7612aa6565b5b600082013567ffffffffffffffff811115612f1657612f15612aab565b5b612f2284828501612e58565b91505092915050565b600067ffffffffffffffff821115612f4657612f45612d5b565b5b602082029050602081019050919050565b600080fd5b6000612f6f612f6a84612f2b565b612dbb565b90508083825260208201905060208402830185811115612f9257612f91612f57565b5b835b81811015612fbb5780612fa78882612b2f565b845260208401935050602081019050612f94565b5050509392505050565b600082601f830112612fda57612fd9612d51565b5b8135612fea848260208601612f5c565b91505092915050565b6000806040838503121561300a57613009612aa6565b5b600061301885828601612b2f565b925050602083013567ffffffffffffffff81111561303957613038612aab565b5b61304585828601612fc5565b9150509250929050565b600067ffffffffffffffff82111561306a57613069612d5b565b5b61307382612ce5565b9050602081019050919050565b600061309361308e8461304f565b612dbb565b9050828152602081018484840111156130af576130ae612d56565b5b6130ba848285612e07565b509392505050565b600082601f8301126130d7576130d6612d51565b5b81356130e7848260208601613080565b91505092915050565b600080600080600060a0868803121561310c5761310b612aa6565b5b600061311a88828901612af9565b955050602061312b88828901612af9565b945050604086013567ffffffffffffffff81111561314c5761314b612aab565b5b61315888828901612fc5565b935050606086013567ffffffffffffffff81111561317957613178612aab565b5b61318588828901612fc5565b925050608086013567ffffffffffffffff8111156131a6576131a5612aab565b5b6131b2888289016130c2565b9150509295509295909350565b6000819050919050565b60006131e46131df6131da84612ab0565b6131bf565b612ab0565b9050919050565b60006131f6826131c9565b9050919050565b6000613208826131eb565b9050919050565b613218816131fd565b82525050565b6000602082019050613233600083018461320f565b92915050565b600067ffffffffffffffff82111561325457613253612d5b565b5b602082029050602081019050919050565b600061327861327384613239565b612dbb565b9050808382526020820190506020840283018581111561329b5761329a612f57565b5b835b818110156132c457806132b08882612af9565b84526020840193505060208101905061329d565b5050509392505050565b600082601f8301126132e3576132e2612d51565b5b81356132f3848260208601613265565b91505092915050565b6000806040838503121561331357613312612aa6565b5b600083013567ffffffffffffffff81111561333157613330612aab565b5b61333d858286016132ce565b925050602083013567ffffffffffffffff81111561335e5761335d612aab565b5b61336a85828601612fc5565b9150509250929050565b600081519050919050565b600082825260208201905092915050565b6000819050602082019050919050565b6133a981612b0e565b82525050565b60006133bb83836133a0565b60208301905092915050565b6000602082019050919050565b60006133df82613374565b6133e9818561337f565b93506133f483613390565b8060005b8381101561342557815161340c88826133af565b9750613417836133c7565b9250506001810190506133f8565b5085935050505092915050565b6000602082019050818103600083015261344c81846133d4565b905092915050565b61345d81612ad0565b82525050565b60006020820190506134786000830184613454565b92915050565b61348781612c33565b811461349257600080fd5b50565b6000813590506134a48161347e565b92915050565b600080604083850312156134c1576134c0612aa6565b5b60006134cf85828601612af9565b92505060206134e085828601613495565b9150509250929050565b60008060008060008060c0878903121561350757613506612aa6565b5b600061351589828a01612b2f565b965050602061352689828a01612b2f565b955050604061353789828a01612b2f565b945050606061354889828a01612b2f565b935050608061355989828a01612b2f565b92505060a061356a89828a01612af9565b9150509295509295509295565b600063ffffffff82169050919050565b61359081613577565b811461359b57600080fd5b50565b6000813590506135ad81613587565b92915050565b600067ffffffffffffffff82169050919050565b6135d0816135b3565b81146135db57600080fd5b50565b6000813590506135ed816135c7565b92915050565b6000819050919050565b613606816135f3565b811461361157600080fd5b50565b600081359050613623816135fd565b92915050565b600061ffff82169050919050565b61364081613629565b811461364b57600080fd5b50565b60008135905061365d81613637565b92915050565b6000806000806080858703121561367d5761367c612aa6565b5b600061368b8782880161359e565b945050602061369c878288016135de565b93505060406136ad87828801613614565b92505060606136be8782880161364e565b91505092959194509250565b60006136d582612ad0565b9050919050565b6136e5816136ca565b81146136f057600080fd5b50565b600081359050613702816136dc565b92915050565b6000806040838503121561371f5761371e612aa6565b5b600061372d85828601612af9565b925050602061373e858286016136f3565b9150509250929050565b6000613753826131eb565b9050919050565b61376381613748565b82525050565b600060208201905061377e600083018461375a565b92915050565b6000806040838503121561379b5761379a612aa6565b5b60006137a985828601612af9565b92505060206137ba85828601612af9565b9150509250929050565b600080600080600060a086880312156137e0576137df612aa6565b5b60006137ee88828901612af9565b95505060206137ff88828901612af9565b945050604061381088828901612b2f565b935050606061382188828901612b2f565b925050608086013567ffffffffffffffff81111561384257613841612aab565b5b61384e888289016130c2565b9150509295509295909350565b60006020828403121561387157613870612aa6565b5b600061387f84828501612af9565b91505092915050565b61389181612ad0565b82525050565b60e0820160008201516138ad60008501826133a0565b5060208201516138c060208501826133a0565b5060408201516138d360408501826133a0565b5060608201516138e66060850182613888565b5060808201516138f960808501826133a0565b5060a082015161390c60a08501826133a0565b5060c082015161391f60c08501826133a0565b50505050565b600060e08201905061393a6000830184613897565b92915050565b7f455243313135353a2062616c616e636520717565727920666f7220746865207a60008201527f65726f2061646472657373000000000000000000000000000000000000000000602082015250565b600061399c602b83612ca1565b91506139a782613940565b604082019050919050565b600060208201905081810360008301526139cb8161398f565b9050919050565b7f4f776e61626c653a2063616c6c6572206973206e6f7420746865206f776e6572600082015250565b6000613a08602083612ca1565b9150613a13826139d2565b602082019050919050565b60006020820190508181036000830152613a37816139fb565b9050919050565b6000604082019050613a536000830185613454565b613a606020830184613454565b9392505050565b7f455243313135353a207472616e736665722063616c6c6572206973206e6f742060008201527f6f776e6572206e6f7220617070726f7665640000000000000000000000000000602082015250565b6000613ac3603283612ca1565b9150613ace82613a67565b604082019050919050565b60006020820190508181036000830152613af281613ab6565b9050919050565b7f455243313135353a206163636f756e747320616e6420696473206c656e67746860008201527f206d69736d617463680000000000000000000000000000000000000000000000602082015250565b6000613b55602983612ca1565b9150613b6082613af9565b604082019050919050565b60006020820190508181036000830152613b8481613b48565b9050919050565b7f4e487b7100000000000000000000000000000000000000000000000000000000600052603260045260246000fd5b7f4e487b7100000000000000000000000000000000000000000000000000000000600052601160045260246000fd5b6000613bf482612b0e565b91507fffffffffffffffffffffffffffffffffffffffffffffffffffffffffffffffff8203613c2657613c25613bba565b5b600182019050919050565b600081905092915050565b7f546f6b656e202300000000000000000000000000000000000000000000000000600082015250565b6000613c72600783613c31565b9150613c7d82613c3c565b600782019050919050565b6000613c9382612c96565b613c9d8185613c31565b9350613cad818560208601612cb2565b80840191505092915050565b6000613cc482613c65565b9150613cd08284613c88565b915081905092915050565b7f4e487b7100000000000000000000000000000000000000000000000000000000600052602260045260246000fd5b60006002820490506001821680613d2257607f821691505b602082108103613d3557613d34613cdb565b5b50919050565b7f6465782061646472657373206973206e6f7420636f6e66696775726564000000600082015250565b6000613d71601d83612ca1565b9150613d7c82613d3b565b602082019050919050565b60006020820190508181036000830152613da081613d64565b9050919050565b7f41636365737320666f7262696464656e00000000000000000000000000000000600082015250565b6000613ddd601083612ca1565b9150613de882613da7565b602082019050919050565b60006020820190508181036000830152613e0c81613dd0565b9050919050565b613e1c816135f3565b82525050565b613e2b816135b3565b82525050565b613e3a81613629565b82525050565b613e4981613577565b82525050565b600060a082019050613e646000830188613e13565b613e716020830187613e22565b613e7e6040830186613e31565b613e8b6060830185613e40565b613e986080830184613e40565b9695505050505050565b600081519050613eb181612b18565b92915050565b600060208284031215613ecd57613ecc612aa6565b5b6000613edb84828501613ea2565b91505092915050565b7f455243313135353a2063616c6c6572206973206e6f74206f776e6572206e6f7260008201527f20617070726f7665640000000000000000000000000000000000000000000000602082015250565b6000613f40602983612ca1565b9150613f4b82613ee4565b604082019050919050565b60006020820190508181036000830152613f6f81613f33565b9050919050565b7f4f776e61626c653a206e6577206f776e657220697320746865207a65726f206160008201527f6464726573730000000000000000000000000000000000000000000000000000602082015250565b6000613fd2602683612ca1565b9150613fdd82613f76565b604082019050919050565b6000602082019050818103600083015261400181613fc5565b9050919050565b60008190508160005260206000209050919050565b6000815461402a81613d0a565b6140348186613c31565b9450600182166000811461404f576001811461406057614093565b60ff19831686528186019350614093565b61406985614008565b60005b8381101561408b5781548189015260018201915060208101905061406c565b838801955050505b50505092915050565b60006140a8828561401d565b91506140b48284613c88565b91508190509392505050565b7f455243313135353a2069647320616e6420616d6f756e7473206c656e6774682060008201527f6d69736d61746368000000000000000000000000000000000000000000000000602082015250565b600061411c602883612ca1565b9150614127826140c0565b604082019050919050565b6000602082019050818103600083015261414b8161410f565b9050919050565b7f455243313135353a207472616e7366657220746f20746865207a65726f20616460008201527f6472657373000000000000000000000000000000000000000000000000000000602082015250565b60006141ae602583612ca1565b91506141b982614152565b604082019050919050565b600060208201905081810360008301526141dd816141a1565b9050919050565b7f455243313135353a20696e73756666696369656e742062616c616e636520666f60008201527f72207472616e7366657200000000000000000000000000000000000000000000602082015250565b6000614240602a83612ca1565b915061424b826141e4565b604082019050919050565b6000602082019050818103600083015261426f81614233565b9050919050565b600061428182612b0e565b915061428c83612b0e565b9250827fffffffffffffffffffffffffffffffffffffffffffffffffffffffffffffffff038211156142c1576142c0613bba565b5b828201905092915050565b600060408201905081810360008301526142e681856133d4565b905081810360208301526142fa81846133d4565b90509392505050565b7f4e487b7100000000000000000000000000000000000000000000000000000000600052601260045260246000fd5b600061433d82612b0e565b915061434883612b0e565b92508261435857614357614303565b5b828204905092915050565b600061436e82612b0e565b915061437983612b0e565b92508282101561438c5761438b613bba565b5b828203905092915050565b60006143a282612b0e565b91506143ad83612b0e565b9250826143bd576143bc614303565b5b828206905092915050565b7f455243313135353a2073657474696e6720617070726f76616c2073746174757360008201527f20666f722073656c660000000000000000000000000000000000000000000000602082015250565b6000614424602983612ca1565b915061442f826143c8565b604082019050919050565b6000602082019050818103600083015261445381614417565b9050919050565b600060408201905061446f6000830185612b84565b61447c6020830184612b84565b9392505050565b600061448f8285613c88565b915061449b828461401d565b91508190509392505050565b7f426564726f6f6d4e6674496e7374616e6365206e6f7420696e697469616c697a60008201527f6564000000000000000000000000000000000000000000000000000000000000602082015250565b6000614503602283612ca1565b915061450e826144a7565b604082019050919050565b60006020820190508181036000830152614532816144f6565b9050919050565b600060a08201905061454e6000830188612b84565b61455b6020830187612b84565b6145686040830186612b84565b6145756060830185612b84565b6145826080830184612b84565b9695505050505050565b60008160001c9050919050565b6000819050919050565b60006145b66145b18361458c565b614599565b9050919050565b600073ffffffffffffffffffffffffffffffffffffffff82169050919050565b60006145f06145eb8361458c565b6145bd565b9050919050565b60e08201600080830154905061460c816145a3565b61461960008601826133a0565b506001830154905061462a816145a3565b61463760208601826133a0565b5060028301549050614648816145a3565b61465560408601826133a0565b5060038301549050614666816145dd565b6146736060860182613888565b5060048301549050614684816145a3565b61469160808601826133a0565b50600583015490506146a2816145a3565b6146af60a08601826133a0565b50600683015490506146c0816145a3565b6146cd60c08601826133a0565b5050505050565b6000610120820190506146ea6000830186612b84565b81810360208301526146fc8185612cf6565b905061470b60408301846145f7565b949350505050565b600081519050919050565b600082825260208201905092915050565b600061473a82614713565b614744818561471e565b9350614754818560208601612cb2565b61475d81612ce5565b840191505092915050565b600060a08201905061477d6000830188613454565b61478a6020830187613454565b818103604083015261479c81866133d4565b905081810360608301526147b081856133d4565b905081810360808301526147c4818461472f565b90509695505050505050565b6000815190506147df81612bda565b92915050565b6000602082840312156147fb576147fa612aa6565b5b6000614809848285016147d0565b91505092915050565b60008160e01c9050919050565b600060033d111561483e5760046000803e61483b600051614812565b90505b90565b600060443d106148ce57614853612a9c565b60043d036004823e80513d602482011167ffffffffffffffff8211171561487b5750506148ce565b808201805167ffffffffffffffff81111561489957505050506148ce565b80602083010160043d0385018111156148b65750505050506148ce565b6148c582602001850186612d8a565b82955050505050505b90565b7f455243313135353a207472616e7366657220746f206e6f6e204552433131353560008201527f526563656976657220696d706c656d656e746572000000000000000000000000602082015250565b600061492d603483612ca1565b9150614938826148d1565b604082019050919050565b6000602082019050818103600083015261495c81614920565b9050919050565b7f455243313135353a204552433131353552656365697665722072656a6563746560008201527f6420746f6b656e73000000000000000000000000000000000000000000000000602082015250565b60006149bf602883612ca1565b91506149ca82614963565b604082019050919050565b600060208201905081810360008301526149ee816149b2565b9050919050565b600060a082019050614a0a6000830188613454565b614a176020830187613454565b614a246040830186612b84565b614a316060830185612b84565b8181036080830152614a43818461472f565b90509695505050505050565b7f455243313135353a206d696e7420746f20746865207a65726f2061646472657360008201527f7300000000000000000000000000000000000000000000000000000000000000602082015250565b6000614aab602183612ca1565b9150614ab682614a4f565b604082019050919050565b60006020820190508181036000830152614ada81614a9e565b905091905056fea26469706673582212204f471a87d184fa248897c45ccef84c194b2da35a8c0e0cafb63fc3f52becbaf464736f6c634300080d0033",
  "linkReferences": {},
  "deployedLinkReferences": {}
}